{
	"contracts/AddressBook.sol": {
		"AddressBook": {
			"abi": [
				{
					"inputs": [
						{
							"internalType": "address",
							"name": "contactAddress",
							"type": "address"
						},
						{
							"internalType": "string",
							"name": "name",
							"type": "string"
						}
					],
					"name": "addContact",
					"outputs": [],
					"stateMutability": "nonpayable",
					"type": "function"
				},
				{
					"inputs": [
						{
							"internalType": "address",
							"name": "contactAddress",
							"type": "address"
						}
					],
					"name": "getContact",
					"outputs": [
						{
							"internalType": "string",
							"name": "",
							"type": "string"
						}
					],
					"stateMutability": "view",
					"type": "function"
				}
			],
			"devdoc": {
				"kind": "dev",
				"methods": {},
				"version": 1
			},
			"evm": {
				"assembly": "    /* \"contracts/AddressBook.sol\":68:453  contract AddressBook {... */\n  mstore(0x40, 0x80)\n  callvalue\n  dup1\n  iszero\n  tag_1\n  jumpi\n  0x00\n  dup1\n  revert\ntag_1:\n  pop\n  dataSize(sub_0)\n  dup1\n  dataOffset(sub_0)\n  0x00\n  codecopy\n  0x00\n  return\nstop\n\nsub_0: assembly {\n        /* \"contracts/AddressBook.sol\":68:453  contract AddressBook {... */\n      mstore(0x40, 0x80)\n      callvalue\n      dup1\n      iszero\n      tag_1\n      jumpi\n      0x00\n      dup1\n      revert\n    tag_1:\n      pop\n      jumpi(tag_2, lt(calldatasize, 0x04))\n      shr(0xe0, calldataload(0x00))\n      dup1\n      0xc4448164\n      eq\n      tag_3\n      jumpi\n      dup1\n      0xf96a181e\n      eq\n      tag_4\n      jumpi\n    tag_2:\n      0x00\n      dup1\n      revert\n        /* \"contracts/AddressBook.sol\":170:303  function addContact(address contactAddress, string memory name) public {... */\n    tag_3:\n      tag_5\n      0x04\n      dup1\n      calldatasize\n      sub\n      dup2\n      add\n      swap1\n      tag_6\n      swap2\n      swap1\n      tag_7\n      jump\t// in\n    tag_6:\n      tag_8\n      jump\t// in\n    tag_5:\n      stop\n        /* \"contracts/AddressBook.sol\":313:450  function getContact(address contactAddress) public view returns (string memory){... */\n    tag_4:\n      tag_9\n      0x04\n      dup1\n      calldatasize\n      sub\n      dup2\n      add\n      swap1\n      tag_10\n      swap2\n      swap1\n      tag_11\n      jump\t// in\n    tag_10:\n      tag_12\n      jump\t// in\n    tag_9:\n      mload(0x40)\n      tag_13\n      swap2\n      swap1\n      tag_14\n      jump\t// in\n    tag_13:\n      mload(0x40)\n      dup1\n      swap2\n      sub\n      swap1\n      return\n        /* \"contracts/AddressBook.sol\":170:303  function addContact(address contactAddress, string memory name) public {... */\n    tag_8:\n        /* \"contracts/AddressBook.sol\":291:295  name */\n      dup1\n        /* \"contracts/AddressBook.sol\":252:260  contacts */\n      0x00\n        /* \"contracts/AddressBook.sol\":252:272  contacts[msg.sender] */\n      dup1\n        /* \"contracts/AddressBook.sol\":261:271  msg.sender */\n      caller\n        /* \"contracts/AddressBook.sol\":252:272  contacts[msg.sender] */\n      0xffffffffffffffffffffffffffffffffffffffff\n      and\n      0xffffffffffffffffffffffffffffffffffffffff\n      and\n      dup2\n      mstore\n      0x20\n      add\n      swap1\n      dup2\n      mstore\n      0x20\n      add\n      0x00\n      keccak256\n        /* \"contracts/AddressBook.sol\":252:288  contacts[msg.sender][contactAddress] */\n      0x00\n        /* \"contracts/AddressBook.sol\":273:287  contactAddress */\n      dup5\n        /* \"contracts/AddressBook.sol\":252:288  contacts[msg.sender][contactAddress] */\n      0xffffffffffffffffffffffffffffffffffffffff\n      and\n      0xffffffffffffffffffffffffffffffffffffffff\n      and\n      dup2\n      mstore\n      0x20\n      add\n      swap1\n      dup2\n      mstore\n      0x20\n      add\n      0x00\n      keccak256\n        /* \"contracts/AddressBook.sol\":252:295  contacts[msg.sender][contactAddress] = name */\n      swap1\n      dup2\n      tag_16\n      swap2\n      swap1\n      tag_17\n      jump\t// in\n    tag_16:\n      pop\n        /* \"contracts/AddressBook.sol\":170:303  function addContact(address contactAddress, string memory name) public {... */\n      pop\n      pop\n      jump\t// out\n        /* \"contracts/AddressBook.sol\":313:450  function getContact(address contactAddress) public view returns (string memory){... */\n    tag_12:\n        /* \"contracts/AddressBook.sol\":378:391  string memory */\n      0x60\n        /* \"contracts/AddressBook.sol\":406:414  contacts */\n      0x00\n        /* \"contracts/AddressBook.sol\":406:426  contacts[msg.sender] */\n      dup1\n        /* \"contracts/AddressBook.sol\":415:425  msg.sender */\n      caller\n        /* \"contracts/AddressBook.sol\":406:426  contacts[msg.sender] */\n      0xffffffffffffffffffffffffffffffffffffffff\n      and\n      0xffffffffffffffffffffffffffffffffffffffff\n      and\n      dup2\n      mstore\n      0x20\n      add\n      swap1\n      dup2\n      mstore\n      0x20\n      add\n      0x00\n      keccak256\n        /* \"contracts/AddressBook.sol\":406:442  contacts[msg.sender][contactAddress] */\n      0x00\n        /* \"contracts/AddressBook.sol\":427:441  contactAddress */\n      dup4\n        /* \"contracts/AddressBook.sol\":406:442  contacts[msg.sender][contactAddress] */\n      0xffffffffffffffffffffffffffffffffffffffff\n      and\n      0xffffffffffffffffffffffffffffffffffffffff\n      and\n      dup2\n      mstore\n      0x20\n      add\n      swap1\n      dup2\n      mstore\n      0x20\n      add\n      0x00\n      keccak256\n        /* \"contracts/AddressBook.sol\":399:442  return contacts[msg.sender][contactAddress] */\n      dup1\n      sload\n      tag_19\n      swap1\n      tag_20\n      jump\t// in\n    tag_19:\n      dup1\n      0x1f\n      add\n      0x20\n      dup1\n      swap2\n      div\n      mul\n      0x20\n      add\n      mload(0x40)\n      swap1\n      dup2\n      add\n      0x40\n      mstore\n      dup1\n      swap3\n      swap2\n      swap1\n      dup2\n      dup2\n      mstore\n      0x20\n      add\n      dup3\n      dup1\n      sload\n      tag_21\n      swap1\n      tag_20\n      jump\t// in\n    tag_21:\n      dup1\n      iszero\n      tag_22\n      jumpi\n      dup1\n      0x1f\n      lt\n      tag_23\n      jumpi\n      0x0100\n      dup1\n      dup4\n      sload\n      div\n      mul\n      dup4\n      mstore\n      swap2\n      0x20\n      add\n      swap2\n      jump(tag_22)\n    tag_23:\n      dup3\n      add\n      swap2\n      swap1\n      0x00\n      mstore\n      keccak256(0x00, 0x20)\n      swap1\n    tag_24:\n      dup2\n      sload\n      dup2\n      mstore\n      swap1\n      0x01\n      add\n      swap1\n      0x20\n      add\n      dup1\n      dup4\n      gt\n      tag_24\n      jumpi\n      dup3\n      swap1\n      sub\n      0x1f\n      and\n      dup3\n      add\n      swap2\n    tag_22:\n      pop\n      pop\n      pop\n      pop\n      pop\n      swap1\n      pop\n        /* \"contracts/AddressBook.sol\":313:450  function getContact(address contactAddress) public view returns (string memory){... */\n      swap2\n      swap1\n      pop\n      jump\t// out\n        /* \"#utility.yul\":7:82   */\n    tag_25:\n        /* \"#utility.yul\":40:46   */\n      0x00\n        /* \"#utility.yul\":73:75   */\n      0x40\n        /* \"#utility.yul\":67:76   */\n      mload\n        /* \"#utility.yul\":57:76   */\n      swap1\n      pop\n        /* \"#utility.yul\":7:82   */\n      swap1\n      jump\t// out\n        /* \"#utility.yul\":88:205   */\n    tag_26:\n        /* \"#utility.yul\":197:198   */\n      0x00\n        /* \"#utility.yul\":194:195   */\n      dup1\n        /* \"#utility.yul\":187:199   */\n      revert\n        /* \"#utility.yul\":211:328   */\n    tag_27:\n        /* \"#utility.yul\":320:321   */\n      0x00\n        /* \"#utility.yul\":317:318   */\n      dup1\n        /* \"#utility.yul\":310:322   */\n      revert\n        /* \"#utility.yul\":334:460   */\n    tag_28:\n        /* \"#utility.yul\":371:378   */\n      0x00\n        /* \"#utility.yul\":411:453   */\n      0xffffffffffffffffffffffffffffffffffffffff\n        /* \"#utility.yul\":404:409   */\n      dup3\n        /* \"#utility.yul\":400:454   */\n      and\n        /* \"#utility.yul\":389:454   */\n      swap1\n      pop\n        /* \"#utility.yul\":334:460   */\n      swap2\n      swap1\n      pop\n      jump\t// out\n        /* \"#utility.yul\":466:562   */\n    tag_29:\n        /* \"#utility.yul\":503:510   */\n      0x00\n        /* \"#utility.yul\":532:556   */\n      tag_69\n        /* \"#utility.yul\":550:555   */\n      dup3\n        /* \"#utility.yul\":532:556   */\n      tag_28\n      jump\t// in\n    tag_69:\n        /* \"#utility.yul\":521:556   */\n      swap1\n      pop\n        /* \"#utility.yul\":466:562   */\n      swap2\n      swap1\n      pop\n      jump\t// out\n        /* \"#utility.yul\":568:690   */\n    tag_30:\n        /* \"#utility.yul\":641:665   */\n      tag_71\n        /* \"#utility.yul\":659:664   */\n      dup2\n        /* \"#utility.yul\":641:665   */\n      tag_29\n      jump\t// in\n    tag_71:\n        /* \"#utility.yul\":634:639   */\n      dup2\n        /* \"#utility.yul\":631:666   */\n      eq\n        /* \"#utility.yul\":621:684   */\n      tag_72\n      jumpi\n        /* \"#utility.yul\":680:681   */\n      0x00\n        /* \"#utility.yul\":677:678   */\n      dup1\n        /* \"#utility.yul\":670:682   */\n      revert\n        /* \"#utility.yul\":621:684   */\n    tag_72:\n        /* \"#utility.yul\":568:690   */\n      pop\n      jump\t// out\n        /* \"#utility.yul\":696:835   */\n    tag_31:\n        /* \"#utility.yul\":742:747   */\n      0x00\n        /* \"#utility.yul\":780:786   */\n      dup2\n        /* \"#utility.yul\":767:787   */\n      calldataload\n        /* \"#utility.yul\":758:787   */\n      swap1\n      pop\n        /* \"#utility.yul\":796:829   */\n      tag_74\n        /* \"#utility.yul\":823:828   */\n      dup2\n        /* \"#utility.yul\":796:829   */\n      tag_30\n      jump\t// in\n    tag_74:\n        /* \"#utility.yul\":696:835   */\n      swap3\n      swap2\n      pop\n      pop\n      jump\t// out\n        /* \"#utility.yul\":841:958   */\n    tag_32:\n        /* \"#utility.yul\":950:951   */\n      0x00\n        /* \"#utility.yul\":947:948   */\n      dup1\n        /* \"#utility.yul\":940:952   */\n      revert\n        /* \"#utility.yul\":964:1081   */\n    tag_33:\n        /* \"#utility.yul\":1073:1074   */\n      0x00\n        /* \"#utility.yul\":1070:1071   */\n      dup1\n        /* \"#utility.yul\":1063:1075   */\n      revert\n        /* \"#utility.yul\":1087:1189   */\n    tag_34:\n        /* \"#utility.yul\":1128:1134   */\n      0x00\n        /* \"#utility.yul\":1179:1181   */\n      0x1f\n        /* \"#utility.yul\":1175:1182   */\n      not\n        /* \"#utility.yul\":1170:1172   */\n      0x1f\n        /* \"#utility.yul\":1163:1168   */\n      dup4\n        /* \"#utility.yul\":1159:1173   */\n      add\n        /* \"#utility.yul\":1155:1183   */\n      and\n        /* \"#utility.yul\":1145:1183   */\n      swap1\n      pop\n        /* \"#utility.yul\":1087:1189   */\n      swap2\n      swap1\n      pop\n      jump\t// out\n        /* \"#utility.yul\":1195:1375   */\n    tag_35:\n        /* \"#utility.yul\":1243:1320   */\n      0x4e487b7100000000000000000000000000000000000000000000000000000000\n        /* \"#utility.yul\":1240:1241   */\n      0x00\n        /* \"#utility.yul\":1233:1321   */\n      mstore\n        /* \"#utility.yul\":1340:1344   */\n      0x41\n        /* \"#utility.yul\":1337:1338   */\n      0x04\n        /* \"#utility.yul\":1330:1345   */\n      mstore\n        /* \"#utility.yul\":1364:1368   */\n      0x24\n        /* \"#utility.yul\":1361:1362   */\n      0x00\n        /* \"#utility.yul\":1354:1369   */\n      revert\n        /* \"#utility.yul\":1381:1662   */\n    tag_36:\n        /* \"#utility.yul\":1464:1491   */\n      tag_80\n        /* \"#utility.yul\":1486:1490   */\n      dup3\n        /* \"#utility.yul\":1464:1491   */\n      tag_34\n      jump\t// in\n    tag_80:\n        /* \"#utility.yul\":1456:1462   */\n      dup2\n        /* \"#utility.yul\":1452:1492   */\n      add\n        /* \"#utility.yul\":1594:1600   */\n      dup2\n        /* \"#utility.yul\":1582:1592   */\n      dup2\n        /* \"#utility.yul\":1579:1601   */\n      lt\n        /* \"#utility.yul\":1558:1576   */\n      0xffffffffffffffff\n        /* \"#utility.yul\":1546:1556   */\n      dup3\n        /* \"#utility.yul\":1543:1577   */\n      gt\n        /* \"#utility.yul\":1540:1602   */\n      or\n        /* \"#utility.yul\":1537:1625   */\n      iszero\n      tag_81\n      jumpi\n        /* \"#utility.yul\":1605:1623   */\n      tag_82\n      tag_35\n      jump\t// in\n    tag_82:\n        /* \"#utility.yul\":1537:1625   */\n    tag_81:\n        /* \"#utility.yul\":1645:1655   */\n      dup1\n        /* \"#utility.yul\":1641:1643   */\n      0x40\n        /* \"#utility.yul\":1634:1656   */\n      mstore\n        /* \"#utility.yul\":1424:1662   */\n      pop\n        /* \"#utility.yul\":1381:1662   */\n      pop\n      pop\n      jump\t// out\n        /* \"#utility.yul\":1668:1797   */\n    tag_37:\n        /* \"#utility.yul\":1702:1708   */\n      0x00\n        /* \"#utility.yul\":1729:1749   */\n      tag_84\n      tag_25\n      jump\t// in\n    tag_84:\n        /* \"#utility.yul\":1719:1749   */\n      swap1\n      pop\n        /* \"#utility.yul\":1758:1791   */\n      tag_85\n        /* \"#utility.yul\":1786:1790   */\n      dup3\n        /* \"#utility.yul\":1778:1784   */\n      dup3\n        /* \"#utility.yul\":1758:1791   */\n      tag_36\n      jump\t// in\n    tag_85:\n        /* \"#utility.yul\":1668:1797   */\n      swap2\n      swap1\n      pop\n      jump\t// out\n        /* \"#utility.yul\":1803:2111   */\n    tag_38:\n        /* \"#utility.yul\":1865:1869   */\n      0x00\n        /* \"#utility.yul\":1955:1973   */\n      0xffffffffffffffff\n        /* \"#utility.yul\":1947:1953   */\n      dup3\n        /* \"#utility.yul\":1944:1974   */\n      gt\n        /* \"#utility.yul\":1941:1997   */\n      iszero\n      tag_87\n      jumpi\n        /* \"#utility.yul\":1977:1995   */\n      tag_88\n      tag_35\n      jump\t// in\n    tag_88:\n        /* \"#utility.yul\":1941:1997   */\n    tag_87:\n        /* \"#utility.yul\":2015:2044   */\n      tag_89\n        /* \"#utility.yul\":2037:2043   */\n      dup3\n        /* \"#utility.yul\":2015:2044   */\n      tag_34\n      jump\t// in\n    tag_89:\n        /* \"#utility.yul\":2007:2044   */\n      swap1\n      pop\n        /* \"#utility.yul\":2099:2103   */\n      0x20\n        /* \"#utility.yul\":2093:2097   */\n      dup2\n        /* \"#utility.yul\":2089:2104   */\n      add\n        /* \"#utility.yul\":2081:2104   */\n      swap1\n      pop\n        /* \"#utility.yul\":1803:2111   */\n      swap2\n      swap1\n      pop\n      jump\t// out\n        /* \"#utility.yul\":2117:2263   */\n    tag_39:\n        /* \"#utility.yul\":2214:2220   */\n      dup3\n        /* \"#utility.yul\":2209:2212   */\n      dup2\n        /* \"#utility.yul\":2204:2207   */\n      dup4\n        /* \"#utility.yul\":2191:2221   */\n      calldatacopy\n        /* \"#utility.yul\":2255:2256   */\n      0x00\n        /* \"#utility.yul\":2246:2252   */\n      dup4\n        /* \"#utility.yul\":2241:2244   */\n      dup4\n        /* \"#utility.yul\":2237:2253   */\n      add\n        /* \"#utility.yul\":2230:2257   */\n      mstore\n        /* \"#utility.yul\":2117:2263   */\n      pop\n      pop\n      pop\n      jump\t// out\n        /* \"#utility.yul\":2269:2694   */\n    tag_40:\n        /* \"#utility.yul\":2347:2352   */\n      0x00\n        /* \"#utility.yul\":2372:2438   */\n      tag_92\n        /* \"#utility.yul\":2388:2437   */\n      tag_93\n        /* \"#utility.yul\":2430:2436   */\n      dup5\n        /* \"#utility.yul\":2388:2437   */\n      tag_38\n      jump\t// in\n    tag_93:\n        /* \"#utility.yul\":2372:2438   */\n      tag_37\n      jump\t// in\n    tag_92:\n        /* \"#utility.yul\":2363:2438   */\n      swap1\n      pop\n        /* \"#utility.yul\":2461:2467   */\n      dup3\n        /* \"#utility.yul\":2454:2459   */\n      dup2\n        /* \"#utility.yul\":2447:2468   */\n      mstore\n        /* \"#utility.yul\":2499:2503   */\n      0x20\n        /* \"#utility.yul\":2492:2497   */\n      dup2\n        /* \"#utility.yul\":2488:2504   */\n      add\n        /* \"#utility.yul\":2537:2540   */\n      dup5\n        /* \"#utility.yul\":2528:2534   */\n      dup5\n        /* \"#utility.yul\":2523:2526   */\n      dup5\n        /* \"#utility.yul\":2519:2535   */\n      add\n        /* \"#utility.yul\":2516:2541   */\n      gt\n        /* \"#utility.yul\":2513:2625   */\n      iszero\n      tag_94\n      jumpi\n        /* \"#utility.yul\":2544:2623   */\n      tag_95\n      tag_33\n      jump\t// in\n    tag_95:\n        /* \"#utility.yul\":2513:2625   */\n    tag_94:\n        /* \"#utility.yul\":2634:2688   */\n      tag_96\n        /* \"#utility.yul\":2681:2687   */\n      dup5\n        /* \"#utility.yul\":2676:2679   */\n      dup3\n        /* \"#utility.yul\":2671:2674   */\n      dup6\n        /* \"#utility.yul\":2634:2688   */\n      tag_39\n      jump\t// in\n    tag_96:\n        /* \"#utility.yul\":2353:2694   */\n      pop\n        /* \"#utility.yul\":2269:2694   */\n      swap4\n      swap3\n      pop\n      pop\n      pop\n      jump\t// out\n        /* \"#utility.yul\":2714:3054   */\n    tag_41:\n        /* \"#utility.yul\":2770:2775   */\n      0x00\n        /* \"#utility.yul\":2819:2822   */\n      dup3\n        /* \"#utility.yul\":2812:2816   */\n      0x1f\n        /* \"#utility.yul\":2804:2810   */\n      dup4\n        /* \"#utility.yul\":2800:2817   */\n      add\n        /* \"#utility.yul\":2796:2823   */\n      slt\n        /* \"#utility.yul\":2786:2908   */\n      tag_98\n      jumpi\n        /* \"#utility.yul\":2827:2906   */\n      tag_99\n      tag_32\n      jump\t// in\n    tag_99:\n        /* \"#utility.yul\":2786:2908   */\n    tag_98:\n        /* \"#utility.yul\":2944:2950   */\n      dup2\n        /* \"#utility.yul\":2931:2951   */\n      calldataload\n        /* \"#utility.yul\":2969:3048   */\n      tag_100\n        /* \"#utility.yul\":3044:3047   */\n      dup5\n        /* \"#utility.yul\":3036:3042   */\n      dup3\n        /* \"#utility.yul\":3029:3033   */\n      0x20\n        /* \"#utility.yul\":3021:3027   */\n      dup7\n        /* \"#utility.yul\":3017:3034   */\n      add\n        /* \"#utility.yul\":2969:3048   */\n      tag_40\n      jump\t// in\n    tag_100:\n        /* \"#utility.yul\":2960:3048   */\n      swap2\n      pop\n        /* \"#utility.yul\":2776:3054   */\n      pop\n        /* \"#utility.yul\":2714:3054   */\n      swap3\n      swap2\n      pop\n      pop\n      jump\t// out\n        /* \"#utility.yul\":3060:3714   */\n    tag_7:\n        /* \"#utility.yul\":3138:3144   */\n      0x00\n        /* \"#utility.yul\":3146:3152   */\n      dup1\n        /* \"#utility.yul\":3195:3197   */\n      0x40\n        /* \"#utility.yul\":3183:3192   */\n      dup4\n        /* \"#utility.yul\":3174:3181   */\n      dup6\n        /* \"#utility.yul\":3170:3193   */\n      sub\n        /* \"#utility.yul\":3166:3198   */\n      slt\n        /* \"#utility.yul\":3163:3282   */\n      iszero\n      tag_102\n      jumpi\n        /* \"#utility.yul\":3201:3280   */\n      tag_103\n      tag_26\n      jump\t// in\n    tag_103:\n        /* \"#utility.yul\":3163:3282   */\n    tag_102:\n        /* \"#utility.yul\":3321:3322   */\n      0x00\n        /* \"#utility.yul\":3346:3399   */\n      tag_104\n        /* \"#utility.yul\":3391:3398   */\n      dup6\n        /* \"#utility.yul\":3382:3388   */\n      dup3\n        /* \"#utility.yul\":3371:3380   */\n      dup7\n        /* \"#utility.yul\":3367:3389   */\n      add\n        /* \"#utility.yul\":3346:3399   */\n      tag_31\n      jump\t// in\n    tag_104:\n        /* \"#utility.yul\":3336:3399   */\n      swap3\n      pop\n        /* \"#utility.yul\":3292:3409   */\n      pop\n        /* \"#utility.yul\":3476:3478   */\n      0x20\n        /* \"#utility.yul\":3465:3474   */\n      dup4\n        /* \"#utility.yul\":3461:3479   */\n      add\n        /* \"#utility.yul\":3448:3480   */\n      calldataload\n        /* \"#utility.yul\":3507:3525   */\n      0xffffffffffffffff\n        /* \"#utility.yul\":3499:3505   */\n      dup2\n        /* \"#utility.yul\":3496:3526   */\n      gt\n        /* \"#utility.yul\":3493:3610   */\n      iszero\n      tag_105\n      jumpi\n        /* \"#utility.yul\":3529:3608   */\n      tag_106\n      tag_27\n      jump\t// in\n    tag_106:\n        /* \"#utility.yul\":3493:3610   */\n    tag_105:\n        /* \"#utility.yul\":3634:3697   */\n      tag_107\n        /* \"#utility.yul\":3689:3696   */\n      dup6\n        /* \"#utility.yul\":3680:3686   */\n      dup3\n        /* \"#utility.yul\":3669:3678   */\n      dup7\n        /* \"#utility.yul\":3665:3687   */\n      add\n        /* \"#utility.yul\":3634:3697   */\n      tag_41\n      jump\t// in\n    tag_107:\n        /* \"#utility.yul\":3624:3697   */\n      swap2\n      pop\n        /* \"#utility.yul\":3419:3707   */\n      pop\n        /* \"#utility.yul\":3060:3714   */\n      swap3\n      pop\n      swap3\n      swap1\n      pop\n      jump\t// out\n        /* \"#utility.yul\":3720:4049   */\n    tag_11:\n        /* \"#utility.yul\":3779:3785   */\n      0x00\n        /* \"#utility.yul\":3828:3830   */\n      0x20\n        /* \"#utility.yul\":3816:3825   */\n      dup3\n        /* \"#utility.yul\":3807:3814   */\n      dup5\n        /* \"#utility.yul\":3803:3826   */\n      sub\n        /* \"#utility.yul\":3799:3831   */\n      slt\n        /* \"#utility.yul\":3796:3915   */\n      iszero\n      tag_109\n      jumpi\n        /* \"#utility.yul\":3834:3913   */\n      tag_110\n      tag_26\n      jump\t// in\n    tag_110:\n        /* \"#utility.yul\":3796:3915   */\n    tag_109:\n        /* \"#utility.yul\":3954:3955   */\n      0x00\n        /* \"#utility.yul\":3979:4032   */\n      tag_111\n        /* \"#utility.yul\":4024:4031   */\n      dup5\n        /* \"#utility.yul\":4015:4021   */\n      dup3\n        /* \"#utility.yul\":4004:4013   */\n      dup6\n        /* \"#utility.yul\":4000:4022   */\n      add\n        /* \"#utility.yul\":3979:4032   */\n      tag_31\n      jump\t// in\n    tag_111:\n        /* \"#utility.yul\":3969:4032   */\n      swap2\n      pop\n        /* \"#utility.yul\":3925:4042   */\n      pop\n        /* \"#utility.yul\":3720:4049   */\n      swap3\n      swap2\n      pop\n      pop\n      jump\t// out\n        /* \"#utility.yul\":4055:4154   */\n    tag_42:\n        /* \"#utility.yul\":4107:4113   */\n      0x00\n        /* \"#utility.yul\":4141:4146   */\n      dup2\n        /* \"#utility.yul\":4135:4147   */\n      mload\n        /* \"#utility.yul\":4125:4147   */\n      swap1\n      pop\n        /* \"#utility.yul\":4055:4154   */\n      swap2\n      swap1\n      pop\n      jump\t// out\n        /* \"#utility.yul\":4160:4329   */\n    tag_43:\n        /* \"#utility.yul\":4244:4255   */\n      0x00\n        /* \"#utility.yul\":4278:4284   */\n      dup3\n        /* \"#utility.yul\":4273:4276   */\n      dup3\n        /* \"#utility.yul\":4266:4285   */\n      mstore\n        /* \"#utility.yul\":4318:4322   */\n      0x20\n        /* \"#utility.yul\":4313:4316   */\n      dup3\n        /* \"#utility.yul\":4309:4323   */\n      add\n        /* \"#utility.yul\":4294:4323   */\n      swap1\n      pop\n        /* \"#utility.yul\":4160:4329   */\n      swap3\n      swap2\n      pop\n      pop\n      jump\t// out\n        /* \"#utility.yul\":4335:4581   */\n    tag_44:\n        /* \"#utility.yul\":4416:4417   */\n      0x00\n        /* \"#utility.yul\":4426:4539   */\n    tag_115:\n        /* \"#utility.yul\":4440:4446   */\n      dup4\n        /* \"#utility.yul\":4437:4438   */\n      dup2\n        /* \"#utility.yul\":4434:4447   */\n      lt\n        /* \"#utility.yul\":4426:4539   */\n      iszero\n      tag_117\n      jumpi\n        /* \"#utility.yul\":4525:4526   */\n      dup1\n        /* \"#utility.yul\":4520:4523   */\n      dup3\n        /* \"#utility.yul\":4516:4527   */\n      add\n        /* \"#utility.yul\":4510:4528   */\n      mload\n        /* \"#utility.yul\":4506:4507   */\n      dup2\n        /* \"#utility.yul\":4501:4504   */\n      dup5\n        /* \"#utility.yul\":4497:4508   */\n      add\n        /* \"#utility.yul\":4490:4529   */\n      mstore\n        /* \"#utility.yul\":4462:4464   */\n      0x20\n        /* \"#utility.yul\":4459:4460   */\n      dup2\n        /* \"#utility.yul\":4455:4465   */\n      add\n        /* \"#utility.yul\":4450:4465   */\n      swap1\n      pop\n        /* \"#utility.yul\":4426:4539   */\n      jump(tag_115)\n    tag_117:\n        /* \"#utility.yul\":4573:4574   */\n      0x00\n        /* \"#utility.yul\":4564:4570   */\n      dup5\n        /* \"#utility.yul\":4559:4562   */\n      dup5\n        /* \"#utility.yul\":4555:4571   */\n      add\n        /* \"#utility.yul\":4548:4575   */\n      mstore\n        /* \"#utility.yul\":4397:4581   */\n      pop\n        /* \"#utility.yul\":4335:4581   */\n      pop\n      pop\n      pop\n      jump\t// out\n        /* \"#utility.yul\":4587:4964   */\n    tag_45:\n        /* \"#utility.yul\":4675:4678   */\n      0x00\n        /* \"#utility.yul\":4703:4742   */\n      tag_119\n        /* \"#utility.yul\":4736:4741   */\n      dup3\n        /* \"#utility.yul\":4703:4742   */\n      tag_42\n      jump\t// in\n    tag_119:\n        /* \"#utility.yul\":4758:4829   */\n      tag_120\n        /* \"#utility.yul\":4822:4828   */\n      dup2\n        /* \"#utility.yul\":4817:4820   */\n      dup6\n        /* \"#utility.yul\":4758:4829   */\n      tag_43\n      jump\t// in\n    tag_120:\n        /* \"#utility.yul\":4751:4829   */\n      swap4\n      pop\n        /* \"#utility.yul\":4838:4903   */\n      tag_121\n        /* \"#utility.yul\":4896:4902   */\n      dup2\n        /* \"#utility.yul\":4891:4894   */\n      dup6\n        /* \"#utility.yul\":4884:4888   */\n      0x20\n        /* \"#utility.yul\":4877:4882   */\n      dup7\n        /* \"#utility.yul\":4873:4889   */\n      add\n        /* \"#utility.yul\":4838:4903   */\n      tag_44\n      jump\t// in\n    tag_121:\n        /* \"#utility.yul\":4928:4957   */\n      tag_122\n        /* \"#utility.yul\":4950:4956   */\n      dup2\n        /* \"#utility.yul\":4928:4957   */\n      tag_34\n      jump\t// in\n    tag_122:\n        /* \"#utility.yul\":4923:4926   */\n      dup5\n        /* \"#utility.yul\":4919:4958   */\n      add\n        /* \"#utility.yul\":4912:4958   */\n      swap2\n      pop\n        /* \"#utility.yul\":4679:4964   */\n      pop\n        /* \"#utility.yul\":4587:4964   */\n      swap3\n      swap2\n      pop\n      pop\n      jump\t// out\n        /* \"#utility.yul\":4970:5283   */\n    tag_14:\n        /* \"#utility.yul\":5083:5087   */\n      0x00\n        /* \"#utility.yul\":5121:5123   */\n      0x20\n        /* \"#utility.yul\":5110:5119   */\n      dup3\n        /* \"#utility.yul\":5106:5124   */\n      add\n        /* \"#utility.yul\":5098:5124   */\n      swap1\n      pop\n        /* \"#utility.yul\":5170:5179   */\n      dup2\n        /* \"#utility.yul\":5164:5168   */\n      dup2\n        /* \"#utility.yul\":5160:5180   */\n      sub\n        /* \"#utility.yul\":5156:5157   */\n      0x00\n        /* \"#utility.yul\":5145:5154   */\n      dup4\n        /* \"#utility.yul\":5141:5158   */\n      add\n        /* \"#utility.yul\":5134:5181   */\n      mstore\n        /* \"#utility.yul\":5198:5276   */\n      tag_124\n        /* \"#utility.yul\":5271:5275   */\n      dup2\n        /* \"#utility.yul\":5262:5268   */\n      dup5\n        /* \"#utility.yul\":5198:5276   */\n      tag_45\n      jump\t// in\n    tag_124:\n        /* \"#utility.yul\":5190:5276   */\n      swap1\n      pop\n        /* \"#utility.yul\":4970:5283   */\n      swap3\n      swap2\n      pop\n      pop\n      jump\t// out\n        /* \"#utility.yul\":5289:5469   */\n    tag_46:\n        /* \"#utility.yul\":5337:5414   */\n      0x4e487b7100000000000000000000000000000000000000000000000000000000\n        /* \"#utility.yul\":5334:5335   */\n      0x00\n        /* \"#utility.yul\":5327:5415   */\n      mstore\n        /* \"#utility.yul\":5434:5438   */\n      0x22\n        /* \"#utility.yul\":5431:5432   */\n      0x04\n        /* \"#utility.yul\":5424:5439   */\n      mstore\n        /* \"#utility.yul\":5458:5462   */\n      0x24\n        /* \"#utility.yul\":5455:5456   */\n      0x00\n        /* \"#utility.yul\":5448:5463   */\n      revert\n        /* \"#utility.yul\":5475:5795   */\n    tag_20:\n        /* \"#utility.yul\":5519:5525   */\n      0x00\n        /* \"#utility.yul\":5556:5557   */\n      0x02\n        /* \"#utility.yul\":5550:5554   */\n      dup3\n        /* \"#utility.yul\":5546:5558   */\n      div\n        /* \"#utility.yul\":5536:5558   */\n      swap1\n      pop\n        /* \"#utility.yul\":5603:5604   */\n      0x01\n        /* \"#utility.yul\":5597:5601   */\n      dup3\n        /* \"#utility.yul\":5593:5605   */\n      and\n        /* \"#utility.yul\":5624:5642   */\n      dup1\n        /* \"#utility.yul\":5614:5695   */\n      tag_127\n      jumpi\n        /* \"#utility.yul\":5680:5684   */\n      0x7f\n        /* \"#utility.yul\":5672:5678   */\n      dup3\n        /* \"#utility.yul\":5668:5685   */\n      and\n        /* \"#utility.yul\":5658:5685   */\n      swap2\n      pop\n        /* \"#utility.yul\":5614:5695   */\n    tag_127:\n        /* \"#utility.yul\":5742:5744   */\n      0x20\n        /* \"#utility.yul\":5734:5740   */\n      dup3\n        /* \"#utility.yul\":5731:5745   */\n      lt\n        /* \"#utility.yul\":5711:5729   */\n      dup2\n        /* \"#utility.yul\":5708:5746   */\n      sub\n        /* \"#utility.yul\":5705:5789   */\n      tag_128\n      jumpi\n        /* \"#utility.yul\":5761:5779   */\n      tag_129\n      tag_46\n      jump\t// in\n    tag_129:\n        /* \"#utility.yul\":5705:5789   */\n    tag_128:\n        /* \"#utility.yul\":5526:5795   */\n      pop\n        /* \"#utility.yul\":5475:5795   */\n      swap2\n      swap1\n      pop\n      jump\t// out\n        /* \"#utility.yul\":5801:5942   */\n    tag_47:\n        /* \"#utility.yul\":5850:5854   */\n      0x00\n        /* \"#utility.yul\":5873:5876   */\n      dup2\n        /* \"#utility.yul\":5865:5876   */\n      swap1\n      pop\n        /* \"#utility.yul\":5896:5899   */\n      dup2\n        /* \"#utility.yul\":5893:5894   */\n      0x00\n        /* \"#utility.yul\":5886:5900   */\n      mstore\n        /* \"#utility.yul\":5930:5934   */\n      0x20\n        /* \"#utility.yul\":5927:5928   */\n      0x00\n        /* \"#utility.yul\":5917:5935   */\n      keccak256\n        /* \"#utility.yul\":5909:5935   */\n      swap1\n      pop\n        /* \"#utility.yul\":5801:5942   */\n      swap2\n      swap1\n      pop\n      jump\t// out\n        /* \"#utility.yul\":5948:6041   */\n    tag_48:\n        /* \"#utility.yul\":5985:5991   */\n      0x00\n        /* \"#utility.yul\":6032:6034   */\n      0x20\n        /* \"#utility.yul\":6027:6029   */\n      0x1f\n        /* \"#utility.yul\":6020:6025   */\n      dup4\n        /* \"#utility.yul\":6016:6030   */\n      add\n        /* \"#utility.yul\":6012:6035   */\n      div\n        /* \"#utility.yul\":6002:6035   */\n      swap1\n      pop\n        /* \"#utility.yul\":5948:6041   */\n      swap2\n      swap1\n      pop\n      jump\t// out\n        /* \"#utility.yul\":6047:6154   */\n    tag_49:\n        /* \"#utility.yul\":6091:6099   */\n      0x00\n        /* \"#utility.yul\":6141:6146   */\n      dup3\n        /* \"#utility.yul\":6135:6139   */\n      dup3\n        /* \"#utility.yul\":6131:6147   */\n      shl\n        /* \"#utility.yul\":6110:6147   */\n      swap1\n      pop\n        /* \"#utility.yul\":6047:6154   */\n      swap3\n      swap2\n      pop\n      pop\n      jump\t// out\n        /* \"#utility.yul\":6160:6553   */\n    tag_50:\n        /* \"#utility.yul\":6229:6235   */\n      0x00\n        /* \"#utility.yul\":6279:6280   */\n      0x08\n        /* \"#utility.yul\":6267:6277   */\n      dup4\n        /* \"#utility.yul\":6263:6281   */\n      mul\n        /* \"#utility.yul\":6302:6399   */\n      tag_134\n        /* \"#utility.yul\":6332:6398   */\n      0xffffffffffffffffffffffffffffffffffffffffffffffffffffffffffffffff\n        /* \"#utility.yul\":6321:6330   */\n      dup3\n        /* \"#utility.yul\":6302:6399   */\n      tag_49\n      jump\t// in\n    tag_134:\n        /* \"#utility.yul\":6420:6459   */\n      tag_135\n        /* \"#utility.yul\":6450:6458   */\n      dup7\n        /* \"#utility.yul\":6439:6448   */\n      dup4\n        /* \"#utility.yul\":6420:6459   */\n      tag_49\n      jump\t// in\n    tag_135:\n        /* \"#utility.yul\":6408:6459   */\n      swap6\n      pop\n        /* \"#utility.yul\":6492:6496   */\n      dup1\n        /* \"#utility.yul\":6488:6497   */\n      not\n        /* \"#utility.yul\":6481:6486   */\n      dup5\n        /* \"#utility.yul\":6477:6498   */\n      and\n        /* \"#utility.yul\":6468:6498   */\n      swap4\n      pop\n        /* \"#utility.yul\":6541:6545   */\n      dup1\n        /* \"#utility.yul\":6531:6539   */\n      dup7\n        /* \"#utility.yul\":6527:6546   */\n      and\n        /* \"#utility.yul\":6520:6525   */\n      dup5\n        /* \"#utility.yul\":6517:6547   */\n      or\n        /* \"#utility.yul\":6507:6547   */\n      swap3\n      pop\n        /* \"#utility.yul\":6236:6553   */\n      pop\n      pop\n        /* \"#utility.yul\":6160:6553   */\n      swap4\n      swap3\n      pop\n      pop\n      pop\n      jump\t// out\n        /* \"#utility.yul\":6559:6636   */\n    tag_51:\n        /* \"#utility.yul\":6596:6603   */\n      0x00\n        /* \"#utility.yul\":6625:6630   */\n      dup2\n        /* \"#utility.yul\":6614:6630   */\n      swap1\n      pop\n        /* \"#utility.yul\":6559:6636   */\n      swap2\n      swap1\n      pop\n      jump\t// out\n        /* \"#utility.yul\":6642:6702   */\n    tag_52:\n        /* \"#utility.yul\":6670:6673   */\n      0x00\n        /* \"#utility.yul\":6691:6696   */\n      dup2\n        /* \"#utility.yul\":6684:6696   */\n      swap1\n      pop\n        /* \"#utility.yul\":6642:6702   */\n      swap2\n      swap1\n      pop\n      jump\t// out\n        /* \"#utility.yul\":6708:6850   */\n    tag_53:\n        /* \"#utility.yul\":6758:6767   */\n      0x00\n        /* \"#utility.yul\":6791:6844   */\n      tag_139\n        /* \"#utility.yul\":6809:6843   */\n      tag_140\n        /* \"#utility.yul\":6818:6842   */\n      tag_141\n        /* \"#utility.yul\":6836:6841   */\n      dup5\n        /* \"#utility.yul\":6818:6842   */\n      tag_51\n      jump\t// in\n    tag_141:\n        /* \"#utility.yul\":6809:6843   */\n      tag_52\n      jump\t// in\n    tag_140:\n        /* \"#utility.yul\":6791:6844   */\n      tag_51\n      jump\t// in\n    tag_139:\n        /* \"#utility.yul\":6778:6844   */\n      swap1\n      pop\n        /* \"#utility.yul\":6708:6850   */\n      swap2\n      swap1\n      pop\n      jump\t// out\n        /* \"#utility.yul\":6856:6931   */\n    tag_54:\n        /* \"#utility.yul\":6899:6902   */\n      0x00\n        /* \"#utility.yul\":6920:6925   */\n      dup2\n        /* \"#utility.yul\":6913:6925   */\n      swap1\n      pop\n        /* \"#utility.yul\":6856:6931   */\n      swap2\n      swap1\n      pop\n      jump\t// out\n        /* \"#utility.yul\":6937:7206   */\n    tag_55:\n        /* \"#utility.yul\":7047:7086   */\n      tag_144\n        /* \"#utility.yul\":7078:7085   */\n      dup4\n        /* \"#utility.yul\":7047:7086   */\n      tag_53\n      jump\t// in\n    tag_144:\n        /* \"#utility.yul\":7108:7199   */\n      tag_145\n        /* \"#utility.yul\":7157:7198   */\n      tag_146\n        /* \"#utility.yul\":7181:7197   */\n      dup3\n        /* \"#utility.yul\":7157:7198   */\n      tag_54\n      jump\t// in\n    tag_146:\n        /* \"#utility.yul\":7149:7155   */\n      dup5\n        /* \"#utility.yul\":7142:7146   */\n      dup5\n        /* \"#utility.yul\":7136:7147   */\n      sload\n        /* \"#utility.yul\":7108:7199   */\n      tag_50\n      jump\t// in\n    tag_145:\n        /* \"#utility.yul\":7102:7106   */\n      dup3\n        /* \"#utility.yul\":7095:7200   */\n      sstore\n        /* \"#utility.yul\":7013:7206   */\n      pop\n        /* \"#utility.yul\":6937:7206   */\n      pop\n      pop\n      pop\n      jump\t// out\n        /* \"#utility.yul\":7212:7285   */\n    tag_56:\n        /* \"#utility.yul\":7257:7260   */\n      0x00\n        /* \"#utility.yul\":7212:7285   */\n      swap1\n      jump\t// out\n        /* \"#utility.yul\":7291:7480   */\n    tag_57:\n        /* \"#utility.yul\":7368:7400   */\n      tag_149\n      tag_56\n      jump\t// in\n    tag_149:\n        /* \"#utility.yul\":7409:7474   */\n      tag_150\n        /* \"#utility.yul\":7467:7473   */\n      dup2\n        /* \"#utility.yul\":7459:7465   */\n      dup5\n        /* \"#utility.yul\":7453:7457   */\n      dup5\n        /* \"#utility.yul\":7409:7474   */\n      tag_55\n      jump\t// in\n    tag_150:\n        /* \"#utility.yul\":7344:7480   */\n      pop\n        /* \"#utility.yul\":7291:7480   */\n      pop\n      pop\n      jump\t// out\n        /* \"#utility.yul\":7486:7672   */\n    tag_58:\n        /* \"#utility.yul\":7546:7666   */\n    tag_152:\n        /* \"#utility.yul\":7563:7566   */\n      dup2\n        /* \"#utility.yul\":7556:7561   */\n      dup2\n        /* \"#utility.yul\":7553:7567   */\n      lt\n        /* \"#utility.yul\":7546:7666   */\n      iszero\n      tag_154\n      jumpi\n        /* \"#utility.yul\":7617:7656   */\n      tag_155\n        /* \"#utility.yul\":7654:7655   */\n      0x00\n        /* \"#utility.yul\":7647:7652   */\n      dup3\n        /* \"#utility.yul\":7617:7656   */\n      tag_57\n      jump\t// in\n    tag_155:\n        /* \"#utility.yul\":7590:7591   */\n      0x01\n        /* \"#utility.yul\":7583:7588   */\n      dup2\n        /* \"#utility.yul\":7579:7592   */\n      add\n        /* \"#utility.yul\":7570:7592   */\n      swap1\n      pop\n        /* \"#utility.yul\":7546:7666   */\n      jump(tag_152)\n    tag_154:\n        /* \"#utility.yul\":7486:7672   */\n      pop\n      pop\n      jump\t// out\n        /* \"#utility.yul\":7678:8221   */\n    tag_59:\n        /* \"#utility.yul\":7779:7781   */\n      0x1f\n        /* \"#utility.yul\":7774:7777   */\n      dup3\n        /* \"#utility.yul\":7771:7782   */\n      gt\n        /* \"#utility.yul\":7768:8214   */\n      iszero\n      tag_157\n      jumpi\n        /* \"#utility.yul\":7813:7851   */\n      tag_158\n        /* \"#utility.yul\":7845:7850   */\n      dup2\n        /* \"#utility.yul\":7813:7851   */\n      tag_47\n      jump\t// in\n    tag_158:\n        /* \"#utility.yul\":7897:7926   */\n      tag_159\n        /* \"#utility.yul\":7915:7925   */\n      dup5\n        /* \"#utility.yul\":7897:7926   */\n      tag_48\n      jump\t// in\n    tag_159:\n        /* \"#utility.yul\":7887:7895   */\n      dup2\n        /* \"#utility.yul\":7883:7927   */\n      add\n        /* \"#utility.yul\":8080:8082   */\n      0x20\n        /* \"#utility.yul\":8068:8078   */\n      dup6\n        /* \"#utility.yul\":8065:8083   */\n      lt\n        /* \"#utility.yul\":8062:8111   */\n      iszero\n      tag_160\n      jumpi\n        /* \"#utility.yul\":8101:8109   */\n      dup2\n        /* \"#utility.yul\":8086:8109   */\n      swap1\n      pop\n        /* \"#utility.yul\":8062:8111   */\n    tag_160:\n        /* \"#utility.yul\":8124:8204   */\n      tag_161\n        /* \"#utility.yul\":8180:8202   */\n      tag_162\n        /* \"#utility.yul\":8198:8201   */\n      dup6\n        /* \"#utility.yul\":8180:8202   */\n      tag_48\n      jump\t// in\n    tag_162:\n        /* \"#utility.yul\":8170:8178   */\n      dup4\n        /* \"#utility.yul\":8166:8203   */\n      add\n        /* \"#utility.yul\":8153:8164   */\n      dup3\n        /* \"#utility.yul\":8124:8204   */\n      tag_58\n      jump\t// in\n    tag_161:\n        /* \"#utility.yul\":7783:8214   */\n      pop\n      pop\n        /* \"#utility.yul\":7768:8214   */\n    tag_157:\n        /* \"#utility.yul\":7678:8221   */\n      pop\n      pop\n      pop\n      jump\t// out\n        /* \"#utility.yul\":8227:8344   */\n    tag_60:\n        /* \"#utility.yul\":8281:8289   */\n      0x00\n        /* \"#utility.yul\":8331:8336   */\n      dup3\n        /* \"#utility.yul\":8325:8329   */\n      dup3\n        /* \"#utility.yul\":8321:8337   */\n      shr\n        /* \"#utility.yul\":8300:8337   */\n      swap1\n      pop\n        /* \"#utility.yul\":8227:8344   */\n      swap3\n      swap2\n      pop\n      pop\n      jump\t// out\n        /* \"#utility.yul\":8350:8519   */\n    tag_61:\n        /* \"#utility.yul\":8394:8400   */\n      0x00\n        /* \"#utility.yul\":8427:8478   */\n      tag_165\n        /* \"#utility.yul\":8475:8476   */\n      0x00\n        /* \"#utility.yul\":8471:8477   */\n      not\n        /* \"#utility.yul\":8463:8468   */\n      dup5\n        /* \"#utility.yul\":8460:8461   */\n      0x08\n        /* \"#utility.yul\":8456:8469   */\n      mul\n        /* \"#utility.yul\":8427:8478   */\n      tag_60\n      jump\t// in\n    tag_165:\n        /* \"#utility.yul\":8423:8479   */\n      not\n        /* \"#utility.yul\":8508:8512   */\n      dup1\n        /* \"#utility.yul\":8502:8506   */\n      dup4\n        /* \"#utility.yul\":8498:8513   */\n      and\n        /* \"#utility.yul\":8488:8513   */\n      swap2\n      pop\n        /* \"#utility.yul\":8401:8519   */\n      pop\n        /* \"#utility.yul\":8350:8519   */\n      swap3\n      swap2\n      pop\n      pop\n      jump\t// out\n        /* \"#utility.yul\":8524:8819   */\n    tag_62:\n        /* \"#utility.yul\":8600:8604   */\n      0x00\n        /* \"#utility.yul\":8746:8775   */\n      tag_167\n        /* \"#utility.yul\":8771:8774   */\n      dup4\n        /* \"#utility.yul\":8765:8769   */\n      dup4\n        /* \"#utility.yul\":8746:8775   */\n      tag_61\n      jump\t// in\n    tag_167:\n        /* \"#utility.yul\":8738:8775   */\n      swap2\n      pop\n        /* \"#utility.yul\":8808:8811   */\n      dup3\n        /* \"#utility.yul\":8805:8806   */\n      0x02\n        /* \"#utility.yul\":8801:8812   */\n      mul\n        /* \"#utility.yul\":8795:8799   */\n      dup3\n        /* \"#utility.yul\":8792:8813   */\n      or\n        /* \"#utility.yul\":8784:8813   */\n      swap1\n      pop\n        /* \"#utility.yul\":8524:8819   */\n      swap3\n      swap2\n      pop\n      pop\n      jump\t// out\n        /* \"#utility.yul\":8824:10219   */\n    tag_17:\n        /* \"#utility.yul\":8941:8978   */\n      tag_169\n        /* \"#utility.yul\":8974:8977   */\n      dup3\n        /* \"#utility.yul\":8941:8978   */\n      tag_42\n      jump\t// in\n    tag_169:\n        /* \"#utility.yul\":9043:9061   */\n      0xffffffffffffffff\n        /* \"#utility.yul\":9035:9041   */\n      dup2\n        /* \"#utility.yul\":9032:9062   */\n      gt\n        /* \"#utility.yul\":9029:9085   */\n      iszero\n      tag_170\n      jumpi\n        /* \"#utility.yul\":9065:9083   */\n      tag_171\n      tag_35\n      jump\t// in\n    tag_171:\n        /* \"#utility.yul\":9029:9085   */\n    tag_170:\n        /* \"#utility.yul\":9109:9147   */\n      tag_172\n        /* \"#utility.yul\":9141:9145   */\n      dup3\n        /* \"#utility.yul\":9135:9146   */\n      sload\n        /* \"#utility.yul\":9109:9147   */\n      tag_20\n      jump\t// in\n    tag_172:\n        /* \"#utility.yul\":9194:9261   */\n      tag_173\n        /* \"#utility.yul\":9254:9260   */\n      dup3\n        /* \"#utility.yul\":9246:9252   */\n      dup3\n        /* \"#utility.yul\":9240:9244   */\n      dup6\n        /* \"#utility.yul\":9194:9261   */\n      tag_59\n      jump\t// in\n    tag_173:\n        /* \"#utility.yul\":9288:9289   */\n      0x00\n        /* \"#utility.yul\":9312:9316   */\n      0x20\n        /* \"#utility.yul\":9299:9316   */\n      swap1\n      pop\n        /* \"#utility.yul\":9344:9346   */\n      0x1f\n        /* \"#utility.yul\":9336:9342   */\n      dup4\n        /* \"#utility.yul\":9333:9347   */\n      gt\n        /* \"#utility.yul\":9361:9362   */\n      0x01\n        /* \"#utility.yul\":9356:9974   */\n      dup2\n      eq\n      tag_175\n      jumpi\n        /* \"#utility.yul\":10018:10019   */\n      0x00\n        /* \"#utility.yul\":10035:10041   */\n      dup5\n        /* \"#utility.yul\":10032:10109   */\n      iszero\n      tag_176\n      jumpi\n        /* \"#utility.yul\":10084:10093   */\n      dup3\n        /* \"#utility.yul\":10079:10082   */\n      dup8\n        /* \"#utility.yul\":10075:10094   */\n      add\n        /* \"#utility.yul\":10069:10095   */\n      mload\n        /* \"#utility.yul\":10060:10095   */\n      swap1\n      pop\n        /* \"#utility.yul\":10032:10109   */\n    tag_176:\n        /* \"#utility.yul\":10135:10202   */\n      tag_177\n        /* \"#utility.yul\":10195:10201   */\n      dup6\n        /* \"#utility.yul\":10188:10193   */\n      dup3\n        /* \"#utility.yul\":10135:10202   */\n      tag_62\n      jump\t// in\n    tag_177:\n        /* \"#utility.yul\":10129:10133   */\n      dup7\n        /* \"#utility.yul\":10122:10203   */\n      sstore\n        /* \"#utility.yul\":9991:10213   */\n      pop\n        /* \"#utility.yul\":9326:10213   */\n      jump(tag_174)\n        /* \"#utility.yul\":9356:9974   */\n    tag_175:\n        /* \"#utility.yul\":9408:9412   */\n      0x1f\n        /* \"#utility.yul\":9404:9413   */\n      not\n        /* \"#utility.yul\":9396:9402   */\n      dup5\n        /* \"#utility.yul\":9392:9414   */\n      and\n        /* \"#utility.yul\":9442:9479   */\n      tag_178\n        /* \"#utility.yul\":9474:9478   */\n      dup7\n        /* \"#utility.yul\":9442:9479   */\n      tag_47\n      jump\t// in\n    tag_178:\n        /* \"#utility.yul\":9501:9502   */\n      0x00\n        /* \"#utility.yul\":9515:9723   */\n    tag_179:\n        /* \"#utility.yul\":9529:9536   */\n      dup3\n        /* \"#utility.yul\":9526:9527   */\n      dup2\n        /* \"#utility.yul\":9523:9537   */\n      lt\n        /* \"#utility.yul\":9515:9723   */\n      iszero\n      tag_181\n      jumpi\n        /* \"#utility.yul\":9608:9617   */\n      dup5\n        /* \"#utility.yul\":9603:9606   */\n      dup10\n        /* \"#utility.yul\":9599:9618   */\n      add\n        /* \"#utility.yul\":9593:9619   */\n      mload\n        /* \"#utility.yul\":9585:9591   */\n      dup3\n        /* \"#utility.yul\":9578:9620   */\n      sstore\n        /* \"#utility.yul\":9659:9660   */\n      0x01\n        /* \"#utility.yul\":9651:9657   */\n      dup3\n        /* \"#utility.yul\":9647:9661   */\n      add\n        /* \"#utility.yul\":9637:9661   */\n      swap2\n      pop\n        /* \"#utility.yul\":9706:9708   */\n      0x20\n        /* \"#utility.yul\":9695:9704   */\n      dup6\n        /* \"#utility.yul\":9691:9709   */\n      add\n        /* \"#utility.yul\":9678:9709   */\n      swap5\n      pop\n        /* \"#utility.yul\":9552:9556   */\n      0x20\n        /* \"#utility.yul\":9549:9550   */\n      dup2\n        /* \"#utility.yul\":9545:9557   */\n      add\n        /* \"#utility.yul\":9540:9557   */\n      swap1\n      pop\n        /* \"#utility.yul\":9515:9723   */\n      jump(tag_179)\n    tag_181:\n        /* \"#utility.yul\":9751:9757   */\n      dup7\n        /* \"#utility.yul\":9742:9749   */\n      dup4\n        /* \"#utility.yul\":9739:9758   */\n      lt\n        /* \"#utility.yul\":9736:9915   */\n      iszero\n      tag_182\n      jumpi\n        /* \"#utility.yul\":9809:9818   */\n      dup5\n        /* \"#utility.yul\":9804:9807   */\n      dup10\n        /* \"#utility.yul\":9800:9819   */\n      add\n        /* \"#utility.yul\":9794:9820   */\n      mload\n        /* \"#utility.yul\":9852:9900   */\n      tag_183\n        /* \"#utility.yul\":9894:9898   */\n      0x1f\n        /* \"#utility.yul\":9886:9892   */\n      dup10\n        /* \"#utility.yul\":9882:9899   */\n      and\n        /* \"#utility.yul\":9871:9880   */\n      dup3\n        /* \"#utility.yul\":9852:9900   */\n      tag_61\n      jump\t// in\n    tag_183:\n        /* \"#utility.yul\":9844:9850   */\n      dup4\n        /* \"#utility.yul\":9837:9901   */\n      sstore\n        /* \"#utility.yul\":9759:9915   */\n      pop\n        /* \"#utility.yul\":9736:9915   */\n    tag_182:\n        /* \"#utility.yul\":9961:9962   */\n      0x01\n        /* \"#utility.yul\":9957:9958   */\n      0x02\n        /* \"#utility.yul\":9949:9955   */\n      dup9\n        /* \"#utility.yul\":9945:9959   */\n      mul\n        /* \"#utility.yul\":9941:9963   */\n      add\n        /* \"#utility.yul\":9935:9939   */\n      dup9\n        /* \"#utility.yul\":9928:9964   */\n      sstore\n        /* \"#utility.yul\":9363:9974   */\n      pop\n      pop\n      pop\n        /* \"#utility.yul\":9326:10213   */\n    tag_174:\n      pop\n        /* \"#utility.yul\":8916:10219   */\n      pop\n      pop\n      pop\n        /* \"#utility.yul\":8824:10219   */\n      pop\n      pop\n      jump\t// out\n\n    auxdata: 0xa2646970667358221220cf454195907437ead1097ac0293126a111c16a44a6d80a27f94431e32a9b450d64736f6c63430008120033\n}\n",
				"bytecode": {
					"linkReferences": {},
					"object": "608060405234801561001057600080fd5b50610821806100206000396000f3fe608060405234801561001057600080fd5b50600436106100365760003560e01c8063c44481641461003b578063f96a181e14610057575b600080fd5b610055600480360381019061005091906103d9565b610087565b005b610071600480360381019061006c9190610435565b610114565b60405161007e91906104e1565b60405180910390f35b806000803373ffffffffffffffffffffffffffffffffffffffff1673ffffffffffffffffffffffffffffffffffffffff16815260200190815260200160002060008473ffffffffffffffffffffffffffffffffffffffff1673ffffffffffffffffffffffffffffffffffffffff168152602001908152602001600020908161010f9190610719565b505050565b60606000803373ffffffffffffffffffffffffffffffffffffffff1673ffffffffffffffffffffffffffffffffffffffff16815260200190815260200160002060008373ffffffffffffffffffffffffffffffffffffffff1673ffffffffffffffffffffffffffffffffffffffff168152602001908152602001600020805461019c90610532565b80601f01602080910402602001604051908101604052809291908181526020018280546101c890610532565b80156102155780601f106101ea57610100808354040283529160200191610215565b820191906000526020600020905b8154815290600101906020018083116101f857829003601f168201915b50505050509050919050565b6000604051905090565b600080fd5b600080fd5b600073ffffffffffffffffffffffffffffffffffffffff82169050919050565b600061026082610235565b9050919050565b61027081610255565b811461027b57600080fd5b50565b60008135905061028d81610267565b92915050565b600080fd5b600080fd5b6000601f19601f8301169050919050565b7f4e487b7100000000000000000000000000000000000000000000000000000000600052604160045260246000fd5b6102e68261029d565b810181811067ffffffffffffffff82111715610305576103046102ae565b5b80604052505050565b6000610318610221565b905061032482826102dd565b919050565b600067ffffffffffffffff821115610344576103436102ae565b5b61034d8261029d565b9050602081019050919050565b82818337600083830152505050565b600061037c61037784610329565b61030e565b90508281526020810184848401111561039857610397610298565b5b6103a384828561035a565b509392505050565b600082601f8301126103c0576103bf610293565b5b81356103d0848260208601610369565b91505092915050565b600080604083850312156103f0576103ef61022b565b5b60006103fe8582860161027e565b925050602083013567ffffffffffffffff81111561041f5761041e610230565b5b61042b858286016103ab565b9150509250929050565b60006020828403121561044b5761044a61022b565b5b60006104598482850161027e565b91505092915050565b600081519050919050565b600082825260208201905092915050565b60005b8381101561049c578082015181840152602081019050610481565b60008484015250505050565b60006104b382610462565b6104bd818561046d565b93506104cd81856020860161047e565b6104d68161029d565b840191505092915050565b600060208201905081810360008301526104fb81846104a8565b905092915050565b7f4e487b7100000000000000000000000000000000000000000000000000000000600052602260045260246000fd5b6000600282049050600182168061054a57607f821691505b60208210810361055d5761055c610503565b5b50919050565b60008190508160005260206000209050919050565b60006020601f8301049050919050565b600082821b905092915050565b6000600883026105c57fffffffffffffffffffffffffffffffffffffffffffffffffffffffffffffffff82610588565b6105cf8683610588565b95508019841693508086168417925050509392505050565b6000819050919050565b6000819050919050565b600061061661061161060c846105e7565b6105f1565b6105e7565b9050919050565b6000819050919050565b610630836105fb565b61064461063c8261061d565b848454610595565b825550505050565b600090565b61065961064c565b610664818484610627565b505050565b5b818110156106885761067d600082610651565b60018101905061066a565b5050565b601f8211156106cd5761069e81610563565b6106a784610578565b810160208510156106b6578190505b6106ca6106c285610578565b830182610669565b50505b505050565b600082821c905092915050565b60006106f0600019846008026106d2565b1980831691505092915050565b600061070983836106df565b9150826002028217905092915050565b61072282610462565b67ffffffffffffffff81111561073b5761073a6102ae565b5b6107458254610532565b61075082828561068c565b600060209050601f8311600181146107835760008415610771578287015190505b61077b85826106fd565b8655506107e3565b601f19841661079186610563565b60005b828110156107b957848901518255600182019150602085019450602081019050610794565b868310156107d657848901516107d2601f8916826106df565b8355505b6001600288020188555050505b50505050505056fea2646970667358221220cf454195907437ead1097ac0293126a111c16a44a6d80a27f94431e32a9b450d64736f6c63430008120033",
					"opcodes": "PUSH1 0x80 PUSH1 0x40 MSTORE CALLVALUE DUP1 ISZERO PUSH2 0x10 JUMPI PUSH1 0x0 DUP1 REVERT JUMPDEST POP PUSH2 0x821 DUP1 PUSH2 0x20 PUSH1 0x0 CODECOPY PUSH1 0x0 RETURN INVALID PUSH1 0x80 PUSH1 0x40 MSTORE CALLVALUE DUP1 ISZERO PUSH2 0x10 JUMPI PUSH1 0x0 DUP1 REVERT JUMPDEST POP PUSH1 0x4 CALLDATASIZE LT PUSH2 0x36 JUMPI PUSH1 0x0 CALLDATALOAD PUSH1 0xE0 SHR DUP1 PUSH4 0xC4448164 EQ PUSH2 0x3B JUMPI DUP1 PUSH4 0xF96A181E EQ PUSH2 0x57 JUMPI JUMPDEST PUSH1 0x0 DUP1 REVERT JUMPDEST PUSH2 0x55 PUSH1 0x4 DUP1 CALLDATASIZE SUB DUP2 ADD SWAP1 PUSH2 0x50 SWAP2 SWAP1 PUSH2 0x3D9 JUMP JUMPDEST PUSH2 0x87 JUMP JUMPDEST STOP JUMPDEST PUSH2 0x71 PUSH1 0x4 DUP1 CALLDATASIZE SUB DUP2 ADD SWAP1 PUSH2 0x6C SWAP2 SWAP1 PUSH2 0x435 JUMP JUMPDEST PUSH2 0x114 JUMP JUMPDEST PUSH1 0x40 MLOAD PUSH2 0x7E SWAP2 SWAP1 PUSH2 0x4E1 JUMP JUMPDEST PUSH1 0x40 MLOAD DUP1 SWAP2 SUB SWAP1 RETURN JUMPDEST DUP1 PUSH1 0x0 DUP1 CALLER PUSH20 0xFFFFFFFFFFFFFFFFFFFFFFFFFFFFFFFFFFFFFFFF AND PUSH20 0xFFFFFFFFFFFFFFFFFFFFFFFFFFFFFFFFFFFFFFFF AND DUP2 MSTORE PUSH1 0x20 ADD SWAP1 DUP2 MSTORE PUSH1 0x20 ADD PUSH1 0x0 KECCAK256 PUSH1 0x0 DUP5 PUSH20 0xFFFFFFFFFFFFFFFFFFFFFFFFFFFFFFFFFFFFFFFF AND PUSH20 0xFFFFFFFFFFFFFFFFFFFFFFFFFFFFFFFFFFFFFFFF AND DUP2 MSTORE PUSH1 0x20 ADD SWAP1 DUP2 MSTORE PUSH1 0x20 ADD PUSH1 0x0 KECCAK256 SWAP1 DUP2 PUSH2 0x10F SWAP2 SWAP1 PUSH2 0x719 JUMP JUMPDEST POP POP POP JUMP JUMPDEST PUSH1 0x60 PUSH1 0x0 DUP1 CALLER PUSH20 0xFFFFFFFFFFFFFFFFFFFFFFFFFFFFFFFFFFFFFFFF AND PUSH20 0xFFFFFFFFFFFFFFFFFFFFFFFFFFFFFFFFFFFFFFFF AND DUP2 MSTORE PUSH1 0x20 ADD SWAP1 DUP2 MSTORE PUSH1 0x20 ADD PUSH1 0x0 KECCAK256 PUSH1 0x0 DUP4 PUSH20 0xFFFFFFFFFFFFFFFFFFFFFFFFFFFFFFFFFFFFFFFF AND PUSH20 0xFFFFFFFFFFFFFFFFFFFFFFFFFFFFFFFFFFFFFFFF AND DUP2 MSTORE PUSH1 0x20 ADD SWAP1 DUP2 MSTORE PUSH1 0x20 ADD PUSH1 0x0 KECCAK256 DUP1 SLOAD PUSH2 0x19C SWAP1 PUSH2 0x532 JUMP JUMPDEST DUP1 PUSH1 0x1F ADD PUSH1 0x20 DUP1 SWAP2 DIV MUL PUSH1 0x20 ADD PUSH1 0x40 MLOAD SWAP1 DUP2 ADD PUSH1 0x40 MSTORE DUP1 SWAP3 SWAP2 SWAP1 DUP2 DUP2 MSTORE PUSH1 0x20 ADD DUP3 DUP1 SLOAD PUSH2 0x1C8 SWAP1 PUSH2 0x532 JUMP JUMPDEST DUP1 ISZERO PUSH2 0x215 JUMPI DUP1 PUSH1 0x1F LT PUSH2 0x1EA JUMPI PUSH2 0x100 DUP1 DUP4 SLOAD DIV MUL DUP4 MSTORE SWAP2 PUSH1 0x20 ADD SWAP2 PUSH2 0x215 JUMP JUMPDEST DUP3 ADD SWAP2 SWAP1 PUSH1 0x0 MSTORE PUSH1 0x20 PUSH1 0x0 KECCAK256 SWAP1 JUMPDEST DUP2 SLOAD DUP2 MSTORE SWAP1 PUSH1 0x1 ADD SWAP1 PUSH1 0x20 ADD DUP1 DUP4 GT PUSH2 0x1F8 JUMPI DUP3 SWAP1 SUB PUSH1 0x1F AND DUP3 ADD SWAP2 JUMPDEST POP POP POP POP POP SWAP1 POP SWAP2 SWAP1 POP JUMP JUMPDEST PUSH1 0x0 PUSH1 0x40 MLOAD SWAP1 POP SWAP1 JUMP JUMPDEST PUSH1 0x0 DUP1 REVERT JUMPDEST PUSH1 0x0 DUP1 REVERT JUMPDEST PUSH1 0x0 PUSH20 0xFFFFFFFFFFFFFFFFFFFFFFFFFFFFFFFFFFFFFFFF DUP3 AND SWAP1 POP SWAP2 SWAP1 POP JUMP JUMPDEST PUSH1 0x0 PUSH2 0x260 DUP3 PUSH2 0x235 JUMP JUMPDEST SWAP1 POP SWAP2 SWAP1 POP JUMP JUMPDEST PUSH2 0x270 DUP2 PUSH2 0x255 JUMP JUMPDEST DUP2 EQ PUSH2 0x27B JUMPI PUSH1 0x0 DUP1 REVERT JUMPDEST POP JUMP JUMPDEST PUSH1 0x0 DUP2 CALLDATALOAD SWAP1 POP PUSH2 0x28D DUP2 PUSH2 0x267 JUMP JUMPDEST SWAP3 SWAP2 POP POP JUMP JUMPDEST PUSH1 0x0 DUP1 REVERT JUMPDEST PUSH1 0x0 DUP1 REVERT JUMPDEST PUSH1 0x0 PUSH1 0x1F NOT PUSH1 0x1F DUP4 ADD AND SWAP1 POP SWAP2 SWAP1 POP JUMP JUMPDEST PUSH32 0x4E487B7100000000000000000000000000000000000000000000000000000000 PUSH1 0x0 MSTORE PUSH1 0x41 PUSH1 0x4 MSTORE PUSH1 0x24 PUSH1 0x0 REVERT JUMPDEST PUSH2 0x2E6 DUP3 PUSH2 0x29D JUMP JUMPDEST DUP2 ADD DUP2 DUP2 LT PUSH8 0xFFFFFFFFFFFFFFFF DUP3 GT OR ISZERO PUSH2 0x305 JUMPI PUSH2 0x304 PUSH2 0x2AE JUMP JUMPDEST JUMPDEST DUP1 PUSH1 0x40 MSTORE POP POP POP JUMP JUMPDEST PUSH1 0x0 PUSH2 0x318 PUSH2 0x221 JUMP JUMPDEST SWAP1 POP PUSH2 0x324 DUP3 DUP3 PUSH2 0x2DD JUMP JUMPDEST SWAP2 SWAP1 POP JUMP JUMPDEST PUSH1 0x0 PUSH8 0xFFFFFFFFFFFFFFFF DUP3 GT ISZERO PUSH2 0x344 JUMPI PUSH2 0x343 PUSH2 0x2AE JUMP JUMPDEST JUMPDEST PUSH2 0x34D DUP3 PUSH2 0x29D JUMP JUMPDEST SWAP1 POP PUSH1 0x20 DUP2 ADD SWAP1 POP SWAP2 SWAP1 POP JUMP JUMPDEST DUP3 DUP2 DUP4 CALLDATACOPY PUSH1 0x0 DUP4 DUP4 ADD MSTORE POP POP POP JUMP JUMPDEST PUSH1 0x0 PUSH2 0x37C PUSH2 0x377 DUP5 PUSH2 0x329 JUMP JUMPDEST PUSH2 0x30E JUMP JUMPDEST SWAP1 POP DUP3 DUP2 MSTORE PUSH1 0x20 DUP2 ADD DUP5 DUP5 DUP5 ADD GT ISZERO PUSH2 0x398 JUMPI PUSH2 0x397 PUSH2 0x298 JUMP JUMPDEST JUMPDEST PUSH2 0x3A3 DUP5 DUP3 DUP6 PUSH2 0x35A JUMP JUMPDEST POP SWAP4 SWAP3 POP POP POP JUMP JUMPDEST PUSH1 0x0 DUP3 PUSH1 0x1F DUP4 ADD SLT PUSH2 0x3C0 JUMPI PUSH2 0x3BF PUSH2 0x293 JUMP JUMPDEST JUMPDEST DUP2 CALLDATALOAD PUSH2 0x3D0 DUP5 DUP3 PUSH1 0x20 DUP7 ADD PUSH2 0x369 JUMP JUMPDEST SWAP2 POP POP SWAP3 SWAP2 POP POP JUMP JUMPDEST PUSH1 0x0 DUP1 PUSH1 0x40 DUP4 DUP6 SUB SLT ISZERO PUSH2 0x3F0 JUMPI PUSH2 0x3EF PUSH2 0x22B JUMP JUMPDEST JUMPDEST PUSH1 0x0 PUSH2 0x3FE DUP6 DUP3 DUP7 ADD PUSH2 0x27E JUMP JUMPDEST SWAP3 POP POP PUSH1 0x20 DUP4 ADD CALLDATALOAD PUSH8 0xFFFFFFFFFFFFFFFF DUP2 GT ISZERO PUSH2 0x41F JUMPI PUSH2 0x41E PUSH2 0x230 JUMP JUMPDEST JUMPDEST PUSH2 0x42B DUP6 DUP3 DUP7 ADD PUSH2 0x3AB JUMP JUMPDEST SWAP2 POP POP SWAP3 POP SWAP3 SWAP1 POP JUMP JUMPDEST PUSH1 0x0 PUSH1 0x20 DUP3 DUP5 SUB SLT ISZERO PUSH2 0x44B JUMPI PUSH2 0x44A PUSH2 0x22B JUMP JUMPDEST JUMPDEST PUSH1 0x0 PUSH2 0x459 DUP5 DUP3 DUP6 ADD PUSH2 0x27E JUMP JUMPDEST SWAP2 POP POP SWAP3 SWAP2 POP POP JUMP JUMPDEST PUSH1 0x0 DUP2 MLOAD SWAP1 POP SWAP2 SWAP1 POP JUMP JUMPDEST PUSH1 0x0 DUP3 DUP3 MSTORE PUSH1 0x20 DUP3 ADD SWAP1 POP SWAP3 SWAP2 POP POP JUMP JUMPDEST PUSH1 0x0 JUMPDEST DUP4 DUP2 LT ISZERO PUSH2 0x49C JUMPI DUP1 DUP3 ADD MLOAD DUP2 DUP5 ADD MSTORE PUSH1 0x20 DUP2 ADD SWAP1 POP PUSH2 0x481 JUMP JUMPDEST PUSH1 0x0 DUP5 DUP5 ADD MSTORE POP POP POP POP JUMP JUMPDEST PUSH1 0x0 PUSH2 0x4B3 DUP3 PUSH2 0x462 JUMP JUMPDEST PUSH2 0x4BD DUP2 DUP6 PUSH2 0x46D JUMP JUMPDEST SWAP4 POP PUSH2 0x4CD DUP2 DUP6 PUSH1 0x20 DUP7 ADD PUSH2 0x47E JUMP JUMPDEST PUSH2 0x4D6 DUP2 PUSH2 0x29D JUMP JUMPDEST DUP5 ADD SWAP2 POP POP SWAP3 SWAP2 POP POP JUMP JUMPDEST PUSH1 0x0 PUSH1 0x20 DUP3 ADD SWAP1 POP DUP2 DUP2 SUB PUSH1 0x0 DUP4 ADD MSTORE PUSH2 0x4FB DUP2 DUP5 PUSH2 0x4A8 JUMP JUMPDEST SWAP1 POP SWAP3 SWAP2 POP POP JUMP JUMPDEST PUSH32 0x4E487B7100000000000000000000000000000000000000000000000000000000 PUSH1 0x0 MSTORE PUSH1 0x22 PUSH1 0x4 MSTORE PUSH1 0x24 PUSH1 0x0 REVERT JUMPDEST PUSH1 0x0 PUSH1 0x2 DUP3 DIV SWAP1 POP PUSH1 0x1 DUP3 AND DUP1 PUSH2 0x54A JUMPI PUSH1 0x7F DUP3 AND SWAP2 POP JUMPDEST PUSH1 0x20 DUP3 LT DUP2 SUB PUSH2 0x55D JUMPI PUSH2 0x55C PUSH2 0x503 JUMP JUMPDEST JUMPDEST POP SWAP2 SWAP1 POP JUMP JUMPDEST PUSH1 0x0 DUP2 SWAP1 POP DUP2 PUSH1 0x0 MSTORE PUSH1 0x20 PUSH1 0x0 KECCAK256 SWAP1 POP SWAP2 SWAP1 POP JUMP JUMPDEST PUSH1 0x0 PUSH1 0x20 PUSH1 0x1F DUP4 ADD DIV SWAP1 POP SWAP2 SWAP1 POP JUMP JUMPDEST PUSH1 0x0 DUP3 DUP3 SHL SWAP1 POP SWAP3 SWAP2 POP POP JUMP JUMPDEST PUSH1 0x0 PUSH1 0x8 DUP4 MUL PUSH2 0x5C5 PUSH32 0xFFFFFFFFFFFFFFFFFFFFFFFFFFFFFFFFFFFFFFFFFFFFFFFFFFFFFFFFFFFFFFFF DUP3 PUSH2 0x588 JUMP JUMPDEST PUSH2 0x5CF DUP7 DUP4 PUSH2 0x588 JUMP JUMPDEST SWAP6 POP DUP1 NOT DUP5 AND SWAP4 POP DUP1 DUP7 AND DUP5 OR SWAP3 POP POP POP SWAP4 SWAP3 POP POP POP JUMP JUMPDEST PUSH1 0x0 DUP2 SWAP1 POP SWAP2 SWAP1 POP JUMP JUMPDEST PUSH1 0x0 DUP2 SWAP1 POP SWAP2 SWAP1 POP JUMP JUMPDEST PUSH1 0x0 PUSH2 0x616 PUSH2 0x611 PUSH2 0x60C DUP5 PUSH2 0x5E7 JUMP JUMPDEST PUSH2 0x5F1 JUMP JUMPDEST PUSH2 0x5E7 JUMP JUMPDEST SWAP1 POP SWAP2 SWAP1 POP JUMP JUMPDEST PUSH1 0x0 DUP2 SWAP1 POP SWAP2 SWAP1 POP JUMP JUMPDEST PUSH2 0x630 DUP4 PUSH2 0x5FB JUMP JUMPDEST PUSH2 0x644 PUSH2 0x63C DUP3 PUSH2 0x61D JUMP JUMPDEST DUP5 DUP5 SLOAD PUSH2 0x595 JUMP JUMPDEST DUP3 SSTORE POP POP POP POP JUMP JUMPDEST PUSH1 0x0 SWAP1 JUMP JUMPDEST PUSH2 0x659 PUSH2 0x64C JUMP JUMPDEST PUSH2 0x664 DUP2 DUP5 DUP5 PUSH2 0x627 JUMP JUMPDEST POP POP POP JUMP JUMPDEST JUMPDEST DUP2 DUP2 LT ISZERO PUSH2 0x688 JUMPI PUSH2 0x67D PUSH1 0x0 DUP3 PUSH2 0x651 JUMP JUMPDEST PUSH1 0x1 DUP2 ADD SWAP1 POP PUSH2 0x66A JUMP JUMPDEST POP POP JUMP JUMPDEST PUSH1 0x1F DUP3 GT ISZERO PUSH2 0x6CD JUMPI PUSH2 0x69E DUP2 PUSH2 0x563 JUMP JUMPDEST PUSH2 0x6A7 DUP5 PUSH2 0x578 JUMP JUMPDEST DUP2 ADD PUSH1 0x20 DUP6 LT ISZERO PUSH2 0x6B6 JUMPI DUP2 SWAP1 POP JUMPDEST PUSH2 0x6CA PUSH2 0x6C2 DUP6 PUSH2 0x578 JUMP JUMPDEST DUP4 ADD DUP3 PUSH2 0x669 JUMP JUMPDEST POP POP JUMPDEST POP POP POP JUMP JUMPDEST PUSH1 0x0 DUP3 DUP3 SHR SWAP1 POP SWAP3 SWAP2 POP POP JUMP JUMPDEST PUSH1 0x0 PUSH2 0x6F0 PUSH1 0x0 NOT DUP5 PUSH1 0x8 MUL PUSH2 0x6D2 JUMP JUMPDEST NOT DUP1 DUP4 AND SWAP2 POP POP SWAP3 SWAP2 POP POP JUMP JUMPDEST PUSH1 0x0 PUSH2 0x709 DUP4 DUP4 PUSH2 0x6DF JUMP JUMPDEST SWAP2 POP DUP3 PUSH1 0x2 MUL DUP3 OR SWAP1 POP SWAP3 SWAP2 POP POP JUMP JUMPDEST PUSH2 0x722 DUP3 PUSH2 0x462 JUMP JUMPDEST PUSH8 0xFFFFFFFFFFFFFFFF DUP2 GT ISZERO PUSH2 0x73B JUMPI PUSH2 0x73A PUSH2 0x2AE JUMP JUMPDEST JUMPDEST PUSH2 0x745 DUP3 SLOAD PUSH2 0x532 JUMP JUMPDEST PUSH2 0x750 DUP3 DUP3 DUP6 PUSH2 0x68C JUMP JUMPDEST PUSH1 0x0 PUSH1 0x20 SWAP1 POP PUSH1 0x1F DUP4 GT PUSH1 0x1 DUP2 EQ PUSH2 0x783 JUMPI PUSH1 0x0 DUP5 ISZERO PUSH2 0x771 JUMPI DUP3 DUP8 ADD MLOAD SWAP1 POP JUMPDEST PUSH2 0x77B DUP6 DUP3 PUSH2 0x6FD JUMP JUMPDEST DUP7 SSTORE POP PUSH2 0x7E3 JUMP JUMPDEST PUSH1 0x1F NOT DUP5 AND PUSH2 0x791 DUP7 PUSH2 0x563 JUMP JUMPDEST PUSH1 0x0 JUMPDEST DUP3 DUP2 LT ISZERO PUSH2 0x7B9 JUMPI DUP5 DUP10 ADD MLOAD DUP3 SSTORE PUSH1 0x1 DUP3 ADD SWAP2 POP PUSH1 0x20 DUP6 ADD SWAP5 POP PUSH1 0x20 DUP2 ADD SWAP1 POP PUSH2 0x794 JUMP JUMPDEST DUP7 DUP4 LT ISZERO PUSH2 0x7D6 JUMPI DUP5 DUP10 ADD MLOAD PUSH2 0x7D2 PUSH1 0x1F DUP10 AND DUP3 PUSH2 0x6DF JUMP JUMPDEST DUP4 SSTORE POP JUMPDEST PUSH1 0x1 PUSH1 0x2 DUP9 MUL ADD DUP9 SSTORE POP POP POP JUMPDEST POP POP POP POP POP POP JUMP INVALID LOG2 PUSH5 0x6970667358 0x22 SLT KECCAK256 0xCF GASLIMIT COINBASE SWAP6 SWAP1 PUSH21 0x37EAD1097AC0293126A111C16A44A6D80A27F94431 0xE3 0x2A SWAP12 GASLIMIT 0xD PUSH5 0x736F6C6343 STOP ADDMOD SLT STOP CALLER "
				},
				"gasEstimates": {
					"creation": {
						"codeDepositCost": "416200",
						"executionCost": "455",
						"totalCost": "416655"
					},
					"external": {
						"addContact(address,string)": "infinite",
						"getContact(address)": "infinite"
					}
				},
				"methodIdentifiers": {
					"addContact(address,string)": "c4448164",
					"getContact(address)": "f96a181e"
				}
			},
			"storageLayout": {
				"storage": [
					{
						"astId": 7,
						"contract": "contracts/AddressBook.sol:AddressBook",
						"label": "contacts",
						"offset": 0,
						"slot": "0",
						"type": "t_mapping(t_address,t_mapping(t_address,t_string_storage))"
					}
				],
				"types": {
					"t_address": {
						"encoding": "inplace",
						"label": "address",
						"numberOfBytes": "20"
					},
					"t_mapping(t_address,t_mapping(t_address,t_string_storage))": {
						"encoding": "mapping",
						"key": "t_address",
						"label": "mapping(address => mapping(address => string))",
						"numberOfBytes": "32",
						"value": "t_mapping(t_address,t_string_storage)"
					},
					"t_mapping(t_address,t_string_storage)": {
						"encoding": "mapping",
						"key": "t_address",
						"label": "mapping(address => string)",
						"numberOfBytes": "32",
						"value": "t_string_storage"
					},
					"t_string_storage": {
						"encoding": "bytes",
						"label": "string",
						"numberOfBytes": "32"
					}
				}
			},
			"userdoc": {
				"kind": "user",
				"methods": {},
				"version": 1
			}
		}
	}
}