{
	"contracts/Mail.sol": {
		"Mail": {
			"abi": [
				{
					"anonymous": false,
					"inputs": [
						{
							"indexed": true,
							"internalType": "address",
							"name": "sender",
							"type": "address"
						},
						{
							"indexed": true,
							"internalType": "address",
							"name": "receiver",
							"type": "address"
						},
						{
							"indexed": false,
							"internalType": "string",
							"name": "subject",
							"type": "string"
						},
						{
							"indexed": false,
							"internalType": "uint256",
							"name": "timestamp",
							"type": "uint256"
						}
					],
					"name": "EmailSent",
					"type": "event"
				},
				{
					"inputs": [
						{
							"internalType": "address",
							"name": "_receiver",
							"type": "address"
						},
						{
							"internalType": "uint256",
							"name": "_numberOfEmails",
							"type": "uint256"
						}
					],
					"name": "createAndAddMockEmails",
					"outputs": [],
					"stateMutability": "nonpayable",
					"type": "function"
				},
				{
					"inputs": [
						{
							"internalType": "uint256",
							"name": "index",
							"type": "uint256"
						}
					],
					"name": "deleteEmail",
					"outputs": [],
					"stateMutability": "nonpayable",
					"type": "function"
				},
				{
					"inputs": [
						{
							"internalType": "address",
							"name": "_user",
							"type": "address"
						}
					],
					"name": "getEmailCount",
					"outputs": [
						{
							"internalType": "uint256",
							"name": "inboxCount",
							"type": "uint256"
						},
						{
							"internalType": "uint256",
							"name": "sentCount",
							"type": "uint256"
						}
					],
					"stateMutability": "view",
					"type": "function"
				},
				{
					"inputs": [],
					"name": "getEmailsReceived",
					"outputs": [
						{
							"components": [
								{
									"internalType": "address",
									"name": "sender",
									"type": "address"
								},
								{
									"internalType": "address",
									"name": "receiver",
									"type": "address"
								},
								{
									"internalType": "string",
									"name": "subject",
									"type": "string"
								},
								{
									"internalType": "string",
									"name": "message",
									"type": "string"
								},
								{
									"internalType": "uint256",
									"name": "timestamp",
									"type": "uint256"
								}
							],
							"internalType": "struct Mail.Email[]",
							"name": "",
							"type": "tuple[]"
						}
					],
					"stateMutability": "view",
					"type": "function"
				},
				{
					"inputs": [
						{
							"internalType": "address",
							"name": "",
							"type": "address"
						},
						{
							"internalType": "uint256",
							"name": "",
							"type": "uint256"
						}
					],
					"name": "inbox",
					"outputs": [
						{
							"internalType": "address",
							"name": "sender",
							"type": "address"
						},
						{
							"internalType": "address",
							"name": "receiver",
							"type": "address"
						},
						{
							"internalType": "string",
							"name": "subject",
							"type": "string"
						},
						{
							"internalType": "string",
							"name": "message",
							"type": "string"
						},
						{
							"internalType": "uint256",
							"name": "timestamp",
							"type": "uint256"
						}
					],
					"stateMutability": "view",
					"type": "function"
				},
				{
					"inputs": [
						{
							"internalType": "address",
							"name": "_receiver",
							"type": "address"
						},
						{
							"internalType": "string",
							"name": "_subject",
							"type": "string"
						},
						{
							"internalType": "string",
							"name": "_message",
							"type": "string"
						}
					],
					"name": "sendEmail",
					"outputs": [],
					"stateMutability": "nonpayable",
					"type": "function"
				},
				{
					"inputs": [
						{
							"internalType": "string",
							"name": "_subject",
							"type": "string"
						},
						{
							"internalType": "string",
							"name": "_message",
							"type": "string"
						}
					],
					"name": "sendEmailToMany",
					"outputs": [],
					"stateMutability": "nonpayable",
					"type": "function"
				},
				{
					"inputs": [
						{
							"internalType": "address",
							"name": "",
							"type": "address"
						},
						{
							"internalType": "uint256",
							"name": "",
							"type": "uint256"
						}
					],
					"name": "sent",
					"outputs": [
						{
							"internalType": "address",
							"name": "sender",
							"type": "address"
						},
						{
							"internalType": "address",
							"name": "receiver",
							"type": "address"
						},
						{
							"internalType": "string",
							"name": "subject",
							"type": "string"
						},
						{
							"internalType": "string",
							"name": "message",
							"type": "string"
						},
						{
							"internalType": "uint256",
							"name": "timestamp",
							"type": "uint256"
						}
					],
					"stateMutability": "view",
					"type": "function"
				}
			],
			"devdoc": {
				"kind": "dev",
				"methods": {},
				"version": 1
			},
			"evm": {
				"assembly": "    /* \"contracts/Mail.sol\":60:4319  contract Mail {... */\n  mstore(0x40, 0x80)\n    /* \"contracts/Mail.sol\":3178:3293  address[] multipleaddress = [0xAb8483F64d9C6d1EcF9b849Ae677dD3315835cb2,0x4B20993Bc481177ec7E8f571ceCaE8A9e22C02db] */\n  mload(0x40)\n  dup1\n  0x40\n  add\n  0x40\n  mstore\n  dup1\n    /* \"contracts/Mail.sol\":3207:3249  0xAb8483F64d9C6d1EcF9b849Ae677dD3315835cb2 */\n  0xab8483f64d9c6d1ecf9b849ae677dd3315835cb2\n    /* \"contracts/Mail.sol\":3178:3293  address[] multipleaddress = [0xAb8483F64d9C6d1EcF9b849Ae677dD3315835cb2,0x4B20993Bc481177ec7E8f571ceCaE8A9e22C02db] */\n  0xffffffffffffffffffffffffffffffffffffffff\n  and\n  0xffffffffffffffffffffffffffffffffffffffff\n  and\n  dup2\n  mstore\n  0x20\n  add\n    /* \"contracts/Mail.sol\":3250:3292  0x4B20993Bc481177ec7E8f571ceCaE8A9e22C02db */\n  0x4b20993bc481177ec7e8f571cecae8a9e22c02db\n    /* \"contracts/Mail.sol\":3178:3293  address[] multipleaddress = [0xAb8483F64d9C6d1EcF9b849Ae677dD3315835cb2,0x4B20993Bc481177ec7E8f571ceCaE8A9e22C02db] */\n  0xffffffffffffffffffffffffffffffffffffffff\n  and\n  0xffffffffffffffffffffffffffffffffffffffff\n  and\n  dup2\n  mstore\n  pop\n  0x02\n  swap1\n  0x02\n  tag_1\n  swap3\n  swap2\n  swap1\n  tag_2\n  jump\t// in\ntag_1:\n  pop\n    /* \"contracts/Mail.sol\":60:4319  contract Mail {... */\n  callvalue\n  dup1\n  iszero\n  tag_3\n  jumpi\n  0x00\n  dup1\n  revert\ntag_3:\n  pop\n  jump(tag_4)\ntag_2:\n  dup3\n  dup1\n  sload\n  dup3\n  dup3\n  sstore\n  swap1\n  0x00\n  mstore\n  keccak256(0x00, 0x20)\n  swap1\n  dup2\n  add\n  swap3\n  dup3\n  iszero\n  tag_5\n  jumpi\n  swap2\n  0x20\n  mul\n  dup3\n  add\ntag_6:\n  dup3\n  dup2\n  gt\n  iszero\n  tag_7\n  jumpi\n  dup3\n  mload\n  dup3\n  exp(0x0100, 0x00)\n  dup2\n  sload\n  dup2\n  0xffffffffffffffffffffffffffffffffffffffff\n  mul\n  not\n  and\n  swap1\n  dup4\n  0xffffffffffffffffffffffffffffffffffffffff\n  and\n  mul\n  or\n  swap1\n  sstore\n  pop\n  swap2\n  0x20\n  add\n  swap2\n  swap1\n  0x01\n  add\n  swap1\n  jump(tag_6)\ntag_7:\ntag_5:\n  pop\n  swap1\n  pop\n  tag_8\n  swap2\n  swap1\n  tag_9\n  jump\t// in\ntag_8:\n  pop\n  swap1\n  jump\t// out\ntag_9:\ntag_10:\n  dup1\n  dup3\n  gt\n  iszero\n  tag_11\n  jumpi\n  0x00\n  dup2\n  0x00\n  swap1\n  sstore\n  pop\n  0x01\n  add\n  jump(tag_10)\ntag_11:\n  pop\n  swap1\n  jump\t// out\ntag_4:\n  dataSize(sub_0)\n  dup1\n  dataOffset(sub_0)\n  0x00\n  codecopy\n  0x00\n  return\nstop\n\nsub_0: assembly {\n        /* \"contracts/Mail.sol\":60:4319  contract Mail {... */\n      mstore(0x40, 0x80)\n      callvalue\n      dup1\n      iszero\n      tag_1\n      jumpi\n      0x00\n      dup1\n      revert\n    tag_1:\n      pop\n      jumpi(tag_2, lt(calldatasize, 0x04))\n      shr(0xe0, calldataload(0x00))\n      dup1\n      0x8a887541\n      gt\n      tag_11\n      jumpi\n      dup1\n      0x8a887541\n      eq\n      tag_7\n      jumpi\n      dup1\n      0x8bb89879\n      eq\n      tag_8\n      jumpi\n      dup1\n      0xaa1d2c9c\n      eq\n      tag_9\n      jumpi\n      dup1\n      0xc401f55f\n      eq\n      tag_10\n      jumpi\n      jump(tag_2)\n    tag_11:\n      dup1\n      0x3bcb2e66\n      eq\n      tag_3\n      jumpi\n      dup1\n      0x4d622e7a\n      eq\n      tag_4\n      jumpi\n      dup1\n      0x5384ea9a\n      eq\n      tag_5\n      jumpi\n      dup1\n      0x5fc25d8b\n      eq\n      tag_6\n      jumpi\n    tag_2:\n      0x00\n      dup1\n      revert\n        /* \"contracts/Mail.sol\":289:328  mapping(address => Email[]) public sent */\n    tag_3:\n      tag_12\n      0x04\n      dup1\n      calldatasize\n      sub\n      dup2\n      add\n      swap1\n      tag_13\n      swap2\n      swap1\n      tag_14\n      jump\t// in\n    tag_13:\n      tag_15\n      jump\t// in\n    tag_12:\n      mload(0x40)\n      tag_16\n      swap6\n      swap5\n      swap4\n      swap3\n      swap2\n      swap1\n      tag_17\n      jump\t// in\n    tag_16:\n      mload(0x40)\n      dup1\n      swap2\n      sub\n      swap1\n      return\n        /* \"contracts/Mail.sol\":242:282  mapping(address => Email[]) public inbox */\n    tag_4:\n      tag_18\n      0x04\n      dup1\n      calldatasize\n      sub\n      dup2\n      add\n      swap1\n      tag_19\n      swap2\n      swap1\n      tag_14\n      jump\t// in\n    tag_19:\n      tag_20\n      jump\t// in\n    tag_18:\n      mload(0x40)\n      tag_21\n      swap6\n      swap5\n      swap4\n      swap3\n      swap2\n      swap1\n      tag_17\n      jump\t// in\n    tag_21:\n      mload(0x40)\n      dup1\n      swap2\n      sub\n      swap1\n      return\n        /* \"contracts/Mail.sol\":2041:2608  function createAndAddMockEmails(address _receiver, uint256 _numberOfEmails) public {... */\n    tag_5:\n      tag_22\n      0x04\n      dup1\n      calldatasize\n      sub\n      dup2\n      add\n      swap1\n      tag_23\n      swap2\n      swap1\n      tag_14\n      jump\t// in\n    tag_23:\n      tag_24\n      jump\t// in\n    tag_22:\n      stop\n        /* \"contracts/Mail.sol\":3362:3849  function sendEmailToMany(string memory _subject, string memory _message) public {... */\n    tag_6:\n      tag_25\n      0x04\n      dup1\n      calldatasize\n      sub\n      dup2\n      add\n      swap1\n      tag_26\n      swap2\n      swap1\n      tag_27\n      jump\t// in\n    tag_26:\n      tag_28\n      jump\t// in\n    tag_25:\n      stop\n        /* \"contracts/Mail.sol\":1145:1335  function getEmailCount(address _user) public view returns (uint256 inboxCount, uint256 sentCount) {... */\n    tag_7:\n      tag_29\n      0x04\n      dup1\n      calldatasize\n      sub\n      dup2\n      add\n      swap1\n      tag_30\n      swap2\n      swap1\n      tag_31\n      jump\t// in\n    tag_30:\n      tag_32\n      jump\t// in\n    tag_29:\n      mload(0x40)\n      tag_33\n      swap3\n      swap2\n      swap1\n      tag_34\n      jump\t// in\n    tag_33:\n      mload(0x40)\n      dup1\n      swap2\n      sub\n      swap1\n      return\n        /* \"contracts/Mail.sol\":489:1137  function sendEmail(address _receiver, string memory _subject, string memory _message) public {... */\n    tag_8:\n      tag_35\n      0x04\n      dup1\n      calldatasize\n      sub\n      dup2\n      add\n      swap1\n      tag_36\n      swap2\n      swap1\n      tag_37\n      jump\t// in\n    tag_36:\n      tag_38\n      jump\t// in\n    tag_35:\n      stop\n        /* \"contracts/Mail.sol\":1343:2031  function getEmailsReceived() public view returns (Email[] memory) {... */\n    tag_9:\n      tag_39\n      tag_40\n      jump\t// in\n    tag_39:\n      mload(0x40)\n      tag_41\n      swap2\n      swap1\n      tag_42\n      jump\t// in\n    tag_41:\n      mload(0x40)\n      dup1\n      swap2\n      sub\n      swap1\n      return\n        /* \"contracts/Mail.sol\":3856:4316  function deleteEmail(uint256 index) public {... */\n    tag_10:\n      tag_43\n      0x04\n      dup1\n      calldatasize\n      sub\n      dup2\n      add\n      swap1\n      tag_44\n      swap2\n      swap1\n      tag_45\n      jump\t// in\n    tag_44:\n      tag_46\n      jump\t// in\n    tag_43:\n      stop\n        /* \"contracts/Mail.sol\":289:328  mapping(address => Email[]) public sent */\n    tag_15:\n      mstore(0x20, 0x01)\n      dup2\n      0x00\n      mstore\n      keccak256(0x00, 0x40)\n      dup2\n      dup2\n      sload\n      dup2\n      lt\n      tag_47\n      jumpi\n      0x00\n      dup1\n      revert\n    tag_47:\n      swap1\n      0x00\n      mstore\n      keccak256(0x00, 0x20)\n      swap1\n      0x05\n      mul\n      add\n      0x00\n      swap2\n      pop\n      swap2\n      pop\n      pop\n      dup1\n      0x00\n      add\n      0x00\n      swap1\n      sload\n      swap1\n      0x0100\n      exp\n      swap1\n      div\n      0xffffffffffffffffffffffffffffffffffffffff\n      and\n      swap1\n      dup1\n      0x01\n      add\n      0x00\n      swap1\n      sload\n      swap1\n      0x0100\n      exp\n      swap1\n      div\n      0xffffffffffffffffffffffffffffffffffffffff\n      and\n      swap1\n      dup1\n      0x02\n      add\n      dup1\n      sload\n      tag_49\n      swap1\n      tag_50\n      jump\t// in\n    tag_49:\n      dup1\n      0x1f\n      add\n      0x20\n      dup1\n      swap2\n      div\n      mul\n      0x20\n      add\n      mload(0x40)\n      swap1\n      dup2\n      add\n      0x40\n      mstore\n      dup1\n      swap3\n      swap2\n      swap1\n      dup2\n      dup2\n      mstore\n      0x20\n      add\n      dup3\n      dup1\n      sload\n      tag_51\n      swap1\n      tag_50\n      jump\t// in\n    tag_51:\n      dup1\n      iszero\n      tag_52\n      jumpi\n      dup1\n      0x1f\n      lt\n      tag_53\n      jumpi\n      0x0100\n      dup1\n      dup4\n      sload\n      div\n      mul\n      dup4\n      mstore\n      swap2\n      0x20\n      add\n      swap2\n      jump(tag_52)\n    tag_53:\n      dup3\n      add\n      swap2\n      swap1\n      0x00\n      mstore\n      keccak256(0x00, 0x20)\n      swap1\n    tag_54:\n      dup2\n      sload\n      dup2\n      mstore\n      swap1\n      0x01\n      add\n      swap1\n      0x20\n      add\n      dup1\n      dup4\n      gt\n      tag_54\n      jumpi\n      dup3\n      swap1\n      sub\n      0x1f\n      and\n      dup3\n      add\n      swap2\n    tag_52:\n      pop\n      pop\n      pop\n      pop\n      pop\n      swap1\n      dup1\n      0x03\n      add\n      dup1\n      sload\n      tag_55\n      swap1\n      tag_50\n      jump\t// in\n    tag_55:\n      dup1\n      0x1f\n      add\n      0x20\n      dup1\n      swap2\n      div\n      mul\n      0x20\n      add\n      mload(0x40)\n      swap1\n      dup2\n      add\n      0x40\n      mstore\n      dup1\n      swap3\n      swap2\n      swap1\n      dup2\n      dup2\n      mstore\n      0x20\n      add\n      dup3\n      dup1\n      sload\n      tag_56\n      swap1\n      tag_50\n      jump\t// in\n    tag_56:\n      dup1\n      iszero\n      tag_57\n      jumpi\n      dup1\n      0x1f\n      lt\n      tag_58\n      jumpi\n      0x0100\n      dup1\n      dup4\n      sload\n      div\n      mul\n      dup4\n      mstore\n      swap2\n      0x20\n      add\n      swap2\n      jump(tag_57)\n    tag_58:\n      dup3\n      add\n      swap2\n      swap1\n      0x00\n      mstore\n      keccak256(0x00, 0x20)\n      swap1\n    tag_59:\n      dup2\n      sload\n      dup2\n      mstore\n      swap1\n      0x01\n      add\n      swap1\n      0x20\n      add\n      dup1\n      dup4\n      gt\n      tag_59\n      jumpi\n      dup3\n      swap1\n      sub\n      0x1f\n      and\n      dup3\n      add\n      swap2\n    tag_57:\n      pop\n      pop\n      pop\n      pop\n      pop\n      swap1\n      dup1\n      0x04\n      add\n      sload\n      swap1\n      pop\n      dup6\n      jump\t// out\n        /* \"contracts/Mail.sol\":242:282  mapping(address => Email[]) public inbox */\n    tag_20:\n      mstore(0x20, 0x00)\n      dup2\n      0x00\n      mstore\n      keccak256(0x00, 0x40)\n      dup2\n      dup2\n      sload\n      dup2\n      lt\n      tag_60\n      jumpi\n      0x00\n      dup1\n      revert\n    tag_60:\n      swap1\n      0x00\n      mstore\n      keccak256(0x00, 0x20)\n      swap1\n      0x05\n      mul\n      add\n      0x00\n      swap2\n      pop\n      swap2\n      pop\n      pop\n      dup1\n      0x00\n      add\n      0x00\n      swap1\n      sload\n      swap1\n      0x0100\n      exp\n      swap1\n      div\n      0xffffffffffffffffffffffffffffffffffffffff\n      and\n      swap1\n      dup1\n      0x01\n      add\n      0x00\n      swap1\n      sload\n      swap1\n      0x0100\n      exp\n      swap1\n      div\n      0xffffffffffffffffffffffffffffffffffffffff\n      and\n      swap1\n      dup1\n      0x02\n      add\n      dup1\n      sload\n      tag_62\n      swap1\n      tag_50\n      jump\t// in\n    tag_62:\n      dup1\n      0x1f\n      add\n      0x20\n      dup1\n      swap2\n      div\n      mul\n      0x20\n      add\n      mload(0x40)\n      swap1\n      dup2\n      add\n      0x40\n      mstore\n      dup1\n      swap3\n      swap2\n      swap1\n      dup2\n      dup2\n      mstore\n      0x20\n      add\n      dup3\n      dup1\n      sload\n      tag_63\n      swap1\n      tag_50\n      jump\t// in\n    tag_63:\n      dup1\n      iszero\n      tag_64\n      jumpi\n      dup1\n      0x1f\n      lt\n      tag_65\n      jumpi\n      0x0100\n      dup1\n      dup4\n      sload\n      div\n      mul\n      dup4\n      mstore\n      swap2\n      0x20\n      add\n      swap2\n      jump(tag_64)\n    tag_65:\n      dup3\n      add\n      swap2\n      swap1\n      0x00\n      mstore\n      keccak256(0x00, 0x20)\n      swap1\n    tag_66:\n      dup2\n      sload\n      dup2\n      mstore\n      swap1\n      0x01\n      add\n      swap1\n      0x20\n      add\n      dup1\n      dup4\n      gt\n      tag_66\n      jumpi\n      dup3\n      swap1\n      sub\n      0x1f\n      and\n      dup3\n      add\n      swap2\n    tag_64:\n      pop\n      pop\n      pop\n      pop\n      pop\n      swap1\n      dup1\n      0x03\n      add\n      dup1\n      sload\n      tag_67\n      swap1\n      tag_50\n      jump\t// in\n    tag_67:\n      dup1\n      0x1f\n      add\n      0x20\n      dup1\n      swap2\n      div\n      mul\n      0x20\n      add\n      mload(0x40)\n      swap1\n      dup2\n      add\n      0x40\n      mstore\n      dup1\n      swap3\n      swap2\n      swap1\n      dup2\n      dup2\n      mstore\n      0x20\n      add\n      dup3\n      dup1\n      sload\n      tag_68\n      swap1\n      tag_50\n      jump\t// in\n    tag_68:\n      dup1\n      iszero\n      tag_69\n      jumpi\n      dup1\n      0x1f\n      lt\n      tag_70\n      jumpi\n      0x0100\n      dup1\n      dup4\n      sload\n      div\n      mul\n      dup4\n      mstore\n      swap2\n      0x20\n      add\n      swap2\n      jump(tag_69)\n    tag_70:\n      dup3\n      add\n      swap2\n      swap1\n      0x00\n      mstore\n      keccak256(0x00, 0x20)\n      swap1\n    tag_71:\n      dup2\n      sload\n      dup2\n      mstore\n      swap1\n      0x01\n      add\n      swap1\n      0x20\n      add\n      dup1\n      dup4\n      gt\n      tag_71\n      jumpi\n      dup3\n      swap1\n      sub\n      0x1f\n      and\n      dup3\n      add\n      swap2\n    tag_69:\n      pop\n      pop\n      pop\n      pop\n      pop\n      swap1\n      dup1\n      0x04\n      add\n      sload\n      swap1\n      pop\n      dup6\n      jump\t// out\n        /* \"contracts/Mail.sol\":2041:2608  function createAndAddMockEmails(address _receiver, uint256 _numberOfEmails) public {... */\n    tag_24:\n        /* \"contracts/Mail.sol\":2161:2162  0 */\n      0x00\n        /* \"contracts/Mail.sol\":2143:2158  _numberOfEmails */\n      dup2\n        /* \"contracts/Mail.sol\":2143:2162  _numberOfEmails > 0 */\n      gt\n        /* \"contracts/Mail.sol\":2135:2206  require(_numberOfEmails > 0, \"Number of emails must be greater than 0\") */\n      tag_73\n      jumpi\n      mload(0x40)\n      0x08c379a000000000000000000000000000000000000000000000000000000000\n      dup2\n      mstore\n      0x04\n      add\n      tag_74\n      swap1\n      tag_75\n      jump\t// in\n    tag_74:\n      mload(0x40)\n      dup1\n      swap2\n      sub\n      swap1\n      revert\n    tag_73:\n        /* \"contracts/Mail.sol\":2232:2241  uint256 i */\n      0x00\n        /* \"contracts/Mail.sol\":2227:2601  for (uint256 i = 0; i < _numberOfEmails; i++) {... */\n    tag_76:\n        /* \"contracts/Mail.sol\":2251:2266  _numberOfEmails */\n      dup2\n        /* \"contracts/Mail.sol\":2247:2248  i */\n      dup2\n        /* \"contracts/Mail.sol\":2247:2266  i < _numberOfEmails */\n      lt\n        /* \"contracts/Mail.sol\":2227:2601  for (uint256 i = 0; i < _numberOfEmails; i++) {... */\n      iszero\n      tag_77\n      jumpi\n        /* \"contracts/Mail.sol\":2288:2309  string memory subject */\n      0x00\n        /* \"contracts/Mail.sol\":2352:2367  uintToString(i) */\n      tag_79\n        /* \"contracts/Mail.sol\":2365:2366  i */\n      dup3\n        /* \"contracts/Mail.sol\":2352:2364  uintToString */\n      tag_80\n        /* \"contracts/Mail.sol\":2352:2367  uintToString(i) */\n      jump\t// in\n    tag_79:\n        /* \"contracts/Mail.sol\":2319:2368  abi.encodePacked(\"Mock Email #\", uintToString(i)) */\n      add(0x20, mload(0x40))\n      tag_81\n      swap2\n      swap1\n      tag_82\n      jump\t// in\n    tag_81:\n      mload(0x40)\n      0x20\n      dup2\n      dup4\n      sub\n      sub\n      dup2\n      mstore\n      swap1\n      0x40\n      mstore\n        /* \"contracts/Mail.sol\":2288:2369  string memory subject = string(abi.encodePacked(\"Mock Email #\", uintToString(i))) */\n      swap1\n      pop\n        /* \"contracts/Mail.sol\":2384:2405  string memory message */\n      0x00\n        /* \"contracts/Mail.sol\":2458:2473  uintToString(i) */\n      tag_83\n        /* \"contracts/Mail.sol\":2471:2472  i */\n      dup4\n        /* \"contracts/Mail.sol\":2458:2470  uintToString */\n      tag_80\n        /* \"contracts/Mail.sol\":2458:2473  uintToString(i) */\n      jump\t// in\n    tag_83:\n        /* \"contracts/Mail.sol\":2415:2474  abi.encodePacked(\"This is a mock email #\", uintToString(i)) */\n      add(0x20, mload(0x40))\n      tag_84\n      swap2\n      swap1\n      tag_85\n      jump\t// in\n    tag_84:\n      mload(0x40)\n      0x20\n      dup2\n      dup4\n      sub\n      sub\n      dup2\n      mstore\n      swap1\n      0x40\n      mstore\n        /* \"contracts/Mail.sol\":2384:2475  string memory message = string(abi.encodePacked(\"This is a mock email #\", uintToString(i))) */\n      swap1\n      pop\n        /* \"contracts/Mail.sol\":2504:2509  inbox */\n      0x00\n        /* \"contracts/Mail.sol\":2504:2520  inbox[_receiver] */\n      dup1\n        /* \"contracts/Mail.sol\":2510:2519  _receiver */\n      dup7\n        /* \"contracts/Mail.sol\":2504:2520  inbox[_receiver] */\n      0xffffffffffffffffffffffffffffffffffffffff\n      and\n      0xffffffffffffffffffffffffffffffffffffffff\n      and\n      dup2\n      mstore\n      0x20\n      add\n      swap1\n      dup2\n      mstore\n      0x20\n      add\n      0x00\n      keccak256\n        /* \"contracts/Mail.sol\":2526:2588  Email(msg.sender, _receiver, subject, message,block.timestamp) */\n      mload(0x40)\n      dup1\n      0xa0\n      add\n      0x40\n      mstore\n      dup1\n        /* \"contracts/Mail.sol\":2532:2542  msg.sender */\n      caller\n        /* \"contracts/Mail.sol\":2526:2588  Email(msg.sender, _receiver, subject, message,block.timestamp) */\n      0xffffffffffffffffffffffffffffffffffffffff\n      and\n      dup2\n      mstore\n      0x20\n      add\n        /* \"contracts/Mail.sol\":2544:2553  _receiver */\n      dup8\n        /* \"contracts/Mail.sol\":2526:2588  Email(msg.sender, _receiver, subject, message,block.timestamp) */\n      0xffffffffffffffffffffffffffffffffffffffff\n      and\n      dup2\n      mstore\n      0x20\n      add\n        /* \"contracts/Mail.sol\":2555:2562  subject */\n      dup5\n        /* \"contracts/Mail.sol\":2526:2588  Email(msg.sender, _receiver, subject, message,block.timestamp) */\n      dup2\n      mstore\n      0x20\n      add\n        /* \"contracts/Mail.sol\":2564:2571  message */\n      dup4\n        /* \"contracts/Mail.sol\":2526:2588  Email(msg.sender, _receiver, subject, message,block.timestamp) */\n      dup2\n      mstore\n      0x20\n      add\n        /* \"contracts/Mail.sol\":2572:2587  block.timestamp */\n      timestamp\n        /* \"contracts/Mail.sol\":2526:2588  Email(msg.sender, _receiver, subject, message,block.timestamp) */\n      dup2\n      mstore\n      pop\n        /* \"contracts/Mail.sol\":2504:2589  inbox[_receiver].push(Email(msg.sender, _receiver, subject, message,block.timestamp)) */\n      swap1\n      dup1\n      0x01\n      dup2\n      sload\n      add\n      dup1\n      dup3\n      sstore\n      dup1\n      swap2\n      pop\n      pop\n      0x01\n      swap1\n      sub\n      swap1\n      0x00\n      mstore\n      keccak256(0x00, 0x20)\n      swap1\n      0x05\n      mul\n      add\n      0x00\n      swap1\n      swap2\n      swap1\n      swap2\n      swap1\n      swap2\n      pop\n      0x00\n      dup3\n      add\n      mload\n      dup2\n      0x00\n      add\n      exp(0x0100, 0x00)\n      dup2\n      sload\n      dup2\n      0xffffffffffffffffffffffffffffffffffffffff\n      mul\n      not\n      and\n      swap1\n      dup4\n      0xffffffffffffffffffffffffffffffffffffffff\n      and\n      mul\n      or\n      swap1\n      sstore\n      pop\n      0x20\n      dup3\n      add\n      mload\n      dup2\n      0x01\n      add\n      exp(0x0100, 0x00)\n      dup2\n      sload\n      dup2\n      0xffffffffffffffffffffffffffffffffffffffff\n      mul\n      not\n      and\n      swap1\n      dup4\n      0xffffffffffffffffffffffffffffffffffffffff\n      and\n      mul\n      or\n      swap1\n      sstore\n      pop\n      0x40\n      dup3\n      add\n      mload\n      dup2\n      0x02\n      add\n      swap1\n      dup2\n      tag_87\n      swap2\n      swap1\n      tag_88\n      jump\t// in\n    tag_87:\n      pop\n      0x60\n      dup3\n      add\n      mload\n      dup2\n      0x03\n      add\n      swap1\n      dup2\n      tag_89\n      swap2\n      swap1\n      tag_88\n      jump\t// in\n    tag_89:\n      pop\n      0x80\n      dup3\n      add\n      mload\n      dup2\n      0x04\n      add\n      sstore\n      pop\n      pop\n        /* \"contracts/Mail.sol\":2273:2601  {... */\n      pop\n      pop\n        /* \"contracts/Mail.sol\":2268:2271  i++ */\n      dup1\n      dup1\n      tag_90\n      swap1\n      tag_91\n      jump\t// in\n    tag_90:\n      swap2\n      pop\n      pop\n        /* \"contracts/Mail.sol\":2227:2601  for (uint256 i = 0; i < _numberOfEmails; i++) {... */\n      jump(tag_76)\n    tag_77:\n      pop\n        /* \"contracts/Mail.sol\":2041:2608  function createAndAddMockEmails(address _receiver, uint256 _numberOfEmails) public {... */\n      pop\n      pop\n      jump\t// out\n        /* \"contracts/Mail.sol\":3362:3849  function sendEmailToMany(string memory _subject, string memory _message) public {... */\n    tag_28:\n        /* \"contracts/Mail.sol\":3486:3487  0 */\n      0x00\n        /* \"contracts/Mail.sol\":3461:3476  multipleaddress */\n      0x02\n        /* \"contracts/Mail.sol\":3461:3483  multipleaddress.length */\n      dup1\n      sload\n      swap1\n      pop\n        /* \"contracts/Mail.sol\":3461:3487  multipleaddress.length > 0 */\n      gt\n        /* \"contracts/Mail.sol\":3453:3533  require(multipleaddress.length > 0, \"At least one receiver address is required\") */\n      tag_93\n      jumpi\n      mload(0x40)\n      0x08c379a000000000000000000000000000000000000000000000000000000000\n      dup2\n      mstore\n      0x04\n      add\n      tag_94\n      swap1\n      tag_95\n      jump\t// in\n    tag_94:\n      mload(0x40)\n      dup1\n      swap2\n      sub\n      swap1\n      revert\n    tag_93:\n        /* \"contracts/Mail.sol\":3551:3560  uint256 i */\n      0x00\n        /* \"contracts/Mail.sol\":3546:3842  for (uint256 i = 0; i < multipleaddress.length; i++) {... */\n    tag_96:\n        /* \"contracts/Mail.sol\":3570:3585  multipleaddress */\n      0x02\n        /* \"contracts/Mail.sol\":3570:3592  multipleaddress.length */\n      dup1\n      sload\n      swap1\n      pop\n        /* \"contracts/Mail.sol\":3566:3567  i */\n      dup2\n        /* \"contracts/Mail.sol\":3566:3592  i < multipleaddress.length */\n      lt\n        /* \"contracts/Mail.sol\":3546:3842  for (uint256 i = 0; i < multipleaddress.length; i++) {... */\n      iszero\n      tag_97\n      jumpi\n        /* \"contracts/Mail.sol\":3614:3619  inbox */\n      0x00\n        /* \"contracts/Mail.sol\":3614:3639  inbox[multipleaddress[i]] */\n      dup1\n        /* \"contracts/Mail.sol\":3620:3635  multipleaddress */\n      0x02\n        /* \"contracts/Mail.sol\":3636:3637  i */\n      dup4\n        /* \"contracts/Mail.sol\":3620:3638  multipleaddress[i] */\n      dup2\n      sload\n      dup2\n      lt\n      tag_99\n      jumpi\n      tag_100\n      tag_101\n      jump\t// in\n    tag_100:\n    tag_99:\n      swap1\n      0x00\n      mstore\n      keccak256(0x00, 0x20)\n      add\n      0x00\n      swap1\n      sload\n      swap1\n      0x0100\n      exp\n      swap1\n      div\n      0xffffffffffffffffffffffffffffffffffffffff\n      and\n        /* \"contracts/Mail.sol\":3614:3639  inbox[multipleaddress[i]] */\n      0xffffffffffffffffffffffffffffffffffffffff\n      and\n      0xffffffffffffffffffffffffffffffffffffffff\n      and\n      dup2\n      mstore\n      0x20\n      add\n      swap1\n      dup2\n      mstore\n      0x20\n      add\n      0x00\n      keccak256\n        /* \"contracts/Mail.sol\":3645:3718  Email(msg.sender, multipleaddress[i], _subject, _message,block.timestamp) */\n      mload(0x40)\n      dup1\n      0xa0\n      add\n      0x40\n      mstore\n      dup1\n        /* \"contracts/Mail.sol\":3651:3661  msg.sender */\n      caller\n        /* \"contracts/Mail.sol\":3645:3718  Email(msg.sender, multipleaddress[i], _subject, _message,block.timestamp) */\n      0xffffffffffffffffffffffffffffffffffffffff\n      and\n      dup2\n      mstore\n      0x20\n      add\n        /* \"contracts/Mail.sol\":3663:3678  multipleaddress */\n      0x02\n        /* \"contracts/Mail.sol\":3679:3680  i */\n      dup5\n        /* \"contracts/Mail.sol\":3663:3681  multipleaddress[i] */\n      dup2\n      sload\n      dup2\n      lt\n      tag_103\n      jumpi\n      tag_104\n      tag_101\n      jump\t// in\n    tag_104:\n    tag_103:\n      swap1\n      0x00\n      mstore\n      keccak256(0x00, 0x20)\n      add\n      0x00\n      swap1\n      sload\n      swap1\n      0x0100\n      exp\n      swap1\n      div\n      0xffffffffffffffffffffffffffffffffffffffff\n      and\n        /* \"contracts/Mail.sol\":3645:3718  Email(msg.sender, multipleaddress[i], _subject, _message,block.timestamp) */\n      0xffffffffffffffffffffffffffffffffffffffff\n      and\n      dup2\n      mstore\n      0x20\n      add\n        /* \"contracts/Mail.sol\":3683:3691  _subject */\n      dup6\n        /* \"contracts/Mail.sol\":3645:3718  Email(msg.sender, multipleaddress[i], _subject, _message,block.timestamp) */\n      dup2\n      mstore\n      0x20\n      add\n        /* \"contracts/Mail.sol\":3693:3701  _message */\n      dup5\n        /* \"contracts/Mail.sol\":3645:3718  Email(msg.sender, multipleaddress[i], _subject, _message,block.timestamp) */\n      dup2\n      mstore\n      0x20\n      add\n        /* \"contracts/Mail.sol\":3702:3717  block.timestamp */\n      timestamp\n        /* \"contracts/Mail.sol\":3645:3718  Email(msg.sender, multipleaddress[i], _subject, _message,block.timestamp) */\n      dup2\n      mstore\n      pop\n        /* \"contracts/Mail.sol\":3614:3719  inbox[multipleaddress[i]].push(Email(msg.sender, multipleaddress[i], _subject, _message,block.timestamp)) */\n      swap1\n      dup1\n      0x01\n      dup2\n      sload\n      add\n      dup1\n      dup3\n      sstore\n      dup1\n      swap2\n      pop\n      pop\n      0x01\n      swap1\n      sub\n      swap1\n      0x00\n      mstore\n      keccak256(0x00, 0x20)\n      swap1\n      0x05\n      mul\n      add\n      0x00\n      swap1\n      swap2\n      swap1\n      swap2\n      swap1\n      swap2\n      pop\n      0x00\n      dup3\n      add\n      mload\n      dup2\n      0x00\n      add\n      exp(0x0100, 0x00)\n      dup2\n      sload\n      dup2\n      0xffffffffffffffffffffffffffffffffffffffff\n      mul\n      not\n      and\n      swap1\n      dup4\n      0xffffffffffffffffffffffffffffffffffffffff\n      and\n      mul\n      or\n      swap1\n      sstore\n      pop\n      0x20\n      dup3\n      add\n      mload\n      dup2\n      0x01\n      add\n      exp(0x0100, 0x00)\n      dup2\n      sload\n      dup2\n      0xffffffffffffffffffffffffffffffffffffffff\n      mul\n      not\n      and\n      swap1\n      dup4\n      0xffffffffffffffffffffffffffffffffffffffff\n      and\n      mul\n      or\n      swap1\n      sstore\n      pop\n      0x40\n      dup3\n      add\n      mload\n      dup2\n      0x02\n      add\n      swap1\n      dup2\n      tag_107\n      swap2\n      swap1\n      tag_88\n      jump\t// in\n    tag_107:\n      pop\n      0x60\n      dup3\n      add\n      mload\n      dup2\n      0x03\n      add\n      swap1\n      dup2\n      tag_108\n      swap2\n      swap1\n      tag_88\n      jump\t// in\n    tag_108:\n      pop\n      0x80\n      dup3\n      add\n      mload\n      dup2\n      0x04\n      add\n      sstore\n      pop\n      pop\n        /* \"contracts/Mail.sol\":3734:3738  sent */\n      0x01\n        /* \"contracts/Mail.sol\":3734:3750  sent[msg.sender] */\n      0x00\n        /* \"contracts/Mail.sol\":3739:3749  msg.sender */\n      caller\n        /* \"contracts/Mail.sol\":3734:3750  sent[msg.sender] */\n      0xffffffffffffffffffffffffffffffffffffffff\n      and\n      0xffffffffffffffffffffffffffffffffffffffff\n      and\n      dup2\n      mstore\n      0x20\n      add\n      swap1\n      dup2\n      mstore\n      0x20\n      add\n      0x00\n      keccak256\n        /* \"contracts/Mail.sol\":3756:3829  Email(msg.sender, multipleaddress[i], _subject, _message,block.timestamp) */\n      mload(0x40)\n      dup1\n      0xa0\n      add\n      0x40\n      mstore\n      dup1\n        /* \"contracts/Mail.sol\":3762:3772  msg.sender */\n      caller\n        /* \"contracts/Mail.sol\":3756:3829  Email(msg.sender, multipleaddress[i], _subject, _message,block.timestamp) */\n      0xffffffffffffffffffffffffffffffffffffffff\n      and\n      dup2\n      mstore\n      0x20\n      add\n        /* \"contracts/Mail.sol\":3774:3789  multipleaddress */\n      0x02\n        /* \"contracts/Mail.sol\":3790:3791  i */\n      dup5\n        /* \"contracts/Mail.sol\":3774:3792  multipleaddress[i] */\n      dup2\n      sload\n      dup2\n      lt\n      tag_109\n      jumpi\n      tag_110\n      tag_101\n      jump\t// in\n    tag_110:\n    tag_109:\n      swap1\n      0x00\n      mstore\n      keccak256(0x00, 0x20)\n      add\n      0x00\n      swap1\n      sload\n      swap1\n      0x0100\n      exp\n      swap1\n      div\n      0xffffffffffffffffffffffffffffffffffffffff\n      and\n        /* \"contracts/Mail.sol\":3756:3829  Email(msg.sender, multipleaddress[i], _subject, _message,block.timestamp) */\n      0xffffffffffffffffffffffffffffffffffffffff\n      and\n      dup2\n      mstore\n      0x20\n      add\n        /* \"contracts/Mail.sol\":3794:3802  _subject */\n      dup6\n        /* \"contracts/Mail.sol\":3756:3829  Email(msg.sender, multipleaddress[i], _subject, _message,block.timestamp) */\n      dup2\n      mstore\n      0x20\n      add\n        /* \"contracts/Mail.sol\":3804:3812  _message */\n      dup5\n        /* \"contracts/Mail.sol\":3756:3829  Email(msg.sender, multipleaddress[i], _subject, _message,block.timestamp) */\n      dup2\n      mstore\n      0x20\n      add\n        /* \"contracts/Mail.sol\":3813:3828  block.timestamp */\n      timestamp\n        /* \"contracts/Mail.sol\":3756:3829  Email(msg.sender, multipleaddress[i], _subject, _message,block.timestamp) */\n      dup2\n      mstore\n      pop\n        /* \"contracts/Mail.sol\":3734:3830  sent[msg.sender].push(Email(msg.sender, multipleaddress[i], _subject, _message,block.timestamp)) */\n      swap1\n      dup1\n      0x01\n      dup2\n      sload\n      add\n      dup1\n      dup3\n      sstore\n      dup1\n      swap2\n      pop\n      pop\n      0x01\n      swap1\n      sub\n      swap1\n      0x00\n      mstore\n      keccak256(0x00, 0x20)\n      swap1\n      0x05\n      mul\n      add\n      0x00\n      swap1\n      swap2\n      swap1\n      swap2\n      swap1\n      swap2\n      pop\n      0x00\n      dup3\n      add\n      mload\n      dup2\n      0x00\n      add\n      exp(0x0100, 0x00)\n      dup2\n      sload\n      dup2\n      0xffffffffffffffffffffffffffffffffffffffff\n      mul\n      not\n      and\n      swap1\n      dup4\n      0xffffffffffffffffffffffffffffffffffffffff\n      and\n      mul\n      or\n      swap1\n      sstore\n      pop\n      0x20\n      dup3\n      add\n      mload\n      dup2\n      0x01\n      add\n      exp(0x0100, 0x00)\n      dup2\n      sload\n      dup2\n      0xffffffffffffffffffffffffffffffffffffffff\n      mul\n      not\n      and\n      swap1\n      dup4\n      0xffffffffffffffffffffffffffffffffffffffff\n      and\n      mul\n      or\n      swap1\n      sstore\n      pop\n      0x40\n      dup3\n      add\n      mload\n      dup2\n      0x02\n      add\n      swap1\n      dup2\n      tag_113\n      swap2\n      swap1\n      tag_88\n      jump\t// in\n    tag_113:\n      pop\n      0x60\n      dup3\n      add\n      mload\n      dup2\n      0x03\n      add\n      swap1\n      dup2\n      tag_114\n      swap2\n      swap1\n      tag_88\n      jump\t// in\n    tag_114:\n      pop\n      0x80\n      dup3\n      add\n      mload\n      dup2\n      0x04\n      add\n      sstore\n      pop\n      pop\n        /* \"contracts/Mail.sol\":3594:3597  i++ */\n      dup1\n      dup1\n      tag_115\n      swap1\n      tag_91\n      jump\t// in\n    tag_115:\n      swap2\n      pop\n      pop\n        /* \"contracts/Mail.sol\":3546:3842  for (uint256 i = 0; i < multipleaddress.length; i++) {... */\n      jump(tag_96)\n    tag_97:\n      pop\n        /* \"contracts/Mail.sol\":3362:3849  function sendEmailToMany(string memory _subject, string memory _message) public {... */\n      pop\n      pop\n      jump\t// out\n        /* \"contracts/Mail.sol\":1145:1335  function getEmailCount(address _user) public view returns (uint256 inboxCount, uint256 sentCount) {... */\n    tag_32:\n        /* \"contracts/Mail.sol\":1204:1222  uint256 inboxCount */\n      0x00\n        /* \"contracts/Mail.sol\":1224:1241  uint256 sentCount */\n      dup1\n        /* \"contracts/Mail.sol\":1267:1272  inbox */\n      0x00\n        /* \"contracts/Mail.sol\":1267:1279  inbox[_user] */\n      dup1\n        /* \"contracts/Mail.sol\":1273:1278  _user */\n      dup5\n        /* \"contracts/Mail.sol\":1267:1279  inbox[_user] */\n      0xffffffffffffffffffffffffffffffffffffffff\n      and\n      0xffffffffffffffffffffffffffffffffffffffff\n      and\n      dup2\n      mstore\n      0x20\n      add\n      swap1\n      dup2\n      mstore\n      0x20\n      add\n      0x00\n      keccak256\n        /* \"contracts/Mail.sol\":1267:1286  inbox[_user].length */\n      dup1\n      sload\n      swap1\n      pop\n        /* \"contracts/Mail.sol\":1254:1286  inboxCount = inbox[_user].length */\n      swap2\n      pop\n        /* \"contracts/Mail.sol\":1309:1313  sent */\n      0x01\n        /* \"contracts/Mail.sol\":1309:1320  sent[_user] */\n      0x00\n        /* \"contracts/Mail.sol\":1314:1319  _user */\n      dup5\n        /* \"contracts/Mail.sol\":1309:1320  sent[_user] */\n      0xffffffffffffffffffffffffffffffffffffffff\n      and\n      0xffffffffffffffffffffffffffffffffffffffff\n      and\n      dup2\n      mstore\n      0x20\n      add\n      swap1\n      dup2\n      mstore\n      0x20\n      add\n      0x00\n      keccak256\n        /* \"contracts/Mail.sol\":1309:1327  sent[_user].length */\n      dup1\n      sload\n      swap1\n      pop\n        /* \"contracts/Mail.sol\":1297:1327  sentCount = sent[_user].length */\n      swap1\n      pop\n        /* \"contracts/Mail.sol\":1145:1335  function getEmailCount(address _user) public view returns (uint256 inboxCount, uint256 sentCount) {... */\n      swap2\n      pop\n      swap2\n      jump\t// out\n        /* \"contracts/Mail.sol\":489:1137  function sendEmail(address _receiver, string memory _subject, string memory _message) public {... */\n    tag_38:\n        /* \"contracts/Mail.sol\":622:623  0 */\n      0x00\n        /* \"contracts/Mail.sol\":601:624  _receiver != address(0) */\n      0xffffffffffffffffffffffffffffffffffffffff\n      and\n        /* \"contracts/Mail.sol\":601:610  _receiver */\n      dup4\n        /* \"contracts/Mail.sol\":601:624  _receiver != address(0) */\n      0xffffffffffffffffffffffffffffffffffffffff\n      and\n      sub\n        /* \"contracts/Mail.sol\":593:660  require(_receiver != address(0), \"Receiver address cannot be zero\") */\n      tag_118\n      jumpi\n      mload(0x40)\n      0x08c379a000000000000000000000000000000000000000000000000000000000\n      dup2\n      mstore\n      0x04\n      add\n      tag_119\n      swap1\n      tag_120\n      jump\t// in\n    tag_119:\n      mload(0x40)\n      dup1\n      swap2\n      sub\n      swap1\n      revert\n    tag_118:\n        /* \"contracts/Mail.sol\":693:702  _receiver */\n      dup3\n        /* \"contracts/Mail.sol\":679:702  msg.sender != _receiver */\n      0xffffffffffffffffffffffffffffffffffffffff\n      and\n        /* \"contracts/Mail.sol\":679:689  msg.sender */\n      caller\n        /* \"contracts/Mail.sol\":679:702  msg.sender != _receiver */\n      0xffffffffffffffffffffffffffffffffffffffff\n      and\n      sub\n        /* \"contracts/Mail.sol\":671:739  require(msg.sender != _receiver, \"Cannot send an email to yourself\") */\n      tag_121\n      jumpi\n      mload(0x40)\n      0x08c379a000000000000000000000000000000000000000000000000000000000\n      dup2\n      mstore\n      0x04\n      add\n      tag_122\n      swap1\n      tag_123\n      jump\t// in\n    tag_122:\n      mload(0x40)\n      dup1\n      swap2\n      sub\n      swap1\n      revert\n    tag_121:\n        /* \"contracts/Mail.sol\":752:773  Email memory newEmail */\n      0x00\n        /* \"contracts/Mail.sol\":776:966  Email({... */\n      mload(0x40)\n      dup1\n      0xa0\n      add\n      0x40\n      mstore\n      dup1\n        /* \"contracts/Mail.sol\":805:815  msg.sender */\n      caller\n        /* \"contracts/Mail.sol\":776:966  Email({... */\n      0xffffffffffffffffffffffffffffffffffffffff\n      and\n      dup2\n      mstore\n      0x20\n      add\n        /* \"contracts/Mail.sol\":840:849  _receiver */\n      dup6\n        /* \"contracts/Mail.sol\":776:966  Email({... */\n      0xffffffffffffffffffffffffffffffffffffffff\n      and\n      dup2\n      mstore\n      0x20\n      add\n        /* \"contracts/Mail.sol\":873:881  _subject */\n      dup5\n        /* \"contracts/Mail.sol\":776:966  Email({... */\n      dup2\n      mstore\n      0x20\n      add\n        /* \"contracts/Mail.sol\":905:913  _message */\n      dup4\n        /* \"contracts/Mail.sol\":776:966  Email({... */\n      dup2\n      mstore\n      0x20\n      add\n        /* \"contracts/Mail.sol\":939:954  block.timestamp */\n      timestamp\n        /* \"contracts/Mail.sol\":776:966  Email({... */\n      dup2\n      mstore\n      pop\n        /* \"contracts/Mail.sol\":752:966  Email memory newEmail = Email({... */\n      swap1\n      pop\n        /* \"contracts/Mail.sol\":979:984  inbox */\n      0x00\n        /* \"contracts/Mail.sol\":979:995  inbox[_receiver] */\n      dup1\n        /* \"contracts/Mail.sol\":985:994  _receiver */\n      dup6\n        /* \"contracts/Mail.sol\":979:995  inbox[_receiver] */\n      0xffffffffffffffffffffffffffffffffffffffff\n      and\n      0xffffffffffffffffffffffffffffffffffffffff\n      and\n      dup2\n      mstore\n      0x20\n      add\n      swap1\n      dup2\n      mstore\n      0x20\n      add\n      0x00\n      keccak256\n        /* \"contracts/Mail.sol\":1001:1009  newEmail */\n      dup2\n        /* \"contracts/Mail.sol\":979:1010  inbox[_receiver].push(newEmail) */\n      swap1\n      dup1\n      0x01\n      dup2\n      sload\n      add\n      dup1\n      dup3\n      sstore\n      dup1\n      swap2\n      pop\n      pop\n      0x01\n      swap1\n      sub\n      swap1\n      0x00\n      mstore\n      keccak256(0x00, 0x20)\n      swap1\n      0x05\n      mul\n      add\n      0x00\n      swap1\n      swap2\n      swap1\n      swap2\n      swap1\n      swap2\n      pop\n      0x00\n      dup3\n      add\n      mload\n      dup2\n      0x00\n      add\n      exp(0x0100, 0x00)\n      dup2\n      sload\n      dup2\n      0xffffffffffffffffffffffffffffffffffffffff\n      mul\n      not\n      and\n      swap1\n      dup4\n      0xffffffffffffffffffffffffffffffffffffffff\n      and\n      mul\n      or\n      swap1\n      sstore\n      pop\n      0x20\n      dup3\n      add\n      mload\n      dup2\n      0x01\n      add\n      exp(0x0100, 0x00)\n      dup2\n      sload\n      dup2\n      0xffffffffffffffffffffffffffffffffffffffff\n      mul\n      not\n      and\n      swap1\n      dup4\n      0xffffffffffffffffffffffffffffffffffffffff\n      and\n      mul\n      or\n      swap1\n      sstore\n      pop\n      0x40\n      dup3\n      add\n      mload\n      dup2\n      0x02\n      add\n      swap1\n      dup2\n      tag_125\n      swap2\n      swap1\n      tag_88\n      jump\t// in\n    tag_125:\n      pop\n      0x60\n      dup3\n      add\n      mload\n      dup2\n      0x03\n      add\n      swap1\n      dup2\n      tag_126\n      swap2\n      swap1\n      tag_88\n      jump\t// in\n    tag_126:\n      pop\n      0x80\n      dup3\n      add\n      mload\n      dup2\n      0x04\n      add\n      sstore\n      pop\n      pop\n        /* \"contracts/Mail.sol\":1021:1025  sent */\n      0x01\n        /* \"contracts/Mail.sol\":1021:1037  sent[msg.sender] */\n      0x00\n        /* \"contracts/Mail.sol\":1026:1036  msg.sender */\n      caller\n        /* \"contracts/Mail.sol\":1021:1037  sent[msg.sender] */\n      0xffffffffffffffffffffffffffffffffffffffff\n      and\n      0xffffffffffffffffffffffffffffffffffffffff\n      and\n      dup2\n      mstore\n      0x20\n      add\n      swap1\n      dup2\n      mstore\n      0x20\n      add\n      0x00\n      keccak256\n        /* \"contracts/Mail.sol\":1043:1051  newEmail */\n      dup2\n        /* \"contracts/Mail.sol\":1021:1052  sent[msg.sender].push(newEmail) */\n      swap1\n      dup1\n      0x01\n      dup2\n      sload\n      add\n      dup1\n      dup3\n      sstore\n      dup1\n      swap2\n      pop\n      pop\n      0x01\n      swap1\n      sub\n      swap1\n      0x00\n      mstore\n      keccak256(0x00, 0x20)\n      swap1\n      0x05\n      mul\n      add\n      0x00\n      swap1\n      swap2\n      swap1\n      swap2\n      swap1\n      swap2\n      pop\n      0x00\n      dup3\n      add\n      mload\n      dup2\n      0x00\n      add\n      exp(0x0100, 0x00)\n      dup2\n      sload\n      dup2\n      0xffffffffffffffffffffffffffffffffffffffff\n      mul\n      not\n      and\n      swap1\n      dup4\n      0xffffffffffffffffffffffffffffffffffffffff\n      and\n      mul\n      or\n      swap1\n      sstore\n      pop\n      0x20\n      dup3\n      add\n      mload\n      dup2\n      0x01\n      add\n      exp(0x0100, 0x00)\n      dup2\n      sload\n      dup2\n      0xffffffffffffffffffffffffffffffffffffffff\n      mul\n      not\n      and\n      swap1\n      dup4\n      0xffffffffffffffffffffffffffffffffffffffff\n      and\n      mul\n      or\n      swap1\n      sstore\n      pop\n      0x40\n      dup3\n      add\n      mload\n      dup2\n      0x02\n      add\n      swap1\n      dup2\n      tag_128\n      swap2\n      swap1\n      tag_88\n      jump\t// in\n    tag_128:\n      pop\n      0x60\n      dup3\n      add\n      mload\n      dup2\n      0x03\n      add\n      swap1\n      dup2\n      tag_129\n      swap2\n      swap1\n      tag_88\n      jump\t// in\n    tag_129:\n      pop\n      0x80\n      dup3\n      add\n      mload\n      dup2\n      0x04\n      add\n      sstore\n      pop\n      pop\n        /* \"contracts/Mail.sol\":1092:1101  _receiver */\n      dup4\n        /* \"contracts/Mail.sol\":1070:1129  EmailSent(msg.sender, _receiver, _subject, block.timestamp) */\n      0xffffffffffffffffffffffffffffffffffffffff\n      and\n        /* \"contracts/Mail.sol\":1080:1090  msg.sender */\n      caller\n        /* \"contracts/Mail.sol\":1070:1129  EmailSent(msg.sender, _receiver, _subject, block.timestamp) */\n      0xffffffffffffffffffffffffffffffffffffffff\n      and\n      0x2ecdf33a271447607b6aca3173f5f892e91720d5106f80c513aa4710a2bb4e33\n        /* \"contracts/Mail.sol\":1103:1111  _subject */\n      dup6\n        /* \"contracts/Mail.sol\":1113:1128  block.timestamp */\n      timestamp\n        /* \"contracts/Mail.sol\":1070:1129  EmailSent(msg.sender, _receiver, _subject, block.timestamp) */\n      mload(0x40)\n      tag_130\n      swap3\n      swap2\n      swap1\n      tag_131\n      jump\t// in\n    tag_130:\n      mload(0x40)\n      dup1\n      swap2\n      sub\n      swap1\n      log3\n        /* \"contracts/Mail.sol\":582:1137  {... */\n      pop\n        /* \"contracts/Mail.sol\":489:1137  function sendEmail(address _receiver, string memory _subject, string memory _message) public {... */\n      pop\n      pop\n      pop\n      jump\t// out\n        /* \"contracts/Mail.sol\":1343:2031  function getEmailsReceived() public view returns (Email[] memory) {... */\n    tag_40:\n        /* \"contracts/Mail.sol\":1393:1407  Email[] memory */\n      0x60\n        /* \"contracts/Mail.sol\":1420:1441  Email[] memory emails */\n      0x00\n        /* \"contracts/Mail.sol\":1444:1449  inbox */\n      dup1\n        /* \"contracts/Mail.sol\":1444:1461  inbox[msg.sender] */\n      0x00\n        /* \"contracts/Mail.sol\":1450:1460  msg.sender */\n      caller\n        /* \"contracts/Mail.sol\":1444:1461  inbox[msg.sender] */\n      0xffffffffffffffffffffffffffffffffffffffff\n      and\n      0xffffffffffffffffffffffffffffffffffffffff\n      and\n      dup2\n      mstore\n      0x20\n      add\n      swap1\n      dup2\n      mstore\n      0x20\n      add\n      0x00\n      keccak256\n        /* \"contracts/Mail.sol\":1420:1461  Email[] memory emails = inbox[msg.sender] */\n      dup1\n      sload\n      dup1\n      0x20\n      mul\n      0x20\n      add\n      mload(0x40)\n      swap1\n      dup2\n      add\n      0x40\n      mstore\n      dup1\n      swap3\n      swap2\n      swap1\n      dup2\n      dup2\n      mstore\n      0x20\n      add\n      0x00\n      swap1\n    tag_133:\n      dup3\n      dup3\n      lt\n      iszero\n      tag_134\n      jumpi\n      dup4\n      dup3\n      swap1\n      0x00\n      mstore\n      keccak256(0x00, 0x20)\n      swap1\n      0x05\n      mul\n      add\n      mload(0x40)\n      dup1\n      0xa0\n      add\n      0x40\n      mstore\n      swap1\n      dup2\n      0x00\n      dup3\n      add\n      0x00\n      swap1\n      sload\n      swap1\n      0x0100\n      exp\n      swap1\n      div\n      0xffffffffffffffffffffffffffffffffffffffff\n      and\n      0xffffffffffffffffffffffffffffffffffffffff\n      and\n      0xffffffffffffffffffffffffffffffffffffffff\n      and\n      dup2\n      mstore\n      0x20\n      add\n      0x01\n      dup3\n      add\n      0x00\n      swap1\n      sload\n      swap1\n      0x0100\n      exp\n      swap1\n      div\n      0xffffffffffffffffffffffffffffffffffffffff\n      and\n      0xffffffffffffffffffffffffffffffffffffffff\n      and\n      0xffffffffffffffffffffffffffffffffffffffff\n      and\n      dup2\n      mstore\n      0x20\n      add\n      0x02\n      dup3\n      add\n      dup1\n      sload\n      tag_136\n      swap1\n      tag_50\n      jump\t// in\n    tag_136:\n      dup1\n      0x1f\n      add\n      0x20\n      dup1\n      swap2\n      div\n      mul\n      0x20\n      add\n      mload(0x40)\n      swap1\n      dup2\n      add\n      0x40\n      mstore\n      dup1\n      swap3\n      swap2\n      swap1\n      dup2\n      dup2\n      mstore\n      0x20\n      add\n      dup3\n      dup1\n      sload\n      tag_137\n      swap1\n      tag_50\n      jump\t// in\n    tag_137:\n      dup1\n      iszero\n      tag_138\n      jumpi\n      dup1\n      0x1f\n      lt\n      tag_139\n      jumpi\n      0x0100\n      dup1\n      dup4\n      sload\n      div\n      mul\n      dup4\n      mstore\n      swap2\n      0x20\n      add\n      swap2\n      jump(tag_138)\n    tag_139:\n      dup3\n      add\n      swap2\n      swap1\n      0x00\n      mstore\n      keccak256(0x00, 0x20)\n      swap1\n    tag_140:\n      dup2\n      sload\n      dup2\n      mstore\n      swap1\n      0x01\n      add\n      swap1\n      0x20\n      add\n      dup1\n      dup4\n      gt\n      tag_140\n      jumpi\n      dup3\n      swap1\n      sub\n      0x1f\n      and\n      dup3\n      add\n      swap2\n    tag_138:\n      pop\n      pop\n      pop\n      pop\n      pop\n      dup2\n      mstore\n      0x20\n      add\n      0x03\n      dup3\n      add\n      dup1\n      sload\n      tag_141\n      swap1\n      tag_50\n      jump\t// in\n    tag_141:\n      dup1\n      0x1f\n      add\n      0x20\n      dup1\n      swap2\n      div\n      mul\n      0x20\n      add\n      mload(0x40)\n      swap1\n      dup2\n      add\n      0x40\n      mstore\n      dup1\n      swap3\n      swap2\n      swap1\n      dup2\n      dup2\n      mstore\n      0x20\n      add\n      dup3\n      dup1\n      sload\n      tag_142\n      swap1\n      tag_50\n      jump\t// in\n    tag_142:\n      dup1\n      iszero\n      tag_143\n      jumpi\n      dup1\n      0x1f\n      lt\n      tag_144\n      jumpi\n      0x0100\n      dup1\n      dup4\n      sload\n      div\n      mul\n      dup4\n      mstore\n      swap2\n      0x20\n      add\n      swap2\n      jump(tag_143)\n    tag_144:\n      dup3\n      add\n      swap2\n      swap1\n      0x00\n      mstore\n      keccak256(0x00, 0x20)\n      swap1\n    tag_145:\n      dup2\n      sload\n      dup2\n      mstore\n      swap1\n      0x01\n      add\n      swap1\n      0x20\n      add\n      dup1\n      dup4\n      gt\n      tag_145\n      jumpi\n      dup3\n      swap1\n      sub\n      0x1f\n      and\n      dup3\n      add\n      swap2\n    tag_143:\n      pop\n      pop\n      pop\n      pop\n      pop\n      dup2\n      mstore\n      0x20\n      add\n      0x04\n      dup3\n      add\n      sload\n      dup2\n      mstore\n      pop\n      pop\n      dup2\n      mstore\n      0x20\n      add\n      swap1\n      0x01\n      add\n      swap1\n      jump(tag_133)\n    tag_134:\n      pop\n      pop\n      pop\n      pop\n      swap1\n      pop\n        /* \"contracts/Mail.sol\":1472:1485  uint256 count */\n      0x00\n        /* \"contracts/Mail.sol\":1488:1494  emails */\n      dup2\n        /* \"contracts/Mail.sol\":1488:1501  emails.length */\n      mload\n        /* \"contracts/Mail.sol\":1472:1501  uint256 count = emails.length */\n      swap1\n      pop\n        /* \"contracts/Mail.sol\":1512:1539  Email[] memory senderEmails */\n      0x00\n        /* \"contracts/Mail.sol\":1554:1559  count */\n      dup2\n        /* \"contracts/Mail.sol\":1542:1560  new Email[](count) */\n      0xffffffffffffffff\n      dup2\n      gt\n      iszero\n      tag_146\n      jumpi\n      tag_147\n      tag_148\n      jump\t// in\n    tag_147:\n    tag_146:\n      mload(0x40)\n      swap1\n      dup1\n      dup3\n      mstore\n      dup1\n      0x20\n      mul\n      0x20\n      add\n      dup3\n      add\n      0x40\n      mstore\n      dup1\n      iszero\n      tag_149\n      jumpi\n      dup2\n      0x20\n      add\n    tag_150:\n      tag_151\n      tag_152\n      jump\t// in\n    tag_151:\n      dup2\n      mstore\n      0x20\n      add\n      swap1\n      0x01\n      swap1\n      sub\n      swap1\n      dup2\n      tag_150\n      jumpi\n      swap1\n      pop\n    tag_149:\n      pop\n        /* \"contracts/Mail.sol\":1512:1560  Email[] memory senderEmails = new Email[](count) */\n      swap1\n      pop\n        /* \"contracts/Mail.sol\":1571:1596  uint256 senderEmailsCount */\n      0x00\n        /* \"contracts/Mail.sol\":1618:1627  uint256 i */\n      dup1\n        /* \"contracts/Mail.sol\":1613:1827  for (uint256 i = 0; i < count; i++) {... */\n    tag_153:\n        /* \"contracts/Mail.sol\":1637:1642  count */\n      dup4\n        /* \"contracts/Mail.sol\":1633:1634  i */\n      dup2\n        /* \"contracts/Mail.sol\":1633:1642  i < count */\n      lt\n        /* \"contracts/Mail.sol\":1613:1827  for (uint256 i = 0; i < count; i++) {... */\n      iszero\n      tag_154\n      jumpi\n        /* \"contracts/Mail.sol\":1688:1698  msg.sender */\n      caller\n        /* \"contracts/Mail.sol\":1668:1698  emails[i].sender == msg.sender */\n      0xffffffffffffffffffffffffffffffffffffffff\n      and\n        /* \"contracts/Mail.sol\":1668:1674  emails */\n      dup6\n        /* \"contracts/Mail.sol\":1675:1676  i */\n      dup3\n        /* \"contracts/Mail.sol\":1668:1677  emails[i] */\n      dup2\n      mload\n      dup2\n      lt\n      tag_156\n      jumpi\n      tag_157\n      tag_101\n      jump\t// in\n    tag_157:\n    tag_156:\n      0x20\n      mul\n      0x20\n      add\n      add\n      mload\n        /* \"contracts/Mail.sol\":1668:1684  emails[i].sender */\n      0x00\n      add\n      mload\n        /* \"contracts/Mail.sol\":1668:1698  emails[i].sender == msg.sender */\n      0xffffffffffffffffffffffffffffffffffffffff\n      and\n      sub\n        /* \"contracts/Mail.sol\":1664:1816  if (emails[i].sender == msg.sender) {... */\n      tag_158\n      jumpi\n        /* \"contracts/Mail.sol\":1753:1759  emails */\n      dup5\n        /* \"contracts/Mail.sol\":1760:1761  i */\n      dup2\n        /* \"contracts/Mail.sol\":1753:1762  emails[i] */\n      dup2\n      mload\n      dup2\n      lt\n      tag_159\n      jumpi\n      tag_160\n      tag_101\n      jump\t// in\n    tag_160:\n    tag_159:\n      0x20\n      mul\n      0x20\n      add\n      add\n      mload\n        /* \"contracts/Mail.sol\":1719:1731  senderEmails */\n      dup4\n        /* \"contracts/Mail.sol\":1732:1749  senderEmailsCount */\n      dup4\n        /* \"contracts/Mail.sol\":1719:1750  senderEmails[senderEmailsCount] */\n      dup2\n      mload\n      dup2\n      lt\n      tag_161\n      jumpi\n      tag_162\n      tag_101\n      jump\t// in\n    tag_162:\n    tag_161:\n      0x20\n      mul\n      0x20\n      add\n      add\n        /* \"contracts/Mail.sol\":1719:1762  senderEmails[senderEmailsCount] = emails[i] */\n      dup2\n      swap1\n      mstore\n      pop\n        /* \"contracts/Mail.sol\":1781:1800  senderEmailsCount++ */\n      dup2\n      dup1\n      tag_163\n      swap1\n      tag_91\n      jump\t// in\n    tag_163:\n      swap3\n      pop\n      pop\n        /* \"contracts/Mail.sol\":1664:1816  if (emails[i].sender == msg.sender) {... */\n    tag_158:\n        /* \"contracts/Mail.sol\":1644:1647  i++ */\n      dup1\n      dup1\n      tag_164\n      swap1\n      tag_91\n      jump\t// in\n    tag_164:\n      swap2\n      pop\n      pop\n        /* \"contracts/Mail.sol\":1613:1827  for (uint256 i = 0; i < count; i++) {... */\n      jump(tag_153)\n    tag_154:\n      pop\n        /* \"contracts/Mail.sol\":1963:1980  senderEmailsCount */\n      dup1\n        /* \"contracts/Mail.sol\":1949:1961  senderEmails */\n      dup3\n        /* \"contracts/Mail.sol\":1942:1981  mstore(senderEmails, senderEmailsCount) */\n      mstore\n        /* \"contracts/Mail.sol\":2011:2023  senderEmails */\n      dup2\n        /* \"contracts/Mail.sol\":2004:2023  return senderEmails */\n      swap5\n      pop\n      pop\n      pop\n      pop\n      pop\n        /* \"contracts/Mail.sol\":1343:2031  function getEmailsReceived() public view returns (Email[] memory) {... */\n      swap1\n      jump\t// out\n        /* \"contracts/Mail.sol\":3856:4316  function deleteEmail(uint256 index) public {... */\n    tag_46:\n        /* \"contracts/Mail.sol\":3926:3931  inbox */\n      0x00\n        /* \"contracts/Mail.sol\":3926:3943  inbox[msg.sender] */\n      dup1\n        /* \"contracts/Mail.sol\":3932:3942  msg.sender */\n      caller\n        /* \"contracts/Mail.sol\":3926:3943  inbox[msg.sender] */\n      0xffffffffffffffffffffffffffffffffffffffff\n      and\n      0xffffffffffffffffffffffffffffffffffffffff\n      and\n      dup2\n      mstore\n      0x20\n      add\n      swap1\n      dup2\n      mstore\n      0x20\n      add\n      0x00\n      keccak256\n        /* \"contracts/Mail.sol\":3926:3950  inbox[msg.sender].length */\n      dup1\n      sload\n      swap1\n      pop\n        /* \"contracts/Mail.sol\":3918:3923  index */\n      dup2\n        /* \"contracts/Mail.sol\":3918:3950  index < inbox[msg.sender].length */\n      lt\n        /* \"contracts/Mail.sol\":3910:3968  require(index < inbox[msg.sender].length, \"Invalid index\") */\n      tag_166\n      jumpi\n      mload(0x40)\n      0x08c379a000000000000000000000000000000000000000000000000000000000\n      dup2\n      mstore\n      0x04\n      add\n      tag_167\n      swap1\n      tag_168\n      jump\t// in\n    tag_167:\n      mload(0x40)\n      dup1\n      swap2\n      sub\n      swap1\n      revert\n    tag_166:\n        /* \"contracts/Mail.sol\":4067:4076  uint256 i */\n      0x00\n        /* \"contracts/Mail.sol\":4079:4084  index */\n      dup2\n        /* \"contracts/Mail.sol\":4067:4084  uint256 i = index */\n      swap1\n      pop\n        /* \"contracts/Mail.sol\":4062:4199  for (uint256 i = index; i < inbox[msg.sender].length - 1; i++) {... */\n    tag_169:\n        /* \"contracts/Mail.sol\":4117:4118  1 */\n      0x01\n        /* \"contracts/Mail.sol\":4090:4095  inbox */\n      0x00\n        /* \"contracts/Mail.sol\":4090:4107  inbox[msg.sender] */\n      dup1\n        /* \"contracts/Mail.sol\":4096:4106  msg.sender */\n      caller\n        /* \"contracts/Mail.sol\":4090:4107  inbox[msg.sender] */\n      0xffffffffffffffffffffffffffffffffffffffff\n      and\n      0xffffffffffffffffffffffffffffffffffffffff\n      and\n      dup2\n      mstore\n      0x20\n      add\n      swap1\n      dup2\n      mstore\n      0x20\n      add\n      0x00\n      keccak256\n        /* \"contracts/Mail.sol\":4090:4114  inbox[msg.sender].length */\n      dup1\n      sload\n      swap1\n      pop\n        /* \"contracts/Mail.sol\":4090:4118  inbox[msg.sender].length - 1 */\n      tag_172\n      swap2\n      swap1\n      tag_173\n      jump\t// in\n    tag_172:\n        /* \"contracts/Mail.sol\":4086:4087  i */\n      dup2\n        /* \"contracts/Mail.sol\":4086:4118  i < inbox[msg.sender].length - 1 */\n      lt\n        /* \"contracts/Mail.sol\":4062:4199  for (uint256 i = index; i < inbox[msg.sender].length - 1; i++) {... */\n      iszero\n      tag_170\n      jumpi\n        /* \"contracts/Mail.sol\":4163:4168  inbox */\n      0x00\n        /* \"contracts/Mail.sol\":4163:4180  inbox[msg.sender] */\n      dup1\n        /* \"contracts/Mail.sol\":4169:4179  msg.sender */\n      caller\n        /* \"contracts/Mail.sol\":4163:4180  inbox[msg.sender] */\n      0xffffffffffffffffffffffffffffffffffffffff\n      and\n      0xffffffffffffffffffffffffffffffffffffffff\n      and\n      dup2\n      mstore\n      0x20\n      add\n      swap1\n      dup2\n      mstore\n      0x20\n      add\n      0x00\n      keccak256\n        /* \"contracts/Mail.sol\":4185:4186  1 */\n      0x01\n        /* \"contracts/Mail.sol\":4181:4182  i */\n      dup3\n        /* \"contracts/Mail.sol\":4181:4186  i + 1 */\n      tag_174\n      swap2\n      swap1\n      tag_175\n      jump\t// in\n    tag_174:\n        /* \"contracts/Mail.sol\":4163:4187  inbox[msg.sender][i + 1] */\n      dup2\n      sload\n      dup2\n      lt\n      tag_176\n      jumpi\n      tag_177\n      tag_101\n      jump\t// in\n    tag_177:\n    tag_176:\n      swap1\n      0x00\n      mstore\n      keccak256(0x00, 0x20)\n      swap1\n      0x05\n      mul\n      add\n        /* \"contracts/Mail.sol\":4140:4145  inbox */\n      0x00\n        /* \"contracts/Mail.sol\":4140:4157  inbox[msg.sender] */\n      dup1\n        /* \"contracts/Mail.sol\":4146:4156  msg.sender */\n      caller\n        /* \"contracts/Mail.sol\":4140:4157  inbox[msg.sender] */\n      0xffffffffffffffffffffffffffffffffffffffff\n      and\n      0xffffffffffffffffffffffffffffffffffffffff\n      and\n      dup2\n      mstore\n      0x20\n      add\n      swap1\n      dup2\n      mstore\n      0x20\n      add\n      0x00\n      keccak256\n        /* \"contracts/Mail.sol\":4158:4159  i */\n      dup3\n        /* \"contracts/Mail.sol\":4140:4160  inbox[msg.sender][i] */\n      dup2\n      sload\n      dup2\n      lt\n      tag_179\n      jumpi\n      tag_180\n      tag_101\n      jump\t// in\n    tag_180:\n    tag_179:\n      swap1\n      0x00\n      mstore\n      keccak256(0x00, 0x20)\n      swap1\n      0x05\n      mul\n      add\n        /* \"contracts/Mail.sol\":4140:4187  inbox[msg.sender][i] = inbox[msg.sender][i + 1] */\n      0x00\n      dup3\n      add\n      0x00\n      swap1\n      sload\n      swap1\n      0x0100\n      exp\n      swap1\n      div\n      0xffffffffffffffffffffffffffffffffffffffff\n      and\n      dup2\n      0x00\n      add\n      exp(0x0100, 0x00)\n      dup2\n      sload\n      dup2\n      0xffffffffffffffffffffffffffffffffffffffff\n      mul\n      not\n      and\n      swap1\n      dup4\n      0xffffffffffffffffffffffffffffffffffffffff\n      and\n      mul\n      or\n      swap1\n      sstore\n      pop\n      0x01\n      dup3\n      add\n      0x00\n      swap1\n      sload\n      swap1\n      0x0100\n      exp\n      swap1\n      div\n      0xffffffffffffffffffffffffffffffffffffffff\n      and\n      dup2\n      0x01\n      add\n      exp(0x0100, 0x00)\n      dup2\n      sload\n      dup2\n      0xffffffffffffffffffffffffffffffffffffffff\n      mul\n      not\n      and\n      swap1\n      dup4\n      0xffffffffffffffffffffffffffffffffffffffff\n      and\n      mul\n      or\n      swap1\n      sstore\n      pop\n      0x02\n      dup3\n      add\n      dup2\n      0x02\n      add\n      swap1\n      dup2\n      tag_182\n      swap2\n      swap1\n      tag_183\n      jump\t// in\n    tag_182:\n      pop\n      0x03\n      dup3\n      add\n      dup2\n      0x03\n      add\n      swap1\n      dup2\n      tag_184\n      swap2\n      swap1\n      tag_183\n      jump\t// in\n    tag_184:\n      pop\n      0x04\n      dup3\n      add\n      sload\n      dup2\n      0x04\n      add\n      sstore\n      swap1\n      pop\n      pop\n        /* \"contracts/Mail.sol\":4120:4123  i++ */\n      dup1\n      dup1\n      tag_185\n      swap1\n      tag_91\n      jump\t// in\n    tag_185:\n      swap2\n      pop\n      pop\n        /* \"contracts/Mail.sol\":4062:4199  for (uint256 i = index; i < inbox[msg.sender].length - 1; i++) {... */\n      jump(tag_169)\n    tag_170:\n      pop\n        /* \"contracts/Mail.sol\":4285:4290  inbox */\n      0x00\n        /* \"contracts/Mail.sol\":4285:4302  inbox[msg.sender] */\n      dup1\n        /* \"contracts/Mail.sol\":4291:4301  msg.sender */\n      caller\n        /* \"contracts/Mail.sol\":4285:4302  inbox[msg.sender] */\n      0xffffffffffffffffffffffffffffffffffffffff\n      and\n      0xffffffffffffffffffffffffffffffffffffffff\n      and\n      dup2\n      mstore\n      0x20\n      add\n      swap1\n      dup2\n      mstore\n      0x20\n      add\n      0x00\n      keccak256\n        /* \"contracts/Mail.sol\":4285:4308  inbox[msg.sender].pop() */\n      dup1\n      sload\n      dup1\n      tag_186\n      jumpi\n      tag_187\n      tag_188\n      jump\t// in\n    tag_187:\n    tag_186:\n      0x01\n      swap1\n      sub\n      dup2\n      dup2\n      swap1\n      0x00\n      mstore\n      keccak256(0x00, 0x20)\n      swap1\n      0x05\n      mul\n      add\n      0x00\n      dup1\n      dup3\n      add\n      exp(0x0100, 0x00)\n      dup2\n      sload\n      swap1\n      0xffffffffffffffffffffffffffffffffffffffff\n      mul\n      not\n      and\n      swap1\n      sstore\n      0x01\n      dup3\n      add\n      exp(0x0100, 0x00)\n      dup2\n      sload\n      swap1\n      0xffffffffffffffffffffffffffffffffffffffff\n      mul\n      not\n      and\n      swap1\n      sstore\n      0x02\n      dup3\n      add\n      0x00\n      tag_190\n      swap2\n      swap1\n      tag_191\n      jump\t// in\n    tag_190:\n      0x03\n      dup3\n      add\n      0x00\n      tag_192\n      swap2\n      swap1\n      tag_191\n      jump\t// in\n    tag_192:\n      0x04\n      dup3\n      add\n      0x00\n      swap1\n      sstore\n      pop\n      pop\n      swap1\n      sstore\n        /* \"contracts/Mail.sol\":3856:4316  function deleteEmail(uint256 index) public {... */\n      pop\n      jump\t// out\n        /* \"contracts/Mail.sol\":2616:3170  function uintToString(uint256 v) internal pure returns (string memory) {... */\n    tag_80:\n        /* \"contracts/Mail.sol\":2672:2685  string memory */\n      0x60\n        /* \"contracts/Mail.sol\":2707:2708  0 */\n      0x00\n        /* \"contracts/Mail.sol\":2702:2703  v */\n      dup3\n        /* \"contracts/Mail.sol\":2702:2708  v == 0 */\n      sub\n        /* \"contracts/Mail.sol\":2698:2720  if (v == 0) return \"0\" */\n      tag_194\n      jumpi\n        /* \"contracts/Mail.sol\":2710:2720  return \"0\" */\n      mload(0x40)\n      dup1\n      0x40\n      add\n      0x40\n      mstore\n      dup1\n      0x01\n      dup2\n      mstore\n      0x20\n      add\n      0x3000000000000000000000000000000000000000000000000000000000000000\n      dup2\n      mstore\n      pop\n      swap1\n      pop\n      jump(tag_193)\n        /* \"contracts/Mail.sol\":2698:2720  if (v == 0) return \"0\" */\n    tag_194:\n        /* \"contracts/Mail.sol\":2731:2740  uint256 j */\n      0x00\n        /* \"contracts/Mail.sol\":2743:2744  v */\n      dup3\n        /* \"contracts/Mail.sol\":2731:2744  uint256 j = v */\n      swap1\n      pop\n        /* \"contracts/Mail.sol\":2755:2769  uint256 length */\n      0x00\n        /* \"contracts/Mail.sol\":2780:2852  while (j != 0) {... */\n    tag_195:\n        /* \"contracts/Mail.sol\":2792:2793  0 */\n      0x00\n        /* \"contracts/Mail.sol\":2787:2788  j */\n      dup3\n        /* \"contracts/Mail.sol\":2787:2793  j != 0 */\n      eq\n        /* \"contracts/Mail.sol\":2780:2852  while (j != 0) {... */\n      tag_196\n      jumpi\n        /* \"contracts/Mail.sol\":2810:2818  length++ */\n      dup1\n      dup1\n      tag_197\n      swap1\n      tag_91\n      jump\t// in\n    tag_197:\n      swap2\n      pop\n      pop\n        /* \"contracts/Mail.sol\":2838:2840  10 */\n      0x0a\n        /* \"contracts/Mail.sol\":2833:2840  j /= 10 */\n      dup3\n      tag_198\n      swap2\n      swap1\n      tag_199\n      jump\t// in\n    tag_198:\n      swap2\n      pop\n        /* \"contracts/Mail.sol\":2780:2852  while (j != 0) {... */\n      jump(tag_195)\n    tag_196:\n        /* \"contracts/Mail.sol\":2862:2879  bytes memory bstr */\n      0x00\n        /* \"contracts/Mail.sol\":2892:2898  length */\n      dup2\n        /* \"contracts/Mail.sol\":2882:2899  new bytes(length) */\n      0xffffffffffffffff\n      dup2\n      gt\n      iszero\n      tag_200\n      jumpi\n      tag_201\n      tag_148\n      jump\t// in\n    tag_201:\n    tag_200:\n      mload(0x40)\n      swap1\n      dup1\n      dup3\n      mstore\n      dup1\n      0x1f\n      add\n      not(0x1f)\n      and\n      0x20\n      add\n      dup3\n      add\n      0x40\n      mstore\n      dup1\n      iszero\n      tag_202\n      jumpi\n      dup2\n      0x20\n      add\n      0x01\n      dup3\n      mul\n      dup1\n      calldatasize\n      dup4\n      calldatacopy\n      dup1\n      dup3\n      add\n      swap2\n      pop\n      pop\n      swap1\n      pop\n    tag_202:\n      pop\n        /* \"contracts/Mail.sol\":2862:2899  bytes memory bstr = new bytes(length) */\n      swap1\n      pop\n        /* \"contracts/Mail.sol\":2910:2919  uint256 k */\n      0x00\n        /* \"contracts/Mail.sol\":2922:2928  length */\n      dup3\n        /* \"contracts/Mail.sol\":2910:2928  uint256 k = length */\n      swap1\n      pop\n        /* \"contracts/Mail.sol\":2939:3133  while (v != 0) {... */\n    tag_203:\n        /* \"contracts/Mail.sol\":2951:2952  0 */\n      0x00\n        /* \"contracts/Mail.sol\":2946:2947  v */\n      dup7\n        /* \"contracts/Mail.sol\":2946:2952  v != 0 */\n      eq\n        /* \"contracts/Mail.sol\":2939:3133  while (v != 0) {... */\n      tag_204\n      jumpi\n        /* \"contracts/Mail.sol\":2975:2976  1 */\n      0x01\n        /* \"contracts/Mail.sol\":2973:2974  k */\n      dup2\n        /* \"contracts/Mail.sol\":2973:2976  k-1 */\n      tag_205\n      swap2\n      swap1\n      tag_173\n      jump\t// in\n    tag_205:\n        /* \"contracts/Mail.sol\":2969:2976  k = k-1 */\n      swap1\n      pop\n        /* \"contracts/Mail.sol\":2991:3001  uint8 temp */\n      0x00\n        /* \"contracts/Mail.sol\":3029:3031  10 */\n      0x0a\n        /* \"contracts/Mail.sol\":3024:3026  10 */\n      dup1\n        /* \"contracts/Mail.sol\":3020:3021  v */\n      dup9\n        /* \"contracts/Mail.sol\":3020:3026  v / 10 */\n      tag_206\n      swap2\n      swap1\n      tag_199\n      jump\t// in\n    tag_206:\n        /* \"contracts/Mail.sol\":3020:3031  v / 10 * 10 */\n      tag_207\n      swap2\n      swap1\n      tag_208\n      jump\t// in\n    tag_207:\n        /* \"contracts/Mail.sol\":3016:3017  v */\n      dup8\n        /* \"contracts/Mail.sol\":3016:3031  v - v / 10 * 10 */\n      tag_209\n      swap2\n      swap1\n      tag_173\n      jump\t// in\n    tag_209:\n        /* \"contracts/Mail.sol\":3005:3007  48 */\n      0x30\n        /* \"contracts/Mail.sol\":3005:3032  48 + uint8(v - v / 10 * 10) */\n      tag_210\n      swap2\n      swap1\n      tag_211\n      jump\t// in\n    tag_210:\n        /* \"contracts/Mail.sol\":2991:3033  uint8 temp = (48 + uint8(v - v / 10 * 10)) */\n      swap1\n      pop\n        /* \"contracts/Mail.sol\":3048:3057  bytes1 b1 */\n      0x00\n        /* \"contracts/Mail.sol\":3067:3071  temp */\n      dup2\n        /* \"contracts/Mail.sol\":3060:3072  bytes1(temp) */\n      0xf8\n      shl\n        /* \"contracts/Mail.sol\":3048:3072  bytes1 b1 = bytes1(temp) */\n      swap1\n      pop\n        /* \"contracts/Mail.sol\":3097:3099  b1 */\n      dup1\n        /* \"contracts/Mail.sol\":3087:3091  bstr */\n      dup5\n        /* \"contracts/Mail.sol\":3092:3093  k */\n      dup5\n        /* \"contracts/Mail.sol\":3087:3094  bstr[k] */\n      dup2\n      mload\n      dup2\n      lt\n      tag_212\n      jumpi\n      tag_213\n      tag_101\n      jump\t// in\n    tag_213:\n    tag_212:\n      0x20\n      add\n      add\n        /* \"contracts/Mail.sol\":3087:3099  bstr[k] = b1 */\n      swap1\n      not(0xffffffffffffffffffffffffffffffffffffffffffffffffffffffffffffff)\n      and\n      swap1\n      dup2\n      0x00\n      byte\n      swap1\n      mstore8\n      pop\n        /* \"contracts/Mail.sol\":3119:3121  10 */\n      0x0a\n        /* \"contracts/Mail.sol\":3114:3121  v /= 10 */\n      dup9\n      tag_214\n      swap2\n      swap1\n      tag_199\n      jump\t// in\n    tag_214:\n      swap8\n      pop\n        /* \"contracts/Mail.sol\":2954:3133  {... */\n      pop\n      pop\n        /* \"contracts/Mail.sol\":2939:3133  while (v != 0) {... */\n      jump(tag_203)\n    tag_204:\n        /* \"contracts/Mail.sol\":3157:3161  bstr */\n      dup2\n        /* \"contracts/Mail.sol\":3143:3162  return string(bstr) */\n      swap5\n      pop\n      pop\n      pop\n      pop\n      pop\n        /* \"contracts/Mail.sol\":2616:3170  function uintToString(uint256 v) internal pure returns (string memory) {... */\n    tag_193:\n      swap2\n      swap1\n      pop\n      jump\t// out\n    tag_152:\n      mload(0x40)\n      dup1\n      0xa0\n      add\n      0x40\n      mstore\n      dup1\n      and(0xffffffffffffffffffffffffffffffffffffffff, 0x00)\n      dup2\n      mstore\n      0x20\n      add\n      and(0xffffffffffffffffffffffffffffffffffffffff, 0x00)\n      dup2\n      mstore\n      0x20\n      add\n      0x60\n      dup2\n      mstore\n      0x20\n      add\n      0x60\n      dup2\n      mstore\n      0x20\n      add\n      0x00\n      dup2\n      mstore\n      pop\n      swap1\n      jump\t// out\n    tag_191:\n      pop\n      dup1\n      sload\n      tag_215\n      swap1\n      tag_50\n      jump\t// in\n    tag_215:\n      0x00\n      dup3\n      sstore\n      dup1\n      0x1f\n      lt\n      tag_217\n      jumpi\n      pop\n      jump(tag_216)\n    tag_217:\n      0x1f\n      add\n      0x20\n      swap1\n      div\n      swap1\n      0x00\n      mstore\n      keccak256(0x00, 0x20)\n      swap1\n      dup2\n      add\n      swap1\n      tag_218\n      swap2\n      swap1\n      tag_219\n      jump\t// in\n    tag_218:\n    tag_216:\n      pop\n      jump\t// out\n    tag_219:\n    tag_220:\n      dup1\n      dup3\n      gt\n      iszero\n      tag_221\n      jumpi\n      0x00\n      dup2\n      0x00\n      swap1\n      sstore\n      pop\n      0x01\n      add\n      jump(tag_220)\n    tag_221:\n      pop\n      swap1\n      jump\t// out\n        /* \"#utility.yul\":7:82   */\n    tag_222:\n        /* \"#utility.yul\":40:46   */\n      0x00\n        /* \"#utility.yul\":73:75   */\n      0x40\n        /* \"#utility.yul\":67:76   */\n      mload\n        /* \"#utility.yul\":57:76   */\n      swap1\n      pop\n        /* \"#utility.yul\":7:82   */\n      swap1\n      jump\t// out\n        /* \"#utility.yul\":88:205   */\n    tag_223:\n        /* \"#utility.yul\":197:198   */\n      0x00\n        /* \"#utility.yul\":194:195   */\n      dup1\n        /* \"#utility.yul\":187:199   */\n      revert\n        /* \"#utility.yul\":211:328   */\n    tag_224:\n        /* \"#utility.yul\":320:321   */\n      0x00\n        /* \"#utility.yul\":317:318   */\n      dup1\n        /* \"#utility.yul\":310:322   */\n      revert\n        /* \"#utility.yul\":334:460   */\n    tag_225:\n        /* \"#utility.yul\":371:378   */\n      0x00\n        /* \"#utility.yul\":411:453   */\n      0xffffffffffffffffffffffffffffffffffffffff\n        /* \"#utility.yul\":404:409   */\n      dup3\n        /* \"#utility.yul\":400:454   */\n      and\n        /* \"#utility.yul\":389:454   */\n      swap1\n      pop\n        /* \"#utility.yul\":334:460   */\n      swap2\n      swap1\n      pop\n      jump\t// out\n        /* \"#utility.yul\":466:562   */\n    tag_226:\n        /* \"#utility.yul\":503:510   */\n      0x00\n        /* \"#utility.yul\":532:556   */\n      tag_300\n        /* \"#utility.yul\":550:555   */\n      dup3\n        /* \"#utility.yul\":532:556   */\n      tag_225\n      jump\t// in\n    tag_300:\n        /* \"#utility.yul\":521:556   */\n      swap1\n      pop\n        /* \"#utility.yul\":466:562   */\n      swap2\n      swap1\n      pop\n      jump\t// out\n        /* \"#utility.yul\":568:690   */\n    tag_227:\n        /* \"#utility.yul\":641:665   */\n      tag_302\n        /* \"#utility.yul\":659:664   */\n      dup2\n        /* \"#utility.yul\":641:665   */\n      tag_226\n      jump\t// in\n    tag_302:\n        /* \"#utility.yul\":634:639   */\n      dup2\n        /* \"#utility.yul\":631:666   */\n      eq\n        /* \"#utility.yul\":621:684   */\n      tag_303\n      jumpi\n        /* \"#utility.yul\":680:681   */\n      0x00\n        /* \"#utility.yul\":677:678   */\n      dup1\n        /* \"#utility.yul\":670:682   */\n      revert\n        /* \"#utility.yul\":621:684   */\n    tag_303:\n        /* \"#utility.yul\":568:690   */\n      pop\n      jump\t// out\n        /* \"#utility.yul\":696:835   */\n    tag_228:\n        /* \"#utility.yul\":742:747   */\n      0x00\n        /* \"#utility.yul\":780:786   */\n      dup2\n        /* \"#utility.yul\":767:787   */\n      calldataload\n        /* \"#utility.yul\":758:787   */\n      swap1\n      pop\n        /* \"#utility.yul\":796:829   */\n      tag_305\n        /* \"#utility.yul\":823:828   */\n      dup2\n        /* \"#utility.yul\":796:829   */\n      tag_227\n      jump\t// in\n    tag_305:\n        /* \"#utility.yul\":696:835   */\n      swap3\n      swap2\n      pop\n      pop\n      jump\t// out\n        /* \"#utility.yul\":841:918   */\n    tag_229:\n        /* \"#utility.yul\":878:885   */\n      0x00\n        /* \"#utility.yul\":907:912   */\n      dup2\n        /* \"#utility.yul\":896:912   */\n      swap1\n      pop\n        /* \"#utility.yul\":841:918   */\n      swap2\n      swap1\n      pop\n      jump\t// out\n        /* \"#utility.yul\":924:1046   */\n    tag_230:\n        /* \"#utility.yul\":997:1021   */\n      tag_308\n        /* \"#utility.yul\":1015:1020   */\n      dup2\n        /* \"#utility.yul\":997:1021   */\n      tag_229\n      jump\t// in\n    tag_308:\n        /* \"#utility.yul\":990:995   */\n      dup2\n        /* \"#utility.yul\":987:1022   */\n      eq\n        /* \"#utility.yul\":977:1040   */\n      tag_309\n      jumpi\n        /* \"#utility.yul\":1036:1037   */\n      0x00\n        /* \"#utility.yul\":1033:1034   */\n      dup1\n        /* \"#utility.yul\":1026:1038   */\n      revert\n        /* \"#utility.yul\":977:1040   */\n    tag_309:\n        /* \"#utility.yul\":924:1046   */\n      pop\n      jump\t// out\n        /* \"#utility.yul\":1052:1191   */\n    tag_231:\n        /* \"#utility.yul\":1098:1103   */\n      0x00\n        /* \"#utility.yul\":1136:1142   */\n      dup2\n        /* \"#utility.yul\":1123:1143   */\n      calldataload\n        /* \"#utility.yul\":1114:1143   */\n      swap1\n      pop\n        /* \"#utility.yul\":1152:1185   */\n      tag_311\n        /* \"#utility.yul\":1179:1184   */\n      dup2\n        /* \"#utility.yul\":1152:1185   */\n      tag_230\n      jump\t// in\n    tag_311:\n        /* \"#utility.yul\":1052:1191   */\n      swap3\n      swap2\n      pop\n      pop\n      jump\t// out\n        /* \"#utility.yul\":1197:1671   */\n    tag_14:\n        /* \"#utility.yul\":1265:1271   */\n      0x00\n        /* \"#utility.yul\":1273:1279   */\n      dup1\n        /* \"#utility.yul\":1322:1324   */\n      0x40\n        /* \"#utility.yul\":1310:1319   */\n      dup4\n        /* \"#utility.yul\":1301:1308   */\n      dup6\n        /* \"#utility.yul\":1297:1320   */\n      sub\n        /* \"#utility.yul\":1293:1325   */\n      slt\n        /* \"#utility.yul\":1290:1409   */\n      iszero\n      tag_313\n      jumpi\n        /* \"#utility.yul\":1328:1407   */\n      tag_314\n      tag_223\n      jump\t// in\n    tag_314:\n        /* \"#utility.yul\":1290:1409   */\n    tag_313:\n        /* \"#utility.yul\":1448:1449   */\n      0x00\n        /* \"#utility.yul\":1473:1526   */\n      tag_315\n        /* \"#utility.yul\":1518:1525   */\n      dup6\n        /* \"#utility.yul\":1509:1515   */\n      dup3\n        /* \"#utility.yul\":1498:1507   */\n      dup7\n        /* \"#utility.yul\":1494:1516   */\n      add\n        /* \"#utility.yul\":1473:1526   */\n      tag_228\n      jump\t// in\n    tag_315:\n        /* \"#utility.yul\":1463:1526   */\n      swap3\n      pop\n        /* \"#utility.yul\":1419:1536   */\n      pop\n        /* \"#utility.yul\":1575:1577   */\n      0x20\n        /* \"#utility.yul\":1601:1654   */\n      tag_316\n        /* \"#utility.yul\":1646:1653   */\n      dup6\n        /* \"#utility.yul\":1637:1643   */\n      dup3\n        /* \"#utility.yul\":1626:1635   */\n      dup7\n        /* \"#utility.yul\":1622:1644   */\n      add\n        /* \"#utility.yul\":1601:1654   */\n      tag_231\n      jump\t// in\n    tag_316:\n        /* \"#utility.yul\":1591:1654   */\n      swap2\n      pop\n        /* \"#utility.yul\":1546:1664   */\n      pop\n        /* \"#utility.yul\":1197:1671   */\n      swap3\n      pop\n      swap3\n      swap1\n      pop\n      jump\t// out\n        /* \"#utility.yul\":1677:1795   */\n    tag_232:\n        /* \"#utility.yul\":1764:1788   */\n      tag_318\n        /* \"#utility.yul\":1782:1787   */\n      dup2\n        /* \"#utility.yul\":1764:1788   */\n      tag_226\n      jump\t// in\n    tag_318:\n        /* \"#utility.yul\":1759:1762   */\n      dup3\n        /* \"#utility.yul\":1752:1789   */\n      mstore\n        /* \"#utility.yul\":1677:1795   */\n      pop\n      pop\n      jump\t// out\n        /* \"#utility.yul\":1801:1900   */\n    tag_233:\n        /* \"#utility.yul\":1853:1859   */\n      0x00\n        /* \"#utility.yul\":1887:1892   */\n      dup2\n        /* \"#utility.yul\":1881:1893   */\n      mload\n        /* \"#utility.yul\":1871:1893   */\n      swap1\n      pop\n        /* \"#utility.yul\":1801:1900   */\n      swap2\n      swap1\n      pop\n      jump\t// out\n        /* \"#utility.yul\":1906:2075   */\n    tag_234:\n        /* \"#utility.yul\":1990:2001   */\n      0x00\n        /* \"#utility.yul\":2024:2030   */\n      dup3\n        /* \"#utility.yul\":2019:2022   */\n      dup3\n        /* \"#utility.yul\":2012:2031   */\n      mstore\n        /* \"#utility.yul\":2064:2068   */\n      0x20\n        /* \"#utility.yul\":2059:2062   */\n      dup3\n        /* \"#utility.yul\":2055:2069   */\n      add\n        /* \"#utility.yul\":2040:2069   */\n      swap1\n      pop\n        /* \"#utility.yul\":1906:2075   */\n      swap3\n      swap2\n      pop\n      pop\n      jump\t// out\n        /* \"#utility.yul\":2081:2327   */\n    tag_235:\n        /* \"#utility.yul\":2162:2163   */\n      0x00\n        /* \"#utility.yul\":2172:2285   */\n    tag_322:\n        /* \"#utility.yul\":2186:2192   */\n      dup4\n        /* \"#utility.yul\":2183:2184   */\n      dup2\n        /* \"#utility.yul\":2180:2193   */\n      lt\n        /* \"#utility.yul\":2172:2285   */\n      iszero\n      tag_324\n      jumpi\n        /* \"#utility.yul\":2271:2272   */\n      dup1\n        /* \"#utility.yul\":2266:2269   */\n      dup3\n        /* \"#utility.yul\":2262:2273   */\n      add\n        /* \"#utility.yul\":2256:2274   */\n      mload\n        /* \"#utility.yul\":2252:2253   */\n      dup2\n        /* \"#utility.yul\":2247:2250   */\n      dup5\n        /* \"#utility.yul\":2243:2254   */\n      add\n        /* \"#utility.yul\":2236:2275   */\n      mstore\n        /* \"#utility.yul\":2208:2210   */\n      0x20\n        /* \"#utility.yul\":2205:2206   */\n      dup2\n        /* \"#utility.yul\":2201:2211   */\n      add\n        /* \"#utility.yul\":2196:2211   */\n      swap1\n      pop\n        /* \"#utility.yul\":2172:2285   */\n      jump(tag_322)\n    tag_324:\n        /* \"#utility.yul\":2319:2320   */\n      0x00\n        /* \"#utility.yul\":2310:2316   */\n      dup5\n        /* \"#utility.yul\":2305:2308   */\n      dup5\n        /* \"#utility.yul\":2301:2317   */\n      add\n        /* \"#utility.yul\":2294:2321   */\n      mstore\n        /* \"#utility.yul\":2143:2327   */\n      pop\n        /* \"#utility.yul\":2081:2327   */\n      pop\n      pop\n      pop\n      jump\t// out\n        /* \"#utility.yul\":2333:2435   */\n    tag_236:\n        /* \"#utility.yul\":2374:2380   */\n      0x00\n        /* \"#utility.yul\":2425:2427   */\n      0x1f\n        /* \"#utility.yul\":2421:2428   */\n      not\n        /* \"#utility.yul\":2416:2418   */\n      0x1f\n        /* \"#utility.yul\":2409:2414   */\n      dup4\n        /* \"#utility.yul\":2405:2419   */\n      add\n        /* \"#utility.yul\":2401:2429   */\n      and\n        /* \"#utility.yul\":2391:2429   */\n      swap1\n      pop\n        /* \"#utility.yul\":2333:2435   */\n      swap2\n      swap1\n      pop\n      jump\t// out\n        /* \"#utility.yul\":2441:2818   */\n    tag_237:\n        /* \"#utility.yul\":2529:2532   */\n      0x00\n        /* \"#utility.yul\":2557:2596   */\n      tag_327\n        /* \"#utility.yul\":2590:2595   */\n      dup3\n        /* \"#utility.yul\":2557:2596   */\n      tag_233\n      jump\t// in\n    tag_327:\n        /* \"#utility.yul\":2612:2683   */\n      tag_328\n        /* \"#utility.yul\":2676:2682   */\n      dup2\n        /* \"#utility.yul\":2671:2674   */\n      dup6\n        /* \"#utility.yul\":2612:2683   */\n      tag_234\n      jump\t// in\n    tag_328:\n        /* \"#utility.yul\":2605:2683   */\n      swap4\n      pop\n        /* \"#utility.yul\":2692:2757   */\n      tag_329\n        /* \"#utility.yul\":2750:2756   */\n      dup2\n        /* \"#utility.yul\":2745:2748   */\n      dup6\n        /* \"#utility.yul\":2738:2742   */\n      0x20\n        /* \"#utility.yul\":2731:2736   */\n      dup7\n        /* \"#utility.yul\":2727:2743   */\n      add\n        /* \"#utility.yul\":2692:2757   */\n      tag_235\n      jump\t// in\n    tag_329:\n        /* \"#utility.yul\":2782:2811   */\n      tag_330\n        /* \"#utility.yul\":2804:2810   */\n      dup2\n        /* \"#utility.yul\":2782:2811   */\n      tag_236\n      jump\t// in\n    tag_330:\n        /* \"#utility.yul\":2777:2780   */\n      dup5\n        /* \"#utility.yul\":2773:2812   */\n      add\n        /* \"#utility.yul\":2766:2812   */\n      swap2\n      pop\n        /* \"#utility.yul\":2533:2818   */\n      pop\n        /* \"#utility.yul\":2441:2818   */\n      swap3\n      swap2\n      pop\n      pop\n      jump\t// out\n        /* \"#utility.yul\":2824:2942   */\n    tag_238:\n        /* \"#utility.yul\":2911:2935   */\n      tag_332\n        /* \"#utility.yul\":2929:2934   */\n      dup2\n        /* \"#utility.yul\":2911:2935   */\n      tag_229\n      jump\t// in\n    tag_332:\n        /* \"#utility.yul\":2906:2909   */\n      dup3\n        /* \"#utility.yul\":2899:2936   */\n      mstore\n        /* \"#utility.yul\":2824:2942   */\n      pop\n      pop\n      jump\t// out\n        /* \"#utility.yul\":2948:3794   */\n    tag_17:\n        /* \"#utility.yul\":3193:3197   */\n      0x00\n        /* \"#utility.yul\":3231:3234   */\n      0xa0\n        /* \"#utility.yul\":3220:3229   */\n      dup3\n        /* \"#utility.yul\":3216:3235   */\n      add\n        /* \"#utility.yul\":3208:3235   */\n      swap1\n      pop\n        /* \"#utility.yul\":3245:3316   */\n      tag_334\n        /* \"#utility.yul\":3313:3314   */\n      0x00\n        /* \"#utility.yul\":3302:3311   */\n      dup4\n        /* \"#utility.yul\":3298:3315   */\n      add\n        /* \"#utility.yul\":3289:3295   */\n      dup9\n        /* \"#utility.yul\":3245:3316   */\n      tag_232\n      jump\t// in\n    tag_334:\n        /* \"#utility.yul\":3326:3398   */\n      tag_335\n        /* \"#utility.yul\":3394:3396   */\n      0x20\n        /* \"#utility.yul\":3383:3392   */\n      dup4\n        /* \"#utility.yul\":3379:3397   */\n      add\n        /* \"#utility.yul\":3370:3376   */\n      dup8\n        /* \"#utility.yul\":3326:3398   */\n      tag_232\n      jump\t// in\n    tag_335:\n        /* \"#utility.yul\":3445:3454   */\n      dup2\n        /* \"#utility.yul\":3439:3443   */\n      dup2\n        /* \"#utility.yul\":3435:3455   */\n      sub\n        /* \"#utility.yul\":3430:3432   */\n      0x40\n        /* \"#utility.yul\":3419:3428   */\n      dup4\n        /* \"#utility.yul\":3415:3433   */\n      add\n        /* \"#utility.yul\":3408:3456   */\n      mstore\n        /* \"#utility.yul\":3473:3551   */\n      tag_336\n        /* \"#utility.yul\":3546:3550   */\n      dup2\n        /* \"#utility.yul\":3537:3543   */\n      dup7\n        /* \"#utility.yul\":3473:3551   */\n      tag_237\n      jump\t// in\n    tag_336:\n        /* \"#utility.yul\":3465:3551   */\n      swap1\n      pop\n        /* \"#utility.yul\":3598:3607   */\n      dup2\n        /* \"#utility.yul\":3592:3596   */\n      dup2\n        /* \"#utility.yul\":3588:3608   */\n      sub\n        /* \"#utility.yul\":3583:3585   */\n      0x60\n        /* \"#utility.yul\":3572:3581   */\n      dup4\n        /* \"#utility.yul\":3568:3586   */\n      add\n        /* \"#utility.yul\":3561:3609   */\n      mstore\n        /* \"#utility.yul\":3626:3704   */\n      tag_337\n        /* \"#utility.yul\":3699:3703   */\n      dup2\n        /* \"#utility.yul\":3690:3696   */\n      dup6\n        /* \"#utility.yul\":3626:3704   */\n      tag_237\n      jump\t// in\n    tag_337:\n        /* \"#utility.yul\":3618:3704   */\n      swap1\n      pop\n        /* \"#utility.yul\":3714:3787   */\n      tag_338\n        /* \"#utility.yul\":3782:3785   */\n      0x80\n        /* \"#utility.yul\":3771:3780   */\n      dup4\n        /* \"#utility.yul\":3767:3786   */\n      add\n        /* \"#utility.yul\":3758:3764   */\n      dup5\n        /* \"#utility.yul\":3714:3787   */\n      tag_238\n      jump\t// in\n    tag_338:\n        /* \"#utility.yul\":2948:3794   */\n      swap7\n      swap6\n      pop\n      pop\n      pop\n      pop\n      pop\n      pop\n      jump\t// out\n        /* \"#utility.yul\":3800:3917   */\n    tag_239:\n        /* \"#utility.yul\":3909:3910   */\n      0x00\n        /* \"#utility.yul\":3906:3907   */\n      dup1\n        /* \"#utility.yul\":3899:3911   */\n      revert\n        /* \"#utility.yul\":3923:4040   */\n    tag_240:\n        /* \"#utility.yul\":4032:4033   */\n      0x00\n        /* \"#utility.yul\":4029:4030   */\n      dup1\n        /* \"#utility.yul\":4022:4034   */\n      revert\n        /* \"#utility.yul\":4046:4226   */\n    tag_148:\n        /* \"#utility.yul\":4094:4171   */\n      0x4e487b7100000000000000000000000000000000000000000000000000000000\n        /* \"#utility.yul\":4091:4092   */\n      0x00\n        /* \"#utility.yul\":4084:4172   */\n      mstore\n        /* \"#utility.yul\":4191:4195   */\n      0x41\n        /* \"#utility.yul\":4188:4189   */\n      0x04\n        /* \"#utility.yul\":4181:4196   */\n      mstore\n        /* \"#utility.yul\":4215:4219   */\n      0x24\n        /* \"#utility.yul\":4212:4213   */\n      0x00\n        /* \"#utility.yul\":4205:4220   */\n      revert\n        /* \"#utility.yul\":4232:4513   */\n    tag_241:\n        /* \"#utility.yul\":4315:4342   */\n      tag_343\n        /* \"#utility.yul\":4337:4341   */\n      dup3\n        /* \"#utility.yul\":4315:4342   */\n      tag_236\n      jump\t// in\n    tag_343:\n        /* \"#utility.yul\":4307:4313   */\n      dup2\n        /* \"#utility.yul\":4303:4343   */\n      add\n        /* \"#utility.yul\":4445:4451   */\n      dup2\n        /* \"#utility.yul\":4433:4443   */\n      dup2\n        /* \"#utility.yul\":4430:4452   */\n      lt\n        /* \"#utility.yul\":4409:4427   */\n      0xffffffffffffffff\n        /* \"#utility.yul\":4397:4407   */\n      dup3\n        /* \"#utility.yul\":4394:4428   */\n      gt\n        /* \"#utility.yul\":4391:4453   */\n      or\n        /* \"#utility.yul\":4388:4476   */\n      iszero\n      tag_344\n      jumpi\n        /* \"#utility.yul\":4456:4474   */\n      tag_345\n      tag_148\n      jump\t// in\n    tag_345:\n        /* \"#utility.yul\":4388:4476   */\n    tag_344:\n        /* \"#utility.yul\":4496:4506   */\n      dup1\n        /* \"#utility.yul\":4492:4494   */\n      0x40\n        /* \"#utility.yul\":4485:4507   */\n      mstore\n        /* \"#utility.yul\":4275:4513   */\n      pop\n        /* \"#utility.yul\":4232:4513   */\n      pop\n      pop\n      jump\t// out\n        /* \"#utility.yul\":4519:4648   */\n    tag_242:\n        /* \"#utility.yul\":4553:4559   */\n      0x00\n        /* \"#utility.yul\":4580:4600   */\n      tag_347\n      tag_222\n      jump\t// in\n    tag_347:\n        /* \"#utility.yul\":4570:4600   */\n      swap1\n      pop\n        /* \"#utility.yul\":4609:4642   */\n      tag_348\n        /* \"#utility.yul\":4637:4641   */\n      dup3\n        /* \"#utility.yul\":4629:4635   */\n      dup3\n        /* \"#utility.yul\":4609:4642   */\n      tag_241\n      jump\t// in\n    tag_348:\n        /* \"#utility.yul\":4519:4648   */\n      swap2\n      swap1\n      pop\n      jump\t// out\n        /* \"#utility.yul\":4654:4962   */\n    tag_243:\n        /* \"#utility.yul\":4716:4720   */\n      0x00\n        /* \"#utility.yul\":4806:4824   */\n      0xffffffffffffffff\n        /* \"#utility.yul\":4798:4804   */\n      dup3\n        /* \"#utility.yul\":4795:4825   */\n      gt\n        /* \"#utility.yul\":4792:4848   */\n      iszero\n      tag_350\n      jumpi\n        /* \"#utility.yul\":4828:4846   */\n      tag_351\n      tag_148\n      jump\t// in\n    tag_351:\n        /* \"#utility.yul\":4792:4848   */\n    tag_350:\n        /* \"#utility.yul\":4866:4895   */\n      tag_352\n        /* \"#utility.yul\":4888:4894   */\n      dup3\n        /* \"#utility.yul\":4866:4895   */\n      tag_236\n      jump\t// in\n    tag_352:\n        /* \"#utility.yul\":4858:4895   */\n      swap1\n      pop\n        /* \"#utility.yul\":4950:4954   */\n      0x20\n        /* \"#utility.yul\":4944:4948   */\n      dup2\n        /* \"#utility.yul\":4940:4955   */\n      add\n        /* \"#utility.yul\":4932:4955   */\n      swap1\n      pop\n        /* \"#utility.yul\":4654:4962   */\n      swap2\n      swap1\n      pop\n      jump\t// out\n        /* \"#utility.yul\":4968:5114   */\n    tag_244:\n        /* \"#utility.yul\":5065:5071   */\n      dup3\n        /* \"#utility.yul\":5060:5063   */\n      dup2\n        /* \"#utility.yul\":5055:5058   */\n      dup4\n        /* \"#utility.yul\":5042:5072   */\n      calldatacopy\n        /* \"#utility.yul\":5106:5107   */\n      0x00\n        /* \"#utility.yul\":5097:5103   */\n      dup4\n        /* \"#utility.yul\":5092:5095   */\n      dup4\n        /* \"#utility.yul\":5088:5104   */\n      add\n        /* \"#utility.yul\":5081:5108   */\n      mstore\n        /* \"#utility.yul\":4968:5114   */\n      pop\n      pop\n      pop\n      jump\t// out\n        /* \"#utility.yul\":5120:5545   */\n    tag_245:\n        /* \"#utility.yul\":5198:5203   */\n      0x00\n        /* \"#utility.yul\":5223:5289   */\n      tag_355\n        /* \"#utility.yul\":5239:5288   */\n      tag_356\n        /* \"#utility.yul\":5281:5287   */\n      dup5\n        /* \"#utility.yul\":5239:5288   */\n      tag_243\n      jump\t// in\n    tag_356:\n        /* \"#utility.yul\":5223:5289   */\n      tag_242\n      jump\t// in\n    tag_355:\n        /* \"#utility.yul\":5214:5289   */\n      swap1\n      pop\n        /* \"#utility.yul\":5312:5318   */\n      dup3\n        /* \"#utility.yul\":5305:5310   */\n      dup2\n        /* \"#utility.yul\":5298:5319   */\n      mstore\n        /* \"#utility.yul\":5350:5354   */\n      0x20\n        /* \"#utility.yul\":5343:5348   */\n      dup2\n        /* \"#utility.yul\":5339:5355   */\n      add\n        /* \"#utility.yul\":5388:5391   */\n      dup5\n        /* \"#utility.yul\":5379:5385   */\n      dup5\n        /* \"#utility.yul\":5374:5377   */\n      dup5\n        /* \"#utility.yul\":5370:5386   */\n      add\n        /* \"#utility.yul\":5367:5392   */\n      gt\n        /* \"#utility.yul\":5364:5476   */\n      iszero\n      tag_357\n      jumpi\n        /* \"#utility.yul\":5395:5474   */\n      tag_358\n      tag_240\n      jump\t// in\n    tag_358:\n        /* \"#utility.yul\":5364:5476   */\n    tag_357:\n        /* \"#utility.yul\":5485:5539   */\n      tag_359\n        /* \"#utility.yul\":5532:5538   */\n      dup5\n        /* \"#utility.yul\":5527:5530   */\n      dup3\n        /* \"#utility.yul\":5522:5525   */\n      dup6\n        /* \"#utility.yul\":5485:5539   */\n      tag_244\n      jump\t// in\n    tag_359:\n        /* \"#utility.yul\":5204:5545   */\n      pop\n        /* \"#utility.yul\":5120:5545   */\n      swap4\n      swap3\n      pop\n      pop\n      pop\n      jump\t// out\n        /* \"#utility.yul\":5565:5905   */\n    tag_246:\n        /* \"#utility.yul\":5621:5626   */\n      0x00\n        /* \"#utility.yul\":5670:5673   */\n      dup3\n        /* \"#utility.yul\":5663:5667   */\n      0x1f\n        /* \"#utility.yul\":5655:5661   */\n      dup4\n        /* \"#utility.yul\":5651:5668   */\n      add\n        /* \"#utility.yul\":5647:5674   */\n      slt\n        /* \"#utility.yul\":5637:5759   */\n      tag_361\n      jumpi\n        /* \"#utility.yul\":5678:5757   */\n      tag_362\n      tag_239\n      jump\t// in\n    tag_362:\n        /* \"#utility.yul\":5637:5759   */\n    tag_361:\n        /* \"#utility.yul\":5795:5801   */\n      dup2\n        /* \"#utility.yul\":5782:5802   */\n      calldataload\n        /* \"#utility.yul\":5820:5899   */\n      tag_363\n        /* \"#utility.yul\":5895:5898   */\n      dup5\n        /* \"#utility.yul\":5887:5893   */\n      dup3\n        /* \"#utility.yul\":5880:5884   */\n      0x20\n        /* \"#utility.yul\":5872:5878   */\n      dup7\n        /* \"#utility.yul\":5868:5885   */\n      add\n        /* \"#utility.yul\":5820:5899   */\n      tag_245\n      jump\t// in\n    tag_363:\n        /* \"#utility.yul\":5811:5899   */\n      swap2\n      pop\n        /* \"#utility.yul\":5627:5905   */\n      pop\n        /* \"#utility.yul\":5565:5905   */\n      swap3\n      swap2\n      pop\n      pop\n      jump\t// out\n        /* \"#utility.yul\":5911:6745   */\n    tag_27:\n        /* \"#utility.yul\":5999:6005   */\n      0x00\n        /* \"#utility.yul\":6007:6013   */\n      dup1\n        /* \"#utility.yul\":6056:6058   */\n      0x40\n        /* \"#utility.yul\":6044:6053   */\n      dup4\n        /* \"#utility.yul\":6035:6042   */\n      dup6\n        /* \"#utility.yul\":6031:6054   */\n      sub\n        /* \"#utility.yul\":6027:6059   */\n      slt\n        /* \"#utility.yul\":6024:6143   */\n      iszero\n      tag_365\n      jumpi\n        /* \"#utility.yul\":6062:6141   */\n      tag_366\n      tag_223\n      jump\t// in\n    tag_366:\n        /* \"#utility.yul\":6024:6143   */\n    tag_365:\n        /* \"#utility.yul\":6210:6211   */\n      0x00\n        /* \"#utility.yul\":6199:6208   */\n      dup4\n        /* \"#utility.yul\":6195:6212   */\n      add\n        /* \"#utility.yul\":6182:6213   */\n      calldataload\n        /* \"#utility.yul\":6240:6258   */\n      0xffffffffffffffff\n        /* \"#utility.yul\":6232:6238   */\n      dup2\n        /* \"#utility.yul\":6229:6259   */\n      gt\n        /* \"#utility.yul\":6226:6343   */\n      iszero\n      tag_367\n      jumpi\n        /* \"#utility.yul\":6262:6341   */\n      tag_368\n      tag_224\n      jump\t// in\n    tag_368:\n        /* \"#utility.yul\":6226:6343   */\n    tag_367:\n        /* \"#utility.yul\":6367:6430   */\n      tag_369\n        /* \"#utility.yul\":6422:6429   */\n      dup6\n        /* \"#utility.yul\":6413:6419   */\n      dup3\n        /* \"#utility.yul\":6402:6411   */\n      dup7\n        /* \"#utility.yul\":6398:6420   */\n      add\n        /* \"#utility.yul\":6367:6430   */\n      tag_246\n      jump\t// in\n    tag_369:\n        /* \"#utility.yul\":6357:6430   */\n      swap3\n      pop\n        /* \"#utility.yul\":6153:6440   */\n      pop\n        /* \"#utility.yul\":6507:6509   */\n      0x20\n        /* \"#utility.yul\":6496:6505   */\n      dup4\n        /* \"#utility.yul\":6492:6510   */\n      add\n        /* \"#utility.yul\":6479:6511   */\n      calldataload\n        /* \"#utility.yul\":6538:6556   */\n      0xffffffffffffffff\n        /* \"#utility.yul\":6530:6536   */\n      dup2\n        /* \"#utility.yul\":6527:6557   */\n      gt\n        /* \"#utility.yul\":6524:6641   */\n      iszero\n      tag_370\n      jumpi\n        /* \"#utility.yul\":6560:6639   */\n      tag_371\n      tag_224\n      jump\t// in\n    tag_371:\n        /* \"#utility.yul\":6524:6641   */\n    tag_370:\n        /* \"#utility.yul\":6665:6728   */\n      tag_372\n        /* \"#utility.yul\":6720:6727   */\n      dup6\n        /* \"#utility.yul\":6711:6717   */\n      dup3\n        /* \"#utility.yul\":6700:6709   */\n      dup7\n        /* \"#utility.yul\":6696:6718   */\n      add\n        /* \"#utility.yul\":6665:6728   */\n      tag_246\n      jump\t// in\n    tag_372:\n        /* \"#utility.yul\":6655:6728   */\n      swap2\n      pop\n        /* \"#utility.yul\":6450:6738   */\n      pop\n        /* \"#utility.yul\":5911:6745   */\n      swap3\n      pop\n      swap3\n      swap1\n      pop\n      jump\t// out\n        /* \"#utility.yul\":6751:7080   */\n    tag_31:\n        /* \"#utility.yul\":6810:6816   */\n      0x00\n        /* \"#utility.yul\":6859:6861   */\n      0x20\n        /* \"#utility.yul\":6847:6856   */\n      dup3\n        /* \"#utility.yul\":6838:6845   */\n      dup5\n        /* \"#utility.yul\":6834:6857   */\n      sub\n        /* \"#utility.yul\":6830:6862   */\n      slt\n        /* \"#utility.yul\":6827:6946   */\n      iszero\n      tag_374\n      jumpi\n        /* \"#utility.yul\":6865:6944   */\n      tag_375\n      tag_223\n      jump\t// in\n    tag_375:\n        /* \"#utility.yul\":6827:6946   */\n    tag_374:\n        /* \"#utility.yul\":6985:6986   */\n      0x00\n        /* \"#utility.yul\":7010:7063   */\n      tag_376\n        /* \"#utility.yul\":7055:7062   */\n      dup5\n        /* \"#utility.yul\":7046:7052   */\n      dup3\n        /* \"#utility.yul\":7035:7044   */\n      dup6\n        /* \"#utility.yul\":7031:7053   */\n      add\n        /* \"#utility.yul\":7010:7063   */\n      tag_228\n      jump\t// in\n    tag_376:\n        /* \"#utility.yul\":7000:7063   */\n      swap2\n      pop\n        /* \"#utility.yul\":6956:7073   */\n      pop\n        /* \"#utility.yul\":6751:7080   */\n      swap3\n      swap2\n      pop\n      pop\n      jump\t// out\n        /* \"#utility.yul\":7086:7418   */\n    tag_34:\n        /* \"#utility.yul\":7207:7211   */\n      0x00\n        /* \"#utility.yul\":7245:7247   */\n      0x40\n        /* \"#utility.yul\":7234:7243   */\n      dup3\n        /* \"#utility.yul\":7230:7248   */\n      add\n        /* \"#utility.yul\":7222:7248   */\n      swap1\n      pop\n        /* \"#utility.yul\":7258:7329   */\n      tag_378\n        /* \"#utility.yul\":7326:7327   */\n      0x00\n        /* \"#utility.yul\":7315:7324   */\n      dup4\n        /* \"#utility.yul\":7311:7328   */\n      add\n        /* \"#utility.yul\":7302:7308   */\n      dup6\n        /* \"#utility.yul\":7258:7329   */\n      tag_238\n      jump\t// in\n    tag_378:\n        /* \"#utility.yul\":7339:7411   */\n      tag_379\n        /* \"#utility.yul\":7407:7409   */\n      0x20\n        /* \"#utility.yul\":7396:7405   */\n      dup4\n        /* \"#utility.yul\":7392:7410   */\n      add\n        /* \"#utility.yul\":7383:7389   */\n      dup5\n        /* \"#utility.yul\":7339:7411   */\n      tag_238\n      jump\t// in\n    tag_379:\n        /* \"#utility.yul\":7086:7418   */\n      swap4\n      swap3\n      pop\n      pop\n      pop\n      jump\t// out\n        /* \"#utility.yul\":7424:8403   */\n    tag_37:\n        /* \"#utility.yul\":7521:7527   */\n      0x00\n        /* \"#utility.yul\":7529:7535   */\n      dup1\n        /* \"#utility.yul\":7537:7543   */\n      0x00\n        /* \"#utility.yul\":7586:7588   */\n      0x60\n        /* \"#utility.yul\":7574:7583   */\n      dup5\n        /* \"#utility.yul\":7565:7572   */\n      dup7\n        /* \"#utility.yul\":7561:7584   */\n      sub\n        /* \"#utility.yul\":7557:7589   */\n      slt\n        /* \"#utility.yul\":7554:7673   */\n      iszero\n      tag_381\n      jumpi\n        /* \"#utility.yul\":7592:7671   */\n      tag_382\n      tag_223\n      jump\t// in\n    tag_382:\n        /* \"#utility.yul\":7554:7673   */\n    tag_381:\n        /* \"#utility.yul\":7712:7713   */\n      0x00\n        /* \"#utility.yul\":7737:7790   */\n      tag_383\n        /* \"#utility.yul\":7782:7789   */\n      dup7\n        /* \"#utility.yul\":7773:7779   */\n      dup3\n        /* \"#utility.yul\":7762:7771   */\n      dup8\n        /* \"#utility.yul\":7758:7780   */\n      add\n        /* \"#utility.yul\":7737:7790   */\n      tag_228\n      jump\t// in\n    tag_383:\n        /* \"#utility.yul\":7727:7790   */\n      swap4\n      pop\n        /* \"#utility.yul\":7683:7800   */\n      pop\n        /* \"#utility.yul\":7867:7869   */\n      0x20\n        /* \"#utility.yul\":7856:7865   */\n      dup5\n        /* \"#utility.yul\":7852:7870   */\n      add\n        /* \"#utility.yul\":7839:7871   */\n      calldataload\n        /* \"#utility.yul\":7898:7916   */\n      0xffffffffffffffff\n        /* \"#utility.yul\":7890:7896   */\n      dup2\n        /* \"#utility.yul\":7887:7917   */\n      gt\n        /* \"#utility.yul\":7884:8001   */\n      iszero\n      tag_384\n      jumpi\n        /* \"#utility.yul\":7920:7999   */\n      tag_385\n      tag_224\n      jump\t// in\n    tag_385:\n        /* \"#utility.yul\":7884:8001   */\n    tag_384:\n        /* \"#utility.yul\":8025:8088   */\n      tag_386\n        /* \"#utility.yul\":8080:8087   */\n      dup7\n        /* \"#utility.yul\":8071:8077   */\n      dup3\n        /* \"#utility.yul\":8060:8069   */\n      dup8\n        /* \"#utility.yul\":8056:8078   */\n      add\n        /* \"#utility.yul\":8025:8088   */\n      tag_246\n      jump\t// in\n    tag_386:\n        /* \"#utility.yul\":8015:8088   */\n      swap3\n      pop\n        /* \"#utility.yul\":7810:8098   */\n      pop\n        /* \"#utility.yul\":8165:8167   */\n      0x40\n        /* \"#utility.yul\":8154:8163   */\n      dup5\n        /* \"#utility.yul\":8150:8168   */\n      add\n        /* \"#utility.yul\":8137:8169   */\n      calldataload\n        /* \"#utility.yul\":8196:8214   */\n      0xffffffffffffffff\n        /* \"#utility.yul\":8188:8194   */\n      dup2\n        /* \"#utility.yul\":8185:8215   */\n      gt\n        /* \"#utility.yul\":8182:8299   */\n      iszero\n      tag_387\n      jumpi\n        /* \"#utility.yul\":8218:8297   */\n      tag_388\n      tag_224\n      jump\t// in\n    tag_388:\n        /* \"#utility.yul\":8182:8299   */\n    tag_387:\n        /* \"#utility.yul\":8323:8386   */\n      tag_389\n        /* \"#utility.yul\":8378:8385   */\n      dup7\n        /* \"#utility.yul\":8369:8375   */\n      dup3\n        /* \"#utility.yul\":8358:8367   */\n      dup8\n        /* \"#utility.yul\":8354:8376   */\n      add\n        /* \"#utility.yul\":8323:8386   */\n      tag_246\n      jump\t// in\n    tag_389:\n        /* \"#utility.yul\":8313:8386   */\n      swap2\n      pop\n        /* \"#utility.yul\":8108:8396   */\n      pop\n        /* \"#utility.yul\":7424:8403   */\n      swap3\n      pop\n      swap3\n      pop\n      swap3\n      jump\t// out\n        /* \"#utility.yul\":8409:8544   */\n    tag_247:\n        /* \"#utility.yul\":8497:8503   */\n      0x00\n        /* \"#utility.yul\":8531:8536   */\n      dup2\n        /* \"#utility.yul\":8525:8537   */\n      mload\n        /* \"#utility.yul\":8515:8537   */\n      swap1\n      pop\n        /* \"#utility.yul\":8409:8544   */\n      swap2\n      swap1\n      pop\n      jump\t// out\n        /* \"#utility.yul\":8550:8755   */\n    tag_248:\n        /* \"#utility.yul\":8670:8681   */\n      0x00\n        /* \"#utility.yul\":8704:8710   */\n      dup3\n        /* \"#utility.yul\":8699:8702   */\n      dup3\n        /* \"#utility.yul\":8692:8711   */\n      mstore\n        /* \"#utility.yul\":8744:8748   */\n      0x20\n        /* \"#utility.yul\":8739:8742   */\n      dup3\n        /* \"#utility.yul\":8735:8749   */\n      add\n        /* \"#utility.yul\":8720:8749   */\n      swap1\n      pop\n        /* \"#utility.yul\":8550:8755   */\n      swap3\n      swap2\n      pop\n      pop\n      jump\t// out\n        /* \"#utility.yul\":8761:8914   */\n    tag_249:\n        /* \"#utility.yul\":8849:8853   */\n      0x00\n        /* \"#utility.yul\":8872:8875   */\n      dup2\n        /* \"#utility.yul\":8864:8875   */\n      swap1\n      pop\n        /* \"#utility.yul\":8902:8906   */\n      0x20\n        /* \"#utility.yul\":8897:8900   */\n      dup3\n        /* \"#utility.yul\":8893:8907   */\n      add\n        /* \"#utility.yul\":8885:8907   */\n      swap1\n      pop\n        /* \"#utility.yul\":8761:8914   */\n      swap2\n      swap1\n      pop\n      jump\t// out\n        /* \"#utility.yul\":8920:9028   */\n    tag_250:\n        /* \"#utility.yul\":8997:9021   */\n      tag_394\n        /* \"#utility.yul\":9015:9020   */\n      dup2\n        /* \"#utility.yul\":8997:9021   */\n      tag_226\n      jump\t// in\n    tag_394:\n        /* \"#utility.yul\":8992:8995   */\n      dup3\n        /* \"#utility.yul\":8985:9022   */\n      mstore\n        /* \"#utility.yul\":8920:9028   */\n      pop\n      pop\n      jump\t// out\n        /* \"#utility.yul\":9034:9193   */\n    tag_251:\n        /* \"#utility.yul\":9108:9119   */\n      0x00\n        /* \"#utility.yul\":9142:9148   */\n      dup3\n        /* \"#utility.yul\":9137:9140   */\n      dup3\n        /* \"#utility.yul\":9130:9149   */\n      mstore\n        /* \"#utility.yul\":9182:9186   */\n      0x20\n        /* \"#utility.yul\":9177:9180   */\n      dup3\n        /* \"#utility.yul\":9173:9187   */\n      add\n        /* \"#utility.yul\":9158:9187   */\n      swap1\n      pop\n        /* \"#utility.yul\":9034:9193   */\n      swap3\n      swap2\n      pop\n      pop\n      jump\t// out\n        /* \"#utility.yul\":9199:9556   */\n    tag_252:\n        /* \"#utility.yul\":9277:9280   */\n      0x00\n        /* \"#utility.yul\":9305:9344   */\n      tag_397\n        /* \"#utility.yul\":9338:9343   */\n      dup3\n        /* \"#utility.yul\":9305:9344   */\n      tag_233\n      jump\t// in\n    tag_397:\n        /* \"#utility.yul\":9360:9421   */\n      tag_398\n        /* \"#utility.yul\":9414:9420   */\n      dup2\n        /* \"#utility.yul\":9409:9412   */\n      dup6\n        /* \"#utility.yul\":9360:9421   */\n      tag_251\n      jump\t// in\n    tag_398:\n        /* \"#utility.yul\":9353:9421   */\n      swap4\n      pop\n        /* \"#utility.yul\":9430:9495   */\n      tag_399\n        /* \"#utility.yul\":9488:9494   */\n      dup2\n        /* \"#utility.yul\":9483:9486   */\n      dup6\n        /* \"#utility.yul\":9476:9480   */\n      0x20\n        /* \"#utility.yul\":9469:9474   */\n      dup7\n        /* \"#utility.yul\":9465:9481   */\n      add\n        /* \"#utility.yul\":9430:9495   */\n      tag_235\n      jump\t// in\n    tag_399:\n        /* \"#utility.yul\":9520:9549   */\n      tag_400\n        /* \"#utility.yul\":9542:9548   */\n      dup2\n        /* \"#utility.yul\":9520:9549   */\n      tag_236\n      jump\t// in\n    tag_400:\n        /* \"#utility.yul\":9515:9518   */\n      dup5\n        /* \"#utility.yul\":9511:9550   */\n      add\n        /* \"#utility.yul\":9504:9550   */\n      swap2\n      pop\n        /* \"#utility.yul\":9281:9556   */\n      pop\n        /* \"#utility.yul\":9199:9556   */\n      swap3\n      swap2\n      pop\n      pop\n      jump\t// out\n        /* \"#utility.yul\":9562:9670   */\n    tag_253:\n        /* \"#utility.yul\":9639:9663   */\n      tag_402\n        /* \"#utility.yul\":9657:9662   */\n      dup2\n        /* \"#utility.yul\":9639:9663   */\n      tag_229\n      jump\t// in\n    tag_402:\n        /* \"#utility.yul\":9634:9637   */\n      dup3\n        /* \"#utility.yul\":9627:9664   */\n      mstore\n        /* \"#utility.yul\":9562:9670   */\n      pop\n      pop\n      jump\t// out\n        /* \"#utility.yul\":9722:10920   */\n    tag_254:\n        /* \"#utility.yul\":9823:9826   */\n      0x00\n        /* \"#utility.yul\":9859:9863   */\n      0xa0\n        /* \"#utility.yul\":9854:9857   */\n      dup4\n        /* \"#utility.yul\":9850:9864   */\n      add\n        /* \"#utility.yul\":9948:9952   */\n      0x00\n        /* \"#utility.yul\":9941:9946   */\n      dup4\n        /* \"#utility.yul\":9937:9953   */\n      add\n        /* \"#utility.yul\":9931:9954   */\n      mload\n        /* \"#utility.yul\":9967:10030   */\n      tag_404\n        /* \"#utility.yul\":10024:10028   */\n      0x00\n        /* \"#utility.yul\":10019:10022   */\n      dup7\n        /* \"#utility.yul\":10015:10029   */\n      add\n        /* \"#utility.yul\":10001:10013   */\n      dup3\n        /* \"#utility.yul\":9967:10030   */\n      tag_250\n      jump\t// in\n    tag_404:\n        /* \"#utility.yul\":9874:10040   */\n      pop\n        /* \"#utility.yul\":10126:10130   */\n      0x20\n        /* \"#utility.yul\":10119:10124   */\n      dup4\n        /* \"#utility.yul\":10115:10131   */\n      add\n        /* \"#utility.yul\":10109:10132   */\n      mload\n        /* \"#utility.yul\":10145:10208   */\n      tag_405\n        /* \"#utility.yul\":10202:10206   */\n      0x20\n        /* \"#utility.yul\":10197:10200   */\n      dup7\n        /* \"#utility.yul\":10193:10207   */\n      add\n        /* \"#utility.yul\":10179:10191   */\n      dup3\n        /* \"#utility.yul\":10145:10208   */\n      tag_250\n      jump\t// in\n    tag_405:\n        /* \"#utility.yul\":10050:10218   */\n      pop\n        /* \"#utility.yul\":10303:10307   */\n      0x40\n        /* \"#utility.yul\":10296:10301   */\n      dup4\n        /* \"#utility.yul\":10292:10308   */\n      add\n        /* \"#utility.yul\":10286:10309   */\n      mload\n        /* \"#utility.yul\":10356:10359   */\n      dup5\n        /* \"#utility.yul\":10350:10354   */\n      dup3\n        /* \"#utility.yul\":10346:10360   */\n      sub\n        /* \"#utility.yul\":10339:10343   */\n      0x40\n        /* \"#utility.yul\":10334:10337   */\n      dup7\n        /* \"#utility.yul\":10330:10344   */\n      add\n        /* \"#utility.yul\":10323:10361   */\n      mstore\n        /* \"#utility.yul\":10382:10455   */\n      tag_406\n        /* \"#utility.yul\":10450:10454   */\n      dup3\n        /* \"#utility.yul\":10436:10448   */\n      dup3\n        /* \"#utility.yul\":10382:10455   */\n      tag_252\n      jump\t// in\n    tag_406:\n        /* \"#utility.yul\":10374:10455   */\n      swap2\n      pop\n        /* \"#utility.yul\":10228:10466   */\n      pop\n        /* \"#utility.yul\":10551:10555   */\n      0x60\n        /* \"#utility.yul\":10544:10549   */\n      dup4\n        /* \"#utility.yul\":10540:10556   */\n      add\n        /* \"#utility.yul\":10534:10557   */\n      mload\n        /* \"#utility.yul\":10604:10607   */\n      dup5\n        /* \"#utility.yul\":10598:10602   */\n      dup3\n        /* \"#utility.yul\":10594:10608   */\n      sub\n        /* \"#utility.yul\":10587:10591   */\n      0x60\n        /* \"#utility.yul\":10582:10585   */\n      dup7\n        /* \"#utility.yul\":10578:10592   */\n      add\n        /* \"#utility.yul\":10571:10609   */\n      mstore\n        /* \"#utility.yul\":10630:10703   */\n      tag_407\n        /* \"#utility.yul\":10698:10702   */\n      dup3\n        /* \"#utility.yul\":10684:10696   */\n      dup3\n        /* \"#utility.yul\":10630:10703   */\n      tag_252\n      jump\t// in\n    tag_407:\n        /* \"#utility.yul\":10622:10703   */\n      swap2\n      pop\n        /* \"#utility.yul\":10476:10714   */\n      pop\n        /* \"#utility.yul\":10801:10805   */\n      0x80\n        /* \"#utility.yul\":10794:10799   */\n      dup4\n        /* \"#utility.yul\":10790:10806   */\n      add\n        /* \"#utility.yul\":10784:10807   */\n      mload\n        /* \"#utility.yul\":10820:10883   */\n      tag_408\n        /* \"#utility.yul\":10877:10881   */\n      0x80\n        /* \"#utility.yul\":10872:10875   */\n      dup7\n        /* \"#utility.yul\":10868:10882   */\n      add\n        /* \"#utility.yul\":10854:10866   */\n      dup3\n        /* \"#utility.yul\":10820:10883   */\n      tag_253\n      jump\t// in\n    tag_408:\n        /* \"#utility.yul\":10724:10893   */\n      pop\n        /* \"#utility.yul\":10910:10914   */\n      dup1\n        /* \"#utility.yul\":10903:10914   */\n      swap2\n      pop\n        /* \"#utility.yul\":9828:10920   */\n      pop\n        /* \"#utility.yul\":9722:10920   */\n      swap3\n      swap2\n      pop\n      pop\n      jump\t// out\n        /* \"#utility.yul\":10926:11166   */\n    tag_255:\n        /* \"#utility.yul\":11037:11047   */\n      0x00\n        /* \"#utility.yul\":11072:11160   */\n      tag_410\n        /* \"#utility.yul\":11156:11159   */\n      dup4\n        /* \"#utility.yul\":11148:11154   */\n      dup4\n        /* \"#utility.yul\":11072:11160   */\n      tag_254\n      jump\t// in\n    tag_410:\n        /* \"#utility.yul\":11058:11160   */\n      swap1\n      pop\n        /* \"#utility.yul\":10926:11166   */\n      swap3\n      swap2\n      pop\n      pop\n      jump\t// out\n        /* \"#utility.yul\":11172:11306   */\n    tag_256:\n        /* \"#utility.yul\":11263:11267   */\n      0x00\n        /* \"#utility.yul\":11295:11299   */\n      0x20\n        /* \"#utility.yul\":11290:11293   */\n      dup3\n        /* \"#utility.yul\":11286:11300   */\n      add\n        /* \"#utility.yul\":11278:11300   */\n      swap1\n      pop\n        /* \"#utility.yul\":11172:11306   */\n      swap2\n      swap1\n      pop\n      jump\t// out\n        /* \"#utility.yul\":11362:12441   */\n    tag_257:\n        /* \"#utility.yul\":11523:11526   */\n      0x00\n        /* \"#utility.yul\":11552:11627   */\n      tag_413\n        /* \"#utility.yul\":11621:11626   */\n      dup3\n        /* \"#utility.yul\":11552:11627   */\n      tag_247\n      jump\t// in\n    tag_413:\n        /* \"#utility.yul\":11643:11750   */\n      tag_414\n        /* \"#utility.yul\":11743:11749   */\n      dup2\n        /* \"#utility.yul\":11738:11741   */\n      dup6\n        /* \"#utility.yul\":11643:11750   */\n      tag_248\n      jump\t// in\n    tag_414:\n        /* \"#utility.yul\":11636:11750   */\n      swap4\n      pop\n        /* \"#utility.yul\":11776:11779   */\n      dup4\n        /* \"#utility.yul\":11821:11825   */\n      0x20\n        /* \"#utility.yul\":11813:11819   */\n      dup3\n        /* \"#utility.yul\":11809:11826   */\n      mul\n        /* \"#utility.yul\":11804:11807   */\n      dup6\n        /* \"#utility.yul\":11800:11827   */\n      add\n        /* \"#utility.yul\":11851:11928   */\n      tag_415\n        /* \"#utility.yul\":11922:11927   */\n      dup6\n        /* \"#utility.yul\":11851:11928   */\n      tag_249\n      jump\t// in\n    tag_415:\n        /* \"#utility.yul\":11951:11958   */\n      dup1\n        /* \"#utility.yul\":11982:11983   */\n      0x00\n        /* \"#utility.yul\":11967:12396   */\n    tag_416:\n        /* \"#utility.yul\":11992:11998   */\n      dup6\n        /* \"#utility.yul\":11989:11990   */\n      dup2\n        /* \"#utility.yul\":11986:11999   */\n      lt\n        /* \"#utility.yul\":11967:12396   */\n      iszero\n      tag_418\n      jumpi\n        /* \"#utility.yul\":12063:12072   */\n      dup5\n        /* \"#utility.yul\":12057:12061   */\n      dup5\n        /* \"#utility.yul\":12053:12073   */\n      sub\n        /* \"#utility.yul\":12048:12051   */\n      dup10\n        /* \"#utility.yul\":12041:12074   */\n      mstore\n        /* \"#utility.yul\":12114:12120   */\n      dup2\n        /* \"#utility.yul\":12108:12121   */\n      mload\n        /* \"#utility.yul\":12142:12248   */\n      tag_419\n        /* \"#utility.yul\":12243:12247   */\n      dup6\n        /* \"#utility.yul\":12228:12241   */\n      dup3\n        /* \"#utility.yul\":12142:12248   */\n      tag_255\n      jump\t// in\n    tag_419:\n        /* \"#utility.yul\":12134:12248   */\n      swap5\n      pop\n        /* \"#utility.yul\":12271:12352   */\n      tag_420\n        /* \"#utility.yul\":12345:12351   */\n      dup4\n        /* \"#utility.yul\":12271:12352   */\n      tag_256\n      jump\t// in\n    tag_420:\n        /* \"#utility.yul\":12261:12352   */\n      swap3\n      pop\n        /* \"#utility.yul\":12381:12385   */\n      0x20\n        /* \"#utility.yul\":12376:12379   */\n      dup11\n        /* \"#utility.yul\":12372:12386   */\n      add\n        /* \"#utility.yul\":12365:12386   */\n      swap10\n      pop\n        /* \"#utility.yul\":12027:12396   */\n      pop\n        /* \"#utility.yul\":12014:12015   */\n      0x01\n        /* \"#utility.yul\":12011:12012   */\n      dup2\n        /* \"#utility.yul\":12007:12016   */\n      add\n        /* \"#utility.yul\":12002:12016   */\n      swap1\n      pop\n        /* \"#utility.yul\":11967:12396   */\n      jump(tag_416)\n    tag_418:\n        /* \"#utility.yul\":11971:11985   */\n      pop\n        /* \"#utility.yul\":12412:12416   */\n      dup3\n        /* \"#utility.yul\":12405:12416   */\n      swap8\n      pop\n        /* \"#utility.yul\":12432:12435   */\n      dup8\n        /* \"#utility.yul\":12425:12435   */\n      swap6\n      pop\n        /* \"#utility.yul\":11528:12441   */\n      pop\n      pop\n      pop\n      pop\n      pop\n        /* \"#utility.yul\":11362:12441   */\n      swap3\n      swap2\n      pop\n      pop\n      jump\t// out\n        /* \"#utility.yul\":12447:12904   */\n    tag_42:\n        /* \"#utility.yul\":12632:12636   */\n      0x00\n        /* \"#utility.yul\":12670:12672   */\n      0x20\n        /* \"#utility.yul\":12659:12668   */\n      dup3\n        /* \"#utility.yul\":12655:12673   */\n      add\n        /* \"#utility.yul\":12647:12673   */\n      swap1\n      pop\n        /* \"#utility.yul\":12719:12728   */\n      dup2\n        /* \"#utility.yul\":12713:12717   */\n      dup2\n        /* \"#utility.yul\":12709:12729   */\n      sub\n        /* \"#utility.yul\":12705:12706   */\n      0x00\n        /* \"#utility.yul\":12694:12703   */\n      dup4\n        /* \"#utility.yul\":12690:12707   */\n      add\n        /* \"#utility.yul\":12683:12730   */\n      mstore\n        /* \"#utility.yul\":12747:12897   */\n      tag_422\n        /* \"#utility.yul\":12892:12896   */\n      dup2\n        /* \"#utility.yul\":12883:12889   */\n      dup5\n        /* \"#utility.yul\":12747:12897   */\n      tag_257\n      jump\t// in\n    tag_422:\n        /* \"#utility.yul\":12739:12897   */\n      swap1\n      pop\n        /* \"#utility.yul\":12447:12904   */\n      swap3\n      swap2\n      pop\n      pop\n      jump\t// out\n        /* \"#utility.yul\":12910:13239   */\n    tag_45:\n        /* \"#utility.yul\":12969:12975   */\n      0x00\n        /* \"#utility.yul\":13018:13020   */\n      0x20\n        /* \"#utility.yul\":13006:13015   */\n      dup3\n        /* \"#utility.yul\":12997:13004   */\n      dup5\n        /* \"#utility.yul\":12993:13016   */\n      sub\n        /* \"#utility.yul\":12989:13021   */\n      slt\n        /* \"#utility.yul\":12986:13105   */\n      iszero\n      tag_424\n      jumpi\n        /* \"#utility.yul\":13024:13103   */\n      tag_425\n      tag_223\n      jump\t// in\n    tag_425:\n        /* \"#utility.yul\":12986:13105   */\n    tag_424:\n        /* \"#utility.yul\":13144:13145   */\n      0x00\n        /* \"#utility.yul\":13169:13222   */\n      tag_426\n        /* \"#utility.yul\":13214:13221   */\n      dup5\n        /* \"#utility.yul\":13205:13211   */\n      dup3\n        /* \"#utility.yul\":13194:13203   */\n      dup6\n        /* \"#utility.yul\":13190:13212   */\n      add\n        /* \"#utility.yul\":13169:13222   */\n      tag_231\n      jump\t// in\n    tag_426:\n        /* \"#utility.yul\":13159:13222   */\n      swap2\n      pop\n        /* \"#utility.yul\":13115:13232   */\n      pop\n        /* \"#utility.yul\":12910:13239   */\n      swap3\n      swap2\n      pop\n      pop\n      jump\t// out\n        /* \"#utility.yul\":13245:13425   */\n    tag_258:\n        /* \"#utility.yul\":13293:13370   */\n      0x4e487b7100000000000000000000000000000000000000000000000000000000\n        /* \"#utility.yul\":13290:13291   */\n      0x00\n        /* \"#utility.yul\":13283:13371   */\n      mstore\n        /* \"#utility.yul\":13390:13394   */\n      0x22\n        /* \"#utility.yul\":13387:13388   */\n      0x04\n        /* \"#utility.yul\":13380:13395   */\n      mstore\n        /* \"#utility.yul\":13414:13418   */\n      0x24\n        /* \"#utility.yul\":13411:13412   */\n      0x00\n        /* \"#utility.yul\":13404:13419   */\n      revert\n        /* \"#utility.yul\":13431:13751   */\n    tag_50:\n        /* \"#utility.yul\":13475:13481   */\n      0x00\n        /* \"#utility.yul\":13512:13513   */\n      0x02\n        /* \"#utility.yul\":13506:13510   */\n      dup3\n        /* \"#utility.yul\":13502:13514   */\n      div\n        /* \"#utility.yul\":13492:13514   */\n      swap1\n      pop\n        /* \"#utility.yul\":13559:13560   */\n      0x01\n        /* \"#utility.yul\":13553:13557   */\n      dup3\n        /* \"#utility.yul\":13549:13561   */\n      and\n        /* \"#utility.yul\":13580:13598   */\n      dup1\n        /* \"#utility.yul\":13570:13651   */\n      tag_429\n      jumpi\n        /* \"#utility.yul\":13636:13640   */\n      0x7f\n        /* \"#utility.yul\":13628:13634   */\n      dup3\n        /* \"#utility.yul\":13624:13641   */\n      and\n        /* \"#utility.yul\":13614:13641   */\n      swap2\n      pop\n        /* \"#utility.yul\":13570:13651   */\n    tag_429:\n        /* \"#utility.yul\":13698:13700   */\n      0x20\n        /* \"#utility.yul\":13690:13696   */\n      dup3\n        /* \"#utility.yul\":13687:13701   */\n      lt\n        /* \"#utility.yul\":13667:13685   */\n      dup2\n        /* \"#utility.yul\":13664:13702   */\n      sub\n        /* \"#utility.yul\":13661:13745   */\n      tag_430\n      jumpi\n        /* \"#utility.yul\":13717:13735   */\n      tag_431\n      tag_258\n      jump\t// in\n    tag_431:\n        /* \"#utility.yul\":13661:13745   */\n    tag_430:\n        /* \"#utility.yul\":13482:13751   */\n      pop\n        /* \"#utility.yul\":13431:13751   */\n      swap2\n      swap1\n      pop\n      jump\t// out\n        /* \"#utility.yul\":13757:13983   */\n    tag_259:\n        /* \"#utility.yul\":13897:13931   */\n      0x4e756d626572206f6620656d61696c73206d7573742062652067726561746572\n        /* \"#utility.yul\":13893:13894   */\n      0x00\n        /* \"#utility.yul\":13885:13891   */\n      dup3\n        /* \"#utility.yul\":13881:13895   */\n      add\n        /* \"#utility.yul\":13874:13932   */\n      mstore\n        /* \"#utility.yul\":13966:13975   */\n      0x207468616e203000000000000000000000000000000000000000000000000000\n        /* \"#utility.yul\":13961:13963   */\n      0x20\n        /* \"#utility.yul\":13953:13959   */\n      dup3\n        /* \"#utility.yul\":13949:13964   */\n      add\n        /* \"#utility.yul\":13942:13976   */\n      mstore\n        /* \"#utility.yul\":13757:13983   */\n      pop\n      jump\t// out\n        /* \"#utility.yul\":13989:14355   */\n    tag_260:\n        /* \"#utility.yul\":14131:14134   */\n      0x00\n        /* \"#utility.yul\":14152:14219   */\n      tag_434\n        /* \"#utility.yul\":14216:14218   */\n      0x27\n        /* \"#utility.yul\":14211:14214   */\n      dup4\n        /* \"#utility.yul\":14152:14219   */\n      tag_234\n      jump\t// in\n    tag_434:\n        /* \"#utility.yul\":14145:14219   */\n      swap2\n      pop\n        /* \"#utility.yul\":14228:14321   */\n      tag_435\n        /* \"#utility.yul\":14317:14320   */\n      dup3\n        /* \"#utility.yul\":14228:14321   */\n      tag_259\n      jump\t// in\n    tag_435:\n        /* \"#utility.yul\":14346:14348   */\n      0x40\n        /* \"#utility.yul\":14341:14344   */\n      dup3\n        /* \"#utility.yul\":14337:14349   */\n      add\n        /* \"#utility.yul\":14330:14349   */\n      swap1\n      pop\n        /* \"#utility.yul\":13989:14355   */\n      swap2\n      swap1\n      pop\n      jump\t// out\n        /* \"#utility.yul\":14361:14780   */\n    tag_75:\n        /* \"#utility.yul\":14527:14531   */\n      0x00\n        /* \"#utility.yul\":14565:14567   */\n      0x20\n        /* \"#utility.yul\":14554:14563   */\n      dup3\n        /* \"#utility.yul\":14550:14568   */\n      add\n        /* \"#utility.yul\":14542:14568   */\n      swap1\n      pop\n        /* \"#utility.yul\":14614:14623   */\n      dup2\n        /* \"#utility.yul\":14608:14612   */\n      dup2\n        /* \"#utility.yul\":14604:14624   */\n      sub\n        /* \"#utility.yul\":14600:14601   */\n      0x00\n        /* \"#utility.yul\":14589:14598   */\n      dup4\n        /* \"#utility.yul\":14585:14602   */\n      add\n        /* \"#utility.yul\":14578:14625   */\n      mstore\n        /* \"#utility.yul\":14642:14773   */\n      tag_437\n        /* \"#utility.yul\":14768:14772   */\n      dup2\n        /* \"#utility.yul\":14642:14773   */\n      tag_260\n      jump\t// in\n    tag_437:\n        /* \"#utility.yul\":14634:14773   */\n      swap1\n      pop\n        /* \"#utility.yul\":14361:14780   */\n      swap2\n      swap1\n      pop\n      jump\t// out\n        /* \"#utility.yul\":14786:14934   */\n    tag_261:\n        /* \"#utility.yul\":14888:14899   */\n      0x00\n        /* \"#utility.yul\":14925:14928   */\n      dup2\n        /* \"#utility.yul\":14910:14928   */\n      swap1\n      pop\n        /* \"#utility.yul\":14786:14934   */\n      swap3\n      swap2\n      pop\n      pop\n      jump\t// out\n        /* \"#utility.yul\":14940:15102   */\n    tag_262:\n        /* \"#utility.yul\":15080:15094   */\n      0x4d6f636b20456d61696c20230000000000000000000000000000000000000000\n        /* \"#utility.yul\":15076:15077   */\n      0x00\n        /* \"#utility.yul\":15068:15074   */\n      dup3\n        /* \"#utility.yul\":15064:15078   */\n      add\n        /* \"#utility.yul\":15057:15095   */\n      mstore\n        /* \"#utility.yul\":14940:15102   */\n      pop\n      jump\t// out\n        /* \"#utility.yul\":15108:15510   */\n    tag_263:\n        /* \"#utility.yul\":15268:15271   */\n      0x00\n        /* \"#utility.yul\":15289:15374   */\n      tag_441\n        /* \"#utility.yul\":15371:15373   */\n      0x0c\n        /* \"#utility.yul\":15366:15369   */\n      dup4\n        /* \"#utility.yul\":15289:15374   */\n      tag_261\n      jump\t// in\n    tag_441:\n        /* \"#utility.yul\":15282:15374   */\n      swap2\n      pop\n        /* \"#utility.yul\":15383:15476   */\n      tag_442\n        /* \"#utility.yul\":15472:15475   */\n      dup3\n        /* \"#utility.yul\":15383:15476   */\n      tag_262\n      jump\t// in\n    tag_442:\n        /* \"#utility.yul\":15501:15503   */\n      0x0c\n        /* \"#utility.yul\":15496:15499   */\n      dup3\n        /* \"#utility.yul\":15492:15504   */\n      add\n        /* \"#utility.yul\":15485:15504   */\n      swap1\n      pop\n        /* \"#utility.yul\":15108:15510   */\n      swap2\n      swap1\n      pop\n      jump\t// out\n        /* \"#utility.yul\":15516:15906   */\n    tag_264:\n        /* \"#utility.yul\":15622:15625   */\n      0x00\n        /* \"#utility.yul\":15650:15689   */\n      tag_444\n        /* \"#utility.yul\":15683:15688   */\n      dup3\n        /* \"#utility.yul\":15650:15689   */\n      tag_233\n      jump\t// in\n    tag_444:\n        /* \"#utility.yul\":15705:15794   */\n      tag_445\n        /* \"#utility.yul\":15787:15793   */\n      dup2\n        /* \"#utility.yul\":15782:15785   */\n      dup6\n        /* \"#utility.yul\":15705:15794   */\n      tag_261\n      jump\t// in\n    tag_445:\n        /* \"#utility.yul\":15698:15794   */\n      swap4\n      pop\n        /* \"#utility.yul\":15803:15868   */\n      tag_446\n        /* \"#utility.yul\":15861:15867   */\n      dup2\n        /* \"#utility.yul\":15856:15859   */\n      dup6\n        /* \"#utility.yul\":15849:15853   */\n      0x20\n        /* \"#utility.yul\":15842:15847   */\n      dup7\n        /* \"#utility.yul\":15838:15854   */\n      add\n        /* \"#utility.yul\":15803:15868   */\n      tag_235\n      jump\t// in\n    tag_446:\n        /* \"#utility.yul\":15893:15899   */\n      dup1\n        /* \"#utility.yul\":15888:15891   */\n      dup5\n        /* \"#utility.yul\":15884:15900   */\n      add\n        /* \"#utility.yul\":15877:15900   */\n      swap2\n      pop\n        /* \"#utility.yul\":15626:15906   */\n      pop\n        /* \"#utility.yul\":15516:15906   */\n      swap3\n      swap2\n      pop\n      pop\n      jump\t// out\n        /* \"#utility.yul\":15912:16453   */\n    tag_82:\n        /* \"#utility.yul\":16145:16148   */\n      0x00\n        /* \"#utility.yul\":16167:16315   */\n      tag_448\n        /* \"#utility.yul\":16311:16314   */\n      dup3\n        /* \"#utility.yul\":16167:16315   */\n      tag_263\n      jump\t// in\n    tag_448:\n        /* \"#utility.yul\":16160:16315   */\n      swap2\n      pop\n        /* \"#utility.yul\":16332:16427   */\n      tag_449\n        /* \"#utility.yul\":16423:16426   */\n      dup3\n        /* \"#utility.yul\":16414:16420   */\n      dup5\n        /* \"#utility.yul\":16332:16427   */\n      tag_264\n      jump\t// in\n    tag_449:\n        /* \"#utility.yul\":16325:16427   */\n      swap2\n      pop\n        /* \"#utility.yul\":16444:16447   */\n      dup2\n        /* \"#utility.yul\":16437:16447   */\n      swap1\n      pop\n        /* \"#utility.yul\":15912:16453   */\n      swap3\n      swap2\n      pop\n      pop\n      jump\t// out\n        /* \"#utility.yul\":16459:16631   */\n    tag_265:\n        /* \"#utility.yul\":16599:16623   */\n      0x546869732069732061206d6f636b20656d61696c202300000000000000000000\n        /* \"#utility.yul\":16595:16596   */\n      0x00\n        /* \"#utility.yul\":16587:16593   */\n      dup3\n        /* \"#utility.yul\":16583:16597   */\n      add\n        /* \"#utility.yul\":16576:16624   */\n      mstore\n        /* \"#utility.yul\":16459:16631   */\n      pop\n      jump\t// out\n        /* \"#utility.yul\":16637:17039   */\n    tag_266:\n        /* \"#utility.yul\":16797:16800   */\n      0x00\n        /* \"#utility.yul\":16818:16903   */\n      tag_452\n        /* \"#utility.yul\":16900:16902   */\n      0x16\n        /* \"#utility.yul\":16895:16898   */\n      dup4\n        /* \"#utility.yul\":16818:16903   */\n      tag_261\n      jump\t// in\n    tag_452:\n        /* \"#utility.yul\":16811:16903   */\n      swap2\n      pop\n        /* \"#utility.yul\":16912:17005   */\n      tag_453\n        /* \"#utility.yul\":17001:17004   */\n      dup3\n        /* \"#utility.yul\":16912:17005   */\n      tag_265\n      jump\t// in\n    tag_453:\n        /* \"#utility.yul\":17030:17032   */\n      0x16\n        /* \"#utility.yul\":17025:17028   */\n      dup3\n        /* \"#utility.yul\":17021:17033   */\n      add\n        /* \"#utility.yul\":17014:17033   */\n      swap1\n      pop\n        /* \"#utility.yul\":16637:17039   */\n      swap2\n      swap1\n      pop\n      jump\t// out\n        /* \"#utility.yul\":17045:17586   */\n    tag_85:\n        /* \"#utility.yul\":17278:17281   */\n      0x00\n        /* \"#utility.yul\":17300:17448   */\n      tag_455\n        /* \"#utility.yul\":17444:17447   */\n      dup3\n        /* \"#utility.yul\":17300:17448   */\n      tag_266\n      jump\t// in\n    tag_455:\n        /* \"#utility.yul\":17293:17448   */\n      swap2\n      pop\n        /* \"#utility.yul\":17465:17560   */\n      tag_456\n        /* \"#utility.yul\":17556:17559   */\n      dup3\n        /* \"#utility.yul\":17547:17553   */\n      dup5\n        /* \"#utility.yul\":17465:17560   */\n      tag_264\n      jump\t// in\n    tag_456:\n        /* \"#utility.yul\":17458:17560   */\n      swap2\n      pop\n        /* \"#utility.yul\":17577:17580   */\n      dup2\n        /* \"#utility.yul\":17570:17580   */\n      swap1\n      pop\n        /* \"#utility.yul\":17045:17586   */\n      swap3\n      swap2\n      pop\n      pop\n      jump\t// out\n        /* \"#utility.yul\":17592:17733   */\n    tag_267:\n        /* \"#utility.yul\":17641:17645   */\n      0x00\n        /* \"#utility.yul\":17664:17667   */\n      dup2\n        /* \"#utility.yul\":17656:17667   */\n      swap1\n      pop\n        /* \"#utility.yul\":17687:17690   */\n      dup2\n        /* \"#utility.yul\":17684:17685   */\n      0x00\n        /* \"#utility.yul\":17677:17691   */\n      mstore\n        /* \"#utility.yul\":17721:17725   */\n      0x20\n        /* \"#utility.yul\":17718:17719   */\n      0x00\n        /* \"#utility.yul\":17708:17726   */\n      keccak256\n        /* \"#utility.yul\":17700:17726   */\n      swap1\n      pop\n        /* \"#utility.yul\":17592:17733   */\n      swap2\n      swap1\n      pop\n      jump\t// out\n        /* \"#utility.yul\":17739:17832   */\n    tag_268:\n        /* \"#utility.yul\":17776:17782   */\n      0x00\n        /* \"#utility.yul\":17823:17825   */\n      0x20\n        /* \"#utility.yul\":17818:17820   */\n      0x1f\n        /* \"#utility.yul\":17811:17816   */\n      dup4\n        /* \"#utility.yul\":17807:17821   */\n      add\n        /* \"#utility.yul\":17803:17826   */\n      div\n        /* \"#utility.yul\":17793:17826   */\n      swap1\n      pop\n        /* \"#utility.yul\":17739:17832   */\n      swap2\n      swap1\n      pop\n      jump\t// out\n        /* \"#utility.yul\":17838:17945   */\n    tag_269:\n        /* \"#utility.yul\":17882:17890   */\n      0x00\n        /* \"#utility.yul\":17932:17937   */\n      dup3\n        /* \"#utility.yul\":17926:17930   */\n      dup3\n        /* \"#utility.yul\":17922:17938   */\n      shl\n        /* \"#utility.yul\":17901:17938   */\n      swap1\n      pop\n        /* \"#utility.yul\":17838:17945   */\n      swap3\n      swap2\n      pop\n      pop\n      jump\t// out\n        /* \"#utility.yul\":17951:18344   */\n    tag_270:\n        /* \"#utility.yul\":18020:18026   */\n      0x00\n        /* \"#utility.yul\":18070:18071   */\n      0x08\n        /* \"#utility.yul\":18058:18068   */\n      dup4\n        /* \"#utility.yul\":18054:18072   */\n      mul\n        /* \"#utility.yul\":18093:18190   */\n      tag_461\n        /* \"#utility.yul\":18123:18189   */\n      0xffffffffffffffffffffffffffffffffffffffffffffffffffffffffffffffff\n        /* \"#utility.yul\":18112:18121   */\n      dup3\n        /* \"#utility.yul\":18093:18190   */\n      tag_269\n      jump\t// in\n    tag_461:\n        /* \"#utility.yul\":18211:18250   */\n      tag_462\n        /* \"#utility.yul\":18241:18249   */\n      dup7\n        /* \"#utility.yul\":18230:18239   */\n      dup4\n        /* \"#utility.yul\":18211:18250   */\n      tag_269\n      jump\t// in\n    tag_462:\n        /* \"#utility.yul\":18199:18250   */\n      swap6\n      pop\n        /* \"#utility.yul\":18283:18287   */\n      dup1\n        /* \"#utility.yul\":18279:18288   */\n      not\n        /* \"#utility.yul\":18272:18277   */\n      dup5\n        /* \"#utility.yul\":18268:18289   */\n      and\n        /* \"#utility.yul\":18259:18289   */\n      swap4\n      pop\n        /* \"#utility.yul\":18332:18336   */\n      dup1\n        /* \"#utility.yul\":18322:18330   */\n      dup7\n        /* \"#utility.yul\":18318:18337   */\n      and\n        /* \"#utility.yul\":18311:18316   */\n      dup5\n        /* \"#utility.yul\":18308:18338   */\n      or\n        /* \"#utility.yul\":18298:18338   */\n      swap3\n      pop\n        /* \"#utility.yul\":18027:18344   */\n      pop\n      pop\n        /* \"#utility.yul\":17951:18344   */\n      swap4\n      swap3\n      pop\n      pop\n      pop\n      jump\t// out\n        /* \"#utility.yul\":18350:18410   */\n    tag_271:\n        /* \"#utility.yul\":18378:18381   */\n      0x00\n        /* \"#utility.yul\":18399:18404   */\n      dup2\n        /* \"#utility.yul\":18392:18404   */\n      swap1\n      pop\n        /* \"#utility.yul\":18350:18410   */\n      swap2\n      swap1\n      pop\n      jump\t// out\n        /* \"#utility.yul\":18416:18558   */\n    tag_272:\n        /* \"#utility.yul\":18466:18475   */\n      0x00\n        /* \"#utility.yul\":18499:18552   */\n      tag_465\n        /* \"#utility.yul\":18517:18551   */\n      tag_466\n        /* \"#utility.yul\":18526:18550   */\n      tag_467\n        /* \"#utility.yul\":18544:18549   */\n      dup5\n        /* \"#utility.yul\":18526:18550   */\n      tag_229\n      jump\t// in\n    tag_467:\n        /* \"#utility.yul\":18517:18551   */\n      tag_271\n      jump\t// in\n    tag_466:\n        /* \"#utility.yul\":18499:18552   */\n      tag_229\n      jump\t// in\n    tag_465:\n        /* \"#utility.yul\":18486:18552   */\n      swap1\n      pop\n        /* \"#utility.yul\":18416:18558   */\n      swap2\n      swap1\n      pop\n      jump\t// out\n        /* \"#utility.yul\":18564:18639   */\n    tag_273:\n        /* \"#utility.yul\":18607:18610   */\n      0x00\n        /* \"#utility.yul\":18628:18633   */\n      dup2\n        /* \"#utility.yul\":18621:18633   */\n      swap1\n      pop\n        /* \"#utility.yul\":18564:18639   */\n      swap2\n      swap1\n      pop\n      jump\t// out\n        /* \"#utility.yul\":18645:18914   */\n    tag_274:\n        /* \"#utility.yul\":18755:18794   */\n      tag_470\n        /* \"#utility.yul\":18786:18793   */\n      dup4\n        /* \"#utility.yul\":18755:18794   */\n      tag_272\n      jump\t// in\n    tag_470:\n        /* \"#utility.yul\":18816:18907   */\n      tag_471\n        /* \"#utility.yul\":18865:18906   */\n      tag_472\n        /* \"#utility.yul\":18889:18905   */\n      dup3\n        /* \"#utility.yul\":18865:18906   */\n      tag_273\n      jump\t// in\n    tag_472:\n        /* \"#utility.yul\":18857:18863   */\n      dup5\n        /* \"#utility.yul\":18850:18854   */\n      dup5\n        /* \"#utility.yul\":18844:18855   */\n      sload\n        /* \"#utility.yul\":18816:18907   */\n      tag_270\n      jump\t// in\n    tag_471:\n        /* \"#utility.yul\":18810:18814   */\n      dup3\n        /* \"#utility.yul\":18803:18908   */\n      sstore\n        /* \"#utility.yul\":18721:18914   */\n      pop\n        /* \"#utility.yul\":18645:18914   */\n      pop\n      pop\n      pop\n      jump\t// out\n        /* \"#utility.yul\":18920:18993   */\n    tag_275:\n        /* \"#utility.yul\":18965:18968   */\n      0x00\n        /* \"#utility.yul\":18920:18993   */\n      swap1\n      jump\t// out\n        /* \"#utility.yul\":18999:19188   */\n    tag_276:\n        /* \"#utility.yul\":19076:19108   */\n      tag_475\n      tag_275\n      jump\t// in\n    tag_475:\n        /* \"#utility.yul\":19117:19182   */\n      tag_476\n        /* \"#utility.yul\":19175:19181   */\n      dup2\n        /* \"#utility.yul\":19167:19173   */\n      dup5\n        /* \"#utility.yul\":19161:19165   */\n      dup5\n        /* \"#utility.yul\":19117:19182   */\n      tag_274\n      jump\t// in\n    tag_476:\n        /* \"#utility.yul\":19052:19188   */\n      pop\n        /* \"#utility.yul\":18999:19188   */\n      pop\n      pop\n      jump\t// out\n        /* \"#utility.yul\":19194:19380   */\n    tag_277:\n        /* \"#utility.yul\":19254:19374   */\n    tag_478:\n        /* \"#utility.yul\":19271:19274   */\n      dup2\n        /* \"#utility.yul\":19264:19269   */\n      dup2\n        /* \"#utility.yul\":19261:19275   */\n      lt\n        /* \"#utility.yul\":19254:19374   */\n      iszero\n      tag_480\n      jumpi\n        /* \"#utility.yul\":19325:19364   */\n      tag_481\n        /* \"#utility.yul\":19362:19363   */\n      0x00\n        /* \"#utility.yul\":19355:19360   */\n      dup3\n        /* \"#utility.yul\":19325:19364   */\n      tag_276\n      jump\t// in\n    tag_481:\n        /* \"#utility.yul\":19298:19299   */\n      0x01\n        /* \"#utility.yul\":19291:19296   */\n      dup2\n        /* \"#utility.yul\":19287:19300   */\n      add\n        /* \"#utility.yul\":19278:19300   */\n      swap1\n      pop\n        /* \"#utility.yul\":19254:19374   */\n      jump(tag_478)\n    tag_480:\n        /* \"#utility.yul\":19194:19380   */\n      pop\n      pop\n      jump\t// out\n        /* \"#utility.yul\":19386:19929   */\n    tag_278:\n        /* \"#utility.yul\":19487:19489   */\n      0x1f\n        /* \"#utility.yul\":19482:19485   */\n      dup3\n        /* \"#utility.yul\":19479:19490   */\n      gt\n        /* \"#utility.yul\":19476:19922   */\n      iszero\n      tag_483\n      jumpi\n        /* \"#utility.yul\":19521:19559   */\n      tag_484\n        /* \"#utility.yul\":19553:19558   */\n      dup2\n        /* \"#utility.yul\":19521:19559   */\n      tag_267\n      jump\t// in\n    tag_484:\n        /* \"#utility.yul\":19605:19634   */\n      tag_485\n        /* \"#utility.yul\":19623:19633   */\n      dup5\n        /* \"#utility.yul\":19605:19634   */\n      tag_268\n      jump\t// in\n    tag_485:\n        /* \"#utility.yul\":19595:19603   */\n      dup2\n        /* \"#utility.yul\":19591:19635   */\n      add\n        /* \"#utility.yul\":19788:19790   */\n      0x20\n        /* \"#utility.yul\":19776:19786   */\n      dup6\n        /* \"#utility.yul\":19773:19791   */\n      lt\n        /* \"#utility.yul\":19770:19819   */\n      iszero\n      tag_486\n      jumpi\n        /* \"#utility.yul\":19809:19817   */\n      dup2\n        /* \"#utility.yul\":19794:19817   */\n      swap1\n      pop\n        /* \"#utility.yul\":19770:19819   */\n    tag_486:\n        /* \"#utility.yul\":19832:19912   */\n      tag_487\n        /* \"#utility.yul\":19888:19910   */\n      tag_488\n        /* \"#utility.yul\":19906:19909   */\n      dup6\n        /* \"#utility.yul\":19888:19910   */\n      tag_268\n      jump\t// in\n    tag_488:\n        /* \"#utility.yul\":19878:19886   */\n      dup4\n        /* \"#utility.yul\":19874:19911   */\n      add\n        /* \"#utility.yul\":19861:19872   */\n      dup3\n        /* \"#utility.yul\":19832:19912   */\n      tag_277\n      jump\t// in\n    tag_487:\n        /* \"#utility.yul\":19491:19922   */\n      pop\n      pop\n        /* \"#utility.yul\":19476:19922   */\n    tag_483:\n        /* \"#utility.yul\":19386:19929   */\n      pop\n      pop\n      pop\n      jump\t// out\n        /* \"#utility.yul\":19935:20052   */\n    tag_279:\n        /* \"#utility.yul\":19989:19997   */\n      0x00\n        /* \"#utility.yul\":20039:20044   */\n      dup3\n        /* \"#utility.yul\":20033:20037   */\n      dup3\n        /* \"#utility.yul\":20029:20045   */\n      shr\n        /* \"#utility.yul\":20008:20045   */\n      swap1\n      pop\n        /* \"#utility.yul\":19935:20052   */\n      swap3\n      swap2\n      pop\n      pop\n      jump\t// out\n        /* \"#utility.yul\":20058:20227   */\n    tag_280:\n        /* \"#utility.yul\":20102:20108   */\n      0x00\n        /* \"#utility.yul\":20135:20186   */\n      tag_491\n        /* \"#utility.yul\":20183:20184   */\n      0x00\n        /* \"#utility.yul\":20179:20185   */\n      not\n        /* \"#utility.yul\":20171:20176   */\n      dup5\n        /* \"#utility.yul\":20168:20169   */\n      0x08\n        /* \"#utility.yul\":20164:20177   */\n      mul\n        /* \"#utility.yul\":20135:20186   */\n      tag_279\n      jump\t// in\n    tag_491:\n        /* \"#utility.yul\":20131:20187   */\n      not\n        /* \"#utility.yul\":20216:20220   */\n      dup1\n        /* \"#utility.yul\":20210:20214   */\n      dup4\n        /* \"#utility.yul\":20206:20221   */\n      and\n        /* \"#utility.yul\":20196:20221   */\n      swap2\n      pop\n        /* \"#utility.yul\":20109:20227   */\n      pop\n        /* \"#utility.yul\":20058:20227   */\n      swap3\n      swap2\n      pop\n      pop\n      jump\t// out\n        /* \"#utility.yul\":20232:20527   */\n    tag_281:\n        /* \"#utility.yul\":20308:20312   */\n      0x00\n        /* \"#utility.yul\":20454:20483   */\n      tag_493\n        /* \"#utility.yul\":20479:20482   */\n      dup4\n        /* \"#utility.yul\":20473:20477   */\n      dup4\n        /* \"#utility.yul\":20454:20483   */\n      tag_280\n      jump\t// in\n    tag_493:\n        /* \"#utility.yul\":20446:20483   */\n      swap2\n      pop\n        /* \"#utility.yul\":20516:20519   */\n      dup3\n        /* \"#utility.yul\":20513:20514   */\n      0x02\n        /* \"#utility.yul\":20509:20520   */\n      mul\n        /* \"#utility.yul\":20503:20507   */\n      dup3\n        /* \"#utility.yul\":20500:20521   */\n      or\n        /* \"#utility.yul\":20492:20521   */\n      swap1\n      pop\n        /* \"#utility.yul\":20232:20527   */\n      swap3\n      swap2\n      pop\n      pop\n      jump\t// out\n        /* \"#utility.yul\":20532:21927   */\n    tag_88:\n        /* \"#utility.yul\":20649:20686   */\n      tag_495\n        /* \"#utility.yul\":20682:20685   */\n      dup3\n        /* \"#utility.yul\":20649:20686   */\n      tag_233\n      jump\t// in\n    tag_495:\n        /* \"#utility.yul\":20751:20769   */\n      0xffffffffffffffff\n        /* \"#utility.yul\":20743:20749   */\n      dup2\n        /* \"#utility.yul\":20740:20770   */\n      gt\n        /* \"#utility.yul\":20737:20793   */\n      iszero\n      tag_496\n      jumpi\n        /* \"#utility.yul\":20773:20791   */\n      tag_497\n      tag_148\n      jump\t// in\n    tag_497:\n        /* \"#utility.yul\":20737:20793   */\n    tag_496:\n        /* \"#utility.yul\":20817:20855   */\n      tag_498\n        /* \"#utility.yul\":20849:20853   */\n      dup3\n        /* \"#utility.yul\":20843:20854   */\n      sload\n        /* \"#utility.yul\":20817:20855   */\n      tag_50\n      jump\t// in\n    tag_498:\n        /* \"#utility.yul\":20902:20969   */\n      tag_499\n        /* \"#utility.yul\":20962:20968   */\n      dup3\n        /* \"#utility.yul\":20954:20960   */\n      dup3\n        /* \"#utility.yul\":20948:20952   */\n      dup6\n        /* \"#utility.yul\":20902:20969   */\n      tag_278\n      jump\t// in\n    tag_499:\n        /* \"#utility.yul\":20996:20997   */\n      0x00\n        /* \"#utility.yul\":21020:21024   */\n      0x20\n        /* \"#utility.yul\":21007:21024   */\n      swap1\n      pop\n        /* \"#utility.yul\":21052:21054   */\n      0x1f\n        /* \"#utility.yul\":21044:21050   */\n      dup4\n        /* \"#utility.yul\":21041:21055   */\n      gt\n        /* \"#utility.yul\":21069:21070   */\n      0x01\n        /* \"#utility.yul\":21064:21682   */\n      dup2\n      eq\n      tag_501\n      jumpi\n        /* \"#utility.yul\":21726:21727   */\n      0x00\n        /* \"#utility.yul\":21743:21749   */\n      dup5\n        /* \"#utility.yul\":21740:21817   */\n      iszero\n      tag_502\n      jumpi\n        /* \"#utility.yul\":21792:21801   */\n      dup3\n        /* \"#utility.yul\":21787:21790   */\n      dup8\n        /* \"#utility.yul\":21783:21802   */\n      add\n        /* \"#utility.yul\":21777:21803   */\n      mload\n        /* \"#utility.yul\":21768:21803   */\n      swap1\n      pop\n        /* \"#utility.yul\":21740:21817   */\n    tag_502:\n        /* \"#utility.yul\":21843:21910   */\n      tag_503\n        /* \"#utility.yul\":21903:21909   */\n      dup6\n        /* \"#utility.yul\":21896:21901   */\n      dup3\n        /* \"#utility.yul\":21843:21910   */\n      tag_281\n      jump\t// in\n    tag_503:\n        /* \"#utility.yul\":21837:21841   */\n      dup7\n        /* \"#utility.yul\":21830:21911   */\n      sstore\n        /* \"#utility.yul\":21699:21921   */\n      pop\n        /* \"#utility.yul\":21034:21921   */\n      jump(tag_500)\n        /* \"#utility.yul\":21064:21682   */\n    tag_501:\n        /* \"#utility.yul\":21116:21120   */\n      0x1f\n        /* \"#utility.yul\":21112:21121   */\n      not\n        /* \"#utility.yul\":21104:21110   */\n      dup5\n        /* \"#utility.yul\":21100:21122   */\n      and\n        /* \"#utility.yul\":21150:21187   */\n      tag_504\n        /* \"#utility.yul\":21182:21186   */\n      dup7\n        /* \"#utility.yul\":21150:21187   */\n      tag_267\n      jump\t// in\n    tag_504:\n        /* \"#utility.yul\":21209:21210   */\n      0x00\n        /* \"#utility.yul\":21223:21431   */\n    tag_505:\n        /* \"#utility.yul\":21237:21244   */\n      dup3\n        /* \"#utility.yul\":21234:21235   */\n      dup2\n        /* \"#utility.yul\":21231:21245   */\n      lt\n        /* \"#utility.yul\":21223:21431   */\n      iszero\n      tag_507\n      jumpi\n        /* \"#utility.yul\":21316:21325   */\n      dup5\n        /* \"#utility.yul\":21311:21314   */\n      dup10\n        /* \"#utility.yul\":21307:21326   */\n      add\n        /* \"#utility.yul\":21301:21327   */\n      mload\n        /* \"#utility.yul\":21293:21299   */\n      dup3\n        /* \"#utility.yul\":21286:21328   */\n      sstore\n        /* \"#utility.yul\":21367:21368   */\n      0x01\n        /* \"#utility.yul\":21359:21365   */\n      dup3\n        /* \"#utility.yul\":21355:21369   */\n      add\n        /* \"#utility.yul\":21345:21369   */\n      swap2\n      pop\n        /* \"#utility.yul\":21414:21416   */\n      0x20\n        /* \"#utility.yul\":21403:21412   */\n      dup6\n        /* \"#utility.yul\":21399:21417   */\n      add\n        /* \"#utility.yul\":21386:21417   */\n      swap5\n      pop\n        /* \"#utility.yul\":21260:21264   */\n      0x20\n        /* \"#utility.yul\":21257:21258   */\n      dup2\n        /* \"#utility.yul\":21253:21265   */\n      add\n        /* \"#utility.yul\":21248:21265   */\n      swap1\n      pop\n        /* \"#utility.yul\":21223:21431   */\n      jump(tag_505)\n    tag_507:\n        /* \"#utility.yul\":21459:21465   */\n      dup7\n        /* \"#utility.yul\":21450:21457   */\n      dup4\n        /* \"#utility.yul\":21447:21466   */\n      lt\n        /* \"#utility.yul\":21444:21623   */\n      iszero\n      tag_508\n      jumpi\n        /* \"#utility.yul\":21517:21526   */\n      dup5\n        /* \"#utility.yul\":21512:21515   */\n      dup10\n        /* \"#utility.yul\":21508:21527   */\n      add\n        /* \"#utility.yul\":21502:21528   */\n      mload\n        /* \"#utility.yul\":21560:21608   */\n      tag_509\n        /* \"#utility.yul\":21602:21606   */\n      0x1f\n        /* \"#utility.yul\":21594:21600   */\n      dup10\n        /* \"#utility.yul\":21590:21607   */\n      and\n        /* \"#utility.yul\":21579:21588   */\n      dup3\n        /* \"#utility.yul\":21560:21608   */\n      tag_280\n      jump\t// in\n    tag_509:\n        /* \"#utility.yul\":21552:21558   */\n      dup4\n        /* \"#utility.yul\":21545:21609   */\n      sstore\n        /* \"#utility.yul\":21467:21623   */\n      pop\n        /* \"#utility.yul\":21444:21623   */\n    tag_508:\n        /* \"#utility.yul\":21669:21670   */\n      0x01\n        /* \"#utility.yul\":21665:21666   */\n      0x02\n        /* \"#utility.yul\":21657:21663   */\n      dup9\n        /* \"#utility.yul\":21653:21667   */\n      mul\n        /* \"#utility.yul\":21649:21671   */\n      add\n        /* \"#utility.yul\":21643:21647   */\n      dup9\n        /* \"#utility.yul\":21636:21672   */\n      sstore\n        /* \"#utility.yul\":21071:21682   */\n      pop\n      pop\n      pop\n        /* \"#utility.yul\":21034:21921   */\n    tag_500:\n      pop\n        /* \"#utility.yul\":20624:21927   */\n      pop\n      pop\n      pop\n        /* \"#utility.yul\":20532:21927   */\n      pop\n      pop\n      jump\t// out\n        /* \"#utility.yul\":21933:22113   */\n    tag_282:\n        /* \"#utility.yul\":21981:22058   */\n      0x4e487b7100000000000000000000000000000000000000000000000000000000\n        /* \"#utility.yul\":21978:21979   */\n      0x00\n        /* \"#utility.yul\":21971:22059   */\n      mstore\n        /* \"#utility.yul\":22078:22082   */\n      0x11\n        /* \"#utility.yul\":22075:22076   */\n      0x04\n        /* \"#utility.yul\":22068:22083   */\n      mstore\n        /* \"#utility.yul\":22102:22106   */\n      0x24\n        /* \"#utility.yul\":22099:22100   */\n      0x00\n        /* \"#utility.yul\":22092:22107   */\n      revert\n        /* \"#utility.yul\":22119:22352   */\n    tag_91:\n        /* \"#utility.yul\":22158:22161   */\n      0x00\n        /* \"#utility.yul\":22181:22205   */\n      tag_512\n        /* \"#utility.yul\":22199:22204   */\n      dup3\n        /* \"#utility.yul\":22181:22205   */\n      tag_229\n      jump\t// in\n    tag_512:\n        /* \"#utility.yul\":22172:22205   */\n      swap2\n      pop\n        /* \"#utility.yul\":22227:22293   */\n      0xffffffffffffffffffffffffffffffffffffffffffffffffffffffffffffffff\n        /* \"#utility.yul\":22220:22225   */\n      dup3\n        /* \"#utility.yul\":22217:22294   */\n      sub\n        /* \"#utility.yul\":22214:22317   */\n      tag_513\n      jumpi\n        /* \"#utility.yul\":22297:22315   */\n      tag_514\n      tag_282\n      jump\t// in\n    tag_514:\n        /* \"#utility.yul\":22214:22317   */\n    tag_513:\n        /* \"#utility.yul\":22344:22345   */\n      0x01\n        /* \"#utility.yul\":22337:22342   */\n      dup3\n        /* \"#utility.yul\":22333:22346   */\n      add\n        /* \"#utility.yul\":22326:22346   */\n      swap1\n      pop\n        /* \"#utility.yul\":22119:22352   */\n      swap2\n      swap1\n      pop\n      jump\t// out\n        /* \"#utility.yul\":22358:22586   */\n    tag_283:\n        /* \"#utility.yul\":22498:22532   */\n      0x4174206c65617374206f6e652072656365697665722061646472657373206973\n        /* \"#utility.yul\":22494:22495   */\n      0x00\n        /* \"#utility.yul\":22486:22492   */\n      dup3\n        /* \"#utility.yul\":22482:22496   */\n      add\n        /* \"#utility.yul\":22475:22533   */\n      mstore\n        /* \"#utility.yul\":22567:22578   */\n      0x2072657175697265640000000000000000000000000000000000000000000000\n        /* \"#utility.yul\":22562:22564   */\n      0x20\n        /* \"#utility.yul\":22554:22560   */\n      dup3\n        /* \"#utility.yul\":22550:22565   */\n      add\n        /* \"#utility.yul\":22543:22579   */\n      mstore\n        /* \"#utility.yul\":22358:22586   */\n      pop\n      jump\t// out\n        /* \"#utility.yul\":22592:22958   */\n    tag_284:\n        /* \"#utility.yul\":22734:22737   */\n      0x00\n        /* \"#utility.yul\":22755:22822   */\n      tag_517\n        /* \"#utility.yul\":22819:22821   */\n      0x29\n        /* \"#utility.yul\":22814:22817   */\n      dup4\n        /* \"#utility.yul\":22755:22822   */\n      tag_234\n      jump\t// in\n    tag_517:\n        /* \"#utility.yul\":22748:22822   */\n      swap2\n      pop\n        /* \"#utility.yul\":22831:22924   */\n      tag_518\n        /* \"#utility.yul\":22920:22923   */\n      dup3\n        /* \"#utility.yul\":22831:22924   */\n      tag_283\n      jump\t// in\n    tag_518:\n        /* \"#utility.yul\":22949:22951   */\n      0x40\n        /* \"#utility.yul\":22944:22947   */\n      dup3\n        /* \"#utility.yul\":22940:22952   */\n      add\n        /* \"#utility.yul\":22933:22952   */\n      swap1\n      pop\n        /* \"#utility.yul\":22592:22958   */\n      swap2\n      swap1\n      pop\n      jump\t// out\n        /* \"#utility.yul\":22964:23383   */\n    tag_95:\n        /* \"#utility.yul\":23130:23134   */\n      0x00\n        /* \"#utility.yul\":23168:23170   */\n      0x20\n        /* \"#utility.yul\":23157:23166   */\n      dup3\n        /* \"#utility.yul\":23153:23171   */\n      add\n        /* \"#utility.yul\":23145:23171   */\n      swap1\n      pop\n        /* \"#utility.yul\":23217:23226   */\n      dup2\n        /* \"#utility.yul\":23211:23215   */\n      dup2\n        /* \"#utility.yul\":23207:23227   */\n      sub\n        /* \"#utility.yul\":23203:23204   */\n      0x00\n        /* \"#utility.yul\":23192:23201   */\n      dup4\n        /* \"#utility.yul\":23188:23205   */\n      add\n        /* \"#utility.yul\":23181:23228   */\n      mstore\n        /* \"#utility.yul\":23245:23376   */\n      tag_520\n        /* \"#utility.yul\":23371:23375   */\n      dup2\n        /* \"#utility.yul\":23245:23376   */\n      tag_284\n      jump\t// in\n    tag_520:\n        /* \"#utility.yul\":23237:23376   */\n      swap1\n      pop\n        /* \"#utility.yul\":22964:23383   */\n      swap2\n      swap1\n      pop\n      jump\t// out\n        /* \"#utility.yul\":23389:23569   */\n    tag_101:\n        /* \"#utility.yul\":23437:23514   */\n      0x4e487b7100000000000000000000000000000000000000000000000000000000\n        /* \"#utility.yul\":23434:23435   */\n      0x00\n        /* \"#utility.yul\":23427:23515   */\n      mstore\n        /* \"#utility.yul\":23534:23538   */\n      0x32\n        /* \"#utility.yul\":23531:23532   */\n      0x04\n        /* \"#utility.yul\":23524:23539   */\n      mstore\n        /* \"#utility.yul\":23558:23562   */\n      0x24\n        /* \"#utility.yul\":23555:23556   */\n      0x00\n        /* \"#utility.yul\":23548:23563   */\n      revert\n        /* \"#utility.yul\":23575:23756   */\n    tag_285:\n        /* \"#utility.yul\":23715:23748   */\n      0x526563656976657220616464726573732063616e6e6f74206265207a65726f00\n        /* \"#utility.yul\":23711:23712   */\n      0x00\n        /* \"#utility.yul\":23703:23709   */\n      dup3\n        /* \"#utility.yul\":23699:23713   */\n      add\n        /* \"#utility.yul\":23692:23749   */\n      mstore\n        /* \"#utility.yul\":23575:23756   */\n      pop\n      jump\t// out\n        /* \"#utility.yul\":23762:24128   */\n    tag_286:\n        /* \"#utility.yul\":23904:23907   */\n      0x00\n        /* \"#utility.yul\":23925:23992   */\n      tag_524\n        /* \"#utility.yul\":23989:23991   */\n      0x1f\n        /* \"#utility.yul\":23984:23987   */\n      dup4\n        /* \"#utility.yul\":23925:23992   */\n      tag_234\n      jump\t// in\n    tag_524:\n        /* \"#utility.yul\":23918:23992   */\n      swap2\n      pop\n        /* \"#utility.yul\":24001:24094   */\n      tag_525\n        /* \"#utility.yul\":24090:24093   */\n      dup3\n        /* \"#utility.yul\":24001:24094   */\n      tag_285\n      jump\t// in\n    tag_525:\n        /* \"#utility.yul\":24119:24121   */\n      0x20\n        /* \"#utility.yul\":24114:24117   */\n      dup3\n        /* \"#utility.yul\":24110:24122   */\n      add\n        /* \"#utility.yul\":24103:24122   */\n      swap1\n      pop\n        /* \"#utility.yul\":23762:24128   */\n      swap2\n      swap1\n      pop\n      jump\t// out\n        /* \"#utility.yul\":24134:24553   */\n    tag_120:\n        /* \"#utility.yul\":24300:24304   */\n      0x00\n        /* \"#utility.yul\":24338:24340   */\n      0x20\n        /* \"#utility.yul\":24327:24336   */\n      dup3\n        /* \"#utility.yul\":24323:24341   */\n      add\n        /* \"#utility.yul\":24315:24341   */\n      swap1\n      pop\n        /* \"#utility.yul\":24387:24396   */\n      dup2\n        /* \"#utility.yul\":24381:24385   */\n      dup2\n        /* \"#utility.yul\":24377:24397   */\n      sub\n        /* \"#utility.yul\":24373:24374   */\n      0x00\n        /* \"#utility.yul\":24362:24371   */\n      dup4\n        /* \"#utility.yul\":24358:24375   */\n      add\n        /* \"#utility.yul\":24351:24398   */\n      mstore\n        /* \"#utility.yul\":24415:24546   */\n      tag_527\n        /* \"#utility.yul\":24541:24545   */\n      dup2\n        /* \"#utility.yul\":24415:24546   */\n      tag_286\n      jump\t// in\n    tag_527:\n        /* \"#utility.yul\":24407:24546   */\n      swap1\n      pop\n        /* \"#utility.yul\":24134:24553   */\n      swap2\n      swap1\n      pop\n      jump\t// out\n        /* \"#utility.yul\":24559:24741   */\n    tag_287:\n        /* \"#utility.yul\":24699:24733   */\n      0x43616e6e6f742073656e6420616e20656d61696c20746f20796f757273656c66\n        /* \"#utility.yul\":24695:24696   */\n      0x00\n        /* \"#utility.yul\":24687:24693   */\n      dup3\n        /* \"#utility.yul\":24683:24697   */\n      add\n        /* \"#utility.yul\":24676:24734   */\n      mstore\n        /* \"#utility.yul\":24559:24741   */\n      pop\n      jump\t// out\n        /* \"#utility.yul\":24747:25113   */\n    tag_288:\n        /* \"#utility.yul\":24889:24892   */\n      0x00\n        /* \"#utility.yul\":24910:24977   */\n      tag_530\n        /* \"#utility.yul\":24974:24976   */\n      0x20\n        /* \"#utility.yul\":24969:24972   */\n      dup4\n        /* \"#utility.yul\":24910:24977   */\n      tag_234\n      jump\t// in\n    tag_530:\n        /* \"#utility.yul\":24903:24977   */\n      swap2\n      pop\n        /* \"#utility.yul\":24986:25079   */\n      tag_531\n        /* \"#utility.yul\":25075:25078   */\n      dup3\n        /* \"#utility.yul\":24986:25079   */\n      tag_287\n      jump\t// in\n    tag_531:\n        /* \"#utility.yul\":25104:25106   */\n      0x20\n        /* \"#utility.yul\":25099:25102   */\n      dup3\n        /* \"#utility.yul\":25095:25107   */\n      add\n        /* \"#utility.yul\":25088:25107   */\n      swap1\n      pop\n        /* \"#utility.yul\":24747:25113   */\n      swap2\n      swap1\n      pop\n      jump\t// out\n        /* \"#utility.yul\":25119:25538   */\n    tag_123:\n        /* \"#utility.yul\":25285:25289   */\n      0x00\n        /* \"#utility.yul\":25323:25325   */\n      0x20\n        /* \"#utility.yul\":25312:25321   */\n      dup3\n        /* \"#utility.yul\":25308:25326   */\n      add\n        /* \"#utility.yul\":25300:25326   */\n      swap1\n      pop\n        /* \"#utility.yul\":25372:25381   */\n      dup2\n        /* \"#utility.yul\":25366:25370   */\n      dup2\n        /* \"#utility.yul\":25362:25382   */\n      sub\n        /* \"#utility.yul\":25358:25359   */\n      0x00\n        /* \"#utility.yul\":25347:25356   */\n      dup4\n        /* \"#utility.yul\":25343:25360   */\n      add\n        /* \"#utility.yul\":25336:25383   */\n      mstore\n        /* \"#utility.yul\":25400:25531   */\n      tag_533\n        /* \"#utility.yul\":25526:25530   */\n      dup2\n        /* \"#utility.yul\":25400:25531   */\n      tag_288\n      jump\t// in\n    tag_533:\n        /* \"#utility.yul\":25392:25531   */\n      swap1\n      pop\n        /* \"#utility.yul\":25119:25538   */\n      swap2\n      swap1\n      pop\n      jump\t// out\n        /* \"#utility.yul\":25544:25967   */\n    tag_131:\n        /* \"#utility.yul\":25685:25689   */\n      0x00\n        /* \"#utility.yul\":25723:25725   */\n      0x40\n        /* \"#utility.yul\":25712:25721   */\n      dup3\n        /* \"#utility.yul\":25708:25726   */\n      add\n        /* \"#utility.yul\":25700:25726   */\n      swap1\n      pop\n        /* \"#utility.yul\":25772:25781   */\n      dup2\n        /* \"#utility.yul\":25766:25770   */\n      dup2\n        /* \"#utility.yul\":25762:25782   */\n      sub\n        /* \"#utility.yul\":25758:25759   */\n      0x00\n        /* \"#utility.yul\":25747:25756   */\n      dup4\n        /* \"#utility.yul\":25743:25760   */\n      add\n        /* \"#utility.yul\":25736:25783   */\n      mstore\n        /* \"#utility.yul\":25800:25878   */\n      tag_535\n        /* \"#utility.yul\":25873:25877   */\n      dup2\n        /* \"#utility.yul\":25864:25870   */\n      dup6\n        /* \"#utility.yul\":25800:25878   */\n      tag_237\n      jump\t// in\n    tag_535:\n        /* \"#utility.yul\":25792:25878   */\n      swap1\n      pop\n        /* \"#utility.yul\":25888:25960   */\n      tag_536\n        /* \"#utility.yul\":25956:25958   */\n      0x20\n        /* \"#utility.yul\":25945:25954   */\n      dup4\n        /* \"#utility.yul\":25941:25959   */\n      add\n        /* \"#utility.yul\":25932:25938   */\n      dup5\n        /* \"#utility.yul\":25888:25960   */\n      tag_238\n      jump\t// in\n    tag_536:\n        /* \"#utility.yul\":25544:25967   */\n      swap4\n      swap3\n      pop\n      pop\n      pop\n      jump\t// out\n        /* \"#utility.yul\":25973:26136   */\n    tag_289:\n        /* \"#utility.yul\":26113:26128   */\n      0x496e76616c696420696e64657800000000000000000000000000000000000000\n        /* \"#utility.yul\":26109:26110   */\n      0x00\n        /* \"#utility.yul\":26101:26107   */\n      dup3\n        /* \"#utility.yul\":26097:26111   */\n      add\n        /* \"#utility.yul\":26090:26129   */\n      mstore\n        /* \"#utility.yul\":25973:26136   */\n      pop\n      jump\t// out\n        /* \"#utility.yul\":26142:26508   */\n    tag_290:\n        /* \"#utility.yul\":26284:26287   */\n      0x00\n        /* \"#utility.yul\":26305:26372   */\n      tag_539\n        /* \"#utility.yul\":26369:26371   */\n      0x0d\n        /* \"#utility.yul\":26364:26367   */\n      dup4\n        /* \"#utility.yul\":26305:26372   */\n      tag_234\n      jump\t// in\n    tag_539:\n        /* \"#utility.yul\":26298:26372   */\n      swap2\n      pop\n        /* \"#utility.yul\":26381:26474   */\n      tag_540\n        /* \"#utility.yul\":26470:26473   */\n      dup3\n        /* \"#utility.yul\":26381:26474   */\n      tag_289\n      jump\t// in\n    tag_540:\n        /* \"#utility.yul\":26499:26501   */\n      0x20\n        /* \"#utility.yul\":26494:26497   */\n      dup3\n        /* \"#utility.yul\":26490:26502   */\n      add\n        /* \"#utility.yul\":26483:26502   */\n      swap1\n      pop\n        /* \"#utility.yul\":26142:26508   */\n      swap2\n      swap1\n      pop\n      jump\t// out\n        /* \"#utility.yul\":26514:26933   */\n    tag_168:\n        /* \"#utility.yul\":26680:26684   */\n      0x00\n        /* \"#utility.yul\":26718:26720   */\n      0x20\n        /* \"#utility.yul\":26707:26716   */\n      dup3\n        /* \"#utility.yul\":26703:26721   */\n      add\n        /* \"#utility.yul\":26695:26721   */\n      swap1\n      pop\n        /* \"#utility.yul\":26767:26776   */\n      dup2\n        /* \"#utility.yul\":26761:26765   */\n      dup2\n        /* \"#utility.yul\":26757:26777   */\n      sub\n        /* \"#utility.yul\":26753:26754   */\n      0x00\n        /* \"#utility.yul\":26742:26751   */\n      dup4\n        /* \"#utility.yul\":26738:26755   */\n      add\n        /* \"#utility.yul\":26731:26778   */\n      mstore\n        /* \"#utility.yul\":26795:26926   */\n      tag_542\n        /* \"#utility.yul\":26921:26925   */\n      dup2\n        /* \"#utility.yul\":26795:26926   */\n      tag_290\n      jump\t// in\n    tag_542:\n        /* \"#utility.yul\":26787:26926   */\n      swap1\n      pop\n        /* \"#utility.yul\":26514:26933   */\n      swap2\n      swap1\n      pop\n      jump\t// out\n        /* \"#utility.yul\":26939:27133   */\n    tag_173:\n        /* \"#utility.yul\":26979:26983   */\n      0x00\n        /* \"#utility.yul\":26999:27019   */\n      tag_544\n        /* \"#utility.yul\":27017:27018   */\n      dup3\n        /* \"#utility.yul\":26999:27019   */\n      tag_229\n      jump\t// in\n    tag_544:\n        /* \"#utility.yul\":26994:27019   */\n      swap2\n      pop\n        /* \"#utility.yul\":27033:27053   */\n      tag_545\n        /* \"#utility.yul\":27051:27052   */\n      dup4\n        /* \"#utility.yul\":27033:27053   */\n      tag_229\n      jump\t// in\n    tag_545:\n        /* \"#utility.yul\":27028:27053   */\n      swap3\n      pop\n        /* \"#utility.yul\":27077:27078   */\n      dup3\n        /* \"#utility.yul\":27074:27075   */\n      dup3\n        /* \"#utility.yul\":27070:27079   */\n      sub\n        /* \"#utility.yul\":27062:27079   */\n      swap1\n      pop\n        /* \"#utility.yul\":27101:27102   */\n      dup2\n        /* \"#utility.yul\":27095:27099   */\n      dup2\n        /* \"#utility.yul\":27092:27103   */\n      gt\n        /* \"#utility.yul\":27089:27126   */\n      iszero\n      tag_546\n      jumpi\n        /* \"#utility.yul\":27106:27124   */\n      tag_547\n      tag_282\n      jump\t// in\n    tag_547:\n        /* \"#utility.yul\":27089:27126   */\n    tag_546:\n        /* \"#utility.yul\":26939:27133   */\n      swap3\n      swap2\n      pop\n      pop\n      jump\t// out\n        /* \"#utility.yul\":27139:27330   */\n    tag_175:\n        /* \"#utility.yul\":27179:27182   */\n      0x00\n        /* \"#utility.yul\":27198:27218   */\n      tag_549\n        /* \"#utility.yul\":27216:27217   */\n      dup3\n        /* \"#utility.yul\":27198:27218   */\n      tag_229\n      jump\t// in\n    tag_549:\n        /* \"#utility.yul\":27193:27218   */\n      swap2\n      pop\n        /* \"#utility.yul\":27232:27252   */\n      tag_550\n        /* \"#utility.yul\":27250:27251   */\n      dup4\n        /* \"#utility.yul\":27232:27252   */\n      tag_229\n      jump\t// in\n    tag_550:\n        /* \"#utility.yul\":27227:27252   */\n      swap3\n      pop\n        /* \"#utility.yul\":27275:27276   */\n      dup3\n        /* \"#utility.yul\":27272:27273   */\n      dup3\n        /* \"#utility.yul\":27268:27277   */\n      add\n        /* \"#utility.yul\":27261:27277   */\n      swap1\n      pop\n        /* \"#utility.yul\":27296:27299   */\n      dup1\n        /* \"#utility.yul\":27293:27294   */\n      dup3\n        /* \"#utility.yul\":27290:27300   */\n      gt\n        /* \"#utility.yul\":27287:27323   */\n      iszero\n      tag_551\n      jumpi\n        /* \"#utility.yul\":27303:27321   */\n      tag_552\n      tag_282\n      jump\t// in\n    tag_552:\n        /* \"#utility.yul\":27287:27323   */\n    tag_551:\n        /* \"#utility.yul\":27139:27330   */\n      swap3\n      swap2\n      pop\n      pop\n      jump\t// out\n        /* \"#utility.yul\":27336:27485   */\n    tag_291:\n        /* \"#utility.yul\":27385:27391   */\n      0x00\n        /* \"#utility.yul\":27419:27424   */\n      dup2\n        /* \"#utility.yul\":27413:27425   */\n      sload\n        /* \"#utility.yul\":27403:27425   */\n      swap1\n      pop\n        /* \"#utility.yul\":27445:27478   */\n      tag_554\n        /* \"#utility.yul\":27471:27477   */\n      dup2\n        /* \"#utility.yul\":27445:27478   */\n      tag_50\n      jump\t// in\n    tag_554:\n        /* \"#utility.yul\":27435:27478   */\n      swap1\n      pop\n        /* \"#utility.yul\":27336:27485   */\n      swap2\n      swap1\n      pop\n      jump\t// out\n        /* \"#utility.yul\":27491:28942   */\n    tag_183:\n        /* \"#utility.yul\":27602:27605   */\n      dup2\n        /* \"#utility.yul\":27596:27600   */\n      dup2\n        /* \"#utility.yul\":27593:27606   */\n      sub\n        /* \"#utility.yul\":27590:27616   */\n      tag_556\n      jumpi\n        /* \"#utility.yul\":27609:27614   */\n      pop\n      pop\n      jump(tag_555)\n        /* \"#utility.yul\":27590:27616   */\n    tag_556:\n        /* \"#utility.yul\":27640:27674   */\n      tag_557\n        /* \"#utility.yul\":27670:27673   */\n      dup3\n        /* \"#utility.yul\":27640:27674   */\n      tag_291\n      jump\t// in\n    tag_557:\n        /* \"#utility.yul\":27739:27757   */\n      0xffffffffffffffff\n        /* \"#utility.yul\":27731:27737   */\n      dup2\n        /* \"#utility.yul\":27728:27758   */\n      gt\n        /* \"#utility.yul\":27725:27781   */\n      iszero\n      tag_558\n      jumpi\n        /* \"#utility.yul\":27761:27779   */\n      tag_559\n      tag_148\n      jump\t// in\n    tag_559:\n        /* \"#utility.yul\":27725:27781   */\n    tag_558:\n        /* \"#utility.yul\":27805:27843   */\n      tag_560\n        /* \"#utility.yul\":27837:27841   */\n      dup3\n        /* \"#utility.yul\":27831:27842   */\n      sload\n        /* \"#utility.yul\":27805:27843   */\n      tag_50\n      jump\t// in\n    tag_560:\n        /* \"#utility.yul\":27890:27957   */\n      tag_561\n        /* \"#utility.yul\":27950:27956   */\n      dup3\n        /* \"#utility.yul\":27942:27948   */\n      dup3\n        /* \"#utility.yul\":27936:27940   */\n      dup6\n        /* \"#utility.yul\":27890:27957   */\n      tag_278\n      jump\t// in\n    tag_561:\n        /* \"#utility.yul\":27984:27985   */\n      0x00\n        /* \"#utility.yul\":28013:28015   */\n      0x1f\n        /* \"#utility.yul\":28005:28011   */\n      dup4\n        /* \"#utility.yul\":28002:28016   */\n      gt\n        /* \"#utility.yul\":28030:28031   */\n      0x01\n        /* \"#utility.yul\":28025:28697   */\n      dup2\n      eq\n      tag_563\n      jumpi\n        /* \"#utility.yul\":28741:28742   */\n      0x00\n        /* \"#utility.yul\":28758:28764   */\n      dup5\n        /* \"#utility.yul\":28755:28832   */\n      iszero\n      tag_564\n      jumpi\n        /* \"#utility.yul\":28807:28816   */\n      dup3\n        /* \"#utility.yul\":28802:28805   */\n      dup8\n        /* \"#utility.yul\":28798:28817   */\n      add\n        /* \"#utility.yul\":28792:28818   */\n      sload\n        /* \"#utility.yul\":28783:28818   */\n      swap1\n      pop\n        /* \"#utility.yul\":28755:28832   */\n    tag_564:\n        /* \"#utility.yul\":28858:28925   */\n      tag_565\n        /* \"#utility.yul\":28918:28924   */\n      dup6\n        /* \"#utility.yul\":28911:28916   */\n      dup3\n        /* \"#utility.yul\":28858:28925   */\n      tag_281\n      jump\t// in\n    tag_565:\n        /* \"#utility.yul\":28852:28856   */\n      dup7\n        /* \"#utility.yul\":28845:28926   */\n      sstore\n        /* \"#utility.yul\":28714:28936   */\n      pop\n        /* \"#utility.yul\":27995:28936   */\n      jump(tag_562)\n        /* \"#utility.yul\":28025:28697   */\n    tag_563:\n        /* \"#utility.yul\":28077:28081   */\n      0x1f\n        /* \"#utility.yul\":28073:28082   */\n      not\n        /* \"#utility.yul\":28065:28071   */\n      dup5\n        /* \"#utility.yul\":28061:28083   */\n      and\n        /* \"#utility.yul\":28103:28139   */\n      tag_566\n        /* \"#utility.yul\":28135:28138   */\n      dup8\n        /* \"#utility.yul\":28103:28139   */\n      tag_267\n      jump\t// in\n    tag_566:\n        /* \"#utility.yul\":28096:28139   */\n      swap7\n      pop\n        /* \"#utility.yul\":28166:28203   */\n      tag_567\n        /* \"#utility.yul\":28198:28202   */\n      dup7\n        /* \"#utility.yul\":28166:28203   */\n      tag_267\n      jump\t// in\n    tag_567:\n        /* \"#utility.yul\":28225:28226   */\n      0x00\n        /* \"#utility.yul\":28239:28446   */\n    tag_568:\n        /* \"#utility.yul\":28253:28260   */\n      dup3\n        /* \"#utility.yul\":28250:28251   */\n      dup2\n        /* \"#utility.yul\":28247:28261   */\n      lt\n        /* \"#utility.yul\":28239:28446   */\n      iszero\n      tag_570\n      jumpi\n        /* \"#utility.yul\":28332:28341   */\n      dup5\n        /* \"#utility.yul\":28327:28330   */\n      dup10\n        /* \"#utility.yul\":28323:28342   */\n      add\n        /* \"#utility.yul\":28317:28343   */\n      sload\n        /* \"#utility.yul\":28309:28315   */\n      dup3\n        /* \"#utility.yul\":28302:28344   */\n      sstore\n        /* \"#utility.yul\":28383:28384   */\n      0x01\n        /* \"#utility.yul\":28375:28381   */\n      dup3\n        /* \"#utility.yul\":28371:28385   */\n      add\n        /* \"#utility.yul\":28361:28385   */\n      swap2\n      pop\n        /* \"#utility.yul\":28430:28431   */\n      0x01\n        /* \"#utility.yul\":28419:28428   */\n      dup6\n        /* \"#utility.yul\":28415:28432   */\n      add\n        /* \"#utility.yul\":28402:28432   */\n      swap5\n      pop\n        /* \"#utility.yul\":28276:28280   */\n      0x20\n        /* \"#utility.yul\":28273:28274   */\n      dup2\n        /* \"#utility.yul\":28269:28281   */\n      add\n        /* \"#utility.yul\":28264:28281   */\n      swap1\n      pop\n        /* \"#utility.yul\":28239:28446   */\n      jump(tag_568)\n    tag_570:\n        /* \"#utility.yul\":28474:28480   */\n      dup7\n        /* \"#utility.yul\":28465:28472   */\n      dup4\n        /* \"#utility.yul\":28462:28481   */\n      lt\n        /* \"#utility.yul\":28459:28638   */\n      iszero\n      tag_571\n      jumpi\n        /* \"#utility.yul\":28532:28541   */\n      dup5\n        /* \"#utility.yul\":28527:28530   */\n      dup10\n        /* \"#utility.yul\":28523:28542   */\n      add\n        /* \"#utility.yul\":28517:28543   */\n      sload\n        /* \"#utility.yul\":28575:28623   */\n      tag_572\n        /* \"#utility.yul\":28617:28621   */\n      0x1f\n        /* \"#utility.yul\":28609:28615   */\n      dup10\n        /* \"#utility.yul\":28605:28622   */\n      and\n        /* \"#utility.yul\":28594:28603   */\n      dup3\n        /* \"#utility.yul\":28575:28623   */\n      tag_280\n      jump\t// in\n    tag_572:\n        /* \"#utility.yul\":28567:28573   */\n      dup4\n        /* \"#utility.yul\":28560:28624   */\n      sstore\n        /* \"#utility.yul\":28482:28638   */\n      pop\n        /* \"#utility.yul\":28459:28638   */\n    tag_571:\n        /* \"#utility.yul\":28684:28685   */\n      0x01\n        /* \"#utility.yul\":28680:28681   */\n      0x02\n        /* \"#utility.yul\":28672:28678   */\n      dup9\n        /* \"#utility.yul\":28668:28682   */\n      mul\n        /* \"#utility.yul\":28664:28686   */\n      add\n        /* \"#utility.yul\":28658:28662   */\n      dup9\n        /* \"#utility.yul\":28651:28687   */\n      sstore\n        /* \"#utility.yul\":28032:28697   */\n      pop\n      pop\n      pop\n        /* \"#utility.yul\":27995:28936   */\n    tag_562:\n      pop\n        /* \"#utility.yul\":27580:28942   */\n      pop\n      pop\n      pop\n        /* \"#utility.yul\":27491:28942   */\n      pop\n      pop\n    tag_555:\n      jump\t// out\n        /* \"#utility.yul\":28948:29128   */\n    tag_188:\n        /* \"#utility.yul\":28996:29073   */\n      0x4e487b7100000000000000000000000000000000000000000000000000000000\n        /* \"#utility.yul\":28993:28994   */\n      0x00\n        /* \"#utility.yul\":28986:29074   */\n      mstore\n        /* \"#utility.yul\":29093:29097   */\n      0x31\n        /* \"#utility.yul\":29090:29091   */\n      0x04\n        /* \"#utility.yul\":29083:29098   */\n      mstore\n        /* \"#utility.yul\":29117:29121   */\n      0x24\n        /* \"#utility.yul\":29114:29115   */\n      0x00\n        /* \"#utility.yul\":29107:29122   */\n      revert\n        /* \"#utility.yul\":29134:29314   */\n    tag_292:\n        /* \"#utility.yul\":29182:29259   */\n      0x4e487b7100000000000000000000000000000000000000000000000000000000\n        /* \"#utility.yul\":29179:29180   */\n      0x00\n        /* \"#utility.yul\":29172:29260   */\n      mstore\n        /* \"#utility.yul\":29279:29283   */\n      0x12\n        /* \"#utility.yul\":29276:29277   */\n      0x04\n        /* \"#utility.yul\":29269:29284   */\n      mstore\n        /* \"#utility.yul\":29303:29307   */\n      0x24\n        /* \"#utility.yul\":29300:29301   */\n      0x00\n        /* \"#utility.yul\":29293:29308   */\n      revert\n        /* \"#utility.yul\":29320:29505   */\n    tag_199:\n        /* \"#utility.yul\":29360:29361   */\n      0x00\n        /* \"#utility.yul\":29377:29397   */\n      tag_576\n        /* \"#utility.yul\":29395:29396   */\n      dup3\n        /* \"#utility.yul\":29377:29397   */\n      tag_229\n      jump\t// in\n    tag_576:\n        /* \"#utility.yul\":29372:29397   */\n      swap2\n      pop\n        /* \"#utility.yul\":29411:29431   */\n      tag_577\n        /* \"#utility.yul\":29429:29430   */\n      dup4\n        /* \"#utility.yul\":29411:29431   */\n      tag_229\n      jump\t// in\n    tag_577:\n        /* \"#utility.yul\":29406:29431   */\n      swap3\n      pop\n        /* \"#utility.yul\":29450:29451   */\n      dup3\n        /* \"#utility.yul\":29440:29475   */\n      tag_578\n      jumpi\n        /* \"#utility.yul\":29455:29473   */\n      tag_579\n      tag_292\n      jump\t// in\n    tag_579:\n        /* \"#utility.yul\":29440:29475   */\n    tag_578:\n        /* \"#utility.yul\":29497:29498   */\n      dup3\n        /* \"#utility.yul\":29494:29495   */\n      dup3\n        /* \"#utility.yul\":29490:29499   */\n      div\n        /* \"#utility.yul\":29485:29499   */\n      swap1\n      pop\n        /* \"#utility.yul\":29320:29505   */\n      swap3\n      swap2\n      pop\n      pop\n      jump\t// out\n        /* \"#utility.yul\":29511:29921   */\n    tag_208:\n        /* \"#utility.yul\":29551:29558   */\n      0x00\n        /* \"#utility.yul\":29574:29594   */\n      tag_581\n        /* \"#utility.yul\":29592:29593   */\n      dup3\n        /* \"#utility.yul\":29574:29594   */\n      tag_229\n      jump\t// in\n    tag_581:\n        /* \"#utility.yul\":29569:29594   */\n      swap2\n      pop\n        /* \"#utility.yul\":29608:29628   */\n      tag_582\n        /* \"#utility.yul\":29626:29627   */\n      dup4\n        /* \"#utility.yul\":29608:29628   */\n      tag_229\n      jump\t// in\n    tag_582:\n        /* \"#utility.yul\":29603:29628   */\n      swap3\n      pop\n        /* \"#utility.yul\":29663:29664   */\n      dup3\n        /* \"#utility.yul\":29660:29661   */\n      dup3\n        /* \"#utility.yul\":29656:29665   */\n      mul\n        /* \"#utility.yul\":29685:29715   */\n      tag_583\n        /* \"#utility.yul\":29703:29714   */\n      dup2\n        /* \"#utility.yul\":29685:29715   */\n      tag_229\n      jump\t// in\n    tag_583:\n        /* \"#utility.yul\":29674:29715   */\n      swap2\n      pop\n        /* \"#utility.yul\":29864:29865   */\n      dup3\n        /* \"#utility.yul\":29855:29862   */\n      dup3\n        /* \"#utility.yul\":29851:29866   */\n      div\n        /* \"#utility.yul\":29848:29849   */\n      dup5\n        /* \"#utility.yul\":29845:29867   */\n      eq\n        /* \"#utility.yul\":29825:29826   */\n      dup4\n        /* \"#utility.yul\":29818:29827   */\n      iszero\n        /* \"#utility.yul\":29798:29881   */\n      or\n        /* \"#utility.yul\":29775:29914   */\n      tag_584\n      jumpi\n        /* \"#utility.yul\":29894:29912   */\n      tag_585\n      tag_282\n      jump\t// in\n    tag_585:\n        /* \"#utility.yul\":29775:29914   */\n    tag_584:\n        /* \"#utility.yul\":29559:29921   */\n      pop\n        /* \"#utility.yul\":29511:29921   */\n      swap3\n      swap2\n      pop\n      pop\n      jump\t// out\n        /* \"#utility.yul\":29927:30013   */\n    tag_293:\n        /* \"#utility.yul\":29962:29969   */\n      0x00\n        /* \"#utility.yul\":30002:30006   */\n      0xff\n        /* \"#utility.yul\":29995:30000   */\n      dup3\n        /* \"#utility.yul\":29991:30007   */\n      and\n        /* \"#utility.yul\":29980:30007   */\n      swap1\n      pop\n        /* \"#utility.yul\":29927:30013   */\n      swap2\n      swap1\n      pop\n      jump\t// out\n        /* \"#utility.yul\":30019:30207   */\n    tag_211:\n        /* \"#utility.yul\":30057:30060   */\n      0x00\n        /* \"#utility.yul\":30076:30094   */\n      tag_588\n        /* \"#utility.yul\":30092:30093   */\n      dup3\n        /* \"#utility.yul\":30076:30094   */\n      tag_293\n      jump\t// in\n    tag_588:\n        /* \"#utility.yul\":30071:30094   */\n      swap2\n      pop\n        /* \"#utility.yul\":30108:30126   */\n      tag_589\n        /* \"#utility.yul\":30124:30125   */\n      dup4\n        /* \"#utility.yul\":30108:30126   */\n      tag_293\n      jump\t// in\n    tag_589:\n        /* \"#utility.yul\":30103:30126   */\n      swap3\n      pop\n        /* \"#utility.yul\":30149:30150   */\n      dup3\n        /* \"#utility.yul\":30146:30147   */\n      dup3\n        /* \"#utility.yul\":30142:30151   */\n      add\n        /* \"#utility.yul\":30135:30151   */\n      swap1\n      pop\n        /* \"#utility.yul\":30172:30176   */\n      0xff\n        /* \"#utility.yul\":30167:30170   */\n      dup2\n        /* \"#utility.yul\":30164:30177   */\n      gt\n        /* \"#utility.yul\":30161:30200   */\n      iszero\n      tag_590\n      jumpi\n        /* \"#utility.yul\":30180:30198   */\n      tag_591\n      tag_282\n      jump\t// in\n    tag_591:\n        /* \"#utility.yul\":30161:30200   */\n    tag_590:\n        /* \"#utility.yul\":30019:30207   */\n      swap3\n      swap2\n      pop\n      pop\n      jump\t// out\n\n    auxdata: 0xa2646970667358221220e47bd91ae9ac60e19f1f0f328f2560664229577ed69ebb7967c0b8da273f4bd364736f6c63430008120033\n}\n",
				"bytecode": {
					"linkReferences": {},
					"object": "6080604052604051806040016040528073ab8483f64d9c6d1ecf9b849ae677dd3315835cb273ffffffffffffffffffffffffffffffffffffffff1673ffffffffffffffffffffffffffffffffffffffff168152602001734b20993bc481177ec7e8f571cecae8a9e22c02db73ffffffffffffffffffffffffffffffffffffffff1673ffffffffffffffffffffffffffffffffffffffff168152506002906002620000ab929190620000c0565b50348015620000b957600080fd5b506200016e565b8280548282559060005260206000209081019282156200013c579160200282015b828111156200013b5782518260006101000a81548173ffffffffffffffffffffffffffffffffffffffff021916908373ffffffffffffffffffffffffffffffffffffffff16021790555091602001919060010190620000e1565b5b5090506200014b91906200014f565b5090565b5b808211156200016a57600081600090555060010162000150565b5090565b6129c9806200017e6000396000f3fe608060405234801561001057600080fd5b50600436106100885760003560e01c80638a8875411161005b5780638a8875411461012d5780638bb898791461015e578063aa1d2c9c1461017a578063c401f55f1461019857610088565b80633bcb2e661461008d5780634d622e7a146100c15780635384ea9a146100f55780635fc25d8b14610111575b600080fd5b6100a760048036038101906100a29190611a13565b6101b4565b6040516100b8959493929190611b01565b60405180910390f35b6100db60048036038101906100d69190611a13565b610357565b6040516100ec959493929190611b01565b60405180910390f35b61010f600480360381019061010a9190611a13565b6104fa565b005b61012b60048036038101906101269190611c97565b61073a565b005b61014760048036038101906101429190611d0f565b610b65565b604051610155929190611d3c565b60405180910390f35b61017860048036038101906101739190611d65565b610bf6565b005b610182610ff4565b60405161018f9190611f97565b60405180910390f35b6101b260048036038101906101ad9190611fb9565b61138c565b005b600160205281600052604060002081815481106101d057600080fd5b9060005260206000209060050201600091509150508060000160009054906101000a900473ffffffffffffffffffffffffffffffffffffffff16908060010160009054906101000a900473ffffffffffffffffffffffffffffffffffffffff169080600201805461024090612015565b80601f016020809104026020016040519081016040528092919081815260200182805461026c90612015565b80156102b95780601f1061028e576101008083540402835291602001916102b9565b820191906000526020600020905b81548152906001019060200180831161029c57829003601f168201915b5050505050908060030180546102ce90612015565b80601f01602080910402602001604051908101604052809291908181526020018280546102fa90612015565b80156103475780601f1061031c57610100808354040283529160200191610347565b820191906000526020600020905b81548152906001019060200180831161032a57829003601f168201915b5050505050908060040154905085565b6000602052816000526040600020818154811061037357600080fd5b9060005260206000209060050201600091509150508060000160009054906101000a900473ffffffffffffffffffffffffffffffffffffffff16908060010160009054906101000a900473ffffffffffffffffffffffffffffffffffffffff16908060020180546103e390612015565b80601f016020809104026020016040519081016040528092919081815260200182805461040f90612015565b801561045c5780601f106104315761010080835404028352916020019161045c565b820191906000526020600020905b81548152906001019060200180831161043f57829003601f168201915b50505050509080600301805461047190612015565b80601f016020809104026020016040519081016040528092919081815260200182805461049d90612015565b80156104ea5780601f106104bf576101008083540402835291602001916104ea565b820191906000526020600020905b8154815290600101906020018083116104cd57829003601f168201915b5050505050908060040154905085565b6000811161053d576040517f08c379a0000000000000000000000000000000000000000000000000000000008152600401610534906120b8565b60405180910390fd5b60005b818110156107355760006105538261172b565b6040516020016105639190612160565b6040516020818303038152906040529050600061057f8361172b565b60405160200161058f91906121ce565b60405160208183030381529060405290506000808673ffffffffffffffffffffffffffffffffffffffff1673ffffffffffffffffffffffffffffffffffffffff1681526020019081526020016000206040518060a001604052803373ffffffffffffffffffffffffffffffffffffffff1681526020018773ffffffffffffffffffffffffffffffffffffffff16815260200184815260200183815260200142815250908060018154018082558091505060019003906000526020600020906005020160009091909190915060008201518160000160006101000a81548173ffffffffffffffffffffffffffffffffffffffff021916908373ffffffffffffffffffffffffffffffffffffffff16021790555060208201518160010160006101000a81548173ffffffffffffffffffffffffffffffffffffffff021916908373ffffffffffffffffffffffffffffffffffffffff16021790555060408201518160020190816106fd919061239c565b506060820151816003019081610713919061239c565b506080820151816004015550505050808061072d9061249d565b915050610540565b505050565b600060028054905011610782576040517f08c379a000000000000000000000000000000000000000000000000000000000815260040161077990612557565b60405180910390fd5b60005b600280549050811015610b6057600080600283815481106107a9576107a8612577565b5b9060005260206000200160009054906101000a900473ffffffffffffffffffffffffffffffffffffffff1673ffffffffffffffffffffffffffffffffffffffff1673ffffffffffffffffffffffffffffffffffffffff1681526020019081526020016000206040518060a001604052803373ffffffffffffffffffffffffffffffffffffffff1681526020016002848154811061084957610848612577565b5b9060005260206000200160009054906101000a900473ffffffffffffffffffffffffffffffffffffffff1673ffffffffffffffffffffffffffffffffffffffff16815260200185815260200184815260200142815250908060018154018082558091505060019003906000526020600020906005020160009091909190915060008201518160000160006101000a81548173ffffffffffffffffffffffffffffffffffffffff021916908373ffffffffffffffffffffffffffffffffffffffff16021790555060208201518160010160006101000a81548173ffffffffffffffffffffffffffffffffffffffff021916908373ffffffffffffffffffffffffffffffffffffffff160217905550604082015181600201908161096b919061239c565b506060820151816003019081610981919061239c565b50608082015181600401555050600160003373ffffffffffffffffffffffffffffffffffffffff1673ffffffffffffffffffffffffffffffffffffffff1681526020019081526020016000206040518060a001604052803373ffffffffffffffffffffffffffffffffffffffff16815260200160028481548110610a0857610a07612577565b5b9060005260206000200160009054906101000a900473ffffffffffffffffffffffffffffffffffffffff1673ffffffffffffffffffffffffffffffffffffffff16815260200185815260200184815260200142815250908060018154018082558091505060019003906000526020600020906005020160009091909190915060008201518160000160006101000a81548173ffffffffffffffffffffffffffffffffffffffff021916908373ffffffffffffffffffffffffffffffffffffffff16021790555060208201518160010160006101000a81548173ffffffffffffffffffffffffffffffffffffffff021916908373ffffffffffffffffffffffffffffffffffffffff1602179055506040820151816002019081610b2a919061239c565b506060820151816003019081610b40919061239c565b506080820151816004015550508080610b589061249d565b915050610785565b505050565b6000806000808473ffffffffffffffffffffffffffffffffffffffff1673ffffffffffffffffffffffffffffffffffffffff168152602001908152602001600020805490509150600160008473ffffffffffffffffffffffffffffffffffffffff1673ffffffffffffffffffffffffffffffffffffffff168152602001908152602001600020805490509050915091565b600073ffffffffffffffffffffffffffffffffffffffff168373ffffffffffffffffffffffffffffffffffffffff1603610c65576040517f08c379a0000000000000000000000000000000000000000000000000000000008152600401610c5c906125f2565b60405180910390fd5b8273ffffffffffffffffffffffffffffffffffffffff163373ffffffffffffffffffffffffffffffffffffffff1603610cd3576040517f08c379a0000000000000000000000000000000000000000000000000000000008152600401610cca9061265e565b60405180910390fd5b60006040518060a001604052803373ffffffffffffffffffffffffffffffffffffffff1681526020018573ffffffffffffffffffffffffffffffffffffffff1681526020018481526020018381526020014281525090506000808573ffffffffffffffffffffffffffffffffffffffff1673ffffffffffffffffffffffffffffffffffffffff16815260200190815260200160002081908060018154018082558091505060019003906000526020600020906005020160009091909190915060008201518160000160006101000a81548173ffffffffffffffffffffffffffffffffffffffff021916908373ffffffffffffffffffffffffffffffffffffffff16021790555060208201518160010160006101000a81548173ffffffffffffffffffffffffffffffffffffffff021916908373ffffffffffffffffffffffffffffffffffffffff1602179055506040820151816002019081610e35919061239c565b506060820151816003019081610e4b919061239c565b50608082015181600401555050600160003373ffffffffffffffffffffffffffffffffffffffff1673ffffffffffffffffffffffffffffffffffffffff16815260200190815260200160002081908060018154018082558091505060019003906000526020600020906005020160009091909190915060008201518160000160006101000a81548173ffffffffffffffffffffffffffffffffffffffff021916908373ffffffffffffffffffffffffffffffffffffffff16021790555060208201518160010160006101000a81548173ffffffffffffffffffffffffffffffffffffffff021916908373ffffffffffffffffffffffffffffffffffffffff1602179055506040820151816002019081610f64919061239c565b506060820151816003019081610f7a919061239c565b506080820151816004015550508373ffffffffffffffffffffffffffffffffffffffff163373ffffffffffffffffffffffffffffffffffffffff167f2ecdf33a271447607b6aca3173f5f892e91720d5106f80c513aa4710a2bb4e338542604051610fe692919061267e565b60405180910390a350505050565b606060008060003373ffffffffffffffffffffffffffffffffffffffff1673ffffffffffffffffffffffffffffffffffffffff168152602001908152602001600020805480602002602001604051908101604052809291908181526020016000905b8282101561126257838290600052602060002090600502016040518060a00160405290816000820160009054906101000a900473ffffffffffffffffffffffffffffffffffffffff1673ffffffffffffffffffffffffffffffffffffffff1673ffffffffffffffffffffffffffffffffffffffff1681526020016001820160009054906101000a900473ffffffffffffffffffffffffffffffffffffffff1673ffffffffffffffffffffffffffffffffffffffff1673ffffffffffffffffffffffffffffffffffffffff16815260200160028201805461113590612015565b80601f016020809104026020016040519081016040528092919081815260200182805461116190612015565b80156111ae5780601f10611183576101008083540402835291602001916111ae565b820191906000526020600020905b81548152906001019060200180831161119157829003601f168201915b505050505081526020016003820180546111c790612015565b80601f01602080910402602001604051908101604052809291908181526020018280546111f390612015565b80156112405780601f1061121557610100808354040283529160200191611240565b820191906000526020600020905b81548152906001019060200180831161122357829003601f168201915b5050505050815260200160048201548152505081526020019060010190611056565b50505050905060008151905060008167ffffffffffffffff81111561128a57611289611b6c565b5b6040519080825280602002602001820160405280156112c357816020015b6112b06118b3565b8152602001906001900390816112a85790505b5090506000805b8381101561137e573373ffffffffffffffffffffffffffffffffffffffff168582815181106112fc576112fb612577565b5b60200260200101516000015173ffffffffffffffffffffffffffffffffffffffff160361136b5784818151811061133657611335612577565b5b602002602001015183838151811061135157611350612577565b5b602002602001018190525081806113679061249d565b9250505b80806113769061249d565b9150506112ca565b508082528194505050505090565b6000803373ffffffffffffffffffffffffffffffffffffffff1673ffffffffffffffffffffffffffffffffffffffff16815260200190815260200160002080549050811061140f576040517f08c379a0000000000000000000000000000000000000000000000000000000008152600401611406906126fa565b60405180910390fd5b60008190505b60016000803373ffffffffffffffffffffffffffffffffffffffff1673ffffffffffffffffffffffffffffffffffffffff16815260200190815260200160002080549050611463919061271a565b81101561164a576000803373ffffffffffffffffffffffffffffffffffffffff1673ffffffffffffffffffffffffffffffffffffffff1681526020019081526020016000206001826114b5919061274e565b815481106114c6576114c5612577565b5b90600052602060002090600502016000803373ffffffffffffffffffffffffffffffffffffffff1673ffffffffffffffffffffffffffffffffffffffff168152602001908152602001600020828154811061152457611523612577565b5b90600052602060002090600502016000820160009054906101000a900473ffffffffffffffffffffffffffffffffffffffff168160000160006101000a81548173ffffffffffffffffffffffffffffffffffffffff021916908373ffffffffffffffffffffffffffffffffffffffff1602179055506001820160009054906101000a900473ffffffffffffffffffffffffffffffffffffffff168160010160006101000a81548173ffffffffffffffffffffffffffffffffffffffff021916908373ffffffffffffffffffffffffffffffffffffffff160217905550600282018160020190816116149190612798565b50600382018160030190816116299190612798565b506004820154816004015590505080806116429061249d565b915050611415565b506000803373ffffffffffffffffffffffffffffffffffffffff1673ffffffffffffffffffffffffffffffffffffffff16815260200190815260200160002080548061169957611698612880565b5b6001900381819060005260206000209060050201600080820160006101000a81549073ffffffffffffffffffffffffffffffffffffffff02191690556001820160006101000a81549073ffffffffffffffffffffffffffffffffffffffff021916905560028201600061170c919061190e565b60038201600061171c919061190e565b60048201600090555050905550565b606060008203611772576040518060400160405280600181526020017f300000000000000000000000000000000000000000000000000000000000000081525090506118ae565b600082905060005b600082146117a457808061178d9061249d565b915050600a8261179d91906128de565b915061177a565b60008167ffffffffffffffff8111156117c0576117bf611b6c565b5b6040519080825280601f01601f1916602001820160405280156117f25781602001600182028036833780820191505090505b50905060008290505b600086146118a657600181611810919061271a565b90506000600a808861182291906128de565b61182c919061290f565b87611837919061271a565b6030611843919061295e565b905060008160f81b90508084848151811061186157611860612577565b5b60200101907effffffffffffffffffffffffffffffffffffffffffffffffffffffffffffff1916908160001a905350600a8861189d91906128de565b975050506117fb565b819450505050505b919050565b6040518060a00160405280600073ffffffffffffffffffffffffffffffffffffffff168152602001600073ffffffffffffffffffffffffffffffffffffffff1681526020016060815260200160608152602001600081525090565b50805461191a90612015565b6000825580601f1061192c575061194b565b601f01602090049060005260206000209081019061194a919061194e565b5b50565b5b8082111561196757600081600090555060010161194f565b5090565b6000604051905090565b600080fd5b600080fd5b600073ffffffffffffffffffffffffffffffffffffffff82169050919050565b60006119aa8261197f565b9050919050565b6119ba8161199f565b81146119c557600080fd5b50565b6000813590506119d7816119b1565b92915050565b6000819050919050565b6119f0816119dd565b81146119fb57600080fd5b50565b600081359050611a0d816119e7565b92915050565b60008060408385031215611a2a57611a29611975565b5b6000611a38858286016119c8565b9250506020611a49858286016119fe565b9150509250929050565b611a5c8161199f565b82525050565b600081519050919050565b600082825260208201905092915050565b60005b83811015611a9c578082015181840152602081019050611a81565b60008484015250505050565b6000601f19601f8301169050919050565b6000611ac482611a62565b611ace8185611a6d565b9350611ade818560208601611a7e565b611ae781611aa8565b840191505092915050565b611afb816119dd565b82525050565b600060a082019050611b166000830188611a53565b611b236020830187611a53565b8181036040830152611b358186611ab9565b90508181036060830152611b498185611ab9565b9050611b586080830184611af2565b9695505050505050565b600080fd5b600080fd5b7f4e487b7100000000000000000000000000000000000000000000000000000000600052604160045260246000fd5b611ba482611aa8565b810181811067ffffffffffffffff82111715611bc357611bc2611b6c565b5b80604052505050565b6000611bd661196b565b9050611be28282611b9b565b919050565b600067ffffffffffffffff821115611c0257611c01611b6c565b5b611c0b82611aa8565b9050602081019050919050565b82818337600083830152505050565b6000611c3a611c3584611be7565b611bcc565b905082815260208101848484011115611c5657611c55611b67565b5b611c61848285611c18565b509392505050565b600082601f830112611c7e57611c7d611b62565b5b8135611c8e848260208601611c27565b91505092915050565b60008060408385031215611cae57611cad611975565b5b600083013567ffffffffffffffff811115611ccc57611ccb61197a565b5b611cd885828601611c69565b925050602083013567ffffffffffffffff811115611cf957611cf861197a565b5b611d0585828601611c69565b9150509250929050565b600060208284031215611d2557611d24611975565b5b6000611d33848285016119c8565b91505092915050565b6000604082019050611d516000830185611af2565b611d5e6020830184611af2565b9392505050565b600080600060608486031215611d7e57611d7d611975565b5b6000611d8c868287016119c8565b935050602084013567ffffffffffffffff811115611dad57611dac61197a565b5b611db986828701611c69565b925050604084013567ffffffffffffffff811115611dda57611dd961197a565b5b611de686828701611c69565b9150509250925092565b600081519050919050565b600082825260208201905092915050565b6000819050602082019050919050565b611e258161199f565b82525050565b600082825260208201905092915050565b6000611e4782611a62565b611e518185611e2b565b9350611e61818560208601611a7e565b611e6a81611aa8565b840191505092915050565b611e7e816119dd565b82525050565b600060a083016000830151611e9c6000860182611e1c565b506020830151611eaf6020860182611e1c565b5060408301518482036040860152611ec78282611e3c565b91505060608301518482036060860152611ee18282611e3c565b9150506080830151611ef66080860182611e75565b508091505092915050565b6000611f0d8383611e84565b905092915050565b6000602082019050919050565b6000611f2d82611df0565b611f378185611dfb565b935083602082028501611f4985611e0c565b8060005b85811015611f855784840389528151611f668582611f01565b9450611f7183611f15565b925060208a01995050600181019050611f4d565b50829750879550505050505092915050565b60006020820190508181036000830152611fb18184611f22565b905092915050565b600060208284031215611fcf57611fce611975565b5b6000611fdd848285016119fe565b91505092915050565b7f4e487b7100000000000000000000000000000000000000000000000000000000600052602260045260246000fd5b6000600282049050600182168061202d57607f821691505b6020821081036120405761203f611fe6565b5b50919050565b7f4e756d626572206f6620656d61696c73206d757374206265206772656174657260008201527f207468616e203000000000000000000000000000000000000000000000000000602082015250565b60006120a2602783611a6d565b91506120ad82612046565b604082019050919050565b600060208201905081810360008301526120d181612095565b9050919050565b600081905092915050565b7f4d6f636b20456d61696c20230000000000000000000000000000000000000000600082015250565b6000612119600c836120d8565b9150612124826120e3565b600c82019050919050565b600061213a82611a62565b61214481856120d8565b9350612154818560208601611a7e565b80840191505092915050565b600061216b8261210c565b9150612177828461212f565b915081905092915050565b7f546869732069732061206d6f636b20656d61696c202300000000000000000000600082015250565b60006121b86016836120d8565b91506121c382612182565b601682019050919050565b60006121d9826121ab565b91506121e5828461212f565b915081905092915050565b60008190508160005260206000209050919050565b60006020601f8301049050919050565b600082821b905092915050565b6000600883026122527fffffffffffffffffffffffffffffffffffffffffffffffffffffffffffffffff82612215565b61225c8683612215565b95508019841693508086168417925050509392505050565b6000819050919050565b600061229961229461228f846119dd565b612274565b6119dd565b9050919050565b6000819050919050565b6122b38361227e565b6122c76122bf826122a0565b848454612222565b825550505050565b600090565b6122dc6122cf565b6122e78184846122aa565b505050565b5b8181101561230b576123006000826122d4565b6001810190506122ed565b5050565b601f82111561235057612321816121f0565b61232a84612205565b81016020851015612339578190505b61234d61234585612205565b8301826122ec565b50505b505050565b600082821c905092915050565b600061237360001984600802612355565b1980831691505092915050565b600061238c8383612362565b9150826002028217905092915050565b6123a582611a62565b67ffffffffffffffff8111156123be576123bd611b6c565b5b6123c88254612015565b6123d382828561230f565b600060209050601f83116001811461240657600084156123f4578287015190505b6123fe8582612380565b865550612466565b601f198416612414866121f0565b60005b8281101561243c57848901518255600182019150602085019450602081019050612417565b868310156124595784890151612455601f891682612362565b8355505b6001600288020188555050505b505050505050565b7f4e487b7100000000000000000000000000000000000000000000000000000000600052601160045260246000fd5b60006124a8826119dd565b91507fffffffffffffffffffffffffffffffffffffffffffffffffffffffffffffffff82036124da576124d961246e565b5b600182019050919050565b7f4174206c65617374206f6e65207265636569766572206164647265737320697360008201527f2072657175697265640000000000000000000000000000000000000000000000602082015250565b6000612541602983611a6d565b915061254c826124e5565b604082019050919050565b6000602082019050818103600083015261257081612534565b9050919050565b7f4e487b7100000000000000000000000000000000000000000000000000000000600052603260045260246000fd5b7f526563656976657220616464726573732063616e6e6f74206265207a65726f00600082015250565b60006125dc601f83611a6d565b91506125e7826125a6565b602082019050919050565b6000602082019050818103600083015261260b816125cf565b9050919050565b7f43616e6e6f742073656e6420616e20656d61696c20746f20796f757273656c66600082015250565b6000612648602083611a6d565b915061265382612612565b602082019050919050565b600060208201905081810360008301526126778161263b565b9050919050565b600060408201905081810360008301526126988185611ab9565b90506126a76020830184611af2565b9392505050565b7f496e76616c696420696e64657800000000000000000000000000000000000000600082015250565b60006126e4600d83611a6d565b91506126ef826126ae565b602082019050919050565b60006020820190508181036000830152612713816126d7565b9050919050565b6000612725826119dd565b9150612730836119dd565b92508282039050818111156127485761274761246e565b5b92915050565b6000612759826119dd565b9150612764836119dd565b925082820190508082111561277c5761277b61246e565b5b92915050565b60008154905061279181612015565b9050919050565b8181036127a657505061287e565b6127af82612782565b67ffffffffffffffff8111156127c8576127c7611b6c565b5b6127d28254612015565b6127dd82828561230f565b6000601f83116001811461280c57600084156127fa578287015490505b6128048582612380565b865550612877565b601f19841661281a876121f0565b9650612825866121f0565b60005b8281101561284d57848901548255600182019150600185019450602081019050612828565b8683101561286a5784890154612866601f891682612362565b8355505b6001600288020188555050505b5050505050505b565b7f4e487b7100000000000000000000000000000000000000000000000000000000600052603160045260246000fd5b7f4e487b7100000000000000000000000000000000000000000000000000000000600052601260045260246000fd5b60006128e9826119dd565b91506128f4836119dd565b925082612904576129036128af565b5b828204905092915050565b600061291a826119dd565b9150612925836119dd565b9250828202612933816119dd565b9150828204841483151761294a5761294961246e565b5b5092915050565b600060ff82169050919050565b600061296982612951565b915061297483612951565b9250828201905060ff81111561298d5761298c61246e565b5b9291505056fea2646970667358221220e47bd91ae9ac60e19f1f0f328f2560664229577ed69ebb7967c0b8da273f4bd364736f6c63430008120033",
					"opcodes": "PUSH1 0x80 PUSH1 0x40 MSTORE PUSH1 0x40 MLOAD DUP1 PUSH1 0x40 ADD PUSH1 0x40 MSTORE DUP1 PUSH20 0xAB8483F64D9C6D1ECF9B849AE677DD3315835CB2 PUSH20 0xFFFFFFFFFFFFFFFFFFFFFFFFFFFFFFFFFFFFFFFF AND PUSH20 0xFFFFFFFFFFFFFFFFFFFFFFFFFFFFFFFFFFFFFFFF AND DUP2 MSTORE PUSH1 0x20 ADD PUSH20 0x4B20993BC481177EC7E8F571CECAE8A9E22C02DB PUSH20 0xFFFFFFFFFFFFFFFFFFFFFFFFFFFFFFFFFFFFFFFF AND PUSH20 0xFFFFFFFFFFFFFFFFFFFFFFFFFFFFFFFFFFFFFFFF AND DUP2 MSTORE POP PUSH1 0x2 SWAP1 PUSH1 0x2 PUSH3 0xAB SWAP3 SWAP2 SWAP1 PUSH3 0xC0 JUMP JUMPDEST POP CALLVALUE DUP1 ISZERO PUSH3 0xB9 JUMPI PUSH1 0x0 DUP1 REVERT JUMPDEST POP PUSH3 0x16E JUMP JUMPDEST DUP3 DUP1 SLOAD DUP3 DUP3 SSTORE SWAP1 PUSH1 0x0 MSTORE PUSH1 0x20 PUSH1 0x0 KECCAK256 SWAP1 DUP2 ADD SWAP3 DUP3 ISZERO PUSH3 0x13C JUMPI SWAP2 PUSH1 0x20 MUL DUP3 ADD JUMPDEST DUP3 DUP2 GT ISZERO PUSH3 0x13B JUMPI DUP3 MLOAD DUP3 PUSH1 0x0 PUSH2 0x100 EXP DUP2 SLOAD DUP2 PUSH20 0xFFFFFFFFFFFFFFFFFFFFFFFFFFFFFFFFFFFFFFFF MUL NOT AND SWAP1 DUP4 PUSH20 0xFFFFFFFFFFFFFFFFFFFFFFFFFFFFFFFFFFFFFFFF AND MUL OR SWAP1 SSTORE POP SWAP2 PUSH1 0x20 ADD SWAP2 SWAP1 PUSH1 0x1 ADD SWAP1 PUSH3 0xE1 JUMP JUMPDEST JUMPDEST POP SWAP1 POP PUSH3 0x14B SWAP2 SWAP1 PUSH3 0x14F JUMP JUMPDEST POP SWAP1 JUMP JUMPDEST JUMPDEST DUP1 DUP3 GT ISZERO PUSH3 0x16A JUMPI PUSH1 0x0 DUP2 PUSH1 0x0 SWAP1 SSTORE POP PUSH1 0x1 ADD PUSH3 0x150 JUMP JUMPDEST POP SWAP1 JUMP JUMPDEST PUSH2 0x29C9 DUP1 PUSH3 0x17E PUSH1 0x0 CODECOPY PUSH1 0x0 RETURN INVALID PUSH1 0x80 PUSH1 0x40 MSTORE CALLVALUE DUP1 ISZERO PUSH2 0x10 JUMPI PUSH1 0x0 DUP1 REVERT JUMPDEST POP PUSH1 0x4 CALLDATASIZE LT PUSH2 0x88 JUMPI PUSH1 0x0 CALLDATALOAD PUSH1 0xE0 SHR DUP1 PUSH4 0x8A887541 GT PUSH2 0x5B JUMPI DUP1 PUSH4 0x8A887541 EQ PUSH2 0x12D JUMPI DUP1 PUSH4 0x8BB89879 EQ PUSH2 0x15E JUMPI DUP1 PUSH4 0xAA1D2C9C EQ PUSH2 0x17A JUMPI DUP1 PUSH4 0xC401F55F EQ PUSH2 0x198 JUMPI PUSH2 0x88 JUMP JUMPDEST DUP1 PUSH4 0x3BCB2E66 EQ PUSH2 0x8D JUMPI DUP1 PUSH4 0x4D622E7A EQ PUSH2 0xC1 JUMPI DUP1 PUSH4 0x5384EA9A EQ PUSH2 0xF5 JUMPI DUP1 PUSH4 0x5FC25D8B EQ PUSH2 0x111 JUMPI JUMPDEST PUSH1 0x0 DUP1 REVERT JUMPDEST PUSH2 0xA7 PUSH1 0x4 DUP1 CALLDATASIZE SUB DUP2 ADD SWAP1 PUSH2 0xA2 SWAP2 SWAP1 PUSH2 0x1A13 JUMP JUMPDEST PUSH2 0x1B4 JUMP JUMPDEST PUSH1 0x40 MLOAD PUSH2 0xB8 SWAP6 SWAP5 SWAP4 SWAP3 SWAP2 SWAP1 PUSH2 0x1B01 JUMP JUMPDEST PUSH1 0x40 MLOAD DUP1 SWAP2 SUB SWAP1 RETURN JUMPDEST PUSH2 0xDB PUSH1 0x4 DUP1 CALLDATASIZE SUB DUP2 ADD SWAP1 PUSH2 0xD6 SWAP2 SWAP1 PUSH2 0x1A13 JUMP JUMPDEST PUSH2 0x357 JUMP JUMPDEST PUSH1 0x40 MLOAD PUSH2 0xEC SWAP6 SWAP5 SWAP4 SWAP3 SWAP2 SWAP1 PUSH2 0x1B01 JUMP JUMPDEST PUSH1 0x40 MLOAD DUP1 SWAP2 SUB SWAP1 RETURN JUMPDEST PUSH2 0x10F PUSH1 0x4 DUP1 CALLDATASIZE SUB DUP2 ADD SWAP1 PUSH2 0x10A SWAP2 SWAP1 PUSH2 0x1A13 JUMP JUMPDEST PUSH2 0x4FA JUMP JUMPDEST STOP JUMPDEST PUSH2 0x12B PUSH1 0x4 DUP1 CALLDATASIZE SUB DUP2 ADD SWAP1 PUSH2 0x126 SWAP2 SWAP1 PUSH2 0x1C97 JUMP JUMPDEST PUSH2 0x73A JUMP JUMPDEST STOP JUMPDEST PUSH2 0x147 PUSH1 0x4 DUP1 CALLDATASIZE SUB DUP2 ADD SWAP1 PUSH2 0x142 SWAP2 SWAP1 PUSH2 0x1D0F JUMP JUMPDEST PUSH2 0xB65 JUMP JUMPDEST PUSH1 0x40 MLOAD PUSH2 0x155 SWAP3 SWAP2 SWAP1 PUSH2 0x1D3C JUMP JUMPDEST PUSH1 0x40 MLOAD DUP1 SWAP2 SUB SWAP1 RETURN JUMPDEST PUSH2 0x178 PUSH1 0x4 DUP1 CALLDATASIZE SUB DUP2 ADD SWAP1 PUSH2 0x173 SWAP2 SWAP1 PUSH2 0x1D65 JUMP JUMPDEST PUSH2 0xBF6 JUMP JUMPDEST STOP JUMPDEST PUSH2 0x182 PUSH2 0xFF4 JUMP JUMPDEST PUSH1 0x40 MLOAD PUSH2 0x18F SWAP2 SWAP1 PUSH2 0x1F97 JUMP JUMPDEST PUSH1 0x40 MLOAD DUP1 SWAP2 SUB SWAP1 RETURN JUMPDEST PUSH2 0x1B2 PUSH1 0x4 DUP1 CALLDATASIZE SUB DUP2 ADD SWAP1 PUSH2 0x1AD SWAP2 SWAP1 PUSH2 0x1FB9 JUMP JUMPDEST PUSH2 0x138C JUMP JUMPDEST STOP JUMPDEST PUSH1 0x1 PUSH1 0x20 MSTORE DUP2 PUSH1 0x0 MSTORE PUSH1 0x40 PUSH1 0x0 KECCAK256 DUP2 DUP2 SLOAD DUP2 LT PUSH2 0x1D0 JUMPI PUSH1 0x0 DUP1 REVERT JUMPDEST SWAP1 PUSH1 0x0 MSTORE PUSH1 0x20 PUSH1 0x0 KECCAK256 SWAP1 PUSH1 0x5 MUL ADD PUSH1 0x0 SWAP2 POP SWAP2 POP POP DUP1 PUSH1 0x0 ADD PUSH1 0x0 SWAP1 SLOAD SWAP1 PUSH2 0x100 EXP SWAP1 DIV PUSH20 0xFFFFFFFFFFFFFFFFFFFFFFFFFFFFFFFFFFFFFFFF AND SWAP1 DUP1 PUSH1 0x1 ADD PUSH1 0x0 SWAP1 SLOAD SWAP1 PUSH2 0x100 EXP SWAP1 DIV PUSH20 0xFFFFFFFFFFFFFFFFFFFFFFFFFFFFFFFFFFFFFFFF AND SWAP1 DUP1 PUSH1 0x2 ADD DUP1 SLOAD PUSH2 0x240 SWAP1 PUSH2 0x2015 JUMP JUMPDEST DUP1 PUSH1 0x1F ADD PUSH1 0x20 DUP1 SWAP2 DIV MUL PUSH1 0x20 ADD PUSH1 0x40 MLOAD SWAP1 DUP2 ADD PUSH1 0x40 MSTORE DUP1 SWAP3 SWAP2 SWAP1 DUP2 DUP2 MSTORE PUSH1 0x20 ADD DUP3 DUP1 SLOAD PUSH2 0x26C SWAP1 PUSH2 0x2015 JUMP JUMPDEST DUP1 ISZERO PUSH2 0x2B9 JUMPI DUP1 PUSH1 0x1F LT PUSH2 0x28E JUMPI PUSH2 0x100 DUP1 DUP4 SLOAD DIV MUL DUP4 MSTORE SWAP2 PUSH1 0x20 ADD SWAP2 PUSH2 0x2B9 JUMP JUMPDEST DUP3 ADD SWAP2 SWAP1 PUSH1 0x0 MSTORE PUSH1 0x20 PUSH1 0x0 KECCAK256 SWAP1 JUMPDEST DUP2 SLOAD DUP2 MSTORE SWAP1 PUSH1 0x1 ADD SWAP1 PUSH1 0x20 ADD DUP1 DUP4 GT PUSH2 0x29C JUMPI DUP3 SWAP1 SUB PUSH1 0x1F AND DUP3 ADD SWAP2 JUMPDEST POP POP POP POP POP SWAP1 DUP1 PUSH1 0x3 ADD DUP1 SLOAD PUSH2 0x2CE SWAP1 PUSH2 0x2015 JUMP JUMPDEST DUP1 PUSH1 0x1F ADD PUSH1 0x20 DUP1 SWAP2 DIV MUL PUSH1 0x20 ADD PUSH1 0x40 MLOAD SWAP1 DUP2 ADD PUSH1 0x40 MSTORE DUP1 SWAP3 SWAP2 SWAP1 DUP2 DUP2 MSTORE PUSH1 0x20 ADD DUP3 DUP1 SLOAD PUSH2 0x2FA SWAP1 PUSH2 0x2015 JUMP JUMPDEST DUP1 ISZERO PUSH2 0x347 JUMPI DUP1 PUSH1 0x1F LT PUSH2 0x31C JUMPI PUSH2 0x100 DUP1 DUP4 SLOAD DIV MUL DUP4 MSTORE SWAP2 PUSH1 0x20 ADD SWAP2 PUSH2 0x347 JUMP JUMPDEST DUP3 ADD SWAP2 SWAP1 PUSH1 0x0 MSTORE PUSH1 0x20 PUSH1 0x0 KECCAK256 SWAP1 JUMPDEST DUP2 SLOAD DUP2 MSTORE SWAP1 PUSH1 0x1 ADD SWAP1 PUSH1 0x20 ADD DUP1 DUP4 GT PUSH2 0x32A JUMPI DUP3 SWAP1 SUB PUSH1 0x1F AND DUP3 ADD SWAP2 JUMPDEST POP POP POP POP POP SWAP1 DUP1 PUSH1 0x4 ADD SLOAD SWAP1 POP DUP6 JUMP JUMPDEST PUSH1 0x0 PUSH1 0x20 MSTORE DUP2 PUSH1 0x0 MSTORE PUSH1 0x40 PUSH1 0x0 KECCAK256 DUP2 DUP2 SLOAD DUP2 LT PUSH2 0x373 JUMPI PUSH1 0x0 DUP1 REVERT JUMPDEST SWAP1 PUSH1 0x0 MSTORE PUSH1 0x20 PUSH1 0x0 KECCAK256 SWAP1 PUSH1 0x5 MUL ADD PUSH1 0x0 SWAP2 POP SWAP2 POP POP DUP1 PUSH1 0x0 ADD PUSH1 0x0 SWAP1 SLOAD SWAP1 PUSH2 0x100 EXP SWAP1 DIV PUSH20 0xFFFFFFFFFFFFFFFFFFFFFFFFFFFFFFFFFFFFFFFF AND SWAP1 DUP1 PUSH1 0x1 ADD PUSH1 0x0 SWAP1 SLOAD SWAP1 PUSH2 0x100 EXP SWAP1 DIV PUSH20 0xFFFFFFFFFFFFFFFFFFFFFFFFFFFFFFFFFFFFFFFF AND SWAP1 DUP1 PUSH1 0x2 ADD DUP1 SLOAD PUSH2 0x3E3 SWAP1 PUSH2 0x2015 JUMP JUMPDEST DUP1 PUSH1 0x1F ADD PUSH1 0x20 DUP1 SWAP2 DIV MUL PUSH1 0x20 ADD PUSH1 0x40 MLOAD SWAP1 DUP2 ADD PUSH1 0x40 MSTORE DUP1 SWAP3 SWAP2 SWAP1 DUP2 DUP2 MSTORE PUSH1 0x20 ADD DUP3 DUP1 SLOAD PUSH2 0x40F SWAP1 PUSH2 0x2015 JUMP JUMPDEST DUP1 ISZERO PUSH2 0x45C JUMPI DUP1 PUSH1 0x1F LT PUSH2 0x431 JUMPI PUSH2 0x100 DUP1 DUP4 SLOAD DIV MUL DUP4 MSTORE SWAP2 PUSH1 0x20 ADD SWAP2 PUSH2 0x45C JUMP JUMPDEST DUP3 ADD SWAP2 SWAP1 PUSH1 0x0 MSTORE PUSH1 0x20 PUSH1 0x0 KECCAK256 SWAP1 JUMPDEST DUP2 SLOAD DUP2 MSTORE SWAP1 PUSH1 0x1 ADD SWAP1 PUSH1 0x20 ADD DUP1 DUP4 GT PUSH2 0x43F JUMPI DUP3 SWAP1 SUB PUSH1 0x1F AND DUP3 ADD SWAP2 JUMPDEST POP POP POP POP POP SWAP1 DUP1 PUSH1 0x3 ADD DUP1 SLOAD PUSH2 0x471 SWAP1 PUSH2 0x2015 JUMP JUMPDEST DUP1 PUSH1 0x1F ADD PUSH1 0x20 DUP1 SWAP2 DIV MUL PUSH1 0x20 ADD PUSH1 0x40 MLOAD SWAP1 DUP2 ADD PUSH1 0x40 MSTORE DUP1 SWAP3 SWAP2 SWAP1 DUP2 DUP2 MSTORE PUSH1 0x20 ADD DUP3 DUP1 SLOAD PUSH2 0x49D SWAP1 PUSH2 0x2015 JUMP JUMPDEST DUP1 ISZERO PUSH2 0x4EA JUMPI DUP1 PUSH1 0x1F LT PUSH2 0x4BF JUMPI PUSH2 0x100 DUP1 DUP4 SLOAD DIV MUL DUP4 MSTORE SWAP2 PUSH1 0x20 ADD SWAP2 PUSH2 0x4EA JUMP JUMPDEST DUP3 ADD SWAP2 SWAP1 PUSH1 0x0 MSTORE PUSH1 0x20 PUSH1 0x0 KECCAK256 SWAP1 JUMPDEST DUP2 SLOAD DUP2 MSTORE SWAP1 PUSH1 0x1 ADD SWAP1 PUSH1 0x20 ADD DUP1 DUP4 GT PUSH2 0x4CD JUMPI DUP3 SWAP1 SUB PUSH1 0x1F AND DUP3 ADD SWAP2 JUMPDEST POP POP POP POP POP SWAP1 DUP1 PUSH1 0x4 ADD SLOAD SWAP1 POP DUP6 JUMP JUMPDEST PUSH1 0x0 DUP2 GT PUSH2 0x53D JUMPI PUSH1 0x40 MLOAD PUSH32 0x8C379A000000000000000000000000000000000000000000000000000000000 DUP2 MSTORE PUSH1 0x4 ADD PUSH2 0x534 SWAP1 PUSH2 0x20B8 JUMP JUMPDEST PUSH1 0x40 MLOAD DUP1 SWAP2 SUB SWAP1 REVERT JUMPDEST PUSH1 0x0 JUMPDEST DUP2 DUP2 LT ISZERO PUSH2 0x735 JUMPI PUSH1 0x0 PUSH2 0x553 DUP3 PUSH2 0x172B JUMP JUMPDEST PUSH1 0x40 MLOAD PUSH1 0x20 ADD PUSH2 0x563 SWAP2 SWAP1 PUSH2 0x2160 JUMP JUMPDEST PUSH1 0x40 MLOAD PUSH1 0x20 DUP2 DUP4 SUB SUB DUP2 MSTORE SWAP1 PUSH1 0x40 MSTORE SWAP1 POP PUSH1 0x0 PUSH2 0x57F DUP4 PUSH2 0x172B JUMP JUMPDEST PUSH1 0x40 MLOAD PUSH1 0x20 ADD PUSH2 0x58F SWAP2 SWAP1 PUSH2 0x21CE JUMP JUMPDEST PUSH1 0x40 MLOAD PUSH1 0x20 DUP2 DUP4 SUB SUB DUP2 MSTORE SWAP1 PUSH1 0x40 MSTORE SWAP1 POP PUSH1 0x0 DUP1 DUP7 PUSH20 0xFFFFFFFFFFFFFFFFFFFFFFFFFFFFFFFFFFFFFFFF AND PUSH20 0xFFFFFFFFFFFFFFFFFFFFFFFFFFFFFFFFFFFFFFFF AND DUP2 MSTORE PUSH1 0x20 ADD SWAP1 DUP2 MSTORE PUSH1 0x20 ADD PUSH1 0x0 KECCAK256 PUSH1 0x40 MLOAD DUP1 PUSH1 0xA0 ADD PUSH1 0x40 MSTORE DUP1 CALLER PUSH20 0xFFFFFFFFFFFFFFFFFFFFFFFFFFFFFFFFFFFFFFFF AND DUP2 MSTORE PUSH1 0x20 ADD DUP8 PUSH20 0xFFFFFFFFFFFFFFFFFFFFFFFFFFFFFFFFFFFFFFFF AND DUP2 MSTORE PUSH1 0x20 ADD DUP5 DUP2 MSTORE PUSH1 0x20 ADD DUP4 DUP2 MSTORE PUSH1 0x20 ADD TIMESTAMP DUP2 MSTORE POP SWAP1 DUP1 PUSH1 0x1 DUP2 SLOAD ADD DUP1 DUP3 SSTORE DUP1 SWAP2 POP POP PUSH1 0x1 SWAP1 SUB SWAP1 PUSH1 0x0 MSTORE PUSH1 0x20 PUSH1 0x0 KECCAK256 SWAP1 PUSH1 0x5 MUL ADD PUSH1 0x0 SWAP1 SWAP2 SWAP1 SWAP2 SWAP1 SWAP2 POP PUSH1 0x0 DUP3 ADD MLOAD DUP2 PUSH1 0x0 ADD PUSH1 0x0 PUSH2 0x100 EXP DUP2 SLOAD DUP2 PUSH20 0xFFFFFFFFFFFFFFFFFFFFFFFFFFFFFFFFFFFFFFFF MUL NOT AND SWAP1 DUP4 PUSH20 0xFFFFFFFFFFFFFFFFFFFFFFFFFFFFFFFFFFFFFFFF AND MUL OR SWAP1 SSTORE POP PUSH1 0x20 DUP3 ADD MLOAD DUP2 PUSH1 0x1 ADD PUSH1 0x0 PUSH2 0x100 EXP DUP2 SLOAD DUP2 PUSH20 0xFFFFFFFFFFFFFFFFFFFFFFFFFFFFFFFFFFFFFFFF MUL NOT AND SWAP1 DUP4 PUSH20 0xFFFFFFFFFFFFFFFFFFFFFFFFFFFFFFFFFFFFFFFF AND MUL OR SWAP1 SSTORE POP PUSH1 0x40 DUP3 ADD MLOAD DUP2 PUSH1 0x2 ADD SWAP1 DUP2 PUSH2 0x6FD SWAP2 SWAP1 PUSH2 0x239C JUMP JUMPDEST POP PUSH1 0x60 DUP3 ADD MLOAD DUP2 PUSH1 0x3 ADD SWAP1 DUP2 PUSH2 0x713 SWAP2 SWAP1 PUSH2 0x239C JUMP JUMPDEST POP PUSH1 0x80 DUP3 ADD MLOAD DUP2 PUSH1 0x4 ADD SSTORE POP POP POP POP DUP1 DUP1 PUSH2 0x72D SWAP1 PUSH2 0x249D JUMP JUMPDEST SWAP2 POP POP PUSH2 0x540 JUMP JUMPDEST POP POP POP JUMP JUMPDEST PUSH1 0x0 PUSH1 0x2 DUP1 SLOAD SWAP1 POP GT PUSH2 0x782 JUMPI PUSH1 0x40 MLOAD PUSH32 0x8C379A000000000000000000000000000000000000000000000000000000000 DUP2 MSTORE PUSH1 0x4 ADD PUSH2 0x779 SWAP1 PUSH2 0x2557 JUMP JUMPDEST PUSH1 0x40 MLOAD DUP1 SWAP2 SUB SWAP1 REVERT JUMPDEST PUSH1 0x0 JUMPDEST PUSH1 0x2 DUP1 SLOAD SWAP1 POP DUP2 LT ISZERO PUSH2 0xB60 JUMPI PUSH1 0x0 DUP1 PUSH1 0x2 DUP4 DUP2 SLOAD DUP2 LT PUSH2 0x7A9 JUMPI PUSH2 0x7A8 PUSH2 0x2577 JUMP JUMPDEST JUMPDEST SWAP1 PUSH1 0x0 MSTORE PUSH1 0x20 PUSH1 0x0 KECCAK256 ADD PUSH1 0x0 SWAP1 SLOAD SWAP1 PUSH2 0x100 EXP SWAP1 DIV PUSH20 0xFFFFFFFFFFFFFFFFFFFFFFFFFFFFFFFFFFFFFFFF AND PUSH20 0xFFFFFFFFFFFFFFFFFFFFFFFFFFFFFFFFFFFFFFFF AND PUSH20 0xFFFFFFFFFFFFFFFFFFFFFFFFFFFFFFFFFFFFFFFF AND DUP2 MSTORE PUSH1 0x20 ADD SWAP1 DUP2 MSTORE PUSH1 0x20 ADD PUSH1 0x0 KECCAK256 PUSH1 0x40 MLOAD DUP1 PUSH1 0xA0 ADD PUSH1 0x40 MSTORE DUP1 CALLER PUSH20 0xFFFFFFFFFFFFFFFFFFFFFFFFFFFFFFFFFFFFFFFF AND DUP2 MSTORE PUSH1 0x20 ADD PUSH1 0x2 DUP5 DUP2 SLOAD DUP2 LT PUSH2 0x849 JUMPI PUSH2 0x848 PUSH2 0x2577 JUMP JUMPDEST JUMPDEST SWAP1 PUSH1 0x0 MSTORE PUSH1 0x20 PUSH1 0x0 KECCAK256 ADD PUSH1 0x0 SWAP1 SLOAD SWAP1 PUSH2 0x100 EXP SWAP1 DIV PUSH20 0xFFFFFFFFFFFFFFFFFFFFFFFFFFFFFFFFFFFFFFFF AND PUSH20 0xFFFFFFFFFFFFFFFFFFFFFFFFFFFFFFFFFFFFFFFF AND DUP2 MSTORE PUSH1 0x20 ADD DUP6 DUP2 MSTORE PUSH1 0x20 ADD DUP5 DUP2 MSTORE PUSH1 0x20 ADD TIMESTAMP DUP2 MSTORE POP SWAP1 DUP1 PUSH1 0x1 DUP2 SLOAD ADD DUP1 DUP3 SSTORE DUP1 SWAP2 POP POP PUSH1 0x1 SWAP1 SUB SWAP1 PUSH1 0x0 MSTORE PUSH1 0x20 PUSH1 0x0 KECCAK256 SWAP1 PUSH1 0x5 MUL ADD PUSH1 0x0 SWAP1 SWAP2 SWAP1 SWAP2 SWAP1 SWAP2 POP PUSH1 0x0 DUP3 ADD MLOAD DUP2 PUSH1 0x0 ADD PUSH1 0x0 PUSH2 0x100 EXP DUP2 SLOAD DUP2 PUSH20 0xFFFFFFFFFFFFFFFFFFFFFFFFFFFFFFFFFFFFFFFF MUL NOT AND SWAP1 DUP4 PUSH20 0xFFFFFFFFFFFFFFFFFFFFFFFFFFFFFFFFFFFFFFFF AND MUL OR SWAP1 SSTORE POP PUSH1 0x20 DUP3 ADD MLOAD DUP2 PUSH1 0x1 ADD PUSH1 0x0 PUSH2 0x100 EXP DUP2 SLOAD DUP2 PUSH20 0xFFFFFFFFFFFFFFFFFFFFFFFFFFFFFFFFFFFFFFFF MUL NOT AND SWAP1 DUP4 PUSH20 0xFFFFFFFFFFFFFFFFFFFFFFFFFFFFFFFFFFFFFFFF AND MUL OR SWAP1 SSTORE POP PUSH1 0x40 DUP3 ADD MLOAD DUP2 PUSH1 0x2 ADD SWAP1 DUP2 PUSH2 0x96B SWAP2 SWAP1 PUSH2 0x239C JUMP JUMPDEST POP PUSH1 0x60 DUP3 ADD MLOAD DUP2 PUSH1 0x3 ADD SWAP1 DUP2 PUSH2 0x981 SWAP2 SWAP1 PUSH2 0x239C JUMP JUMPDEST POP PUSH1 0x80 DUP3 ADD MLOAD DUP2 PUSH1 0x4 ADD SSTORE POP POP PUSH1 0x1 PUSH1 0x0 CALLER PUSH20 0xFFFFFFFFFFFFFFFFFFFFFFFFFFFFFFFFFFFFFFFF AND PUSH20 0xFFFFFFFFFFFFFFFFFFFFFFFFFFFFFFFFFFFFFFFF AND DUP2 MSTORE PUSH1 0x20 ADD SWAP1 DUP2 MSTORE PUSH1 0x20 ADD PUSH1 0x0 KECCAK256 PUSH1 0x40 MLOAD DUP1 PUSH1 0xA0 ADD PUSH1 0x40 MSTORE DUP1 CALLER PUSH20 0xFFFFFFFFFFFFFFFFFFFFFFFFFFFFFFFFFFFFFFFF AND DUP2 MSTORE PUSH1 0x20 ADD PUSH1 0x2 DUP5 DUP2 SLOAD DUP2 LT PUSH2 0xA08 JUMPI PUSH2 0xA07 PUSH2 0x2577 JUMP JUMPDEST JUMPDEST SWAP1 PUSH1 0x0 MSTORE PUSH1 0x20 PUSH1 0x0 KECCAK256 ADD PUSH1 0x0 SWAP1 SLOAD SWAP1 PUSH2 0x100 EXP SWAP1 DIV PUSH20 0xFFFFFFFFFFFFFFFFFFFFFFFFFFFFFFFFFFFFFFFF AND PUSH20 0xFFFFFFFFFFFFFFFFFFFFFFFFFFFFFFFFFFFFFFFF AND DUP2 MSTORE PUSH1 0x20 ADD DUP6 DUP2 MSTORE PUSH1 0x20 ADD DUP5 DUP2 MSTORE PUSH1 0x20 ADD TIMESTAMP DUP2 MSTORE POP SWAP1 DUP1 PUSH1 0x1 DUP2 SLOAD ADD DUP1 DUP3 SSTORE DUP1 SWAP2 POP POP PUSH1 0x1 SWAP1 SUB SWAP1 PUSH1 0x0 MSTORE PUSH1 0x20 PUSH1 0x0 KECCAK256 SWAP1 PUSH1 0x5 MUL ADD PUSH1 0x0 SWAP1 SWAP2 SWAP1 SWAP2 SWAP1 SWAP2 POP PUSH1 0x0 DUP3 ADD MLOAD DUP2 PUSH1 0x0 ADD PUSH1 0x0 PUSH2 0x100 EXP DUP2 SLOAD DUP2 PUSH20 0xFFFFFFFFFFFFFFFFFFFFFFFFFFFFFFFFFFFFFFFF MUL NOT AND SWAP1 DUP4 PUSH20 0xFFFFFFFFFFFFFFFFFFFFFFFFFFFFFFFFFFFFFFFF AND MUL OR SWAP1 SSTORE POP PUSH1 0x20 DUP3 ADD MLOAD DUP2 PUSH1 0x1 ADD PUSH1 0x0 PUSH2 0x100 EXP DUP2 SLOAD DUP2 PUSH20 0xFFFFFFFFFFFFFFFFFFFFFFFFFFFFFFFFFFFFFFFF MUL NOT AND SWAP1 DUP4 PUSH20 0xFFFFFFFFFFFFFFFFFFFFFFFFFFFFFFFFFFFFFFFF AND MUL OR SWAP1 SSTORE POP PUSH1 0x40 DUP3 ADD MLOAD DUP2 PUSH1 0x2 ADD SWAP1 DUP2 PUSH2 0xB2A SWAP2 SWAP1 PUSH2 0x239C JUMP JUMPDEST POP PUSH1 0x60 DUP3 ADD MLOAD DUP2 PUSH1 0x3 ADD SWAP1 DUP2 PUSH2 0xB40 SWAP2 SWAP1 PUSH2 0x239C JUMP JUMPDEST POP PUSH1 0x80 DUP3 ADD MLOAD DUP2 PUSH1 0x4 ADD SSTORE POP POP DUP1 DUP1 PUSH2 0xB58 SWAP1 PUSH2 0x249D JUMP JUMPDEST SWAP2 POP POP PUSH2 0x785 JUMP JUMPDEST POP POP POP JUMP JUMPDEST PUSH1 0x0 DUP1 PUSH1 0x0 DUP1 DUP5 PUSH20 0xFFFFFFFFFFFFFFFFFFFFFFFFFFFFFFFFFFFFFFFF AND PUSH20 0xFFFFFFFFFFFFFFFFFFFFFFFFFFFFFFFFFFFFFFFF AND DUP2 MSTORE PUSH1 0x20 ADD SWAP1 DUP2 MSTORE PUSH1 0x20 ADD PUSH1 0x0 KECCAK256 DUP1 SLOAD SWAP1 POP SWAP2 POP PUSH1 0x1 PUSH1 0x0 DUP5 PUSH20 0xFFFFFFFFFFFFFFFFFFFFFFFFFFFFFFFFFFFFFFFF AND PUSH20 0xFFFFFFFFFFFFFFFFFFFFFFFFFFFFFFFFFFFFFFFF AND DUP2 MSTORE PUSH1 0x20 ADD SWAP1 DUP2 MSTORE PUSH1 0x20 ADD PUSH1 0x0 KECCAK256 DUP1 SLOAD SWAP1 POP SWAP1 POP SWAP2 POP SWAP2 JUMP JUMPDEST PUSH1 0x0 PUSH20 0xFFFFFFFFFFFFFFFFFFFFFFFFFFFFFFFFFFFFFFFF AND DUP4 PUSH20 0xFFFFFFFFFFFFFFFFFFFFFFFFFFFFFFFFFFFFFFFF AND SUB PUSH2 0xC65 JUMPI PUSH1 0x40 MLOAD PUSH32 0x8C379A000000000000000000000000000000000000000000000000000000000 DUP2 MSTORE PUSH1 0x4 ADD PUSH2 0xC5C SWAP1 PUSH2 0x25F2 JUMP JUMPDEST PUSH1 0x40 MLOAD DUP1 SWAP2 SUB SWAP1 REVERT JUMPDEST DUP3 PUSH20 0xFFFFFFFFFFFFFFFFFFFFFFFFFFFFFFFFFFFFFFFF AND CALLER PUSH20 0xFFFFFFFFFFFFFFFFFFFFFFFFFFFFFFFFFFFFFFFF AND SUB PUSH2 0xCD3 JUMPI PUSH1 0x40 MLOAD PUSH32 0x8C379A000000000000000000000000000000000000000000000000000000000 DUP2 MSTORE PUSH1 0x4 ADD PUSH2 0xCCA SWAP1 PUSH2 0x265E JUMP JUMPDEST PUSH1 0x40 MLOAD DUP1 SWAP2 SUB SWAP1 REVERT JUMPDEST PUSH1 0x0 PUSH1 0x40 MLOAD DUP1 PUSH1 0xA0 ADD PUSH1 0x40 MSTORE DUP1 CALLER PUSH20 0xFFFFFFFFFFFFFFFFFFFFFFFFFFFFFFFFFFFFFFFF AND DUP2 MSTORE PUSH1 0x20 ADD DUP6 PUSH20 0xFFFFFFFFFFFFFFFFFFFFFFFFFFFFFFFFFFFFFFFF AND DUP2 MSTORE PUSH1 0x20 ADD DUP5 DUP2 MSTORE PUSH1 0x20 ADD DUP4 DUP2 MSTORE PUSH1 0x20 ADD TIMESTAMP DUP2 MSTORE POP SWAP1 POP PUSH1 0x0 DUP1 DUP6 PUSH20 0xFFFFFFFFFFFFFFFFFFFFFFFFFFFFFFFFFFFFFFFF AND PUSH20 0xFFFFFFFFFFFFFFFFFFFFFFFFFFFFFFFFFFFFFFFF AND DUP2 MSTORE PUSH1 0x20 ADD SWAP1 DUP2 MSTORE PUSH1 0x20 ADD PUSH1 0x0 KECCAK256 DUP2 SWAP1 DUP1 PUSH1 0x1 DUP2 SLOAD ADD DUP1 DUP3 SSTORE DUP1 SWAP2 POP POP PUSH1 0x1 SWAP1 SUB SWAP1 PUSH1 0x0 MSTORE PUSH1 0x20 PUSH1 0x0 KECCAK256 SWAP1 PUSH1 0x5 MUL ADD PUSH1 0x0 SWAP1 SWAP2 SWAP1 SWAP2 SWAP1 SWAP2 POP PUSH1 0x0 DUP3 ADD MLOAD DUP2 PUSH1 0x0 ADD PUSH1 0x0 PUSH2 0x100 EXP DUP2 SLOAD DUP2 PUSH20 0xFFFFFFFFFFFFFFFFFFFFFFFFFFFFFFFFFFFFFFFF MUL NOT AND SWAP1 DUP4 PUSH20 0xFFFFFFFFFFFFFFFFFFFFFFFFFFFFFFFFFFFFFFFF AND MUL OR SWAP1 SSTORE POP PUSH1 0x20 DUP3 ADD MLOAD DUP2 PUSH1 0x1 ADD PUSH1 0x0 PUSH2 0x100 EXP DUP2 SLOAD DUP2 PUSH20 0xFFFFFFFFFFFFFFFFFFFFFFFFFFFFFFFFFFFFFFFF MUL NOT AND SWAP1 DUP4 PUSH20 0xFFFFFFFFFFFFFFFFFFFFFFFFFFFFFFFFFFFFFFFF AND MUL OR SWAP1 SSTORE POP PUSH1 0x40 DUP3 ADD MLOAD DUP2 PUSH1 0x2 ADD SWAP1 DUP2 PUSH2 0xE35 SWAP2 SWAP1 PUSH2 0x239C JUMP JUMPDEST POP PUSH1 0x60 DUP3 ADD MLOAD DUP2 PUSH1 0x3 ADD SWAP1 DUP2 PUSH2 0xE4B SWAP2 SWAP1 PUSH2 0x239C JUMP JUMPDEST POP PUSH1 0x80 DUP3 ADD MLOAD DUP2 PUSH1 0x4 ADD SSTORE POP POP PUSH1 0x1 PUSH1 0x0 CALLER PUSH20 0xFFFFFFFFFFFFFFFFFFFFFFFFFFFFFFFFFFFFFFFF AND PUSH20 0xFFFFFFFFFFFFFFFFFFFFFFFFFFFFFFFFFFFFFFFF AND DUP2 MSTORE PUSH1 0x20 ADD SWAP1 DUP2 MSTORE PUSH1 0x20 ADD PUSH1 0x0 KECCAK256 DUP2 SWAP1 DUP1 PUSH1 0x1 DUP2 SLOAD ADD DUP1 DUP3 SSTORE DUP1 SWAP2 POP POP PUSH1 0x1 SWAP1 SUB SWAP1 PUSH1 0x0 MSTORE PUSH1 0x20 PUSH1 0x0 KECCAK256 SWAP1 PUSH1 0x5 MUL ADD PUSH1 0x0 SWAP1 SWAP2 SWAP1 SWAP2 SWAP1 SWAP2 POP PUSH1 0x0 DUP3 ADD MLOAD DUP2 PUSH1 0x0 ADD PUSH1 0x0 PUSH2 0x100 EXP DUP2 SLOAD DUP2 PUSH20 0xFFFFFFFFFFFFFFFFFFFFFFFFFFFFFFFFFFFFFFFF MUL NOT AND SWAP1 DUP4 PUSH20 0xFFFFFFFFFFFFFFFFFFFFFFFFFFFFFFFFFFFFFFFF AND MUL OR SWAP1 SSTORE POP PUSH1 0x20 DUP3 ADD MLOAD DUP2 PUSH1 0x1 ADD PUSH1 0x0 PUSH2 0x100 EXP DUP2 SLOAD DUP2 PUSH20 0xFFFFFFFFFFFFFFFFFFFFFFFFFFFFFFFFFFFFFFFF MUL NOT AND SWAP1 DUP4 PUSH20 0xFFFFFFFFFFFFFFFFFFFFFFFFFFFFFFFFFFFFFFFF AND MUL OR SWAP1 SSTORE POP PUSH1 0x40 DUP3 ADD MLOAD DUP2 PUSH1 0x2 ADD SWAP1 DUP2 PUSH2 0xF64 SWAP2 SWAP1 PUSH2 0x239C JUMP JUMPDEST POP PUSH1 0x60 DUP3 ADD MLOAD DUP2 PUSH1 0x3 ADD SWAP1 DUP2 PUSH2 0xF7A SWAP2 SWAP1 PUSH2 0x239C JUMP JUMPDEST POP PUSH1 0x80 DUP3 ADD MLOAD DUP2 PUSH1 0x4 ADD SSTORE POP POP DUP4 PUSH20 0xFFFFFFFFFFFFFFFFFFFFFFFFFFFFFFFFFFFFFFFF AND CALLER PUSH20 0xFFFFFFFFFFFFFFFFFFFFFFFFFFFFFFFFFFFFFFFF AND PUSH32 0x2ECDF33A271447607B6ACA3173F5F892E91720D5106F80C513AA4710A2BB4E33 DUP6 TIMESTAMP PUSH1 0x40 MLOAD PUSH2 0xFE6 SWAP3 SWAP2 SWAP1 PUSH2 0x267E JUMP JUMPDEST PUSH1 0x40 MLOAD DUP1 SWAP2 SUB SWAP1 LOG3 POP POP POP POP JUMP JUMPDEST PUSH1 0x60 PUSH1 0x0 DUP1 PUSH1 0x0 CALLER PUSH20 0xFFFFFFFFFFFFFFFFFFFFFFFFFFFFFFFFFFFFFFFF AND PUSH20 0xFFFFFFFFFFFFFFFFFFFFFFFFFFFFFFFFFFFFFFFF AND DUP2 MSTORE PUSH1 0x20 ADD SWAP1 DUP2 MSTORE PUSH1 0x20 ADD PUSH1 0x0 KECCAK256 DUP1 SLOAD DUP1 PUSH1 0x20 MUL PUSH1 0x20 ADD PUSH1 0x40 MLOAD SWAP1 DUP2 ADD PUSH1 0x40 MSTORE DUP1 SWAP3 SWAP2 SWAP1 DUP2 DUP2 MSTORE PUSH1 0x20 ADD PUSH1 0x0 SWAP1 JUMPDEST DUP3 DUP3 LT ISZERO PUSH2 0x1262 JUMPI DUP4 DUP3 SWAP1 PUSH1 0x0 MSTORE PUSH1 0x20 PUSH1 0x0 KECCAK256 SWAP1 PUSH1 0x5 MUL ADD PUSH1 0x40 MLOAD DUP1 PUSH1 0xA0 ADD PUSH1 0x40 MSTORE SWAP1 DUP2 PUSH1 0x0 DUP3 ADD PUSH1 0x0 SWAP1 SLOAD SWAP1 PUSH2 0x100 EXP SWAP1 DIV PUSH20 0xFFFFFFFFFFFFFFFFFFFFFFFFFFFFFFFFFFFFFFFF AND PUSH20 0xFFFFFFFFFFFFFFFFFFFFFFFFFFFFFFFFFFFFFFFF AND PUSH20 0xFFFFFFFFFFFFFFFFFFFFFFFFFFFFFFFFFFFFFFFF AND DUP2 MSTORE PUSH1 0x20 ADD PUSH1 0x1 DUP3 ADD PUSH1 0x0 SWAP1 SLOAD SWAP1 PUSH2 0x100 EXP SWAP1 DIV PUSH20 0xFFFFFFFFFFFFFFFFFFFFFFFFFFFFFFFFFFFFFFFF AND PUSH20 0xFFFFFFFFFFFFFFFFFFFFFFFFFFFFFFFFFFFFFFFF AND PUSH20 0xFFFFFFFFFFFFFFFFFFFFFFFFFFFFFFFFFFFFFFFF AND DUP2 MSTORE PUSH1 0x20 ADD PUSH1 0x2 DUP3 ADD DUP1 SLOAD PUSH2 0x1135 SWAP1 PUSH2 0x2015 JUMP JUMPDEST DUP1 PUSH1 0x1F ADD PUSH1 0x20 DUP1 SWAP2 DIV MUL PUSH1 0x20 ADD PUSH1 0x40 MLOAD SWAP1 DUP2 ADD PUSH1 0x40 MSTORE DUP1 SWAP3 SWAP2 SWAP1 DUP2 DUP2 MSTORE PUSH1 0x20 ADD DUP3 DUP1 SLOAD PUSH2 0x1161 SWAP1 PUSH2 0x2015 JUMP JUMPDEST DUP1 ISZERO PUSH2 0x11AE JUMPI DUP1 PUSH1 0x1F LT PUSH2 0x1183 JUMPI PUSH2 0x100 DUP1 DUP4 SLOAD DIV MUL DUP4 MSTORE SWAP2 PUSH1 0x20 ADD SWAP2 PUSH2 0x11AE JUMP JUMPDEST DUP3 ADD SWAP2 SWAP1 PUSH1 0x0 MSTORE PUSH1 0x20 PUSH1 0x0 KECCAK256 SWAP1 JUMPDEST DUP2 SLOAD DUP2 MSTORE SWAP1 PUSH1 0x1 ADD SWAP1 PUSH1 0x20 ADD DUP1 DUP4 GT PUSH2 0x1191 JUMPI DUP3 SWAP1 SUB PUSH1 0x1F AND DUP3 ADD SWAP2 JUMPDEST POP POP POP POP POP DUP2 MSTORE PUSH1 0x20 ADD PUSH1 0x3 DUP3 ADD DUP1 SLOAD PUSH2 0x11C7 SWAP1 PUSH2 0x2015 JUMP JUMPDEST DUP1 PUSH1 0x1F ADD PUSH1 0x20 DUP1 SWAP2 DIV MUL PUSH1 0x20 ADD PUSH1 0x40 MLOAD SWAP1 DUP2 ADD PUSH1 0x40 MSTORE DUP1 SWAP3 SWAP2 SWAP1 DUP2 DUP2 MSTORE PUSH1 0x20 ADD DUP3 DUP1 SLOAD PUSH2 0x11F3 SWAP1 PUSH2 0x2015 JUMP JUMPDEST DUP1 ISZERO PUSH2 0x1240 JUMPI DUP1 PUSH1 0x1F LT PUSH2 0x1215 JUMPI PUSH2 0x100 DUP1 DUP4 SLOAD DIV MUL DUP4 MSTORE SWAP2 PUSH1 0x20 ADD SWAP2 PUSH2 0x1240 JUMP JUMPDEST DUP3 ADD SWAP2 SWAP1 PUSH1 0x0 MSTORE PUSH1 0x20 PUSH1 0x0 KECCAK256 SWAP1 JUMPDEST DUP2 SLOAD DUP2 MSTORE SWAP1 PUSH1 0x1 ADD SWAP1 PUSH1 0x20 ADD DUP1 DUP4 GT PUSH2 0x1223 JUMPI DUP3 SWAP1 SUB PUSH1 0x1F AND DUP3 ADD SWAP2 JUMPDEST POP POP POP POP POP DUP2 MSTORE PUSH1 0x20 ADD PUSH1 0x4 DUP3 ADD SLOAD DUP2 MSTORE POP POP DUP2 MSTORE PUSH1 0x20 ADD SWAP1 PUSH1 0x1 ADD SWAP1 PUSH2 0x1056 JUMP JUMPDEST POP POP POP POP SWAP1 POP PUSH1 0x0 DUP2 MLOAD SWAP1 POP PUSH1 0x0 DUP2 PUSH8 0xFFFFFFFFFFFFFFFF DUP2 GT ISZERO PUSH2 0x128A JUMPI PUSH2 0x1289 PUSH2 0x1B6C JUMP JUMPDEST JUMPDEST PUSH1 0x40 MLOAD SWAP1 DUP1 DUP3 MSTORE DUP1 PUSH1 0x20 MUL PUSH1 0x20 ADD DUP3 ADD PUSH1 0x40 MSTORE DUP1 ISZERO PUSH2 0x12C3 JUMPI DUP2 PUSH1 0x20 ADD JUMPDEST PUSH2 0x12B0 PUSH2 0x18B3 JUMP JUMPDEST DUP2 MSTORE PUSH1 0x20 ADD SWAP1 PUSH1 0x1 SWAP1 SUB SWAP1 DUP2 PUSH2 0x12A8 JUMPI SWAP1 POP JUMPDEST POP SWAP1 POP PUSH1 0x0 DUP1 JUMPDEST DUP4 DUP2 LT ISZERO PUSH2 0x137E JUMPI CALLER PUSH20 0xFFFFFFFFFFFFFFFFFFFFFFFFFFFFFFFFFFFFFFFF AND DUP6 DUP3 DUP2 MLOAD DUP2 LT PUSH2 0x12FC JUMPI PUSH2 0x12FB PUSH2 0x2577 JUMP JUMPDEST JUMPDEST PUSH1 0x20 MUL PUSH1 0x20 ADD ADD MLOAD PUSH1 0x0 ADD MLOAD PUSH20 0xFFFFFFFFFFFFFFFFFFFFFFFFFFFFFFFFFFFFFFFF AND SUB PUSH2 0x136B JUMPI DUP5 DUP2 DUP2 MLOAD DUP2 LT PUSH2 0x1336 JUMPI PUSH2 0x1335 PUSH2 0x2577 JUMP JUMPDEST JUMPDEST PUSH1 0x20 MUL PUSH1 0x20 ADD ADD MLOAD DUP4 DUP4 DUP2 MLOAD DUP2 LT PUSH2 0x1351 JUMPI PUSH2 0x1350 PUSH2 0x2577 JUMP JUMPDEST JUMPDEST PUSH1 0x20 MUL PUSH1 0x20 ADD ADD DUP2 SWAP1 MSTORE POP DUP2 DUP1 PUSH2 0x1367 SWAP1 PUSH2 0x249D JUMP JUMPDEST SWAP3 POP POP JUMPDEST DUP1 DUP1 PUSH2 0x1376 SWAP1 PUSH2 0x249D JUMP JUMPDEST SWAP2 POP POP PUSH2 0x12CA JUMP JUMPDEST POP DUP1 DUP3 MSTORE DUP2 SWAP5 POP POP POP POP POP SWAP1 JUMP JUMPDEST PUSH1 0x0 DUP1 CALLER PUSH20 0xFFFFFFFFFFFFFFFFFFFFFFFFFFFFFFFFFFFFFFFF AND PUSH20 0xFFFFFFFFFFFFFFFFFFFFFFFFFFFFFFFFFFFFFFFF AND DUP2 MSTORE PUSH1 0x20 ADD SWAP1 DUP2 MSTORE PUSH1 0x20 ADD PUSH1 0x0 KECCAK256 DUP1 SLOAD SWAP1 POP DUP2 LT PUSH2 0x140F JUMPI PUSH1 0x40 MLOAD PUSH32 0x8C379A000000000000000000000000000000000000000000000000000000000 DUP2 MSTORE PUSH1 0x4 ADD PUSH2 0x1406 SWAP1 PUSH2 0x26FA JUMP JUMPDEST PUSH1 0x40 MLOAD DUP1 SWAP2 SUB SWAP1 REVERT JUMPDEST PUSH1 0x0 DUP2 SWAP1 POP JUMPDEST PUSH1 0x1 PUSH1 0x0 DUP1 CALLER PUSH20 0xFFFFFFFFFFFFFFFFFFFFFFFFFFFFFFFFFFFFFFFF AND PUSH20 0xFFFFFFFFFFFFFFFFFFFFFFFFFFFFFFFFFFFFFFFF AND DUP2 MSTORE PUSH1 0x20 ADD SWAP1 DUP2 MSTORE PUSH1 0x20 ADD PUSH1 0x0 KECCAK256 DUP1 SLOAD SWAP1 POP PUSH2 0x1463 SWAP2 SWAP1 PUSH2 0x271A JUMP JUMPDEST DUP2 LT ISZERO PUSH2 0x164A JUMPI PUSH1 0x0 DUP1 CALLER PUSH20 0xFFFFFFFFFFFFFFFFFFFFFFFFFFFFFFFFFFFFFFFF AND PUSH20 0xFFFFFFFFFFFFFFFFFFFFFFFFFFFFFFFFFFFFFFFF AND DUP2 MSTORE PUSH1 0x20 ADD SWAP1 DUP2 MSTORE PUSH1 0x20 ADD PUSH1 0x0 KECCAK256 PUSH1 0x1 DUP3 PUSH2 0x14B5 SWAP2 SWAP1 PUSH2 0x274E JUMP JUMPDEST DUP2 SLOAD DUP2 LT PUSH2 0x14C6 JUMPI PUSH2 0x14C5 PUSH2 0x2577 JUMP JUMPDEST JUMPDEST SWAP1 PUSH1 0x0 MSTORE PUSH1 0x20 PUSH1 0x0 KECCAK256 SWAP1 PUSH1 0x5 MUL ADD PUSH1 0x0 DUP1 CALLER PUSH20 0xFFFFFFFFFFFFFFFFFFFFFFFFFFFFFFFFFFFFFFFF AND PUSH20 0xFFFFFFFFFFFFFFFFFFFFFFFFFFFFFFFFFFFFFFFF AND DUP2 MSTORE PUSH1 0x20 ADD SWAP1 DUP2 MSTORE PUSH1 0x20 ADD PUSH1 0x0 KECCAK256 DUP3 DUP2 SLOAD DUP2 LT PUSH2 0x1524 JUMPI PUSH2 0x1523 PUSH2 0x2577 JUMP JUMPDEST JUMPDEST SWAP1 PUSH1 0x0 MSTORE PUSH1 0x20 PUSH1 0x0 KECCAK256 SWAP1 PUSH1 0x5 MUL ADD PUSH1 0x0 DUP3 ADD PUSH1 0x0 SWAP1 SLOAD SWAP1 PUSH2 0x100 EXP SWAP1 DIV PUSH20 0xFFFFFFFFFFFFFFFFFFFFFFFFFFFFFFFFFFFFFFFF AND DUP2 PUSH1 0x0 ADD PUSH1 0x0 PUSH2 0x100 EXP DUP2 SLOAD DUP2 PUSH20 0xFFFFFFFFFFFFFFFFFFFFFFFFFFFFFFFFFFFFFFFF MUL NOT AND SWAP1 DUP4 PUSH20 0xFFFFFFFFFFFFFFFFFFFFFFFFFFFFFFFFFFFFFFFF AND MUL OR SWAP1 SSTORE POP PUSH1 0x1 DUP3 ADD PUSH1 0x0 SWAP1 SLOAD SWAP1 PUSH2 0x100 EXP SWAP1 DIV PUSH20 0xFFFFFFFFFFFFFFFFFFFFFFFFFFFFFFFFFFFFFFFF AND DUP2 PUSH1 0x1 ADD PUSH1 0x0 PUSH2 0x100 EXP DUP2 SLOAD DUP2 PUSH20 0xFFFFFFFFFFFFFFFFFFFFFFFFFFFFFFFFFFFFFFFF MUL NOT AND SWAP1 DUP4 PUSH20 0xFFFFFFFFFFFFFFFFFFFFFFFFFFFFFFFFFFFFFFFF AND MUL OR SWAP1 SSTORE POP PUSH1 0x2 DUP3 ADD DUP2 PUSH1 0x2 ADD SWAP1 DUP2 PUSH2 0x1614 SWAP2 SWAP1 PUSH2 0x2798 JUMP JUMPDEST POP PUSH1 0x3 DUP3 ADD DUP2 PUSH1 0x3 ADD SWAP1 DUP2 PUSH2 0x1629 SWAP2 SWAP1 PUSH2 0x2798 JUMP JUMPDEST POP PUSH1 0x4 DUP3 ADD SLOAD DUP2 PUSH1 0x4 ADD SSTORE SWAP1 POP POP DUP1 DUP1 PUSH2 0x1642 SWAP1 PUSH2 0x249D JUMP JUMPDEST SWAP2 POP POP PUSH2 0x1415 JUMP JUMPDEST POP PUSH1 0x0 DUP1 CALLER PUSH20 0xFFFFFFFFFFFFFFFFFFFFFFFFFFFFFFFFFFFFFFFF AND PUSH20 0xFFFFFFFFFFFFFFFFFFFFFFFFFFFFFFFFFFFFFFFF AND DUP2 MSTORE PUSH1 0x20 ADD SWAP1 DUP2 MSTORE PUSH1 0x20 ADD PUSH1 0x0 KECCAK256 DUP1 SLOAD DUP1 PUSH2 0x1699 JUMPI PUSH2 0x1698 PUSH2 0x2880 JUMP JUMPDEST JUMPDEST PUSH1 0x1 SWAP1 SUB DUP2 DUP2 SWAP1 PUSH1 0x0 MSTORE PUSH1 0x20 PUSH1 0x0 KECCAK256 SWAP1 PUSH1 0x5 MUL ADD PUSH1 0x0 DUP1 DUP3 ADD PUSH1 0x0 PUSH2 0x100 EXP DUP2 SLOAD SWAP1 PUSH20 0xFFFFFFFFFFFFFFFFFFFFFFFFFFFFFFFFFFFFFFFF MUL NOT AND SWAP1 SSTORE PUSH1 0x1 DUP3 ADD PUSH1 0x0 PUSH2 0x100 EXP DUP2 SLOAD SWAP1 PUSH20 0xFFFFFFFFFFFFFFFFFFFFFFFFFFFFFFFFFFFFFFFF MUL NOT AND SWAP1 SSTORE PUSH1 0x2 DUP3 ADD PUSH1 0x0 PUSH2 0x170C SWAP2 SWAP1 PUSH2 0x190E JUMP JUMPDEST PUSH1 0x3 DUP3 ADD PUSH1 0x0 PUSH2 0x171C SWAP2 SWAP1 PUSH2 0x190E JUMP JUMPDEST PUSH1 0x4 DUP3 ADD PUSH1 0x0 SWAP1 SSTORE POP POP SWAP1 SSTORE POP JUMP JUMPDEST PUSH1 0x60 PUSH1 0x0 DUP3 SUB PUSH2 0x1772 JUMPI PUSH1 0x40 MLOAD DUP1 PUSH1 0x40 ADD PUSH1 0x40 MSTORE DUP1 PUSH1 0x1 DUP2 MSTORE PUSH1 0x20 ADD PUSH32 0x3000000000000000000000000000000000000000000000000000000000000000 DUP2 MSTORE POP SWAP1 POP PUSH2 0x18AE JUMP JUMPDEST PUSH1 0x0 DUP3 SWAP1 POP PUSH1 0x0 JUMPDEST PUSH1 0x0 DUP3 EQ PUSH2 0x17A4 JUMPI DUP1 DUP1 PUSH2 0x178D SWAP1 PUSH2 0x249D JUMP JUMPDEST SWAP2 POP POP PUSH1 0xA DUP3 PUSH2 0x179D SWAP2 SWAP1 PUSH2 0x28DE JUMP JUMPDEST SWAP2 POP PUSH2 0x177A JUMP JUMPDEST PUSH1 0x0 DUP2 PUSH8 0xFFFFFFFFFFFFFFFF DUP2 GT ISZERO PUSH2 0x17C0 JUMPI PUSH2 0x17BF PUSH2 0x1B6C JUMP JUMPDEST JUMPDEST PUSH1 0x40 MLOAD SWAP1 DUP1 DUP3 MSTORE DUP1 PUSH1 0x1F ADD PUSH1 0x1F NOT AND PUSH1 0x20 ADD DUP3 ADD PUSH1 0x40 MSTORE DUP1 ISZERO PUSH2 0x17F2 JUMPI DUP2 PUSH1 0x20 ADD PUSH1 0x1 DUP3 MUL DUP1 CALLDATASIZE DUP4 CALLDATACOPY DUP1 DUP3 ADD SWAP2 POP POP SWAP1 POP JUMPDEST POP SWAP1 POP PUSH1 0x0 DUP3 SWAP1 POP JUMPDEST PUSH1 0x0 DUP7 EQ PUSH2 0x18A6 JUMPI PUSH1 0x1 DUP2 PUSH2 0x1810 SWAP2 SWAP1 PUSH2 0x271A JUMP JUMPDEST SWAP1 POP PUSH1 0x0 PUSH1 0xA DUP1 DUP9 PUSH2 0x1822 SWAP2 SWAP1 PUSH2 0x28DE JUMP JUMPDEST PUSH2 0x182C SWAP2 SWAP1 PUSH2 0x290F JUMP JUMPDEST DUP8 PUSH2 0x1837 SWAP2 SWAP1 PUSH2 0x271A JUMP JUMPDEST PUSH1 0x30 PUSH2 0x1843 SWAP2 SWAP1 PUSH2 0x295E JUMP JUMPDEST SWAP1 POP PUSH1 0x0 DUP2 PUSH1 0xF8 SHL SWAP1 POP DUP1 DUP5 DUP5 DUP2 MLOAD DUP2 LT PUSH2 0x1861 JUMPI PUSH2 0x1860 PUSH2 0x2577 JUMP JUMPDEST JUMPDEST PUSH1 0x20 ADD ADD SWAP1 PUSH31 0xFFFFFFFFFFFFFFFFFFFFFFFFFFFFFFFFFFFFFFFFFFFFFFFFFFFFFFFFFFFFFF NOT AND SWAP1 DUP2 PUSH1 0x0 BYTE SWAP1 MSTORE8 POP PUSH1 0xA DUP9 PUSH2 0x189D SWAP2 SWAP1 PUSH2 0x28DE JUMP JUMPDEST SWAP8 POP POP POP PUSH2 0x17FB JUMP JUMPDEST DUP2 SWAP5 POP POP POP POP POP JUMPDEST SWAP2 SWAP1 POP JUMP JUMPDEST PUSH1 0x40 MLOAD DUP1 PUSH1 0xA0 ADD PUSH1 0x40 MSTORE DUP1 PUSH1 0x0 PUSH20 0xFFFFFFFFFFFFFFFFFFFFFFFFFFFFFFFFFFFFFFFF AND DUP2 MSTORE PUSH1 0x20 ADD PUSH1 0x0 PUSH20 0xFFFFFFFFFFFFFFFFFFFFFFFFFFFFFFFFFFFFFFFF AND DUP2 MSTORE PUSH1 0x20 ADD PUSH1 0x60 DUP2 MSTORE PUSH1 0x20 ADD PUSH1 0x60 DUP2 MSTORE PUSH1 0x20 ADD PUSH1 0x0 DUP2 MSTORE POP SWAP1 JUMP JUMPDEST POP DUP1 SLOAD PUSH2 0x191A SWAP1 PUSH2 0x2015 JUMP JUMPDEST PUSH1 0x0 DUP3 SSTORE DUP1 PUSH1 0x1F LT PUSH2 0x192C JUMPI POP PUSH2 0x194B JUMP JUMPDEST PUSH1 0x1F ADD PUSH1 0x20 SWAP1 DIV SWAP1 PUSH1 0x0 MSTORE PUSH1 0x20 PUSH1 0x0 KECCAK256 SWAP1 DUP2 ADD SWAP1 PUSH2 0x194A SWAP2 SWAP1 PUSH2 0x194E JUMP JUMPDEST JUMPDEST POP JUMP JUMPDEST JUMPDEST DUP1 DUP3 GT ISZERO PUSH2 0x1967 JUMPI PUSH1 0x0 DUP2 PUSH1 0x0 SWAP1 SSTORE POP PUSH1 0x1 ADD PUSH2 0x194F JUMP JUMPDEST POP SWAP1 JUMP JUMPDEST PUSH1 0x0 PUSH1 0x40 MLOAD SWAP1 POP SWAP1 JUMP JUMPDEST PUSH1 0x0 DUP1 REVERT JUMPDEST PUSH1 0x0 DUP1 REVERT JUMPDEST PUSH1 0x0 PUSH20 0xFFFFFFFFFFFFFFFFFFFFFFFFFFFFFFFFFFFFFFFF DUP3 AND SWAP1 POP SWAP2 SWAP1 POP JUMP JUMPDEST PUSH1 0x0 PUSH2 0x19AA DUP3 PUSH2 0x197F JUMP JUMPDEST SWAP1 POP SWAP2 SWAP1 POP JUMP JUMPDEST PUSH2 0x19BA DUP2 PUSH2 0x199F JUMP JUMPDEST DUP2 EQ PUSH2 0x19C5 JUMPI PUSH1 0x0 DUP1 REVERT JUMPDEST POP JUMP JUMPDEST PUSH1 0x0 DUP2 CALLDATALOAD SWAP1 POP PUSH2 0x19D7 DUP2 PUSH2 0x19B1 JUMP JUMPDEST SWAP3 SWAP2 POP POP JUMP JUMPDEST PUSH1 0x0 DUP2 SWAP1 POP SWAP2 SWAP1 POP JUMP JUMPDEST PUSH2 0x19F0 DUP2 PUSH2 0x19DD JUMP JUMPDEST DUP2 EQ PUSH2 0x19FB JUMPI PUSH1 0x0 DUP1 REVERT JUMPDEST POP JUMP JUMPDEST PUSH1 0x0 DUP2 CALLDATALOAD SWAP1 POP PUSH2 0x1A0D DUP2 PUSH2 0x19E7 JUMP JUMPDEST SWAP3 SWAP2 POP POP JUMP JUMPDEST PUSH1 0x0 DUP1 PUSH1 0x40 DUP4 DUP6 SUB SLT ISZERO PUSH2 0x1A2A JUMPI PUSH2 0x1A29 PUSH2 0x1975 JUMP JUMPDEST JUMPDEST PUSH1 0x0 PUSH2 0x1A38 DUP6 DUP3 DUP7 ADD PUSH2 0x19C8 JUMP JUMPDEST SWAP3 POP POP PUSH1 0x20 PUSH2 0x1A49 DUP6 DUP3 DUP7 ADD PUSH2 0x19FE JUMP JUMPDEST SWAP2 POP POP SWAP3 POP SWAP3 SWAP1 POP JUMP JUMPDEST PUSH2 0x1A5C DUP2 PUSH2 0x199F JUMP JUMPDEST DUP3 MSTORE POP POP JUMP JUMPDEST PUSH1 0x0 DUP2 MLOAD SWAP1 POP SWAP2 SWAP1 POP JUMP JUMPDEST PUSH1 0x0 DUP3 DUP3 MSTORE PUSH1 0x20 DUP3 ADD SWAP1 POP SWAP3 SWAP2 POP POP JUMP JUMPDEST PUSH1 0x0 JUMPDEST DUP4 DUP2 LT ISZERO PUSH2 0x1A9C JUMPI DUP1 DUP3 ADD MLOAD DUP2 DUP5 ADD MSTORE PUSH1 0x20 DUP2 ADD SWAP1 POP PUSH2 0x1A81 JUMP JUMPDEST PUSH1 0x0 DUP5 DUP5 ADD MSTORE POP POP POP POP JUMP JUMPDEST PUSH1 0x0 PUSH1 0x1F NOT PUSH1 0x1F DUP4 ADD AND SWAP1 POP SWAP2 SWAP1 POP JUMP JUMPDEST PUSH1 0x0 PUSH2 0x1AC4 DUP3 PUSH2 0x1A62 JUMP JUMPDEST PUSH2 0x1ACE DUP2 DUP6 PUSH2 0x1A6D JUMP JUMPDEST SWAP4 POP PUSH2 0x1ADE DUP2 DUP6 PUSH1 0x20 DUP7 ADD PUSH2 0x1A7E JUMP JUMPDEST PUSH2 0x1AE7 DUP2 PUSH2 0x1AA8 JUMP JUMPDEST DUP5 ADD SWAP2 POP POP SWAP3 SWAP2 POP POP JUMP JUMPDEST PUSH2 0x1AFB DUP2 PUSH2 0x19DD JUMP JUMPDEST DUP3 MSTORE POP POP JUMP JUMPDEST PUSH1 0x0 PUSH1 0xA0 DUP3 ADD SWAP1 POP PUSH2 0x1B16 PUSH1 0x0 DUP4 ADD DUP9 PUSH2 0x1A53 JUMP JUMPDEST PUSH2 0x1B23 PUSH1 0x20 DUP4 ADD DUP8 PUSH2 0x1A53 JUMP JUMPDEST DUP2 DUP2 SUB PUSH1 0x40 DUP4 ADD MSTORE PUSH2 0x1B35 DUP2 DUP7 PUSH2 0x1AB9 JUMP JUMPDEST SWAP1 POP DUP2 DUP2 SUB PUSH1 0x60 DUP4 ADD MSTORE PUSH2 0x1B49 DUP2 DUP6 PUSH2 0x1AB9 JUMP JUMPDEST SWAP1 POP PUSH2 0x1B58 PUSH1 0x80 DUP4 ADD DUP5 PUSH2 0x1AF2 JUMP JUMPDEST SWAP7 SWAP6 POP POP POP POP POP POP JUMP JUMPDEST PUSH1 0x0 DUP1 REVERT JUMPDEST PUSH1 0x0 DUP1 REVERT JUMPDEST PUSH32 0x4E487B7100000000000000000000000000000000000000000000000000000000 PUSH1 0x0 MSTORE PUSH1 0x41 PUSH1 0x4 MSTORE PUSH1 0x24 PUSH1 0x0 REVERT JUMPDEST PUSH2 0x1BA4 DUP3 PUSH2 0x1AA8 JUMP JUMPDEST DUP2 ADD DUP2 DUP2 LT PUSH8 0xFFFFFFFFFFFFFFFF DUP3 GT OR ISZERO PUSH2 0x1BC3 JUMPI PUSH2 0x1BC2 PUSH2 0x1B6C JUMP JUMPDEST JUMPDEST DUP1 PUSH1 0x40 MSTORE POP POP POP JUMP JUMPDEST PUSH1 0x0 PUSH2 0x1BD6 PUSH2 0x196B JUMP JUMPDEST SWAP1 POP PUSH2 0x1BE2 DUP3 DUP3 PUSH2 0x1B9B JUMP JUMPDEST SWAP2 SWAP1 POP JUMP JUMPDEST PUSH1 0x0 PUSH8 0xFFFFFFFFFFFFFFFF DUP3 GT ISZERO PUSH2 0x1C02 JUMPI PUSH2 0x1C01 PUSH2 0x1B6C JUMP JUMPDEST JUMPDEST PUSH2 0x1C0B DUP3 PUSH2 0x1AA8 JUMP JUMPDEST SWAP1 POP PUSH1 0x20 DUP2 ADD SWAP1 POP SWAP2 SWAP1 POP JUMP JUMPDEST DUP3 DUP2 DUP4 CALLDATACOPY PUSH1 0x0 DUP4 DUP4 ADD MSTORE POP POP POP JUMP JUMPDEST PUSH1 0x0 PUSH2 0x1C3A PUSH2 0x1C35 DUP5 PUSH2 0x1BE7 JUMP JUMPDEST PUSH2 0x1BCC JUMP JUMPDEST SWAP1 POP DUP3 DUP2 MSTORE PUSH1 0x20 DUP2 ADD DUP5 DUP5 DUP5 ADD GT ISZERO PUSH2 0x1C56 JUMPI PUSH2 0x1C55 PUSH2 0x1B67 JUMP JUMPDEST JUMPDEST PUSH2 0x1C61 DUP5 DUP3 DUP6 PUSH2 0x1C18 JUMP JUMPDEST POP SWAP4 SWAP3 POP POP POP JUMP JUMPDEST PUSH1 0x0 DUP3 PUSH1 0x1F DUP4 ADD SLT PUSH2 0x1C7E JUMPI PUSH2 0x1C7D PUSH2 0x1B62 JUMP JUMPDEST JUMPDEST DUP2 CALLDATALOAD PUSH2 0x1C8E DUP5 DUP3 PUSH1 0x20 DUP7 ADD PUSH2 0x1C27 JUMP JUMPDEST SWAP2 POP POP SWAP3 SWAP2 POP POP JUMP JUMPDEST PUSH1 0x0 DUP1 PUSH1 0x40 DUP4 DUP6 SUB SLT ISZERO PUSH2 0x1CAE JUMPI PUSH2 0x1CAD PUSH2 0x1975 JUMP JUMPDEST JUMPDEST PUSH1 0x0 DUP4 ADD CALLDATALOAD PUSH8 0xFFFFFFFFFFFFFFFF DUP2 GT ISZERO PUSH2 0x1CCC JUMPI PUSH2 0x1CCB PUSH2 0x197A JUMP JUMPDEST JUMPDEST PUSH2 0x1CD8 DUP6 DUP3 DUP7 ADD PUSH2 0x1C69 JUMP JUMPDEST SWAP3 POP POP PUSH1 0x20 DUP4 ADD CALLDATALOAD PUSH8 0xFFFFFFFFFFFFFFFF DUP2 GT ISZERO PUSH2 0x1CF9 JUMPI PUSH2 0x1CF8 PUSH2 0x197A JUMP JUMPDEST JUMPDEST PUSH2 0x1D05 DUP6 DUP3 DUP7 ADD PUSH2 0x1C69 JUMP JUMPDEST SWAP2 POP POP SWAP3 POP SWAP3 SWAP1 POP JUMP JUMPDEST PUSH1 0x0 PUSH1 0x20 DUP3 DUP5 SUB SLT ISZERO PUSH2 0x1D25 JUMPI PUSH2 0x1D24 PUSH2 0x1975 JUMP JUMPDEST JUMPDEST PUSH1 0x0 PUSH2 0x1D33 DUP5 DUP3 DUP6 ADD PUSH2 0x19C8 JUMP JUMPDEST SWAP2 POP POP SWAP3 SWAP2 POP POP JUMP JUMPDEST PUSH1 0x0 PUSH1 0x40 DUP3 ADD SWAP1 POP PUSH2 0x1D51 PUSH1 0x0 DUP4 ADD DUP6 PUSH2 0x1AF2 JUMP JUMPDEST PUSH2 0x1D5E PUSH1 0x20 DUP4 ADD DUP5 PUSH2 0x1AF2 JUMP JUMPDEST SWAP4 SWAP3 POP POP POP JUMP JUMPDEST PUSH1 0x0 DUP1 PUSH1 0x0 PUSH1 0x60 DUP5 DUP7 SUB SLT ISZERO PUSH2 0x1D7E JUMPI PUSH2 0x1D7D PUSH2 0x1975 JUMP JUMPDEST JUMPDEST PUSH1 0x0 PUSH2 0x1D8C DUP7 DUP3 DUP8 ADD PUSH2 0x19C8 JUMP JUMPDEST SWAP4 POP POP PUSH1 0x20 DUP5 ADD CALLDATALOAD PUSH8 0xFFFFFFFFFFFFFFFF DUP2 GT ISZERO PUSH2 0x1DAD JUMPI PUSH2 0x1DAC PUSH2 0x197A JUMP JUMPDEST JUMPDEST PUSH2 0x1DB9 DUP7 DUP3 DUP8 ADD PUSH2 0x1C69 JUMP JUMPDEST SWAP3 POP POP PUSH1 0x40 DUP5 ADD CALLDATALOAD PUSH8 0xFFFFFFFFFFFFFFFF DUP2 GT ISZERO PUSH2 0x1DDA JUMPI PUSH2 0x1DD9 PUSH2 0x197A JUMP JUMPDEST JUMPDEST PUSH2 0x1DE6 DUP7 DUP3 DUP8 ADD PUSH2 0x1C69 JUMP JUMPDEST SWAP2 POP POP SWAP3 POP SWAP3 POP SWAP3 JUMP JUMPDEST PUSH1 0x0 DUP2 MLOAD SWAP1 POP SWAP2 SWAP1 POP JUMP JUMPDEST PUSH1 0x0 DUP3 DUP3 MSTORE PUSH1 0x20 DUP3 ADD SWAP1 POP SWAP3 SWAP2 POP POP JUMP JUMPDEST PUSH1 0x0 DUP2 SWAP1 POP PUSH1 0x20 DUP3 ADD SWAP1 POP SWAP2 SWAP1 POP JUMP JUMPDEST PUSH2 0x1E25 DUP2 PUSH2 0x199F JUMP JUMPDEST DUP3 MSTORE POP POP JUMP JUMPDEST PUSH1 0x0 DUP3 DUP3 MSTORE PUSH1 0x20 DUP3 ADD SWAP1 POP SWAP3 SWAP2 POP POP JUMP JUMPDEST PUSH1 0x0 PUSH2 0x1E47 DUP3 PUSH2 0x1A62 JUMP JUMPDEST PUSH2 0x1E51 DUP2 DUP6 PUSH2 0x1E2B JUMP JUMPDEST SWAP4 POP PUSH2 0x1E61 DUP2 DUP6 PUSH1 0x20 DUP7 ADD PUSH2 0x1A7E JUMP JUMPDEST PUSH2 0x1E6A DUP2 PUSH2 0x1AA8 JUMP JUMPDEST DUP5 ADD SWAP2 POP POP SWAP3 SWAP2 POP POP JUMP JUMPDEST PUSH2 0x1E7E DUP2 PUSH2 0x19DD JUMP JUMPDEST DUP3 MSTORE POP POP JUMP JUMPDEST PUSH1 0x0 PUSH1 0xA0 DUP4 ADD PUSH1 0x0 DUP4 ADD MLOAD PUSH2 0x1E9C PUSH1 0x0 DUP7 ADD DUP3 PUSH2 0x1E1C JUMP JUMPDEST POP PUSH1 0x20 DUP4 ADD MLOAD PUSH2 0x1EAF PUSH1 0x20 DUP7 ADD DUP3 PUSH2 0x1E1C JUMP JUMPDEST POP PUSH1 0x40 DUP4 ADD MLOAD DUP5 DUP3 SUB PUSH1 0x40 DUP7 ADD MSTORE PUSH2 0x1EC7 DUP3 DUP3 PUSH2 0x1E3C JUMP JUMPDEST SWAP2 POP POP PUSH1 0x60 DUP4 ADD MLOAD DUP5 DUP3 SUB PUSH1 0x60 DUP7 ADD MSTORE PUSH2 0x1EE1 DUP3 DUP3 PUSH2 0x1E3C JUMP JUMPDEST SWAP2 POP POP PUSH1 0x80 DUP4 ADD MLOAD PUSH2 0x1EF6 PUSH1 0x80 DUP7 ADD DUP3 PUSH2 0x1E75 JUMP JUMPDEST POP DUP1 SWAP2 POP POP SWAP3 SWAP2 POP POP JUMP JUMPDEST PUSH1 0x0 PUSH2 0x1F0D DUP4 DUP4 PUSH2 0x1E84 JUMP JUMPDEST SWAP1 POP SWAP3 SWAP2 POP POP JUMP JUMPDEST PUSH1 0x0 PUSH1 0x20 DUP3 ADD SWAP1 POP SWAP2 SWAP1 POP JUMP JUMPDEST PUSH1 0x0 PUSH2 0x1F2D DUP3 PUSH2 0x1DF0 JUMP JUMPDEST PUSH2 0x1F37 DUP2 DUP6 PUSH2 0x1DFB JUMP JUMPDEST SWAP4 POP DUP4 PUSH1 0x20 DUP3 MUL DUP6 ADD PUSH2 0x1F49 DUP6 PUSH2 0x1E0C JUMP JUMPDEST DUP1 PUSH1 0x0 JUMPDEST DUP6 DUP2 LT ISZERO PUSH2 0x1F85 JUMPI DUP5 DUP5 SUB DUP10 MSTORE DUP2 MLOAD PUSH2 0x1F66 DUP6 DUP3 PUSH2 0x1F01 JUMP JUMPDEST SWAP5 POP PUSH2 0x1F71 DUP4 PUSH2 0x1F15 JUMP JUMPDEST SWAP3 POP PUSH1 0x20 DUP11 ADD SWAP10 POP POP PUSH1 0x1 DUP2 ADD SWAP1 POP PUSH2 0x1F4D JUMP JUMPDEST POP DUP3 SWAP8 POP DUP8 SWAP6 POP POP POP POP POP POP SWAP3 SWAP2 POP POP JUMP JUMPDEST PUSH1 0x0 PUSH1 0x20 DUP3 ADD SWAP1 POP DUP2 DUP2 SUB PUSH1 0x0 DUP4 ADD MSTORE PUSH2 0x1FB1 DUP2 DUP5 PUSH2 0x1F22 JUMP JUMPDEST SWAP1 POP SWAP3 SWAP2 POP POP JUMP JUMPDEST PUSH1 0x0 PUSH1 0x20 DUP3 DUP5 SUB SLT ISZERO PUSH2 0x1FCF JUMPI PUSH2 0x1FCE PUSH2 0x1975 JUMP JUMPDEST JUMPDEST PUSH1 0x0 PUSH2 0x1FDD DUP5 DUP3 DUP6 ADD PUSH2 0x19FE JUMP JUMPDEST SWAP2 POP POP SWAP3 SWAP2 POP POP JUMP JUMPDEST PUSH32 0x4E487B7100000000000000000000000000000000000000000000000000000000 PUSH1 0x0 MSTORE PUSH1 0x22 PUSH1 0x4 MSTORE PUSH1 0x24 PUSH1 0x0 REVERT JUMPDEST PUSH1 0x0 PUSH1 0x2 DUP3 DIV SWAP1 POP PUSH1 0x1 DUP3 AND DUP1 PUSH2 0x202D JUMPI PUSH1 0x7F DUP3 AND SWAP2 POP JUMPDEST PUSH1 0x20 DUP3 LT DUP2 SUB PUSH2 0x2040 JUMPI PUSH2 0x203F PUSH2 0x1FE6 JUMP JUMPDEST JUMPDEST POP SWAP2 SWAP1 POP JUMP JUMPDEST PUSH32 0x4E756D626572206F6620656D61696C73206D7573742062652067726561746572 PUSH1 0x0 DUP3 ADD MSTORE PUSH32 0x207468616E203000000000000000000000000000000000000000000000000000 PUSH1 0x20 DUP3 ADD MSTORE POP JUMP JUMPDEST PUSH1 0x0 PUSH2 0x20A2 PUSH1 0x27 DUP4 PUSH2 0x1A6D JUMP JUMPDEST SWAP2 POP PUSH2 0x20AD DUP3 PUSH2 0x2046 JUMP JUMPDEST PUSH1 0x40 DUP3 ADD SWAP1 POP SWAP2 SWAP1 POP JUMP JUMPDEST PUSH1 0x0 PUSH1 0x20 DUP3 ADD SWAP1 POP DUP2 DUP2 SUB PUSH1 0x0 DUP4 ADD MSTORE PUSH2 0x20D1 DUP2 PUSH2 0x2095 JUMP JUMPDEST SWAP1 POP SWAP2 SWAP1 POP JUMP JUMPDEST PUSH1 0x0 DUP2 SWAP1 POP SWAP3 SWAP2 POP POP JUMP JUMPDEST PUSH32 0x4D6F636B20456D61696C20230000000000000000000000000000000000000000 PUSH1 0x0 DUP3 ADD MSTORE POP JUMP JUMPDEST PUSH1 0x0 PUSH2 0x2119 PUSH1 0xC DUP4 PUSH2 0x20D8 JUMP JUMPDEST SWAP2 POP PUSH2 0x2124 DUP3 PUSH2 0x20E3 JUMP JUMPDEST PUSH1 0xC DUP3 ADD SWAP1 POP SWAP2 SWAP1 POP JUMP JUMPDEST PUSH1 0x0 PUSH2 0x213A DUP3 PUSH2 0x1A62 JUMP JUMPDEST PUSH2 0x2144 DUP2 DUP6 PUSH2 0x20D8 JUMP JUMPDEST SWAP4 POP PUSH2 0x2154 DUP2 DUP6 PUSH1 0x20 DUP7 ADD PUSH2 0x1A7E JUMP JUMPDEST DUP1 DUP5 ADD SWAP2 POP POP SWAP3 SWAP2 POP POP JUMP JUMPDEST PUSH1 0x0 PUSH2 0x216B DUP3 PUSH2 0x210C JUMP JUMPDEST SWAP2 POP PUSH2 0x2177 DUP3 DUP5 PUSH2 0x212F JUMP JUMPDEST SWAP2 POP DUP2 SWAP1 POP SWAP3 SWAP2 POP POP JUMP JUMPDEST PUSH32 0x546869732069732061206D6F636B20656D61696C202300000000000000000000 PUSH1 0x0 DUP3 ADD MSTORE POP JUMP JUMPDEST PUSH1 0x0 PUSH2 0x21B8 PUSH1 0x16 DUP4 PUSH2 0x20D8 JUMP JUMPDEST SWAP2 POP PUSH2 0x21C3 DUP3 PUSH2 0x2182 JUMP JUMPDEST PUSH1 0x16 DUP3 ADD SWAP1 POP SWAP2 SWAP1 POP JUMP JUMPDEST PUSH1 0x0 PUSH2 0x21D9 DUP3 PUSH2 0x21AB JUMP JUMPDEST SWAP2 POP PUSH2 0x21E5 DUP3 DUP5 PUSH2 0x212F JUMP JUMPDEST SWAP2 POP DUP2 SWAP1 POP SWAP3 SWAP2 POP POP JUMP JUMPDEST PUSH1 0x0 DUP2 SWAP1 POP DUP2 PUSH1 0x0 MSTORE PUSH1 0x20 PUSH1 0x0 KECCAK256 SWAP1 POP SWAP2 SWAP1 POP JUMP JUMPDEST PUSH1 0x0 PUSH1 0x20 PUSH1 0x1F DUP4 ADD DIV SWAP1 POP SWAP2 SWAP1 POP JUMP JUMPDEST PUSH1 0x0 DUP3 DUP3 SHL SWAP1 POP SWAP3 SWAP2 POP POP JUMP JUMPDEST PUSH1 0x0 PUSH1 0x8 DUP4 MUL PUSH2 0x2252 PUSH32 0xFFFFFFFFFFFFFFFFFFFFFFFFFFFFFFFFFFFFFFFFFFFFFFFFFFFFFFFFFFFFFFFF DUP3 PUSH2 0x2215 JUMP JUMPDEST PUSH2 0x225C DUP7 DUP4 PUSH2 0x2215 JUMP JUMPDEST SWAP6 POP DUP1 NOT DUP5 AND SWAP4 POP DUP1 DUP7 AND DUP5 OR SWAP3 POP POP POP SWAP4 SWAP3 POP POP POP JUMP JUMPDEST PUSH1 0x0 DUP2 SWAP1 POP SWAP2 SWAP1 POP JUMP JUMPDEST PUSH1 0x0 PUSH2 0x2299 PUSH2 0x2294 PUSH2 0x228F DUP5 PUSH2 0x19DD JUMP JUMPDEST PUSH2 0x2274 JUMP JUMPDEST PUSH2 0x19DD JUMP JUMPDEST SWAP1 POP SWAP2 SWAP1 POP JUMP JUMPDEST PUSH1 0x0 DUP2 SWAP1 POP SWAP2 SWAP1 POP JUMP JUMPDEST PUSH2 0x22B3 DUP4 PUSH2 0x227E JUMP JUMPDEST PUSH2 0x22C7 PUSH2 0x22BF DUP3 PUSH2 0x22A0 JUMP JUMPDEST DUP5 DUP5 SLOAD PUSH2 0x2222 JUMP JUMPDEST DUP3 SSTORE POP POP POP POP JUMP JUMPDEST PUSH1 0x0 SWAP1 JUMP JUMPDEST PUSH2 0x22DC PUSH2 0x22CF JUMP JUMPDEST PUSH2 0x22E7 DUP2 DUP5 DUP5 PUSH2 0x22AA JUMP JUMPDEST POP POP POP JUMP JUMPDEST JUMPDEST DUP2 DUP2 LT ISZERO PUSH2 0x230B JUMPI PUSH2 0x2300 PUSH1 0x0 DUP3 PUSH2 0x22D4 JUMP JUMPDEST PUSH1 0x1 DUP2 ADD SWAP1 POP PUSH2 0x22ED JUMP JUMPDEST POP POP JUMP JUMPDEST PUSH1 0x1F DUP3 GT ISZERO PUSH2 0x2350 JUMPI PUSH2 0x2321 DUP2 PUSH2 0x21F0 JUMP JUMPDEST PUSH2 0x232A DUP5 PUSH2 0x2205 JUMP JUMPDEST DUP2 ADD PUSH1 0x20 DUP6 LT ISZERO PUSH2 0x2339 JUMPI DUP2 SWAP1 POP JUMPDEST PUSH2 0x234D PUSH2 0x2345 DUP6 PUSH2 0x2205 JUMP JUMPDEST DUP4 ADD DUP3 PUSH2 0x22EC JUMP JUMPDEST POP POP JUMPDEST POP POP POP JUMP JUMPDEST PUSH1 0x0 DUP3 DUP3 SHR SWAP1 POP SWAP3 SWAP2 POP POP JUMP JUMPDEST PUSH1 0x0 PUSH2 0x2373 PUSH1 0x0 NOT DUP5 PUSH1 0x8 MUL PUSH2 0x2355 JUMP JUMPDEST NOT DUP1 DUP4 AND SWAP2 POP POP SWAP3 SWAP2 POP POP JUMP JUMPDEST PUSH1 0x0 PUSH2 0x238C DUP4 DUP4 PUSH2 0x2362 JUMP JUMPDEST SWAP2 POP DUP3 PUSH1 0x2 MUL DUP3 OR SWAP1 POP SWAP3 SWAP2 POP POP JUMP JUMPDEST PUSH2 0x23A5 DUP3 PUSH2 0x1A62 JUMP JUMPDEST PUSH8 0xFFFFFFFFFFFFFFFF DUP2 GT ISZERO PUSH2 0x23BE JUMPI PUSH2 0x23BD PUSH2 0x1B6C JUMP JUMPDEST JUMPDEST PUSH2 0x23C8 DUP3 SLOAD PUSH2 0x2015 JUMP JUMPDEST PUSH2 0x23D3 DUP3 DUP3 DUP6 PUSH2 0x230F JUMP JUMPDEST PUSH1 0x0 PUSH1 0x20 SWAP1 POP PUSH1 0x1F DUP4 GT PUSH1 0x1 DUP2 EQ PUSH2 0x2406 JUMPI PUSH1 0x0 DUP5 ISZERO PUSH2 0x23F4 JUMPI DUP3 DUP8 ADD MLOAD SWAP1 POP JUMPDEST PUSH2 0x23FE DUP6 DUP3 PUSH2 0x2380 JUMP JUMPDEST DUP7 SSTORE POP PUSH2 0x2466 JUMP JUMPDEST PUSH1 0x1F NOT DUP5 AND PUSH2 0x2414 DUP7 PUSH2 0x21F0 JUMP JUMPDEST PUSH1 0x0 JUMPDEST DUP3 DUP2 LT ISZERO PUSH2 0x243C JUMPI DUP5 DUP10 ADD MLOAD DUP3 SSTORE PUSH1 0x1 DUP3 ADD SWAP2 POP PUSH1 0x20 DUP6 ADD SWAP5 POP PUSH1 0x20 DUP2 ADD SWAP1 POP PUSH2 0x2417 JUMP JUMPDEST DUP7 DUP4 LT ISZERO PUSH2 0x2459 JUMPI DUP5 DUP10 ADD MLOAD PUSH2 0x2455 PUSH1 0x1F DUP10 AND DUP3 PUSH2 0x2362 JUMP JUMPDEST DUP4 SSTORE POP JUMPDEST PUSH1 0x1 PUSH1 0x2 DUP9 MUL ADD DUP9 SSTORE POP POP POP JUMPDEST POP POP POP POP POP POP JUMP JUMPDEST PUSH32 0x4E487B7100000000000000000000000000000000000000000000000000000000 PUSH1 0x0 MSTORE PUSH1 0x11 PUSH1 0x4 MSTORE PUSH1 0x24 PUSH1 0x0 REVERT JUMPDEST PUSH1 0x0 PUSH2 0x24A8 DUP3 PUSH2 0x19DD JUMP JUMPDEST SWAP2 POP PUSH32 0xFFFFFFFFFFFFFFFFFFFFFFFFFFFFFFFFFFFFFFFFFFFFFFFFFFFFFFFFFFFFFFFF DUP3 SUB PUSH2 0x24DA JUMPI PUSH2 0x24D9 PUSH2 0x246E JUMP JUMPDEST JUMPDEST PUSH1 0x1 DUP3 ADD SWAP1 POP SWAP2 SWAP1 POP JUMP JUMPDEST PUSH32 0x4174206C65617374206F6E652072656365697665722061646472657373206973 PUSH1 0x0 DUP3 ADD MSTORE PUSH32 0x2072657175697265640000000000000000000000000000000000000000000000 PUSH1 0x20 DUP3 ADD MSTORE POP JUMP JUMPDEST PUSH1 0x0 PUSH2 0x2541 PUSH1 0x29 DUP4 PUSH2 0x1A6D JUMP JUMPDEST SWAP2 POP PUSH2 0x254C DUP3 PUSH2 0x24E5 JUMP JUMPDEST PUSH1 0x40 DUP3 ADD SWAP1 POP SWAP2 SWAP1 POP JUMP JUMPDEST PUSH1 0x0 PUSH1 0x20 DUP3 ADD SWAP1 POP DUP2 DUP2 SUB PUSH1 0x0 DUP4 ADD MSTORE PUSH2 0x2570 DUP2 PUSH2 0x2534 JUMP JUMPDEST SWAP1 POP SWAP2 SWAP1 POP JUMP JUMPDEST PUSH32 0x4E487B7100000000000000000000000000000000000000000000000000000000 PUSH1 0x0 MSTORE PUSH1 0x32 PUSH1 0x4 MSTORE PUSH1 0x24 PUSH1 0x0 REVERT JUMPDEST PUSH32 0x526563656976657220616464726573732063616E6E6F74206265207A65726F00 PUSH1 0x0 DUP3 ADD MSTORE POP JUMP JUMPDEST PUSH1 0x0 PUSH2 0x25DC PUSH1 0x1F DUP4 PUSH2 0x1A6D JUMP JUMPDEST SWAP2 POP PUSH2 0x25E7 DUP3 PUSH2 0x25A6 JUMP JUMPDEST PUSH1 0x20 DUP3 ADD SWAP1 POP SWAP2 SWAP1 POP JUMP JUMPDEST PUSH1 0x0 PUSH1 0x20 DUP3 ADD SWAP1 POP DUP2 DUP2 SUB PUSH1 0x0 DUP4 ADD MSTORE PUSH2 0x260B DUP2 PUSH2 0x25CF JUMP JUMPDEST SWAP1 POP SWAP2 SWAP1 POP JUMP JUMPDEST PUSH32 0x43616E6E6F742073656E6420616E20656D61696C20746F20796F757273656C66 PUSH1 0x0 DUP3 ADD MSTORE POP JUMP JUMPDEST PUSH1 0x0 PUSH2 0x2648 PUSH1 0x20 DUP4 PUSH2 0x1A6D JUMP JUMPDEST SWAP2 POP PUSH2 0x2653 DUP3 PUSH2 0x2612 JUMP JUMPDEST PUSH1 0x20 DUP3 ADD SWAP1 POP SWAP2 SWAP1 POP JUMP JUMPDEST PUSH1 0x0 PUSH1 0x20 DUP3 ADD SWAP1 POP DUP2 DUP2 SUB PUSH1 0x0 DUP4 ADD MSTORE PUSH2 0x2677 DUP2 PUSH2 0x263B JUMP JUMPDEST SWAP1 POP SWAP2 SWAP1 POP JUMP JUMPDEST PUSH1 0x0 PUSH1 0x40 DUP3 ADD SWAP1 POP DUP2 DUP2 SUB PUSH1 0x0 DUP4 ADD MSTORE PUSH2 0x2698 DUP2 DUP6 PUSH2 0x1AB9 JUMP JUMPDEST SWAP1 POP PUSH2 0x26A7 PUSH1 0x20 DUP4 ADD DUP5 PUSH2 0x1AF2 JUMP JUMPDEST SWAP4 SWAP3 POP POP POP JUMP JUMPDEST PUSH32 0x496E76616C696420696E64657800000000000000000000000000000000000000 PUSH1 0x0 DUP3 ADD MSTORE POP JUMP JUMPDEST PUSH1 0x0 PUSH2 0x26E4 PUSH1 0xD DUP4 PUSH2 0x1A6D JUMP JUMPDEST SWAP2 POP PUSH2 0x26EF DUP3 PUSH2 0x26AE JUMP JUMPDEST PUSH1 0x20 DUP3 ADD SWAP1 POP SWAP2 SWAP1 POP JUMP JUMPDEST PUSH1 0x0 PUSH1 0x20 DUP3 ADD SWAP1 POP DUP2 DUP2 SUB PUSH1 0x0 DUP4 ADD MSTORE PUSH2 0x2713 DUP2 PUSH2 0x26D7 JUMP JUMPDEST SWAP1 POP SWAP2 SWAP1 POP JUMP JUMPDEST PUSH1 0x0 PUSH2 0x2725 DUP3 PUSH2 0x19DD JUMP JUMPDEST SWAP2 POP PUSH2 0x2730 DUP4 PUSH2 0x19DD JUMP JUMPDEST SWAP3 POP DUP3 DUP3 SUB SWAP1 POP DUP2 DUP2 GT ISZERO PUSH2 0x2748 JUMPI PUSH2 0x2747 PUSH2 0x246E JUMP JUMPDEST JUMPDEST SWAP3 SWAP2 POP POP JUMP JUMPDEST PUSH1 0x0 PUSH2 0x2759 DUP3 PUSH2 0x19DD JUMP JUMPDEST SWAP2 POP PUSH2 0x2764 DUP4 PUSH2 0x19DD JUMP JUMPDEST SWAP3 POP DUP3 DUP3 ADD SWAP1 POP DUP1 DUP3 GT ISZERO PUSH2 0x277C JUMPI PUSH2 0x277B PUSH2 0x246E JUMP JUMPDEST JUMPDEST SWAP3 SWAP2 POP POP JUMP JUMPDEST PUSH1 0x0 DUP2 SLOAD SWAP1 POP PUSH2 0x2791 DUP2 PUSH2 0x2015 JUMP JUMPDEST SWAP1 POP SWAP2 SWAP1 POP JUMP JUMPDEST DUP2 DUP2 SUB PUSH2 0x27A6 JUMPI POP POP PUSH2 0x287E JUMP JUMPDEST PUSH2 0x27AF DUP3 PUSH2 0x2782 JUMP JUMPDEST PUSH8 0xFFFFFFFFFFFFFFFF DUP2 GT ISZERO PUSH2 0x27C8 JUMPI PUSH2 0x27C7 PUSH2 0x1B6C JUMP JUMPDEST JUMPDEST PUSH2 0x27D2 DUP3 SLOAD PUSH2 0x2015 JUMP JUMPDEST PUSH2 0x27DD DUP3 DUP3 DUP6 PUSH2 0x230F JUMP JUMPDEST PUSH1 0x0 PUSH1 0x1F DUP4 GT PUSH1 0x1 DUP2 EQ PUSH2 0x280C JUMPI PUSH1 0x0 DUP5 ISZERO PUSH2 0x27FA JUMPI DUP3 DUP8 ADD SLOAD SWAP1 POP JUMPDEST PUSH2 0x2804 DUP6 DUP3 PUSH2 0x2380 JUMP JUMPDEST DUP7 SSTORE POP PUSH2 0x2877 JUMP JUMPDEST PUSH1 0x1F NOT DUP5 AND PUSH2 0x281A DUP8 PUSH2 0x21F0 JUMP JUMPDEST SWAP7 POP PUSH2 0x2825 DUP7 PUSH2 0x21F0 JUMP JUMPDEST PUSH1 0x0 JUMPDEST DUP3 DUP2 LT ISZERO PUSH2 0x284D JUMPI DUP5 DUP10 ADD SLOAD DUP3 SSTORE PUSH1 0x1 DUP3 ADD SWAP2 POP PUSH1 0x1 DUP6 ADD SWAP5 POP PUSH1 0x20 DUP2 ADD SWAP1 POP PUSH2 0x2828 JUMP JUMPDEST DUP7 DUP4 LT ISZERO PUSH2 0x286A JUMPI DUP5 DUP10 ADD SLOAD PUSH2 0x2866 PUSH1 0x1F DUP10 AND DUP3 PUSH2 0x2362 JUMP JUMPDEST DUP4 SSTORE POP JUMPDEST PUSH1 0x1 PUSH1 0x2 DUP9 MUL ADD DUP9 SSTORE POP POP POP JUMPDEST POP POP POP POP POP POP JUMPDEST JUMP JUMPDEST PUSH32 0x4E487B7100000000000000000000000000000000000000000000000000000000 PUSH1 0x0 MSTORE PUSH1 0x31 PUSH1 0x4 MSTORE PUSH1 0x24 PUSH1 0x0 REVERT JUMPDEST PUSH32 0x4E487B7100000000000000000000000000000000000000000000000000000000 PUSH1 0x0 MSTORE PUSH1 0x12 PUSH1 0x4 MSTORE PUSH1 0x24 PUSH1 0x0 REVERT JUMPDEST PUSH1 0x0 PUSH2 0x28E9 DUP3 PUSH2 0x19DD JUMP JUMPDEST SWAP2 POP PUSH2 0x28F4 DUP4 PUSH2 0x19DD JUMP JUMPDEST SWAP3 POP DUP3 PUSH2 0x2904 JUMPI PUSH2 0x2903 PUSH2 0x28AF JUMP JUMPDEST JUMPDEST DUP3 DUP3 DIV SWAP1 POP SWAP3 SWAP2 POP POP JUMP JUMPDEST PUSH1 0x0 PUSH2 0x291A DUP3 PUSH2 0x19DD JUMP JUMPDEST SWAP2 POP PUSH2 0x2925 DUP4 PUSH2 0x19DD JUMP JUMPDEST SWAP3 POP DUP3 DUP3 MUL PUSH2 0x2933 DUP2 PUSH2 0x19DD JUMP JUMPDEST SWAP2 POP DUP3 DUP3 DIV DUP5 EQ DUP4 ISZERO OR PUSH2 0x294A JUMPI PUSH2 0x2949 PUSH2 0x246E JUMP JUMPDEST JUMPDEST POP SWAP3 SWAP2 POP POP JUMP JUMPDEST PUSH1 0x0 PUSH1 0xFF DUP3 AND SWAP1 POP SWAP2 SWAP1 POP JUMP JUMPDEST PUSH1 0x0 PUSH2 0x2969 DUP3 PUSH2 0x2951 JUMP JUMPDEST SWAP2 POP PUSH2 0x2974 DUP4 PUSH2 0x2951 JUMP JUMPDEST SWAP3 POP DUP3 DUP3 ADD SWAP1 POP PUSH1 0xFF DUP2 GT ISZERO PUSH2 0x298D JUMPI PUSH2 0x298C PUSH2 0x246E JUMP JUMPDEST JUMPDEST SWAP3 SWAP2 POP POP JUMP INVALID LOG2 PUSH5 0x6970667358 0x22 SLT KECCAK256 0xE4 PUSH28 0xD91AE9AC60E19F1F0F328F2560664229577ED69EBB7967C0B8DA273F 0x4B 0xD3 PUSH5 0x736F6C6343 STOP ADDMOD SLT STOP CALLER "
				},
				"gasEstimates": {
					"creation": {
						"codeDepositCost": "2139400",
						"executionCost": "infinite",
						"totalCost": "infinite"
					},
					"external": {
						"createAndAddMockEmails(address,uint256)": "infinite",
						"deleteEmail(uint256)": "infinite",
						"getEmailCount(address)": "infinite",
						"getEmailsReceived()": "infinite",
						"inbox(address,uint256)": "infinite",
						"sendEmail(address,string,string)": "infinite",
						"sendEmailToMany(string,string)": "infinite",
						"sent(address,uint256)": "infinite"
					},
					"internal": {
						"uintToString(uint256)": "infinite"
					}
				},
				"methodIdentifiers": {
					"createAndAddMockEmails(address,uint256)": "5384ea9a",
					"deleteEmail(uint256)": "c401f55f",
					"getEmailCount(address)": "8a887541",
					"getEmailsReceived()": "aa1d2c9c",
					"inbox(address,uint256)": "4d622e7a",
					"sendEmail(address,string,string)": "8bb89879",
					"sendEmailToMany(string,string)": "5fc25d8b",
					"sent(address,uint256)": "3bcb2e66"
				}
			},
			"storageLayout": {
				"storage": [
					{
						"astId": 18,
						"contract": "contracts/Mail.sol:Mail",
						"label": "inbox",
						"offset": 0,
						"slot": "0",
						"type": "t_mapping(t_address,t_array(t_struct(Email)12_storage)dyn_storage)"
					},
					{
						"astId": 24,
						"contract": "contracts/Mail.sol:Mail",
						"label": "sent",
						"offset": 0,
						"slot": "1",
						"type": "t_mapping(t_address,t_array(t_struct(Email)12_storage)dyn_storage)"
					},
					{
						"astId": 364,
						"contract": "contracts/Mail.sol:Mail",
						"label": "multipleaddress",
						"offset": 0,
						"slot": "2",
						"type": "t_array(t_address)dyn_storage"
					}
				],
				"types": {
					"t_address": {
						"encoding": "inplace",
						"label": "address",
						"numberOfBytes": "20"
					},
					"t_array(t_address)dyn_storage": {
						"base": "t_address",
						"encoding": "dynamic_array",
						"label": "address[]",
						"numberOfBytes": "32"
					},
					"t_array(t_struct(Email)12_storage)dyn_storage": {
						"base": "t_struct(Email)12_storage",
						"encoding": "dynamic_array",
						"label": "struct Mail.Email[]",
						"numberOfBytes": "32"
					},
					"t_mapping(t_address,t_array(t_struct(Email)12_storage)dyn_storage)": {
						"encoding": "mapping",
						"key": "t_address",
						"label": "mapping(address => struct Mail.Email[])",
						"numberOfBytes": "32",
						"value": "t_array(t_struct(Email)12_storage)dyn_storage"
					},
					"t_string_storage": {
						"encoding": "bytes",
						"label": "string",
						"numberOfBytes": "32"
					},
					"t_struct(Email)12_storage": {
						"encoding": "inplace",
						"label": "struct Mail.Email",
						"members": [
							{
								"astId": 3,
								"contract": "contracts/Mail.sol:Mail",
								"label": "sender",
								"offset": 0,
								"slot": "0",
								"type": "t_address"
							},
							{
								"astId": 5,
								"contract": "contracts/Mail.sol:Mail",
								"label": "receiver",
								"offset": 0,
								"slot": "1",
								"type": "t_address"
							},
							{
								"astId": 7,
								"contract": "contracts/Mail.sol:Mail",
								"label": "subject",
								"offset": 0,
								"slot": "2",
								"type": "t_string_storage"
							},
							{
								"astId": 9,
								"contract": "contracts/Mail.sol:Mail",
								"label": "message",
								"offset": 0,
								"slot": "3",
								"type": "t_string_storage"
							},
							{
								"astId": 11,
								"contract": "contracts/Mail.sol:Mail",
								"label": "timestamp",
								"offset": 0,
								"slot": "4",
								"type": "t_uint256"
							}
						],
						"numberOfBytes": "160"
					},
					"t_uint256": {
						"encoding": "inplace",
						"label": "uint256",
						"numberOfBytes": "32"
					}
				}
			},
			"userdoc": {
				"kind": "user",
				"methods": {},
				"version": 1
			}
		}
	}
}