{
	"contracts/Mail.sol": {
		"Mail": {
			"abi": [
				{
					"anonymous": false,
					"inputs": [
						{
							"indexed": true,
							"internalType": "address",
							"name": "sender",
							"type": "address"
						},
						{
							"indexed": true,
							"internalType": "address",
							"name": "receiver",
							"type": "address"
						},
						{
							"indexed": false,
							"internalType": "string",
							"name": "subject",
							"type": "string"
						},
						{
							"indexed": false,
							"internalType": "uint256",
							"name": "timestamp",
							"type": "uint256"
						}
					],
					"name": "EmailSent",
					"type": "event"
				},
				{
					"inputs": [
						{
							"internalType": "address",
							"name": "_receiver",
							"type": "address"
						},
						{
							"internalType": "uint256",
							"name": "_numberOfEmails",
							"type": "uint256"
						}
					],
					"name": "createAndAddMockEmails",
					"outputs": [],
					"stateMutability": "nonpayable",
					"type": "function"
				},
				{
					"inputs": [
						{
							"internalType": "address",
							"name": "_user",
							"type": "address"
						}
					],
					"name": "getEmailCount",
					"outputs": [
						{
							"internalType": "uint256",
							"name": "inboxCount",
							"type": "uint256"
						},
						{
							"internalType": "uint256",
							"name": "sentCount",
							"type": "uint256"
						}
					],
					"stateMutability": "view",
					"type": "function"
				},
				{
					"inputs": [
						{
							"internalType": "address",
							"name": "_sender",
							"type": "address"
						}
					],
					"name": "getEmailsBySender",
					"outputs": [
						{
							"components": [
								{
									"internalType": "address",
									"name": "sender",
									"type": "address"
								},
								{
									"internalType": "address",
									"name": "receiver",
									"type": "address"
								},
								{
									"internalType": "string",
									"name": "subject",
									"type": "string"
								},
								{
									"internalType": "string",
									"name": "message",
									"type": "string"
								},
								{
									"internalType": "uint256",
									"name": "timestamp",
									"type": "uint256"
								}
							],
							"internalType": "struct Mail.Email[]",
							"name": "",
							"type": "tuple[]"
						}
					],
					"stateMutability": "view",
					"type": "function"
				},
				{
					"inputs": [
						{
							"internalType": "address",
							"name": "",
							"type": "address"
						},
						{
							"internalType": "uint256",
							"name": "",
							"type": "uint256"
						}
					],
					"name": "inbox",
					"outputs": [
						{
							"internalType": "address",
							"name": "sender",
							"type": "address"
						},
						{
							"internalType": "address",
							"name": "receiver",
							"type": "address"
						},
						{
							"internalType": "string",
							"name": "subject",
							"type": "string"
						},
						{
							"internalType": "string",
							"name": "message",
							"type": "string"
						},
						{
							"internalType": "uint256",
							"name": "timestamp",
							"type": "uint256"
						}
					],
					"stateMutability": "view",
					"type": "function"
				},
				{
					"inputs": [
						{
							"internalType": "address",
							"name": "_receiver",
							"type": "address"
						},
						{
							"internalType": "string",
							"name": "_subject",
							"type": "string"
						},
						{
							"internalType": "string",
							"name": "_message",
							"type": "string"
						}
					],
					"name": "sendEmail",
					"outputs": [],
					"stateMutability": "nonpayable",
					"type": "function"
				},
				{
					"inputs": [
						{
							"internalType": "address",
							"name": "",
							"type": "address"
						},
						{
							"internalType": "uint256",
							"name": "",
							"type": "uint256"
						}
					],
					"name": "sent",
					"outputs": [
						{
							"internalType": "address",
							"name": "sender",
							"type": "address"
						},
						{
							"internalType": "address",
							"name": "receiver",
							"type": "address"
						},
						{
							"internalType": "string",
							"name": "subject",
							"type": "string"
						},
						{
							"internalType": "string",
							"name": "message",
							"type": "string"
						},
						{
							"internalType": "uint256",
							"name": "timestamp",
							"type": "uint256"
						}
					],
					"stateMutability": "view",
					"type": "function"
				}
			],
			"devdoc": {
				"kind": "dev",
				"methods": {},
				"version": 1
			},
			"evm": {
				"assembly": "    /* \"contracts/Mail.sol\":60:3306  contract Mail {... */\n  mstore(0x40, 0x80)\n  callvalue\n  dup1\n  iszero\n  tag_1\n  jumpi\n  0x00\n  dup1\n  revert\ntag_1:\n  pop\n  dataSize(sub_0)\n  dup1\n  dataOffset(sub_0)\n  0x00\n  codecopy\n  0x00\n  return\nstop\n\nsub_0: assembly {\n        /* \"contracts/Mail.sol\":60:3306  contract Mail {... */\n      mstore(0x40, 0x80)\n      callvalue\n      dup1\n      iszero\n      tag_1\n      jumpi\n      0x00\n      dup1\n      revert\n    tag_1:\n      pop\n      jumpi(tag_2, lt(calldatasize, 0x04))\n      shr(0xe0, calldataload(0x00))\n      dup1\n      0x0da7ea40\n      eq\n      tag_3\n      jumpi\n      dup1\n      0x3bcb2e66\n      eq\n      tag_4\n      jumpi\n      dup1\n      0x4d622e7a\n      eq\n      tag_5\n      jumpi\n      dup1\n      0x5384ea9a\n      eq\n      tag_6\n      jumpi\n      dup1\n      0x8a887541\n      eq\n      tag_7\n      jumpi\n      dup1\n      0x8bb89879\n      eq\n      tag_8\n      jumpi\n    tag_2:\n      0x00\n      dup1\n      revert\n        /* \"contracts/Mail.sol\":1351:2050  function getEmailsBySender(address _sender) public view returns (Email[] memory) {... */\n    tag_3:\n      tag_9\n      0x04\n      dup1\n      calldatasize\n      sub\n      dup2\n      add\n      swap1\n      tag_10\n      swap2\n      swap1\n      tag_11\n      jump\t// in\n    tag_10:\n      tag_12\n      jump\t// in\n    tag_9:\n      mload(0x40)\n      tag_13\n      swap2\n      swap1\n      tag_14\n      jump\t// in\n    tag_13:\n      mload(0x40)\n      dup1\n      swap2\n      sub\n      swap1\n      return\n        /* \"contracts/Mail.sol\":295:334  mapping(address => Email[]) public sent */\n    tag_4:\n      tag_15\n      0x04\n      dup1\n      calldatasize\n      sub\n      dup2\n      add\n      swap1\n      tag_16\n      swap2\n      swap1\n      tag_17\n      jump\t// in\n    tag_16:\n      tag_18\n      jump\t// in\n    tag_15:\n      mload(0x40)\n      tag_19\n      swap6\n      swap5\n      swap4\n      swap3\n      swap2\n      swap1\n      tag_20\n      jump\t// in\n    tag_19:\n      mload(0x40)\n      dup1\n      swap2\n      sub\n      swap1\n      return\n        /* \"contracts/Mail.sol\":248:288  mapping(address => Email[]) public inbox */\n    tag_5:\n      tag_21\n      0x04\n      dup1\n      calldatasize\n      sub\n      dup2\n      add\n      swap1\n      tag_22\n      swap2\n      swap1\n      tag_17\n      jump\t// in\n    tag_22:\n      tag_23\n      jump\t// in\n    tag_21:\n      mload(0x40)\n      tag_24\n      swap6\n      swap5\n      swap4\n      swap3\n      swap2\n      swap1\n      tag_20\n      jump\t// in\n    tag_24:\n      mload(0x40)\n      dup1\n      swap2\n      sub\n      swap1\n      return\n        /* \"contracts/Mail.sol\":2120:2687  function createAndAddMockEmails(address _receiver, uint256 _numberOfEmails) public {... */\n    tag_6:\n      tag_25\n      0x04\n      dup1\n      calldatasize\n      sub\n      dup2\n      add\n      swap1\n      tag_26\n      swap2\n      swap1\n      tag_17\n      jump\t// in\n    tag_26:\n      tag_27\n      jump\t// in\n    tag_25:\n      stop\n        /* \"contracts/Mail.sol\":1153:1343  function getEmailCount(address _user) public view returns (uint256 inboxCount, uint256 sentCount) {... */\n    tag_7:\n      tag_28\n      0x04\n      dup1\n      calldatasize\n      sub\n      dup2\n      add\n      swap1\n      tag_29\n      swap2\n      swap1\n      tag_11\n      jump\t// in\n    tag_29:\n      tag_30\n      jump\t// in\n    tag_28:\n      mload(0x40)\n      tag_31\n      swap3\n      swap2\n      swap1\n      tag_32\n      jump\t// in\n    tag_31:\n      mload(0x40)\n      dup1\n      swap2\n      sub\n      swap1\n      return\n        /* \"contracts/Mail.sol\":497:1145  function sendEmail(address _receiver, string memory _subject, string memory _message) public {... */\n    tag_8:\n      tag_33\n      0x04\n      dup1\n      calldatasize\n      sub\n      dup2\n      add\n      swap1\n      tag_34\n      swap2\n      swap1\n      tag_35\n      jump\t// in\n    tag_34:\n      tag_36\n      jump\t// in\n    tag_33:\n      stop\n        /* \"contracts/Mail.sol\":1351:2050  function getEmailsBySender(address _sender) public view returns (Email[] memory) {... */\n    tag_12:\n        /* \"contracts/Mail.sol\":1416:1430  Email[] memory */\n      0x60\n        /* \"contracts/Mail.sol\":1443:1464  Email[] memory emails */\n      0x00\n        /* \"contracts/Mail.sol\":1467:1472  inbox */\n      dup1\n        /* \"contracts/Mail.sol\":1467:1481  inbox[_sender] */\n      0x00\n        /* \"contracts/Mail.sol\":1473:1480  _sender */\n      dup5\n        /* \"contracts/Mail.sol\":1467:1481  inbox[_sender] */\n      0xffffffffffffffffffffffffffffffffffffffff\n      and\n      0xffffffffffffffffffffffffffffffffffffffff\n      and\n      dup2\n      mstore\n      0x20\n      add\n      swap1\n      dup2\n      mstore\n      0x20\n      add\n      0x00\n      keccak256\n        /* \"contracts/Mail.sol\":1443:1481  Email[] memory emails = inbox[_sender] */\n      dup1\n      sload\n      dup1\n      0x20\n      mul\n      0x20\n      add\n      mload(0x40)\n      swap1\n      dup2\n      add\n      0x40\n      mstore\n      dup1\n      swap3\n      swap2\n      swap1\n      dup2\n      dup2\n      mstore\n      0x20\n      add\n      0x00\n      swap1\n    tag_38:\n      dup3\n      dup3\n      lt\n      iszero\n      tag_39\n      jumpi\n      dup4\n      dup3\n      swap1\n      0x00\n      mstore\n      keccak256(0x00, 0x20)\n      swap1\n      0x05\n      mul\n      add\n      mload(0x40)\n      dup1\n      0xa0\n      add\n      0x40\n      mstore\n      swap1\n      dup2\n      0x00\n      dup3\n      add\n      0x00\n      swap1\n      sload\n      swap1\n      0x0100\n      exp\n      swap1\n      div\n      0xffffffffffffffffffffffffffffffffffffffff\n      and\n      0xffffffffffffffffffffffffffffffffffffffff\n      and\n      0xffffffffffffffffffffffffffffffffffffffff\n      and\n      dup2\n      mstore\n      0x20\n      add\n      0x01\n      dup3\n      add\n      0x00\n      swap1\n      sload\n      swap1\n      0x0100\n      exp\n      swap1\n      div\n      0xffffffffffffffffffffffffffffffffffffffff\n      and\n      0xffffffffffffffffffffffffffffffffffffffff\n      and\n      0xffffffffffffffffffffffffffffffffffffffff\n      and\n      dup2\n      mstore\n      0x20\n      add\n      0x02\n      dup3\n      add\n      dup1\n      sload\n      tag_41\n      swap1\n      tag_42\n      jump\t// in\n    tag_41:\n      dup1\n      0x1f\n      add\n      0x20\n      dup1\n      swap2\n      div\n      mul\n      0x20\n      add\n      mload(0x40)\n      swap1\n      dup2\n      add\n      0x40\n      mstore\n      dup1\n      swap3\n      swap2\n      swap1\n      dup2\n      dup2\n      mstore\n      0x20\n      add\n      dup3\n      dup1\n      sload\n      tag_43\n      swap1\n      tag_42\n      jump\t// in\n    tag_43:\n      dup1\n      iszero\n      tag_44\n      jumpi\n      dup1\n      0x1f\n      lt\n      tag_45\n      jumpi\n      0x0100\n      dup1\n      dup4\n      sload\n      div\n      mul\n      dup4\n      mstore\n      swap2\n      0x20\n      add\n      swap2\n      jump(tag_44)\n    tag_45:\n      dup3\n      add\n      swap2\n      swap1\n      0x00\n      mstore\n      keccak256(0x00, 0x20)\n      swap1\n    tag_46:\n      dup2\n      sload\n      dup2\n      mstore\n      swap1\n      0x01\n      add\n      swap1\n      0x20\n      add\n      dup1\n      dup4\n      gt\n      tag_46\n      jumpi\n      dup3\n      swap1\n      sub\n      0x1f\n      and\n      dup3\n      add\n      swap2\n    tag_44:\n      pop\n      pop\n      pop\n      pop\n      pop\n      dup2\n      mstore\n      0x20\n      add\n      0x03\n      dup3\n      add\n      dup1\n      sload\n      tag_47\n      swap1\n      tag_42\n      jump\t// in\n    tag_47:\n      dup1\n      0x1f\n      add\n      0x20\n      dup1\n      swap2\n      div\n      mul\n      0x20\n      add\n      mload(0x40)\n      swap1\n      dup2\n      add\n      0x40\n      mstore\n      dup1\n      swap3\n      swap2\n      swap1\n      dup2\n      dup2\n      mstore\n      0x20\n      add\n      dup3\n      dup1\n      sload\n      tag_48\n      swap1\n      tag_42\n      jump\t// in\n    tag_48:\n      dup1\n      iszero\n      tag_49\n      jumpi\n      dup1\n      0x1f\n      lt\n      tag_50\n      jumpi\n      0x0100\n      dup1\n      dup4\n      sload\n      div\n      mul\n      dup4\n      mstore\n      swap2\n      0x20\n      add\n      swap2\n      jump(tag_49)\n    tag_50:\n      dup3\n      add\n      swap2\n      swap1\n      0x00\n      mstore\n      keccak256(0x00, 0x20)\n      swap1\n    tag_51:\n      dup2\n      sload\n      dup2\n      mstore\n      swap1\n      0x01\n      add\n      swap1\n      0x20\n      add\n      dup1\n      dup4\n      gt\n      tag_51\n      jumpi\n      dup3\n      swap1\n      sub\n      0x1f\n      and\n      dup3\n      add\n      swap2\n    tag_49:\n      pop\n      pop\n      pop\n      pop\n      pop\n      dup2\n      mstore\n      0x20\n      add\n      0x04\n      dup3\n      add\n      sload\n      dup2\n      mstore\n      pop\n      pop\n      dup2\n      mstore\n      0x20\n      add\n      swap1\n      0x01\n      add\n      swap1\n      jump(tag_38)\n    tag_39:\n      pop\n      pop\n      pop\n      pop\n      swap1\n      pop\n        /* \"contracts/Mail.sol\":1492:1505  uint256 count */\n      0x00\n        /* \"contracts/Mail.sol\":1508:1514  emails */\n      dup2\n        /* \"contracts/Mail.sol\":1508:1521  emails.length */\n      mload\n        /* \"contracts/Mail.sol\":1492:1521  uint256 count = emails.length */\n      swap1\n      pop\n        /* \"contracts/Mail.sol\":1532:1559  Email[] memory senderEmails */\n      0x00\n        /* \"contracts/Mail.sol\":1574:1579  count */\n      dup2\n        /* \"contracts/Mail.sol\":1562:1580  new Email[](count) */\n      0xffffffffffffffff\n      dup2\n      gt\n      iszero\n      tag_52\n      jumpi\n      tag_53\n      tag_54\n      jump\t// in\n    tag_53:\n    tag_52:\n      mload(0x40)\n      swap1\n      dup1\n      dup3\n      mstore\n      dup1\n      0x20\n      mul\n      0x20\n      add\n      dup3\n      add\n      0x40\n      mstore\n      dup1\n      iszero\n      tag_55\n      jumpi\n      dup2\n      0x20\n      add\n    tag_56:\n      tag_57\n      tag_58\n      jump\t// in\n    tag_57:\n      dup2\n      mstore\n      0x20\n      add\n      swap1\n      0x01\n      swap1\n      sub\n      swap1\n      dup2\n      tag_56\n      jumpi\n      swap1\n      pop\n    tag_55:\n      pop\n        /* \"contracts/Mail.sol\":1532:1580  Email[] memory senderEmails = new Email[](count) */\n      swap1\n      pop\n        /* \"contracts/Mail.sol\":1591:1616  uint256 senderEmailsCount */\n      0x00\n        /* \"contracts/Mail.sol\":1638:1647  uint256 i */\n      dup1\n        /* \"contracts/Mail.sol\":1633:1844  for (uint256 i = 0; i < count; i++) {... */\n    tag_59:\n        /* \"contracts/Mail.sol\":1657:1662  count */\n      dup4\n        /* \"contracts/Mail.sol\":1653:1654  i */\n      dup2\n        /* \"contracts/Mail.sol\":1653:1662  i < count */\n      lt\n        /* \"contracts/Mail.sol\":1633:1844  for (uint256 i = 0; i < count; i++) {... */\n      iszero\n      tag_60\n      jumpi\n        /* \"contracts/Mail.sol\":1708:1715  _sender */\n      dup7\n        /* \"contracts/Mail.sol\":1688:1715  emails[i].sender == _sender */\n      0xffffffffffffffffffffffffffffffffffffffff\n      and\n        /* \"contracts/Mail.sol\":1688:1694  emails */\n      dup6\n        /* \"contracts/Mail.sol\":1695:1696  i */\n      dup3\n        /* \"contracts/Mail.sol\":1688:1697  emails[i] */\n      dup2\n      mload\n      dup2\n      lt\n      tag_62\n      jumpi\n      tag_63\n      tag_64\n      jump\t// in\n    tag_63:\n    tag_62:\n      0x20\n      mul\n      0x20\n      add\n      add\n      mload\n        /* \"contracts/Mail.sol\":1688:1704  emails[i].sender */\n      0x00\n      add\n      mload\n        /* \"contracts/Mail.sol\":1688:1715  emails[i].sender == _sender */\n      0xffffffffffffffffffffffffffffffffffffffff\n      and\n      sub\n        /* \"contracts/Mail.sol\":1684:1833  if (emails[i].sender == _sender) {... */\n      tag_65\n      jumpi\n        /* \"contracts/Mail.sol\":1770:1776  emails */\n      dup5\n        /* \"contracts/Mail.sol\":1777:1778  i */\n      dup2\n        /* \"contracts/Mail.sol\":1770:1779  emails[i] */\n      dup2\n      mload\n      dup2\n      lt\n      tag_66\n      jumpi\n      tag_67\n      tag_64\n      jump\t// in\n    tag_67:\n    tag_66:\n      0x20\n      mul\n      0x20\n      add\n      add\n      mload\n        /* \"contracts/Mail.sol\":1736:1748  senderEmails */\n      dup4\n        /* \"contracts/Mail.sol\":1749:1766  senderEmailsCount */\n      dup4\n        /* \"contracts/Mail.sol\":1736:1767  senderEmails[senderEmailsCount] */\n      dup2\n      mload\n      dup2\n      lt\n      tag_68\n      jumpi\n      tag_69\n      tag_64\n      jump\t// in\n    tag_69:\n    tag_68:\n      0x20\n      mul\n      0x20\n      add\n      add\n        /* \"contracts/Mail.sol\":1736:1779  senderEmails[senderEmailsCount] = emails[i] */\n      dup2\n      swap1\n      mstore\n      pop\n        /* \"contracts/Mail.sol\":1798:1817  senderEmailsCount++ */\n      dup2\n      dup1\n      tag_70\n      swap1\n      tag_71\n      jump\t// in\n    tag_70:\n      swap3\n      pop\n      pop\n        /* \"contracts/Mail.sol\":1684:1833  if (emails[i].sender == _sender) {... */\n    tag_65:\n        /* \"contracts/Mail.sol\":1664:1667  i++ */\n      dup1\n      dup1\n      tag_72\n      swap1\n      tag_71\n      jump\t// in\n    tag_72:\n      swap2\n      pop\n      pop\n        /* \"contracts/Mail.sol\":1633:1844  for (uint256 i = 0; i < count; i++) {... */\n      jump(tag_59)\n    tag_60:\n      pop\n        /* \"contracts/Mail.sol\":1982:1999  senderEmailsCount */\n      dup1\n        /* \"contracts/Mail.sol\":1968:1980  senderEmails */\n      dup3\n        /* \"contracts/Mail.sol\":1961:2000  mstore(senderEmails, senderEmailsCount) */\n      mstore\n        /* \"contracts/Mail.sol\":2030:2042  senderEmails */\n      dup2\n        /* \"contracts/Mail.sol\":2023:2042  return senderEmails */\n      swap5\n      pop\n      pop\n      pop\n      pop\n      pop\n        /* \"contracts/Mail.sol\":1351:2050  function getEmailsBySender(address _sender) public view returns (Email[] memory) {... */\n      swap2\n      swap1\n      pop\n      jump\t// out\n        /* \"contracts/Mail.sol\":295:334  mapping(address => Email[]) public sent */\n    tag_18:\n      mstore(0x20, 0x01)\n      dup2\n      0x00\n      mstore\n      keccak256(0x00, 0x40)\n      dup2\n      dup2\n      sload\n      dup2\n      lt\n      tag_73\n      jumpi\n      0x00\n      dup1\n      revert\n    tag_73:\n      swap1\n      0x00\n      mstore\n      keccak256(0x00, 0x20)\n      swap1\n      0x05\n      mul\n      add\n      0x00\n      swap2\n      pop\n      swap2\n      pop\n      pop\n      dup1\n      0x00\n      add\n      0x00\n      swap1\n      sload\n      swap1\n      0x0100\n      exp\n      swap1\n      div\n      0xffffffffffffffffffffffffffffffffffffffff\n      and\n      swap1\n      dup1\n      0x01\n      add\n      0x00\n      swap1\n      sload\n      swap1\n      0x0100\n      exp\n      swap1\n      div\n      0xffffffffffffffffffffffffffffffffffffffff\n      and\n      swap1\n      dup1\n      0x02\n      add\n      dup1\n      sload\n      tag_75\n      swap1\n      tag_42\n      jump\t// in\n    tag_75:\n      dup1\n      0x1f\n      add\n      0x20\n      dup1\n      swap2\n      div\n      mul\n      0x20\n      add\n      mload(0x40)\n      swap1\n      dup2\n      add\n      0x40\n      mstore\n      dup1\n      swap3\n      swap2\n      swap1\n      dup2\n      dup2\n      mstore\n      0x20\n      add\n      dup3\n      dup1\n      sload\n      tag_76\n      swap1\n      tag_42\n      jump\t// in\n    tag_76:\n      dup1\n      iszero\n      tag_77\n      jumpi\n      dup1\n      0x1f\n      lt\n      tag_78\n      jumpi\n      0x0100\n      dup1\n      dup4\n      sload\n      div\n      mul\n      dup4\n      mstore\n      swap2\n      0x20\n      add\n      swap2\n      jump(tag_77)\n    tag_78:\n      dup3\n      add\n      swap2\n      swap1\n      0x00\n      mstore\n      keccak256(0x00, 0x20)\n      swap1\n    tag_79:\n      dup2\n      sload\n      dup2\n      mstore\n      swap1\n      0x01\n      add\n      swap1\n      0x20\n      add\n      dup1\n      dup4\n      gt\n      tag_79\n      jumpi\n      dup3\n      swap1\n      sub\n      0x1f\n      and\n      dup3\n      add\n      swap2\n    tag_77:\n      pop\n      pop\n      pop\n      pop\n      pop\n      swap1\n      dup1\n      0x03\n      add\n      dup1\n      sload\n      tag_80\n      swap1\n      tag_42\n      jump\t// in\n    tag_80:\n      dup1\n      0x1f\n      add\n      0x20\n      dup1\n      swap2\n      div\n      mul\n      0x20\n      add\n      mload(0x40)\n      swap1\n      dup2\n      add\n      0x40\n      mstore\n      dup1\n      swap3\n      swap2\n      swap1\n      dup2\n      dup2\n      mstore\n      0x20\n      add\n      dup3\n      dup1\n      sload\n      tag_81\n      swap1\n      tag_42\n      jump\t// in\n    tag_81:\n      dup1\n      iszero\n      tag_82\n      jumpi\n      dup1\n      0x1f\n      lt\n      tag_83\n      jumpi\n      0x0100\n      dup1\n      dup4\n      sload\n      div\n      mul\n      dup4\n      mstore\n      swap2\n      0x20\n      add\n      swap2\n      jump(tag_82)\n    tag_83:\n      dup3\n      add\n      swap2\n      swap1\n      0x00\n      mstore\n      keccak256(0x00, 0x20)\n      swap1\n    tag_84:\n      dup2\n      sload\n      dup2\n      mstore\n      swap1\n      0x01\n      add\n      swap1\n      0x20\n      add\n      dup1\n      dup4\n      gt\n      tag_84\n      jumpi\n      dup3\n      swap1\n      sub\n      0x1f\n      and\n      dup3\n      add\n      swap2\n    tag_82:\n      pop\n      pop\n      pop\n      pop\n      pop\n      swap1\n      dup1\n      0x04\n      add\n      sload\n      swap1\n      pop\n      dup6\n      jump\t// out\n        /* \"contracts/Mail.sol\":248:288  mapping(address => Email[]) public inbox */\n    tag_23:\n      mstore(0x20, 0x00)\n      dup2\n      0x00\n      mstore\n      keccak256(0x00, 0x40)\n      dup2\n      dup2\n      sload\n      dup2\n      lt\n      tag_85\n      jumpi\n      0x00\n      dup1\n      revert\n    tag_85:\n      swap1\n      0x00\n      mstore\n      keccak256(0x00, 0x20)\n      swap1\n      0x05\n      mul\n      add\n      0x00\n      swap2\n      pop\n      swap2\n      pop\n      pop\n      dup1\n      0x00\n      add\n      0x00\n      swap1\n      sload\n      swap1\n      0x0100\n      exp\n      swap1\n      div\n      0xffffffffffffffffffffffffffffffffffffffff\n      and\n      swap1\n      dup1\n      0x01\n      add\n      0x00\n      swap1\n      sload\n      swap1\n      0x0100\n      exp\n      swap1\n      div\n      0xffffffffffffffffffffffffffffffffffffffff\n      and\n      swap1\n      dup1\n      0x02\n      add\n      dup1\n      sload\n      tag_87\n      swap1\n      tag_42\n      jump\t// in\n    tag_87:\n      dup1\n      0x1f\n      add\n      0x20\n      dup1\n      swap2\n      div\n      mul\n      0x20\n      add\n      mload(0x40)\n      swap1\n      dup2\n      add\n      0x40\n      mstore\n      dup1\n      swap3\n      swap2\n      swap1\n      dup2\n      dup2\n      mstore\n      0x20\n      add\n      dup3\n      dup1\n      sload\n      tag_88\n      swap1\n      tag_42\n      jump\t// in\n    tag_88:\n      dup1\n      iszero\n      tag_89\n      jumpi\n      dup1\n      0x1f\n      lt\n      tag_90\n      jumpi\n      0x0100\n      dup1\n      dup4\n      sload\n      div\n      mul\n      dup4\n      mstore\n      swap2\n      0x20\n      add\n      swap2\n      jump(tag_89)\n    tag_90:\n      dup3\n      add\n      swap2\n      swap1\n      0x00\n      mstore\n      keccak256(0x00, 0x20)\n      swap1\n    tag_91:\n      dup2\n      sload\n      dup2\n      mstore\n      swap1\n      0x01\n      add\n      swap1\n      0x20\n      add\n      dup1\n      dup4\n      gt\n      tag_91\n      jumpi\n      dup3\n      swap1\n      sub\n      0x1f\n      and\n      dup3\n      add\n      swap2\n    tag_89:\n      pop\n      pop\n      pop\n      pop\n      pop\n      swap1\n      dup1\n      0x03\n      add\n      dup1\n      sload\n      tag_92\n      swap1\n      tag_42\n      jump\t// in\n    tag_92:\n      dup1\n      0x1f\n      add\n      0x20\n      dup1\n      swap2\n      div\n      mul\n      0x20\n      add\n      mload(0x40)\n      swap1\n      dup2\n      add\n      0x40\n      mstore\n      dup1\n      swap3\n      swap2\n      swap1\n      dup2\n      dup2\n      mstore\n      0x20\n      add\n      dup3\n      dup1\n      sload\n      tag_93\n      swap1\n      tag_42\n      jump\t// in\n    tag_93:\n      dup1\n      iszero\n      tag_94\n      jumpi\n      dup1\n      0x1f\n      lt\n      tag_95\n      jumpi\n      0x0100\n      dup1\n      dup4\n      sload\n      div\n      mul\n      dup4\n      mstore\n      swap2\n      0x20\n      add\n      swap2\n      jump(tag_94)\n    tag_95:\n      dup3\n      add\n      swap2\n      swap1\n      0x00\n      mstore\n      keccak256(0x00, 0x20)\n      swap1\n    tag_96:\n      dup2\n      sload\n      dup2\n      mstore\n      swap1\n      0x01\n      add\n      swap1\n      0x20\n      add\n      dup1\n      dup4\n      gt\n      tag_96\n      jumpi\n      dup3\n      swap1\n      sub\n      0x1f\n      and\n      dup3\n      add\n      swap2\n    tag_94:\n      pop\n      pop\n      pop\n      pop\n      pop\n      swap1\n      dup1\n      0x04\n      add\n      sload\n      swap1\n      pop\n      dup6\n      jump\t// out\n        /* \"contracts/Mail.sol\":2120:2687  function createAndAddMockEmails(address _receiver, uint256 _numberOfEmails) public {... */\n    tag_27:\n        /* \"contracts/Mail.sol\":2240:2241  0 */\n      0x00\n        /* \"contracts/Mail.sol\":2222:2237  _numberOfEmails */\n      dup2\n        /* \"contracts/Mail.sol\":2222:2241  _numberOfEmails > 0 */\n      gt\n        /* \"contracts/Mail.sol\":2214:2285  require(_numberOfEmails > 0, \"Number of emails must be greater than 0\") */\n      tag_98\n      jumpi\n      mload(0x40)\n      0x08c379a000000000000000000000000000000000000000000000000000000000\n      dup2\n      mstore\n      0x04\n      add\n      tag_99\n      swap1\n      tag_100\n      jump\t// in\n    tag_99:\n      mload(0x40)\n      dup1\n      swap2\n      sub\n      swap1\n      revert\n    tag_98:\n        /* \"contracts/Mail.sol\":2311:2320  uint256 i */\n      0x00\n        /* \"contracts/Mail.sol\":2306:2680  for (uint256 i = 0; i < _numberOfEmails; i++) {... */\n    tag_101:\n        /* \"contracts/Mail.sol\":2330:2345  _numberOfEmails */\n      dup2\n        /* \"contracts/Mail.sol\":2326:2327  i */\n      dup2\n        /* \"contracts/Mail.sol\":2326:2345  i < _numberOfEmails */\n      lt\n        /* \"contracts/Mail.sol\":2306:2680  for (uint256 i = 0; i < _numberOfEmails; i++) {... */\n      iszero\n      tag_102\n      jumpi\n        /* \"contracts/Mail.sol\":2367:2388  string memory subject */\n      0x00\n        /* \"contracts/Mail.sol\":2431:2446  uintToString(i) */\n      tag_104\n        /* \"contracts/Mail.sol\":2444:2445  i */\n      dup3\n        /* \"contracts/Mail.sol\":2431:2443  uintToString */\n      tag_105\n        /* \"contracts/Mail.sol\":2431:2446  uintToString(i) */\n      jump\t// in\n    tag_104:\n        /* \"contracts/Mail.sol\":2398:2447  abi.encodePacked(\"Mock Email #\", uintToString(i)) */\n      add(0x20, mload(0x40))\n      tag_106\n      swap2\n      swap1\n      tag_107\n      jump\t// in\n    tag_106:\n      mload(0x40)\n      0x20\n      dup2\n      dup4\n      sub\n      sub\n      dup2\n      mstore\n      swap1\n      0x40\n      mstore\n        /* \"contracts/Mail.sol\":2367:2448  string memory subject = string(abi.encodePacked(\"Mock Email #\", uintToString(i))) */\n      swap1\n      pop\n        /* \"contracts/Mail.sol\":2463:2484  string memory message */\n      0x00\n        /* \"contracts/Mail.sol\":2537:2552  uintToString(i) */\n      tag_108\n        /* \"contracts/Mail.sol\":2550:2551  i */\n      dup4\n        /* \"contracts/Mail.sol\":2537:2549  uintToString */\n      tag_105\n        /* \"contracts/Mail.sol\":2537:2552  uintToString(i) */\n      jump\t// in\n    tag_108:\n        /* \"contracts/Mail.sol\":2494:2553  abi.encodePacked(\"This is a mock email #\", uintToString(i)) */\n      add(0x20, mload(0x40))\n      tag_109\n      swap2\n      swap1\n      tag_110\n      jump\t// in\n    tag_109:\n      mload(0x40)\n      0x20\n      dup2\n      dup4\n      sub\n      sub\n      dup2\n      mstore\n      swap1\n      0x40\n      mstore\n        /* \"contracts/Mail.sol\":2463:2554  string memory message = string(abi.encodePacked(\"This is a mock email #\", uintToString(i))) */\n      swap1\n      pop\n        /* \"contracts/Mail.sol\":2583:2588  inbox */\n      0x00\n        /* \"contracts/Mail.sol\":2583:2599  inbox[_receiver] */\n      dup1\n        /* \"contracts/Mail.sol\":2589:2598  _receiver */\n      dup7\n        /* \"contracts/Mail.sol\":2583:2599  inbox[_receiver] */\n      0xffffffffffffffffffffffffffffffffffffffff\n      and\n      0xffffffffffffffffffffffffffffffffffffffff\n      and\n      dup2\n      mstore\n      0x20\n      add\n      swap1\n      dup2\n      mstore\n      0x20\n      add\n      0x00\n      keccak256\n        /* \"contracts/Mail.sol\":2605:2667  Email(msg.sender, _receiver, subject, message,block.timestamp) */\n      mload(0x40)\n      dup1\n      0xa0\n      add\n      0x40\n      mstore\n      dup1\n        /* \"contracts/Mail.sol\":2611:2621  msg.sender */\n      caller\n        /* \"contracts/Mail.sol\":2605:2667  Email(msg.sender, _receiver, subject, message,block.timestamp) */\n      0xffffffffffffffffffffffffffffffffffffffff\n      and\n      dup2\n      mstore\n      0x20\n      add\n        /* \"contracts/Mail.sol\":2623:2632  _receiver */\n      dup8\n        /* \"contracts/Mail.sol\":2605:2667  Email(msg.sender, _receiver, subject, message,block.timestamp) */\n      0xffffffffffffffffffffffffffffffffffffffff\n      and\n      dup2\n      mstore\n      0x20\n      add\n        /* \"contracts/Mail.sol\":2634:2641  subject */\n      dup5\n        /* \"contracts/Mail.sol\":2605:2667  Email(msg.sender, _receiver, subject, message,block.timestamp) */\n      dup2\n      mstore\n      0x20\n      add\n        /* \"contracts/Mail.sol\":2643:2650  message */\n      dup4\n        /* \"contracts/Mail.sol\":2605:2667  Email(msg.sender, _receiver, subject, message,block.timestamp) */\n      dup2\n      mstore\n      0x20\n      add\n        /* \"contracts/Mail.sol\":2651:2666  block.timestamp */\n      timestamp\n        /* \"contracts/Mail.sol\":2605:2667  Email(msg.sender, _receiver, subject, message,block.timestamp) */\n      dup2\n      mstore\n      pop\n        /* \"contracts/Mail.sol\":2583:2668  inbox[_receiver].push(Email(msg.sender, _receiver, subject, message,block.timestamp)) */\n      swap1\n      dup1\n      0x01\n      dup2\n      sload\n      add\n      dup1\n      dup3\n      sstore\n      dup1\n      swap2\n      pop\n      pop\n      0x01\n      swap1\n      sub\n      swap1\n      0x00\n      mstore\n      keccak256(0x00, 0x20)\n      swap1\n      0x05\n      mul\n      add\n      0x00\n      swap1\n      swap2\n      swap1\n      swap2\n      swap1\n      swap2\n      pop\n      0x00\n      dup3\n      add\n      mload\n      dup2\n      0x00\n      add\n      exp(0x0100, 0x00)\n      dup2\n      sload\n      dup2\n      0xffffffffffffffffffffffffffffffffffffffff\n      mul\n      not\n      and\n      swap1\n      dup4\n      0xffffffffffffffffffffffffffffffffffffffff\n      and\n      mul\n      or\n      swap1\n      sstore\n      pop\n      0x20\n      dup3\n      add\n      mload\n      dup2\n      0x01\n      add\n      exp(0x0100, 0x00)\n      dup2\n      sload\n      dup2\n      0xffffffffffffffffffffffffffffffffffffffff\n      mul\n      not\n      and\n      swap1\n      dup4\n      0xffffffffffffffffffffffffffffffffffffffff\n      and\n      mul\n      or\n      swap1\n      sstore\n      pop\n      0x40\n      dup3\n      add\n      mload\n      dup2\n      0x02\n      add\n      swap1\n      dup2\n      tag_112\n      swap2\n      swap1\n      tag_113\n      jump\t// in\n    tag_112:\n      pop\n      0x60\n      dup3\n      add\n      mload\n      dup2\n      0x03\n      add\n      swap1\n      dup2\n      tag_114\n      swap2\n      swap1\n      tag_113\n      jump\t// in\n    tag_114:\n      pop\n      0x80\n      dup3\n      add\n      mload\n      dup2\n      0x04\n      add\n      sstore\n      pop\n      pop\n        /* \"contracts/Mail.sol\":2352:2680  {... */\n      pop\n      pop\n        /* \"contracts/Mail.sol\":2347:2350  i++ */\n      dup1\n      dup1\n      tag_115\n      swap1\n      tag_71\n      jump\t// in\n    tag_115:\n      swap2\n      pop\n      pop\n        /* \"contracts/Mail.sol\":2306:2680  for (uint256 i = 0; i < _numberOfEmails; i++) {... */\n      jump(tag_101)\n    tag_102:\n      pop\n        /* \"contracts/Mail.sol\":2120:2687  function createAndAddMockEmails(address _receiver, uint256 _numberOfEmails) public {... */\n      pop\n      pop\n      jump\t// out\n        /* \"contracts/Mail.sol\":1153:1343  function getEmailCount(address _user) public view returns (uint256 inboxCount, uint256 sentCount) {... */\n    tag_30:\n        /* \"contracts/Mail.sol\":1212:1230  uint256 inboxCount */\n      0x00\n        /* \"contracts/Mail.sol\":1232:1249  uint256 sentCount */\n      dup1\n        /* \"contracts/Mail.sol\":1275:1280  inbox */\n      0x00\n        /* \"contracts/Mail.sol\":1275:1287  inbox[_user] */\n      dup1\n        /* \"contracts/Mail.sol\":1281:1286  _user */\n      dup5\n        /* \"contracts/Mail.sol\":1275:1287  inbox[_user] */\n      0xffffffffffffffffffffffffffffffffffffffff\n      and\n      0xffffffffffffffffffffffffffffffffffffffff\n      and\n      dup2\n      mstore\n      0x20\n      add\n      swap1\n      dup2\n      mstore\n      0x20\n      add\n      0x00\n      keccak256\n        /* \"contracts/Mail.sol\":1275:1294  inbox[_user].length */\n      dup1\n      sload\n      swap1\n      pop\n        /* \"contracts/Mail.sol\":1262:1294  inboxCount = inbox[_user].length */\n      swap2\n      pop\n        /* \"contracts/Mail.sol\":1317:1321  sent */\n      0x01\n        /* \"contracts/Mail.sol\":1317:1328  sent[_user] */\n      0x00\n        /* \"contracts/Mail.sol\":1322:1327  _user */\n      dup5\n        /* \"contracts/Mail.sol\":1317:1328  sent[_user] */\n      0xffffffffffffffffffffffffffffffffffffffff\n      and\n      0xffffffffffffffffffffffffffffffffffffffff\n      and\n      dup2\n      mstore\n      0x20\n      add\n      swap1\n      dup2\n      mstore\n      0x20\n      add\n      0x00\n      keccak256\n        /* \"contracts/Mail.sol\":1317:1335  sent[_user].length */\n      dup1\n      sload\n      swap1\n      pop\n        /* \"contracts/Mail.sol\":1305:1335  sentCount = sent[_user].length */\n      swap1\n      pop\n        /* \"contracts/Mail.sol\":1153:1343  function getEmailCount(address _user) public view returns (uint256 inboxCount, uint256 sentCount) {... */\n      swap2\n      pop\n      swap2\n      jump\t// out\n        /* \"contracts/Mail.sol\":497:1145  function sendEmail(address _receiver, string memory _subject, string memory _message) public {... */\n    tag_36:\n        /* \"contracts/Mail.sol\":630:631  0 */\n      0x00\n        /* \"contracts/Mail.sol\":609:632  _receiver != address(0) */\n      0xffffffffffffffffffffffffffffffffffffffff\n      and\n        /* \"contracts/Mail.sol\":609:618  _receiver */\n      dup4\n        /* \"contracts/Mail.sol\":609:632  _receiver != address(0) */\n      0xffffffffffffffffffffffffffffffffffffffff\n      and\n      sub\n        /* \"contracts/Mail.sol\":601:668  require(_receiver != address(0), \"Receiver address cannot be zero\") */\n      tag_118\n      jumpi\n      mload(0x40)\n      0x08c379a000000000000000000000000000000000000000000000000000000000\n      dup2\n      mstore\n      0x04\n      add\n      tag_119\n      swap1\n      tag_120\n      jump\t// in\n    tag_119:\n      mload(0x40)\n      dup1\n      swap2\n      sub\n      swap1\n      revert\n    tag_118:\n        /* \"contracts/Mail.sol\":701:710  _receiver */\n      dup3\n        /* \"contracts/Mail.sol\":687:710  msg.sender != _receiver */\n      0xffffffffffffffffffffffffffffffffffffffff\n      and\n        /* \"contracts/Mail.sol\":687:697  msg.sender */\n      caller\n        /* \"contracts/Mail.sol\":687:710  msg.sender != _receiver */\n      0xffffffffffffffffffffffffffffffffffffffff\n      and\n      sub\n        /* \"contracts/Mail.sol\":679:747  require(msg.sender != _receiver, \"Cannot send an email to yourself\") */\n      tag_121\n      jumpi\n      mload(0x40)\n      0x08c379a000000000000000000000000000000000000000000000000000000000\n      dup2\n      mstore\n      0x04\n      add\n      tag_122\n      swap1\n      tag_123\n      jump\t// in\n    tag_122:\n      mload(0x40)\n      dup1\n      swap2\n      sub\n      swap1\n      revert\n    tag_121:\n        /* \"contracts/Mail.sol\":760:781  Email memory newEmail */\n      0x00\n        /* \"contracts/Mail.sol\":784:974  Email({... */\n      mload(0x40)\n      dup1\n      0xa0\n      add\n      0x40\n      mstore\n      dup1\n        /* \"contracts/Mail.sol\":813:823  msg.sender */\n      caller\n        /* \"contracts/Mail.sol\":784:974  Email({... */\n      0xffffffffffffffffffffffffffffffffffffffff\n      and\n      dup2\n      mstore\n      0x20\n      add\n        /* \"contracts/Mail.sol\":848:857  _receiver */\n      dup6\n        /* \"contracts/Mail.sol\":784:974  Email({... */\n      0xffffffffffffffffffffffffffffffffffffffff\n      and\n      dup2\n      mstore\n      0x20\n      add\n        /* \"contracts/Mail.sol\":881:889  _subject */\n      dup5\n        /* \"contracts/Mail.sol\":784:974  Email({... */\n      dup2\n      mstore\n      0x20\n      add\n        /* \"contracts/Mail.sol\":913:921  _message */\n      dup4\n        /* \"contracts/Mail.sol\":784:974  Email({... */\n      dup2\n      mstore\n      0x20\n      add\n        /* \"contracts/Mail.sol\":947:962  block.timestamp */\n      timestamp\n        /* \"contracts/Mail.sol\":784:974  Email({... */\n      dup2\n      mstore\n      pop\n        /* \"contracts/Mail.sol\":760:974  Email memory newEmail = Email({... */\n      swap1\n      pop\n        /* \"contracts/Mail.sol\":987:992  inbox */\n      0x00\n        /* \"contracts/Mail.sol\":987:1003  inbox[_receiver] */\n      dup1\n        /* \"contracts/Mail.sol\":993:1002  _receiver */\n      dup6\n        /* \"contracts/Mail.sol\":987:1003  inbox[_receiver] */\n      0xffffffffffffffffffffffffffffffffffffffff\n      and\n      0xffffffffffffffffffffffffffffffffffffffff\n      and\n      dup2\n      mstore\n      0x20\n      add\n      swap1\n      dup2\n      mstore\n      0x20\n      add\n      0x00\n      keccak256\n        /* \"contracts/Mail.sol\":1009:1017  newEmail */\n      dup2\n        /* \"contracts/Mail.sol\":987:1018  inbox[_receiver].push(newEmail) */\n      swap1\n      dup1\n      0x01\n      dup2\n      sload\n      add\n      dup1\n      dup3\n      sstore\n      dup1\n      swap2\n      pop\n      pop\n      0x01\n      swap1\n      sub\n      swap1\n      0x00\n      mstore\n      keccak256(0x00, 0x20)\n      swap1\n      0x05\n      mul\n      add\n      0x00\n      swap1\n      swap2\n      swap1\n      swap2\n      swap1\n      swap2\n      pop\n      0x00\n      dup3\n      add\n      mload\n      dup2\n      0x00\n      add\n      exp(0x0100, 0x00)\n      dup2\n      sload\n      dup2\n      0xffffffffffffffffffffffffffffffffffffffff\n      mul\n      not\n      and\n      swap1\n      dup4\n      0xffffffffffffffffffffffffffffffffffffffff\n      and\n      mul\n      or\n      swap1\n      sstore\n      pop\n      0x20\n      dup3\n      add\n      mload\n      dup2\n      0x01\n      add\n      exp(0x0100, 0x00)\n      dup2\n      sload\n      dup2\n      0xffffffffffffffffffffffffffffffffffffffff\n      mul\n      not\n      and\n      swap1\n      dup4\n      0xffffffffffffffffffffffffffffffffffffffff\n      and\n      mul\n      or\n      swap1\n      sstore\n      pop\n      0x40\n      dup3\n      add\n      mload\n      dup2\n      0x02\n      add\n      swap1\n      dup2\n      tag_125\n      swap2\n      swap1\n      tag_113\n      jump\t// in\n    tag_125:\n      pop\n      0x60\n      dup3\n      add\n      mload\n      dup2\n      0x03\n      add\n      swap1\n      dup2\n      tag_126\n      swap2\n      swap1\n      tag_113\n      jump\t// in\n    tag_126:\n      pop\n      0x80\n      dup3\n      add\n      mload\n      dup2\n      0x04\n      add\n      sstore\n      pop\n      pop\n        /* \"contracts/Mail.sol\":1029:1033  sent */\n      0x01\n        /* \"contracts/Mail.sol\":1029:1045  sent[msg.sender] */\n      0x00\n        /* \"contracts/Mail.sol\":1034:1044  msg.sender */\n      caller\n        /* \"contracts/Mail.sol\":1029:1045  sent[msg.sender] */\n      0xffffffffffffffffffffffffffffffffffffffff\n      and\n      0xffffffffffffffffffffffffffffffffffffffff\n      and\n      dup2\n      mstore\n      0x20\n      add\n      swap1\n      dup2\n      mstore\n      0x20\n      add\n      0x00\n      keccak256\n        /* \"contracts/Mail.sol\":1051:1059  newEmail */\n      dup2\n        /* \"contracts/Mail.sol\":1029:1060  sent[msg.sender].push(newEmail) */\n      swap1\n      dup1\n      0x01\n      dup2\n      sload\n      add\n      dup1\n      dup3\n      sstore\n      dup1\n      swap2\n      pop\n      pop\n      0x01\n      swap1\n      sub\n      swap1\n      0x00\n      mstore\n      keccak256(0x00, 0x20)\n      swap1\n      0x05\n      mul\n      add\n      0x00\n      swap1\n      swap2\n      swap1\n      swap2\n      swap1\n      swap2\n      pop\n      0x00\n      dup3\n      add\n      mload\n      dup2\n      0x00\n      add\n      exp(0x0100, 0x00)\n      dup2\n      sload\n      dup2\n      0xffffffffffffffffffffffffffffffffffffffff\n      mul\n      not\n      and\n      swap1\n      dup4\n      0xffffffffffffffffffffffffffffffffffffffff\n      and\n      mul\n      or\n      swap1\n      sstore\n      pop\n      0x20\n      dup3\n      add\n      mload\n      dup2\n      0x01\n      add\n      exp(0x0100, 0x00)\n      dup2\n      sload\n      dup2\n      0xffffffffffffffffffffffffffffffffffffffff\n      mul\n      not\n      and\n      swap1\n      dup4\n      0xffffffffffffffffffffffffffffffffffffffff\n      and\n      mul\n      or\n      swap1\n      sstore\n      pop\n      0x40\n      dup3\n      add\n      mload\n      dup2\n      0x02\n      add\n      swap1\n      dup2\n      tag_128\n      swap2\n      swap1\n      tag_113\n      jump\t// in\n    tag_128:\n      pop\n      0x60\n      dup3\n      add\n      mload\n      dup2\n      0x03\n      add\n      swap1\n      dup2\n      tag_129\n      swap2\n      swap1\n      tag_113\n      jump\t// in\n    tag_129:\n      pop\n      0x80\n      dup3\n      add\n      mload\n      dup2\n      0x04\n      add\n      sstore\n      pop\n      pop\n        /* \"contracts/Mail.sol\":1100:1109  _receiver */\n      dup4\n        /* \"contracts/Mail.sol\":1078:1137  EmailSent(msg.sender, _receiver, _subject, block.timestamp) */\n      0xffffffffffffffffffffffffffffffffffffffff\n      and\n        /* \"contracts/Mail.sol\":1088:1098  msg.sender */\n      caller\n        /* \"contracts/Mail.sol\":1078:1137  EmailSent(msg.sender, _receiver, _subject, block.timestamp) */\n      0xffffffffffffffffffffffffffffffffffffffff\n      and\n      0x2ecdf33a271447607b6aca3173f5f892e91720d5106f80c513aa4710a2bb4e33\n        /* \"contracts/Mail.sol\":1111:1119  _subject */\n      dup6\n        /* \"contracts/Mail.sol\":1121:1136  block.timestamp */\n      timestamp\n        /* \"contracts/Mail.sol\":1078:1137  EmailSent(msg.sender, _receiver, _subject, block.timestamp) */\n      mload(0x40)\n      tag_130\n      swap3\n      swap2\n      swap1\n      tag_131\n      jump\t// in\n    tag_130:\n      mload(0x40)\n      dup1\n      swap2\n      sub\n      swap1\n      log3\n        /* \"contracts/Mail.sol\":590:1145  {... */\n      pop\n        /* \"contracts/Mail.sol\":497:1145  function sendEmail(address _receiver, string memory _subject, string memory _message) public {... */\n      pop\n      pop\n      pop\n      jump\t// out\n        /* \"contracts/Mail.sol\":2749:3303  function uintToString(uint256 v) internal pure returns (string memory) {... */\n    tag_105:\n        /* \"contracts/Mail.sol\":2805:2818  string memory */\n      0x60\n        /* \"contracts/Mail.sol\":2840:2841  0 */\n      0x00\n        /* \"contracts/Mail.sol\":2835:2836  v */\n      dup3\n        /* \"contracts/Mail.sol\":2835:2841  v == 0 */\n      sub\n        /* \"contracts/Mail.sol\":2831:2853  if (v == 0) return \"0\" */\n      tag_133\n      jumpi\n        /* \"contracts/Mail.sol\":2843:2853  return \"0\" */\n      mload(0x40)\n      dup1\n      0x40\n      add\n      0x40\n      mstore\n      dup1\n      0x01\n      dup2\n      mstore\n      0x20\n      add\n      0x3000000000000000000000000000000000000000000000000000000000000000\n      dup2\n      mstore\n      pop\n      swap1\n      pop\n      jump(tag_132)\n        /* \"contracts/Mail.sol\":2831:2853  if (v == 0) return \"0\" */\n    tag_133:\n        /* \"contracts/Mail.sol\":2864:2873  uint256 j */\n      0x00\n        /* \"contracts/Mail.sol\":2876:2877  v */\n      dup3\n        /* \"contracts/Mail.sol\":2864:2877  uint256 j = v */\n      swap1\n      pop\n        /* \"contracts/Mail.sol\":2888:2902  uint256 length */\n      0x00\n        /* \"contracts/Mail.sol\":2913:2985  while (j != 0) {... */\n    tag_134:\n        /* \"contracts/Mail.sol\":2925:2926  0 */\n      0x00\n        /* \"contracts/Mail.sol\":2920:2921  j */\n      dup3\n        /* \"contracts/Mail.sol\":2920:2926  j != 0 */\n      eq\n        /* \"contracts/Mail.sol\":2913:2985  while (j != 0) {... */\n      tag_135\n      jumpi\n        /* \"contracts/Mail.sol\":2943:2951  length++ */\n      dup1\n      dup1\n      tag_136\n      swap1\n      tag_71\n      jump\t// in\n    tag_136:\n      swap2\n      pop\n      pop\n        /* \"contracts/Mail.sol\":2971:2973  10 */\n      0x0a\n        /* \"contracts/Mail.sol\":2966:2973  j /= 10 */\n      dup3\n      tag_137\n      swap2\n      swap1\n      tag_138\n      jump\t// in\n    tag_137:\n      swap2\n      pop\n        /* \"contracts/Mail.sol\":2913:2985  while (j != 0) {... */\n      jump(tag_134)\n    tag_135:\n        /* \"contracts/Mail.sol\":2995:3012  bytes memory bstr */\n      0x00\n        /* \"contracts/Mail.sol\":3025:3031  length */\n      dup2\n        /* \"contracts/Mail.sol\":3015:3032  new bytes(length) */\n      0xffffffffffffffff\n      dup2\n      gt\n      iszero\n      tag_139\n      jumpi\n      tag_140\n      tag_54\n      jump\t// in\n    tag_140:\n    tag_139:\n      mload(0x40)\n      swap1\n      dup1\n      dup3\n      mstore\n      dup1\n      0x1f\n      add\n      not(0x1f)\n      and\n      0x20\n      add\n      dup3\n      add\n      0x40\n      mstore\n      dup1\n      iszero\n      tag_141\n      jumpi\n      dup2\n      0x20\n      add\n      0x01\n      dup3\n      mul\n      dup1\n      calldatasize\n      dup4\n      calldatacopy\n      dup1\n      dup3\n      add\n      swap2\n      pop\n      pop\n      swap1\n      pop\n    tag_141:\n      pop\n        /* \"contracts/Mail.sol\":2995:3032  bytes memory bstr = new bytes(length) */\n      swap1\n      pop\n        /* \"contracts/Mail.sol\":3043:3052  uint256 k */\n      0x00\n        /* \"contracts/Mail.sol\":3055:3061  length */\n      dup3\n        /* \"contracts/Mail.sol\":3043:3061  uint256 k = length */\n      swap1\n      pop\n        /* \"contracts/Mail.sol\":3072:3266  while (v != 0) {... */\n    tag_142:\n        /* \"contracts/Mail.sol\":3084:3085  0 */\n      0x00\n        /* \"contracts/Mail.sol\":3079:3080  v */\n      dup7\n        /* \"contracts/Mail.sol\":3079:3085  v != 0 */\n      eq\n        /* \"contracts/Mail.sol\":3072:3266  while (v != 0) {... */\n      tag_143\n      jumpi\n        /* \"contracts/Mail.sol\":3108:3109  1 */\n      0x01\n        /* \"contracts/Mail.sol\":3106:3107  k */\n      dup2\n        /* \"contracts/Mail.sol\":3106:3109  k-1 */\n      tag_144\n      swap2\n      swap1\n      tag_145\n      jump\t// in\n    tag_144:\n        /* \"contracts/Mail.sol\":3102:3109  k = k-1 */\n      swap1\n      pop\n        /* \"contracts/Mail.sol\":3124:3134  uint8 temp */\n      0x00\n        /* \"contracts/Mail.sol\":3162:3164  10 */\n      0x0a\n        /* \"contracts/Mail.sol\":3157:3159  10 */\n      dup1\n        /* \"contracts/Mail.sol\":3153:3154  v */\n      dup9\n        /* \"contracts/Mail.sol\":3153:3159  v / 10 */\n      tag_146\n      swap2\n      swap1\n      tag_138\n      jump\t// in\n    tag_146:\n        /* \"contracts/Mail.sol\":3153:3164  v / 10 * 10 */\n      tag_147\n      swap2\n      swap1\n      tag_148\n      jump\t// in\n    tag_147:\n        /* \"contracts/Mail.sol\":3149:3150  v */\n      dup8\n        /* \"contracts/Mail.sol\":3149:3164  v - v / 10 * 10 */\n      tag_149\n      swap2\n      swap1\n      tag_145\n      jump\t// in\n    tag_149:\n        /* \"contracts/Mail.sol\":3138:3140  48 */\n      0x30\n        /* \"contracts/Mail.sol\":3138:3165  48 + uint8(v - v / 10 * 10) */\n      tag_150\n      swap2\n      swap1\n      tag_151\n      jump\t// in\n    tag_150:\n        /* \"contracts/Mail.sol\":3124:3166  uint8 temp = (48 + uint8(v - v / 10 * 10)) */\n      swap1\n      pop\n        /* \"contracts/Mail.sol\":3181:3190  bytes1 b1 */\n      0x00\n        /* \"contracts/Mail.sol\":3200:3204  temp */\n      dup2\n        /* \"contracts/Mail.sol\":3193:3205  bytes1(temp) */\n      0xf8\n      shl\n        /* \"contracts/Mail.sol\":3181:3205  bytes1 b1 = bytes1(temp) */\n      swap1\n      pop\n        /* \"contracts/Mail.sol\":3230:3232  b1 */\n      dup1\n        /* \"contracts/Mail.sol\":3220:3224  bstr */\n      dup5\n        /* \"contracts/Mail.sol\":3225:3226  k */\n      dup5\n        /* \"contracts/Mail.sol\":3220:3227  bstr[k] */\n      dup2\n      mload\n      dup2\n      lt\n      tag_152\n      jumpi\n      tag_153\n      tag_64\n      jump\t// in\n    tag_153:\n    tag_152:\n      0x20\n      add\n      add\n        /* \"contracts/Mail.sol\":3220:3232  bstr[k] = b1 */\n      swap1\n      not(0xffffffffffffffffffffffffffffffffffffffffffffffffffffffffffffff)\n      and\n      swap1\n      dup2\n      0x00\n      byte\n      swap1\n      mstore8\n      pop\n        /* \"contracts/Mail.sol\":3252:3254  10 */\n      0x0a\n        /* \"contracts/Mail.sol\":3247:3254  v /= 10 */\n      dup9\n      tag_154\n      swap2\n      swap1\n      tag_138\n      jump\t// in\n    tag_154:\n      swap8\n      pop\n        /* \"contracts/Mail.sol\":3087:3266  {... */\n      pop\n      pop\n        /* \"contracts/Mail.sol\":3072:3266  while (v != 0) {... */\n      jump(tag_142)\n    tag_143:\n        /* \"contracts/Mail.sol\":3290:3294  bstr */\n      dup2\n        /* \"contracts/Mail.sol\":3276:3295  return string(bstr) */\n      swap5\n      pop\n      pop\n      pop\n      pop\n      pop\n        /* \"contracts/Mail.sol\":2749:3303  function uintToString(uint256 v) internal pure returns (string memory) {... */\n    tag_132:\n      swap2\n      swap1\n      pop\n      jump\t// out\n    tag_58:\n      mload(0x40)\n      dup1\n      0xa0\n      add\n      0x40\n      mstore\n      dup1\n      and(0xffffffffffffffffffffffffffffffffffffffff, 0x00)\n      dup2\n      mstore\n      0x20\n      add\n      and(0xffffffffffffffffffffffffffffffffffffffff, 0x00)\n      dup2\n      mstore\n      0x20\n      add\n      0x60\n      dup2\n      mstore\n      0x20\n      add\n      0x60\n      dup2\n      mstore\n      0x20\n      add\n      0x00\n      dup2\n      mstore\n      pop\n      swap1\n      jump\t// out\n        /* \"#utility.yul\":7:82   */\n    tag_155:\n        /* \"#utility.yul\":40:46   */\n      0x00\n        /* \"#utility.yul\":73:75   */\n      0x40\n        /* \"#utility.yul\":67:76   */\n      mload\n        /* \"#utility.yul\":57:76   */\n      swap1\n      pop\n        /* \"#utility.yul\":7:82   */\n      swap1\n      jump\t// out\n        /* \"#utility.yul\":88:205   */\n    tag_156:\n        /* \"#utility.yul\":197:198   */\n      0x00\n        /* \"#utility.yul\":194:195   */\n      dup1\n        /* \"#utility.yul\":187:199   */\n      revert\n        /* \"#utility.yul\":211:328   */\n    tag_157:\n        /* \"#utility.yul\":320:321   */\n      0x00\n        /* \"#utility.yul\":317:318   */\n      dup1\n        /* \"#utility.yul\":310:322   */\n      revert\n        /* \"#utility.yul\":334:460   */\n    tag_158:\n        /* \"#utility.yul\":371:378   */\n      0x00\n        /* \"#utility.yul\":411:453   */\n      0xffffffffffffffffffffffffffffffffffffffff\n        /* \"#utility.yul\":404:409   */\n      dup3\n        /* \"#utility.yul\":400:454   */\n      and\n        /* \"#utility.yul\":389:454   */\n      swap1\n      pop\n        /* \"#utility.yul\":334:460   */\n      swap2\n      swap1\n      pop\n      jump\t// out\n        /* \"#utility.yul\":466:562   */\n    tag_159:\n        /* \"#utility.yul\":503:510   */\n      0x00\n        /* \"#utility.yul\":532:556   */\n      tag_228\n        /* \"#utility.yul\":550:555   */\n      dup3\n        /* \"#utility.yul\":532:556   */\n      tag_158\n      jump\t// in\n    tag_228:\n        /* \"#utility.yul\":521:556   */\n      swap1\n      pop\n        /* \"#utility.yul\":466:562   */\n      swap2\n      swap1\n      pop\n      jump\t// out\n        /* \"#utility.yul\":568:690   */\n    tag_160:\n        /* \"#utility.yul\":641:665   */\n      tag_230\n        /* \"#utility.yul\":659:664   */\n      dup2\n        /* \"#utility.yul\":641:665   */\n      tag_159\n      jump\t// in\n    tag_230:\n        /* \"#utility.yul\":634:639   */\n      dup2\n        /* \"#utility.yul\":631:666   */\n      eq\n        /* \"#utility.yul\":621:684   */\n      tag_231\n      jumpi\n        /* \"#utility.yul\":680:681   */\n      0x00\n        /* \"#utility.yul\":677:678   */\n      dup1\n        /* \"#utility.yul\":670:682   */\n      revert\n        /* \"#utility.yul\":621:684   */\n    tag_231:\n        /* \"#utility.yul\":568:690   */\n      pop\n      jump\t// out\n        /* \"#utility.yul\":696:835   */\n    tag_161:\n        /* \"#utility.yul\":742:747   */\n      0x00\n        /* \"#utility.yul\":780:786   */\n      dup2\n        /* \"#utility.yul\":767:787   */\n      calldataload\n        /* \"#utility.yul\":758:787   */\n      swap1\n      pop\n        /* \"#utility.yul\":796:829   */\n      tag_233\n        /* \"#utility.yul\":823:828   */\n      dup2\n        /* \"#utility.yul\":796:829   */\n      tag_160\n      jump\t// in\n    tag_233:\n        /* \"#utility.yul\":696:835   */\n      swap3\n      swap2\n      pop\n      pop\n      jump\t// out\n        /* \"#utility.yul\":841:1170   */\n    tag_11:\n        /* \"#utility.yul\":900:906   */\n      0x00\n        /* \"#utility.yul\":949:951   */\n      0x20\n        /* \"#utility.yul\":937:946   */\n      dup3\n        /* \"#utility.yul\":928:935   */\n      dup5\n        /* \"#utility.yul\":924:947   */\n      sub\n        /* \"#utility.yul\":920:952   */\n      slt\n        /* \"#utility.yul\":917:1036   */\n      iszero\n      tag_235\n      jumpi\n        /* \"#utility.yul\":955:1034   */\n      tag_236\n      tag_156\n      jump\t// in\n    tag_236:\n        /* \"#utility.yul\":917:1036   */\n    tag_235:\n        /* \"#utility.yul\":1075:1076   */\n      0x00\n        /* \"#utility.yul\":1100:1153   */\n      tag_237\n        /* \"#utility.yul\":1145:1152   */\n      dup5\n        /* \"#utility.yul\":1136:1142   */\n      dup3\n        /* \"#utility.yul\":1125:1134   */\n      dup6\n        /* \"#utility.yul\":1121:1143   */\n      add\n        /* \"#utility.yul\":1100:1153   */\n      tag_161\n      jump\t// in\n    tag_237:\n        /* \"#utility.yul\":1090:1153   */\n      swap2\n      pop\n        /* \"#utility.yul\":1046:1163   */\n      pop\n        /* \"#utility.yul\":841:1170   */\n      swap3\n      swap2\n      pop\n      pop\n      jump\t// out\n        /* \"#utility.yul\":1176:1311   */\n    tag_162:\n        /* \"#utility.yul\":1264:1270   */\n      0x00\n        /* \"#utility.yul\":1298:1303   */\n      dup2\n        /* \"#utility.yul\":1292:1304   */\n      mload\n        /* \"#utility.yul\":1282:1304   */\n      swap1\n      pop\n        /* \"#utility.yul\":1176:1311   */\n      swap2\n      swap1\n      pop\n      jump\t// out\n        /* \"#utility.yul\":1317:1522   */\n    tag_163:\n        /* \"#utility.yul\":1437:1448   */\n      0x00\n        /* \"#utility.yul\":1471:1477   */\n      dup3\n        /* \"#utility.yul\":1466:1469   */\n      dup3\n        /* \"#utility.yul\":1459:1478   */\n      mstore\n        /* \"#utility.yul\":1511:1515   */\n      0x20\n        /* \"#utility.yul\":1506:1509   */\n      dup3\n        /* \"#utility.yul\":1502:1516   */\n      add\n        /* \"#utility.yul\":1487:1516   */\n      swap1\n      pop\n        /* \"#utility.yul\":1317:1522   */\n      swap3\n      swap2\n      pop\n      pop\n      jump\t// out\n        /* \"#utility.yul\":1528:1681   */\n    tag_164:\n        /* \"#utility.yul\":1616:1620   */\n      0x00\n        /* \"#utility.yul\":1639:1642   */\n      dup2\n        /* \"#utility.yul\":1631:1642   */\n      swap1\n      pop\n        /* \"#utility.yul\":1669:1673   */\n      0x20\n        /* \"#utility.yul\":1664:1667   */\n      dup3\n        /* \"#utility.yul\":1660:1674   */\n      add\n        /* \"#utility.yul\":1652:1674   */\n      swap1\n      pop\n        /* \"#utility.yul\":1528:1681   */\n      swap2\n      swap1\n      pop\n      jump\t// out\n        /* \"#utility.yul\":1687:1795   */\n    tag_165:\n        /* \"#utility.yul\":1764:1788   */\n      tag_242\n        /* \"#utility.yul\":1782:1787   */\n      dup2\n        /* \"#utility.yul\":1764:1788   */\n      tag_159\n      jump\t// in\n    tag_242:\n        /* \"#utility.yul\":1759:1762   */\n      dup3\n        /* \"#utility.yul\":1752:1789   */\n      mstore\n        /* \"#utility.yul\":1687:1795   */\n      pop\n      pop\n      jump\t// out\n        /* \"#utility.yul\":1801:1900   */\n    tag_166:\n        /* \"#utility.yul\":1853:1859   */\n      0x00\n        /* \"#utility.yul\":1887:1892   */\n      dup2\n        /* \"#utility.yul\":1881:1893   */\n      mload\n        /* \"#utility.yul\":1871:1893   */\n      swap1\n      pop\n        /* \"#utility.yul\":1801:1900   */\n      swap2\n      swap1\n      pop\n      jump\t// out\n        /* \"#utility.yul\":1906:2065   */\n    tag_167:\n        /* \"#utility.yul\":1980:1991   */\n      0x00\n        /* \"#utility.yul\":2014:2020   */\n      dup3\n        /* \"#utility.yul\":2009:2012   */\n      dup3\n        /* \"#utility.yul\":2002:2021   */\n      mstore\n        /* \"#utility.yul\":2054:2058   */\n      0x20\n        /* \"#utility.yul\":2049:2052   */\n      dup3\n        /* \"#utility.yul\":2045:2059   */\n      add\n        /* \"#utility.yul\":2030:2059   */\n      swap1\n      pop\n        /* \"#utility.yul\":1906:2065   */\n      swap3\n      swap2\n      pop\n      pop\n      jump\t// out\n        /* \"#utility.yul\":2071:2317   */\n    tag_168:\n        /* \"#utility.yul\":2152:2153   */\n      0x00\n        /* \"#utility.yul\":2162:2275   */\n    tag_246:\n        /* \"#utility.yul\":2176:2182   */\n      dup4\n        /* \"#utility.yul\":2173:2174   */\n      dup2\n        /* \"#utility.yul\":2170:2183   */\n      lt\n        /* \"#utility.yul\":2162:2275   */\n      iszero\n      tag_248\n      jumpi\n        /* \"#utility.yul\":2261:2262   */\n      dup1\n        /* \"#utility.yul\":2256:2259   */\n      dup3\n        /* \"#utility.yul\":2252:2263   */\n      add\n        /* \"#utility.yul\":2246:2264   */\n      mload\n        /* \"#utility.yul\":2242:2243   */\n      dup2\n        /* \"#utility.yul\":2237:2240   */\n      dup5\n        /* \"#utility.yul\":2233:2244   */\n      add\n        /* \"#utility.yul\":2226:2265   */\n      mstore\n        /* \"#utility.yul\":2198:2200   */\n      0x20\n        /* \"#utility.yul\":2195:2196   */\n      dup2\n        /* \"#utility.yul\":2191:2201   */\n      add\n        /* \"#utility.yul\":2186:2201   */\n      swap1\n      pop\n        /* \"#utility.yul\":2162:2275   */\n      jump(tag_246)\n    tag_248:\n        /* \"#utility.yul\":2309:2310   */\n      0x00\n        /* \"#utility.yul\":2300:2306   */\n      dup5\n        /* \"#utility.yul\":2295:2298   */\n      dup5\n        /* \"#utility.yul\":2291:2307   */\n      add\n        /* \"#utility.yul\":2284:2311   */\n      mstore\n        /* \"#utility.yul\":2133:2317   */\n      pop\n        /* \"#utility.yul\":2071:2317   */\n      pop\n      pop\n      pop\n      jump\t// out\n        /* \"#utility.yul\":2323:2425   */\n    tag_169:\n        /* \"#utility.yul\":2364:2370   */\n      0x00\n        /* \"#utility.yul\":2415:2417   */\n      0x1f\n        /* \"#utility.yul\":2411:2418   */\n      not\n        /* \"#utility.yul\":2406:2408   */\n      0x1f\n        /* \"#utility.yul\":2399:2404   */\n      dup4\n        /* \"#utility.yul\":2395:2409   */\n      add\n        /* \"#utility.yul\":2391:2419   */\n      and\n        /* \"#utility.yul\":2381:2419   */\n      swap1\n      pop\n        /* \"#utility.yul\":2323:2425   */\n      swap2\n      swap1\n      pop\n      jump\t// out\n        /* \"#utility.yul\":2431:2788   */\n    tag_170:\n        /* \"#utility.yul\":2509:2512   */\n      0x00\n        /* \"#utility.yul\":2537:2576   */\n      tag_251\n        /* \"#utility.yul\":2570:2575   */\n      dup3\n        /* \"#utility.yul\":2537:2576   */\n      tag_166\n      jump\t// in\n    tag_251:\n        /* \"#utility.yul\":2592:2653   */\n      tag_252\n        /* \"#utility.yul\":2646:2652   */\n      dup2\n        /* \"#utility.yul\":2641:2644   */\n      dup6\n        /* \"#utility.yul\":2592:2653   */\n      tag_167\n      jump\t// in\n    tag_252:\n        /* \"#utility.yul\":2585:2653   */\n      swap4\n      pop\n        /* \"#utility.yul\":2662:2727   */\n      tag_253\n        /* \"#utility.yul\":2720:2726   */\n      dup2\n        /* \"#utility.yul\":2715:2718   */\n      dup6\n        /* \"#utility.yul\":2708:2712   */\n      0x20\n        /* \"#utility.yul\":2701:2706   */\n      dup7\n        /* \"#utility.yul\":2697:2713   */\n      add\n        /* \"#utility.yul\":2662:2727   */\n      tag_168\n      jump\t// in\n    tag_253:\n        /* \"#utility.yul\":2752:2781   */\n      tag_254\n        /* \"#utility.yul\":2774:2780   */\n      dup2\n        /* \"#utility.yul\":2752:2781   */\n      tag_169\n      jump\t// in\n    tag_254:\n        /* \"#utility.yul\":2747:2750   */\n      dup5\n        /* \"#utility.yul\":2743:2782   */\n      add\n        /* \"#utility.yul\":2736:2782   */\n      swap2\n      pop\n        /* \"#utility.yul\":2513:2788   */\n      pop\n        /* \"#utility.yul\":2431:2788   */\n      swap3\n      swap2\n      pop\n      pop\n      jump\t// out\n        /* \"#utility.yul\":2794:2871   */\n    tag_171:\n        /* \"#utility.yul\":2831:2838   */\n      0x00\n        /* \"#utility.yul\":2860:2865   */\n      dup2\n        /* \"#utility.yul\":2849:2865   */\n      swap1\n      pop\n        /* \"#utility.yul\":2794:2871   */\n      swap2\n      swap1\n      pop\n      jump\t// out\n        /* \"#utility.yul\":2877:2985   */\n    tag_172:\n        /* \"#utility.yul\":2954:2978   */\n      tag_257\n        /* \"#utility.yul\":2972:2977   */\n      dup2\n        /* \"#utility.yul\":2954:2978   */\n      tag_171\n      jump\t// in\n    tag_257:\n        /* \"#utility.yul\":2949:2952   */\n      dup3\n        /* \"#utility.yul\":2942:2979   */\n      mstore\n        /* \"#utility.yul\":2877:2985   */\n      pop\n      pop\n      jump\t// out\n        /* \"#utility.yul\":3037:4235   */\n    tag_173:\n        /* \"#utility.yul\":3138:3141   */\n      0x00\n        /* \"#utility.yul\":3174:3178   */\n      0xa0\n        /* \"#utility.yul\":3169:3172   */\n      dup4\n        /* \"#utility.yul\":3165:3179   */\n      add\n        /* \"#utility.yul\":3263:3267   */\n      0x00\n        /* \"#utility.yul\":3256:3261   */\n      dup4\n        /* \"#utility.yul\":3252:3268   */\n      add\n        /* \"#utility.yul\":3246:3269   */\n      mload\n        /* \"#utility.yul\":3282:3345   */\n      tag_259\n        /* \"#utility.yul\":3339:3343   */\n      0x00\n        /* \"#utility.yul\":3334:3337   */\n      dup7\n        /* \"#utility.yul\":3330:3344   */\n      add\n        /* \"#utility.yul\":3316:3328   */\n      dup3\n        /* \"#utility.yul\":3282:3345   */\n      tag_165\n      jump\t// in\n    tag_259:\n        /* \"#utility.yul\":3189:3355   */\n      pop\n        /* \"#utility.yul\":3441:3445   */\n      0x20\n        /* \"#utility.yul\":3434:3439   */\n      dup4\n        /* \"#utility.yul\":3430:3446   */\n      add\n        /* \"#utility.yul\":3424:3447   */\n      mload\n        /* \"#utility.yul\":3460:3523   */\n      tag_260\n        /* \"#utility.yul\":3517:3521   */\n      0x20\n        /* \"#utility.yul\":3512:3515   */\n      dup7\n        /* \"#utility.yul\":3508:3522   */\n      add\n        /* \"#utility.yul\":3494:3506   */\n      dup3\n        /* \"#utility.yul\":3460:3523   */\n      tag_165\n      jump\t// in\n    tag_260:\n        /* \"#utility.yul\":3365:3533   */\n      pop\n        /* \"#utility.yul\":3618:3622   */\n      0x40\n        /* \"#utility.yul\":3611:3616   */\n      dup4\n        /* \"#utility.yul\":3607:3623   */\n      add\n        /* \"#utility.yul\":3601:3624   */\n      mload\n        /* \"#utility.yul\":3671:3674   */\n      dup5\n        /* \"#utility.yul\":3665:3669   */\n      dup3\n        /* \"#utility.yul\":3661:3675   */\n      sub\n        /* \"#utility.yul\":3654:3658   */\n      0x40\n        /* \"#utility.yul\":3649:3652   */\n      dup7\n        /* \"#utility.yul\":3645:3659   */\n      add\n        /* \"#utility.yul\":3638:3676   */\n      mstore\n        /* \"#utility.yul\":3697:3770   */\n      tag_261\n        /* \"#utility.yul\":3765:3769   */\n      dup3\n        /* \"#utility.yul\":3751:3763   */\n      dup3\n        /* \"#utility.yul\":3697:3770   */\n      tag_170\n      jump\t// in\n    tag_261:\n        /* \"#utility.yul\":3689:3770   */\n      swap2\n      pop\n        /* \"#utility.yul\":3543:3781   */\n      pop\n        /* \"#utility.yul\":3866:3870   */\n      0x60\n        /* \"#utility.yul\":3859:3864   */\n      dup4\n        /* \"#utility.yul\":3855:3871   */\n      add\n        /* \"#utility.yul\":3849:3872   */\n      mload\n        /* \"#utility.yul\":3919:3922   */\n      dup5\n        /* \"#utility.yul\":3913:3917   */\n      dup3\n        /* \"#utility.yul\":3909:3923   */\n      sub\n        /* \"#utility.yul\":3902:3906   */\n      0x60\n        /* \"#utility.yul\":3897:3900   */\n      dup7\n        /* \"#utility.yul\":3893:3907   */\n      add\n        /* \"#utility.yul\":3886:3924   */\n      mstore\n        /* \"#utility.yul\":3945:4018   */\n      tag_262\n        /* \"#utility.yul\":4013:4017   */\n      dup3\n        /* \"#utility.yul\":3999:4011   */\n      dup3\n        /* \"#utility.yul\":3945:4018   */\n      tag_170\n      jump\t// in\n    tag_262:\n        /* \"#utility.yul\":3937:4018   */\n      swap2\n      pop\n        /* \"#utility.yul\":3791:4029   */\n      pop\n        /* \"#utility.yul\":4116:4120   */\n      0x80\n        /* \"#utility.yul\":4109:4114   */\n      dup4\n        /* \"#utility.yul\":4105:4121   */\n      add\n        /* \"#utility.yul\":4099:4122   */\n      mload\n        /* \"#utility.yul\":4135:4198   */\n      tag_263\n        /* \"#utility.yul\":4192:4196   */\n      0x80\n        /* \"#utility.yul\":4187:4190   */\n      dup7\n        /* \"#utility.yul\":4183:4197   */\n      add\n        /* \"#utility.yul\":4169:4181   */\n      dup3\n        /* \"#utility.yul\":4135:4198   */\n      tag_172\n      jump\t// in\n    tag_263:\n        /* \"#utility.yul\":4039:4208   */\n      pop\n        /* \"#utility.yul\":4225:4229   */\n      dup1\n        /* \"#utility.yul\":4218:4229   */\n      swap2\n      pop\n        /* \"#utility.yul\":3143:4235   */\n      pop\n        /* \"#utility.yul\":3037:4235   */\n      swap3\n      swap2\n      pop\n      pop\n      jump\t// out\n        /* \"#utility.yul\":4241:4481   */\n    tag_174:\n        /* \"#utility.yul\":4352:4362   */\n      0x00\n        /* \"#utility.yul\":4387:4475   */\n      tag_265\n        /* \"#utility.yul\":4471:4474   */\n      dup4\n        /* \"#utility.yul\":4463:4469   */\n      dup4\n        /* \"#utility.yul\":4387:4475   */\n      tag_173\n      jump\t// in\n    tag_265:\n        /* \"#utility.yul\":4373:4475   */\n      swap1\n      pop\n        /* \"#utility.yul\":4241:4481   */\n      swap3\n      swap2\n      pop\n      pop\n      jump\t// out\n        /* \"#utility.yul\":4487:4621   */\n    tag_175:\n        /* \"#utility.yul\":4578:4582   */\n      0x00\n        /* \"#utility.yul\":4610:4614   */\n      0x20\n        /* \"#utility.yul\":4605:4608   */\n      dup3\n        /* \"#utility.yul\":4601:4615   */\n      add\n        /* \"#utility.yul\":4593:4615   */\n      swap1\n      pop\n        /* \"#utility.yul\":4487:4621   */\n      swap2\n      swap1\n      pop\n      jump\t// out\n        /* \"#utility.yul\":4677:5756   */\n    tag_176:\n        /* \"#utility.yul\":4838:4841   */\n      0x00\n        /* \"#utility.yul\":4867:4942   */\n      tag_268\n        /* \"#utility.yul\":4936:4941   */\n      dup3\n        /* \"#utility.yul\":4867:4942   */\n      tag_162\n      jump\t// in\n    tag_268:\n        /* \"#utility.yul\":4958:5065   */\n      tag_269\n        /* \"#utility.yul\":5058:5064   */\n      dup2\n        /* \"#utility.yul\":5053:5056   */\n      dup6\n        /* \"#utility.yul\":4958:5065   */\n      tag_163\n      jump\t// in\n    tag_269:\n        /* \"#utility.yul\":4951:5065   */\n      swap4\n      pop\n        /* \"#utility.yul\":5091:5094   */\n      dup4\n        /* \"#utility.yul\":5136:5140   */\n      0x20\n        /* \"#utility.yul\":5128:5134   */\n      dup3\n        /* \"#utility.yul\":5124:5141   */\n      mul\n        /* \"#utility.yul\":5119:5122   */\n      dup6\n        /* \"#utility.yul\":5115:5142   */\n      add\n        /* \"#utility.yul\":5166:5243   */\n      tag_270\n        /* \"#utility.yul\":5237:5242   */\n      dup6\n        /* \"#utility.yul\":5166:5243   */\n      tag_164\n      jump\t// in\n    tag_270:\n        /* \"#utility.yul\":5266:5273   */\n      dup1\n        /* \"#utility.yul\":5297:5298   */\n      0x00\n        /* \"#utility.yul\":5282:5711   */\n    tag_271:\n        /* \"#utility.yul\":5307:5313   */\n      dup6\n        /* \"#utility.yul\":5304:5305   */\n      dup2\n        /* \"#utility.yul\":5301:5314   */\n      lt\n        /* \"#utility.yul\":5282:5711   */\n      iszero\n      tag_273\n      jumpi\n        /* \"#utility.yul\":5378:5387   */\n      dup5\n        /* \"#utility.yul\":5372:5376   */\n      dup5\n        /* \"#utility.yul\":5368:5388   */\n      sub\n        /* \"#utility.yul\":5363:5366   */\n      dup10\n        /* \"#utility.yul\":5356:5389   */\n      mstore\n        /* \"#utility.yul\":5429:5435   */\n      dup2\n        /* \"#utility.yul\":5423:5436   */\n      mload\n        /* \"#utility.yul\":5457:5563   */\n      tag_274\n        /* \"#utility.yul\":5558:5562   */\n      dup6\n        /* \"#utility.yul\":5543:5556   */\n      dup3\n        /* \"#utility.yul\":5457:5563   */\n      tag_174\n      jump\t// in\n    tag_274:\n        /* \"#utility.yul\":5449:5563   */\n      swap5\n      pop\n        /* \"#utility.yul\":5586:5667   */\n      tag_275\n        /* \"#utility.yul\":5660:5666   */\n      dup4\n        /* \"#utility.yul\":5586:5667   */\n      tag_175\n      jump\t// in\n    tag_275:\n        /* \"#utility.yul\":5576:5667   */\n      swap3\n      pop\n        /* \"#utility.yul\":5696:5700   */\n      0x20\n        /* \"#utility.yul\":5691:5694   */\n      dup11\n        /* \"#utility.yul\":5687:5701   */\n      add\n        /* \"#utility.yul\":5680:5701   */\n      swap10\n      pop\n        /* \"#utility.yul\":5342:5711   */\n      pop\n        /* \"#utility.yul\":5329:5330   */\n      0x01\n        /* \"#utility.yul\":5326:5327   */\n      dup2\n        /* \"#utility.yul\":5322:5331   */\n      add\n        /* \"#utility.yul\":5317:5331   */\n      swap1\n      pop\n        /* \"#utility.yul\":5282:5711   */\n      jump(tag_271)\n    tag_273:\n        /* \"#utility.yul\":5286:5300   */\n      pop\n        /* \"#utility.yul\":5727:5731   */\n      dup3\n        /* \"#utility.yul\":5720:5731   */\n      swap8\n      pop\n        /* \"#utility.yul\":5747:5750   */\n      dup8\n        /* \"#utility.yul\":5740:5750   */\n      swap6\n      pop\n        /* \"#utility.yul\":4843:5756   */\n      pop\n      pop\n      pop\n      pop\n      pop\n        /* \"#utility.yul\":4677:5756   */\n      swap3\n      swap2\n      pop\n      pop\n      jump\t// out\n        /* \"#utility.yul\":5762:6219   */\n    tag_14:\n        /* \"#utility.yul\":5947:5951   */\n      0x00\n        /* \"#utility.yul\":5985:5987   */\n      0x20\n        /* \"#utility.yul\":5974:5983   */\n      dup3\n        /* \"#utility.yul\":5970:5988   */\n      add\n        /* \"#utility.yul\":5962:5988   */\n      swap1\n      pop\n        /* \"#utility.yul\":6034:6043   */\n      dup2\n        /* \"#utility.yul\":6028:6032   */\n      dup2\n        /* \"#utility.yul\":6024:6044   */\n      sub\n        /* \"#utility.yul\":6020:6021   */\n      0x00\n        /* \"#utility.yul\":6009:6018   */\n      dup4\n        /* \"#utility.yul\":6005:6022   */\n      add\n        /* \"#utility.yul\":5998:6045   */\n      mstore\n        /* \"#utility.yul\":6062:6212   */\n      tag_277\n        /* \"#utility.yul\":6207:6211   */\n      dup2\n        /* \"#utility.yul\":6198:6204   */\n      dup5\n        /* \"#utility.yul\":6062:6212   */\n      tag_176\n      jump\t// in\n    tag_277:\n        /* \"#utility.yul\":6054:6212   */\n      swap1\n      pop\n        /* \"#utility.yul\":5762:6219   */\n      swap3\n      swap2\n      pop\n      pop\n      jump\t// out\n        /* \"#utility.yul\":6225:6347   */\n    tag_177:\n        /* \"#utility.yul\":6298:6322   */\n      tag_279\n        /* \"#utility.yul\":6316:6321   */\n      dup2\n        /* \"#utility.yul\":6298:6322   */\n      tag_171\n      jump\t// in\n    tag_279:\n        /* \"#utility.yul\":6291:6296   */\n      dup2\n        /* \"#utility.yul\":6288:6323   */\n      eq\n        /* \"#utility.yul\":6278:6341   */\n      tag_280\n      jumpi\n        /* \"#utility.yul\":6337:6338   */\n      0x00\n        /* \"#utility.yul\":6334:6335   */\n      dup1\n        /* \"#utility.yul\":6327:6339   */\n      revert\n        /* \"#utility.yul\":6278:6341   */\n    tag_280:\n        /* \"#utility.yul\":6225:6347   */\n      pop\n      jump\t// out\n        /* \"#utility.yul\":6353:6492   */\n    tag_178:\n        /* \"#utility.yul\":6399:6404   */\n      0x00\n        /* \"#utility.yul\":6437:6443   */\n      dup2\n        /* \"#utility.yul\":6424:6444   */\n      calldataload\n        /* \"#utility.yul\":6415:6444   */\n      swap1\n      pop\n        /* \"#utility.yul\":6453:6486   */\n      tag_282\n        /* \"#utility.yul\":6480:6485   */\n      dup2\n        /* \"#utility.yul\":6453:6486   */\n      tag_177\n      jump\t// in\n    tag_282:\n        /* \"#utility.yul\":6353:6492   */\n      swap3\n      swap2\n      pop\n      pop\n      jump\t// out\n        /* \"#utility.yul\":6498:6972   */\n    tag_17:\n        /* \"#utility.yul\":6566:6572   */\n      0x00\n        /* \"#utility.yul\":6574:6580   */\n      dup1\n        /* \"#utility.yul\":6623:6625   */\n      0x40\n        /* \"#utility.yul\":6611:6620   */\n      dup4\n        /* \"#utility.yul\":6602:6609   */\n      dup6\n        /* \"#utility.yul\":6598:6621   */\n      sub\n        /* \"#utility.yul\":6594:6626   */\n      slt\n        /* \"#utility.yul\":6591:6710   */\n      iszero\n      tag_284\n      jumpi\n        /* \"#utility.yul\":6629:6708   */\n      tag_285\n      tag_156\n      jump\t// in\n    tag_285:\n        /* \"#utility.yul\":6591:6710   */\n    tag_284:\n        /* \"#utility.yul\":6749:6750   */\n      0x00\n        /* \"#utility.yul\":6774:6827   */\n      tag_286\n        /* \"#utility.yul\":6819:6826   */\n      dup6\n        /* \"#utility.yul\":6810:6816   */\n      dup3\n        /* \"#utility.yul\":6799:6808   */\n      dup7\n        /* \"#utility.yul\":6795:6817   */\n      add\n        /* \"#utility.yul\":6774:6827   */\n      tag_161\n      jump\t// in\n    tag_286:\n        /* \"#utility.yul\":6764:6827   */\n      swap3\n      pop\n        /* \"#utility.yul\":6720:6837   */\n      pop\n        /* \"#utility.yul\":6876:6878   */\n      0x20\n        /* \"#utility.yul\":6902:6955   */\n      tag_287\n        /* \"#utility.yul\":6947:6954   */\n      dup6\n        /* \"#utility.yul\":6938:6944   */\n      dup3\n        /* \"#utility.yul\":6927:6936   */\n      dup7\n        /* \"#utility.yul\":6923:6945   */\n      add\n        /* \"#utility.yul\":6902:6955   */\n      tag_178\n      jump\t// in\n    tag_287:\n        /* \"#utility.yul\":6892:6955   */\n      swap2\n      pop\n        /* \"#utility.yul\":6847:6965   */\n      pop\n        /* \"#utility.yul\":6498:6972   */\n      swap3\n      pop\n      swap3\n      swap1\n      pop\n      jump\t// out\n        /* \"#utility.yul\":6978:7096   */\n    tag_179:\n        /* \"#utility.yul\":7065:7089   */\n      tag_289\n        /* \"#utility.yul\":7083:7088   */\n      dup2\n        /* \"#utility.yul\":7065:7089   */\n      tag_159\n      jump\t// in\n    tag_289:\n        /* \"#utility.yul\":7060:7063   */\n      dup3\n        /* \"#utility.yul\":7053:7090   */\n      mstore\n        /* \"#utility.yul\":6978:7096   */\n      pop\n      pop\n      jump\t// out\n        /* \"#utility.yul\":7102:7271   */\n    tag_180:\n        /* \"#utility.yul\":7186:7197   */\n      0x00\n        /* \"#utility.yul\":7220:7226   */\n      dup3\n        /* \"#utility.yul\":7215:7218   */\n      dup3\n        /* \"#utility.yul\":7208:7227   */\n      mstore\n        /* \"#utility.yul\":7260:7264   */\n      0x20\n        /* \"#utility.yul\":7255:7258   */\n      dup3\n        /* \"#utility.yul\":7251:7265   */\n      add\n        /* \"#utility.yul\":7236:7265   */\n      swap1\n      pop\n        /* \"#utility.yul\":7102:7271   */\n      swap3\n      swap2\n      pop\n      pop\n      jump\t// out\n        /* \"#utility.yul\":7277:7654   */\n    tag_181:\n        /* \"#utility.yul\":7365:7368   */\n      0x00\n        /* \"#utility.yul\":7393:7432   */\n      tag_292\n        /* \"#utility.yul\":7426:7431   */\n      dup3\n        /* \"#utility.yul\":7393:7432   */\n      tag_166\n      jump\t// in\n    tag_292:\n        /* \"#utility.yul\":7448:7519   */\n      tag_293\n        /* \"#utility.yul\":7512:7518   */\n      dup2\n        /* \"#utility.yul\":7507:7510   */\n      dup6\n        /* \"#utility.yul\":7448:7519   */\n      tag_180\n      jump\t// in\n    tag_293:\n        /* \"#utility.yul\":7441:7519   */\n      swap4\n      pop\n        /* \"#utility.yul\":7528:7593   */\n      tag_294\n        /* \"#utility.yul\":7586:7592   */\n      dup2\n        /* \"#utility.yul\":7581:7584   */\n      dup6\n        /* \"#utility.yul\":7574:7578   */\n      0x20\n        /* \"#utility.yul\":7567:7572   */\n      dup7\n        /* \"#utility.yul\":7563:7579   */\n      add\n        /* \"#utility.yul\":7528:7593   */\n      tag_168\n      jump\t// in\n    tag_294:\n        /* \"#utility.yul\":7618:7647   */\n      tag_295\n        /* \"#utility.yul\":7640:7646   */\n      dup2\n        /* \"#utility.yul\":7618:7647   */\n      tag_169\n      jump\t// in\n    tag_295:\n        /* \"#utility.yul\":7613:7616   */\n      dup5\n        /* \"#utility.yul\":7609:7648   */\n      add\n        /* \"#utility.yul\":7602:7648   */\n      swap2\n      pop\n        /* \"#utility.yul\":7369:7654   */\n      pop\n        /* \"#utility.yul\":7277:7654   */\n      swap3\n      swap2\n      pop\n      pop\n      jump\t// out\n        /* \"#utility.yul\":7660:7778   */\n    tag_182:\n        /* \"#utility.yul\":7747:7771   */\n      tag_297\n        /* \"#utility.yul\":7765:7770   */\n      dup2\n        /* \"#utility.yul\":7747:7771   */\n      tag_171\n      jump\t// in\n    tag_297:\n        /* \"#utility.yul\":7742:7745   */\n      dup3\n        /* \"#utility.yul\":7735:7772   */\n      mstore\n        /* \"#utility.yul\":7660:7778   */\n      pop\n      pop\n      jump\t// out\n        /* \"#utility.yul\":7784:8630   */\n    tag_20:\n        /* \"#utility.yul\":8029:8033   */\n      0x00\n        /* \"#utility.yul\":8067:8070   */\n      0xa0\n        /* \"#utility.yul\":8056:8065   */\n      dup3\n        /* \"#utility.yul\":8052:8071   */\n      add\n        /* \"#utility.yul\":8044:8071   */\n      swap1\n      pop\n        /* \"#utility.yul\":8081:8152   */\n      tag_299\n        /* \"#utility.yul\":8149:8150   */\n      0x00\n        /* \"#utility.yul\":8138:8147   */\n      dup4\n        /* \"#utility.yul\":8134:8151   */\n      add\n        /* \"#utility.yul\":8125:8131   */\n      dup9\n        /* \"#utility.yul\":8081:8152   */\n      tag_179\n      jump\t// in\n    tag_299:\n        /* \"#utility.yul\":8162:8234   */\n      tag_300\n        /* \"#utility.yul\":8230:8232   */\n      0x20\n        /* \"#utility.yul\":8219:8228   */\n      dup4\n        /* \"#utility.yul\":8215:8233   */\n      add\n        /* \"#utility.yul\":8206:8212   */\n      dup8\n        /* \"#utility.yul\":8162:8234   */\n      tag_179\n      jump\t// in\n    tag_300:\n        /* \"#utility.yul\":8281:8290   */\n      dup2\n        /* \"#utility.yul\":8275:8279   */\n      dup2\n        /* \"#utility.yul\":8271:8291   */\n      sub\n        /* \"#utility.yul\":8266:8268   */\n      0x40\n        /* \"#utility.yul\":8255:8264   */\n      dup4\n        /* \"#utility.yul\":8251:8269   */\n      add\n        /* \"#utility.yul\":8244:8292   */\n      mstore\n        /* \"#utility.yul\":8309:8387   */\n      tag_301\n        /* \"#utility.yul\":8382:8386   */\n      dup2\n        /* \"#utility.yul\":8373:8379   */\n      dup7\n        /* \"#utility.yul\":8309:8387   */\n      tag_181\n      jump\t// in\n    tag_301:\n        /* \"#utility.yul\":8301:8387   */\n      swap1\n      pop\n        /* \"#utility.yul\":8434:8443   */\n      dup2\n        /* \"#utility.yul\":8428:8432   */\n      dup2\n        /* \"#utility.yul\":8424:8444   */\n      sub\n        /* \"#utility.yul\":8419:8421   */\n      0x60\n        /* \"#utility.yul\":8408:8417   */\n      dup4\n        /* \"#utility.yul\":8404:8422   */\n      add\n        /* \"#utility.yul\":8397:8445   */\n      mstore\n        /* \"#utility.yul\":8462:8540   */\n      tag_302\n        /* \"#utility.yul\":8535:8539   */\n      dup2\n        /* \"#utility.yul\":8526:8532   */\n      dup6\n        /* \"#utility.yul\":8462:8540   */\n      tag_181\n      jump\t// in\n    tag_302:\n        /* \"#utility.yul\":8454:8540   */\n      swap1\n      pop\n        /* \"#utility.yul\":8550:8623   */\n      tag_303\n        /* \"#utility.yul\":8618:8621   */\n      0x80\n        /* \"#utility.yul\":8607:8616   */\n      dup4\n        /* \"#utility.yul\":8603:8622   */\n      add\n        /* \"#utility.yul\":8594:8600   */\n      dup5\n        /* \"#utility.yul\":8550:8623   */\n      tag_182\n      jump\t// in\n    tag_303:\n        /* \"#utility.yul\":7784:8630   */\n      swap7\n      swap6\n      pop\n      pop\n      pop\n      pop\n      pop\n      pop\n      jump\t// out\n        /* \"#utility.yul\":8636:8968   */\n    tag_32:\n        /* \"#utility.yul\":8757:8761   */\n      0x00\n        /* \"#utility.yul\":8795:8797   */\n      0x40\n        /* \"#utility.yul\":8784:8793   */\n      dup3\n        /* \"#utility.yul\":8780:8798   */\n      add\n        /* \"#utility.yul\":8772:8798   */\n      swap1\n      pop\n        /* \"#utility.yul\":8808:8879   */\n      tag_305\n        /* \"#utility.yul\":8876:8877   */\n      0x00\n        /* \"#utility.yul\":8865:8874   */\n      dup4\n        /* \"#utility.yul\":8861:8878   */\n      add\n        /* \"#utility.yul\":8852:8858   */\n      dup6\n        /* \"#utility.yul\":8808:8879   */\n      tag_182\n      jump\t// in\n    tag_305:\n        /* \"#utility.yul\":8889:8961   */\n      tag_306\n        /* \"#utility.yul\":8957:8959   */\n      0x20\n        /* \"#utility.yul\":8946:8955   */\n      dup4\n        /* \"#utility.yul\":8942:8960   */\n      add\n        /* \"#utility.yul\":8933:8939   */\n      dup5\n        /* \"#utility.yul\":8889:8961   */\n      tag_182\n      jump\t// in\n    tag_306:\n        /* \"#utility.yul\":8636:8968   */\n      swap4\n      swap3\n      pop\n      pop\n      pop\n      jump\t// out\n        /* \"#utility.yul\":8974:9091   */\n    tag_183:\n        /* \"#utility.yul\":9083:9084   */\n      0x00\n        /* \"#utility.yul\":9080:9081   */\n      dup1\n        /* \"#utility.yul\":9073:9085   */\n      revert\n        /* \"#utility.yul\":9097:9214   */\n    tag_184:\n        /* \"#utility.yul\":9206:9207   */\n      0x00\n        /* \"#utility.yul\":9203:9204   */\n      dup1\n        /* \"#utility.yul\":9196:9208   */\n      revert\n        /* \"#utility.yul\":9220:9400   */\n    tag_54:\n        /* \"#utility.yul\":9268:9345   */\n      0x4e487b7100000000000000000000000000000000000000000000000000000000\n        /* \"#utility.yul\":9265:9266   */\n      0x00\n        /* \"#utility.yul\":9258:9346   */\n      mstore\n        /* \"#utility.yul\":9365:9369   */\n      0x41\n        /* \"#utility.yul\":9362:9363   */\n      0x04\n        /* \"#utility.yul\":9355:9370   */\n      mstore\n        /* \"#utility.yul\":9389:9393   */\n      0x24\n        /* \"#utility.yul\":9386:9387   */\n      0x00\n        /* \"#utility.yul\":9379:9394   */\n      revert\n        /* \"#utility.yul\":9406:9687   */\n    tag_185:\n        /* \"#utility.yul\":9489:9516   */\n      tag_311\n        /* \"#utility.yul\":9511:9515   */\n      dup3\n        /* \"#utility.yul\":9489:9516   */\n      tag_169\n      jump\t// in\n    tag_311:\n        /* \"#utility.yul\":9481:9487   */\n      dup2\n        /* \"#utility.yul\":9477:9517   */\n      add\n        /* \"#utility.yul\":9619:9625   */\n      dup2\n        /* \"#utility.yul\":9607:9617   */\n      dup2\n        /* \"#utility.yul\":9604:9626   */\n      lt\n        /* \"#utility.yul\":9583:9601   */\n      0xffffffffffffffff\n        /* \"#utility.yul\":9571:9581   */\n      dup3\n        /* \"#utility.yul\":9568:9602   */\n      gt\n        /* \"#utility.yul\":9565:9627   */\n      or\n        /* \"#utility.yul\":9562:9650   */\n      iszero\n      tag_312\n      jumpi\n        /* \"#utility.yul\":9630:9648   */\n      tag_313\n      tag_54\n      jump\t// in\n    tag_313:\n        /* \"#utility.yul\":9562:9650   */\n    tag_312:\n        /* \"#utility.yul\":9670:9680   */\n      dup1\n        /* \"#utility.yul\":9666:9668   */\n      0x40\n        /* \"#utility.yul\":9659:9681   */\n      mstore\n        /* \"#utility.yul\":9449:9687   */\n      pop\n        /* \"#utility.yul\":9406:9687   */\n      pop\n      pop\n      jump\t// out\n        /* \"#utility.yul\":9693:9822   */\n    tag_186:\n        /* \"#utility.yul\":9727:9733   */\n      0x00\n        /* \"#utility.yul\":9754:9774   */\n      tag_315\n      tag_155\n      jump\t// in\n    tag_315:\n        /* \"#utility.yul\":9744:9774   */\n      swap1\n      pop\n        /* \"#utility.yul\":9783:9816   */\n      tag_316\n        /* \"#utility.yul\":9811:9815   */\n      dup3\n        /* \"#utility.yul\":9803:9809   */\n      dup3\n        /* \"#utility.yul\":9783:9816   */\n      tag_185\n      jump\t// in\n    tag_316:\n        /* \"#utility.yul\":9693:9822   */\n      swap2\n      swap1\n      pop\n      jump\t// out\n        /* \"#utility.yul\":9828:10136   */\n    tag_187:\n        /* \"#utility.yul\":9890:9894   */\n      0x00\n        /* \"#utility.yul\":9980:9998   */\n      0xffffffffffffffff\n        /* \"#utility.yul\":9972:9978   */\n      dup3\n        /* \"#utility.yul\":9969:9999   */\n      gt\n        /* \"#utility.yul\":9966:10022   */\n      iszero\n      tag_318\n      jumpi\n        /* \"#utility.yul\":10002:10020   */\n      tag_319\n      tag_54\n      jump\t// in\n    tag_319:\n        /* \"#utility.yul\":9966:10022   */\n    tag_318:\n        /* \"#utility.yul\":10040:10069   */\n      tag_320\n        /* \"#utility.yul\":10062:10068   */\n      dup3\n        /* \"#utility.yul\":10040:10069   */\n      tag_169\n      jump\t// in\n    tag_320:\n        /* \"#utility.yul\":10032:10069   */\n      swap1\n      pop\n        /* \"#utility.yul\":10124:10128   */\n      0x20\n        /* \"#utility.yul\":10118:10122   */\n      dup2\n        /* \"#utility.yul\":10114:10129   */\n      add\n        /* \"#utility.yul\":10106:10129   */\n      swap1\n      pop\n        /* \"#utility.yul\":9828:10136   */\n      swap2\n      swap1\n      pop\n      jump\t// out\n        /* \"#utility.yul\":10142:10288   */\n    tag_188:\n        /* \"#utility.yul\":10239:10245   */\n      dup3\n        /* \"#utility.yul\":10234:10237   */\n      dup2\n        /* \"#utility.yul\":10229:10232   */\n      dup4\n        /* \"#utility.yul\":10216:10246   */\n      calldatacopy\n        /* \"#utility.yul\":10280:10281   */\n      0x00\n        /* \"#utility.yul\":10271:10277   */\n      dup4\n        /* \"#utility.yul\":10266:10269   */\n      dup4\n        /* \"#utility.yul\":10262:10278   */\n      add\n        /* \"#utility.yul\":10255:10282   */\n      mstore\n        /* \"#utility.yul\":10142:10288   */\n      pop\n      pop\n      pop\n      jump\t// out\n        /* \"#utility.yul\":10294:10719   */\n    tag_189:\n        /* \"#utility.yul\":10372:10377   */\n      0x00\n        /* \"#utility.yul\":10397:10463   */\n      tag_323\n        /* \"#utility.yul\":10413:10462   */\n      tag_324\n        /* \"#utility.yul\":10455:10461   */\n      dup5\n        /* \"#utility.yul\":10413:10462   */\n      tag_187\n      jump\t// in\n    tag_324:\n        /* \"#utility.yul\":10397:10463   */\n      tag_186\n      jump\t// in\n    tag_323:\n        /* \"#utility.yul\":10388:10463   */\n      swap1\n      pop\n        /* \"#utility.yul\":10486:10492   */\n      dup3\n        /* \"#utility.yul\":10479:10484   */\n      dup2\n        /* \"#utility.yul\":10472:10493   */\n      mstore\n        /* \"#utility.yul\":10524:10528   */\n      0x20\n        /* \"#utility.yul\":10517:10522   */\n      dup2\n        /* \"#utility.yul\":10513:10529   */\n      add\n        /* \"#utility.yul\":10562:10565   */\n      dup5\n        /* \"#utility.yul\":10553:10559   */\n      dup5\n        /* \"#utility.yul\":10548:10551   */\n      dup5\n        /* \"#utility.yul\":10544:10560   */\n      add\n        /* \"#utility.yul\":10541:10566   */\n      gt\n        /* \"#utility.yul\":10538:10650   */\n      iszero\n      tag_325\n      jumpi\n        /* \"#utility.yul\":10569:10648   */\n      tag_326\n      tag_184\n      jump\t// in\n    tag_326:\n        /* \"#utility.yul\":10538:10650   */\n    tag_325:\n        /* \"#utility.yul\":10659:10713   */\n      tag_327\n        /* \"#utility.yul\":10706:10712   */\n      dup5\n        /* \"#utility.yul\":10701:10704   */\n      dup3\n        /* \"#utility.yul\":10696:10699   */\n      dup6\n        /* \"#utility.yul\":10659:10713   */\n      tag_188\n      jump\t// in\n    tag_327:\n        /* \"#utility.yul\":10378:10719   */\n      pop\n        /* \"#utility.yul\":10294:10719   */\n      swap4\n      swap3\n      pop\n      pop\n      pop\n      jump\t// out\n        /* \"#utility.yul\":10739:11079   */\n    tag_190:\n        /* \"#utility.yul\":10795:10800   */\n      0x00\n        /* \"#utility.yul\":10844:10847   */\n      dup3\n        /* \"#utility.yul\":10837:10841   */\n      0x1f\n        /* \"#utility.yul\":10829:10835   */\n      dup4\n        /* \"#utility.yul\":10825:10842   */\n      add\n        /* \"#utility.yul\":10821:10848   */\n      slt\n        /* \"#utility.yul\":10811:10933   */\n      tag_329\n      jumpi\n        /* \"#utility.yul\":10852:10931   */\n      tag_330\n      tag_183\n      jump\t// in\n    tag_330:\n        /* \"#utility.yul\":10811:10933   */\n    tag_329:\n        /* \"#utility.yul\":10969:10975   */\n      dup2\n        /* \"#utility.yul\":10956:10976   */\n      calldataload\n        /* \"#utility.yul\":10994:11073   */\n      tag_331\n        /* \"#utility.yul\":11069:11072   */\n      dup5\n        /* \"#utility.yul\":11061:11067   */\n      dup3\n        /* \"#utility.yul\":11054:11058   */\n      0x20\n        /* \"#utility.yul\":11046:11052   */\n      dup7\n        /* \"#utility.yul\":11042:11059   */\n      add\n        /* \"#utility.yul\":10994:11073   */\n      tag_189\n      jump\t// in\n    tag_331:\n        /* \"#utility.yul\":10985:11073   */\n      swap2\n      pop\n        /* \"#utility.yul\":10801:11079   */\n      pop\n        /* \"#utility.yul\":10739:11079   */\n      swap3\n      swap2\n      pop\n      pop\n      jump\t// out\n        /* \"#utility.yul\":11085:12064   */\n    tag_35:\n        /* \"#utility.yul\":11182:11188   */\n      0x00\n        /* \"#utility.yul\":11190:11196   */\n      dup1\n        /* \"#utility.yul\":11198:11204   */\n      0x00\n        /* \"#utility.yul\":11247:11249   */\n      0x60\n        /* \"#utility.yul\":11235:11244   */\n      dup5\n        /* \"#utility.yul\":11226:11233   */\n      dup7\n        /* \"#utility.yul\":11222:11245   */\n      sub\n        /* \"#utility.yul\":11218:11250   */\n      slt\n        /* \"#utility.yul\":11215:11334   */\n      iszero\n      tag_333\n      jumpi\n        /* \"#utility.yul\":11253:11332   */\n      tag_334\n      tag_156\n      jump\t// in\n    tag_334:\n        /* \"#utility.yul\":11215:11334   */\n    tag_333:\n        /* \"#utility.yul\":11373:11374   */\n      0x00\n        /* \"#utility.yul\":11398:11451   */\n      tag_335\n        /* \"#utility.yul\":11443:11450   */\n      dup7\n        /* \"#utility.yul\":11434:11440   */\n      dup3\n        /* \"#utility.yul\":11423:11432   */\n      dup8\n        /* \"#utility.yul\":11419:11441   */\n      add\n        /* \"#utility.yul\":11398:11451   */\n      tag_161\n      jump\t// in\n    tag_335:\n        /* \"#utility.yul\":11388:11451   */\n      swap4\n      pop\n        /* \"#utility.yul\":11344:11461   */\n      pop\n        /* \"#utility.yul\":11528:11530   */\n      0x20\n        /* \"#utility.yul\":11517:11526   */\n      dup5\n        /* \"#utility.yul\":11513:11531   */\n      add\n        /* \"#utility.yul\":11500:11532   */\n      calldataload\n        /* \"#utility.yul\":11559:11577   */\n      0xffffffffffffffff\n        /* \"#utility.yul\":11551:11557   */\n      dup2\n        /* \"#utility.yul\":11548:11578   */\n      gt\n        /* \"#utility.yul\":11545:11662   */\n      iszero\n      tag_336\n      jumpi\n        /* \"#utility.yul\":11581:11660   */\n      tag_337\n      tag_157\n      jump\t// in\n    tag_337:\n        /* \"#utility.yul\":11545:11662   */\n    tag_336:\n        /* \"#utility.yul\":11686:11749   */\n      tag_338\n        /* \"#utility.yul\":11741:11748   */\n      dup7\n        /* \"#utility.yul\":11732:11738   */\n      dup3\n        /* \"#utility.yul\":11721:11730   */\n      dup8\n        /* \"#utility.yul\":11717:11739   */\n      add\n        /* \"#utility.yul\":11686:11749   */\n      tag_190\n      jump\t// in\n    tag_338:\n        /* \"#utility.yul\":11676:11749   */\n      swap3\n      pop\n        /* \"#utility.yul\":11471:11759   */\n      pop\n        /* \"#utility.yul\":11826:11828   */\n      0x40\n        /* \"#utility.yul\":11815:11824   */\n      dup5\n        /* \"#utility.yul\":11811:11829   */\n      add\n        /* \"#utility.yul\":11798:11830   */\n      calldataload\n        /* \"#utility.yul\":11857:11875   */\n      0xffffffffffffffff\n        /* \"#utility.yul\":11849:11855   */\n      dup2\n        /* \"#utility.yul\":11846:11876   */\n      gt\n        /* \"#utility.yul\":11843:11960   */\n      iszero\n      tag_339\n      jumpi\n        /* \"#utility.yul\":11879:11958   */\n      tag_340\n      tag_157\n      jump\t// in\n    tag_340:\n        /* \"#utility.yul\":11843:11960   */\n    tag_339:\n        /* \"#utility.yul\":11984:12047   */\n      tag_341\n        /* \"#utility.yul\":12039:12046   */\n      dup7\n        /* \"#utility.yul\":12030:12036   */\n      dup3\n        /* \"#utility.yul\":12019:12028   */\n      dup8\n        /* \"#utility.yul\":12015:12037   */\n      add\n        /* \"#utility.yul\":11984:12047   */\n      tag_190\n      jump\t// in\n    tag_341:\n        /* \"#utility.yul\":11974:12047   */\n      swap2\n      pop\n        /* \"#utility.yul\":11769:12057   */\n      pop\n        /* \"#utility.yul\":11085:12064   */\n      swap3\n      pop\n      swap3\n      pop\n      swap3\n      jump\t// out\n        /* \"#utility.yul\":12070:12250   */\n    tag_191:\n        /* \"#utility.yul\":12118:12195   */\n      0x4e487b7100000000000000000000000000000000000000000000000000000000\n        /* \"#utility.yul\":12115:12116   */\n      0x00\n        /* \"#utility.yul\":12108:12196   */\n      mstore\n        /* \"#utility.yul\":12215:12219   */\n      0x22\n        /* \"#utility.yul\":12212:12213   */\n      0x04\n        /* \"#utility.yul\":12205:12220   */\n      mstore\n        /* \"#utility.yul\":12239:12243   */\n      0x24\n        /* \"#utility.yul\":12236:12237   */\n      0x00\n        /* \"#utility.yul\":12229:12244   */\n      revert\n        /* \"#utility.yul\":12256:12576   */\n    tag_42:\n        /* \"#utility.yul\":12300:12306   */\n      0x00\n        /* \"#utility.yul\":12337:12338   */\n      0x02\n        /* \"#utility.yul\":12331:12335   */\n      dup3\n        /* \"#utility.yul\":12327:12339   */\n      div\n        /* \"#utility.yul\":12317:12339   */\n      swap1\n      pop\n        /* \"#utility.yul\":12384:12385   */\n      0x01\n        /* \"#utility.yul\":12378:12382   */\n      dup3\n        /* \"#utility.yul\":12374:12386   */\n      and\n        /* \"#utility.yul\":12405:12423   */\n      dup1\n        /* \"#utility.yul\":12395:12476   */\n      tag_344\n      jumpi\n        /* \"#utility.yul\":12461:12465   */\n      0x7f\n        /* \"#utility.yul\":12453:12459   */\n      dup3\n        /* \"#utility.yul\":12449:12466   */\n      and\n        /* \"#utility.yul\":12439:12466   */\n      swap2\n      pop\n        /* \"#utility.yul\":12395:12476   */\n    tag_344:\n        /* \"#utility.yul\":12523:12525   */\n      0x20\n        /* \"#utility.yul\":12515:12521   */\n      dup3\n        /* \"#utility.yul\":12512:12526   */\n      lt\n        /* \"#utility.yul\":12492:12510   */\n      dup2\n        /* \"#utility.yul\":12489:12527   */\n      sub\n        /* \"#utility.yul\":12486:12570   */\n      tag_345\n      jumpi\n        /* \"#utility.yul\":12542:12560   */\n      tag_346\n      tag_191\n      jump\t// in\n    tag_346:\n        /* \"#utility.yul\":12486:12570   */\n    tag_345:\n        /* \"#utility.yul\":12307:12576   */\n      pop\n        /* \"#utility.yul\":12256:12576   */\n      swap2\n      swap1\n      pop\n      jump\t// out\n        /* \"#utility.yul\":12582:12762   */\n    tag_64:\n        /* \"#utility.yul\":12630:12707   */\n      0x4e487b7100000000000000000000000000000000000000000000000000000000\n        /* \"#utility.yul\":12627:12628   */\n      0x00\n        /* \"#utility.yul\":12620:12708   */\n      mstore\n        /* \"#utility.yul\":12727:12731   */\n      0x32\n        /* \"#utility.yul\":12724:12725   */\n      0x04\n        /* \"#utility.yul\":12717:12732   */\n      mstore\n        /* \"#utility.yul\":12751:12755   */\n      0x24\n        /* \"#utility.yul\":12748:12749   */\n      0x00\n        /* \"#utility.yul\":12741:12756   */\n      revert\n        /* \"#utility.yul\":12768:12948   */\n    tag_192:\n        /* \"#utility.yul\":12816:12893   */\n      0x4e487b7100000000000000000000000000000000000000000000000000000000\n        /* \"#utility.yul\":12813:12814   */\n      0x00\n        /* \"#utility.yul\":12806:12894   */\n      mstore\n        /* \"#utility.yul\":12913:12917   */\n      0x11\n        /* \"#utility.yul\":12910:12911   */\n      0x04\n        /* \"#utility.yul\":12903:12918   */\n      mstore\n        /* \"#utility.yul\":12937:12941   */\n      0x24\n        /* \"#utility.yul\":12934:12935   */\n      0x00\n        /* \"#utility.yul\":12927:12942   */\n      revert\n        /* \"#utility.yul\":12954:13187   */\n    tag_71:\n        /* \"#utility.yul\":12993:12996   */\n      0x00\n        /* \"#utility.yul\":13016:13040   */\n      tag_350\n        /* \"#utility.yul\":13034:13039   */\n      dup3\n        /* \"#utility.yul\":13016:13040   */\n      tag_171\n      jump\t// in\n    tag_350:\n        /* \"#utility.yul\":13007:13040   */\n      swap2\n      pop\n        /* \"#utility.yul\":13062:13128   */\n      0xffffffffffffffffffffffffffffffffffffffffffffffffffffffffffffffff\n        /* \"#utility.yul\":13055:13060   */\n      dup3\n        /* \"#utility.yul\":13052:13129   */\n      sub\n        /* \"#utility.yul\":13049:13152   */\n      tag_351\n      jumpi\n        /* \"#utility.yul\":13132:13150   */\n      tag_352\n      tag_192\n      jump\t// in\n    tag_352:\n        /* \"#utility.yul\":13049:13152   */\n    tag_351:\n        /* \"#utility.yul\":13179:13180   */\n      0x01\n        /* \"#utility.yul\":13172:13177   */\n      dup3\n        /* \"#utility.yul\":13168:13181   */\n      add\n        /* \"#utility.yul\":13161:13181   */\n      swap1\n      pop\n        /* \"#utility.yul\":12954:13187   */\n      swap2\n      swap1\n      pop\n      jump\t// out\n        /* \"#utility.yul\":13193:13419   */\n    tag_193:\n        /* \"#utility.yul\":13333:13367   */\n      0x4e756d626572206f6620656d61696c73206d7573742062652067726561746572\n        /* \"#utility.yul\":13329:13330   */\n      0x00\n        /* \"#utility.yul\":13321:13327   */\n      dup3\n        /* \"#utility.yul\":13317:13331   */\n      add\n        /* \"#utility.yul\":13310:13368   */\n      mstore\n        /* \"#utility.yul\":13402:13411   */\n      0x207468616e203000000000000000000000000000000000000000000000000000\n        /* \"#utility.yul\":13397:13399   */\n      0x20\n        /* \"#utility.yul\":13389:13395   */\n      dup3\n        /* \"#utility.yul\":13385:13400   */\n      add\n        /* \"#utility.yul\":13378:13412   */\n      mstore\n        /* \"#utility.yul\":13193:13419   */\n      pop\n      jump\t// out\n        /* \"#utility.yul\":13425:13791   */\n    tag_194:\n        /* \"#utility.yul\":13567:13570   */\n      0x00\n        /* \"#utility.yul\":13588:13655   */\n      tag_355\n        /* \"#utility.yul\":13652:13654   */\n      0x27\n        /* \"#utility.yul\":13647:13650   */\n      dup4\n        /* \"#utility.yul\":13588:13655   */\n      tag_180\n      jump\t// in\n    tag_355:\n        /* \"#utility.yul\":13581:13655   */\n      swap2\n      pop\n        /* \"#utility.yul\":13664:13757   */\n      tag_356\n        /* \"#utility.yul\":13753:13756   */\n      dup3\n        /* \"#utility.yul\":13664:13757   */\n      tag_193\n      jump\t// in\n    tag_356:\n        /* \"#utility.yul\":13782:13784   */\n      0x40\n        /* \"#utility.yul\":13777:13780   */\n      dup3\n        /* \"#utility.yul\":13773:13785   */\n      add\n        /* \"#utility.yul\":13766:13785   */\n      swap1\n      pop\n        /* \"#utility.yul\":13425:13791   */\n      swap2\n      swap1\n      pop\n      jump\t// out\n        /* \"#utility.yul\":13797:14216   */\n    tag_100:\n        /* \"#utility.yul\":13963:13967   */\n      0x00\n        /* \"#utility.yul\":14001:14003   */\n      0x20\n        /* \"#utility.yul\":13990:13999   */\n      dup3\n        /* \"#utility.yul\":13986:14004   */\n      add\n        /* \"#utility.yul\":13978:14004   */\n      swap1\n      pop\n        /* \"#utility.yul\":14050:14059   */\n      dup2\n        /* \"#utility.yul\":14044:14048   */\n      dup2\n        /* \"#utility.yul\":14040:14060   */\n      sub\n        /* \"#utility.yul\":14036:14037   */\n      0x00\n        /* \"#utility.yul\":14025:14034   */\n      dup4\n        /* \"#utility.yul\":14021:14038   */\n      add\n        /* \"#utility.yul\":14014:14061   */\n      mstore\n        /* \"#utility.yul\":14078:14209   */\n      tag_358\n        /* \"#utility.yul\":14204:14208   */\n      dup2\n        /* \"#utility.yul\":14078:14209   */\n      tag_194\n      jump\t// in\n    tag_358:\n        /* \"#utility.yul\":14070:14209   */\n      swap1\n      pop\n        /* \"#utility.yul\":13797:14216   */\n      swap2\n      swap1\n      pop\n      jump\t// out\n        /* \"#utility.yul\":14222:14370   */\n    tag_195:\n        /* \"#utility.yul\":14324:14335   */\n      0x00\n        /* \"#utility.yul\":14361:14364   */\n      dup2\n        /* \"#utility.yul\":14346:14364   */\n      swap1\n      pop\n        /* \"#utility.yul\":14222:14370   */\n      swap3\n      swap2\n      pop\n      pop\n      jump\t// out\n        /* \"#utility.yul\":14376:14538   */\n    tag_196:\n        /* \"#utility.yul\":14516:14530   */\n      0x4d6f636b20456d61696c20230000000000000000000000000000000000000000\n        /* \"#utility.yul\":14512:14513   */\n      0x00\n        /* \"#utility.yul\":14504:14510   */\n      dup3\n        /* \"#utility.yul\":14500:14514   */\n      add\n        /* \"#utility.yul\":14493:14531   */\n      mstore\n        /* \"#utility.yul\":14376:14538   */\n      pop\n      jump\t// out\n        /* \"#utility.yul\":14544:14946   */\n    tag_197:\n        /* \"#utility.yul\":14704:14707   */\n      0x00\n        /* \"#utility.yul\":14725:14810   */\n      tag_362\n        /* \"#utility.yul\":14807:14809   */\n      0x0c\n        /* \"#utility.yul\":14802:14805   */\n      dup4\n        /* \"#utility.yul\":14725:14810   */\n      tag_195\n      jump\t// in\n    tag_362:\n        /* \"#utility.yul\":14718:14810   */\n      swap2\n      pop\n        /* \"#utility.yul\":14819:14912   */\n      tag_363\n        /* \"#utility.yul\":14908:14911   */\n      dup3\n        /* \"#utility.yul\":14819:14912   */\n      tag_196\n      jump\t// in\n    tag_363:\n        /* \"#utility.yul\":14937:14939   */\n      0x0c\n        /* \"#utility.yul\":14932:14935   */\n      dup3\n        /* \"#utility.yul\":14928:14940   */\n      add\n        /* \"#utility.yul\":14921:14940   */\n      swap1\n      pop\n        /* \"#utility.yul\":14544:14946   */\n      swap2\n      swap1\n      pop\n      jump\t// out\n        /* \"#utility.yul\":14952:15342   */\n    tag_198:\n        /* \"#utility.yul\":15058:15061   */\n      0x00\n        /* \"#utility.yul\":15086:15125   */\n      tag_365\n        /* \"#utility.yul\":15119:15124   */\n      dup3\n        /* \"#utility.yul\":15086:15125   */\n      tag_166\n      jump\t// in\n    tag_365:\n        /* \"#utility.yul\":15141:15230   */\n      tag_366\n        /* \"#utility.yul\":15223:15229   */\n      dup2\n        /* \"#utility.yul\":15218:15221   */\n      dup6\n        /* \"#utility.yul\":15141:15230   */\n      tag_195\n      jump\t// in\n    tag_366:\n        /* \"#utility.yul\":15134:15230   */\n      swap4\n      pop\n        /* \"#utility.yul\":15239:15304   */\n      tag_367\n        /* \"#utility.yul\":15297:15303   */\n      dup2\n        /* \"#utility.yul\":15292:15295   */\n      dup6\n        /* \"#utility.yul\":15285:15289   */\n      0x20\n        /* \"#utility.yul\":15278:15283   */\n      dup7\n        /* \"#utility.yul\":15274:15290   */\n      add\n        /* \"#utility.yul\":15239:15304   */\n      tag_168\n      jump\t// in\n    tag_367:\n        /* \"#utility.yul\":15329:15335   */\n      dup1\n        /* \"#utility.yul\":15324:15327   */\n      dup5\n        /* \"#utility.yul\":15320:15336   */\n      add\n        /* \"#utility.yul\":15313:15336   */\n      swap2\n      pop\n        /* \"#utility.yul\":15062:15342   */\n      pop\n        /* \"#utility.yul\":14952:15342   */\n      swap3\n      swap2\n      pop\n      pop\n      jump\t// out\n        /* \"#utility.yul\":15348:15889   */\n    tag_107:\n        /* \"#utility.yul\":15581:15584   */\n      0x00\n        /* \"#utility.yul\":15603:15751   */\n      tag_369\n        /* \"#utility.yul\":15747:15750   */\n      dup3\n        /* \"#utility.yul\":15603:15751   */\n      tag_197\n      jump\t// in\n    tag_369:\n        /* \"#utility.yul\":15596:15751   */\n      swap2\n      pop\n        /* \"#utility.yul\":15768:15863   */\n      tag_370\n        /* \"#utility.yul\":15859:15862   */\n      dup3\n        /* \"#utility.yul\":15850:15856   */\n      dup5\n        /* \"#utility.yul\":15768:15863   */\n      tag_198\n      jump\t// in\n    tag_370:\n        /* \"#utility.yul\":15761:15863   */\n      swap2\n      pop\n        /* \"#utility.yul\":15880:15883   */\n      dup2\n        /* \"#utility.yul\":15873:15883   */\n      swap1\n      pop\n        /* \"#utility.yul\":15348:15889   */\n      swap3\n      swap2\n      pop\n      pop\n      jump\t// out\n        /* \"#utility.yul\":15895:16067   */\n    tag_199:\n        /* \"#utility.yul\":16035:16059   */\n      0x546869732069732061206d6f636b20656d61696c202300000000000000000000\n        /* \"#utility.yul\":16031:16032   */\n      0x00\n        /* \"#utility.yul\":16023:16029   */\n      dup3\n        /* \"#utility.yul\":16019:16033   */\n      add\n        /* \"#utility.yul\":16012:16060   */\n      mstore\n        /* \"#utility.yul\":15895:16067   */\n      pop\n      jump\t// out\n        /* \"#utility.yul\":16073:16475   */\n    tag_200:\n        /* \"#utility.yul\":16233:16236   */\n      0x00\n        /* \"#utility.yul\":16254:16339   */\n      tag_373\n        /* \"#utility.yul\":16336:16338   */\n      0x16\n        /* \"#utility.yul\":16331:16334   */\n      dup4\n        /* \"#utility.yul\":16254:16339   */\n      tag_195\n      jump\t// in\n    tag_373:\n        /* \"#utility.yul\":16247:16339   */\n      swap2\n      pop\n        /* \"#utility.yul\":16348:16441   */\n      tag_374\n        /* \"#utility.yul\":16437:16440   */\n      dup3\n        /* \"#utility.yul\":16348:16441   */\n      tag_199\n      jump\t// in\n    tag_374:\n        /* \"#utility.yul\":16466:16468   */\n      0x16\n        /* \"#utility.yul\":16461:16464   */\n      dup3\n        /* \"#utility.yul\":16457:16469   */\n      add\n        /* \"#utility.yul\":16450:16469   */\n      swap1\n      pop\n        /* \"#utility.yul\":16073:16475   */\n      swap2\n      swap1\n      pop\n      jump\t// out\n        /* \"#utility.yul\":16481:17022   */\n    tag_110:\n        /* \"#utility.yul\":16714:16717   */\n      0x00\n        /* \"#utility.yul\":16736:16884   */\n      tag_376\n        /* \"#utility.yul\":16880:16883   */\n      dup3\n        /* \"#utility.yul\":16736:16884   */\n      tag_200\n      jump\t// in\n    tag_376:\n        /* \"#utility.yul\":16729:16884   */\n      swap2\n      pop\n        /* \"#utility.yul\":16901:16996   */\n      tag_377\n        /* \"#utility.yul\":16992:16995   */\n      dup3\n        /* \"#utility.yul\":16983:16989   */\n      dup5\n        /* \"#utility.yul\":16901:16996   */\n      tag_198\n      jump\t// in\n    tag_377:\n        /* \"#utility.yul\":16894:16996   */\n      swap2\n      pop\n        /* \"#utility.yul\":17013:17016   */\n      dup2\n        /* \"#utility.yul\":17006:17016   */\n      swap1\n      pop\n        /* \"#utility.yul\":16481:17022   */\n      swap3\n      swap2\n      pop\n      pop\n      jump\t// out\n        /* \"#utility.yul\":17028:17169   */\n    tag_201:\n        /* \"#utility.yul\":17077:17081   */\n      0x00\n        /* \"#utility.yul\":17100:17103   */\n      dup2\n        /* \"#utility.yul\":17092:17103   */\n      swap1\n      pop\n        /* \"#utility.yul\":17123:17126   */\n      dup2\n        /* \"#utility.yul\":17120:17121   */\n      0x00\n        /* \"#utility.yul\":17113:17127   */\n      mstore\n        /* \"#utility.yul\":17157:17161   */\n      0x20\n        /* \"#utility.yul\":17154:17155   */\n      0x00\n        /* \"#utility.yul\":17144:17162   */\n      keccak256\n        /* \"#utility.yul\":17136:17162   */\n      swap1\n      pop\n        /* \"#utility.yul\":17028:17169   */\n      swap2\n      swap1\n      pop\n      jump\t// out\n        /* \"#utility.yul\":17175:17268   */\n    tag_202:\n        /* \"#utility.yul\":17212:17218   */\n      0x00\n        /* \"#utility.yul\":17259:17261   */\n      0x20\n        /* \"#utility.yul\":17254:17256   */\n      0x1f\n        /* \"#utility.yul\":17247:17252   */\n      dup4\n        /* \"#utility.yul\":17243:17257   */\n      add\n        /* \"#utility.yul\":17239:17262   */\n      div\n        /* \"#utility.yul\":17229:17262   */\n      swap1\n      pop\n        /* \"#utility.yul\":17175:17268   */\n      swap2\n      swap1\n      pop\n      jump\t// out\n        /* \"#utility.yul\":17274:17381   */\n    tag_203:\n        /* \"#utility.yul\":17318:17326   */\n      0x00\n        /* \"#utility.yul\":17368:17373   */\n      dup3\n        /* \"#utility.yul\":17362:17366   */\n      dup3\n        /* \"#utility.yul\":17358:17374   */\n      shl\n        /* \"#utility.yul\":17337:17374   */\n      swap1\n      pop\n        /* \"#utility.yul\":17274:17381   */\n      swap3\n      swap2\n      pop\n      pop\n      jump\t// out\n        /* \"#utility.yul\":17387:17780   */\n    tag_204:\n        /* \"#utility.yul\":17456:17462   */\n      0x00\n        /* \"#utility.yul\":17506:17507   */\n      0x08\n        /* \"#utility.yul\":17494:17504   */\n      dup4\n        /* \"#utility.yul\":17490:17508   */\n      mul\n        /* \"#utility.yul\":17529:17626   */\n      tag_382\n        /* \"#utility.yul\":17559:17625   */\n      0xffffffffffffffffffffffffffffffffffffffffffffffffffffffffffffffff\n        /* \"#utility.yul\":17548:17557   */\n      dup3\n        /* \"#utility.yul\":17529:17626   */\n      tag_203\n      jump\t// in\n    tag_382:\n        /* \"#utility.yul\":17647:17686   */\n      tag_383\n        /* \"#utility.yul\":17677:17685   */\n      dup7\n        /* \"#utility.yul\":17666:17675   */\n      dup4\n        /* \"#utility.yul\":17647:17686   */\n      tag_203\n      jump\t// in\n    tag_383:\n        /* \"#utility.yul\":17635:17686   */\n      swap6\n      pop\n        /* \"#utility.yul\":17719:17723   */\n      dup1\n        /* \"#utility.yul\":17715:17724   */\n      not\n        /* \"#utility.yul\":17708:17713   */\n      dup5\n        /* \"#utility.yul\":17704:17725   */\n      and\n        /* \"#utility.yul\":17695:17725   */\n      swap4\n      pop\n        /* \"#utility.yul\":17768:17772   */\n      dup1\n        /* \"#utility.yul\":17758:17766   */\n      dup7\n        /* \"#utility.yul\":17754:17773   */\n      and\n        /* \"#utility.yul\":17747:17752   */\n      dup5\n        /* \"#utility.yul\":17744:17774   */\n      or\n        /* \"#utility.yul\":17734:17774   */\n      swap3\n      pop\n        /* \"#utility.yul\":17463:17780   */\n      pop\n      pop\n        /* \"#utility.yul\":17387:17780   */\n      swap4\n      swap3\n      pop\n      pop\n      pop\n      jump\t// out\n        /* \"#utility.yul\":17786:17846   */\n    tag_205:\n        /* \"#utility.yul\":17814:17817   */\n      0x00\n        /* \"#utility.yul\":17835:17840   */\n      dup2\n        /* \"#utility.yul\":17828:17840   */\n      swap1\n      pop\n        /* \"#utility.yul\":17786:17846   */\n      swap2\n      swap1\n      pop\n      jump\t// out\n        /* \"#utility.yul\":17852:17994   */\n    tag_206:\n        /* \"#utility.yul\":17902:17911   */\n      0x00\n        /* \"#utility.yul\":17935:17988   */\n      tag_386\n        /* \"#utility.yul\":17953:17987   */\n      tag_387\n        /* \"#utility.yul\":17962:17986   */\n      tag_388\n        /* \"#utility.yul\":17980:17985   */\n      dup5\n        /* \"#utility.yul\":17962:17986   */\n      tag_171\n      jump\t// in\n    tag_388:\n        /* \"#utility.yul\":17953:17987   */\n      tag_205\n      jump\t// in\n    tag_387:\n        /* \"#utility.yul\":17935:17988   */\n      tag_171\n      jump\t// in\n    tag_386:\n        /* \"#utility.yul\":17922:17988   */\n      swap1\n      pop\n        /* \"#utility.yul\":17852:17994   */\n      swap2\n      swap1\n      pop\n      jump\t// out\n        /* \"#utility.yul\":18000:18075   */\n    tag_207:\n        /* \"#utility.yul\":18043:18046   */\n      0x00\n        /* \"#utility.yul\":18064:18069   */\n      dup2\n        /* \"#utility.yul\":18057:18069   */\n      swap1\n      pop\n        /* \"#utility.yul\":18000:18075   */\n      swap2\n      swap1\n      pop\n      jump\t// out\n        /* \"#utility.yul\":18081:18350   */\n    tag_208:\n        /* \"#utility.yul\":18191:18230   */\n      tag_391\n        /* \"#utility.yul\":18222:18229   */\n      dup4\n        /* \"#utility.yul\":18191:18230   */\n      tag_206\n      jump\t// in\n    tag_391:\n        /* \"#utility.yul\":18252:18343   */\n      tag_392\n        /* \"#utility.yul\":18301:18342   */\n      tag_393\n        /* \"#utility.yul\":18325:18341   */\n      dup3\n        /* \"#utility.yul\":18301:18342   */\n      tag_207\n      jump\t// in\n    tag_393:\n        /* \"#utility.yul\":18293:18299   */\n      dup5\n        /* \"#utility.yul\":18286:18290   */\n      dup5\n        /* \"#utility.yul\":18280:18291   */\n      sload\n        /* \"#utility.yul\":18252:18343   */\n      tag_204\n      jump\t// in\n    tag_392:\n        /* \"#utility.yul\":18246:18250   */\n      dup3\n        /* \"#utility.yul\":18239:18344   */\n      sstore\n        /* \"#utility.yul\":18157:18350   */\n      pop\n        /* \"#utility.yul\":18081:18350   */\n      pop\n      pop\n      pop\n      jump\t// out\n        /* \"#utility.yul\":18356:18429   */\n    tag_209:\n        /* \"#utility.yul\":18401:18404   */\n      0x00\n        /* \"#utility.yul\":18356:18429   */\n      swap1\n      jump\t// out\n        /* \"#utility.yul\":18435:18624   */\n    tag_210:\n        /* \"#utility.yul\":18512:18544   */\n      tag_396\n      tag_209\n      jump\t// in\n    tag_396:\n        /* \"#utility.yul\":18553:18618   */\n      tag_397\n        /* \"#utility.yul\":18611:18617   */\n      dup2\n        /* \"#utility.yul\":18603:18609   */\n      dup5\n        /* \"#utility.yul\":18597:18601   */\n      dup5\n        /* \"#utility.yul\":18553:18618   */\n      tag_208\n      jump\t// in\n    tag_397:\n        /* \"#utility.yul\":18488:18624   */\n      pop\n        /* \"#utility.yul\":18435:18624   */\n      pop\n      pop\n      jump\t// out\n        /* \"#utility.yul\":18630:18816   */\n    tag_211:\n        /* \"#utility.yul\":18690:18810   */\n    tag_399:\n        /* \"#utility.yul\":18707:18710   */\n      dup2\n        /* \"#utility.yul\":18700:18705   */\n      dup2\n        /* \"#utility.yul\":18697:18711   */\n      lt\n        /* \"#utility.yul\":18690:18810   */\n      iszero\n      tag_401\n      jumpi\n        /* \"#utility.yul\":18761:18800   */\n      tag_402\n        /* \"#utility.yul\":18798:18799   */\n      0x00\n        /* \"#utility.yul\":18791:18796   */\n      dup3\n        /* \"#utility.yul\":18761:18800   */\n      tag_210\n      jump\t// in\n    tag_402:\n        /* \"#utility.yul\":18734:18735   */\n      0x01\n        /* \"#utility.yul\":18727:18732   */\n      dup2\n        /* \"#utility.yul\":18723:18736   */\n      add\n        /* \"#utility.yul\":18714:18736   */\n      swap1\n      pop\n        /* \"#utility.yul\":18690:18810   */\n      jump(tag_399)\n    tag_401:\n        /* \"#utility.yul\":18630:18816   */\n      pop\n      pop\n      jump\t// out\n        /* \"#utility.yul\":18822:19365   */\n    tag_212:\n        /* \"#utility.yul\":18923:18925   */\n      0x1f\n        /* \"#utility.yul\":18918:18921   */\n      dup3\n        /* \"#utility.yul\":18915:18926   */\n      gt\n        /* \"#utility.yul\":18912:19358   */\n      iszero\n      tag_404\n      jumpi\n        /* \"#utility.yul\":18957:18995   */\n      tag_405\n        /* \"#utility.yul\":18989:18994   */\n      dup2\n        /* \"#utility.yul\":18957:18995   */\n      tag_201\n      jump\t// in\n    tag_405:\n        /* \"#utility.yul\":19041:19070   */\n      tag_406\n        /* \"#utility.yul\":19059:19069   */\n      dup5\n        /* \"#utility.yul\":19041:19070   */\n      tag_202\n      jump\t// in\n    tag_406:\n        /* \"#utility.yul\":19031:19039   */\n      dup2\n        /* \"#utility.yul\":19027:19071   */\n      add\n        /* \"#utility.yul\":19224:19226   */\n      0x20\n        /* \"#utility.yul\":19212:19222   */\n      dup6\n        /* \"#utility.yul\":19209:19227   */\n      lt\n        /* \"#utility.yul\":19206:19255   */\n      iszero\n      tag_407\n      jumpi\n        /* \"#utility.yul\":19245:19253   */\n      dup2\n        /* \"#utility.yul\":19230:19253   */\n      swap1\n      pop\n        /* \"#utility.yul\":19206:19255   */\n    tag_407:\n        /* \"#utility.yul\":19268:19348   */\n      tag_408\n        /* \"#utility.yul\":19324:19346   */\n      tag_409\n        /* \"#utility.yul\":19342:19345   */\n      dup6\n        /* \"#utility.yul\":19324:19346   */\n      tag_202\n      jump\t// in\n    tag_409:\n        /* \"#utility.yul\":19314:19322   */\n      dup4\n        /* \"#utility.yul\":19310:19347   */\n      add\n        /* \"#utility.yul\":19297:19308   */\n      dup3\n        /* \"#utility.yul\":19268:19348   */\n      tag_211\n      jump\t// in\n    tag_408:\n        /* \"#utility.yul\":18927:19358   */\n      pop\n      pop\n        /* \"#utility.yul\":18912:19358   */\n    tag_404:\n        /* \"#utility.yul\":18822:19365   */\n      pop\n      pop\n      pop\n      jump\t// out\n        /* \"#utility.yul\":19371:19488   */\n    tag_213:\n        /* \"#utility.yul\":19425:19433   */\n      0x00\n        /* \"#utility.yul\":19475:19480   */\n      dup3\n        /* \"#utility.yul\":19469:19473   */\n      dup3\n        /* \"#utility.yul\":19465:19481   */\n      shr\n        /* \"#utility.yul\":19444:19481   */\n      swap1\n      pop\n        /* \"#utility.yul\":19371:19488   */\n      swap3\n      swap2\n      pop\n      pop\n      jump\t// out\n        /* \"#utility.yul\":19494:19663   */\n    tag_214:\n        /* \"#utility.yul\":19538:19544   */\n      0x00\n        /* \"#utility.yul\":19571:19622   */\n      tag_412\n        /* \"#utility.yul\":19619:19620   */\n      0x00\n        /* \"#utility.yul\":19615:19621   */\n      not\n        /* \"#utility.yul\":19607:19612   */\n      dup5\n        /* \"#utility.yul\":19604:19605   */\n      0x08\n        /* \"#utility.yul\":19600:19613   */\n      mul\n        /* \"#utility.yul\":19571:19622   */\n      tag_213\n      jump\t// in\n    tag_412:\n        /* \"#utility.yul\":19567:19623   */\n      not\n        /* \"#utility.yul\":19652:19656   */\n      dup1\n        /* \"#utility.yul\":19646:19650   */\n      dup4\n        /* \"#utility.yul\":19642:19657   */\n      and\n        /* \"#utility.yul\":19632:19657   */\n      swap2\n      pop\n        /* \"#utility.yul\":19545:19663   */\n      pop\n        /* \"#utility.yul\":19494:19663   */\n      swap3\n      swap2\n      pop\n      pop\n      jump\t// out\n        /* \"#utility.yul\":19668:19963   */\n    tag_215:\n        /* \"#utility.yul\":19744:19748   */\n      0x00\n        /* \"#utility.yul\":19890:19919   */\n      tag_414\n        /* \"#utility.yul\":19915:19918   */\n      dup4\n        /* \"#utility.yul\":19909:19913   */\n      dup4\n        /* \"#utility.yul\":19890:19919   */\n      tag_214\n      jump\t// in\n    tag_414:\n        /* \"#utility.yul\":19882:19919   */\n      swap2\n      pop\n        /* \"#utility.yul\":19952:19955   */\n      dup3\n        /* \"#utility.yul\":19949:19950   */\n      0x02\n        /* \"#utility.yul\":19945:19956   */\n      mul\n        /* \"#utility.yul\":19939:19943   */\n      dup3\n        /* \"#utility.yul\":19936:19957   */\n      or\n        /* \"#utility.yul\":19928:19957   */\n      swap1\n      pop\n        /* \"#utility.yul\":19668:19963   */\n      swap3\n      swap2\n      pop\n      pop\n      jump\t// out\n        /* \"#utility.yul\":19968:21363   */\n    tag_113:\n        /* \"#utility.yul\":20085:20122   */\n      tag_416\n        /* \"#utility.yul\":20118:20121   */\n      dup3\n        /* \"#utility.yul\":20085:20122   */\n      tag_166\n      jump\t// in\n    tag_416:\n        /* \"#utility.yul\":20187:20205   */\n      0xffffffffffffffff\n        /* \"#utility.yul\":20179:20185   */\n      dup2\n        /* \"#utility.yul\":20176:20206   */\n      gt\n        /* \"#utility.yul\":20173:20229   */\n      iszero\n      tag_417\n      jumpi\n        /* \"#utility.yul\":20209:20227   */\n      tag_418\n      tag_54\n      jump\t// in\n    tag_418:\n        /* \"#utility.yul\":20173:20229   */\n    tag_417:\n        /* \"#utility.yul\":20253:20291   */\n      tag_419\n        /* \"#utility.yul\":20285:20289   */\n      dup3\n        /* \"#utility.yul\":20279:20290   */\n      sload\n        /* \"#utility.yul\":20253:20291   */\n      tag_42\n      jump\t// in\n    tag_419:\n        /* \"#utility.yul\":20338:20405   */\n      tag_420\n        /* \"#utility.yul\":20398:20404   */\n      dup3\n        /* \"#utility.yul\":20390:20396   */\n      dup3\n        /* \"#utility.yul\":20384:20388   */\n      dup6\n        /* \"#utility.yul\":20338:20405   */\n      tag_212\n      jump\t// in\n    tag_420:\n        /* \"#utility.yul\":20432:20433   */\n      0x00\n        /* \"#utility.yul\":20456:20460   */\n      0x20\n        /* \"#utility.yul\":20443:20460   */\n      swap1\n      pop\n        /* \"#utility.yul\":20488:20490   */\n      0x1f\n        /* \"#utility.yul\":20480:20486   */\n      dup4\n        /* \"#utility.yul\":20477:20491   */\n      gt\n        /* \"#utility.yul\":20505:20506   */\n      0x01\n        /* \"#utility.yul\":20500:21118   */\n      dup2\n      eq\n      tag_422\n      jumpi\n        /* \"#utility.yul\":21162:21163   */\n      0x00\n        /* \"#utility.yul\":21179:21185   */\n      dup5\n        /* \"#utility.yul\":21176:21253   */\n      iszero\n      tag_423\n      jumpi\n        /* \"#utility.yul\":21228:21237   */\n      dup3\n        /* \"#utility.yul\":21223:21226   */\n      dup8\n        /* \"#utility.yul\":21219:21238   */\n      add\n        /* \"#utility.yul\":21213:21239   */\n      mload\n        /* \"#utility.yul\":21204:21239   */\n      swap1\n      pop\n        /* \"#utility.yul\":21176:21253   */\n    tag_423:\n        /* \"#utility.yul\":21279:21346   */\n      tag_424\n        /* \"#utility.yul\":21339:21345   */\n      dup6\n        /* \"#utility.yul\":21332:21337   */\n      dup3\n        /* \"#utility.yul\":21279:21346   */\n      tag_215\n      jump\t// in\n    tag_424:\n        /* \"#utility.yul\":21273:21277   */\n      dup7\n        /* \"#utility.yul\":21266:21347   */\n      sstore\n        /* \"#utility.yul\":21135:21357   */\n      pop\n        /* \"#utility.yul\":20470:21357   */\n      jump(tag_421)\n        /* \"#utility.yul\":20500:21118   */\n    tag_422:\n        /* \"#utility.yul\":20552:20556   */\n      0x1f\n        /* \"#utility.yul\":20548:20557   */\n      not\n        /* \"#utility.yul\":20540:20546   */\n      dup5\n        /* \"#utility.yul\":20536:20558   */\n      and\n        /* \"#utility.yul\":20586:20623   */\n      tag_425\n        /* \"#utility.yul\":20618:20622   */\n      dup7\n        /* \"#utility.yul\":20586:20623   */\n      tag_201\n      jump\t// in\n    tag_425:\n        /* \"#utility.yul\":20645:20646   */\n      0x00\n        /* \"#utility.yul\":20659:20867   */\n    tag_426:\n        /* \"#utility.yul\":20673:20680   */\n      dup3\n        /* \"#utility.yul\":20670:20671   */\n      dup2\n        /* \"#utility.yul\":20667:20681   */\n      lt\n        /* \"#utility.yul\":20659:20867   */\n      iszero\n      tag_428\n      jumpi\n        /* \"#utility.yul\":20752:20761   */\n      dup5\n        /* \"#utility.yul\":20747:20750   */\n      dup10\n        /* \"#utility.yul\":20743:20762   */\n      add\n        /* \"#utility.yul\":20737:20763   */\n      mload\n        /* \"#utility.yul\":20729:20735   */\n      dup3\n        /* \"#utility.yul\":20722:20764   */\n      sstore\n        /* \"#utility.yul\":20803:20804   */\n      0x01\n        /* \"#utility.yul\":20795:20801   */\n      dup3\n        /* \"#utility.yul\":20791:20805   */\n      add\n        /* \"#utility.yul\":20781:20805   */\n      swap2\n      pop\n        /* \"#utility.yul\":20850:20852   */\n      0x20\n        /* \"#utility.yul\":20839:20848   */\n      dup6\n        /* \"#utility.yul\":20835:20853   */\n      add\n        /* \"#utility.yul\":20822:20853   */\n      swap5\n      pop\n        /* \"#utility.yul\":20696:20700   */\n      0x20\n        /* \"#utility.yul\":20693:20694   */\n      dup2\n        /* \"#utility.yul\":20689:20701   */\n      add\n        /* \"#utility.yul\":20684:20701   */\n      swap1\n      pop\n        /* \"#utility.yul\":20659:20867   */\n      jump(tag_426)\n    tag_428:\n        /* \"#utility.yul\":20895:20901   */\n      dup7\n        /* \"#utility.yul\":20886:20893   */\n      dup4\n        /* \"#utility.yul\":20883:20902   */\n      lt\n        /* \"#utility.yul\":20880:21059   */\n      iszero\n      tag_429\n      jumpi\n        /* \"#utility.yul\":20953:20962   */\n      dup5\n        /* \"#utility.yul\":20948:20951   */\n      dup10\n        /* \"#utility.yul\":20944:20963   */\n      add\n        /* \"#utility.yul\":20938:20964   */\n      mload\n        /* \"#utility.yul\":20996:21044   */\n      tag_430\n        /* \"#utility.yul\":21038:21042   */\n      0x1f\n        /* \"#utility.yul\":21030:21036   */\n      dup10\n        /* \"#utility.yul\":21026:21043   */\n      and\n        /* \"#utility.yul\":21015:21024   */\n      dup3\n        /* \"#utility.yul\":20996:21044   */\n      tag_214\n      jump\t// in\n    tag_430:\n        /* \"#utility.yul\":20988:20994   */\n      dup4\n        /* \"#utility.yul\":20981:21045   */\n      sstore\n        /* \"#utility.yul\":20903:21059   */\n      pop\n        /* \"#utility.yul\":20880:21059   */\n    tag_429:\n        /* \"#utility.yul\":21105:21106   */\n      0x01\n        /* \"#utility.yul\":21101:21102   */\n      0x02\n        /* \"#utility.yul\":21093:21099   */\n      dup9\n        /* \"#utility.yul\":21089:21103   */\n      mul\n        /* \"#utility.yul\":21085:21107   */\n      add\n        /* \"#utility.yul\":21079:21083   */\n      dup9\n        /* \"#utility.yul\":21072:21108   */\n      sstore\n        /* \"#utility.yul\":20507:21118   */\n      pop\n      pop\n      pop\n        /* \"#utility.yul\":20470:21357   */\n    tag_421:\n      pop\n        /* \"#utility.yul\":20060:21363   */\n      pop\n      pop\n      pop\n        /* \"#utility.yul\":19968:21363   */\n      pop\n      pop\n      jump\t// out\n        /* \"#utility.yul\":21369:21550   */\n    tag_216:\n        /* \"#utility.yul\":21509:21542   */\n      0x526563656976657220616464726573732063616e6e6f74206265207a65726f00\n        /* \"#utility.yul\":21505:21506   */\n      0x00\n        /* \"#utility.yul\":21497:21503   */\n      dup3\n        /* \"#utility.yul\":21493:21507   */\n      add\n        /* \"#utility.yul\":21486:21543   */\n      mstore\n        /* \"#utility.yul\":21369:21550   */\n      pop\n      jump\t// out\n        /* \"#utility.yul\":21556:21922   */\n    tag_217:\n        /* \"#utility.yul\":21698:21701   */\n      0x00\n        /* \"#utility.yul\":21719:21786   */\n      tag_433\n        /* \"#utility.yul\":21783:21785   */\n      0x1f\n        /* \"#utility.yul\":21778:21781   */\n      dup4\n        /* \"#utility.yul\":21719:21786   */\n      tag_180\n      jump\t// in\n    tag_433:\n        /* \"#utility.yul\":21712:21786   */\n      swap2\n      pop\n        /* \"#utility.yul\":21795:21888   */\n      tag_434\n        /* \"#utility.yul\":21884:21887   */\n      dup3\n        /* \"#utility.yul\":21795:21888   */\n      tag_216\n      jump\t// in\n    tag_434:\n        /* \"#utility.yul\":21913:21915   */\n      0x20\n        /* \"#utility.yul\":21908:21911   */\n      dup3\n        /* \"#utility.yul\":21904:21916   */\n      add\n        /* \"#utility.yul\":21897:21916   */\n      swap1\n      pop\n        /* \"#utility.yul\":21556:21922   */\n      swap2\n      swap1\n      pop\n      jump\t// out\n        /* \"#utility.yul\":21928:22347   */\n    tag_120:\n        /* \"#utility.yul\":22094:22098   */\n      0x00\n        /* \"#utility.yul\":22132:22134   */\n      0x20\n        /* \"#utility.yul\":22121:22130   */\n      dup3\n        /* \"#utility.yul\":22117:22135   */\n      add\n        /* \"#utility.yul\":22109:22135   */\n      swap1\n      pop\n        /* \"#utility.yul\":22181:22190   */\n      dup2\n        /* \"#utility.yul\":22175:22179   */\n      dup2\n        /* \"#utility.yul\":22171:22191   */\n      sub\n        /* \"#utility.yul\":22167:22168   */\n      0x00\n        /* \"#utility.yul\":22156:22165   */\n      dup4\n        /* \"#utility.yul\":22152:22169   */\n      add\n        /* \"#utility.yul\":22145:22192   */\n      mstore\n        /* \"#utility.yul\":22209:22340   */\n      tag_436\n        /* \"#utility.yul\":22335:22339   */\n      dup2\n        /* \"#utility.yul\":22209:22340   */\n      tag_217\n      jump\t// in\n    tag_436:\n        /* \"#utility.yul\":22201:22340   */\n      swap1\n      pop\n        /* \"#utility.yul\":21928:22347   */\n      swap2\n      swap1\n      pop\n      jump\t// out\n        /* \"#utility.yul\":22353:22535   */\n    tag_218:\n        /* \"#utility.yul\":22493:22527   */\n      0x43616e6e6f742073656e6420616e20656d61696c20746f20796f757273656c66\n        /* \"#utility.yul\":22489:22490   */\n      0x00\n        /* \"#utility.yul\":22481:22487   */\n      dup3\n        /* \"#utility.yul\":22477:22491   */\n      add\n        /* \"#utility.yul\":22470:22528   */\n      mstore\n        /* \"#utility.yul\":22353:22535   */\n      pop\n      jump\t// out\n        /* \"#utility.yul\":22541:22907   */\n    tag_219:\n        /* \"#utility.yul\":22683:22686   */\n      0x00\n        /* \"#utility.yul\":22704:22771   */\n      tag_439\n        /* \"#utility.yul\":22768:22770   */\n      0x20\n        /* \"#utility.yul\":22763:22766   */\n      dup4\n        /* \"#utility.yul\":22704:22771   */\n      tag_180\n      jump\t// in\n    tag_439:\n        /* \"#utility.yul\":22697:22771   */\n      swap2\n      pop\n        /* \"#utility.yul\":22780:22873   */\n      tag_440\n        /* \"#utility.yul\":22869:22872   */\n      dup3\n        /* \"#utility.yul\":22780:22873   */\n      tag_218\n      jump\t// in\n    tag_440:\n        /* \"#utility.yul\":22898:22900   */\n      0x20\n        /* \"#utility.yul\":22893:22896   */\n      dup3\n        /* \"#utility.yul\":22889:22901   */\n      add\n        /* \"#utility.yul\":22882:22901   */\n      swap1\n      pop\n        /* \"#utility.yul\":22541:22907   */\n      swap2\n      swap1\n      pop\n      jump\t// out\n        /* \"#utility.yul\":22913:23332   */\n    tag_123:\n        /* \"#utility.yul\":23079:23083   */\n      0x00\n        /* \"#utility.yul\":23117:23119   */\n      0x20\n        /* \"#utility.yul\":23106:23115   */\n      dup3\n        /* \"#utility.yul\":23102:23120   */\n      add\n        /* \"#utility.yul\":23094:23120   */\n      swap1\n      pop\n        /* \"#utility.yul\":23166:23175   */\n      dup2\n        /* \"#utility.yul\":23160:23164   */\n      dup2\n        /* \"#utility.yul\":23156:23176   */\n      sub\n        /* \"#utility.yul\":23152:23153   */\n      0x00\n        /* \"#utility.yul\":23141:23150   */\n      dup4\n        /* \"#utility.yul\":23137:23154   */\n      add\n        /* \"#utility.yul\":23130:23177   */\n      mstore\n        /* \"#utility.yul\":23194:23325   */\n      tag_442\n        /* \"#utility.yul\":23320:23324   */\n      dup2\n        /* \"#utility.yul\":23194:23325   */\n      tag_219\n      jump\t// in\n    tag_442:\n        /* \"#utility.yul\":23186:23325   */\n      swap1\n      pop\n        /* \"#utility.yul\":22913:23332   */\n      swap2\n      swap1\n      pop\n      jump\t// out\n        /* \"#utility.yul\":23338:23761   */\n    tag_131:\n        /* \"#utility.yul\":23479:23483   */\n      0x00\n        /* \"#utility.yul\":23517:23519   */\n      0x40\n        /* \"#utility.yul\":23506:23515   */\n      dup3\n        /* \"#utility.yul\":23502:23520   */\n      add\n        /* \"#utility.yul\":23494:23520   */\n      swap1\n      pop\n        /* \"#utility.yul\":23566:23575   */\n      dup2\n        /* \"#utility.yul\":23560:23564   */\n      dup2\n        /* \"#utility.yul\":23556:23576   */\n      sub\n        /* \"#utility.yul\":23552:23553   */\n      0x00\n        /* \"#utility.yul\":23541:23550   */\n      dup4\n        /* \"#utility.yul\":23537:23554   */\n      add\n        /* \"#utility.yul\":23530:23577   */\n      mstore\n        /* \"#utility.yul\":23594:23672   */\n      tag_444\n        /* \"#utility.yul\":23667:23671   */\n      dup2\n        /* \"#utility.yul\":23658:23664   */\n      dup6\n        /* \"#utility.yul\":23594:23672   */\n      tag_181\n      jump\t// in\n    tag_444:\n        /* \"#utility.yul\":23586:23672   */\n      swap1\n      pop\n        /* \"#utility.yul\":23682:23754   */\n      tag_445\n        /* \"#utility.yul\":23750:23752   */\n      0x20\n        /* \"#utility.yul\":23739:23748   */\n      dup4\n        /* \"#utility.yul\":23735:23753   */\n      add\n        /* \"#utility.yul\":23726:23732   */\n      dup5\n        /* \"#utility.yul\":23682:23754   */\n      tag_182\n      jump\t// in\n    tag_445:\n        /* \"#utility.yul\":23338:23761   */\n      swap4\n      swap3\n      pop\n      pop\n      pop\n      jump\t// out\n        /* \"#utility.yul\":23767:23947   */\n    tag_220:\n        /* \"#utility.yul\":23815:23892   */\n      0x4e487b7100000000000000000000000000000000000000000000000000000000\n        /* \"#utility.yul\":23812:23813   */\n      0x00\n        /* \"#utility.yul\":23805:23893   */\n      mstore\n        /* \"#utility.yul\":23912:23916   */\n      0x12\n        /* \"#utility.yul\":23909:23910   */\n      0x04\n        /* \"#utility.yul\":23902:23917   */\n      mstore\n        /* \"#utility.yul\":23936:23940   */\n      0x24\n        /* \"#utility.yul\":23933:23934   */\n      0x00\n        /* \"#utility.yul\":23926:23941   */\n      revert\n        /* \"#utility.yul\":23953:24138   */\n    tag_138:\n        /* \"#utility.yul\":23993:23994   */\n      0x00\n        /* \"#utility.yul\":24010:24030   */\n      tag_448\n        /* \"#utility.yul\":24028:24029   */\n      dup3\n        /* \"#utility.yul\":24010:24030   */\n      tag_171\n      jump\t// in\n    tag_448:\n        /* \"#utility.yul\":24005:24030   */\n      swap2\n      pop\n        /* \"#utility.yul\":24044:24064   */\n      tag_449\n        /* \"#utility.yul\":24062:24063   */\n      dup4\n        /* \"#utility.yul\":24044:24064   */\n      tag_171\n      jump\t// in\n    tag_449:\n        /* \"#utility.yul\":24039:24064   */\n      swap3\n      pop\n        /* \"#utility.yul\":24083:24084   */\n      dup3\n        /* \"#utility.yul\":24073:24108   */\n      tag_450\n      jumpi\n        /* \"#utility.yul\":24088:24106   */\n      tag_451\n      tag_220\n      jump\t// in\n    tag_451:\n        /* \"#utility.yul\":24073:24108   */\n    tag_450:\n        /* \"#utility.yul\":24130:24131   */\n      dup3\n        /* \"#utility.yul\":24127:24128   */\n      dup3\n        /* \"#utility.yul\":24123:24132   */\n      div\n        /* \"#utility.yul\":24118:24132   */\n      swap1\n      pop\n        /* \"#utility.yul\":23953:24138   */\n      swap3\n      swap2\n      pop\n      pop\n      jump\t// out\n        /* \"#utility.yul\":24144:24338   */\n    tag_145:\n        /* \"#utility.yul\":24184:24188   */\n      0x00\n        /* \"#utility.yul\":24204:24224   */\n      tag_453\n        /* \"#utility.yul\":24222:24223   */\n      dup3\n        /* \"#utility.yul\":24204:24224   */\n      tag_171\n      jump\t// in\n    tag_453:\n        /* \"#utility.yul\":24199:24224   */\n      swap2\n      pop\n        /* \"#utility.yul\":24238:24258   */\n      tag_454\n        /* \"#utility.yul\":24256:24257   */\n      dup4\n        /* \"#utility.yul\":24238:24258   */\n      tag_171\n      jump\t// in\n    tag_454:\n        /* \"#utility.yul\":24233:24258   */\n      swap3\n      pop\n        /* \"#utility.yul\":24282:24283   */\n      dup3\n        /* \"#utility.yul\":24279:24280   */\n      dup3\n        /* \"#utility.yul\":24275:24284   */\n      sub\n        /* \"#utility.yul\":24267:24284   */\n      swap1\n      pop\n        /* \"#utility.yul\":24306:24307   */\n      dup2\n        /* \"#utility.yul\":24300:24304   */\n      dup2\n        /* \"#utility.yul\":24297:24308   */\n      gt\n        /* \"#utility.yul\":24294:24331   */\n      iszero\n      tag_455\n      jumpi\n        /* \"#utility.yul\":24311:24329   */\n      tag_456\n      tag_192\n      jump\t// in\n    tag_456:\n        /* \"#utility.yul\":24294:24331   */\n    tag_455:\n        /* \"#utility.yul\":24144:24338   */\n      swap3\n      swap2\n      pop\n      pop\n      jump\t// out\n        /* \"#utility.yul\":24344:24754   */\n    tag_148:\n        /* \"#utility.yul\":24384:24391   */\n      0x00\n        /* \"#utility.yul\":24407:24427   */\n      tag_458\n        /* \"#utility.yul\":24425:24426   */\n      dup3\n        /* \"#utility.yul\":24407:24427   */\n      tag_171\n      jump\t// in\n    tag_458:\n        /* \"#utility.yul\":24402:24427   */\n      swap2\n      pop\n        /* \"#utility.yul\":24441:24461   */\n      tag_459\n        /* \"#utility.yul\":24459:24460   */\n      dup4\n        /* \"#utility.yul\":24441:24461   */\n      tag_171\n      jump\t// in\n    tag_459:\n        /* \"#utility.yul\":24436:24461   */\n      swap3\n      pop\n        /* \"#utility.yul\":24496:24497   */\n      dup3\n        /* \"#utility.yul\":24493:24494   */\n      dup3\n        /* \"#utility.yul\":24489:24498   */\n      mul\n        /* \"#utility.yul\":24518:24548   */\n      tag_460\n        /* \"#utility.yul\":24536:24547   */\n      dup2\n        /* \"#utility.yul\":24518:24548   */\n      tag_171\n      jump\t// in\n    tag_460:\n        /* \"#utility.yul\":24507:24548   */\n      swap2\n      pop\n        /* \"#utility.yul\":24697:24698   */\n      dup3\n        /* \"#utility.yul\":24688:24695   */\n      dup3\n        /* \"#utility.yul\":24684:24699   */\n      div\n        /* \"#utility.yul\":24681:24682   */\n      dup5\n        /* \"#utility.yul\":24678:24700   */\n      eq\n        /* \"#utility.yul\":24658:24659   */\n      dup4\n        /* \"#utility.yul\":24651:24660   */\n      iszero\n        /* \"#utility.yul\":24631:24714   */\n      or\n        /* \"#utility.yul\":24608:24747   */\n      tag_461\n      jumpi\n        /* \"#utility.yul\":24727:24745   */\n      tag_462\n      tag_192\n      jump\t// in\n    tag_462:\n        /* \"#utility.yul\":24608:24747   */\n    tag_461:\n        /* \"#utility.yul\":24392:24754   */\n      pop\n        /* \"#utility.yul\":24344:24754   */\n      swap3\n      swap2\n      pop\n      pop\n      jump\t// out\n        /* \"#utility.yul\":24760:24846   */\n    tag_221:\n        /* \"#utility.yul\":24795:24802   */\n      0x00\n        /* \"#utility.yul\":24835:24839   */\n      0xff\n        /* \"#utility.yul\":24828:24833   */\n      dup3\n        /* \"#utility.yul\":24824:24840   */\n      and\n        /* \"#utility.yul\":24813:24840   */\n      swap1\n      pop\n        /* \"#utility.yul\":24760:24846   */\n      swap2\n      swap1\n      pop\n      jump\t// out\n        /* \"#utility.yul\":24852:25040   */\n    tag_151:\n        /* \"#utility.yul\":24890:24893   */\n      0x00\n        /* \"#utility.yul\":24909:24927   */\n      tag_465\n        /* \"#utility.yul\":24925:24926   */\n      dup3\n        /* \"#utility.yul\":24909:24927   */\n      tag_221\n      jump\t// in\n    tag_465:\n        /* \"#utility.yul\":24904:24927   */\n      swap2\n      pop\n        /* \"#utility.yul\":24941:24959   */\n      tag_466\n        /* \"#utility.yul\":24957:24958   */\n      dup4\n        /* \"#utility.yul\":24941:24959   */\n      tag_221\n      jump\t// in\n    tag_466:\n        /* \"#utility.yul\":24936:24959   */\n      swap3\n      pop\n        /* \"#utility.yul\":24982:24983   */\n      dup3\n        /* \"#utility.yul\":24979:24980   */\n      dup3\n        /* \"#utility.yul\":24975:24984   */\n      add\n        /* \"#utility.yul\":24968:24984   */\n      swap1\n      pop\n        /* \"#utility.yul\":25005:25009   */\n      0xff\n        /* \"#utility.yul\":25000:25003   */\n      dup2\n        /* \"#utility.yul\":24997:25010   */\n      gt\n        /* \"#utility.yul\":24994:25033   */\n      iszero\n      tag_467\n      jumpi\n        /* \"#utility.yul\":25013:25031   */\n      tag_468\n      tag_192\n      jump\t// in\n    tag_468:\n        /* \"#utility.yul\":24994:25033   */\n    tag_467:\n        /* \"#utility.yul\":24852:25040   */\n      swap3\n      swap2\n      pop\n      pop\n      jump\t// out\n\n    auxdata: 0xa2646970667358221220babc5b4e3862bfad13f75da1aaf4cce13893974c0780ec772dfd3e5c82e7d9e464736f6c63430008120033\n}\n",
				"bytecode": {
					"linkReferences": {},
					"object": "608060405234801561001057600080fd5b50611e54806100206000396000f3fe608060405234801561001057600080fd5b50600436106100625760003560e01c80630da7ea40146100675780633bcb2e66146100975780634d622e7a146100cb5780635384ea9a146100ff5780638a8875411461011b5780638bb898791461014c575b600080fd5b610081600480360381019061007c919061116c565b610168565b60405161008e9190611390565b60405180910390f35b6100b160048036038101906100ac91906113de565b610502565b6040516100c2959493929190611486565b60405180910390f35b6100e560048036038101906100e091906113de565b6106a5565b6040516100f6959493929190611486565b60405180910390f35b610119600480360381019061011491906113de565b610848565b005b6101356004803603810190610130919061116c565b610a88565b6040516101439291906114e7565b60405180910390f35b61016660048036038101906101619190611645565b610b19565b005b606060008060008473ffffffffffffffffffffffffffffffffffffffff1673ffffffffffffffffffffffffffffffffffffffff168152602001908152602001600020805480602002602001604051908101604052809291908181526020016000905b828210156103d657838290600052602060002090600502016040518060a00160405290816000820160009054906101000a900473ffffffffffffffffffffffffffffffffffffffff1673ffffffffffffffffffffffffffffffffffffffff1673ffffffffffffffffffffffffffffffffffffffff1681526020016001820160009054906101000a900473ffffffffffffffffffffffffffffffffffffffff1673ffffffffffffffffffffffffffffffffffffffff1673ffffffffffffffffffffffffffffffffffffffff1681526020016002820180546102a9906116ff565b80601f01602080910402602001604051908101604052809291908181526020018280546102d5906116ff565b80156103225780601f106102f757610100808354040283529160200191610322565b820191906000526020600020905b81548152906001019060200180831161030557829003601f168201915b5050505050815260200160038201805461033b906116ff565b80601f0160208091040260200160405190810160405280929190818152602001828054610367906116ff565b80156103b45780601f10610389576101008083540402835291602001916103b4565b820191906000526020600020905b81548152906001019060200180831161039757829003601f168201915b50505050508152602001600482015481525050815260200190600101906101ca565b50505050905060008151905060008167ffffffffffffffff8111156103fe576103fd61151a565b5b60405190808252806020026020018201604052801561043757816020015b61042461109f565b81526020019060019003908161041c5790505b5090506000805b838110156104f2578673ffffffffffffffffffffffffffffffffffffffff168582815181106104705761046f611730565b5b60200260200101516000015173ffffffffffffffffffffffffffffffffffffffff16036104df578481815181106104aa576104a9611730565b5b60200260200101518383815181106104c5576104c4611730565b5b602002602001018190525081806104db9061178e565b9250505b80806104ea9061178e565b91505061043e565b5080825281945050505050919050565b6001602052816000526040600020818154811061051e57600080fd5b9060005260206000209060050201600091509150508060000160009054906101000a900473ffffffffffffffffffffffffffffffffffffffff16908060010160009054906101000a900473ffffffffffffffffffffffffffffffffffffffff169080600201805461058e906116ff565b80601f01602080910402602001604051908101604052809291908181526020018280546105ba906116ff565b80156106075780601f106105dc57610100808354040283529160200191610607565b820191906000526020600020905b8154815290600101906020018083116105ea57829003601f168201915b50505050509080600301805461061c906116ff565b80601f0160208091040260200160405190810160405280929190818152602001828054610648906116ff565b80156106955780601f1061066a57610100808354040283529160200191610695565b820191906000526020600020905b81548152906001019060200180831161067857829003601f168201915b5050505050908060040154905085565b600060205281600052604060002081815481106106c157600080fd5b9060005260206000209060050201600091509150508060000160009054906101000a900473ffffffffffffffffffffffffffffffffffffffff16908060010160009054906101000a900473ffffffffffffffffffffffffffffffffffffffff1690806002018054610731906116ff565b80601f016020809104026020016040519081016040528092919081815260200182805461075d906116ff565b80156107aa5780601f1061077f576101008083540402835291602001916107aa565b820191906000526020600020905b81548152906001019060200180831161078d57829003601f168201915b5050505050908060030180546107bf906116ff565b80601f01602080910402602001604051908101604052809291908181526020018280546107eb906116ff565b80156108385780601f1061080d57610100808354040283529160200191610838565b820191906000526020600020905b81548152906001019060200180831161081b57829003601f168201915b5050505050908060040154905085565b6000811161088b576040517f08c379a000000000000000000000000000000000000000000000000000000000815260040161088290611848565b60405180910390fd5b60005b81811015610a835760006108a182610f17565b6040516020016108b191906118f0565b604051602081830303815290604052905060006108cd83610f17565b6040516020016108dd919061195e565b60405160208183030381529060405290506000808673ffffffffffffffffffffffffffffffffffffffff1673ffffffffffffffffffffffffffffffffffffffff1681526020019081526020016000206040518060a001604052803373ffffffffffffffffffffffffffffffffffffffff1681526020018773ffffffffffffffffffffffffffffffffffffffff16815260200184815260200183815260200142815250908060018154018082558091505060019003906000526020600020906005020160009091909190915060008201518160000160006101000a81548173ffffffffffffffffffffffffffffffffffffffff021916908373ffffffffffffffffffffffffffffffffffffffff16021790555060208201518160010160006101000a81548173ffffffffffffffffffffffffffffffffffffffff021916908373ffffffffffffffffffffffffffffffffffffffff1602179055506040820151816002019081610a4b9190611b2c565b506060820151816003019081610a619190611b2c565b5060808201518160040155505050508080610a7b9061178e565b91505061088e565b505050565b6000806000808473ffffffffffffffffffffffffffffffffffffffff1673ffffffffffffffffffffffffffffffffffffffff168152602001908152602001600020805490509150600160008473ffffffffffffffffffffffffffffffffffffffff1673ffffffffffffffffffffffffffffffffffffffff168152602001908152602001600020805490509050915091565b600073ffffffffffffffffffffffffffffffffffffffff168373ffffffffffffffffffffffffffffffffffffffff1603610b88576040517f08c379a0000000000000000000000000000000000000000000000000000000008152600401610b7f90611c4a565b60405180910390fd5b8273ffffffffffffffffffffffffffffffffffffffff163373ffffffffffffffffffffffffffffffffffffffff1603610bf6576040517f08c379a0000000000000000000000000000000000000000000000000000000008152600401610bed90611cb6565b60405180910390fd5b60006040518060a001604052803373ffffffffffffffffffffffffffffffffffffffff1681526020018573ffffffffffffffffffffffffffffffffffffffff1681526020018481526020018381526020014281525090506000808573ffffffffffffffffffffffffffffffffffffffff1673ffffffffffffffffffffffffffffffffffffffff16815260200190815260200160002081908060018154018082558091505060019003906000526020600020906005020160009091909190915060008201518160000160006101000a81548173ffffffffffffffffffffffffffffffffffffffff021916908373ffffffffffffffffffffffffffffffffffffffff16021790555060208201518160010160006101000a81548173ffffffffffffffffffffffffffffffffffffffff021916908373ffffffffffffffffffffffffffffffffffffffff1602179055506040820151816002019081610d589190611b2c565b506060820151816003019081610d6e9190611b2c565b50608082015181600401555050600160003373ffffffffffffffffffffffffffffffffffffffff1673ffffffffffffffffffffffffffffffffffffffff16815260200190815260200160002081908060018154018082558091505060019003906000526020600020906005020160009091909190915060008201518160000160006101000a81548173ffffffffffffffffffffffffffffffffffffffff021916908373ffffffffffffffffffffffffffffffffffffffff16021790555060208201518160010160006101000a81548173ffffffffffffffffffffffffffffffffffffffff021916908373ffffffffffffffffffffffffffffffffffffffff1602179055506040820151816002019081610e879190611b2c565b506060820151816003019081610e9d9190611b2c565b506080820151816004015550508373ffffffffffffffffffffffffffffffffffffffff163373ffffffffffffffffffffffffffffffffffffffff167f2ecdf33a271447607b6aca3173f5f892e91720d5106f80c513aa4710a2bb4e338542604051610f09929190611cd6565b60405180910390a350505050565b606060008203610f5e576040518060400160405280600181526020017f3000000000000000000000000000000000000000000000000000000000000000815250905061109a565b600082905060005b60008214610f90578080610f799061178e565b915050600a82610f899190611d35565b9150610f66565b60008167ffffffffffffffff811115610fac57610fab61151a565b5b6040519080825280601f01601f191660200182016040528015610fde5781602001600182028036833780820191505090505b50905060008290505b6000861461109257600181610ffc9190611d66565b90506000600a808861100e9190611d35565b6110189190611d9a565b876110239190611d66565b603061102f9190611de9565b905060008160f81b90508084848151811061104d5761104c611730565b5b60200101907effffffffffffffffffffffffffffffffffffffffffffffffffffffffffffff1916908160001a905350600a886110899190611d35565b97505050610fe7565b819450505050505b919050565b6040518060a00160405280600073ffffffffffffffffffffffffffffffffffffffff168152602001600073ffffffffffffffffffffffffffffffffffffffff1681526020016060815260200160608152602001600081525090565b6000604051905090565b600080fd5b600080fd5b600073ffffffffffffffffffffffffffffffffffffffff82169050919050565b60006111398261110e565b9050919050565b6111498161112e565b811461115457600080fd5b50565b60008135905061116681611140565b92915050565b60006020828403121561118257611181611104565b5b600061119084828501611157565b91505092915050565b600081519050919050565b600082825260208201905092915050565b6000819050602082019050919050565b6111ce8161112e565b82525050565b600081519050919050565b600082825260208201905092915050565b60005b8381101561120e5780820151818401526020810190506111f3565b60008484015250505050565b6000601f19601f8301169050919050565b6000611236826111d4565b61124081856111df565b93506112508185602086016111f0565b6112598161121a565b840191505092915050565b6000819050919050565b61127781611264565b82525050565b600060a08301600083015161129560008601826111c5565b5060208301516112a860208601826111c5565b50604083015184820360408601526112c0828261122b565b915050606083015184820360608601526112da828261122b565b91505060808301516112ef608086018261126e565b508091505092915050565b6000611306838361127d565b905092915050565b6000602082019050919050565b600061132682611199565b61133081856111a4565b935083602082028501611342856111b5565b8060005b8581101561137e578484038952815161135f85826112fa565b945061136a8361130e565b925060208a01995050600181019050611346565b50829750879550505050505092915050565b600060208201905081810360008301526113aa818461131b565b905092915050565b6113bb81611264565b81146113c657600080fd5b50565b6000813590506113d8816113b2565b92915050565b600080604083850312156113f5576113f4611104565b5b600061140385828601611157565b9250506020611414858286016113c9565b9150509250929050565b6114278161112e565b82525050565b600082825260208201905092915050565b6000611449826111d4565b611453818561142d565b93506114638185602086016111f0565b61146c8161121a565b840191505092915050565b61148081611264565b82525050565b600060a08201905061149b600083018861141e565b6114a8602083018761141e565b81810360408301526114ba818661143e565b905081810360608301526114ce818561143e565b90506114dd6080830184611477565b9695505050505050565b60006040820190506114fc6000830185611477565b6115096020830184611477565b9392505050565b600080fd5b600080fd5b7f4e487b7100000000000000000000000000000000000000000000000000000000600052604160045260246000fd5b6115528261121a565b810181811067ffffffffffffffff821117156115715761157061151a565b5b80604052505050565b60006115846110fa565b90506115908282611549565b919050565b600067ffffffffffffffff8211156115b0576115af61151a565b5b6115b98261121a565b9050602081019050919050565b82818337600083830152505050565b60006115e86115e384611595565b61157a565b90508281526020810184848401111561160457611603611515565b5b61160f8482856115c6565b509392505050565b600082601f83011261162c5761162b611510565b5b813561163c8482602086016115d5565b91505092915050565b60008060006060848603121561165e5761165d611104565b5b600061166c86828701611157565b935050602084013567ffffffffffffffff81111561168d5761168c611109565b5b61169986828701611617565b925050604084013567ffffffffffffffff8111156116ba576116b9611109565b5b6116c686828701611617565b9150509250925092565b7f4e487b7100000000000000000000000000000000000000000000000000000000600052602260045260246000fd5b6000600282049050600182168061171757607f821691505b60208210810361172a576117296116d0565b5b50919050565b7f4e487b7100000000000000000000000000000000000000000000000000000000600052603260045260246000fd5b7f4e487b7100000000000000000000000000000000000000000000000000000000600052601160045260246000fd5b600061179982611264565b91507fffffffffffffffffffffffffffffffffffffffffffffffffffffffffffffffff82036117cb576117ca61175f565b5b600182019050919050565b7f4e756d626572206f6620656d61696c73206d757374206265206772656174657260008201527f207468616e203000000000000000000000000000000000000000000000000000602082015250565b600061183260278361142d565b915061183d826117d6565b604082019050919050565b6000602082019050818103600083015261186181611825565b9050919050565b600081905092915050565b7f4d6f636b20456d61696c20230000000000000000000000000000000000000000600082015250565b60006118a9600c83611868565b91506118b482611873565b600c82019050919050565b60006118ca826111d4565b6118d48185611868565b93506118e48185602086016111f0565b80840191505092915050565b60006118fb8261189c565b915061190782846118bf565b915081905092915050565b7f546869732069732061206d6f636b20656d61696c202300000000000000000000600082015250565b6000611948601683611868565b915061195382611912565b601682019050919050565b60006119698261193b565b915061197582846118bf565b915081905092915050565b60008190508160005260206000209050919050565b60006020601f8301049050919050565b600082821b905092915050565b6000600883026119e27fffffffffffffffffffffffffffffffffffffffffffffffffffffffffffffffff826119a5565b6119ec86836119a5565b95508019841693508086168417925050509392505050565b6000819050919050565b6000611a29611a24611a1f84611264565b611a04565b611264565b9050919050565b6000819050919050565b611a4383611a0e565b611a57611a4f82611a30565b8484546119b2565b825550505050565b600090565b611a6c611a5f565b611a77818484611a3a565b505050565b5b81811015611a9b57611a90600082611a64565b600181019050611a7d565b5050565b601f821115611ae057611ab181611980565b611aba84611995565b81016020851015611ac9578190505b611add611ad585611995565b830182611a7c565b50505b505050565b600082821c905092915050565b6000611b0360001984600802611ae5565b1980831691505092915050565b6000611b1c8383611af2565b9150826002028217905092915050565b611b35826111d4565b67ffffffffffffffff811115611b4e57611b4d61151a565b5b611b5882546116ff565b611b63828285611a9f565b600060209050601f831160018114611b965760008415611b84578287015190505b611b8e8582611b10565b865550611bf6565b601f198416611ba486611980565b60005b82811015611bcc57848901518255600182019150602085019450602081019050611ba7565b86831015611be95784890151611be5601f891682611af2565b8355505b6001600288020188555050505b505050505050565b7f526563656976657220616464726573732063616e6e6f74206265207a65726f00600082015250565b6000611c34601f8361142d565b9150611c3f82611bfe565b602082019050919050565b60006020820190508181036000830152611c6381611c27565b9050919050565b7f43616e6e6f742073656e6420616e20656d61696c20746f20796f757273656c66600082015250565b6000611ca060208361142d565b9150611cab82611c6a565b602082019050919050565b60006020820190508181036000830152611ccf81611c93565b9050919050565b60006040820190508181036000830152611cf0818561143e565b9050611cff6020830184611477565b9392505050565b7f4e487b7100000000000000000000000000000000000000000000000000000000600052601260045260246000fd5b6000611d4082611264565b9150611d4b83611264565b925082611d5b57611d5a611d06565b5b828204905092915050565b6000611d7182611264565b9150611d7c83611264565b9250828203905081811115611d9457611d9361175f565b5b92915050565b6000611da582611264565b9150611db083611264565b9250828202611dbe81611264565b91508282048414831517611dd557611dd461175f565b5b5092915050565b600060ff82169050919050565b6000611df482611ddc565b9150611dff83611ddc565b9250828201905060ff811115611e1857611e1761175f565b5b9291505056fea2646970667358221220babc5b4e3862bfad13f75da1aaf4cce13893974c0780ec772dfd3e5c82e7d9e464736f6c63430008120033",
					"opcodes": "PUSH1 0x80 PUSH1 0x40 MSTORE CALLVALUE DUP1 ISZERO PUSH2 0x10 JUMPI PUSH1 0x0 DUP1 REVERT JUMPDEST POP PUSH2 0x1E54 DUP1 PUSH2 0x20 PUSH1 0x0 CODECOPY PUSH1 0x0 RETURN INVALID PUSH1 0x80 PUSH1 0x40 MSTORE CALLVALUE DUP1 ISZERO PUSH2 0x10 JUMPI PUSH1 0x0 DUP1 REVERT JUMPDEST POP PUSH1 0x4 CALLDATASIZE LT PUSH2 0x62 JUMPI PUSH1 0x0 CALLDATALOAD PUSH1 0xE0 SHR DUP1 PUSH4 0xDA7EA40 EQ PUSH2 0x67 JUMPI DUP1 PUSH4 0x3BCB2E66 EQ PUSH2 0x97 JUMPI DUP1 PUSH4 0x4D622E7A EQ PUSH2 0xCB JUMPI DUP1 PUSH4 0x5384EA9A EQ PUSH2 0xFF JUMPI DUP1 PUSH4 0x8A887541 EQ PUSH2 0x11B JUMPI DUP1 PUSH4 0x8BB89879 EQ PUSH2 0x14C JUMPI JUMPDEST PUSH1 0x0 DUP1 REVERT JUMPDEST PUSH2 0x81 PUSH1 0x4 DUP1 CALLDATASIZE SUB DUP2 ADD SWAP1 PUSH2 0x7C SWAP2 SWAP1 PUSH2 0x116C JUMP JUMPDEST PUSH2 0x168 JUMP JUMPDEST PUSH1 0x40 MLOAD PUSH2 0x8E SWAP2 SWAP1 PUSH2 0x1390 JUMP JUMPDEST PUSH1 0x40 MLOAD DUP1 SWAP2 SUB SWAP1 RETURN JUMPDEST PUSH2 0xB1 PUSH1 0x4 DUP1 CALLDATASIZE SUB DUP2 ADD SWAP1 PUSH2 0xAC SWAP2 SWAP1 PUSH2 0x13DE JUMP JUMPDEST PUSH2 0x502 JUMP JUMPDEST PUSH1 0x40 MLOAD PUSH2 0xC2 SWAP6 SWAP5 SWAP4 SWAP3 SWAP2 SWAP1 PUSH2 0x1486 JUMP JUMPDEST PUSH1 0x40 MLOAD DUP1 SWAP2 SUB SWAP1 RETURN JUMPDEST PUSH2 0xE5 PUSH1 0x4 DUP1 CALLDATASIZE SUB DUP2 ADD SWAP1 PUSH2 0xE0 SWAP2 SWAP1 PUSH2 0x13DE JUMP JUMPDEST PUSH2 0x6A5 JUMP JUMPDEST PUSH1 0x40 MLOAD PUSH2 0xF6 SWAP6 SWAP5 SWAP4 SWAP3 SWAP2 SWAP1 PUSH2 0x1486 JUMP JUMPDEST PUSH1 0x40 MLOAD DUP1 SWAP2 SUB SWAP1 RETURN JUMPDEST PUSH2 0x119 PUSH1 0x4 DUP1 CALLDATASIZE SUB DUP2 ADD SWAP1 PUSH2 0x114 SWAP2 SWAP1 PUSH2 0x13DE JUMP JUMPDEST PUSH2 0x848 JUMP JUMPDEST STOP JUMPDEST PUSH2 0x135 PUSH1 0x4 DUP1 CALLDATASIZE SUB DUP2 ADD SWAP1 PUSH2 0x130 SWAP2 SWAP1 PUSH2 0x116C JUMP JUMPDEST PUSH2 0xA88 JUMP JUMPDEST PUSH1 0x40 MLOAD PUSH2 0x143 SWAP3 SWAP2 SWAP1 PUSH2 0x14E7 JUMP JUMPDEST PUSH1 0x40 MLOAD DUP1 SWAP2 SUB SWAP1 RETURN JUMPDEST PUSH2 0x166 PUSH1 0x4 DUP1 CALLDATASIZE SUB DUP2 ADD SWAP1 PUSH2 0x161 SWAP2 SWAP1 PUSH2 0x1645 JUMP JUMPDEST PUSH2 0xB19 JUMP JUMPDEST STOP JUMPDEST PUSH1 0x60 PUSH1 0x0 DUP1 PUSH1 0x0 DUP5 PUSH20 0xFFFFFFFFFFFFFFFFFFFFFFFFFFFFFFFFFFFFFFFF AND PUSH20 0xFFFFFFFFFFFFFFFFFFFFFFFFFFFFFFFFFFFFFFFF AND DUP2 MSTORE PUSH1 0x20 ADD SWAP1 DUP2 MSTORE PUSH1 0x20 ADD PUSH1 0x0 KECCAK256 DUP1 SLOAD DUP1 PUSH1 0x20 MUL PUSH1 0x20 ADD PUSH1 0x40 MLOAD SWAP1 DUP2 ADD PUSH1 0x40 MSTORE DUP1 SWAP3 SWAP2 SWAP1 DUP2 DUP2 MSTORE PUSH1 0x20 ADD PUSH1 0x0 SWAP1 JUMPDEST DUP3 DUP3 LT ISZERO PUSH2 0x3D6 JUMPI DUP4 DUP3 SWAP1 PUSH1 0x0 MSTORE PUSH1 0x20 PUSH1 0x0 KECCAK256 SWAP1 PUSH1 0x5 MUL ADD PUSH1 0x40 MLOAD DUP1 PUSH1 0xA0 ADD PUSH1 0x40 MSTORE SWAP1 DUP2 PUSH1 0x0 DUP3 ADD PUSH1 0x0 SWAP1 SLOAD SWAP1 PUSH2 0x100 EXP SWAP1 DIV PUSH20 0xFFFFFFFFFFFFFFFFFFFFFFFFFFFFFFFFFFFFFFFF AND PUSH20 0xFFFFFFFFFFFFFFFFFFFFFFFFFFFFFFFFFFFFFFFF AND PUSH20 0xFFFFFFFFFFFFFFFFFFFFFFFFFFFFFFFFFFFFFFFF AND DUP2 MSTORE PUSH1 0x20 ADD PUSH1 0x1 DUP3 ADD PUSH1 0x0 SWAP1 SLOAD SWAP1 PUSH2 0x100 EXP SWAP1 DIV PUSH20 0xFFFFFFFFFFFFFFFFFFFFFFFFFFFFFFFFFFFFFFFF AND PUSH20 0xFFFFFFFFFFFFFFFFFFFFFFFFFFFFFFFFFFFFFFFF AND PUSH20 0xFFFFFFFFFFFFFFFFFFFFFFFFFFFFFFFFFFFFFFFF AND DUP2 MSTORE PUSH1 0x20 ADD PUSH1 0x2 DUP3 ADD DUP1 SLOAD PUSH2 0x2A9 SWAP1 PUSH2 0x16FF JUMP JUMPDEST DUP1 PUSH1 0x1F ADD PUSH1 0x20 DUP1 SWAP2 DIV MUL PUSH1 0x20 ADD PUSH1 0x40 MLOAD SWAP1 DUP2 ADD PUSH1 0x40 MSTORE DUP1 SWAP3 SWAP2 SWAP1 DUP2 DUP2 MSTORE PUSH1 0x20 ADD DUP3 DUP1 SLOAD PUSH2 0x2D5 SWAP1 PUSH2 0x16FF JUMP JUMPDEST DUP1 ISZERO PUSH2 0x322 JUMPI DUP1 PUSH1 0x1F LT PUSH2 0x2F7 JUMPI PUSH2 0x100 DUP1 DUP4 SLOAD DIV MUL DUP4 MSTORE SWAP2 PUSH1 0x20 ADD SWAP2 PUSH2 0x322 JUMP JUMPDEST DUP3 ADD SWAP2 SWAP1 PUSH1 0x0 MSTORE PUSH1 0x20 PUSH1 0x0 KECCAK256 SWAP1 JUMPDEST DUP2 SLOAD DUP2 MSTORE SWAP1 PUSH1 0x1 ADD SWAP1 PUSH1 0x20 ADD DUP1 DUP4 GT PUSH2 0x305 JUMPI DUP3 SWAP1 SUB PUSH1 0x1F AND DUP3 ADD SWAP2 JUMPDEST POP POP POP POP POP DUP2 MSTORE PUSH1 0x20 ADD PUSH1 0x3 DUP3 ADD DUP1 SLOAD PUSH2 0x33B SWAP1 PUSH2 0x16FF JUMP JUMPDEST DUP1 PUSH1 0x1F ADD PUSH1 0x20 DUP1 SWAP2 DIV MUL PUSH1 0x20 ADD PUSH1 0x40 MLOAD SWAP1 DUP2 ADD PUSH1 0x40 MSTORE DUP1 SWAP3 SWAP2 SWAP1 DUP2 DUP2 MSTORE PUSH1 0x20 ADD DUP3 DUP1 SLOAD PUSH2 0x367 SWAP1 PUSH2 0x16FF JUMP JUMPDEST DUP1 ISZERO PUSH2 0x3B4 JUMPI DUP1 PUSH1 0x1F LT PUSH2 0x389 JUMPI PUSH2 0x100 DUP1 DUP4 SLOAD DIV MUL DUP4 MSTORE SWAP2 PUSH1 0x20 ADD SWAP2 PUSH2 0x3B4 JUMP JUMPDEST DUP3 ADD SWAP2 SWAP1 PUSH1 0x0 MSTORE PUSH1 0x20 PUSH1 0x0 KECCAK256 SWAP1 JUMPDEST DUP2 SLOAD DUP2 MSTORE SWAP1 PUSH1 0x1 ADD SWAP1 PUSH1 0x20 ADD DUP1 DUP4 GT PUSH2 0x397 JUMPI DUP3 SWAP1 SUB PUSH1 0x1F AND DUP3 ADD SWAP2 JUMPDEST POP POP POP POP POP DUP2 MSTORE PUSH1 0x20 ADD PUSH1 0x4 DUP3 ADD SLOAD DUP2 MSTORE POP POP DUP2 MSTORE PUSH1 0x20 ADD SWAP1 PUSH1 0x1 ADD SWAP1 PUSH2 0x1CA JUMP JUMPDEST POP POP POP POP SWAP1 POP PUSH1 0x0 DUP2 MLOAD SWAP1 POP PUSH1 0x0 DUP2 PUSH8 0xFFFFFFFFFFFFFFFF DUP2 GT ISZERO PUSH2 0x3FE JUMPI PUSH2 0x3FD PUSH2 0x151A JUMP JUMPDEST JUMPDEST PUSH1 0x40 MLOAD SWAP1 DUP1 DUP3 MSTORE DUP1 PUSH1 0x20 MUL PUSH1 0x20 ADD DUP3 ADD PUSH1 0x40 MSTORE DUP1 ISZERO PUSH2 0x437 JUMPI DUP2 PUSH1 0x20 ADD JUMPDEST PUSH2 0x424 PUSH2 0x109F JUMP JUMPDEST DUP2 MSTORE PUSH1 0x20 ADD SWAP1 PUSH1 0x1 SWAP1 SUB SWAP1 DUP2 PUSH2 0x41C JUMPI SWAP1 POP JUMPDEST POP SWAP1 POP PUSH1 0x0 DUP1 JUMPDEST DUP4 DUP2 LT ISZERO PUSH2 0x4F2 JUMPI DUP7 PUSH20 0xFFFFFFFFFFFFFFFFFFFFFFFFFFFFFFFFFFFFFFFF AND DUP6 DUP3 DUP2 MLOAD DUP2 LT PUSH2 0x470 JUMPI PUSH2 0x46F PUSH2 0x1730 JUMP JUMPDEST JUMPDEST PUSH1 0x20 MUL PUSH1 0x20 ADD ADD MLOAD PUSH1 0x0 ADD MLOAD PUSH20 0xFFFFFFFFFFFFFFFFFFFFFFFFFFFFFFFFFFFFFFFF AND SUB PUSH2 0x4DF JUMPI DUP5 DUP2 DUP2 MLOAD DUP2 LT PUSH2 0x4AA JUMPI PUSH2 0x4A9 PUSH2 0x1730 JUMP JUMPDEST JUMPDEST PUSH1 0x20 MUL PUSH1 0x20 ADD ADD MLOAD DUP4 DUP4 DUP2 MLOAD DUP2 LT PUSH2 0x4C5 JUMPI PUSH2 0x4C4 PUSH2 0x1730 JUMP JUMPDEST JUMPDEST PUSH1 0x20 MUL PUSH1 0x20 ADD ADD DUP2 SWAP1 MSTORE POP DUP2 DUP1 PUSH2 0x4DB SWAP1 PUSH2 0x178E JUMP JUMPDEST SWAP3 POP POP JUMPDEST DUP1 DUP1 PUSH2 0x4EA SWAP1 PUSH2 0x178E JUMP JUMPDEST SWAP2 POP POP PUSH2 0x43E JUMP JUMPDEST POP DUP1 DUP3 MSTORE DUP2 SWAP5 POP POP POP POP POP SWAP2 SWAP1 POP JUMP JUMPDEST PUSH1 0x1 PUSH1 0x20 MSTORE DUP2 PUSH1 0x0 MSTORE PUSH1 0x40 PUSH1 0x0 KECCAK256 DUP2 DUP2 SLOAD DUP2 LT PUSH2 0x51E JUMPI PUSH1 0x0 DUP1 REVERT JUMPDEST SWAP1 PUSH1 0x0 MSTORE PUSH1 0x20 PUSH1 0x0 KECCAK256 SWAP1 PUSH1 0x5 MUL ADD PUSH1 0x0 SWAP2 POP SWAP2 POP POP DUP1 PUSH1 0x0 ADD PUSH1 0x0 SWAP1 SLOAD SWAP1 PUSH2 0x100 EXP SWAP1 DIV PUSH20 0xFFFFFFFFFFFFFFFFFFFFFFFFFFFFFFFFFFFFFFFF AND SWAP1 DUP1 PUSH1 0x1 ADD PUSH1 0x0 SWAP1 SLOAD SWAP1 PUSH2 0x100 EXP SWAP1 DIV PUSH20 0xFFFFFFFFFFFFFFFFFFFFFFFFFFFFFFFFFFFFFFFF AND SWAP1 DUP1 PUSH1 0x2 ADD DUP1 SLOAD PUSH2 0x58E SWAP1 PUSH2 0x16FF JUMP JUMPDEST DUP1 PUSH1 0x1F ADD PUSH1 0x20 DUP1 SWAP2 DIV MUL PUSH1 0x20 ADD PUSH1 0x40 MLOAD SWAP1 DUP2 ADD PUSH1 0x40 MSTORE DUP1 SWAP3 SWAP2 SWAP1 DUP2 DUP2 MSTORE PUSH1 0x20 ADD DUP3 DUP1 SLOAD PUSH2 0x5BA SWAP1 PUSH2 0x16FF JUMP JUMPDEST DUP1 ISZERO PUSH2 0x607 JUMPI DUP1 PUSH1 0x1F LT PUSH2 0x5DC JUMPI PUSH2 0x100 DUP1 DUP4 SLOAD DIV MUL DUP4 MSTORE SWAP2 PUSH1 0x20 ADD SWAP2 PUSH2 0x607 JUMP JUMPDEST DUP3 ADD SWAP2 SWAP1 PUSH1 0x0 MSTORE PUSH1 0x20 PUSH1 0x0 KECCAK256 SWAP1 JUMPDEST DUP2 SLOAD DUP2 MSTORE SWAP1 PUSH1 0x1 ADD SWAP1 PUSH1 0x20 ADD DUP1 DUP4 GT PUSH2 0x5EA JUMPI DUP3 SWAP1 SUB PUSH1 0x1F AND DUP3 ADD SWAP2 JUMPDEST POP POP POP POP POP SWAP1 DUP1 PUSH1 0x3 ADD DUP1 SLOAD PUSH2 0x61C SWAP1 PUSH2 0x16FF JUMP JUMPDEST DUP1 PUSH1 0x1F ADD PUSH1 0x20 DUP1 SWAP2 DIV MUL PUSH1 0x20 ADD PUSH1 0x40 MLOAD SWAP1 DUP2 ADD PUSH1 0x40 MSTORE DUP1 SWAP3 SWAP2 SWAP1 DUP2 DUP2 MSTORE PUSH1 0x20 ADD DUP3 DUP1 SLOAD PUSH2 0x648 SWAP1 PUSH2 0x16FF JUMP JUMPDEST DUP1 ISZERO PUSH2 0x695 JUMPI DUP1 PUSH1 0x1F LT PUSH2 0x66A JUMPI PUSH2 0x100 DUP1 DUP4 SLOAD DIV MUL DUP4 MSTORE SWAP2 PUSH1 0x20 ADD SWAP2 PUSH2 0x695 JUMP JUMPDEST DUP3 ADD SWAP2 SWAP1 PUSH1 0x0 MSTORE PUSH1 0x20 PUSH1 0x0 KECCAK256 SWAP1 JUMPDEST DUP2 SLOAD DUP2 MSTORE SWAP1 PUSH1 0x1 ADD SWAP1 PUSH1 0x20 ADD DUP1 DUP4 GT PUSH2 0x678 JUMPI DUP3 SWAP1 SUB PUSH1 0x1F AND DUP3 ADD SWAP2 JUMPDEST POP POP POP POP POP SWAP1 DUP1 PUSH1 0x4 ADD SLOAD SWAP1 POP DUP6 JUMP JUMPDEST PUSH1 0x0 PUSH1 0x20 MSTORE DUP2 PUSH1 0x0 MSTORE PUSH1 0x40 PUSH1 0x0 KECCAK256 DUP2 DUP2 SLOAD DUP2 LT PUSH2 0x6C1 JUMPI PUSH1 0x0 DUP1 REVERT JUMPDEST SWAP1 PUSH1 0x0 MSTORE PUSH1 0x20 PUSH1 0x0 KECCAK256 SWAP1 PUSH1 0x5 MUL ADD PUSH1 0x0 SWAP2 POP SWAP2 POP POP DUP1 PUSH1 0x0 ADD PUSH1 0x0 SWAP1 SLOAD SWAP1 PUSH2 0x100 EXP SWAP1 DIV PUSH20 0xFFFFFFFFFFFFFFFFFFFFFFFFFFFFFFFFFFFFFFFF AND SWAP1 DUP1 PUSH1 0x1 ADD PUSH1 0x0 SWAP1 SLOAD SWAP1 PUSH2 0x100 EXP SWAP1 DIV PUSH20 0xFFFFFFFFFFFFFFFFFFFFFFFFFFFFFFFFFFFFFFFF AND SWAP1 DUP1 PUSH1 0x2 ADD DUP1 SLOAD PUSH2 0x731 SWAP1 PUSH2 0x16FF JUMP JUMPDEST DUP1 PUSH1 0x1F ADD PUSH1 0x20 DUP1 SWAP2 DIV MUL PUSH1 0x20 ADD PUSH1 0x40 MLOAD SWAP1 DUP2 ADD PUSH1 0x40 MSTORE DUP1 SWAP3 SWAP2 SWAP1 DUP2 DUP2 MSTORE PUSH1 0x20 ADD DUP3 DUP1 SLOAD PUSH2 0x75D SWAP1 PUSH2 0x16FF JUMP JUMPDEST DUP1 ISZERO PUSH2 0x7AA JUMPI DUP1 PUSH1 0x1F LT PUSH2 0x77F JUMPI PUSH2 0x100 DUP1 DUP4 SLOAD DIV MUL DUP4 MSTORE SWAP2 PUSH1 0x20 ADD SWAP2 PUSH2 0x7AA JUMP JUMPDEST DUP3 ADD SWAP2 SWAP1 PUSH1 0x0 MSTORE PUSH1 0x20 PUSH1 0x0 KECCAK256 SWAP1 JUMPDEST DUP2 SLOAD DUP2 MSTORE SWAP1 PUSH1 0x1 ADD SWAP1 PUSH1 0x20 ADD DUP1 DUP4 GT PUSH2 0x78D JUMPI DUP3 SWAP1 SUB PUSH1 0x1F AND DUP3 ADD SWAP2 JUMPDEST POP POP POP POP POP SWAP1 DUP1 PUSH1 0x3 ADD DUP1 SLOAD PUSH2 0x7BF SWAP1 PUSH2 0x16FF JUMP JUMPDEST DUP1 PUSH1 0x1F ADD PUSH1 0x20 DUP1 SWAP2 DIV MUL PUSH1 0x20 ADD PUSH1 0x40 MLOAD SWAP1 DUP2 ADD PUSH1 0x40 MSTORE DUP1 SWAP3 SWAP2 SWAP1 DUP2 DUP2 MSTORE PUSH1 0x20 ADD DUP3 DUP1 SLOAD PUSH2 0x7EB SWAP1 PUSH2 0x16FF JUMP JUMPDEST DUP1 ISZERO PUSH2 0x838 JUMPI DUP1 PUSH1 0x1F LT PUSH2 0x80D JUMPI PUSH2 0x100 DUP1 DUP4 SLOAD DIV MUL DUP4 MSTORE SWAP2 PUSH1 0x20 ADD SWAP2 PUSH2 0x838 JUMP JUMPDEST DUP3 ADD SWAP2 SWAP1 PUSH1 0x0 MSTORE PUSH1 0x20 PUSH1 0x0 KECCAK256 SWAP1 JUMPDEST DUP2 SLOAD DUP2 MSTORE SWAP1 PUSH1 0x1 ADD SWAP1 PUSH1 0x20 ADD DUP1 DUP4 GT PUSH2 0x81B JUMPI DUP3 SWAP1 SUB PUSH1 0x1F AND DUP3 ADD SWAP2 JUMPDEST POP POP POP POP POP SWAP1 DUP1 PUSH1 0x4 ADD SLOAD SWAP1 POP DUP6 JUMP JUMPDEST PUSH1 0x0 DUP2 GT PUSH2 0x88B JUMPI PUSH1 0x40 MLOAD PUSH32 0x8C379A000000000000000000000000000000000000000000000000000000000 DUP2 MSTORE PUSH1 0x4 ADD PUSH2 0x882 SWAP1 PUSH2 0x1848 JUMP JUMPDEST PUSH1 0x40 MLOAD DUP1 SWAP2 SUB SWAP1 REVERT JUMPDEST PUSH1 0x0 JUMPDEST DUP2 DUP2 LT ISZERO PUSH2 0xA83 JUMPI PUSH1 0x0 PUSH2 0x8A1 DUP3 PUSH2 0xF17 JUMP JUMPDEST PUSH1 0x40 MLOAD PUSH1 0x20 ADD PUSH2 0x8B1 SWAP2 SWAP1 PUSH2 0x18F0 JUMP JUMPDEST PUSH1 0x40 MLOAD PUSH1 0x20 DUP2 DUP4 SUB SUB DUP2 MSTORE SWAP1 PUSH1 0x40 MSTORE SWAP1 POP PUSH1 0x0 PUSH2 0x8CD DUP4 PUSH2 0xF17 JUMP JUMPDEST PUSH1 0x40 MLOAD PUSH1 0x20 ADD PUSH2 0x8DD SWAP2 SWAP1 PUSH2 0x195E JUMP JUMPDEST PUSH1 0x40 MLOAD PUSH1 0x20 DUP2 DUP4 SUB SUB DUP2 MSTORE SWAP1 PUSH1 0x40 MSTORE SWAP1 POP PUSH1 0x0 DUP1 DUP7 PUSH20 0xFFFFFFFFFFFFFFFFFFFFFFFFFFFFFFFFFFFFFFFF AND PUSH20 0xFFFFFFFFFFFFFFFFFFFFFFFFFFFFFFFFFFFFFFFF AND DUP2 MSTORE PUSH1 0x20 ADD SWAP1 DUP2 MSTORE PUSH1 0x20 ADD PUSH1 0x0 KECCAK256 PUSH1 0x40 MLOAD DUP1 PUSH1 0xA0 ADD PUSH1 0x40 MSTORE DUP1 CALLER PUSH20 0xFFFFFFFFFFFFFFFFFFFFFFFFFFFFFFFFFFFFFFFF AND DUP2 MSTORE PUSH1 0x20 ADD DUP8 PUSH20 0xFFFFFFFFFFFFFFFFFFFFFFFFFFFFFFFFFFFFFFFF AND DUP2 MSTORE PUSH1 0x20 ADD DUP5 DUP2 MSTORE PUSH1 0x20 ADD DUP4 DUP2 MSTORE PUSH1 0x20 ADD TIMESTAMP DUP2 MSTORE POP SWAP1 DUP1 PUSH1 0x1 DUP2 SLOAD ADD DUP1 DUP3 SSTORE DUP1 SWAP2 POP POP PUSH1 0x1 SWAP1 SUB SWAP1 PUSH1 0x0 MSTORE PUSH1 0x20 PUSH1 0x0 KECCAK256 SWAP1 PUSH1 0x5 MUL ADD PUSH1 0x0 SWAP1 SWAP2 SWAP1 SWAP2 SWAP1 SWAP2 POP PUSH1 0x0 DUP3 ADD MLOAD DUP2 PUSH1 0x0 ADD PUSH1 0x0 PUSH2 0x100 EXP DUP2 SLOAD DUP2 PUSH20 0xFFFFFFFFFFFFFFFFFFFFFFFFFFFFFFFFFFFFFFFF MUL NOT AND SWAP1 DUP4 PUSH20 0xFFFFFFFFFFFFFFFFFFFFFFFFFFFFFFFFFFFFFFFF AND MUL OR SWAP1 SSTORE POP PUSH1 0x20 DUP3 ADD MLOAD DUP2 PUSH1 0x1 ADD PUSH1 0x0 PUSH2 0x100 EXP DUP2 SLOAD DUP2 PUSH20 0xFFFFFFFFFFFFFFFFFFFFFFFFFFFFFFFFFFFFFFFF MUL NOT AND SWAP1 DUP4 PUSH20 0xFFFFFFFFFFFFFFFFFFFFFFFFFFFFFFFFFFFFFFFF AND MUL OR SWAP1 SSTORE POP PUSH1 0x40 DUP3 ADD MLOAD DUP2 PUSH1 0x2 ADD SWAP1 DUP2 PUSH2 0xA4B SWAP2 SWAP1 PUSH2 0x1B2C JUMP JUMPDEST POP PUSH1 0x60 DUP3 ADD MLOAD DUP2 PUSH1 0x3 ADD SWAP1 DUP2 PUSH2 0xA61 SWAP2 SWAP1 PUSH2 0x1B2C JUMP JUMPDEST POP PUSH1 0x80 DUP3 ADD MLOAD DUP2 PUSH1 0x4 ADD SSTORE POP POP POP POP DUP1 DUP1 PUSH2 0xA7B SWAP1 PUSH2 0x178E JUMP JUMPDEST SWAP2 POP POP PUSH2 0x88E JUMP JUMPDEST POP POP POP JUMP JUMPDEST PUSH1 0x0 DUP1 PUSH1 0x0 DUP1 DUP5 PUSH20 0xFFFFFFFFFFFFFFFFFFFFFFFFFFFFFFFFFFFFFFFF AND PUSH20 0xFFFFFFFFFFFFFFFFFFFFFFFFFFFFFFFFFFFFFFFF AND DUP2 MSTORE PUSH1 0x20 ADD SWAP1 DUP2 MSTORE PUSH1 0x20 ADD PUSH1 0x0 KECCAK256 DUP1 SLOAD SWAP1 POP SWAP2 POP PUSH1 0x1 PUSH1 0x0 DUP5 PUSH20 0xFFFFFFFFFFFFFFFFFFFFFFFFFFFFFFFFFFFFFFFF AND PUSH20 0xFFFFFFFFFFFFFFFFFFFFFFFFFFFFFFFFFFFFFFFF AND DUP2 MSTORE PUSH1 0x20 ADD SWAP1 DUP2 MSTORE PUSH1 0x20 ADD PUSH1 0x0 KECCAK256 DUP1 SLOAD SWAP1 POP SWAP1 POP SWAP2 POP SWAP2 JUMP JUMPDEST PUSH1 0x0 PUSH20 0xFFFFFFFFFFFFFFFFFFFFFFFFFFFFFFFFFFFFFFFF AND DUP4 PUSH20 0xFFFFFFFFFFFFFFFFFFFFFFFFFFFFFFFFFFFFFFFF AND SUB PUSH2 0xB88 JUMPI PUSH1 0x40 MLOAD PUSH32 0x8C379A000000000000000000000000000000000000000000000000000000000 DUP2 MSTORE PUSH1 0x4 ADD PUSH2 0xB7F SWAP1 PUSH2 0x1C4A JUMP JUMPDEST PUSH1 0x40 MLOAD DUP1 SWAP2 SUB SWAP1 REVERT JUMPDEST DUP3 PUSH20 0xFFFFFFFFFFFFFFFFFFFFFFFFFFFFFFFFFFFFFFFF AND CALLER PUSH20 0xFFFFFFFFFFFFFFFFFFFFFFFFFFFFFFFFFFFFFFFF AND SUB PUSH2 0xBF6 JUMPI PUSH1 0x40 MLOAD PUSH32 0x8C379A000000000000000000000000000000000000000000000000000000000 DUP2 MSTORE PUSH1 0x4 ADD PUSH2 0xBED SWAP1 PUSH2 0x1CB6 JUMP JUMPDEST PUSH1 0x40 MLOAD DUP1 SWAP2 SUB SWAP1 REVERT JUMPDEST PUSH1 0x0 PUSH1 0x40 MLOAD DUP1 PUSH1 0xA0 ADD PUSH1 0x40 MSTORE DUP1 CALLER PUSH20 0xFFFFFFFFFFFFFFFFFFFFFFFFFFFFFFFFFFFFFFFF AND DUP2 MSTORE PUSH1 0x20 ADD DUP6 PUSH20 0xFFFFFFFFFFFFFFFFFFFFFFFFFFFFFFFFFFFFFFFF AND DUP2 MSTORE PUSH1 0x20 ADD DUP5 DUP2 MSTORE PUSH1 0x20 ADD DUP4 DUP2 MSTORE PUSH1 0x20 ADD TIMESTAMP DUP2 MSTORE POP SWAP1 POP PUSH1 0x0 DUP1 DUP6 PUSH20 0xFFFFFFFFFFFFFFFFFFFFFFFFFFFFFFFFFFFFFFFF AND PUSH20 0xFFFFFFFFFFFFFFFFFFFFFFFFFFFFFFFFFFFFFFFF AND DUP2 MSTORE PUSH1 0x20 ADD SWAP1 DUP2 MSTORE PUSH1 0x20 ADD PUSH1 0x0 KECCAK256 DUP2 SWAP1 DUP1 PUSH1 0x1 DUP2 SLOAD ADD DUP1 DUP3 SSTORE DUP1 SWAP2 POP POP PUSH1 0x1 SWAP1 SUB SWAP1 PUSH1 0x0 MSTORE PUSH1 0x20 PUSH1 0x0 KECCAK256 SWAP1 PUSH1 0x5 MUL ADD PUSH1 0x0 SWAP1 SWAP2 SWAP1 SWAP2 SWAP1 SWAP2 POP PUSH1 0x0 DUP3 ADD MLOAD DUP2 PUSH1 0x0 ADD PUSH1 0x0 PUSH2 0x100 EXP DUP2 SLOAD DUP2 PUSH20 0xFFFFFFFFFFFFFFFFFFFFFFFFFFFFFFFFFFFFFFFF MUL NOT AND SWAP1 DUP4 PUSH20 0xFFFFFFFFFFFFFFFFFFFFFFFFFFFFFFFFFFFFFFFF AND MUL OR SWAP1 SSTORE POP PUSH1 0x20 DUP3 ADD MLOAD DUP2 PUSH1 0x1 ADD PUSH1 0x0 PUSH2 0x100 EXP DUP2 SLOAD DUP2 PUSH20 0xFFFFFFFFFFFFFFFFFFFFFFFFFFFFFFFFFFFFFFFF MUL NOT AND SWAP1 DUP4 PUSH20 0xFFFFFFFFFFFFFFFFFFFFFFFFFFFFFFFFFFFFFFFF AND MUL OR SWAP1 SSTORE POP PUSH1 0x40 DUP3 ADD MLOAD DUP2 PUSH1 0x2 ADD SWAP1 DUP2 PUSH2 0xD58 SWAP2 SWAP1 PUSH2 0x1B2C JUMP JUMPDEST POP PUSH1 0x60 DUP3 ADD MLOAD DUP2 PUSH1 0x3 ADD SWAP1 DUP2 PUSH2 0xD6E SWAP2 SWAP1 PUSH2 0x1B2C JUMP JUMPDEST POP PUSH1 0x80 DUP3 ADD MLOAD DUP2 PUSH1 0x4 ADD SSTORE POP POP PUSH1 0x1 PUSH1 0x0 CALLER PUSH20 0xFFFFFFFFFFFFFFFFFFFFFFFFFFFFFFFFFFFFFFFF AND PUSH20 0xFFFFFFFFFFFFFFFFFFFFFFFFFFFFFFFFFFFFFFFF AND DUP2 MSTORE PUSH1 0x20 ADD SWAP1 DUP2 MSTORE PUSH1 0x20 ADD PUSH1 0x0 KECCAK256 DUP2 SWAP1 DUP1 PUSH1 0x1 DUP2 SLOAD ADD DUP1 DUP3 SSTORE DUP1 SWAP2 POP POP PUSH1 0x1 SWAP1 SUB SWAP1 PUSH1 0x0 MSTORE PUSH1 0x20 PUSH1 0x0 KECCAK256 SWAP1 PUSH1 0x5 MUL ADD PUSH1 0x0 SWAP1 SWAP2 SWAP1 SWAP2 SWAP1 SWAP2 POP PUSH1 0x0 DUP3 ADD MLOAD DUP2 PUSH1 0x0 ADD PUSH1 0x0 PUSH2 0x100 EXP DUP2 SLOAD DUP2 PUSH20 0xFFFFFFFFFFFFFFFFFFFFFFFFFFFFFFFFFFFFFFFF MUL NOT AND SWAP1 DUP4 PUSH20 0xFFFFFFFFFFFFFFFFFFFFFFFFFFFFFFFFFFFFFFFF AND MUL OR SWAP1 SSTORE POP PUSH1 0x20 DUP3 ADD MLOAD DUP2 PUSH1 0x1 ADD PUSH1 0x0 PUSH2 0x100 EXP DUP2 SLOAD DUP2 PUSH20 0xFFFFFFFFFFFFFFFFFFFFFFFFFFFFFFFFFFFFFFFF MUL NOT AND SWAP1 DUP4 PUSH20 0xFFFFFFFFFFFFFFFFFFFFFFFFFFFFFFFFFFFFFFFF AND MUL OR SWAP1 SSTORE POP PUSH1 0x40 DUP3 ADD MLOAD DUP2 PUSH1 0x2 ADD SWAP1 DUP2 PUSH2 0xE87 SWAP2 SWAP1 PUSH2 0x1B2C JUMP JUMPDEST POP PUSH1 0x60 DUP3 ADD MLOAD DUP2 PUSH1 0x3 ADD SWAP1 DUP2 PUSH2 0xE9D SWAP2 SWAP1 PUSH2 0x1B2C JUMP JUMPDEST POP PUSH1 0x80 DUP3 ADD MLOAD DUP2 PUSH1 0x4 ADD SSTORE POP POP DUP4 PUSH20 0xFFFFFFFFFFFFFFFFFFFFFFFFFFFFFFFFFFFFFFFF AND CALLER PUSH20 0xFFFFFFFFFFFFFFFFFFFFFFFFFFFFFFFFFFFFFFFF AND PUSH32 0x2ECDF33A271447607B6ACA3173F5F892E91720D5106F80C513AA4710A2BB4E33 DUP6 TIMESTAMP PUSH1 0x40 MLOAD PUSH2 0xF09 SWAP3 SWAP2 SWAP1 PUSH2 0x1CD6 JUMP JUMPDEST PUSH1 0x40 MLOAD DUP1 SWAP2 SUB SWAP1 LOG3 POP POP POP POP JUMP JUMPDEST PUSH1 0x60 PUSH1 0x0 DUP3 SUB PUSH2 0xF5E JUMPI PUSH1 0x40 MLOAD DUP1 PUSH1 0x40 ADD PUSH1 0x40 MSTORE DUP1 PUSH1 0x1 DUP2 MSTORE PUSH1 0x20 ADD PUSH32 0x3000000000000000000000000000000000000000000000000000000000000000 DUP2 MSTORE POP SWAP1 POP PUSH2 0x109A JUMP JUMPDEST PUSH1 0x0 DUP3 SWAP1 POP PUSH1 0x0 JUMPDEST PUSH1 0x0 DUP3 EQ PUSH2 0xF90 JUMPI DUP1 DUP1 PUSH2 0xF79 SWAP1 PUSH2 0x178E JUMP JUMPDEST SWAP2 POP POP PUSH1 0xA DUP3 PUSH2 0xF89 SWAP2 SWAP1 PUSH2 0x1D35 JUMP JUMPDEST SWAP2 POP PUSH2 0xF66 JUMP JUMPDEST PUSH1 0x0 DUP2 PUSH8 0xFFFFFFFFFFFFFFFF DUP2 GT ISZERO PUSH2 0xFAC JUMPI PUSH2 0xFAB PUSH2 0x151A JUMP JUMPDEST JUMPDEST PUSH1 0x40 MLOAD SWAP1 DUP1 DUP3 MSTORE DUP1 PUSH1 0x1F ADD PUSH1 0x1F NOT AND PUSH1 0x20 ADD DUP3 ADD PUSH1 0x40 MSTORE DUP1 ISZERO PUSH2 0xFDE JUMPI DUP2 PUSH1 0x20 ADD PUSH1 0x1 DUP3 MUL DUP1 CALLDATASIZE DUP4 CALLDATACOPY DUP1 DUP3 ADD SWAP2 POP POP SWAP1 POP JUMPDEST POP SWAP1 POP PUSH1 0x0 DUP3 SWAP1 POP JUMPDEST PUSH1 0x0 DUP7 EQ PUSH2 0x1092 JUMPI PUSH1 0x1 DUP2 PUSH2 0xFFC SWAP2 SWAP1 PUSH2 0x1D66 JUMP JUMPDEST SWAP1 POP PUSH1 0x0 PUSH1 0xA DUP1 DUP9 PUSH2 0x100E SWAP2 SWAP1 PUSH2 0x1D35 JUMP JUMPDEST PUSH2 0x1018 SWAP2 SWAP1 PUSH2 0x1D9A JUMP JUMPDEST DUP8 PUSH2 0x1023 SWAP2 SWAP1 PUSH2 0x1D66 JUMP JUMPDEST PUSH1 0x30 PUSH2 0x102F SWAP2 SWAP1 PUSH2 0x1DE9 JUMP JUMPDEST SWAP1 POP PUSH1 0x0 DUP2 PUSH1 0xF8 SHL SWAP1 POP DUP1 DUP5 DUP5 DUP2 MLOAD DUP2 LT PUSH2 0x104D JUMPI PUSH2 0x104C PUSH2 0x1730 JUMP JUMPDEST JUMPDEST PUSH1 0x20 ADD ADD SWAP1 PUSH31 0xFFFFFFFFFFFFFFFFFFFFFFFFFFFFFFFFFFFFFFFFFFFFFFFFFFFFFFFFFFFFFF NOT AND SWAP1 DUP2 PUSH1 0x0 BYTE SWAP1 MSTORE8 POP PUSH1 0xA DUP9 PUSH2 0x1089 SWAP2 SWAP1 PUSH2 0x1D35 JUMP JUMPDEST SWAP8 POP POP POP PUSH2 0xFE7 JUMP JUMPDEST DUP2 SWAP5 POP POP POP POP POP JUMPDEST SWAP2 SWAP1 POP JUMP JUMPDEST PUSH1 0x40 MLOAD DUP1 PUSH1 0xA0 ADD PUSH1 0x40 MSTORE DUP1 PUSH1 0x0 PUSH20 0xFFFFFFFFFFFFFFFFFFFFFFFFFFFFFFFFFFFFFFFF AND DUP2 MSTORE PUSH1 0x20 ADD PUSH1 0x0 PUSH20 0xFFFFFFFFFFFFFFFFFFFFFFFFFFFFFFFFFFFFFFFF AND DUP2 MSTORE PUSH1 0x20 ADD PUSH1 0x60 DUP2 MSTORE PUSH1 0x20 ADD PUSH1 0x60 DUP2 MSTORE PUSH1 0x20 ADD PUSH1 0x0 DUP2 MSTORE POP SWAP1 JUMP JUMPDEST PUSH1 0x0 PUSH1 0x40 MLOAD SWAP1 POP SWAP1 JUMP JUMPDEST PUSH1 0x0 DUP1 REVERT JUMPDEST PUSH1 0x0 DUP1 REVERT JUMPDEST PUSH1 0x0 PUSH20 0xFFFFFFFFFFFFFFFFFFFFFFFFFFFFFFFFFFFFFFFF DUP3 AND SWAP1 POP SWAP2 SWAP1 POP JUMP JUMPDEST PUSH1 0x0 PUSH2 0x1139 DUP3 PUSH2 0x110E JUMP JUMPDEST SWAP1 POP SWAP2 SWAP1 POP JUMP JUMPDEST PUSH2 0x1149 DUP2 PUSH2 0x112E JUMP JUMPDEST DUP2 EQ PUSH2 0x1154 JUMPI PUSH1 0x0 DUP1 REVERT JUMPDEST POP JUMP JUMPDEST PUSH1 0x0 DUP2 CALLDATALOAD SWAP1 POP PUSH2 0x1166 DUP2 PUSH2 0x1140 JUMP JUMPDEST SWAP3 SWAP2 POP POP JUMP JUMPDEST PUSH1 0x0 PUSH1 0x20 DUP3 DUP5 SUB SLT ISZERO PUSH2 0x1182 JUMPI PUSH2 0x1181 PUSH2 0x1104 JUMP JUMPDEST JUMPDEST PUSH1 0x0 PUSH2 0x1190 DUP5 DUP3 DUP6 ADD PUSH2 0x1157 JUMP JUMPDEST SWAP2 POP POP SWAP3 SWAP2 POP POP JUMP JUMPDEST PUSH1 0x0 DUP2 MLOAD SWAP1 POP SWAP2 SWAP1 POP JUMP JUMPDEST PUSH1 0x0 DUP3 DUP3 MSTORE PUSH1 0x20 DUP3 ADD SWAP1 POP SWAP3 SWAP2 POP POP JUMP JUMPDEST PUSH1 0x0 DUP2 SWAP1 POP PUSH1 0x20 DUP3 ADD SWAP1 POP SWAP2 SWAP1 POP JUMP JUMPDEST PUSH2 0x11CE DUP2 PUSH2 0x112E JUMP JUMPDEST DUP3 MSTORE POP POP JUMP JUMPDEST PUSH1 0x0 DUP2 MLOAD SWAP1 POP SWAP2 SWAP1 POP JUMP JUMPDEST PUSH1 0x0 DUP3 DUP3 MSTORE PUSH1 0x20 DUP3 ADD SWAP1 POP SWAP3 SWAP2 POP POP JUMP JUMPDEST PUSH1 0x0 JUMPDEST DUP4 DUP2 LT ISZERO PUSH2 0x120E JUMPI DUP1 DUP3 ADD MLOAD DUP2 DUP5 ADD MSTORE PUSH1 0x20 DUP2 ADD SWAP1 POP PUSH2 0x11F3 JUMP JUMPDEST PUSH1 0x0 DUP5 DUP5 ADD MSTORE POP POP POP POP JUMP JUMPDEST PUSH1 0x0 PUSH1 0x1F NOT PUSH1 0x1F DUP4 ADD AND SWAP1 POP SWAP2 SWAP1 POP JUMP JUMPDEST PUSH1 0x0 PUSH2 0x1236 DUP3 PUSH2 0x11D4 JUMP JUMPDEST PUSH2 0x1240 DUP2 DUP6 PUSH2 0x11DF JUMP JUMPDEST SWAP4 POP PUSH2 0x1250 DUP2 DUP6 PUSH1 0x20 DUP7 ADD PUSH2 0x11F0 JUMP JUMPDEST PUSH2 0x1259 DUP2 PUSH2 0x121A JUMP JUMPDEST DUP5 ADD SWAP2 POP POP SWAP3 SWAP2 POP POP JUMP JUMPDEST PUSH1 0x0 DUP2 SWAP1 POP SWAP2 SWAP1 POP JUMP JUMPDEST PUSH2 0x1277 DUP2 PUSH2 0x1264 JUMP JUMPDEST DUP3 MSTORE POP POP JUMP JUMPDEST PUSH1 0x0 PUSH1 0xA0 DUP4 ADD PUSH1 0x0 DUP4 ADD MLOAD PUSH2 0x1295 PUSH1 0x0 DUP7 ADD DUP3 PUSH2 0x11C5 JUMP JUMPDEST POP PUSH1 0x20 DUP4 ADD MLOAD PUSH2 0x12A8 PUSH1 0x20 DUP7 ADD DUP3 PUSH2 0x11C5 JUMP JUMPDEST POP PUSH1 0x40 DUP4 ADD MLOAD DUP5 DUP3 SUB PUSH1 0x40 DUP7 ADD MSTORE PUSH2 0x12C0 DUP3 DUP3 PUSH2 0x122B JUMP JUMPDEST SWAP2 POP POP PUSH1 0x60 DUP4 ADD MLOAD DUP5 DUP3 SUB PUSH1 0x60 DUP7 ADD MSTORE PUSH2 0x12DA DUP3 DUP3 PUSH2 0x122B JUMP JUMPDEST SWAP2 POP POP PUSH1 0x80 DUP4 ADD MLOAD PUSH2 0x12EF PUSH1 0x80 DUP7 ADD DUP3 PUSH2 0x126E JUMP JUMPDEST POP DUP1 SWAP2 POP POP SWAP3 SWAP2 POP POP JUMP JUMPDEST PUSH1 0x0 PUSH2 0x1306 DUP4 DUP4 PUSH2 0x127D JUMP JUMPDEST SWAP1 POP SWAP3 SWAP2 POP POP JUMP JUMPDEST PUSH1 0x0 PUSH1 0x20 DUP3 ADD SWAP1 POP SWAP2 SWAP1 POP JUMP JUMPDEST PUSH1 0x0 PUSH2 0x1326 DUP3 PUSH2 0x1199 JUMP JUMPDEST PUSH2 0x1330 DUP2 DUP6 PUSH2 0x11A4 JUMP JUMPDEST SWAP4 POP DUP4 PUSH1 0x20 DUP3 MUL DUP6 ADD PUSH2 0x1342 DUP6 PUSH2 0x11B5 JUMP JUMPDEST DUP1 PUSH1 0x0 JUMPDEST DUP6 DUP2 LT ISZERO PUSH2 0x137E JUMPI DUP5 DUP5 SUB DUP10 MSTORE DUP2 MLOAD PUSH2 0x135F DUP6 DUP3 PUSH2 0x12FA JUMP JUMPDEST SWAP5 POP PUSH2 0x136A DUP4 PUSH2 0x130E JUMP JUMPDEST SWAP3 POP PUSH1 0x20 DUP11 ADD SWAP10 POP POP PUSH1 0x1 DUP2 ADD SWAP1 POP PUSH2 0x1346 JUMP JUMPDEST POP DUP3 SWAP8 POP DUP8 SWAP6 POP POP POP POP POP POP SWAP3 SWAP2 POP POP JUMP JUMPDEST PUSH1 0x0 PUSH1 0x20 DUP3 ADD SWAP1 POP DUP2 DUP2 SUB PUSH1 0x0 DUP4 ADD MSTORE PUSH2 0x13AA DUP2 DUP5 PUSH2 0x131B JUMP JUMPDEST SWAP1 POP SWAP3 SWAP2 POP POP JUMP JUMPDEST PUSH2 0x13BB DUP2 PUSH2 0x1264 JUMP JUMPDEST DUP2 EQ PUSH2 0x13C6 JUMPI PUSH1 0x0 DUP1 REVERT JUMPDEST POP JUMP JUMPDEST PUSH1 0x0 DUP2 CALLDATALOAD SWAP1 POP PUSH2 0x13D8 DUP2 PUSH2 0x13B2 JUMP JUMPDEST SWAP3 SWAP2 POP POP JUMP JUMPDEST PUSH1 0x0 DUP1 PUSH1 0x40 DUP4 DUP6 SUB SLT ISZERO PUSH2 0x13F5 JUMPI PUSH2 0x13F4 PUSH2 0x1104 JUMP JUMPDEST JUMPDEST PUSH1 0x0 PUSH2 0x1403 DUP6 DUP3 DUP7 ADD PUSH2 0x1157 JUMP JUMPDEST SWAP3 POP POP PUSH1 0x20 PUSH2 0x1414 DUP6 DUP3 DUP7 ADD PUSH2 0x13C9 JUMP JUMPDEST SWAP2 POP POP SWAP3 POP SWAP3 SWAP1 POP JUMP JUMPDEST PUSH2 0x1427 DUP2 PUSH2 0x112E JUMP JUMPDEST DUP3 MSTORE POP POP JUMP JUMPDEST PUSH1 0x0 DUP3 DUP3 MSTORE PUSH1 0x20 DUP3 ADD SWAP1 POP SWAP3 SWAP2 POP POP JUMP JUMPDEST PUSH1 0x0 PUSH2 0x1449 DUP3 PUSH2 0x11D4 JUMP JUMPDEST PUSH2 0x1453 DUP2 DUP6 PUSH2 0x142D JUMP JUMPDEST SWAP4 POP PUSH2 0x1463 DUP2 DUP6 PUSH1 0x20 DUP7 ADD PUSH2 0x11F0 JUMP JUMPDEST PUSH2 0x146C DUP2 PUSH2 0x121A JUMP JUMPDEST DUP5 ADD SWAP2 POP POP SWAP3 SWAP2 POP POP JUMP JUMPDEST PUSH2 0x1480 DUP2 PUSH2 0x1264 JUMP JUMPDEST DUP3 MSTORE POP POP JUMP JUMPDEST PUSH1 0x0 PUSH1 0xA0 DUP3 ADD SWAP1 POP PUSH2 0x149B PUSH1 0x0 DUP4 ADD DUP9 PUSH2 0x141E JUMP JUMPDEST PUSH2 0x14A8 PUSH1 0x20 DUP4 ADD DUP8 PUSH2 0x141E JUMP JUMPDEST DUP2 DUP2 SUB PUSH1 0x40 DUP4 ADD MSTORE PUSH2 0x14BA DUP2 DUP7 PUSH2 0x143E JUMP JUMPDEST SWAP1 POP DUP2 DUP2 SUB PUSH1 0x60 DUP4 ADD MSTORE PUSH2 0x14CE DUP2 DUP6 PUSH2 0x143E JUMP JUMPDEST SWAP1 POP PUSH2 0x14DD PUSH1 0x80 DUP4 ADD DUP5 PUSH2 0x1477 JUMP JUMPDEST SWAP7 SWAP6 POP POP POP POP POP POP JUMP JUMPDEST PUSH1 0x0 PUSH1 0x40 DUP3 ADD SWAP1 POP PUSH2 0x14FC PUSH1 0x0 DUP4 ADD DUP6 PUSH2 0x1477 JUMP JUMPDEST PUSH2 0x1509 PUSH1 0x20 DUP4 ADD DUP5 PUSH2 0x1477 JUMP JUMPDEST SWAP4 SWAP3 POP POP POP JUMP JUMPDEST PUSH1 0x0 DUP1 REVERT JUMPDEST PUSH1 0x0 DUP1 REVERT JUMPDEST PUSH32 0x4E487B7100000000000000000000000000000000000000000000000000000000 PUSH1 0x0 MSTORE PUSH1 0x41 PUSH1 0x4 MSTORE PUSH1 0x24 PUSH1 0x0 REVERT JUMPDEST PUSH2 0x1552 DUP3 PUSH2 0x121A JUMP JUMPDEST DUP2 ADD DUP2 DUP2 LT PUSH8 0xFFFFFFFFFFFFFFFF DUP3 GT OR ISZERO PUSH2 0x1571 JUMPI PUSH2 0x1570 PUSH2 0x151A JUMP JUMPDEST JUMPDEST DUP1 PUSH1 0x40 MSTORE POP POP POP JUMP JUMPDEST PUSH1 0x0 PUSH2 0x1584 PUSH2 0x10FA JUMP JUMPDEST SWAP1 POP PUSH2 0x1590 DUP3 DUP3 PUSH2 0x1549 JUMP JUMPDEST SWAP2 SWAP1 POP JUMP JUMPDEST PUSH1 0x0 PUSH8 0xFFFFFFFFFFFFFFFF DUP3 GT ISZERO PUSH2 0x15B0 JUMPI PUSH2 0x15AF PUSH2 0x151A JUMP JUMPDEST JUMPDEST PUSH2 0x15B9 DUP3 PUSH2 0x121A JUMP JUMPDEST SWAP1 POP PUSH1 0x20 DUP2 ADD SWAP1 POP SWAP2 SWAP1 POP JUMP JUMPDEST DUP3 DUP2 DUP4 CALLDATACOPY PUSH1 0x0 DUP4 DUP4 ADD MSTORE POP POP POP JUMP JUMPDEST PUSH1 0x0 PUSH2 0x15E8 PUSH2 0x15E3 DUP5 PUSH2 0x1595 JUMP JUMPDEST PUSH2 0x157A JUMP JUMPDEST SWAP1 POP DUP3 DUP2 MSTORE PUSH1 0x20 DUP2 ADD DUP5 DUP5 DUP5 ADD GT ISZERO PUSH2 0x1604 JUMPI PUSH2 0x1603 PUSH2 0x1515 JUMP JUMPDEST JUMPDEST PUSH2 0x160F DUP5 DUP3 DUP6 PUSH2 0x15C6 JUMP JUMPDEST POP SWAP4 SWAP3 POP POP POP JUMP JUMPDEST PUSH1 0x0 DUP3 PUSH1 0x1F DUP4 ADD SLT PUSH2 0x162C JUMPI PUSH2 0x162B PUSH2 0x1510 JUMP JUMPDEST JUMPDEST DUP2 CALLDATALOAD PUSH2 0x163C DUP5 DUP3 PUSH1 0x20 DUP7 ADD PUSH2 0x15D5 JUMP JUMPDEST SWAP2 POP POP SWAP3 SWAP2 POP POP JUMP JUMPDEST PUSH1 0x0 DUP1 PUSH1 0x0 PUSH1 0x60 DUP5 DUP7 SUB SLT ISZERO PUSH2 0x165E JUMPI PUSH2 0x165D PUSH2 0x1104 JUMP JUMPDEST JUMPDEST PUSH1 0x0 PUSH2 0x166C DUP7 DUP3 DUP8 ADD PUSH2 0x1157 JUMP JUMPDEST SWAP4 POP POP PUSH1 0x20 DUP5 ADD CALLDATALOAD PUSH8 0xFFFFFFFFFFFFFFFF DUP2 GT ISZERO PUSH2 0x168D JUMPI PUSH2 0x168C PUSH2 0x1109 JUMP JUMPDEST JUMPDEST PUSH2 0x1699 DUP7 DUP3 DUP8 ADD PUSH2 0x1617 JUMP JUMPDEST SWAP3 POP POP PUSH1 0x40 DUP5 ADD CALLDATALOAD PUSH8 0xFFFFFFFFFFFFFFFF DUP2 GT ISZERO PUSH2 0x16BA JUMPI PUSH2 0x16B9 PUSH2 0x1109 JUMP JUMPDEST JUMPDEST PUSH2 0x16C6 DUP7 DUP3 DUP8 ADD PUSH2 0x1617 JUMP JUMPDEST SWAP2 POP POP SWAP3 POP SWAP3 POP SWAP3 JUMP JUMPDEST PUSH32 0x4E487B7100000000000000000000000000000000000000000000000000000000 PUSH1 0x0 MSTORE PUSH1 0x22 PUSH1 0x4 MSTORE PUSH1 0x24 PUSH1 0x0 REVERT JUMPDEST PUSH1 0x0 PUSH1 0x2 DUP3 DIV SWAP1 POP PUSH1 0x1 DUP3 AND DUP1 PUSH2 0x1717 JUMPI PUSH1 0x7F DUP3 AND SWAP2 POP JUMPDEST PUSH1 0x20 DUP3 LT DUP2 SUB PUSH2 0x172A JUMPI PUSH2 0x1729 PUSH2 0x16D0 JUMP JUMPDEST JUMPDEST POP SWAP2 SWAP1 POP JUMP JUMPDEST PUSH32 0x4E487B7100000000000000000000000000000000000000000000000000000000 PUSH1 0x0 MSTORE PUSH1 0x32 PUSH1 0x4 MSTORE PUSH1 0x24 PUSH1 0x0 REVERT JUMPDEST PUSH32 0x4E487B7100000000000000000000000000000000000000000000000000000000 PUSH1 0x0 MSTORE PUSH1 0x11 PUSH1 0x4 MSTORE PUSH1 0x24 PUSH1 0x0 REVERT JUMPDEST PUSH1 0x0 PUSH2 0x1799 DUP3 PUSH2 0x1264 JUMP JUMPDEST SWAP2 POP PUSH32 0xFFFFFFFFFFFFFFFFFFFFFFFFFFFFFFFFFFFFFFFFFFFFFFFFFFFFFFFFFFFFFFFF DUP3 SUB PUSH2 0x17CB JUMPI PUSH2 0x17CA PUSH2 0x175F JUMP JUMPDEST JUMPDEST PUSH1 0x1 DUP3 ADD SWAP1 POP SWAP2 SWAP1 POP JUMP JUMPDEST PUSH32 0x4E756D626572206F6620656D61696C73206D7573742062652067726561746572 PUSH1 0x0 DUP3 ADD MSTORE PUSH32 0x207468616E203000000000000000000000000000000000000000000000000000 PUSH1 0x20 DUP3 ADD MSTORE POP JUMP JUMPDEST PUSH1 0x0 PUSH2 0x1832 PUSH1 0x27 DUP4 PUSH2 0x142D JUMP JUMPDEST SWAP2 POP PUSH2 0x183D DUP3 PUSH2 0x17D6 JUMP JUMPDEST PUSH1 0x40 DUP3 ADD SWAP1 POP SWAP2 SWAP1 POP JUMP JUMPDEST PUSH1 0x0 PUSH1 0x20 DUP3 ADD SWAP1 POP DUP2 DUP2 SUB PUSH1 0x0 DUP4 ADD MSTORE PUSH2 0x1861 DUP2 PUSH2 0x1825 JUMP JUMPDEST SWAP1 POP SWAP2 SWAP1 POP JUMP JUMPDEST PUSH1 0x0 DUP2 SWAP1 POP SWAP3 SWAP2 POP POP JUMP JUMPDEST PUSH32 0x4D6F636B20456D61696C20230000000000000000000000000000000000000000 PUSH1 0x0 DUP3 ADD MSTORE POP JUMP JUMPDEST PUSH1 0x0 PUSH2 0x18A9 PUSH1 0xC DUP4 PUSH2 0x1868 JUMP JUMPDEST SWAP2 POP PUSH2 0x18B4 DUP3 PUSH2 0x1873 JUMP JUMPDEST PUSH1 0xC DUP3 ADD SWAP1 POP SWAP2 SWAP1 POP JUMP JUMPDEST PUSH1 0x0 PUSH2 0x18CA DUP3 PUSH2 0x11D4 JUMP JUMPDEST PUSH2 0x18D4 DUP2 DUP6 PUSH2 0x1868 JUMP JUMPDEST SWAP4 POP PUSH2 0x18E4 DUP2 DUP6 PUSH1 0x20 DUP7 ADD PUSH2 0x11F0 JUMP JUMPDEST DUP1 DUP5 ADD SWAP2 POP POP SWAP3 SWAP2 POP POP JUMP JUMPDEST PUSH1 0x0 PUSH2 0x18FB DUP3 PUSH2 0x189C JUMP JUMPDEST SWAP2 POP PUSH2 0x1907 DUP3 DUP5 PUSH2 0x18BF JUMP JUMPDEST SWAP2 POP DUP2 SWAP1 POP SWAP3 SWAP2 POP POP JUMP JUMPDEST PUSH32 0x546869732069732061206D6F636B20656D61696C202300000000000000000000 PUSH1 0x0 DUP3 ADD MSTORE POP JUMP JUMPDEST PUSH1 0x0 PUSH2 0x1948 PUSH1 0x16 DUP4 PUSH2 0x1868 JUMP JUMPDEST SWAP2 POP PUSH2 0x1953 DUP3 PUSH2 0x1912 JUMP JUMPDEST PUSH1 0x16 DUP3 ADD SWAP1 POP SWAP2 SWAP1 POP JUMP JUMPDEST PUSH1 0x0 PUSH2 0x1969 DUP3 PUSH2 0x193B JUMP JUMPDEST SWAP2 POP PUSH2 0x1975 DUP3 DUP5 PUSH2 0x18BF JUMP JUMPDEST SWAP2 POP DUP2 SWAP1 POP SWAP3 SWAP2 POP POP JUMP JUMPDEST PUSH1 0x0 DUP2 SWAP1 POP DUP2 PUSH1 0x0 MSTORE PUSH1 0x20 PUSH1 0x0 KECCAK256 SWAP1 POP SWAP2 SWAP1 POP JUMP JUMPDEST PUSH1 0x0 PUSH1 0x20 PUSH1 0x1F DUP4 ADD DIV SWAP1 POP SWAP2 SWAP1 POP JUMP JUMPDEST PUSH1 0x0 DUP3 DUP3 SHL SWAP1 POP SWAP3 SWAP2 POP POP JUMP JUMPDEST PUSH1 0x0 PUSH1 0x8 DUP4 MUL PUSH2 0x19E2 PUSH32 0xFFFFFFFFFFFFFFFFFFFFFFFFFFFFFFFFFFFFFFFFFFFFFFFFFFFFFFFFFFFFFFFF DUP3 PUSH2 0x19A5 JUMP JUMPDEST PUSH2 0x19EC DUP7 DUP4 PUSH2 0x19A5 JUMP JUMPDEST SWAP6 POP DUP1 NOT DUP5 AND SWAP4 POP DUP1 DUP7 AND DUP5 OR SWAP3 POP POP POP SWAP4 SWAP3 POP POP POP JUMP JUMPDEST PUSH1 0x0 DUP2 SWAP1 POP SWAP2 SWAP1 POP JUMP JUMPDEST PUSH1 0x0 PUSH2 0x1A29 PUSH2 0x1A24 PUSH2 0x1A1F DUP5 PUSH2 0x1264 JUMP JUMPDEST PUSH2 0x1A04 JUMP JUMPDEST PUSH2 0x1264 JUMP JUMPDEST SWAP1 POP SWAP2 SWAP1 POP JUMP JUMPDEST PUSH1 0x0 DUP2 SWAP1 POP SWAP2 SWAP1 POP JUMP JUMPDEST PUSH2 0x1A43 DUP4 PUSH2 0x1A0E JUMP JUMPDEST PUSH2 0x1A57 PUSH2 0x1A4F DUP3 PUSH2 0x1A30 JUMP JUMPDEST DUP5 DUP5 SLOAD PUSH2 0x19B2 JUMP JUMPDEST DUP3 SSTORE POP POP POP POP JUMP JUMPDEST PUSH1 0x0 SWAP1 JUMP JUMPDEST PUSH2 0x1A6C PUSH2 0x1A5F JUMP JUMPDEST PUSH2 0x1A77 DUP2 DUP5 DUP5 PUSH2 0x1A3A JUMP JUMPDEST POP POP POP JUMP JUMPDEST JUMPDEST DUP2 DUP2 LT ISZERO PUSH2 0x1A9B JUMPI PUSH2 0x1A90 PUSH1 0x0 DUP3 PUSH2 0x1A64 JUMP JUMPDEST PUSH1 0x1 DUP2 ADD SWAP1 POP PUSH2 0x1A7D JUMP JUMPDEST POP POP JUMP JUMPDEST PUSH1 0x1F DUP3 GT ISZERO PUSH2 0x1AE0 JUMPI PUSH2 0x1AB1 DUP2 PUSH2 0x1980 JUMP JUMPDEST PUSH2 0x1ABA DUP5 PUSH2 0x1995 JUMP JUMPDEST DUP2 ADD PUSH1 0x20 DUP6 LT ISZERO PUSH2 0x1AC9 JUMPI DUP2 SWAP1 POP JUMPDEST PUSH2 0x1ADD PUSH2 0x1AD5 DUP6 PUSH2 0x1995 JUMP JUMPDEST DUP4 ADD DUP3 PUSH2 0x1A7C JUMP JUMPDEST POP POP JUMPDEST POP POP POP JUMP JUMPDEST PUSH1 0x0 DUP3 DUP3 SHR SWAP1 POP SWAP3 SWAP2 POP POP JUMP JUMPDEST PUSH1 0x0 PUSH2 0x1B03 PUSH1 0x0 NOT DUP5 PUSH1 0x8 MUL PUSH2 0x1AE5 JUMP JUMPDEST NOT DUP1 DUP4 AND SWAP2 POP POP SWAP3 SWAP2 POP POP JUMP JUMPDEST PUSH1 0x0 PUSH2 0x1B1C DUP4 DUP4 PUSH2 0x1AF2 JUMP JUMPDEST SWAP2 POP DUP3 PUSH1 0x2 MUL DUP3 OR SWAP1 POP SWAP3 SWAP2 POP POP JUMP JUMPDEST PUSH2 0x1B35 DUP3 PUSH2 0x11D4 JUMP JUMPDEST PUSH8 0xFFFFFFFFFFFFFFFF DUP2 GT ISZERO PUSH2 0x1B4E JUMPI PUSH2 0x1B4D PUSH2 0x151A JUMP JUMPDEST JUMPDEST PUSH2 0x1B58 DUP3 SLOAD PUSH2 0x16FF JUMP JUMPDEST PUSH2 0x1B63 DUP3 DUP3 DUP6 PUSH2 0x1A9F JUMP JUMPDEST PUSH1 0x0 PUSH1 0x20 SWAP1 POP PUSH1 0x1F DUP4 GT PUSH1 0x1 DUP2 EQ PUSH2 0x1B96 JUMPI PUSH1 0x0 DUP5 ISZERO PUSH2 0x1B84 JUMPI DUP3 DUP8 ADD MLOAD SWAP1 POP JUMPDEST PUSH2 0x1B8E DUP6 DUP3 PUSH2 0x1B10 JUMP JUMPDEST DUP7 SSTORE POP PUSH2 0x1BF6 JUMP JUMPDEST PUSH1 0x1F NOT DUP5 AND PUSH2 0x1BA4 DUP7 PUSH2 0x1980 JUMP JUMPDEST PUSH1 0x0 JUMPDEST DUP3 DUP2 LT ISZERO PUSH2 0x1BCC JUMPI DUP5 DUP10 ADD MLOAD DUP3 SSTORE PUSH1 0x1 DUP3 ADD SWAP2 POP PUSH1 0x20 DUP6 ADD SWAP5 POP PUSH1 0x20 DUP2 ADD SWAP1 POP PUSH2 0x1BA7 JUMP JUMPDEST DUP7 DUP4 LT ISZERO PUSH2 0x1BE9 JUMPI DUP5 DUP10 ADD MLOAD PUSH2 0x1BE5 PUSH1 0x1F DUP10 AND DUP3 PUSH2 0x1AF2 JUMP JUMPDEST DUP4 SSTORE POP JUMPDEST PUSH1 0x1 PUSH1 0x2 DUP9 MUL ADD DUP9 SSTORE POP POP POP JUMPDEST POP POP POP POP POP POP JUMP JUMPDEST PUSH32 0x526563656976657220616464726573732063616E6E6F74206265207A65726F00 PUSH1 0x0 DUP3 ADD MSTORE POP JUMP JUMPDEST PUSH1 0x0 PUSH2 0x1C34 PUSH1 0x1F DUP4 PUSH2 0x142D JUMP JUMPDEST SWAP2 POP PUSH2 0x1C3F DUP3 PUSH2 0x1BFE JUMP JUMPDEST PUSH1 0x20 DUP3 ADD SWAP1 POP SWAP2 SWAP1 POP JUMP JUMPDEST PUSH1 0x0 PUSH1 0x20 DUP3 ADD SWAP1 POP DUP2 DUP2 SUB PUSH1 0x0 DUP4 ADD MSTORE PUSH2 0x1C63 DUP2 PUSH2 0x1C27 JUMP JUMPDEST SWAP1 POP SWAP2 SWAP1 POP JUMP JUMPDEST PUSH32 0x43616E6E6F742073656E6420616E20656D61696C20746F20796F757273656C66 PUSH1 0x0 DUP3 ADD MSTORE POP JUMP JUMPDEST PUSH1 0x0 PUSH2 0x1CA0 PUSH1 0x20 DUP4 PUSH2 0x142D JUMP JUMPDEST SWAP2 POP PUSH2 0x1CAB DUP3 PUSH2 0x1C6A JUMP JUMPDEST PUSH1 0x20 DUP3 ADD SWAP1 POP SWAP2 SWAP1 POP JUMP JUMPDEST PUSH1 0x0 PUSH1 0x20 DUP3 ADD SWAP1 POP DUP2 DUP2 SUB PUSH1 0x0 DUP4 ADD MSTORE PUSH2 0x1CCF DUP2 PUSH2 0x1C93 JUMP JUMPDEST SWAP1 POP SWAP2 SWAP1 POP JUMP JUMPDEST PUSH1 0x0 PUSH1 0x40 DUP3 ADD SWAP1 POP DUP2 DUP2 SUB PUSH1 0x0 DUP4 ADD MSTORE PUSH2 0x1CF0 DUP2 DUP6 PUSH2 0x143E JUMP JUMPDEST SWAP1 POP PUSH2 0x1CFF PUSH1 0x20 DUP4 ADD DUP5 PUSH2 0x1477 JUMP JUMPDEST SWAP4 SWAP3 POP POP POP JUMP JUMPDEST PUSH32 0x4E487B7100000000000000000000000000000000000000000000000000000000 PUSH1 0x0 MSTORE PUSH1 0x12 PUSH1 0x4 MSTORE PUSH1 0x24 PUSH1 0x0 REVERT JUMPDEST PUSH1 0x0 PUSH2 0x1D40 DUP3 PUSH2 0x1264 JUMP JUMPDEST SWAP2 POP PUSH2 0x1D4B DUP4 PUSH2 0x1264 JUMP JUMPDEST SWAP3 POP DUP3 PUSH2 0x1D5B JUMPI PUSH2 0x1D5A PUSH2 0x1D06 JUMP JUMPDEST JUMPDEST DUP3 DUP3 DIV SWAP1 POP SWAP3 SWAP2 POP POP JUMP JUMPDEST PUSH1 0x0 PUSH2 0x1D71 DUP3 PUSH2 0x1264 JUMP JUMPDEST SWAP2 POP PUSH2 0x1D7C DUP4 PUSH2 0x1264 JUMP JUMPDEST SWAP3 POP DUP3 DUP3 SUB SWAP1 POP DUP2 DUP2 GT ISZERO PUSH2 0x1D94 JUMPI PUSH2 0x1D93 PUSH2 0x175F JUMP JUMPDEST JUMPDEST SWAP3 SWAP2 POP POP JUMP JUMPDEST PUSH1 0x0 PUSH2 0x1DA5 DUP3 PUSH2 0x1264 JUMP JUMPDEST SWAP2 POP PUSH2 0x1DB0 DUP4 PUSH2 0x1264 JUMP JUMPDEST SWAP3 POP DUP3 DUP3 MUL PUSH2 0x1DBE DUP2 PUSH2 0x1264 JUMP JUMPDEST SWAP2 POP DUP3 DUP3 DIV DUP5 EQ DUP4 ISZERO OR PUSH2 0x1DD5 JUMPI PUSH2 0x1DD4 PUSH2 0x175F JUMP JUMPDEST JUMPDEST POP SWAP3 SWAP2 POP POP JUMP JUMPDEST PUSH1 0x0 PUSH1 0xFF DUP3 AND SWAP1 POP SWAP2 SWAP1 POP JUMP JUMPDEST PUSH1 0x0 PUSH2 0x1DF4 DUP3 PUSH2 0x1DDC JUMP JUMPDEST SWAP2 POP PUSH2 0x1DFF DUP4 PUSH2 0x1DDC JUMP JUMPDEST SWAP3 POP DUP3 DUP3 ADD SWAP1 POP PUSH1 0xFF DUP2 GT ISZERO PUSH2 0x1E18 JUMPI PUSH2 0x1E17 PUSH2 0x175F JUMP JUMPDEST JUMPDEST SWAP3 SWAP2 POP POP JUMP INVALID LOG2 PUSH5 0x6970667358 0x22 SLT KECCAK256 0xBA 0xBC JUMPDEST 0x4E CODESIZE PUSH3 0xBFAD13 0xF7 0x5D LOG1 0xAA DELEGATECALL 0xCC 0xE1 CODESIZE SWAP4 SWAP8 0x4C SMOD DUP1 0xEC PUSH24 0x2DFD3E5C82E7D9E464736F6C634300081200330000000000 "
				},
				"gasEstimates": {
					"creation": {
						"codeDepositCost": "1552800",
						"executionCost": "1624",
						"totalCost": "1554424"
					},
					"external": {
						"createAndAddMockEmails(address,uint256)": "infinite",
						"getEmailCount(address)": "infinite",
						"getEmailsBySender(address)": "infinite",
						"inbox(address,uint256)": "infinite",
						"sendEmail(address,string,string)": "infinite",
						"sent(address,uint256)": "infinite"
					},
					"internal": {
						"uintToString(uint256)": "infinite"
					}
				},
				"methodIdentifiers": {
					"createAndAddMockEmails(address,uint256)": "5384ea9a",
					"getEmailCount(address)": "8a887541",
					"getEmailsBySender(address)": "0da7ea40",
					"inbox(address,uint256)": "4d622e7a",
					"sendEmail(address,string,string)": "8bb89879",
					"sent(address,uint256)": "3bcb2e66"
				}
			},
			"storageLayout": {
				"storage": [
					{
						"astId": 18,
						"contract": "contracts/Mail.sol:Mail",
						"label": "inbox",
						"offset": 0,
						"slot": "0",
						"type": "t_mapping(t_address,t_array(t_struct(Email)12_storage)dyn_storage)"
					},
					{
						"astId": 24,
						"contract": "contracts/Mail.sol:Mail",
						"label": "sent",
						"offset": 0,
						"slot": "1",
						"type": "t_mapping(t_address,t_array(t_struct(Email)12_storage)dyn_storage)"
					}
				],
				"types": {
					"t_address": {
						"encoding": "inplace",
						"label": "address",
						"numberOfBytes": "20"
					},
					"t_array(t_struct(Email)12_storage)dyn_storage": {
						"base": "t_struct(Email)12_storage",
						"encoding": "dynamic_array",
						"label": "struct Mail.Email[]",
						"numberOfBytes": "32"
					},
					"t_mapping(t_address,t_array(t_struct(Email)12_storage)dyn_storage)": {
						"encoding": "mapping",
						"key": "t_address",
						"label": "mapping(address => struct Mail.Email[])",
						"numberOfBytes": "32",
						"value": "t_array(t_struct(Email)12_storage)dyn_storage"
					},
					"t_string_storage": {
						"encoding": "bytes",
						"label": "string",
						"numberOfBytes": "32"
					},
					"t_struct(Email)12_storage": {
						"encoding": "inplace",
						"label": "struct Mail.Email",
						"members": [
							{
								"astId": 3,
								"contract": "contracts/Mail.sol:Mail",
								"label": "sender",
								"offset": 0,
								"slot": "0",
								"type": "t_address"
							},
							{
								"astId": 5,
								"contract": "contracts/Mail.sol:Mail",
								"label": "receiver",
								"offset": 0,
								"slot": "1",
								"type": "t_address"
							},
							{
								"astId": 7,
								"contract": "contracts/Mail.sol:Mail",
								"label": "subject",
								"offset": 0,
								"slot": "2",
								"type": "t_string_storage"
							},
							{
								"astId": 9,
								"contract": "contracts/Mail.sol:Mail",
								"label": "message",
								"offset": 0,
								"slot": "3",
								"type": "t_string_storage"
							},
							{
								"astId": 11,
								"contract": "contracts/Mail.sol:Mail",
								"label": "timestamp",
								"offset": 0,
								"slot": "4",
								"type": "t_uint256"
							}
						],
						"numberOfBytes": "160"
					},
					"t_uint256": {
						"encoding": "inplace",
						"label": "uint256",
						"numberOfBytes": "32"
					}
				}
			},
			"userdoc": {
				"kind": "user",
				"methods": {},
				"version": 1
			}
		}
	}
}