{
	"contracts/gpt.sol": {
		"EmailContract": {
			"abi": [
				{
					"anonymous": false,
					"inputs": [
						{
							"indexed": true,
							"internalType": "address",
							"name": "sender",
							"type": "address"
						},
						{
							"indexed": true,
							"internalType": "address",
							"name": "receiver",
							"type": "address"
						},
						{
							"indexed": false,
							"internalType": "string",
							"name": "subject",
							"type": "string"
						},
						{
							"indexed": false,
							"internalType": "uint256",
							"name": "timestamp",
							"type": "uint256"
						}
					],
					"name": "EmailSent",
					"type": "event"
				},
				{
					"inputs": [
						{
							"internalType": "address",
							"name": "_user",
							"type": "address"
						}
					],
					"name": "getEmailCount",
					"outputs": [
						{
							"internalType": "uint256",
							"name": "inboxCount",
							"type": "uint256"
						},
						{
							"internalType": "uint256",
							"name": "sentCount",
							"type": "uint256"
						}
					],
					"stateMutability": "view",
					"type": "function"
				},
				{
					"inputs": [],
					"name": "getUserMessages",
					"outputs": [
						{
							"components": [
								{
									"internalType": "address",
									"name": "sender",
									"type": "address"
								},
								{
									"internalType": "address",
									"name": "receiver",
									"type": "address"
								},
								{
									"internalType": "string",
									"name": "subject",
									"type": "string"
								},
								{
									"internalType": "string",
									"name": "message",
									"type": "string"
								},
								{
									"internalType": "uint256",
									"name": "timestamp",
									"type": "uint256"
								}
							],
							"internalType": "struct EmailContract.Email[]",
							"name": "",
							"type": "tuple[]"
						}
					],
					"stateMutability": "view",
					"type": "function"
				},
				{
					"inputs": [
						{
							"internalType": "address",
							"name": "",
							"type": "address"
						},
						{
							"internalType": "uint256",
							"name": "",
							"type": "uint256"
						}
					],
					"name": "inbox",
					"outputs": [
						{
							"internalType": "address",
							"name": "sender",
							"type": "address"
						},
						{
							"internalType": "address",
							"name": "receiver",
							"type": "address"
						},
						{
							"internalType": "string",
							"name": "subject",
							"type": "string"
						},
						{
							"internalType": "string",
							"name": "message",
							"type": "string"
						},
						{
							"internalType": "uint256",
							"name": "timestamp",
							"type": "uint256"
						}
					],
					"stateMutability": "view",
					"type": "function"
				},
				{
					"inputs": [],
					"name": "printUserMessages",
					"outputs": [],
					"stateMutability": "view",
					"type": "function"
				},
				{
					"inputs": [
						{
							"internalType": "address",
							"name": "_receiver",
							"type": "address"
						},
						{
							"internalType": "string",
							"name": "_subject",
							"type": "string"
						},
						{
							"internalType": "string",
							"name": "_message",
							"type": "string"
						}
					],
					"name": "sendEmail",
					"outputs": [],
					"stateMutability": "nonpayable",
					"type": "function"
				},
				{
					"inputs": [
						{
							"internalType": "address",
							"name": "",
							"type": "address"
						},
						{
							"internalType": "uint256",
							"name": "",
							"type": "uint256"
						}
					],
					"name": "sent",
					"outputs": [
						{
							"internalType": "address",
							"name": "sender",
							"type": "address"
						},
						{
							"internalType": "address",
							"name": "receiver",
							"type": "address"
						},
						{
							"internalType": "string",
							"name": "subject",
							"type": "string"
						},
						{
							"internalType": "string",
							"name": "message",
							"type": "string"
						},
						{
							"internalType": "uint256",
							"name": "timestamp",
							"type": "uint256"
						}
					],
					"stateMutability": "view",
					"type": "function"
				}
			],
			"devdoc": {
				"kind": "dev",
				"methods": {},
				"version": 1
			},
			"evm": {
				"assembly": "    /* \"contracts/gpt.sol\":60:1707  contract EmailContract {... */\n  mstore(0x40, 0x80)\n  callvalue\n  dup1\n  iszero\n  tag_1\n  jumpi\n  0x00\n  dup1\n  revert\ntag_1:\n  pop\n  dataSize(sub_0)\n  dup1\n  dataOffset(sub_0)\n  0x00\n  codecopy\n  0x00\n  return\nstop\n\nsub_0: assembly {\n        /* \"contracts/gpt.sol\":60:1707  contract EmailContract {... */\n      mstore(0x40, 0x80)\n      callvalue\n      dup1\n      iszero\n      tag_1\n      jumpi\n      0x00\n      dup1\n      revert\n    tag_1:\n      pop\n      jumpi(tag_2, lt(calldatasize, 0x04))\n      shr(0xe0, calldataload(0x00))\n      dup1\n      0x3bcb2e66\n      eq\n      tag_3\n      jumpi\n      dup1\n      0x4d622e7a\n      eq\n      tag_4\n      jumpi\n      dup1\n      0x4d7206ab\n      eq\n      tag_5\n      jumpi\n      dup1\n      0x792f6183\n      eq\n      tag_6\n      jumpi\n      dup1\n      0x8a887541\n      eq\n      tag_7\n      jumpi\n      dup1\n      0x8bb89879\n      eq\n      tag_8\n      jumpi\n    tag_2:\n      0x00\n      dup1\n      revert\n        /* \"contracts/gpt.sol\":298:337  mapping(address => Email[]) public sent */\n    tag_3:\n      tag_9\n      0x04\n      dup1\n      calldatasize\n      sub\n      dup2\n      add\n      swap1\n      tag_10\n      swap2\n      swap1\n      tag_11\n      jump\t// in\n    tag_10:\n      tag_12\n      jump\t// in\n    tag_9:\n      mload(0x40)\n      tag_13\n      swap6\n      swap5\n      swap4\n      swap3\n      swap2\n      swap1\n      tag_14\n      jump\t// in\n    tag_13:\n      mload(0x40)\n      dup1\n      swap2\n      sub\n      swap1\n      return\n        /* \"contracts/gpt.sol\":251:291  mapping(address => Email[]) public inbox */\n    tag_4:\n      tag_15\n      0x04\n      dup1\n      calldatasize\n      sub\n      dup2\n      add\n      swap1\n      tag_16\n      swap2\n      swap1\n      tag_11\n      jump\t// in\n    tag_16:\n      tag_17\n      jump\t// in\n    tag_15:\n      mload(0x40)\n      tag_18\n      swap6\n      swap5\n      swap4\n      swap3\n      swap2\n      swap1\n      tag_14\n      jump\t// in\n    tag_18:\n      mload(0x40)\n      dup1\n      swap2\n      sub\n      swap1\n      return\n        /* \"contracts/gpt.sol\":1475:1702  function printUserMessages() public view {... */\n    tag_5:\n      tag_19\n      tag_20\n      jump\t// in\n    tag_19:\n      stop\n        /* \"contracts/gpt.sol\":1356:1463  function getUserMessages() public view returns (Email[] memory) {... */\n    tag_6:\n      tag_21\n      tag_22\n      jump\t// in\n    tag_21:\n      mload(0x40)\n      tag_23\n      swap2\n      swap1\n      tag_24\n      jump\t// in\n    tag_23:\n      mload(0x40)\n      dup1\n      swap2\n      sub\n      swap1\n      return\n        /* \"contracts/gpt.sol\":1154:1344  function getEmailCount(address _user) public view returns (uint256 inboxCount, uint256 sentCount) {... */\n    tag_7:\n      tag_25\n      0x04\n      dup1\n      calldatasize\n      sub\n      dup2\n      add\n      swap1\n      tag_26\n      swap2\n      swap1\n      tag_27\n      jump\t// in\n    tag_26:\n      tag_28\n      jump\t// in\n    tag_25:\n      mload(0x40)\n      tag_29\n      swap3\n      swap2\n      swap1\n      tag_30\n      jump\t// in\n    tag_29:\n      mload(0x40)\n      dup1\n      swap2\n      sub\n      swap1\n      return\n        /* \"contracts/gpt.sol\":498:1146  function sendEmail(address _receiver, string memory _subject, string memory _message) public {... */\n    tag_8:\n      tag_31\n      0x04\n      dup1\n      calldatasize\n      sub\n      dup2\n      add\n      swap1\n      tag_32\n      swap2\n      swap1\n      tag_33\n      jump\t// in\n    tag_32:\n      tag_34\n      jump\t// in\n    tag_31:\n      stop\n        /* \"contracts/gpt.sol\":298:337  mapping(address => Email[]) public sent */\n    tag_12:\n      mstore(0x20, 0x01)\n      dup2\n      0x00\n      mstore\n      keccak256(0x00, 0x40)\n      dup2\n      dup2\n      sload\n      dup2\n      lt\n      tag_35\n      jumpi\n      0x00\n      dup1\n      revert\n    tag_35:\n      swap1\n      0x00\n      mstore\n      keccak256(0x00, 0x20)\n      swap1\n      0x05\n      mul\n      add\n      0x00\n      swap2\n      pop\n      swap2\n      pop\n      pop\n      dup1\n      0x00\n      add\n      0x00\n      swap1\n      sload\n      swap1\n      0x0100\n      exp\n      swap1\n      div\n      0xffffffffffffffffffffffffffffffffffffffff\n      and\n      swap1\n      dup1\n      0x01\n      add\n      0x00\n      swap1\n      sload\n      swap1\n      0x0100\n      exp\n      swap1\n      div\n      0xffffffffffffffffffffffffffffffffffffffff\n      and\n      swap1\n      dup1\n      0x02\n      add\n      dup1\n      sload\n      tag_37\n      swap1\n      tag_38\n      jump\t// in\n    tag_37:\n      dup1\n      0x1f\n      add\n      0x20\n      dup1\n      swap2\n      div\n      mul\n      0x20\n      add\n      mload(0x40)\n      swap1\n      dup2\n      add\n      0x40\n      mstore\n      dup1\n      swap3\n      swap2\n      swap1\n      dup2\n      dup2\n      mstore\n      0x20\n      add\n      dup3\n      dup1\n      sload\n      tag_39\n      swap1\n      tag_38\n      jump\t// in\n    tag_39:\n      dup1\n      iszero\n      tag_40\n      jumpi\n      dup1\n      0x1f\n      lt\n      tag_41\n      jumpi\n      0x0100\n      dup1\n      dup4\n      sload\n      div\n      mul\n      dup4\n      mstore\n      swap2\n      0x20\n      add\n      swap2\n      jump(tag_40)\n    tag_41:\n      dup3\n      add\n      swap2\n      swap1\n      0x00\n      mstore\n      keccak256(0x00, 0x20)\n      swap1\n    tag_42:\n      dup2\n      sload\n      dup2\n      mstore\n      swap1\n      0x01\n      add\n      swap1\n      0x20\n      add\n      dup1\n      dup4\n      gt\n      tag_42\n      jumpi\n      dup3\n      swap1\n      sub\n      0x1f\n      and\n      dup3\n      add\n      swap2\n    tag_40:\n      pop\n      pop\n      pop\n      pop\n      pop\n      swap1\n      dup1\n      0x03\n      add\n      dup1\n      sload\n      tag_43\n      swap1\n      tag_38\n      jump\t// in\n    tag_43:\n      dup1\n      0x1f\n      add\n      0x20\n      dup1\n      swap2\n      div\n      mul\n      0x20\n      add\n      mload(0x40)\n      swap1\n      dup2\n      add\n      0x40\n      mstore\n      dup1\n      swap3\n      swap2\n      swap1\n      dup2\n      dup2\n      mstore\n      0x20\n      add\n      dup3\n      dup1\n      sload\n      tag_44\n      swap1\n      tag_38\n      jump\t// in\n    tag_44:\n      dup1\n      iszero\n      tag_45\n      jumpi\n      dup1\n      0x1f\n      lt\n      tag_46\n      jumpi\n      0x0100\n      dup1\n      dup4\n      sload\n      div\n      mul\n      dup4\n      mstore\n      swap2\n      0x20\n      add\n      swap2\n      jump(tag_45)\n    tag_46:\n      dup3\n      add\n      swap2\n      swap1\n      0x00\n      mstore\n      keccak256(0x00, 0x20)\n      swap1\n    tag_47:\n      dup2\n      sload\n      dup2\n      mstore\n      swap1\n      0x01\n      add\n      swap1\n      0x20\n      add\n      dup1\n      dup4\n      gt\n      tag_47\n      jumpi\n      dup3\n      swap1\n      sub\n      0x1f\n      and\n      dup3\n      add\n      swap2\n    tag_45:\n      pop\n      pop\n      pop\n      pop\n      pop\n      swap1\n      dup1\n      0x04\n      add\n      sload\n      swap1\n      pop\n      dup6\n      jump\t// out\n        /* \"contracts/gpt.sol\":251:291  mapping(address => Email[]) public inbox */\n    tag_17:\n      mstore(0x20, 0x00)\n      dup2\n      0x00\n      mstore\n      keccak256(0x00, 0x40)\n      dup2\n      dup2\n      sload\n      dup2\n      lt\n      tag_48\n      jumpi\n      0x00\n      dup1\n      revert\n    tag_48:\n      swap1\n      0x00\n      mstore\n      keccak256(0x00, 0x20)\n      swap1\n      0x05\n      mul\n      add\n      0x00\n      swap2\n      pop\n      swap2\n      pop\n      pop\n      dup1\n      0x00\n      add\n      0x00\n      swap1\n      sload\n      swap1\n      0x0100\n      exp\n      swap1\n      div\n      0xffffffffffffffffffffffffffffffffffffffff\n      and\n      swap1\n      dup1\n      0x01\n      add\n      0x00\n      swap1\n      sload\n      swap1\n      0x0100\n      exp\n      swap1\n      div\n      0xffffffffffffffffffffffffffffffffffffffff\n      and\n      swap1\n      dup1\n      0x02\n      add\n      dup1\n      sload\n      tag_50\n      swap1\n      tag_38\n      jump\t// in\n    tag_50:\n      dup1\n      0x1f\n      add\n      0x20\n      dup1\n      swap2\n      div\n      mul\n      0x20\n      add\n      mload(0x40)\n      swap1\n      dup2\n      add\n      0x40\n      mstore\n      dup1\n      swap3\n      swap2\n      swap1\n      dup2\n      dup2\n      mstore\n      0x20\n      add\n      dup3\n      dup1\n      sload\n      tag_51\n      swap1\n      tag_38\n      jump\t// in\n    tag_51:\n      dup1\n      iszero\n      tag_52\n      jumpi\n      dup1\n      0x1f\n      lt\n      tag_53\n      jumpi\n      0x0100\n      dup1\n      dup4\n      sload\n      div\n      mul\n      dup4\n      mstore\n      swap2\n      0x20\n      add\n      swap2\n      jump(tag_52)\n    tag_53:\n      dup3\n      add\n      swap2\n      swap1\n      0x00\n      mstore\n      keccak256(0x00, 0x20)\n      swap1\n    tag_54:\n      dup2\n      sload\n      dup2\n      mstore\n      swap1\n      0x01\n      add\n      swap1\n      0x20\n      add\n      dup1\n      dup4\n      gt\n      tag_54\n      jumpi\n      dup3\n      swap1\n      sub\n      0x1f\n      and\n      dup3\n      add\n      swap2\n    tag_52:\n      pop\n      pop\n      pop\n      pop\n      pop\n      swap1\n      dup1\n      0x03\n      add\n      dup1\n      sload\n      tag_55\n      swap1\n      tag_38\n      jump\t// in\n    tag_55:\n      dup1\n      0x1f\n      add\n      0x20\n      dup1\n      swap2\n      div\n      mul\n      0x20\n      add\n      mload(0x40)\n      swap1\n      dup2\n      add\n      0x40\n      mstore\n      dup1\n      swap3\n      swap2\n      swap1\n      dup2\n      dup2\n      mstore\n      0x20\n      add\n      dup3\n      dup1\n      sload\n      tag_56\n      swap1\n      tag_38\n      jump\t// in\n    tag_56:\n      dup1\n      iszero\n      tag_57\n      jumpi\n      dup1\n      0x1f\n      lt\n      tag_58\n      jumpi\n      0x0100\n      dup1\n      dup4\n      sload\n      div\n      mul\n      dup4\n      mstore\n      swap2\n      0x20\n      add\n      swap2\n      jump(tag_57)\n    tag_58:\n      dup3\n      add\n      swap2\n      swap1\n      0x00\n      mstore\n      keccak256(0x00, 0x20)\n      swap1\n    tag_59:\n      dup2\n      sload\n      dup2\n      mstore\n      swap1\n      0x01\n      add\n      swap1\n      0x20\n      add\n      dup1\n      dup4\n      gt\n      tag_59\n      jumpi\n      dup3\n      swap1\n      sub\n      0x1f\n      and\n      dup3\n      add\n      swap2\n    tag_57:\n      pop\n      pop\n      pop\n      pop\n      pop\n      swap1\n      dup1\n      0x04\n      add\n      sload\n      swap1\n      pop\n      dup6\n      jump\t// out\n        /* \"contracts/gpt.sol\":1475:1702  function printUserMessages() public view {... */\n    tag_20:\n        /* \"contracts/gpt.sol\":1531:1554  Email[] memory messages */\n      0x00\n        /* \"contracts/gpt.sol\":1557:1562  inbox */\n      dup1\n        /* \"contracts/gpt.sol\":1557:1574  inbox[msg.sender] */\n      0x00\n        /* \"contracts/gpt.sol\":1563:1573  msg.sender */\n      caller\n        /* \"contracts/gpt.sol\":1557:1574  inbox[msg.sender] */\n      0xffffffffffffffffffffffffffffffffffffffff\n      and\n      0xffffffffffffffffffffffffffffffffffffffff\n      and\n      dup2\n      mstore\n      0x20\n      add\n      swap1\n      dup2\n      mstore\n      0x20\n      add\n      0x00\n      keccak256\n        /* \"contracts/gpt.sol\":1531:1574  Email[] memory messages = inbox[msg.sender] */\n      dup1\n      sload\n      dup1\n      0x20\n      mul\n      0x20\n      add\n      mload(0x40)\n      swap1\n      dup2\n      add\n      0x40\n      mstore\n      dup1\n      swap3\n      swap2\n      swap1\n      dup2\n      dup2\n      mstore\n      0x20\n      add\n      0x00\n      swap1\n    tag_61:\n      dup3\n      dup3\n      lt\n      iszero\n      tag_62\n      jumpi\n      dup4\n      dup3\n      swap1\n      0x00\n      mstore\n      keccak256(0x00, 0x20)\n      swap1\n      0x05\n      mul\n      add\n      mload(0x40)\n      dup1\n      0xa0\n      add\n      0x40\n      mstore\n      swap1\n      dup2\n      0x00\n      dup3\n      add\n      0x00\n      swap1\n      sload\n      swap1\n      0x0100\n      exp\n      swap1\n      div\n      0xffffffffffffffffffffffffffffffffffffffff\n      and\n      0xffffffffffffffffffffffffffffffffffffffff\n      and\n      0xffffffffffffffffffffffffffffffffffffffff\n      and\n      dup2\n      mstore\n      0x20\n      add\n      0x01\n      dup3\n      add\n      0x00\n      swap1\n      sload\n      swap1\n      0x0100\n      exp\n      swap1\n      div\n      0xffffffffffffffffffffffffffffffffffffffff\n      and\n      0xffffffffffffffffffffffffffffffffffffffff\n      and\n      0xffffffffffffffffffffffffffffffffffffffff\n      and\n      dup2\n      mstore\n      0x20\n      add\n      0x02\n      dup3\n      add\n      dup1\n      sload\n      tag_64\n      swap1\n      tag_38\n      jump\t// in\n    tag_64:\n      dup1\n      0x1f\n      add\n      0x20\n      dup1\n      swap2\n      div\n      mul\n      0x20\n      add\n      mload(0x40)\n      swap1\n      dup2\n      add\n      0x40\n      mstore\n      dup1\n      swap3\n      swap2\n      swap1\n      dup2\n      dup2\n      mstore\n      0x20\n      add\n      dup3\n      dup1\n      sload\n      tag_65\n      swap1\n      tag_38\n      jump\t// in\n    tag_65:\n      dup1\n      iszero\n      tag_66\n      jumpi\n      dup1\n      0x1f\n      lt\n      tag_67\n      jumpi\n      0x0100\n      dup1\n      dup4\n      sload\n      div\n      mul\n      dup4\n      mstore\n      swap2\n      0x20\n      add\n      swap2\n      jump(tag_66)\n    tag_67:\n      dup3\n      add\n      swap2\n      swap1\n      0x00\n      mstore\n      keccak256(0x00, 0x20)\n      swap1\n    tag_68:\n      dup2\n      sload\n      dup2\n      mstore\n      swap1\n      0x01\n      add\n      swap1\n      0x20\n      add\n      dup1\n      dup4\n      gt\n      tag_68\n      jumpi\n      dup3\n      swap1\n      sub\n      0x1f\n      and\n      dup3\n      add\n      swap2\n    tag_66:\n      pop\n      pop\n      pop\n      pop\n      pop\n      dup2\n      mstore\n      0x20\n      add\n      0x03\n      dup3\n      add\n      dup1\n      sload\n      tag_69\n      swap1\n      tag_38\n      jump\t// in\n    tag_69:\n      dup1\n      0x1f\n      add\n      0x20\n      dup1\n      swap2\n      div\n      mul\n      0x20\n      add\n      mload(0x40)\n      swap1\n      dup2\n      add\n      0x40\n      mstore\n      dup1\n      swap3\n      swap2\n      swap1\n      dup2\n      dup2\n      mstore\n      0x20\n      add\n      dup3\n      dup1\n      sload\n      tag_70\n      swap1\n      tag_38\n      jump\t// in\n    tag_70:\n      dup1\n      iszero\n      tag_71\n      jumpi\n      dup1\n      0x1f\n      lt\n      tag_72\n      jumpi\n      0x0100\n      dup1\n      dup4\n      sload\n      div\n      mul\n      dup4\n      mstore\n      swap2\n      0x20\n      add\n      swap2\n      jump(tag_71)\n    tag_72:\n      dup3\n      add\n      swap2\n      swap1\n      0x00\n      mstore\n      keccak256(0x00, 0x20)\n      swap1\n    tag_73:\n      dup2\n      sload\n      dup2\n      mstore\n      swap1\n      0x01\n      add\n      swap1\n      0x20\n      add\n      dup1\n      dup4\n      gt\n      tag_73\n      jumpi\n      dup3\n      swap1\n      sub\n      0x1f\n      and\n      dup3\n      add\n      swap2\n    tag_71:\n      pop\n      pop\n      pop\n      pop\n      pop\n      dup2\n      mstore\n      0x20\n      add\n      0x04\n      dup3\n      add\n      sload\n      dup2\n      mstore\n      pop\n      pop\n      dup2\n      mstore\n      0x20\n      add\n      swap1\n      0x01\n      add\n      swap1\n      jump(tag_61)\n    tag_62:\n      pop\n      pop\n      pop\n      pop\n      swap1\n      pop\n        /* \"contracts/gpt.sol\":1594:1600  uint i */\n      0x00\n        /* \"contracts/gpt.sol\":1589:1691  for (uint i = 0; i< messages.length; i++) ... */\n    tag_74:\n        /* \"contracts/gpt.sol\":1609:1617  messages */\n      dup2\n        /* \"contracts/gpt.sol\":1609:1624  messages.length */\n      mload\n        /* \"contracts/gpt.sol\":1606:1607  i */\n      dup2\n        /* \"contracts/gpt.sol\":1606:1624  i< messages.length */\n      lt\n        /* \"contracts/gpt.sol\":1589:1691  for (uint i = 0; i< messages.length; i++) ... */\n      iszero\n      tag_75\n      jumpi\n        /* \"contracts/gpt.sol\":1664:1672  messages */\n      dup2\n        /* \"contracts/gpt.sol\":1673:1674  i */\n      dup2\n        /* \"contracts/gpt.sol\":1664:1675  messages[i] */\n      dup2\n      mload\n      dup2\n      lt\n      tag_77\n      jumpi\n      tag_78\n      tag_79\n      jump\t// in\n    tag_78:\n    tag_77:\n      0x20\n      mul\n      0x20\n      add\n      add\n      mload\n      pop\n        /* \"contracts/gpt.sol\":1626:1629  i++ */\n      dup1\n      dup1\n      tag_80\n      swap1\n      tag_81\n      jump\t// in\n    tag_80:\n      swap2\n      pop\n      pop\n        /* \"contracts/gpt.sol\":1589:1691  for (uint i = 0; i< messages.length; i++) ... */\n      jump(tag_74)\n    tag_75:\n      pop\n        /* \"contracts/gpt.sol\":1516:1702  {... */\n      pop\n        /* \"contracts/gpt.sol\":1475:1702  function printUserMessages() public view {... */\n      jump\t// out\n        /* \"contracts/gpt.sol\":1356:1463  function getUserMessages() public view returns (Email[] memory) {... */\n    tag_22:\n        /* \"contracts/gpt.sol\":1404:1418  Email[] memory */\n      0x60\n        /* \"contracts/gpt.sol\":1438:1443  inbox */\n      0x00\n        /* \"contracts/gpt.sol\":1438:1455  inbox[msg.sender] */\n      dup1\n        /* \"contracts/gpt.sol\":1444:1454  msg.sender */\n      caller\n        /* \"contracts/gpt.sol\":1438:1455  inbox[msg.sender] */\n      0xffffffffffffffffffffffffffffffffffffffff\n      and\n      0xffffffffffffffffffffffffffffffffffffffff\n      and\n      dup2\n      mstore\n      0x20\n      add\n      swap1\n      dup2\n      mstore\n      0x20\n      add\n      0x00\n      keccak256\n        /* \"contracts/gpt.sol\":1431:1455  return inbox[msg.sender] */\n      dup1\n      sload\n      dup1\n      0x20\n      mul\n      0x20\n      add\n      mload(0x40)\n      swap1\n      dup2\n      add\n      0x40\n      mstore\n      dup1\n      swap3\n      swap2\n      swap1\n      dup2\n      dup2\n      mstore\n      0x20\n      add\n      0x00\n      swap1\n    tag_83:\n      dup3\n      dup3\n      lt\n      iszero\n      tag_84\n      jumpi\n      dup4\n      dup3\n      swap1\n      0x00\n      mstore\n      keccak256(0x00, 0x20)\n      swap1\n      0x05\n      mul\n      add\n      mload(0x40)\n      dup1\n      0xa0\n      add\n      0x40\n      mstore\n      swap1\n      dup2\n      0x00\n      dup3\n      add\n      0x00\n      swap1\n      sload\n      swap1\n      0x0100\n      exp\n      swap1\n      div\n      0xffffffffffffffffffffffffffffffffffffffff\n      and\n      0xffffffffffffffffffffffffffffffffffffffff\n      and\n      0xffffffffffffffffffffffffffffffffffffffff\n      and\n      dup2\n      mstore\n      0x20\n      add\n      0x01\n      dup3\n      add\n      0x00\n      swap1\n      sload\n      swap1\n      0x0100\n      exp\n      swap1\n      div\n      0xffffffffffffffffffffffffffffffffffffffff\n      and\n      0xffffffffffffffffffffffffffffffffffffffff\n      and\n      0xffffffffffffffffffffffffffffffffffffffff\n      and\n      dup2\n      mstore\n      0x20\n      add\n      0x02\n      dup3\n      add\n      dup1\n      sload\n      tag_86\n      swap1\n      tag_38\n      jump\t// in\n    tag_86:\n      dup1\n      0x1f\n      add\n      0x20\n      dup1\n      swap2\n      div\n      mul\n      0x20\n      add\n      mload(0x40)\n      swap1\n      dup2\n      add\n      0x40\n      mstore\n      dup1\n      swap3\n      swap2\n      swap1\n      dup2\n      dup2\n      mstore\n      0x20\n      add\n      dup3\n      dup1\n      sload\n      tag_87\n      swap1\n      tag_38\n      jump\t// in\n    tag_87:\n      dup1\n      iszero\n      tag_88\n      jumpi\n      dup1\n      0x1f\n      lt\n      tag_89\n      jumpi\n      0x0100\n      dup1\n      dup4\n      sload\n      div\n      mul\n      dup4\n      mstore\n      swap2\n      0x20\n      add\n      swap2\n      jump(tag_88)\n    tag_89:\n      dup3\n      add\n      swap2\n      swap1\n      0x00\n      mstore\n      keccak256(0x00, 0x20)\n      swap1\n    tag_90:\n      dup2\n      sload\n      dup2\n      mstore\n      swap1\n      0x01\n      add\n      swap1\n      0x20\n      add\n      dup1\n      dup4\n      gt\n      tag_90\n      jumpi\n      dup3\n      swap1\n      sub\n      0x1f\n      and\n      dup3\n      add\n      swap2\n    tag_88:\n      pop\n      pop\n      pop\n      pop\n      pop\n      dup2\n      mstore\n      0x20\n      add\n      0x03\n      dup3\n      add\n      dup1\n      sload\n      tag_91\n      swap1\n      tag_38\n      jump\t// in\n    tag_91:\n      dup1\n      0x1f\n      add\n      0x20\n      dup1\n      swap2\n      div\n      mul\n      0x20\n      add\n      mload(0x40)\n      swap1\n      dup2\n      add\n      0x40\n      mstore\n      dup1\n      swap3\n      swap2\n      swap1\n      dup2\n      dup2\n      mstore\n      0x20\n      add\n      dup3\n      dup1\n      sload\n      tag_92\n      swap1\n      tag_38\n      jump\t// in\n    tag_92:\n      dup1\n      iszero\n      tag_93\n      jumpi\n      dup1\n      0x1f\n      lt\n      tag_94\n      jumpi\n      0x0100\n      dup1\n      dup4\n      sload\n      div\n      mul\n      dup4\n      mstore\n      swap2\n      0x20\n      add\n      swap2\n      jump(tag_93)\n    tag_94:\n      dup3\n      add\n      swap2\n      swap1\n      0x00\n      mstore\n      keccak256(0x00, 0x20)\n      swap1\n    tag_95:\n      dup2\n      sload\n      dup2\n      mstore\n      swap1\n      0x01\n      add\n      swap1\n      0x20\n      add\n      dup1\n      dup4\n      gt\n      tag_95\n      jumpi\n      dup3\n      swap1\n      sub\n      0x1f\n      and\n      dup3\n      add\n      swap2\n    tag_93:\n      pop\n      pop\n      pop\n      pop\n      pop\n      dup2\n      mstore\n      0x20\n      add\n      0x04\n      dup3\n      add\n      sload\n      dup2\n      mstore\n      pop\n      pop\n      dup2\n      mstore\n      0x20\n      add\n      swap1\n      0x01\n      add\n      swap1\n      jump(tag_83)\n    tag_84:\n      pop\n      pop\n      pop\n      pop\n      swap1\n      pop\n        /* \"contracts/gpt.sol\":1356:1463  function getUserMessages() public view returns (Email[] memory) {... */\n      swap1\n      jump\t// out\n        /* \"contracts/gpt.sol\":1154:1344  function getEmailCount(address _user) public view returns (uint256 inboxCount, uint256 sentCount) {... */\n    tag_28:\n        /* \"contracts/gpt.sol\":1213:1231  uint256 inboxCount */\n      0x00\n        /* \"contracts/gpt.sol\":1233:1250  uint256 sentCount */\n      dup1\n        /* \"contracts/gpt.sol\":1276:1281  inbox */\n      0x00\n        /* \"contracts/gpt.sol\":1276:1288  inbox[_user] */\n      dup1\n        /* \"contracts/gpt.sol\":1282:1287  _user */\n      dup5\n        /* \"contracts/gpt.sol\":1276:1288  inbox[_user] */\n      0xffffffffffffffffffffffffffffffffffffffff\n      and\n      0xffffffffffffffffffffffffffffffffffffffff\n      and\n      dup2\n      mstore\n      0x20\n      add\n      swap1\n      dup2\n      mstore\n      0x20\n      add\n      0x00\n      keccak256\n        /* \"contracts/gpt.sol\":1276:1295  inbox[_user].length */\n      dup1\n      sload\n      swap1\n      pop\n        /* \"contracts/gpt.sol\":1263:1295  inboxCount = inbox[_user].length */\n      swap2\n      pop\n        /* \"contracts/gpt.sol\":1318:1322  sent */\n      0x01\n        /* \"contracts/gpt.sol\":1318:1329  sent[_user] */\n      0x00\n        /* \"contracts/gpt.sol\":1323:1328  _user */\n      dup5\n        /* \"contracts/gpt.sol\":1318:1329  sent[_user] */\n      0xffffffffffffffffffffffffffffffffffffffff\n      and\n      0xffffffffffffffffffffffffffffffffffffffff\n      and\n      dup2\n      mstore\n      0x20\n      add\n      swap1\n      dup2\n      mstore\n      0x20\n      add\n      0x00\n      keccak256\n        /* \"contracts/gpt.sol\":1318:1336  sent[_user].length */\n      dup1\n      sload\n      swap1\n      pop\n        /* \"contracts/gpt.sol\":1306:1336  sentCount = sent[_user].length */\n      swap1\n      pop\n        /* \"contracts/gpt.sol\":1154:1344  function getEmailCount(address _user) public view returns (uint256 inboxCount, uint256 sentCount) {... */\n      swap2\n      pop\n      swap2\n      jump\t// out\n        /* \"contracts/gpt.sol\":498:1146  function sendEmail(address _receiver, string memory _subject, string memory _message) public {... */\n    tag_34:\n        /* \"contracts/gpt.sol\":631:632  0 */\n      0x00\n        /* \"contracts/gpt.sol\":610:633  _receiver != address(0) */\n      0xffffffffffffffffffffffffffffffffffffffff\n      and\n        /* \"contracts/gpt.sol\":610:619  _receiver */\n      dup4\n        /* \"contracts/gpt.sol\":610:633  _receiver != address(0) */\n      0xffffffffffffffffffffffffffffffffffffffff\n      and\n      sub\n        /* \"contracts/gpt.sol\":602:669  require(_receiver != address(0), \"Receiver address cannot be zero\") */\n      tag_98\n      jumpi\n      mload(0x40)\n      0x08c379a000000000000000000000000000000000000000000000000000000000\n      dup2\n      mstore\n      0x04\n      add\n      tag_99\n      swap1\n      tag_100\n      jump\t// in\n    tag_99:\n      mload(0x40)\n      dup1\n      swap2\n      sub\n      swap1\n      revert\n    tag_98:\n        /* \"contracts/gpt.sol\":702:711  _receiver */\n      dup3\n        /* \"contracts/gpt.sol\":688:711  msg.sender != _receiver */\n      0xffffffffffffffffffffffffffffffffffffffff\n      and\n        /* \"contracts/gpt.sol\":688:698  msg.sender */\n      caller\n        /* \"contracts/gpt.sol\":688:711  msg.sender != _receiver */\n      0xffffffffffffffffffffffffffffffffffffffff\n      and\n      sub\n        /* \"contracts/gpt.sol\":680:748  require(msg.sender != _receiver, \"Cannot send an email to yourself\") */\n      tag_101\n      jumpi\n      mload(0x40)\n      0x08c379a000000000000000000000000000000000000000000000000000000000\n      dup2\n      mstore\n      0x04\n      add\n      tag_102\n      swap1\n      tag_103\n      jump\t// in\n    tag_102:\n      mload(0x40)\n      dup1\n      swap2\n      sub\n      swap1\n      revert\n    tag_101:\n        /* \"contracts/gpt.sol\":761:782  Email memory newEmail */\n      0x00\n        /* \"contracts/gpt.sol\":785:975  Email({... */\n      mload(0x40)\n      dup1\n      0xa0\n      add\n      0x40\n      mstore\n      dup1\n        /* \"contracts/gpt.sol\":814:824  msg.sender */\n      caller\n        /* \"contracts/gpt.sol\":785:975  Email({... */\n      0xffffffffffffffffffffffffffffffffffffffff\n      and\n      dup2\n      mstore\n      0x20\n      add\n        /* \"contracts/gpt.sol\":849:858  _receiver */\n      dup6\n        /* \"contracts/gpt.sol\":785:975  Email({... */\n      0xffffffffffffffffffffffffffffffffffffffff\n      and\n      dup2\n      mstore\n      0x20\n      add\n        /* \"contracts/gpt.sol\":882:890  _subject */\n      dup5\n        /* \"contracts/gpt.sol\":785:975  Email({... */\n      dup2\n      mstore\n      0x20\n      add\n        /* \"contracts/gpt.sol\":914:922  _message */\n      dup4\n        /* \"contracts/gpt.sol\":785:975  Email({... */\n      dup2\n      mstore\n      0x20\n      add\n        /* \"contracts/gpt.sol\":948:963  block.timestamp */\n      timestamp\n        /* \"contracts/gpt.sol\":785:975  Email({... */\n      dup2\n      mstore\n      pop\n        /* \"contracts/gpt.sol\":761:975  Email memory newEmail = Email({... */\n      swap1\n      pop\n        /* \"contracts/gpt.sol\":988:993  inbox */\n      0x00\n        /* \"contracts/gpt.sol\":988:1004  inbox[_receiver] */\n      dup1\n        /* \"contracts/gpt.sol\":994:1003  _receiver */\n      dup6\n        /* \"contracts/gpt.sol\":988:1004  inbox[_receiver] */\n      0xffffffffffffffffffffffffffffffffffffffff\n      and\n      0xffffffffffffffffffffffffffffffffffffffff\n      and\n      dup2\n      mstore\n      0x20\n      add\n      swap1\n      dup2\n      mstore\n      0x20\n      add\n      0x00\n      keccak256\n        /* \"contracts/gpt.sol\":1010:1018  newEmail */\n      dup2\n        /* \"contracts/gpt.sol\":988:1019  inbox[_receiver].push(newEmail) */\n      swap1\n      dup1\n      0x01\n      dup2\n      sload\n      add\n      dup1\n      dup3\n      sstore\n      dup1\n      swap2\n      pop\n      pop\n      0x01\n      swap1\n      sub\n      swap1\n      0x00\n      mstore\n      keccak256(0x00, 0x20)\n      swap1\n      0x05\n      mul\n      add\n      0x00\n      swap1\n      swap2\n      swap1\n      swap2\n      swap1\n      swap2\n      pop\n      0x00\n      dup3\n      add\n      mload\n      dup2\n      0x00\n      add\n      exp(0x0100, 0x00)\n      dup2\n      sload\n      dup2\n      0xffffffffffffffffffffffffffffffffffffffff\n      mul\n      not\n      and\n      swap1\n      dup4\n      0xffffffffffffffffffffffffffffffffffffffff\n      and\n      mul\n      or\n      swap1\n      sstore\n      pop\n      0x20\n      dup3\n      add\n      mload\n      dup2\n      0x01\n      add\n      exp(0x0100, 0x00)\n      dup2\n      sload\n      dup2\n      0xffffffffffffffffffffffffffffffffffffffff\n      mul\n      not\n      and\n      swap1\n      dup4\n      0xffffffffffffffffffffffffffffffffffffffff\n      and\n      mul\n      or\n      swap1\n      sstore\n      pop\n      0x40\n      dup3\n      add\n      mload\n      dup2\n      0x02\n      add\n      swap1\n      dup2\n      tag_105\n      swap2\n      swap1\n      tag_106\n      jump\t// in\n    tag_105:\n      pop\n      0x60\n      dup3\n      add\n      mload\n      dup2\n      0x03\n      add\n      swap1\n      dup2\n      tag_107\n      swap2\n      swap1\n      tag_106\n      jump\t// in\n    tag_107:\n      pop\n      0x80\n      dup3\n      add\n      mload\n      dup2\n      0x04\n      add\n      sstore\n      pop\n      pop\n        /* \"contracts/gpt.sol\":1030:1034  sent */\n      0x01\n        /* \"contracts/gpt.sol\":1030:1046  sent[msg.sender] */\n      0x00\n        /* \"contracts/gpt.sol\":1035:1045  msg.sender */\n      caller\n        /* \"contracts/gpt.sol\":1030:1046  sent[msg.sender] */\n      0xffffffffffffffffffffffffffffffffffffffff\n      and\n      0xffffffffffffffffffffffffffffffffffffffff\n      and\n      dup2\n      mstore\n      0x20\n      add\n      swap1\n      dup2\n      mstore\n      0x20\n      add\n      0x00\n      keccak256\n        /* \"contracts/gpt.sol\":1052:1060  newEmail */\n      dup2\n        /* \"contracts/gpt.sol\":1030:1061  sent[msg.sender].push(newEmail) */\n      swap1\n      dup1\n      0x01\n      dup2\n      sload\n      add\n      dup1\n      dup3\n      sstore\n      dup1\n      swap2\n      pop\n      pop\n      0x01\n      swap1\n      sub\n      swap1\n      0x00\n      mstore\n      keccak256(0x00, 0x20)\n      swap1\n      0x05\n      mul\n      add\n      0x00\n      swap1\n      swap2\n      swap1\n      swap2\n      swap1\n      swap2\n      pop\n      0x00\n      dup3\n      add\n      mload\n      dup2\n      0x00\n      add\n      exp(0x0100, 0x00)\n      dup2\n      sload\n      dup2\n      0xffffffffffffffffffffffffffffffffffffffff\n      mul\n      not\n      and\n      swap1\n      dup4\n      0xffffffffffffffffffffffffffffffffffffffff\n      and\n      mul\n      or\n      swap1\n      sstore\n      pop\n      0x20\n      dup3\n      add\n      mload\n      dup2\n      0x01\n      add\n      exp(0x0100, 0x00)\n      dup2\n      sload\n      dup2\n      0xffffffffffffffffffffffffffffffffffffffff\n      mul\n      not\n      and\n      swap1\n      dup4\n      0xffffffffffffffffffffffffffffffffffffffff\n      and\n      mul\n      or\n      swap1\n      sstore\n      pop\n      0x40\n      dup3\n      add\n      mload\n      dup2\n      0x02\n      add\n      swap1\n      dup2\n      tag_109\n      swap2\n      swap1\n      tag_106\n      jump\t// in\n    tag_109:\n      pop\n      0x60\n      dup3\n      add\n      mload\n      dup2\n      0x03\n      add\n      swap1\n      dup2\n      tag_110\n      swap2\n      swap1\n      tag_106\n      jump\t// in\n    tag_110:\n      pop\n      0x80\n      dup3\n      add\n      mload\n      dup2\n      0x04\n      add\n      sstore\n      pop\n      pop\n        /* \"contracts/gpt.sol\":1101:1110  _receiver */\n      dup4\n        /* \"contracts/gpt.sol\":1079:1138  EmailSent(msg.sender, _receiver, _subject, block.timestamp) */\n      0xffffffffffffffffffffffffffffffffffffffff\n      and\n        /* \"contracts/gpt.sol\":1089:1099  msg.sender */\n      caller\n        /* \"contracts/gpt.sol\":1079:1138  EmailSent(msg.sender, _receiver, _subject, block.timestamp) */\n      0xffffffffffffffffffffffffffffffffffffffff\n      and\n      0x2ecdf33a271447607b6aca3173f5f892e91720d5106f80c513aa4710a2bb4e33\n        /* \"contracts/gpt.sol\":1112:1120  _subject */\n      dup6\n        /* \"contracts/gpt.sol\":1122:1137  block.timestamp */\n      timestamp\n        /* \"contracts/gpt.sol\":1079:1138  EmailSent(msg.sender, _receiver, _subject, block.timestamp) */\n      mload(0x40)\n      tag_111\n      swap3\n      swap2\n      swap1\n      tag_112\n      jump\t// in\n    tag_111:\n      mload(0x40)\n      dup1\n      swap2\n      sub\n      swap1\n      log3\n        /* \"contracts/gpt.sol\":591:1146  {... */\n      pop\n        /* \"contracts/gpt.sol\":498:1146  function sendEmail(address _receiver, string memory _subject, string memory _message) public {... */\n      pop\n      pop\n      pop\n      jump\t// out\n        /* \"#utility.yul\":7:82   */\n    tag_113:\n        /* \"#utility.yul\":40:46   */\n      0x00\n        /* \"#utility.yul\":73:75   */\n      0x40\n        /* \"#utility.yul\":67:76   */\n      mload\n        /* \"#utility.yul\":57:76   */\n      swap1\n      pop\n        /* \"#utility.yul\":7:82   */\n      swap1\n      jump\t// out\n        /* \"#utility.yul\":88:205   */\n    tag_114:\n        /* \"#utility.yul\":197:198   */\n      0x00\n        /* \"#utility.yul\":194:195   */\n      dup1\n        /* \"#utility.yul\":187:199   */\n      revert\n        /* \"#utility.yul\":211:328   */\n    tag_115:\n        /* \"#utility.yul\":320:321   */\n      0x00\n        /* \"#utility.yul\":317:318   */\n      dup1\n        /* \"#utility.yul\":310:322   */\n      revert\n        /* \"#utility.yul\":334:460   */\n    tag_116:\n        /* \"#utility.yul\":371:378   */\n      0x00\n        /* \"#utility.yul\":411:453   */\n      0xffffffffffffffffffffffffffffffffffffffff\n        /* \"#utility.yul\":404:409   */\n      dup3\n        /* \"#utility.yul\":400:454   */\n      and\n        /* \"#utility.yul\":389:454   */\n      swap1\n      pop\n        /* \"#utility.yul\":334:460   */\n      swap2\n      swap1\n      pop\n      jump\t// out\n        /* \"#utility.yul\":466:562   */\n    tag_117:\n        /* \"#utility.yul\":503:510   */\n      0x00\n        /* \"#utility.yul\":532:556   */\n      tag_177\n        /* \"#utility.yul\":550:555   */\n      dup3\n        /* \"#utility.yul\":532:556   */\n      tag_116\n      jump\t// in\n    tag_177:\n        /* \"#utility.yul\":521:556   */\n      swap1\n      pop\n        /* \"#utility.yul\":466:562   */\n      swap2\n      swap1\n      pop\n      jump\t// out\n        /* \"#utility.yul\":568:690   */\n    tag_118:\n        /* \"#utility.yul\":641:665   */\n      tag_179\n        /* \"#utility.yul\":659:664   */\n      dup2\n        /* \"#utility.yul\":641:665   */\n      tag_117\n      jump\t// in\n    tag_179:\n        /* \"#utility.yul\":634:639   */\n      dup2\n        /* \"#utility.yul\":631:666   */\n      eq\n        /* \"#utility.yul\":621:684   */\n      tag_180\n      jumpi\n        /* \"#utility.yul\":680:681   */\n      0x00\n        /* \"#utility.yul\":677:678   */\n      dup1\n        /* \"#utility.yul\":670:682   */\n      revert\n        /* \"#utility.yul\":621:684   */\n    tag_180:\n        /* \"#utility.yul\":568:690   */\n      pop\n      jump\t// out\n        /* \"#utility.yul\":696:835   */\n    tag_119:\n        /* \"#utility.yul\":742:747   */\n      0x00\n        /* \"#utility.yul\":780:786   */\n      dup2\n        /* \"#utility.yul\":767:787   */\n      calldataload\n        /* \"#utility.yul\":758:787   */\n      swap1\n      pop\n        /* \"#utility.yul\":796:829   */\n      tag_182\n        /* \"#utility.yul\":823:828   */\n      dup2\n        /* \"#utility.yul\":796:829   */\n      tag_118\n      jump\t// in\n    tag_182:\n        /* \"#utility.yul\":696:835   */\n      swap3\n      swap2\n      pop\n      pop\n      jump\t// out\n        /* \"#utility.yul\":841:918   */\n    tag_120:\n        /* \"#utility.yul\":878:885   */\n      0x00\n        /* \"#utility.yul\":907:912   */\n      dup2\n        /* \"#utility.yul\":896:912   */\n      swap1\n      pop\n        /* \"#utility.yul\":841:918   */\n      swap2\n      swap1\n      pop\n      jump\t// out\n        /* \"#utility.yul\":924:1046   */\n    tag_121:\n        /* \"#utility.yul\":997:1021   */\n      tag_185\n        /* \"#utility.yul\":1015:1020   */\n      dup2\n        /* \"#utility.yul\":997:1021   */\n      tag_120\n      jump\t// in\n    tag_185:\n        /* \"#utility.yul\":990:995   */\n      dup2\n        /* \"#utility.yul\":987:1022   */\n      eq\n        /* \"#utility.yul\":977:1040   */\n      tag_186\n      jumpi\n        /* \"#utility.yul\":1036:1037   */\n      0x00\n        /* \"#utility.yul\":1033:1034   */\n      dup1\n        /* \"#utility.yul\":1026:1038   */\n      revert\n        /* \"#utility.yul\":977:1040   */\n    tag_186:\n        /* \"#utility.yul\":924:1046   */\n      pop\n      jump\t// out\n        /* \"#utility.yul\":1052:1191   */\n    tag_122:\n        /* \"#utility.yul\":1098:1103   */\n      0x00\n        /* \"#utility.yul\":1136:1142   */\n      dup2\n        /* \"#utility.yul\":1123:1143   */\n      calldataload\n        /* \"#utility.yul\":1114:1143   */\n      swap1\n      pop\n        /* \"#utility.yul\":1152:1185   */\n      tag_188\n        /* \"#utility.yul\":1179:1184   */\n      dup2\n        /* \"#utility.yul\":1152:1185   */\n      tag_121\n      jump\t// in\n    tag_188:\n        /* \"#utility.yul\":1052:1191   */\n      swap3\n      swap2\n      pop\n      pop\n      jump\t// out\n        /* \"#utility.yul\":1197:1671   */\n    tag_11:\n        /* \"#utility.yul\":1265:1271   */\n      0x00\n        /* \"#utility.yul\":1273:1279   */\n      dup1\n        /* \"#utility.yul\":1322:1324   */\n      0x40\n        /* \"#utility.yul\":1310:1319   */\n      dup4\n        /* \"#utility.yul\":1301:1308   */\n      dup6\n        /* \"#utility.yul\":1297:1320   */\n      sub\n        /* \"#utility.yul\":1293:1325   */\n      slt\n        /* \"#utility.yul\":1290:1409   */\n      iszero\n      tag_190\n      jumpi\n        /* \"#utility.yul\":1328:1407   */\n      tag_191\n      tag_114\n      jump\t// in\n    tag_191:\n        /* \"#utility.yul\":1290:1409   */\n    tag_190:\n        /* \"#utility.yul\":1448:1449   */\n      0x00\n        /* \"#utility.yul\":1473:1526   */\n      tag_192\n        /* \"#utility.yul\":1518:1525   */\n      dup6\n        /* \"#utility.yul\":1509:1515   */\n      dup3\n        /* \"#utility.yul\":1498:1507   */\n      dup7\n        /* \"#utility.yul\":1494:1516   */\n      add\n        /* \"#utility.yul\":1473:1526   */\n      tag_119\n      jump\t// in\n    tag_192:\n        /* \"#utility.yul\":1463:1526   */\n      swap3\n      pop\n        /* \"#utility.yul\":1419:1536   */\n      pop\n        /* \"#utility.yul\":1575:1577   */\n      0x20\n        /* \"#utility.yul\":1601:1654   */\n      tag_193\n        /* \"#utility.yul\":1646:1653   */\n      dup6\n        /* \"#utility.yul\":1637:1643   */\n      dup3\n        /* \"#utility.yul\":1626:1635   */\n      dup7\n        /* \"#utility.yul\":1622:1644   */\n      add\n        /* \"#utility.yul\":1601:1654   */\n      tag_122\n      jump\t// in\n    tag_193:\n        /* \"#utility.yul\":1591:1654   */\n      swap2\n      pop\n        /* \"#utility.yul\":1546:1664   */\n      pop\n        /* \"#utility.yul\":1197:1671   */\n      swap3\n      pop\n      swap3\n      swap1\n      pop\n      jump\t// out\n        /* \"#utility.yul\":1677:1795   */\n    tag_123:\n        /* \"#utility.yul\":1764:1788   */\n      tag_195\n        /* \"#utility.yul\":1782:1787   */\n      dup2\n        /* \"#utility.yul\":1764:1788   */\n      tag_117\n      jump\t// in\n    tag_195:\n        /* \"#utility.yul\":1759:1762   */\n      dup3\n        /* \"#utility.yul\":1752:1789   */\n      mstore\n        /* \"#utility.yul\":1677:1795   */\n      pop\n      pop\n      jump\t// out\n        /* \"#utility.yul\":1801:1900   */\n    tag_124:\n        /* \"#utility.yul\":1853:1859   */\n      0x00\n        /* \"#utility.yul\":1887:1892   */\n      dup2\n        /* \"#utility.yul\":1881:1893   */\n      mload\n        /* \"#utility.yul\":1871:1893   */\n      swap1\n      pop\n        /* \"#utility.yul\":1801:1900   */\n      swap2\n      swap1\n      pop\n      jump\t// out\n        /* \"#utility.yul\":1906:2075   */\n    tag_125:\n        /* \"#utility.yul\":1990:2001   */\n      0x00\n        /* \"#utility.yul\":2024:2030   */\n      dup3\n        /* \"#utility.yul\":2019:2022   */\n      dup3\n        /* \"#utility.yul\":2012:2031   */\n      mstore\n        /* \"#utility.yul\":2064:2068   */\n      0x20\n        /* \"#utility.yul\":2059:2062   */\n      dup3\n        /* \"#utility.yul\":2055:2069   */\n      add\n        /* \"#utility.yul\":2040:2069   */\n      swap1\n      pop\n        /* \"#utility.yul\":1906:2075   */\n      swap3\n      swap2\n      pop\n      pop\n      jump\t// out\n        /* \"#utility.yul\":2081:2327   */\n    tag_126:\n        /* \"#utility.yul\":2162:2163   */\n      0x00\n        /* \"#utility.yul\":2172:2285   */\n    tag_199:\n        /* \"#utility.yul\":2186:2192   */\n      dup4\n        /* \"#utility.yul\":2183:2184   */\n      dup2\n        /* \"#utility.yul\":2180:2193   */\n      lt\n        /* \"#utility.yul\":2172:2285   */\n      iszero\n      tag_201\n      jumpi\n        /* \"#utility.yul\":2271:2272   */\n      dup1\n        /* \"#utility.yul\":2266:2269   */\n      dup3\n        /* \"#utility.yul\":2262:2273   */\n      add\n        /* \"#utility.yul\":2256:2274   */\n      mload\n        /* \"#utility.yul\":2252:2253   */\n      dup2\n        /* \"#utility.yul\":2247:2250   */\n      dup5\n        /* \"#utility.yul\":2243:2254   */\n      add\n        /* \"#utility.yul\":2236:2275   */\n      mstore\n        /* \"#utility.yul\":2208:2210   */\n      0x20\n        /* \"#utility.yul\":2205:2206   */\n      dup2\n        /* \"#utility.yul\":2201:2211   */\n      add\n        /* \"#utility.yul\":2196:2211   */\n      swap1\n      pop\n        /* \"#utility.yul\":2172:2285   */\n      jump(tag_199)\n    tag_201:\n        /* \"#utility.yul\":2319:2320   */\n      0x00\n        /* \"#utility.yul\":2310:2316   */\n      dup5\n        /* \"#utility.yul\":2305:2308   */\n      dup5\n        /* \"#utility.yul\":2301:2317   */\n      add\n        /* \"#utility.yul\":2294:2321   */\n      mstore\n        /* \"#utility.yul\":2143:2327   */\n      pop\n        /* \"#utility.yul\":2081:2327   */\n      pop\n      pop\n      pop\n      jump\t// out\n        /* \"#utility.yul\":2333:2435   */\n    tag_127:\n        /* \"#utility.yul\":2374:2380   */\n      0x00\n        /* \"#utility.yul\":2425:2427   */\n      0x1f\n        /* \"#utility.yul\":2421:2428   */\n      not\n        /* \"#utility.yul\":2416:2418   */\n      0x1f\n        /* \"#utility.yul\":2409:2414   */\n      dup4\n        /* \"#utility.yul\":2405:2419   */\n      add\n        /* \"#utility.yul\":2401:2429   */\n      and\n        /* \"#utility.yul\":2391:2429   */\n      swap1\n      pop\n        /* \"#utility.yul\":2333:2435   */\n      swap2\n      swap1\n      pop\n      jump\t// out\n        /* \"#utility.yul\":2441:2818   */\n    tag_128:\n        /* \"#utility.yul\":2529:2532   */\n      0x00\n        /* \"#utility.yul\":2557:2596   */\n      tag_204\n        /* \"#utility.yul\":2590:2595   */\n      dup3\n        /* \"#utility.yul\":2557:2596   */\n      tag_124\n      jump\t// in\n    tag_204:\n        /* \"#utility.yul\":2612:2683   */\n      tag_205\n        /* \"#utility.yul\":2676:2682   */\n      dup2\n        /* \"#utility.yul\":2671:2674   */\n      dup6\n        /* \"#utility.yul\":2612:2683   */\n      tag_125\n      jump\t// in\n    tag_205:\n        /* \"#utility.yul\":2605:2683   */\n      swap4\n      pop\n        /* \"#utility.yul\":2692:2757   */\n      tag_206\n        /* \"#utility.yul\":2750:2756   */\n      dup2\n        /* \"#utility.yul\":2745:2748   */\n      dup6\n        /* \"#utility.yul\":2738:2742   */\n      0x20\n        /* \"#utility.yul\":2731:2736   */\n      dup7\n        /* \"#utility.yul\":2727:2743   */\n      add\n        /* \"#utility.yul\":2692:2757   */\n      tag_126\n      jump\t// in\n    tag_206:\n        /* \"#utility.yul\":2782:2811   */\n      tag_207\n        /* \"#utility.yul\":2804:2810   */\n      dup2\n        /* \"#utility.yul\":2782:2811   */\n      tag_127\n      jump\t// in\n    tag_207:\n        /* \"#utility.yul\":2777:2780   */\n      dup5\n        /* \"#utility.yul\":2773:2812   */\n      add\n        /* \"#utility.yul\":2766:2812   */\n      swap2\n      pop\n        /* \"#utility.yul\":2533:2818   */\n      pop\n        /* \"#utility.yul\":2441:2818   */\n      swap3\n      swap2\n      pop\n      pop\n      jump\t// out\n        /* \"#utility.yul\":2824:2942   */\n    tag_129:\n        /* \"#utility.yul\":2911:2935   */\n      tag_209\n        /* \"#utility.yul\":2929:2934   */\n      dup2\n        /* \"#utility.yul\":2911:2935   */\n      tag_120\n      jump\t// in\n    tag_209:\n        /* \"#utility.yul\":2906:2909   */\n      dup3\n        /* \"#utility.yul\":2899:2936   */\n      mstore\n        /* \"#utility.yul\":2824:2942   */\n      pop\n      pop\n      jump\t// out\n        /* \"#utility.yul\":2948:3794   */\n    tag_14:\n        /* \"#utility.yul\":3193:3197   */\n      0x00\n        /* \"#utility.yul\":3231:3234   */\n      0xa0\n        /* \"#utility.yul\":3220:3229   */\n      dup3\n        /* \"#utility.yul\":3216:3235   */\n      add\n        /* \"#utility.yul\":3208:3235   */\n      swap1\n      pop\n        /* \"#utility.yul\":3245:3316   */\n      tag_211\n        /* \"#utility.yul\":3313:3314   */\n      0x00\n        /* \"#utility.yul\":3302:3311   */\n      dup4\n        /* \"#utility.yul\":3298:3315   */\n      add\n        /* \"#utility.yul\":3289:3295   */\n      dup9\n        /* \"#utility.yul\":3245:3316   */\n      tag_123\n      jump\t// in\n    tag_211:\n        /* \"#utility.yul\":3326:3398   */\n      tag_212\n        /* \"#utility.yul\":3394:3396   */\n      0x20\n        /* \"#utility.yul\":3383:3392   */\n      dup4\n        /* \"#utility.yul\":3379:3397   */\n      add\n        /* \"#utility.yul\":3370:3376   */\n      dup8\n        /* \"#utility.yul\":3326:3398   */\n      tag_123\n      jump\t// in\n    tag_212:\n        /* \"#utility.yul\":3445:3454   */\n      dup2\n        /* \"#utility.yul\":3439:3443   */\n      dup2\n        /* \"#utility.yul\":3435:3455   */\n      sub\n        /* \"#utility.yul\":3430:3432   */\n      0x40\n        /* \"#utility.yul\":3419:3428   */\n      dup4\n        /* \"#utility.yul\":3415:3433   */\n      add\n        /* \"#utility.yul\":3408:3456   */\n      mstore\n        /* \"#utility.yul\":3473:3551   */\n      tag_213\n        /* \"#utility.yul\":3546:3550   */\n      dup2\n        /* \"#utility.yul\":3537:3543   */\n      dup7\n        /* \"#utility.yul\":3473:3551   */\n      tag_128\n      jump\t// in\n    tag_213:\n        /* \"#utility.yul\":3465:3551   */\n      swap1\n      pop\n        /* \"#utility.yul\":3598:3607   */\n      dup2\n        /* \"#utility.yul\":3592:3596   */\n      dup2\n        /* \"#utility.yul\":3588:3608   */\n      sub\n        /* \"#utility.yul\":3583:3585   */\n      0x60\n        /* \"#utility.yul\":3572:3581   */\n      dup4\n        /* \"#utility.yul\":3568:3586   */\n      add\n        /* \"#utility.yul\":3561:3609   */\n      mstore\n        /* \"#utility.yul\":3626:3704   */\n      tag_214\n        /* \"#utility.yul\":3699:3703   */\n      dup2\n        /* \"#utility.yul\":3690:3696   */\n      dup6\n        /* \"#utility.yul\":3626:3704   */\n      tag_128\n      jump\t// in\n    tag_214:\n        /* \"#utility.yul\":3618:3704   */\n      swap1\n      pop\n        /* \"#utility.yul\":3714:3787   */\n      tag_215\n        /* \"#utility.yul\":3782:3785   */\n      0x80\n        /* \"#utility.yul\":3771:3780   */\n      dup4\n        /* \"#utility.yul\":3767:3786   */\n      add\n        /* \"#utility.yul\":3758:3764   */\n      dup5\n        /* \"#utility.yul\":3714:3787   */\n      tag_129\n      jump\t// in\n    tag_215:\n        /* \"#utility.yul\":2948:3794   */\n      swap7\n      swap6\n      pop\n      pop\n      pop\n      pop\n      pop\n      pop\n      jump\t// out\n        /* \"#utility.yul\":3800:3935   */\n    tag_130:\n        /* \"#utility.yul\":3888:3894   */\n      0x00\n        /* \"#utility.yul\":3922:3927   */\n      dup2\n        /* \"#utility.yul\":3916:3928   */\n      mload\n        /* \"#utility.yul\":3906:3928   */\n      swap1\n      pop\n        /* \"#utility.yul\":3800:3935   */\n      swap2\n      swap1\n      pop\n      jump\t// out\n        /* \"#utility.yul\":3941:4146   */\n    tag_131:\n        /* \"#utility.yul\":4061:4072   */\n      0x00\n        /* \"#utility.yul\":4095:4101   */\n      dup3\n        /* \"#utility.yul\":4090:4093   */\n      dup3\n        /* \"#utility.yul\":4083:4102   */\n      mstore\n        /* \"#utility.yul\":4135:4139   */\n      0x20\n        /* \"#utility.yul\":4130:4133   */\n      dup3\n        /* \"#utility.yul\":4126:4140   */\n      add\n        /* \"#utility.yul\":4111:4140   */\n      swap1\n      pop\n        /* \"#utility.yul\":3941:4146   */\n      swap3\n      swap2\n      pop\n      pop\n      jump\t// out\n        /* \"#utility.yul\":4152:4305   */\n    tag_132:\n        /* \"#utility.yul\":4240:4244   */\n      0x00\n        /* \"#utility.yul\":4263:4266   */\n      dup2\n        /* \"#utility.yul\":4255:4266   */\n      swap1\n      pop\n        /* \"#utility.yul\":4293:4297   */\n      0x20\n        /* \"#utility.yul\":4288:4291   */\n      dup3\n        /* \"#utility.yul\":4284:4298   */\n      add\n        /* \"#utility.yul\":4276:4298   */\n      swap1\n      pop\n        /* \"#utility.yul\":4152:4305   */\n      swap2\n      swap1\n      pop\n      jump\t// out\n        /* \"#utility.yul\":4311:4419   */\n    tag_133:\n        /* \"#utility.yul\":4388:4412   */\n      tag_220\n        /* \"#utility.yul\":4406:4411   */\n      dup2\n        /* \"#utility.yul\":4388:4412   */\n      tag_117\n      jump\t// in\n    tag_220:\n        /* \"#utility.yul\":4383:4386   */\n      dup3\n        /* \"#utility.yul\":4376:4413   */\n      mstore\n        /* \"#utility.yul\":4311:4419   */\n      pop\n      pop\n      jump\t// out\n        /* \"#utility.yul\":4425:4584   */\n    tag_134:\n        /* \"#utility.yul\":4499:4510   */\n      0x00\n        /* \"#utility.yul\":4533:4539   */\n      dup3\n        /* \"#utility.yul\":4528:4531   */\n      dup3\n        /* \"#utility.yul\":4521:4540   */\n      mstore\n        /* \"#utility.yul\":4573:4577   */\n      0x20\n        /* \"#utility.yul\":4568:4571   */\n      dup3\n        /* \"#utility.yul\":4564:4578   */\n      add\n        /* \"#utility.yul\":4549:4578   */\n      swap1\n      pop\n        /* \"#utility.yul\":4425:4584   */\n      swap3\n      swap2\n      pop\n      pop\n      jump\t// out\n        /* \"#utility.yul\":4590:4947   */\n    tag_135:\n        /* \"#utility.yul\":4668:4671   */\n      0x00\n        /* \"#utility.yul\":4696:4735   */\n      tag_223\n        /* \"#utility.yul\":4729:4734   */\n      dup3\n        /* \"#utility.yul\":4696:4735   */\n      tag_124\n      jump\t// in\n    tag_223:\n        /* \"#utility.yul\":4751:4812   */\n      tag_224\n        /* \"#utility.yul\":4805:4811   */\n      dup2\n        /* \"#utility.yul\":4800:4803   */\n      dup6\n        /* \"#utility.yul\":4751:4812   */\n      tag_134\n      jump\t// in\n    tag_224:\n        /* \"#utility.yul\":4744:4812   */\n      swap4\n      pop\n        /* \"#utility.yul\":4821:4886   */\n      tag_225\n        /* \"#utility.yul\":4879:4885   */\n      dup2\n        /* \"#utility.yul\":4874:4877   */\n      dup6\n        /* \"#utility.yul\":4867:4871   */\n      0x20\n        /* \"#utility.yul\":4860:4865   */\n      dup7\n        /* \"#utility.yul\":4856:4872   */\n      add\n        /* \"#utility.yul\":4821:4886   */\n      tag_126\n      jump\t// in\n    tag_225:\n        /* \"#utility.yul\":4911:4940   */\n      tag_226\n        /* \"#utility.yul\":4933:4939   */\n      dup2\n        /* \"#utility.yul\":4911:4940   */\n      tag_127\n      jump\t// in\n    tag_226:\n        /* \"#utility.yul\":4906:4909   */\n      dup5\n        /* \"#utility.yul\":4902:4941   */\n      add\n        /* \"#utility.yul\":4895:4941   */\n      swap2\n      pop\n        /* \"#utility.yul\":4672:4947   */\n      pop\n        /* \"#utility.yul\":4590:4947   */\n      swap3\n      swap2\n      pop\n      pop\n      jump\t// out\n        /* \"#utility.yul\":4953:5061   */\n    tag_136:\n        /* \"#utility.yul\":5030:5054   */\n      tag_228\n        /* \"#utility.yul\":5048:5053   */\n      dup2\n        /* \"#utility.yul\":5030:5054   */\n      tag_120\n      jump\t// in\n    tag_228:\n        /* \"#utility.yul\":5025:5028   */\n      dup3\n        /* \"#utility.yul\":5018:5055   */\n      mstore\n        /* \"#utility.yul\":4953:5061   */\n      pop\n      pop\n      jump\t// out\n        /* \"#utility.yul\":5131:6329   */\n    tag_137:\n        /* \"#utility.yul\":5232:5235   */\n      0x00\n        /* \"#utility.yul\":5268:5272   */\n      0xa0\n        /* \"#utility.yul\":5263:5266   */\n      dup4\n        /* \"#utility.yul\":5259:5273   */\n      add\n        /* \"#utility.yul\":5357:5361   */\n      0x00\n        /* \"#utility.yul\":5350:5355   */\n      dup4\n        /* \"#utility.yul\":5346:5362   */\n      add\n        /* \"#utility.yul\":5340:5363   */\n      mload\n        /* \"#utility.yul\":5376:5439   */\n      tag_230\n        /* \"#utility.yul\":5433:5437   */\n      0x00\n        /* \"#utility.yul\":5428:5431   */\n      dup7\n        /* \"#utility.yul\":5424:5438   */\n      add\n        /* \"#utility.yul\":5410:5422   */\n      dup3\n        /* \"#utility.yul\":5376:5439   */\n      tag_133\n      jump\t// in\n    tag_230:\n        /* \"#utility.yul\":5283:5449   */\n      pop\n        /* \"#utility.yul\":5535:5539   */\n      0x20\n        /* \"#utility.yul\":5528:5533   */\n      dup4\n        /* \"#utility.yul\":5524:5540   */\n      add\n        /* \"#utility.yul\":5518:5541   */\n      mload\n        /* \"#utility.yul\":5554:5617   */\n      tag_231\n        /* \"#utility.yul\":5611:5615   */\n      0x20\n        /* \"#utility.yul\":5606:5609   */\n      dup7\n        /* \"#utility.yul\":5602:5616   */\n      add\n        /* \"#utility.yul\":5588:5600   */\n      dup3\n        /* \"#utility.yul\":5554:5617   */\n      tag_133\n      jump\t// in\n    tag_231:\n        /* \"#utility.yul\":5459:5627   */\n      pop\n        /* \"#utility.yul\":5712:5716   */\n      0x40\n        /* \"#utility.yul\":5705:5710   */\n      dup4\n        /* \"#utility.yul\":5701:5717   */\n      add\n        /* \"#utility.yul\":5695:5718   */\n      mload\n        /* \"#utility.yul\":5765:5768   */\n      dup5\n        /* \"#utility.yul\":5759:5763   */\n      dup3\n        /* \"#utility.yul\":5755:5769   */\n      sub\n        /* \"#utility.yul\":5748:5752   */\n      0x40\n        /* \"#utility.yul\":5743:5746   */\n      dup7\n        /* \"#utility.yul\":5739:5753   */\n      add\n        /* \"#utility.yul\":5732:5770   */\n      mstore\n        /* \"#utility.yul\":5791:5864   */\n      tag_232\n        /* \"#utility.yul\":5859:5863   */\n      dup3\n        /* \"#utility.yul\":5845:5857   */\n      dup3\n        /* \"#utility.yul\":5791:5864   */\n      tag_135\n      jump\t// in\n    tag_232:\n        /* \"#utility.yul\":5783:5864   */\n      swap2\n      pop\n        /* \"#utility.yul\":5637:5875   */\n      pop\n        /* \"#utility.yul\":5960:5964   */\n      0x60\n        /* \"#utility.yul\":5953:5958   */\n      dup4\n        /* \"#utility.yul\":5949:5965   */\n      add\n        /* \"#utility.yul\":5943:5966   */\n      mload\n        /* \"#utility.yul\":6013:6016   */\n      dup5\n        /* \"#utility.yul\":6007:6011   */\n      dup3\n        /* \"#utility.yul\":6003:6017   */\n      sub\n        /* \"#utility.yul\":5996:6000   */\n      0x60\n        /* \"#utility.yul\":5991:5994   */\n      dup7\n        /* \"#utility.yul\":5987:6001   */\n      add\n        /* \"#utility.yul\":5980:6018   */\n      mstore\n        /* \"#utility.yul\":6039:6112   */\n      tag_233\n        /* \"#utility.yul\":6107:6111   */\n      dup3\n        /* \"#utility.yul\":6093:6105   */\n      dup3\n        /* \"#utility.yul\":6039:6112   */\n      tag_135\n      jump\t// in\n    tag_233:\n        /* \"#utility.yul\":6031:6112   */\n      swap2\n      pop\n        /* \"#utility.yul\":5885:6123   */\n      pop\n        /* \"#utility.yul\":6210:6214   */\n      0x80\n        /* \"#utility.yul\":6203:6208   */\n      dup4\n        /* \"#utility.yul\":6199:6215   */\n      add\n        /* \"#utility.yul\":6193:6216   */\n      mload\n        /* \"#utility.yul\":6229:6292   */\n      tag_234\n        /* \"#utility.yul\":6286:6290   */\n      0x80\n        /* \"#utility.yul\":6281:6284   */\n      dup7\n        /* \"#utility.yul\":6277:6291   */\n      add\n        /* \"#utility.yul\":6263:6275   */\n      dup3\n        /* \"#utility.yul\":6229:6292   */\n      tag_136\n      jump\t// in\n    tag_234:\n        /* \"#utility.yul\":6133:6302   */\n      pop\n        /* \"#utility.yul\":6319:6323   */\n      dup1\n        /* \"#utility.yul\":6312:6323   */\n      swap2\n      pop\n        /* \"#utility.yul\":5237:6329   */\n      pop\n        /* \"#utility.yul\":5131:6329   */\n      swap3\n      swap2\n      pop\n      pop\n      jump\t// out\n        /* \"#utility.yul\":6335:6575   */\n    tag_138:\n        /* \"#utility.yul\":6446:6456   */\n      0x00\n        /* \"#utility.yul\":6481:6569   */\n      tag_236\n        /* \"#utility.yul\":6565:6568   */\n      dup4\n        /* \"#utility.yul\":6557:6563   */\n      dup4\n        /* \"#utility.yul\":6481:6569   */\n      tag_137\n      jump\t// in\n    tag_236:\n        /* \"#utility.yul\":6467:6569   */\n      swap1\n      pop\n        /* \"#utility.yul\":6335:6575   */\n      swap3\n      swap2\n      pop\n      pop\n      jump\t// out\n        /* \"#utility.yul\":6581:6715   */\n    tag_139:\n        /* \"#utility.yul\":6672:6676   */\n      0x00\n        /* \"#utility.yul\":6704:6708   */\n      0x20\n        /* \"#utility.yul\":6699:6702   */\n      dup3\n        /* \"#utility.yul\":6695:6709   */\n      add\n        /* \"#utility.yul\":6687:6709   */\n      swap1\n      pop\n        /* \"#utility.yul\":6581:6715   */\n      swap2\n      swap1\n      pop\n      jump\t// out\n        /* \"#utility.yul\":6789:7868   */\n    tag_140:\n        /* \"#utility.yul\":6950:6953   */\n      0x00\n        /* \"#utility.yul\":6979:7054   */\n      tag_239\n        /* \"#utility.yul\":7048:7053   */\n      dup3\n        /* \"#utility.yul\":6979:7054   */\n      tag_130\n      jump\t// in\n    tag_239:\n        /* \"#utility.yul\":7070:7177   */\n      tag_240\n        /* \"#utility.yul\":7170:7176   */\n      dup2\n        /* \"#utility.yul\":7165:7168   */\n      dup6\n        /* \"#utility.yul\":7070:7177   */\n      tag_131\n      jump\t// in\n    tag_240:\n        /* \"#utility.yul\":7063:7177   */\n      swap4\n      pop\n        /* \"#utility.yul\":7203:7206   */\n      dup4\n        /* \"#utility.yul\":7248:7252   */\n      0x20\n        /* \"#utility.yul\":7240:7246   */\n      dup3\n        /* \"#utility.yul\":7236:7253   */\n      mul\n        /* \"#utility.yul\":7231:7234   */\n      dup6\n        /* \"#utility.yul\":7227:7254   */\n      add\n        /* \"#utility.yul\":7278:7355   */\n      tag_241\n        /* \"#utility.yul\":7349:7354   */\n      dup6\n        /* \"#utility.yul\":7278:7355   */\n      tag_132\n      jump\t// in\n    tag_241:\n        /* \"#utility.yul\":7378:7385   */\n      dup1\n        /* \"#utility.yul\":7409:7410   */\n      0x00\n        /* \"#utility.yul\":7394:7823   */\n    tag_242:\n        /* \"#utility.yul\":7419:7425   */\n      dup6\n        /* \"#utility.yul\":7416:7417   */\n      dup2\n        /* \"#utility.yul\":7413:7426   */\n      lt\n        /* \"#utility.yul\":7394:7823   */\n      iszero\n      tag_244\n      jumpi\n        /* \"#utility.yul\":7490:7499   */\n      dup5\n        /* \"#utility.yul\":7484:7488   */\n      dup5\n        /* \"#utility.yul\":7480:7500   */\n      sub\n        /* \"#utility.yul\":7475:7478   */\n      dup10\n        /* \"#utility.yul\":7468:7501   */\n      mstore\n        /* \"#utility.yul\":7541:7547   */\n      dup2\n        /* \"#utility.yul\":7535:7548   */\n      mload\n        /* \"#utility.yul\":7569:7675   */\n      tag_245\n        /* \"#utility.yul\":7670:7674   */\n      dup6\n        /* \"#utility.yul\":7655:7668   */\n      dup3\n        /* \"#utility.yul\":7569:7675   */\n      tag_138\n      jump\t// in\n    tag_245:\n        /* \"#utility.yul\":7561:7675   */\n      swap5\n      pop\n        /* \"#utility.yul\":7698:7779   */\n      tag_246\n        /* \"#utility.yul\":7772:7778   */\n      dup4\n        /* \"#utility.yul\":7698:7779   */\n      tag_139\n      jump\t// in\n    tag_246:\n        /* \"#utility.yul\":7688:7779   */\n      swap3\n      pop\n        /* \"#utility.yul\":7808:7812   */\n      0x20\n        /* \"#utility.yul\":7803:7806   */\n      dup11\n        /* \"#utility.yul\":7799:7813   */\n      add\n        /* \"#utility.yul\":7792:7813   */\n      swap10\n      pop\n        /* \"#utility.yul\":7454:7823   */\n      pop\n        /* \"#utility.yul\":7441:7442   */\n      0x01\n        /* \"#utility.yul\":7438:7439   */\n      dup2\n        /* \"#utility.yul\":7434:7443   */\n      add\n        /* \"#utility.yul\":7429:7443   */\n      swap1\n      pop\n        /* \"#utility.yul\":7394:7823   */\n      jump(tag_242)\n    tag_244:\n        /* \"#utility.yul\":7398:7412   */\n      pop\n        /* \"#utility.yul\":7839:7843   */\n      dup3\n        /* \"#utility.yul\":7832:7843   */\n      swap8\n      pop\n        /* \"#utility.yul\":7859:7862   */\n      dup8\n        /* \"#utility.yul\":7852:7862   */\n      swap6\n      pop\n        /* \"#utility.yul\":6955:7868   */\n      pop\n      pop\n      pop\n      pop\n      pop\n        /* \"#utility.yul\":6789:7868   */\n      swap3\n      swap2\n      pop\n      pop\n      jump\t// out\n        /* \"#utility.yul\":7874:8331   */\n    tag_24:\n        /* \"#utility.yul\":8059:8063   */\n      0x00\n        /* \"#utility.yul\":8097:8099   */\n      0x20\n        /* \"#utility.yul\":8086:8095   */\n      dup3\n        /* \"#utility.yul\":8082:8100   */\n      add\n        /* \"#utility.yul\":8074:8100   */\n      swap1\n      pop\n        /* \"#utility.yul\":8146:8155   */\n      dup2\n        /* \"#utility.yul\":8140:8144   */\n      dup2\n        /* \"#utility.yul\":8136:8156   */\n      sub\n        /* \"#utility.yul\":8132:8133   */\n      0x00\n        /* \"#utility.yul\":8121:8130   */\n      dup4\n        /* \"#utility.yul\":8117:8134   */\n      add\n        /* \"#utility.yul\":8110:8157   */\n      mstore\n        /* \"#utility.yul\":8174:8324   */\n      tag_248\n        /* \"#utility.yul\":8319:8323   */\n      dup2\n        /* \"#utility.yul\":8310:8316   */\n      dup5\n        /* \"#utility.yul\":8174:8324   */\n      tag_140\n      jump\t// in\n    tag_248:\n        /* \"#utility.yul\":8166:8324   */\n      swap1\n      pop\n        /* \"#utility.yul\":7874:8331   */\n      swap3\n      swap2\n      pop\n      pop\n      jump\t// out\n        /* \"#utility.yul\":8337:8666   */\n    tag_27:\n        /* \"#utility.yul\":8396:8402   */\n      0x00\n        /* \"#utility.yul\":8445:8447   */\n      0x20\n        /* \"#utility.yul\":8433:8442   */\n      dup3\n        /* \"#utility.yul\":8424:8431   */\n      dup5\n        /* \"#utility.yul\":8420:8443   */\n      sub\n        /* \"#utility.yul\":8416:8448   */\n      slt\n        /* \"#utility.yul\":8413:8532   */\n      iszero\n      tag_250\n      jumpi\n        /* \"#utility.yul\":8451:8530   */\n      tag_251\n      tag_114\n      jump\t// in\n    tag_251:\n        /* \"#utility.yul\":8413:8532   */\n    tag_250:\n        /* \"#utility.yul\":8571:8572   */\n      0x00\n        /* \"#utility.yul\":8596:8649   */\n      tag_252\n        /* \"#utility.yul\":8641:8648   */\n      dup5\n        /* \"#utility.yul\":8632:8638   */\n      dup3\n        /* \"#utility.yul\":8621:8630   */\n      dup6\n        /* \"#utility.yul\":8617:8639   */\n      add\n        /* \"#utility.yul\":8596:8649   */\n      tag_119\n      jump\t// in\n    tag_252:\n        /* \"#utility.yul\":8586:8649   */\n      swap2\n      pop\n        /* \"#utility.yul\":8542:8659   */\n      pop\n        /* \"#utility.yul\":8337:8666   */\n      swap3\n      swap2\n      pop\n      pop\n      jump\t// out\n        /* \"#utility.yul\":8672:9004   */\n    tag_30:\n        /* \"#utility.yul\":8793:8797   */\n      0x00\n        /* \"#utility.yul\":8831:8833   */\n      0x40\n        /* \"#utility.yul\":8820:8829   */\n      dup3\n        /* \"#utility.yul\":8816:8834   */\n      add\n        /* \"#utility.yul\":8808:8834   */\n      swap1\n      pop\n        /* \"#utility.yul\":8844:8915   */\n      tag_254\n        /* \"#utility.yul\":8912:8913   */\n      0x00\n        /* \"#utility.yul\":8901:8910   */\n      dup4\n        /* \"#utility.yul\":8897:8914   */\n      add\n        /* \"#utility.yul\":8888:8894   */\n      dup6\n        /* \"#utility.yul\":8844:8915   */\n      tag_129\n      jump\t// in\n    tag_254:\n        /* \"#utility.yul\":8925:8997   */\n      tag_255\n        /* \"#utility.yul\":8993:8995   */\n      0x20\n        /* \"#utility.yul\":8982:8991   */\n      dup4\n        /* \"#utility.yul\":8978:8996   */\n      add\n        /* \"#utility.yul\":8969:8975   */\n      dup5\n        /* \"#utility.yul\":8925:8997   */\n      tag_129\n      jump\t// in\n    tag_255:\n        /* \"#utility.yul\":8672:9004   */\n      swap4\n      swap3\n      pop\n      pop\n      pop\n      jump\t// out\n        /* \"#utility.yul\":9010:9127   */\n    tag_141:\n        /* \"#utility.yul\":9119:9120   */\n      0x00\n        /* \"#utility.yul\":9116:9117   */\n      dup1\n        /* \"#utility.yul\":9109:9121   */\n      revert\n        /* \"#utility.yul\":9133:9250   */\n    tag_142:\n        /* \"#utility.yul\":9242:9243   */\n      0x00\n        /* \"#utility.yul\":9239:9240   */\n      dup1\n        /* \"#utility.yul\":9232:9244   */\n      revert\n        /* \"#utility.yul\":9256:9436   */\n    tag_143:\n        /* \"#utility.yul\":9304:9381   */\n      0x4e487b7100000000000000000000000000000000000000000000000000000000\n        /* \"#utility.yul\":9301:9302   */\n      0x00\n        /* \"#utility.yul\":9294:9382   */\n      mstore\n        /* \"#utility.yul\":9401:9405   */\n      0x41\n        /* \"#utility.yul\":9398:9399   */\n      0x04\n        /* \"#utility.yul\":9391:9406   */\n      mstore\n        /* \"#utility.yul\":9425:9429   */\n      0x24\n        /* \"#utility.yul\":9422:9423   */\n      0x00\n        /* \"#utility.yul\":9415:9430   */\n      revert\n        /* \"#utility.yul\":9442:9723   */\n    tag_144:\n        /* \"#utility.yul\":9525:9552   */\n      tag_260\n        /* \"#utility.yul\":9547:9551   */\n      dup3\n        /* \"#utility.yul\":9525:9552   */\n      tag_127\n      jump\t// in\n    tag_260:\n        /* \"#utility.yul\":9517:9523   */\n      dup2\n        /* \"#utility.yul\":9513:9553   */\n      add\n        /* \"#utility.yul\":9655:9661   */\n      dup2\n        /* \"#utility.yul\":9643:9653   */\n      dup2\n        /* \"#utility.yul\":9640:9662   */\n      lt\n        /* \"#utility.yul\":9619:9637   */\n      0xffffffffffffffff\n        /* \"#utility.yul\":9607:9617   */\n      dup3\n        /* \"#utility.yul\":9604:9638   */\n      gt\n        /* \"#utility.yul\":9601:9663   */\n      or\n        /* \"#utility.yul\":9598:9686   */\n      iszero\n      tag_261\n      jumpi\n        /* \"#utility.yul\":9666:9684   */\n      tag_262\n      tag_143\n      jump\t// in\n    tag_262:\n        /* \"#utility.yul\":9598:9686   */\n    tag_261:\n        /* \"#utility.yul\":9706:9716   */\n      dup1\n        /* \"#utility.yul\":9702:9704   */\n      0x40\n        /* \"#utility.yul\":9695:9717   */\n      mstore\n        /* \"#utility.yul\":9485:9723   */\n      pop\n        /* \"#utility.yul\":9442:9723   */\n      pop\n      pop\n      jump\t// out\n        /* \"#utility.yul\":9729:9858   */\n    tag_145:\n        /* \"#utility.yul\":9763:9769   */\n      0x00\n        /* \"#utility.yul\":9790:9810   */\n      tag_264\n      tag_113\n      jump\t// in\n    tag_264:\n        /* \"#utility.yul\":9780:9810   */\n      swap1\n      pop\n        /* \"#utility.yul\":9819:9852   */\n      tag_265\n        /* \"#utility.yul\":9847:9851   */\n      dup3\n        /* \"#utility.yul\":9839:9845   */\n      dup3\n        /* \"#utility.yul\":9819:9852   */\n      tag_144\n      jump\t// in\n    tag_265:\n        /* \"#utility.yul\":9729:9858   */\n      swap2\n      swap1\n      pop\n      jump\t// out\n        /* \"#utility.yul\":9864:10172   */\n    tag_146:\n        /* \"#utility.yul\":9926:9930   */\n      0x00\n        /* \"#utility.yul\":10016:10034   */\n      0xffffffffffffffff\n        /* \"#utility.yul\":10008:10014   */\n      dup3\n        /* \"#utility.yul\":10005:10035   */\n      gt\n        /* \"#utility.yul\":10002:10058   */\n      iszero\n      tag_267\n      jumpi\n        /* \"#utility.yul\":10038:10056   */\n      tag_268\n      tag_143\n      jump\t// in\n    tag_268:\n        /* \"#utility.yul\":10002:10058   */\n    tag_267:\n        /* \"#utility.yul\":10076:10105   */\n      tag_269\n        /* \"#utility.yul\":10098:10104   */\n      dup3\n        /* \"#utility.yul\":10076:10105   */\n      tag_127\n      jump\t// in\n    tag_269:\n        /* \"#utility.yul\":10068:10105   */\n      swap1\n      pop\n        /* \"#utility.yul\":10160:10164   */\n      0x20\n        /* \"#utility.yul\":10154:10158   */\n      dup2\n        /* \"#utility.yul\":10150:10165   */\n      add\n        /* \"#utility.yul\":10142:10165   */\n      swap1\n      pop\n        /* \"#utility.yul\":9864:10172   */\n      swap2\n      swap1\n      pop\n      jump\t// out\n        /* \"#utility.yul\":10178:10324   */\n    tag_147:\n        /* \"#utility.yul\":10275:10281   */\n      dup3\n        /* \"#utility.yul\":10270:10273   */\n      dup2\n        /* \"#utility.yul\":10265:10268   */\n      dup4\n        /* \"#utility.yul\":10252:10282   */\n      calldatacopy\n        /* \"#utility.yul\":10316:10317   */\n      0x00\n        /* \"#utility.yul\":10307:10313   */\n      dup4\n        /* \"#utility.yul\":10302:10305   */\n      dup4\n        /* \"#utility.yul\":10298:10314   */\n      add\n        /* \"#utility.yul\":10291:10318   */\n      mstore\n        /* \"#utility.yul\":10178:10324   */\n      pop\n      pop\n      pop\n      jump\t// out\n        /* \"#utility.yul\":10330:10755   */\n    tag_148:\n        /* \"#utility.yul\":10408:10413   */\n      0x00\n        /* \"#utility.yul\":10433:10499   */\n      tag_272\n        /* \"#utility.yul\":10449:10498   */\n      tag_273\n        /* \"#utility.yul\":10491:10497   */\n      dup5\n        /* \"#utility.yul\":10449:10498   */\n      tag_146\n      jump\t// in\n    tag_273:\n        /* \"#utility.yul\":10433:10499   */\n      tag_145\n      jump\t// in\n    tag_272:\n        /* \"#utility.yul\":10424:10499   */\n      swap1\n      pop\n        /* \"#utility.yul\":10522:10528   */\n      dup3\n        /* \"#utility.yul\":10515:10520   */\n      dup2\n        /* \"#utility.yul\":10508:10529   */\n      mstore\n        /* \"#utility.yul\":10560:10564   */\n      0x20\n        /* \"#utility.yul\":10553:10558   */\n      dup2\n        /* \"#utility.yul\":10549:10565   */\n      add\n        /* \"#utility.yul\":10598:10601   */\n      dup5\n        /* \"#utility.yul\":10589:10595   */\n      dup5\n        /* \"#utility.yul\":10584:10587   */\n      dup5\n        /* \"#utility.yul\":10580:10596   */\n      add\n        /* \"#utility.yul\":10577:10602   */\n      gt\n        /* \"#utility.yul\":10574:10686   */\n      iszero\n      tag_274\n      jumpi\n        /* \"#utility.yul\":10605:10684   */\n      tag_275\n      tag_142\n      jump\t// in\n    tag_275:\n        /* \"#utility.yul\":10574:10686   */\n    tag_274:\n        /* \"#utility.yul\":10695:10749   */\n      tag_276\n        /* \"#utility.yul\":10742:10748   */\n      dup5\n        /* \"#utility.yul\":10737:10740   */\n      dup3\n        /* \"#utility.yul\":10732:10735   */\n      dup6\n        /* \"#utility.yul\":10695:10749   */\n      tag_147\n      jump\t// in\n    tag_276:\n        /* \"#utility.yul\":10414:10755   */\n      pop\n        /* \"#utility.yul\":10330:10755   */\n      swap4\n      swap3\n      pop\n      pop\n      pop\n      jump\t// out\n        /* \"#utility.yul\":10775:11115   */\n    tag_149:\n        /* \"#utility.yul\":10831:10836   */\n      0x00\n        /* \"#utility.yul\":10880:10883   */\n      dup3\n        /* \"#utility.yul\":10873:10877   */\n      0x1f\n        /* \"#utility.yul\":10865:10871   */\n      dup4\n        /* \"#utility.yul\":10861:10878   */\n      add\n        /* \"#utility.yul\":10857:10884   */\n      slt\n        /* \"#utility.yul\":10847:10969   */\n      tag_278\n      jumpi\n        /* \"#utility.yul\":10888:10967   */\n      tag_279\n      tag_141\n      jump\t// in\n    tag_279:\n        /* \"#utility.yul\":10847:10969   */\n    tag_278:\n        /* \"#utility.yul\":11005:11011   */\n      dup2\n        /* \"#utility.yul\":10992:11012   */\n      calldataload\n        /* \"#utility.yul\":11030:11109   */\n      tag_280\n        /* \"#utility.yul\":11105:11108   */\n      dup5\n        /* \"#utility.yul\":11097:11103   */\n      dup3\n        /* \"#utility.yul\":11090:11094   */\n      0x20\n        /* \"#utility.yul\":11082:11088   */\n      dup7\n        /* \"#utility.yul\":11078:11095   */\n      add\n        /* \"#utility.yul\":11030:11109   */\n      tag_148\n      jump\t// in\n    tag_280:\n        /* \"#utility.yul\":11021:11109   */\n      swap2\n      pop\n        /* \"#utility.yul\":10837:11115   */\n      pop\n        /* \"#utility.yul\":10775:11115   */\n      swap3\n      swap2\n      pop\n      pop\n      jump\t// out\n        /* \"#utility.yul\":11121:12100   */\n    tag_33:\n        /* \"#utility.yul\":11218:11224   */\n      0x00\n        /* \"#utility.yul\":11226:11232   */\n      dup1\n        /* \"#utility.yul\":11234:11240   */\n      0x00\n        /* \"#utility.yul\":11283:11285   */\n      0x60\n        /* \"#utility.yul\":11271:11280   */\n      dup5\n        /* \"#utility.yul\":11262:11269   */\n      dup7\n        /* \"#utility.yul\":11258:11281   */\n      sub\n        /* \"#utility.yul\":11254:11286   */\n      slt\n        /* \"#utility.yul\":11251:11370   */\n      iszero\n      tag_282\n      jumpi\n        /* \"#utility.yul\":11289:11368   */\n      tag_283\n      tag_114\n      jump\t// in\n    tag_283:\n        /* \"#utility.yul\":11251:11370   */\n    tag_282:\n        /* \"#utility.yul\":11409:11410   */\n      0x00\n        /* \"#utility.yul\":11434:11487   */\n      tag_284\n        /* \"#utility.yul\":11479:11486   */\n      dup7\n        /* \"#utility.yul\":11470:11476   */\n      dup3\n        /* \"#utility.yul\":11459:11468   */\n      dup8\n        /* \"#utility.yul\":11455:11477   */\n      add\n        /* \"#utility.yul\":11434:11487   */\n      tag_119\n      jump\t// in\n    tag_284:\n        /* \"#utility.yul\":11424:11487   */\n      swap4\n      pop\n        /* \"#utility.yul\":11380:11497   */\n      pop\n        /* \"#utility.yul\":11564:11566   */\n      0x20\n        /* \"#utility.yul\":11553:11562   */\n      dup5\n        /* \"#utility.yul\":11549:11567   */\n      add\n        /* \"#utility.yul\":11536:11568   */\n      calldataload\n        /* \"#utility.yul\":11595:11613   */\n      0xffffffffffffffff\n        /* \"#utility.yul\":11587:11593   */\n      dup2\n        /* \"#utility.yul\":11584:11614   */\n      gt\n        /* \"#utility.yul\":11581:11698   */\n      iszero\n      tag_285\n      jumpi\n        /* \"#utility.yul\":11617:11696   */\n      tag_286\n      tag_115\n      jump\t// in\n    tag_286:\n        /* \"#utility.yul\":11581:11698   */\n    tag_285:\n        /* \"#utility.yul\":11722:11785   */\n      tag_287\n        /* \"#utility.yul\":11777:11784   */\n      dup7\n        /* \"#utility.yul\":11768:11774   */\n      dup3\n        /* \"#utility.yul\":11757:11766   */\n      dup8\n        /* \"#utility.yul\":11753:11775   */\n      add\n        /* \"#utility.yul\":11722:11785   */\n      tag_149\n      jump\t// in\n    tag_287:\n        /* \"#utility.yul\":11712:11785   */\n      swap3\n      pop\n        /* \"#utility.yul\":11507:11795   */\n      pop\n        /* \"#utility.yul\":11862:11864   */\n      0x40\n        /* \"#utility.yul\":11851:11860   */\n      dup5\n        /* \"#utility.yul\":11847:11865   */\n      add\n        /* \"#utility.yul\":11834:11866   */\n      calldataload\n        /* \"#utility.yul\":11893:11911   */\n      0xffffffffffffffff\n        /* \"#utility.yul\":11885:11891   */\n      dup2\n        /* \"#utility.yul\":11882:11912   */\n      gt\n        /* \"#utility.yul\":11879:11996   */\n      iszero\n      tag_288\n      jumpi\n        /* \"#utility.yul\":11915:11994   */\n      tag_289\n      tag_115\n      jump\t// in\n    tag_289:\n        /* \"#utility.yul\":11879:11996   */\n    tag_288:\n        /* \"#utility.yul\":12020:12083   */\n      tag_290\n        /* \"#utility.yul\":12075:12082   */\n      dup7\n        /* \"#utility.yul\":12066:12072   */\n      dup3\n        /* \"#utility.yul\":12055:12064   */\n      dup8\n        /* \"#utility.yul\":12051:12073   */\n      add\n        /* \"#utility.yul\":12020:12083   */\n      tag_149\n      jump\t// in\n    tag_290:\n        /* \"#utility.yul\":12010:12083   */\n      swap2\n      pop\n        /* \"#utility.yul\":11805:12093   */\n      pop\n        /* \"#utility.yul\":11121:12100   */\n      swap3\n      pop\n      swap3\n      pop\n      swap3\n      jump\t// out\n        /* \"#utility.yul\":12106:12286   */\n    tag_150:\n        /* \"#utility.yul\":12154:12231   */\n      0x4e487b7100000000000000000000000000000000000000000000000000000000\n        /* \"#utility.yul\":12151:12152   */\n      0x00\n        /* \"#utility.yul\":12144:12232   */\n      mstore\n        /* \"#utility.yul\":12251:12255   */\n      0x22\n        /* \"#utility.yul\":12248:12249   */\n      0x04\n        /* \"#utility.yul\":12241:12256   */\n      mstore\n        /* \"#utility.yul\":12275:12279   */\n      0x24\n        /* \"#utility.yul\":12272:12273   */\n      0x00\n        /* \"#utility.yul\":12265:12280   */\n      revert\n        /* \"#utility.yul\":12292:12612   */\n    tag_38:\n        /* \"#utility.yul\":12336:12342   */\n      0x00\n        /* \"#utility.yul\":12373:12374   */\n      0x02\n        /* \"#utility.yul\":12367:12371   */\n      dup3\n        /* \"#utility.yul\":12363:12375   */\n      div\n        /* \"#utility.yul\":12353:12375   */\n      swap1\n      pop\n        /* \"#utility.yul\":12420:12421   */\n      0x01\n        /* \"#utility.yul\":12414:12418   */\n      dup3\n        /* \"#utility.yul\":12410:12422   */\n      and\n        /* \"#utility.yul\":12441:12459   */\n      dup1\n        /* \"#utility.yul\":12431:12512   */\n      tag_293\n      jumpi\n        /* \"#utility.yul\":12497:12501   */\n      0x7f\n        /* \"#utility.yul\":12489:12495   */\n      dup3\n        /* \"#utility.yul\":12485:12502   */\n      and\n        /* \"#utility.yul\":12475:12502   */\n      swap2\n      pop\n        /* \"#utility.yul\":12431:12512   */\n    tag_293:\n        /* \"#utility.yul\":12559:12561   */\n      0x20\n        /* \"#utility.yul\":12551:12557   */\n      dup3\n        /* \"#utility.yul\":12548:12562   */\n      lt\n        /* \"#utility.yul\":12528:12546   */\n      dup2\n        /* \"#utility.yul\":12525:12563   */\n      sub\n        /* \"#utility.yul\":12522:12606   */\n      tag_294\n      jumpi\n        /* \"#utility.yul\":12578:12596   */\n      tag_295\n      tag_150\n      jump\t// in\n    tag_295:\n        /* \"#utility.yul\":12522:12606   */\n    tag_294:\n        /* \"#utility.yul\":12343:12612   */\n      pop\n        /* \"#utility.yul\":12292:12612   */\n      swap2\n      swap1\n      pop\n      jump\t// out\n        /* \"#utility.yul\":12618:12798   */\n    tag_79:\n        /* \"#utility.yul\":12666:12743   */\n      0x4e487b7100000000000000000000000000000000000000000000000000000000\n        /* \"#utility.yul\":12663:12664   */\n      0x00\n        /* \"#utility.yul\":12656:12744   */\n      mstore\n        /* \"#utility.yul\":12763:12767   */\n      0x32\n        /* \"#utility.yul\":12760:12761   */\n      0x04\n        /* \"#utility.yul\":12753:12768   */\n      mstore\n        /* \"#utility.yul\":12787:12791   */\n      0x24\n        /* \"#utility.yul\":12784:12785   */\n      0x00\n        /* \"#utility.yul\":12777:12792   */\n      revert\n        /* \"#utility.yul\":12804:12984   */\n    tag_151:\n        /* \"#utility.yul\":12852:12929   */\n      0x4e487b7100000000000000000000000000000000000000000000000000000000\n        /* \"#utility.yul\":12849:12850   */\n      0x00\n        /* \"#utility.yul\":12842:12930   */\n      mstore\n        /* \"#utility.yul\":12949:12953   */\n      0x11\n        /* \"#utility.yul\":12946:12947   */\n      0x04\n        /* \"#utility.yul\":12939:12954   */\n      mstore\n        /* \"#utility.yul\":12973:12977   */\n      0x24\n        /* \"#utility.yul\":12970:12971   */\n      0x00\n        /* \"#utility.yul\":12963:12978   */\n      revert\n        /* \"#utility.yul\":12990:13223   */\n    tag_81:\n        /* \"#utility.yul\":13029:13032   */\n      0x00\n        /* \"#utility.yul\":13052:13076   */\n      tag_299\n        /* \"#utility.yul\":13070:13075   */\n      dup3\n        /* \"#utility.yul\":13052:13076   */\n      tag_120\n      jump\t// in\n    tag_299:\n        /* \"#utility.yul\":13043:13076   */\n      swap2\n      pop\n        /* \"#utility.yul\":13098:13164   */\n      0xffffffffffffffffffffffffffffffffffffffffffffffffffffffffffffffff\n        /* \"#utility.yul\":13091:13096   */\n      dup3\n        /* \"#utility.yul\":13088:13165   */\n      sub\n        /* \"#utility.yul\":13085:13188   */\n      tag_300\n      jumpi\n        /* \"#utility.yul\":13168:13186   */\n      tag_301\n      tag_151\n      jump\t// in\n    tag_301:\n        /* \"#utility.yul\":13085:13188   */\n    tag_300:\n        /* \"#utility.yul\":13215:13216   */\n      0x01\n        /* \"#utility.yul\":13208:13213   */\n      dup3\n        /* \"#utility.yul\":13204:13217   */\n      add\n        /* \"#utility.yul\":13197:13217   */\n      swap1\n      pop\n        /* \"#utility.yul\":12990:13223   */\n      swap2\n      swap1\n      pop\n      jump\t// out\n        /* \"#utility.yul\":13229:13410   */\n    tag_152:\n        /* \"#utility.yul\":13369:13402   */\n      0x526563656976657220616464726573732063616e6e6f74206265207a65726f00\n        /* \"#utility.yul\":13365:13366   */\n      0x00\n        /* \"#utility.yul\":13357:13363   */\n      dup3\n        /* \"#utility.yul\":13353:13367   */\n      add\n        /* \"#utility.yul\":13346:13403   */\n      mstore\n        /* \"#utility.yul\":13229:13410   */\n      pop\n      jump\t// out\n        /* \"#utility.yul\":13416:13782   */\n    tag_153:\n        /* \"#utility.yul\":13558:13561   */\n      0x00\n        /* \"#utility.yul\":13579:13646   */\n      tag_304\n        /* \"#utility.yul\":13643:13645   */\n      0x1f\n        /* \"#utility.yul\":13638:13641   */\n      dup4\n        /* \"#utility.yul\":13579:13646   */\n      tag_125\n      jump\t// in\n    tag_304:\n        /* \"#utility.yul\":13572:13646   */\n      swap2\n      pop\n        /* \"#utility.yul\":13655:13748   */\n      tag_305\n        /* \"#utility.yul\":13744:13747   */\n      dup3\n        /* \"#utility.yul\":13655:13748   */\n      tag_152\n      jump\t// in\n    tag_305:\n        /* \"#utility.yul\":13773:13775   */\n      0x20\n        /* \"#utility.yul\":13768:13771   */\n      dup3\n        /* \"#utility.yul\":13764:13776   */\n      add\n        /* \"#utility.yul\":13757:13776   */\n      swap1\n      pop\n        /* \"#utility.yul\":13416:13782   */\n      swap2\n      swap1\n      pop\n      jump\t// out\n        /* \"#utility.yul\":13788:14207   */\n    tag_100:\n        /* \"#utility.yul\":13954:13958   */\n      0x00\n        /* \"#utility.yul\":13992:13994   */\n      0x20\n        /* \"#utility.yul\":13981:13990   */\n      dup3\n        /* \"#utility.yul\":13977:13995   */\n      add\n        /* \"#utility.yul\":13969:13995   */\n      swap1\n      pop\n        /* \"#utility.yul\":14041:14050   */\n      dup2\n        /* \"#utility.yul\":14035:14039   */\n      dup2\n        /* \"#utility.yul\":14031:14051   */\n      sub\n        /* \"#utility.yul\":14027:14028   */\n      0x00\n        /* \"#utility.yul\":14016:14025   */\n      dup4\n        /* \"#utility.yul\":14012:14029   */\n      add\n        /* \"#utility.yul\":14005:14052   */\n      mstore\n        /* \"#utility.yul\":14069:14200   */\n      tag_307\n        /* \"#utility.yul\":14195:14199   */\n      dup2\n        /* \"#utility.yul\":14069:14200   */\n      tag_153\n      jump\t// in\n    tag_307:\n        /* \"#utility.yul\":14061:14200   */\n      swap1\n      pop\n        /* \"#utility.yul\":13788:14207   */\n      swap2\n      swap1\n      pop\n      jump\t// out\n        /* \"#utility.yul\":14213:14395   */\n    tag_154:\n        /* \"#utility.yul\":14353:14387   */\n      0x43616e6e6f742073656e6420616e20656d61696c20746f20796f757273656c66\n        /* \"#utility.yul\":14349:14350   */\n      0x00\n        /* \"#utility.yul\":14341:14347   */\n      dup3\n        /* \"#utility.yul\":14337:14351   */\n      add\n        /* \"#utility.yul\":14330:14388   */\n      mstore\n        /* \"#utility.yul\":14213:14395   */\n      pop\n      jump\t// out\n        /* \"#utility.yul\":14401:14767   */\n    tag_155:\n        /* \"#utility.yul\":14543:14546   */\n      0x00\n        /* \"#utility.yul\":14564:14631   */\n      tag_310\n        /* \"#utility.yul\":14628:14630   */\n      0x20\n        /* \"#utility.yul\":14623:14626   */\n      dup4\n        /* \"#utility.yul\":14564:14631   */\n      tag_125\n      jump\t// in\n    tag_310:\n        /* \"#utility.yul\":14557:14631   */\n      swap2\n      pop\n        /* \"#utility.yul\":14640:14733   */\n      tag_311\n        /* \"#utility.yul\":14729:14732   */\n      dup3\n        /* \"#utility.yul\":14640:14733   */\n      tag_154\n      jump\t// in\n    tag_311:\n        /* \"#utility.yul\":14758:14760   */\n      0x20\n        /* \"#utility.yul\":14753:14756   */\n      dup3\n        /* \"#utility.yul\":14749:14761   */\n      add\n        /* \"#utility.yul\":14742:14761   */\n      swap1\n      pop\n        /* \"#utility.yul\":14401:14767   */\n      swap2\n      swap1\n      pop\n      jump\t// out\n        /* \"#utility.yul\":14773:15192   */\n    tag_103:\n        /* \"#utility.yul\":14939:14943   */\n      0x00\n        /* \"#utility.yul\":14977:14979   */\n      0x20\n        /* \"#utility.yul\":14966:14975   */\n      dup3\n        /* \"#utility.yul\":14962:14980   */\n      add\n        /* \"#utility.yul\":14954:14980   */\n      swap1\n      pop\n        /* \"#utility.yul\":15026:15035   */\n      dup2\n        /* \"#utility.yul\":15020:15024   */\n      dup2\n        /* \"#utility.yul\":15016:15036   */\n      sub\n        /* \"#utility.yul\":15012:15013   */\n      0x00\n        /* \"#utility.yul\":15001:15010   */\n      dup4\n        /* \"#utility.yul\":14997:15014   */\n      add\n        /* \"#utility.yul\":14990:15037   */\n      mstore\n        /* \"#utility.yul\":15054:15185   */\n      tag_313\n        /* \"#utility.yul\":15180:15184   */\n      dup2\n        /* \"#utility.yul\":15054:15185   */\n      tag_155\n      jump\t// in\n    tag_313:\n        /* \"#utility.yul\":15046:15185   */\n      swap1\n      pop\n        /* \"#utility.yul\":14773:15192   */\n      swap2\n      swap1\n      pop\n      jump\t// out\n        /* \"#utility.yul\":15198:15339   */\n    tag_156:\n        /* \"#utility.yul\":15247:15251   */\n      0x00\n        /* \"#utility.yul\":15270:15273   */\n      dup2\n        /* \"#utility.yul\":15262:15273   */\n      swap1\n      pop\n        /* \"#utility.yul\":15293:15296   */\n      dup2\n        /* \"#utility.yul\":15290:15291   */\n      0x00\n        /* \"#utility.yul\":15283:15297   */\n      mstore\n        /* \"#utility.yul\":15327:15331   */\n      0x20\n        /* \"#utility.yul\":15324:15325   */\n      0x00\n        /* \"#utility.yul\":15314:15332   */\n      keccak256\n        /* \"#utility.yul\":15306:15332   */\n      swap1\n      pop\n        /* \"#utility.yul\":15198:15339   */\n      swap2\n      swap1\n      pop\n      jump\t// out\n        /* \"#utility.yul\":15345:15438   */\n    tag_157:\n        /* \"#utility.yul\":15382:15388   */\n      0x00\n        /* \"#utility.yul\":15429:15431   */\n      0x20\n        /* \"#utility.yul\":15424:15426   */\n      0x1f\n        /* \"#utility.yul\":15417:15422   */\n      dup4\n        /* \"#utility.yul\":15413:15427   */\n      add\n        /* \"#utility.yul\":15409:15432   */\n      div\n        /* \"#utility.yul\":15399:15432   */\n      swap1\n      pop\n        /* \"#utility.yul\":15345:15438   */\n      swap2\n      swap1\n      pop\n      jump\t// out\n        /* \"#utility.yul\":15444:15551   */\n    tag_158:\n        /* \"#utility.yul\":15488:15496   */\n      0x00\n        /* \"#utility.yul\":15538:15543   */\n      dup3\n        /* \"#utility.yul\":15532:15536   */\n      dup3\n        /* \"#utility.yul\":15528:15544   */\n      shl\n        /* \"#utility.yul\":15507:15544   */\n      swap1\n      pop\n        /* \"#utility.yul\":15444:15551   */\n      swap3\n      swap2\n      pop\n      pop\n      jump\t// out\n        /* \"#utility.yul\":15557:15950   */\n    tag_159:\n        /* \"#utility.yul\":15626:15632   */\n      0x00\n        /* \"#utility.yul\":15676:15677   */\n      0x08\n        /* \"#utility.yul\":15664:15674   */\n      dup4\n        /* \"#utility.yul\":15660:15678   */\n      mul\n        /* \"#utility.yul\":15699:15796   */\n      tag_318\n        /* \"#utility.yul\":15729:15795   */\n      0xffffffffffffffffffffffffffffffffffffffffffffffffffffffffffffffff\n        /* \"#utility.yul\":15718:15727   */\n      dup3\n        /* \"#utility.yul\":15699:15796   */\n      tag_158\n      jump\t// in\n    tag_318:\n        /* \"#utility.yul\":15817:15856   */\n      tag_319\n        /* \"#utility.yul\":15847:15855   */\n      dup7\n        /* \"#utility.yul\":15836:15845   */\n      dup4\n        /* \"#utility.yul\":15817:15856   */\n      tag_158\n      jump\t// in\n    tag_319:\n        /* \"#utility.yul\":15805:15856   */\n      swap6\n      pop\n        /* \"#utility.yul\":15889:15893   */\n      dup1\n        /* \"#utility.yul\":15885:15894   */\n      not\n        /* \"#utility.yul\":15878:15883   */\n      dup5\n        /* \"#utility.yul\":15874:15895   */\n      and\n        /* \"#utility.yul\":15865:15895   */\n      swap4\n      pop\n        /* \"#utility.yul\":15938:15942   */\n      dup1\n        /* \"#utility.yul\":15928:15936   */\n      dup7\n        /* \"#utility.yul\":15924:15943   */\n      and\n        /* \"#utility.yul\":15917:15922   */\n      dup5\n        /* \"#utility.yul\":15914:15944   */\n      or\n        /* \"#utility.yul\":15904:15944   */\n      swap3\n      pop\n        /* \"#utility.yul\":15633:15950   */\n      pop\n      pop\n        /* \"#utility.yul\":15557:15950   */\n      swap4\n      swap3\n      pop\n      pop\n      pop\n      jump\t// out\n        /* \"#utility.yul\":15956:16016   */\n    tag_160:\n        /* \"#utility.yul\":15984:15987   */\n      0x00\n        /* \"#utility.yul\":16005:16010   */\n      dup2\n        /* \"#utility.yul\":15998:16010   */\n      swap1\n      pop\n        /* \"#utility.yul\":15956:16016   */\n      swap2\n      swap1\n      pop\n      jump\t// out\n        /* \"#utility.yul\":16022:16164   */\n    tag_161:\n        /* \"#utility.yul\":16072:16081   */\n      0x00\n        /* \"#utility.yul\":16105:16158   */\n      tag_322\n        /* \"#utility.yul\":16123:16157   */\n      tag_323\n        /* \"#utility.yul\":16132:16156   */\n      tag_324\n        /* \"#utility.yul\":16150:16155   */\n      dup5\n        /* \"#utility.yul\":16132:16156   */\n      tag_120\n      jump\t// in\n    tag_324:\n        /* \"#utility.yul\":16123:16157   */\n      tag_160\n      jump\t// in\n    tag_323:\n        /* \"#utility.yul\":16105:16158   */\n      tag_120\n      jump\t// in\n    tag_322:\n        /* \"#utility.yul\":16092:16158   */\n      swap1\n      pop\n        /* \"#utility.yul\":16022:16164   */\n      swap2\n      swap1\n      pop\n      jump\t// out\n        /* \"#utility.yul\":16170:16245   */\n    tag_162:\n        /* \"#utility.yul\":16213:16216   */\n      0x00\n        /* \"#utility.yul\":16234:16239   */\n      dup2\n        /* \"#utility.yul\":16227:16239   */\n      swap1\n      pop\n        /* \"#utility.yul\":16170:16245   */\n      swap2\n      swap1\n      pop\n      jump\t// out\n        /* \"#utility.yul\":16251:16520   */\n    tag_163:\n        /* \"#utility.yul\":16361:16400   */\n      tag_327\n        /* \"#utility.yul\":16392:16399   */\n      dup4\n        /* \"#utility.yul\":16361:16400   */\n      tag_161\n      jump\t// in\n    tag_327:\n        /* \"#utility.yul\":16422:16513   */\n      tag_328\n        /* \"#utility.yul\":16471:16512   */\n      tag_329\n        /* \"#utility.yul\":16495:16511   */\n      dup3\n        /* \"#utility.yul\":16471:16512   */\n      tag_162\n      jump\t// in\n    tag_329:\n        /* \"#utility.yul\":16463:16469   */\n      dup5\n        /* \"#utility.yul\":16456:16460   */\n      dup5\n        /* \"#utility.yul\":16450:16461   */\n      sload\n        /* \"#utility.yul\":16422:16513   */\n      tag_159\n      jump\t// in\n    tag_328:\n        /* \"#utility.yul\":16416:16420   */\n      dup3\n        /* \"#utility.yul\":16409:16514   */\n      sstore\n        /* \"#utility.yul\":16327:16520   */\n      pop\n        /* \"#utility.yul\":16251:16520   */\n      pop\n      pop\n      pop\n      jump\t// out\n        /* \"#utility.yul\":16526:16599   */\n    tag_164:\n        /* \"#utility.yul\":16571:16574   */\n      0x00\n        /* \"#utility.yul\":16526:16599   */\n      swap1\n      jump\t// out\n        /* \"#utility.yul\":16605:16794   */\n    tag_165:\n        /* \"#utility.yul\":16682:16714   */\n      tag_332\n      tag_164\n      jump\t// in\n    tag_332:\n        /* \"#utility.yul\":16723:16788   */\n      tag_333\n        /* \"#utility.yul\":16781:16787   */\n      dup2\n        /* \"#utility.yul\":16773:16779   */\n      dup5\n        /* \"#utility.yul\":16767:16771   */\n      dup5\n        /* \"#utility.yul\":16723:16788   */\n      tag_163\n      jump\t// in\n    tag_333:\n        /* \"#utility.yul\":16658:16794   */\n      pop\n        /* \"#utility.yul\":16605:16794   */\n      pop\n      pop\n      jump\t// out\n        /* \"#utility.yul\":16800:16986   */\n    tag_166:\n        /* \"#utility.yul\":16860:16980   */\n    tag_335:\n        /* \"#utility.yul\":16877:16880   */\n      dup2\n        /* \"#utility.yul\":16870:16875   */\n      dup2\n        /* \"#utility.yul\":16867:16881   */\n      lt\n        /* \"#utility.yul\":16860:16980   */\n      iszero\n      tag_337\n      jumpi\n        /* \"#utility.yul\":16931:16970   */\n      tag_338\n        /* \"#utility.yul\":16968:16969   */\n      0x00\n        /* \"#utility.yul\":16961:16966   */\n      dup3\n        /* \"#utility.yul\":16931:16970   */\n      tag_165\n      jump\t// in\n    tag_338:\n        /* \"#utility.yul\":16904:16905   */\n      0x01\n        /* \"#utility.yul\":16897:16902   */\n      dup2\n        /* \"#utility.yul\":16893:16906   */\n      add\n        /* \"#utility.yul\":16884:16906   */\n      swap1\n      pop\n        /* \"#utility.yul\":16860:16980   */\n      jump(tag_335)\n    tag_337:\n        /* \"#utility.yul\":16800:16986   */\n      pop\n      pop\n      jump\t// out\n        /* \"#utility.yul\":16992:17535   */\n    tag_167:\n        /* \"#utility.yul\":17093:17095   */\n      0x1f\n        /* \"#utility.yul\":17088:17091   */\n      dup3\n        /* \"#utility.yul\":17085:17096   */\n      gt\n        /* \"#utility.yul\":17082:17528   */\n      iszero\n      tag_340\n      jumpi\n        /* \"#utility.yul\":17127:17165   */\n      tag_341\n        /* \"#utility.yul\":17159:17164   */\n      dup2\n        /* \"#utility.yul\":17127:17165   */\n      tag_156\n      jump\t// in\n    tag_341:\n        /* \"#utility.yul\":17211:17240   */\n      tag_342\n        /* \"#utility.yul\":17229:17239   */\n      dup5\n        /* \"#utility.yul\":17211:17240   */\n      tag_157\n      jump\t// in\n    tag_342:\n        /* \"#utility.yul\":17201:17209   */\n      dup2\n        /* \"#utility.yul\":17197:17241   */\n      add\n        /* \"#utility.yul\":17394:17396   */\n      0x20\n        /* \"#utility.yul\":17382:17392   */\n      dup6\n        /* \"#utility.yul\":17379:17397   */\n      lt\n        /* \"#utility.yul\":17376:17425   */\n      iszero\n      tag_343\n      jumpi\n        /* \"#utility.yul\":17415:17423   */\n      dup2\n        /* \"#utility.yul\":17400:17423   */\n      swap1\n      pop\n        /* \"#utility.yul\":17376:17425   */\n    tag_343:\n        /* \"#utility.yul\":17438:17518   */\n      tag_344\n        /* \"#utility.yul\":17494:17516   */\n      tag_345\n        /* \"#utility.yul\":17512:17515   */\n      dup6\n        /* \"#utility.yul\":17494:17516   */\n      tag_157\n      jump\t// in\n    tag_345:\n        /* \"#utility.yul\":17484:17492   */\n      dup4\n        /* \"#utility.yul\":17480:17517   */\n      add\n        /* \"#utility.yul\":17467:17478   */\n      dup3\n        /* \"#utility.yul\":17438:17518   */\n      tag_166\n      jump\t// in\n    tag_344:\n        /* \"#utility.yul\":17097:17528   */\n      pop\n      pop\n        /* \"#utility.yul\":17082:17528   */\n    tag_340:\n        /* \"#utility.yul\":16992:17535   */\n      pop\n      pop\n      pop\n      jump\t// out\n        /* \"#utility.yul\":17541:17658   */\n    tag_168:\n        /* \"#utility.yul\":17595:17603   */\n      0x00\n        /* \"#utility.yul\":17645:17650   */\n      dup3\n        /* \"#utility.yul\":17639:17643   */\n      dup3\n        /* \"#utility.yul\":17635:17651   */\n      shr\n        /* \"#utility.yul\":17614:17651   */\n      swap1\n      pop\n        /* \"#utility.yul\":17541:17658   */\n      swap3\n      swap2\n      pop\n      pop\n      jump\t// out\n        /* \"#utility.yul\":17664:17833   */\n    tag_169:\n        /* \"#utility.yul\":17708:17714   */\n      0x00\n        /* \"#utility.yul\":17741:17792   */\n      tag_348\n        /* \"#utility.yul\":17789:17790   */\n      0x00\n        /* \"#utility.yul\":17785:17791   */\n      not\n        /* \"#utility.yul\":17777:17782   */\n      dup5\n        /* \"#utility.yul\":17774:17775   */\n      0x08\n        /* \"#utility.yul\":17770:17783   */\n      mul\n        /* \"#utility.yul\":17741:17792   */\n      tag_168\n      jump\t// in\n    tag_348:\n        /* \"#utility.yul\":17737:17793   */\n      not\n        /* \"#utility.yul\":17822:17826   */\n      dup1\n        /* \"#utility.yul\":17816:17820   */\n      dup4\n        /* \"#utility.yul\":17812:17827   */\n      and\n        /* \"#utility.yul\":17802:17827   */\n      swap2\n      pop\n        /* \"#utility.yul\":17715:17833   */\n      pop\n        /* \"#utility.yul\":17664:17833   */\n      swap3\n      swap2\n      pop\n      pop\n      jump\t// out\n        /* \"#utility.yul\":17838:18133   */\n    tag_170:\n        /* \"#utility.yul\":17914:17918   */\n      0x00\n        /* \"#utility.yul\":18060:18089   */\n      tag_350\n        /* \"#utility.yul\":18085:18088   */\n      dup4\n        /* \"#utility.yul\":18079:18083   */\n      dup4\n        /* \"#utility.yul\":18060:18089   */\n      tag_169\n      jump\t// in\n    tag_350:\n        /* \"#utility.yul\":18052:18089   */\n      swap2\n      pop\n        /* \"#utility.yul\":18122:18125   */\n      dup3\n        /* \"#utility.yul\":18119:18120   */\n      0x02\n        /* \"#utility.yul\":18115:18126   */\n      mul\n        /* \"#utility.yul\":18109:18113   */\n      dup3\n        /* \"#utility.yul\":18106:18127   */\n      or\n        /* \"#utility.yul\":18098:18127   */\n      swap1\n      pop\n        /* \"#utility.yul\":17838:18133   */\n      swap3\n      swap2\n      pop\n      pop\n      jump\t// out\n        /* \"#utility.yul\":18138:19533   */\n    tag_106:\n        /* \"#utility.yul\":18255:18292   */\n      tag_352\n        /* \"#utility.yul\":18288:18291   */\n      dup3\n        /* \"#utility.yul\":18255:18292   */\n      tag_124\n      jump\t// in\n    tag_352:\n        /* \"#utility.yul\":18357:18375   */\n      0xffffffffffffffff\n        /* \"#utility.yul\":18349:18355   */\n      dup2\n        /* \"#utility.yul\":18346:18376   */\n      gt\n        /* \"#utility.yul\":18343:18399   */\n      iszero\n      tag_353\n      jumpi\n        /* \"#utility.yul\":18379:18397   */\n      tag_354\n      tag_143\n      jump\t// in\n    tag_354:\n        /* \"#utility.yul\":18343:18399   */\n    tag_353:\n        /* \"#utility.yul\":18423:18461   */\n      tag_355\n        /* \"#utility.yul\":18455:18459   */\n      dup3\n        /* \"#utility.yul\":18449:18460   */\n      sload\n        /* \"#utility.yul\":18423:18461   */\n      tag_38\n      jump\t// in\n    tag_355:\n        /* \"#utility.yul\":18508:18575   */\n      tag_356\n        /* \"#utility.yul\":18568:18574   */\n      dup3\n        /* \"#utility.yul\":18560:18566   */\n      dup3\n        /* \"#utility.yul\":18554:18558   */\n      dup6\n        /* \"#utility.yul\":18508:18575   */\n      tag_167\n      jump\t// in\n    tag_356:\n        /* \"#utility.yul\":18602:18603   */\n      0x00\n        /* \"#utility.yul\":18626:18630   */\n      0x20\n        /* \"#utility.yul\":18613:18630   */\n      swap1\n      pop\n        /* \"#utility.yul\":18658:18660   */\n      0x1f\n        /* \"#utility.yul\":18650:18656   */\n      dup4\n        /* \"#utility.yul\":18647:18661   */\n      gt\n        /* \"#utility.yul\":18675:18676   */\n      0x01\n        /* \"#utility.yul\":18670:19288   */\n      dup2\n      eq\n      tag_358\n      jumpi\n        /* \"#utility.yul\":19332:19333   */\n      0x00\n        /* \"#utility.yul\":19349:19355   */\n      dup5\n        /* \"#utility.yul\":19346:19423   */\n      iszero\n      tag_359\n      jumpi\n        /* \"#utility.yul\":19398:19407   */\n      dup3\n        /* \"#utility.yul\":19393:19396   */\n      dup8\n        /* \"#utility.yul\":19389:19408   */\n      add\n        /* \"#utility.yul\":19383:19409   */\n      mload\n        /* \"#utility.yul\":19374:19409   */\n      swap1\n      pop\n        /* \"#utility.yul\":19346:19423   */\n    tag_359:\n        /* \"#utility.yul\":19449:19516   */\n      tag_360\n        /* \"#utility.yul\":19509:19515   */\n      dup6\n        /* \"#utility.yul\":19502:19507   */\n      dup3\n        /* \"#utility.yul\":19449:19516   */\n      tag_170\n      jump\t// in\n    tag_360:\n        /* \"#utility.yul\":19443:19447   */\n      dup7\n        /* \"#utility.yul\":19436:19517   */\n      sstore\n        /* \"#utility.yul\":19305:19527   */\n      pop\n        /* \"#utility.yul\":18640:19527   */\n      jump(tag_357)\n        /* \"#utility.yul\":18670:19288   */\n    tag_358:\n        /* \"#utility.yul\":18722:18726   */\n      0x1f\n        /* \"#utility.yul\":18718:18727   */\n      not\n        /* \"#utility.yul\":18710:18716   */\n      dup5\n        /* \"#utility.yul\":18706:18728   */\n      and\n        /* \"#utility.yul\":18756:18793   */\n      tag_361\n        /* \"#utility.yul\":18788:18792   */\n      dup7\n        /* \"#utility.yul\":18756:18793   */\n      tag_156\n      jump\t// in\n    tag_361:\n        /* \"#utility.yul\":18815:18816   */\n      0x00\n        /* \"#utility.yul\":18829:19037   */\n    tag_362:\n        /* \"#utility.yul\":18843:18850   */\n      dup3\n        /* \"#utility.yul\":18840:18841   */\n      dup2\n        /* \"#utility.yul\":18837:18851   */\n      lt\n        /* \"#utility.yul\":18829:19037   */\n      iszero\n      tag_364\n      jumpi\n        /* \"#utility.yul\":18922:18931   */\n      dup5\n        /* \"#utility.yul\":18917:18920   */\n      dup10\n        /* \"#utility.yul\":18913:18932   */\n      add\n        /* \"#utility.yul\":18907:18933   */\n      mload\n        /* \"#utility.yul\":18899:18905   */\n      dup3\n        /* \"#utility.yul\":18892:18934   */\n      sstore\n        /* \"#utility.yul\":18973:18974   */\n      0x01\n        /* \"#utility.yul\":18965:18971   */\n      dup3\n        /* \"#utility.yul\":18961:18975   */\n      add\n        /* \"#utility.yul\":18951:18975   */\n      swap2\n      pop\n        /* \"#utility.yul\":19020:19022   */\n      0x20\n        /* \"#utility.yul\":19009:19018   */\n      dup6\n        /* \"#utility.yul\":19005:19023   */\n      add\n        /* \"#utility.yul\":18992:19023   */\n      swap5\n      pop\n        /* \"#utility.yul\":18866:18870   */\n      0x20\n        /* \"#utility.yul\":18863:18864   */\n      dup2\n        /* \"#utility.yul\":18859:18871   */\n      add\n        /* \"#utility.yul\":18854:18871   */\n      swap1\n      pop\n        /* \"#utility.yul\":18829:19037   */\n      jump(tag_362)\n    tag_364:\n        /* \"#utility.yul\":19065:19071   */\n      dup7\n        /* \"#utility.yul\":19056:19063   */\n      dup4\n        /* \"#utility.yul\":19053:19072   */\n      lt\n        /* \"#utility.yul\":19050:19229   */\n      iszero\n      tag_365\n      jumpi\n        /* \"#utility.yul\":19123:19132   */\n      dup5\n        /* \"#utility.yul\":19118:19121   */\n      dup10\n        /* \"#utility.yul\":19114:19133   */\n      add\n        /* \"#utility.yul\":19108:19134   */\n      mload\n        /* \"#utility.yul\":19166:19214   */\n      tag_366\n        /* \"#utility.yul\":19208:19212   */\n      0x1f\n        /* \"#utility.yul\":19200:19206   */\n      dup10\n        /* \"#utility.yul\":19196:19213   */\n      and\n        /* \"#utility.yul\":19185:19194   */\n      dup3\n        /* \"#utility.yul\":19166:19214   */\n      tag_169\n      jump\t// in\n    tag_366:\n        /* \"#utility.yul\":19158:19164   */\n      dup4\n        /* \"#utility.yul\":19151:19215   */\n      sstore\n        /* \"#utility.yul\":19073:19229   */\n      pop\n        /* \"#utility.yul\":19050:19229   */\n    tag_365:\n        /* \"#utility.yul\":19275:19276   */\n      0x01\n        /* \"#utility.yul\":19271:19272   */\n      0x02\n        /* \"#utility.yul\":19263:19269   */\n      dup9\n        /* \"#utility.yul\":19259:19273   */\n      mul\n        /* \"#utility.yul\":19255:19277   */\n      add\n        /* \"#utility.yul\":19249:19253   */\n      dup9\n        /* \"#utility.yul\":19242:19278   */\n      sstore\n        /* \"#utility.yul\":18677:19288   */\n      pop\n      pop\n      pop\n        /* \"#utility.yul\":18640:19527   */\n    tag_357:\n      pop\n        /* \"#utility.yul\":18230:19533   */\n      pop\n      pop\n      pop\n        /* \"#utility.yul\":18138:19533   */\n      pop\n      pop\n      jump\t// out\n        /* \"#utility.yul\":19539:19962   */\n    tag_112:\n        /* \"#utility.yul\":19680:19684   */\n      0x00\n        /* \"#utility.yul\":19718:19720   */\n      0x40\n        /* \"#utility.yul\":19707:19716   */\n      dup3\n        /* \"#utility.yul\":19703:19721   */\n      add\n        /* \"#utility.yul\":19695:19721   */\n      swap1\n      pop\n        /* \"#utility.yul\":19767:19776   */\n      dup2\n        /* \"#utility.yul\":19761:19765   */\n      dup2\n        /* \"#utility.yul\":19757:19777   */\n      sub\n        /* \"#utility.yul\":19753:19754   */\n      0x00\n        /* \"#utility.yul\":19742:19751   */\n      dup4\n        /* \"#utility.yul\":19738:19755   */\n      add\n        /* \"#utility.yul\":19731:19778   */\n      mstore\n        /* \"#utility.yul\":19795:19873   */\n      tag_368\n        /* \"#utility.yul\":19868:19872   */\n      dup2\n        /* \"#utility.yul\":19859:19865   */\n      dup6\n        /* \"#utility.yul\":19795:19873   */\n      tag_128\n      jump\t// in\n    tag_368:\n        /* \"#utility.yul\":19787:19873   */\n      swap1\n      pop\n        /* \"#utility.yul\":19883:19955   */\n      tag_369\n        /* \"#utility.yul\":19951:19953   */\n      0x20\n        /* \"#utility.yul\":19940:19949   */\n      dup4\n        /* \"#utility.yul\":19936:19954   */\n      add\n        /* \"#utility.yul\":19927:19933   */\n      dup5\n        /* \"#utility.yul\":19883:19955   */\n      tag_129\n      jump\t// in\n    tag_369:\n        /* \"#utility.yul\":19539:19962   */\n      swap4\n      swap3\n      pop\n      pop\n      pop\n      jump\t// out\n\n    auxdata: 0xa264697066735822122088cdd5b9c155cf35bcb7a66b748f93decfcca25928d9455b147f42c4ca5df12664736f6c63430008120033\n}\n",
				"bytecode": {
					"linkReferences": {},
					"object": "608060405234801561001057600080fd5b506118d7806100206000396000f3fe608060405234801561001057600080fd5b50600436106100625760003560e01c80633bcb2e66146100675780634d622e7a1461009b5780634d7206ab146100cf578063792f6183146100d95780638a887541146100f75780638bb8987914610128575b600080fd5b610081600480360381019061007c9190610ee7565b610144565b604051610092959493929190610fd5565b60405180910390f35b6100b560048036038101906100b09190610ee7565b6102e7565b6040516100c6959493929190610fd5565b60405180910390f35b6100d761048a565b005b6100e161073b565b6040516100ee91906111dd565b60405180910390f35b610111600480360381019061010c91906111ff565b6109b0565b60405161011f92919061122c565b60405180910390f35b610142600480360381019061013d919061138a565b610a41565b005b6001602052816000526040600020818154811061016057600080fd5b9060005260206000209060050201600091509150508060000160009054906101000a900473ffffffffffffffffffffffffffffffffffffffff16908060010160009054906101000a900473ffffffffffffffffffffffffffffffffffffffff16908060020180546101d090611444565b80601f01602080910402602001604051908101604052809291908181526020018280546101fc90611444565b80156102495780601f1061021e57610100808354040283529160200191610249565b820191906000526020600020905b81548152906001019060200180831161022c57829003601f168201915b50505050509080600301805461025e90611444565b80601f016020809104026020016040519081016040528092919081815260200182805461028a90611444565b80156102d75780601f106102ac576101008083540402835291602001916102d7565b820191906000526020600020905b8154815290600101906020018083116102ba57829003601f168201915b5050505050908060040154905085565b6000602052816000526040600020818154811061030357600080fd5b9060005260206000209060050201600091509150508060000160009054906101000a900473ffffffffffffffffffffffffffffffffffffffff16908060010160009054906101000a900473ffffffffffffffffffffffffffffffffffffffff169080600201805461037390611444565b80601f016020809104026020016040519081016040528092919081815260200182805461039f90611444565b80156103ec5780601f106103c1576101008083540402835291602001916103ec565b820191906000526020600020905b8154815290600101906020018083116103cf57829003601f168201915b50505050509080600301805461040190611444565b80601f016020809104026020016040519081016040528092919081815260200182805461042d90611444565b801561047a5780601f1061044f5761010080835404028352916020019161047a565b820191906000526020600020905b81548152906001019060200180831161045d57829003601f168201915b5050505050908060040154905085565b60008060003373ffffffffffffffffffffffffffffffffffffffff1673ffffffffffffffffffffffffffffffffffffffff168152602001908152602001600020805480602002602001604051908101604052809291908181526020016000905b828210156106f657838290600052602060002090600502016040518060a00160405290816000820160009054906101000a900473ffffffffffffffffffffffffffffffffffffffff1673ffffffffffffffffffffffffffffffffffffffff1673ffffffffffffffffffffffffffffffffffffffff1681526020016001820160009054906101000a900473ffffffffffffffffffffffffffffffffffffffff1673ffffffffffffffffffffffffffffffffffffffff1673ffffffffffffffffffffffffffffffffffffffff1681526020016002820180546105c990611444565b80601f01602080910402602001604051908101604052809291908181526020018280546105f590611444565b80156106425780601f1061061757610100808354040283529160200191610642565b820191906000526020600020905b81548152906001019060200180831161062557829003601f168201915b5050505050815260200160038201805461065b90611444565b80601f016020809104026020016040519081016040528092919081815260200182805461068790611444565b80156106d45780601f106106a9576101008083540402835291602001916106d4565b820191906000526020600020905b8154815290600101906020018083116106b757829003601f168201915b50505050508152602001600482015481525050815260200190600101906104ea565b50505050905060005b81518110156107375781818151811061071b5761071a611475565b5b602002602001015150808061072f906114d3565b9150506106ff565b5050565b60606000803373ffffffffffffffffffffffffffffffffffffffff1673ffffffffffffffffffffffffffffffffffffffff168152602001908152602001600020805480602002602001604051908101604052809291908181526020016000905b828210156109a757838290600052602060002090600502016040518060a00160405290816000820160009054906101000a900473ffffffffffffffffffffffffffffffffffffffff1673ffffffffffffffffffffffffffffffffffffffff1673ffffffffffffffffffffffffffffffffffffffff1681526020016001820160009054906101000a900473ffffffffffffffffffffffffffffffffffffffff1673ffffffffffffffffffffffffffffffffffffffff1673ffffffffffffffffffffffffffffffffffffffff16815260200160028201805461087a90611444565b80601f01602080910402602001604051908101604052809291908181526020018280546108a690611444565b80156108f35780601f106108c8576101008083540402835291602001916108f3565b820191906000526020600020905b8154815290600101906020018083116108d657829003601f168201915b5050505050815260200160038201805461090c90611444565b80601f016020809104026020016040519081016040528092919081815260200182805461093890611444565b80156109855780601f1061095a57610100808354040283529160200191610985565b820191906000526020600020905b81548152906001019060200180831161096857829003601f168201915b505050505081526020016004820154815250508152602001906001019061079b565b50505050905090565b6000806000808473ffffffffffffffffffffffffffffffffffffffff1673ffffffffffffffffffffffffffffffffffffffff168152602001908152602001600020805490509150600160008473ffffffffffffffffffffffffffffffffffffffff1673ffffffffffffffffffffffffffffffffffffffff168152602001908152602001600020805490509050915091565b600073ffffffffffffffffffffffffffffffffffffffff168373ffffffffffffffffffffffffffffffffffffffff1603610ab0576040517f08c379a0000000000000000000000000000000000000000000000000000000008152600401610aa790611567565b60405180910390fd5b8273ffffffffffffffffffffffffffffffffffffffff163373ffffffffffffffffffffffffffffffffffffffff1603610b1e576040517f08c379a0000000000000000000000000000000000000000000000000000000008152600401610b15906115d3565b60405180910390fd5b60006040518060a001604052803373ffffffffffffffffffffffffffffffffffffffff1681526020018573ffffffffffffffffffffffffffffffffffffffff1681526020018481526020018381526020014281525090506000808573ffffffffffffffffffffffffffffffffffffffff1673ffffffffffffffffffffffffffffffffffffffff16815260200190815260200160002081908060018154018082558091505060019003906000526020600020906005020160009091909190915060008201518160000160006101000a81548173ffffffffffffffffffffffffffffffffffffffff021916908373ffffffffffffffffffffffffffffffffffffffff16021790555060208201518160010160006101000a81548173ffffffffffffffffffffffffffffffffffffffff021916908373ffffffffffffffffffffffffffffffffffffffff1602179055506040820151816002019081610c80919061179f565b506060820151816003019081610c96919061179f565b50608082015181600401555050600160003373ffffffffffffffffffffffffffffffffffffffff1673ffffffffffffffffffffffffffffffffffffffff16815260200190815260200160002081908060018154018082558091505060019003906000526020600020906005020160009091909190915060008201518160000160006101000a81548173ffffffffffffffffffffffffffffffffffffffff021916908373ffffffffffffffffffffffffffffffffffffffff16021790555060208201518160010160006101000a81548173ffffffffffffffffffffffffffffffffffffffff021916908373ffffffffffffffffffffffffffffffffffffffff1602179055506040820151816002019081610daf919061179f565b506060820151816003019081610dc5919061179f565b506080820151816004015550508373ffffffffffffffffffffffffffffffffffffffff163373ffffffffffffffffffffffffffffffffffffffff167f2ecdf33a271447607b6aca3173f5f892e91720d5106f80c513aa4710a2bb4e338542604051610e31929190611871565b60405180910390a350505050565b6000604051905090565b600080fd5b600080fd5b600073ffffffffffffffffffffffffffffffffffffffff82169050919050565b6000610e7e82610e53565b9050919050565b610e8e81610e73565b8114610e9957600080fd5b50565b600081359050610eab81610e85565b92915050565b6000819050919050565b610ec481610eb1565b8114610ecf57600080fd5b50565b600081359050610ee181610ebb565b92915050565b60008060408385031215610efe57610efd610e49565b5b6000610f0c85828601610e9c565b9250506020610f1d85828601610ed2565b9150509250929050565b610f3081610e73565b82525050565b600081519050919050565b600082825260208201905092915050565b60005b83811015610f70578082015181840152602081019050610f55565b60008484015250505050565b6000601f19601f8301169050919050565b6000610f9882610f36565b610fa28185610f41565b9350610fb2818560208601610f52565b610fbb81610f7c565b840191505092915050565b610fcf81610eb1565b82525050565b600060a082019050610fea6000830188610f27565b610ff76020830187610f27565b81810360408301526110098186610f8d565b9050818103606083015261101d8185610f8d565b905061102c6080830184610fc6565b9695505050505050565b600081519050919050565b600082825260208201905092915050565b6000819050602082019050919050565b61106b81610e73565b82525050565b600082825260208201905092915050565b600061108d82610f36565b6110978185611071565b93506110a7818560208601610f52565b6110b081610f7c565b840191505092915050565b6110c481610eb1565b82525050565b600060a0830160008301516110e26000860182611062565b5060208301516110f56020860182611062565b506040830151848203604086015261110d8282611082565b915050606083015184820360608601526111278282611082565b915050608083015161113c60808601826110bb565b508091505092915050565b600061115383836110ca565b905092915050565b6000602082019050919050565b600061117382611036565b61117d8185611041565b93508360208202850161118f85611052565b8060005b858110156111cb57848403895281516111ac8582611147565b94506111b78361115b565b925060208a01995050600181019050611193565b50829750879550505050505092915050565b600060208201905081810360008301526111f78184611168565b905092915050565b60006020828403121561121557611214610e49565b5b600061122384828501610e9c565b91505092915050565b60006040820190506112416000830185610fc6565b61124e6020830184610fc6565b9392505050565b600080fd5b600080fd5b7f4e487b7100000000000000000000000000000000000000000000000000000000600052604160045260246000fd5b61129782610f7c565b810181811067ffffffffffffffff821117156112b6576112b561125f565b5b80604052505050565b60006112c9610e3f565b90506112d5828261128e565b919050565b600067ffffffffffffffff8211156112f5576112f461125f565b5b6112fe82610f7c565b9050602081019050919050565b82818337600083830152505050565b600061132d611328846112da565b6112bf565b9050828152602081018484840111156113495761134861125a565b5b61135484828561130b565b509392505050565b600082601f83011261137157611370611255565b5b813561138184826020860161131a565b91505092915050565b6000806000606084860312156113a3576113a2610e49565b5b60006113b186828701610e9c565b935050602084013567ffffffffffffffff8111156113d2576113d1610e4e565b5b6113de8682870161135c565b925050604084013567ffffffffffffffff8111156113ff576113fe610e4e565b5b61140b8682870161135c565b9150509250925092565b7f4e487b7100000000000000000000000000000000000000000000000000000000600052602260045260246000fd5b6000600282049050600182168061145c57607f821691505b60208210810361146f5761146e611415565b5b50919050565b7f4e487b7100000000000000000000000000000000000000000000000000000000600052603260045260246000fd5b7f4e487b7100000000000000000000000000000000000000000000000000000000600052601160045260246000fd5b60006114de82610eb1565b91507fffffffffffffffffffffffffffffffffffffffffffffffffffffffffffffffff82036115105761150f6114a4565b5b600182019050919050565b7f526563656976657220616464726573732063616e6e6f74206265207a65726f00600082015250565b6000611551601f83610f41565b915061155c8261151b565b602082019050919050565b6000602082019050818103600083015261158081611544565b9050919050565b7f43616e6e6f742073656e6420616e20656d61696c20746f20796f757273656c66600082015250565b60006115bd602083610f41565b91506115c882611587565b602082019050919050565b600060208201905081810360008301526115ec816115b0565b9050919050565b60008190508160005260206000209050919050565b60006020601f8301049050919050565b600082821b905092915050565b6000600883026116557fffffffffffffffffffffffffffffffffffffffffffffffffffffffffffffffff82611618565b61165f8683611618565b95508019841693508086168417925050509392505050565b6000819050919050565b600061169c61169761169284610eb1565b611677565b610eb1565b9050919050565b6000819050919050565b6116b683611681565b6116ca6116c2826116a3565b848454611625565b825550505050565b600090565b6116df6116d2565b6116ea8184846116ad565b505050565b5b8181101561170e576117036000826116d7565b6001810190506116f0565b5050565b601f82111561175357611724816115f3565b61172d84611608565b8101602085101561173c578190505b61175061174885611608565b8301826116ef565b50505b505050565b600082821c905092915050565b600061177660001984600802611758565b1980831691505092915050565b600061178f8383611765565b9150826002028217905092915050565b6117a882610f36565b67ffffffffffffffff8111156117c1576117c061125f565b5b6117cb8254611444565b6117d6828285611712565b600060209050601f83116001811461180957600084156117f7578287015190505b6118018582611783565b865550611869565b601f198416611817866115f3565b60005b8281101561183f5784890151825560018201915060208501945060208101905061181a565b8683101561185c5784890151611858601f891682611765565b8355505b6001600288020188555050505b505050505050565b6000604082019050818103600083015261188b8185610f8d565b905061189a6020830184610fc6565b939250505056fea264697066735822122088cdd5b9c155cf35bcb7a66b748f93decfcca25928d9455b147f42c4ca5df12664736f6c63430008120033",
					"opcodes": "PUSH1 0x80 PUSH1 0x40 MSTORE CALLVALUE DUP1 ISZERO PUSH2 0x10 JUMPI PUSH1 0x0 DUP1 REVERT JUMPDEST POP PUSH2 0x18D7 DUP1 PUSH2 0x20 PUSH1 0x0 CODECOPY PUSH1 0x0 RETURN INVALID PUSH1 0x80 PUSH1 0x40 MSTORE CALLVALUE DUP1 ISZERO PUSH2 0x10 JUMPI PUSH1 0x0 DUP1 REVERT JUMPDEST POP PUSH1 0x4 CALLDATASIZE LT PUSH2 0x62 JUMPI PUSH1 0x0 CALLDATALOAD PUSH1 0xE0 SHR DUP1 PUSH4 0x3BCB2E66 EQ PUSH2 0x67 JUMPI DUP1 PUSH4 0x4D622E7A EQ PUSH2 0x9B JUMPI DUP1 PUSH4 0x4D7206AB EQ PUSH2 0xCF JUMPI DUP1 PUSH4 0x792F6183 EQ PUSH2 0xD9 JUMPI DUP1 PUSH4 0x8A887541 EQ PUSH2 0xF7 JUMPI DUP1 PUSH4 0x8BB89879 EQ PUSH2 0x128 JUMPI JUMPDEST PUSH1 0x0 DUP1 REVERT JUMPDEST PUSH2 0x81 PUSH1 0x4 DUP1 CALLDATASIZE SUB DUP2 ADD SWAP1 PUSH2 0x7C SWAP2 SWAP1 PUSH2 0xEE7 JUMP JUMPDEST PUSH2 0x144 JUMP JUMPDEST PUSH1 0x40 MLOAD PUSH2 0x92 SWAP6 SWAP5 SWAP4 SWAP3 SWAP2 SWAP1 PUSH2 0xFD5 JUMP JUMPDEST PUSH1 0x40 MLOAD DUP1 SWAP2 SUB SWAP1 RETURN JUMPDEST PUSH2 0xB5 PUSH1 0x4 DUP1 CALLDATASIZE SUB DUP2 ADD SWAP1 PUSH2 0xB0 SWAP2 SWAP1 PUSH2 0xEE7 JUMP JUMPDEST PUSH2 0x2E7 JUMP JUMPDEST PUSH1 0x40 MLOAD PUSH2 0xC6 SWAP6 SWAP5 SWAP4 SWAP3 SWAP2 SWAP1 PUSH2 0xFD5 JUMP JUMPDEST PUSH1 0x40 MLOAD DUP1 SWAP2 SUB SWAP1 RETURN JUMPDEST PUSH2 0xD7 PUSH2 0x48A JUMP JUMPDEST STOP JUMPDEST PUSH2 0xE1 PUSH2 0x73B JUMP JUMPDEST PUSH1 0x40 MLOAD PUSH2 0xEE SWAP2 SWAP1 PUSH2 0x11DD JUMP JUMPDEST PUSH1 0x40 MLOAD DUP1 SWAP2 SUB SWAP1 RETURN JUMPDEST PUSH2 0x111 PUSH1 0x4 DUP1 CALLDATASIZE SUB DUP2 ADD SWAP1 PUSH2 0x10C SWAP2 SWAP1 PUSH2 0x11FF JUMP JUMPDEST PUSH2 0x9B0 JUMP JUMPDEST PUSH1 0x40 MLOAD PUSH2 0x11F SWAP3 SWAP2 SWAP1 PUSH2 0x122C JUMP JUMPDEST PUSH1 0x40 MLOAD DUP1 SWAP2 SUB SWAP1 RETURN JUMPDEST PUSH2 0x142 PUSH1 0x4 DUP1 CALLDATASIZE SUB DUP2 ADD SWAP1 PUSH2 0x13D SWAP2 SWAP1 PUSH2 0x138A JUMP JUMPDEST PUSH2 0xA41 JUMP JUMPDEST STOP JUMPDEST PUSH1 0x1 PUSH1 0x20 MSTORE DUP2 PUSH1 0x0 MSTORE PUSH1 0x40 PUSH1 0x0 KECCAK256 DUP2 DUP2 SLOAD DUP2 LT PUSH2 0x160 JUMPI PUSH1 0x0 DUP1 REVERT JUMPDEST SWAP1 PUSH1 0x0 MSTORE PUSH1 0x20 PUSH1 0x0 KECCAK256 SWAP1 PUSH1 0x5 MUL ADD PUSH1 0x0 SWAP2 POP SWAP2 POP POP DUP1 PUSH1 0x0 ADD PUSH1 0x0 SWAP1 SLOAD SWAP1 PUSH2 0x100 EXP SWAP1 DIV PUSH20 0xFFFFFFFFFFFFFFFFFFFFFFFFFFFFFFFFFFFFFFFF AND SWAP1 DUP1 PUSH1 0x1 ADD PUSH1 0x0 SWAP1 SLOAD SWAP1 PUSH2 0x100 EXP SWAP1 DIV PUSH20 0xFFFFFFFFFFFFFFFFFFFFFFFFFFFFFFFFFFFFFFFF AND SWAP1 DUP1 PUSH1 0x2 ADD DUP1 SLOAD PUSH2 0x1D0 SWAP1 PUSH2 0x1444 JUMP JUMPDEST DUP1 PUSH1 0x1F ADD PUSH1 0x20 DUP1 SWAP2 DIV MUL PUSH1 0x20 ADD PUSH1 0x40 MLOAD SWAP1 DUP2 ADD PUSH1 0x40 MSTORE DUP1 SWAP3 SWAP2 SWAP1 DUP2 DUP2 MSTORE PUSH1 0x20 ADD DUP3 DUP1 SLOAD PUSH2 0x1FC SWAP1 PUSH2 0x1444 JUMP JUMPDEST DUP1 ISZERO PUSH2 0x249 JUMPI DUP1 PUSH1 0x1F LT PUSH2 0x21E JUMPI PUSH2 0x100 DUP1 DUP4 SLOAD DIV MUL DUP4 MSTORE SWAP2 PUSH1 0x20 ADD SWAP2 PUSH2 0x249 JUMP JUMPDEST DUP3 ADD SWAP2 SWAP1 PUSH1 0x0 MSTORE PUSH1 0x20 PUSH1 0x0 KECCAK256 SWAP1 JUMPDEST DUP2 SLOAD DUP2 MSTORE SWAP1 PUSH1 0x1 ADD SWAP1 PUSH1 0x20 ADD DUP1 DUP4 GT PUSH2 0x22C JUMPI DUP3 SWAP1 SUB PUSH1 0x1F AND DUP3 ADD SWAP2 JUMPDEST POP POP POP POP POP SWAP1 DUP1 PUSH1 0x3 ADD DUP1 SLOAD PUSH2 0x25E SWAP1 PUSH2 0x1444 JUMP JUMPDEST DUP1 PUSH1 0x1F ADD PUSH1 0x20 DUP1 SWAP2 DIV MUL PUSH1 0x20 ADD PUSH1 0x40 MLOAD SWAP1 DUP2 ADD PUSH1 0x40 MSTORE DUP1 SWAP3 SWAP2 SWAP1 DUP2 DUP2 MSTORE PUSH1 0x20 ADD DUP3 DUP1 SLOAD PUSH2 0x28A SWAP1 PUSH2 0x1444 JUMP JUMPDEST DUP1 ISZERO PUSH2 0x2D7 JUMPI DUP1 PUSH1 0x1F LT PUSH2 0x2AC JUMPI PUSH2 0x100 DUP1 DUP4 SLOAD DIV MUL DUP4 MSTORE SWAP2 PUSH1 0x20 ADD SWAP2 PUSH2 0x2D7 JUMP JUMPDEST DUP3 ADD SWAP2 SWAP1 PUSH1 0x0 MSTORE PUSH1 0x20 PUSH1 0x0 KECCAK256 SWAP1 JUMPDEST DUP2 SLOAD DUP2 MSTORE SWAP1 PUSH1 0x1 ADD SWAP1 PUSH1 0x20 ADD DUP1 DUP4 GT PUSH2 0x2BA JUMPI DUP3 SWAP1 SUB PUSH1 0x1F AND DUP3 ADD SWAP2 JUMPDEST POP POP POP POP POP SWAP1 DUP1 PUSH1 0x4 ADD SLOAD SWAP1 POP DUP6 JUMP JUMPDEST PUSH1 0x0 PUSH1 0x20 MSTORE DUP2 PUSH1 0x0 MSTORE PUSH1 0x40 PUSH1 0x0 KECCAK256 DUP2 DUP2 SLOAD DUP2 LT PUSH2 0x303 JUMPI PUSH1 0x0 DUP1 REVERT JUMPDEST SWAP1 PUSH1 0x0 MSTORE PUSH1 0x20 PUSH1 0x0 KECCAK256 SWAP1 PUSH1 0x5 MUL ADD PUSH1 0x0 SWAP2 POP SWAP2 POP POP DUP1 PUSH1 0x0 ADD PUSH1 0x0 SWAP1 SLOAD SWAP1 PUSH2 0x100 EXP SWAP1 DIV PUSH20 0xFFFFFFFFFFFFFFFFFFFFFFFFFFFFFFFFFFFFFFFF AND SWAP1 DUP1 PUSH1 0x1 ADD PUSH1 0x0 SWAP1 SLOAD SWAP1 PUSH2 0x100 EXP SWAP1 DIV PUSH20 0xFFFFFFFFFFFFFFFFFFFFFFFFFFFFFFFFFFFFFFFF AND SWAP1 DUP1 PUSH1 0x2 ADD DUP1 SLOAD PUSH2 0x373 SWAP1 PUSH2 0x1444 JUMP JUMPDEST DUP1 PUSH1 0x1F ADD PUSH1 0x20 DUP1 SWAP2 DIV MUL PUSH1 0x20 ADD PUSH1 0x40 MLOAD SWAP1 DUP2 ADD PUSH1 0x40 MSTORE DUP1 SWAP3 SWAP2 SWAP1 DUP2 DUP2 MSTORE PUSH1 0x20 ADD DUP3 DUP1 SLOAD PUSH2 0x39F SWAP1 PUSH2 0x1444 JUMP JUMPDEST DUP1 ISZERO PUSH2 0x3EC JUMPI DUP1 PUSH1 0x1F LT PUSH2 0x3C1 JUMPI PUSH2 0x100 DUP1 DUP4 SLOAD DIV MUL DUP4 MSTORE SWAP2 PUSH1 0x20 ADD SWAP2 PUSH2 0x3EC JUMP JUMPDEST DUP3 ADD SWAP2 SWAP1 PUSH1 0x0 MSTORE PUSH1 0x20 PUSH1 0x0 KECCAK256 SWAP1 JUMPDEST DUP2 SLOAD DUP2 MSTORE SWAP1 PUSH1 0x1 ADD SWAP1 PUSH1 0x20 ADD DUP1 DUP4 GT PUSH2 0x3CF JUMPI DUP3 SWAP1 SUB PUSH1 0x1F AND DUP3 ADD SWAP2 JUMPDEST POP POP POP POP POP SWAP1 DUP1 PUSH1 0x3 ADD DUP1 SLOAD PUSH2 0x401 SWAP1 PUSH2 0x1444 JUMP JUMPDEST DUP1 PUSH1 0x1F ADD PUSH1 0x20 DUP1 SWAP2 DIV MUL PUSH1 0x20 ADD PUSH1 0x40 MLOAD SWAP1 DUP2 ADD PUSH1 0x40 MSTORE DUP1 SWAP3 SWAP2 SWAP1 DUP2 DUP2 MSTORE PUSH1 0x20 ADD DUP3 DUP1 SLOAD PUSH2 0x42D SWAP1 PUSH2 0x1444 JUMP JUMPDEST DUP1 ISZERO PUSH2 0x47A JUMPI DUP1 PUSH1 0x1F LT PUSH2 0x44F JUMPI PUSH2 0x100 DUP1 DUP4 SLOAD DIV MUL DUP4 MSTORE SWAP2 PUSH1 0x20 ADD SWAP2 PUSH2 0x47A JUMP JUMPDEST DUP3 ADD SWAP2 SWAP1 PUSH1 0x0 MSTORE PUSH1 0x20 PUSH1 0x0 KECCAK256 SWAP1 JUMPDEST DUP2 SLOAD DUP2 MSTORE SWAP1 PUSH1 0x1 ADD SWAP1 PUSH1 0x20 ADD DUP1 DUP4 GT PUSH2 0x45D JUMPI DUP3 SWAP1 SUB PUSH1 0x1F AND DUP3 ADD SWAP2 JUMPDEST POP POP POP POP POP SWAP1 DUP1 PUSH1 0x4 ADD SLOAD SWAP1 POP DUP6 JUMP JUMPDEST PUSH1 0x0 DUP1 PUSH1 0x0 CALLER PUSH20 0xFFFFFFFFFFFFFFFFFFFFFFFFFFFFFFFFFFFFFFFF AND PUSH20 0xFFFFFFFFFFFFFFFFFFFFFFFFFFFFFFFFFFFFFFFF AND DUP2 MSTORE PUSH1 0x20 ADD SWAP1 DUP2 MSTORE PUSH1 0x20 ADD PUSH1 0x0 KECCAK256 DUP1 SLOAD DUP1 PUSH1 0x20 MUL PUSH1 0x20 ADD PUSH1 0x40 MLOAD SWAP1 DUP2 ADD PUSH1 0x40 MSTORE DUP1 SWAP3 SWAP2 SWAP1 DUP2 DUP2 MSTORE PUSH1 0x20 ADD PUSH1 0x0 SWAP1 JUMPDEST DUP3 DUP3 LT ISZERO PUSH2 0x6F6 JUMPI DUP4 DUP3 SWAP1 PUSH1 0x0 MSTORE PUSH1 0x20 PUSH1 0x0 KECCAK256 SWAP1 PUSH1 0x5 MUL ADD PUSH1 0x40 MLOAD DUP1 PUSH1 0xA0 ADD PUSH1 0x40 MSTORE SWAP1 DUP2 PUSH1 0x0 DUP3 ADD PUSH1 0x0 SWAP1 SLOAD SWAP1 PUSH2 0x100 EXP SWAP1 DIV PUSH20 0xFFFFFFFFFFFFFFFFFFFFFFFFFFFFFFFFFFFFFFFF AND PUSH20 0xFFFFFFFFFFFFFFFFFFFFFFFFFFFFFFFFFFFFFFFF AND PUSH20 0xFFFFFFFFFFFFFFFFFFFFFFFFFFFFFFFFFFFFFFFF AND DUP2 MSTORE PUSH1 0x20 ADD PUSH1 0x1 DUP3 ADD PUSH1 0x0 SWAP1 SLOAD SWAP1 PUSH2 0x100 EXP SWAP1 DIV PUSH20 0xFFFFFFFFFFFFFFFFFFFFFFFFFFFFFFFFFFFFFFFF AND PUSH20 0xFFFFFFFFFFFFFFFFFFFFFFFFFFFFFFFFFFFFFFFF AND PUSH20 0xFFFFFFFFFFFFFFFFFFFFFFFFFFFFFFFFFFFFFFFF AND DUP2 MSTORE PUSH1 0x20 ADD PUSH1 0x2 DUP3 ADD DUP1 SLOAD PUSH2 0x5C9 SWAP1 PUSH2 0x1444 JUMP JUMPDEST DUP1 PUSH1 0x1F ADD PUSH1 0x20 DUP1 SWAP2 DIV MUL PUSH1 0x20 ADD PUSH1 0x40 MLOAD SWAP1 DUP2 ADD PUSH1 0x40 MSTORE DUP1 SWAP3 SWAP2 SWAP1 DUP2 DUP2 MSTORE PUSH1 0x20 ADD DUP3 DUP1 SLOAD PUSH2 0x5F5 SWAP1 PUSH2 0x1444 JUMP JUMPDEST DUP1 ISZERO PUSH2 0x642 JUMPI DUP1 PUSH1 0x1F LT PUSH2 0x617 JUMPI PUSH2 0x100 DUP1 DUP4 SLOAD DIV MUL DUP4 MSTORE SWAP2 PUSH1 0x20 ADD SWAP2 PUSH2 0x642 JUMP JUMPDEST DUP3 ADD SWAP2 SWAP1 PUSH1 0x0 MSTORE PUSH1 0x20 PUSH1 0x0 KECCAK256 SWAP1 JUMPDEST DUP2 SLOAD DUP2 MSTORE SWAP1 PUSH1 0x1 ADD SWAP1 PUSH1 0x20 ADD DUP1 DUP4 GT PUSH2 0x625 JUMPI DUP3 SWAP1 SUB PUSH1 0x1F AND DUP3 ADD SWAP2 JUMPDEST POP POP POP POP POP DUP2 MSTORE PUSH1 0x20 ADD PUSH1 0x3 DUP3 ADD DUP1 SLOAD PUSH2 0x65B SWAP1 PUSH2 0x1444 JUMP JUMPDEST DUP1 PUSH1 0x1F ADD PUSH1 0x20 DUP1 SWAP2 DIV MUL PUSH1 0x20 ADD PUSH1 0x40 MLOAD SWAP1 DUP2 ADD PUSH1 0x40 MSTORE DUP1 SWAP3 SWAP2 SWAP1 DUP2 DUP2 MSTORE PUSH1 0x20 ADD DUP3 DUP1 SLOAD PUSH2 0x687 SWAP1 PUSH2 0x1444 JUMP JUMPDEST DUP1 ISZERO PUSH2 0x6D4 JUMPI DUP1 PUSH1 0x1F LT PUSH2 0x6A9 JUMPI PUSH2 0x100 DUP1 DUP4 SLOAD DIV MUL DUP4 MSTORE SWAP2 PUSH1 0x20 ADD SWAP2 PUSH2 0x6D4 JUMP JUMPDEST DUP3 ADD SWAP2 SWAP1 PUSH1 0x0 MSTORE PUSH1 0x20 PUSH1 0x0 KECCAK256 SWAP1 JUMPDEST DUP2 SLOAD DUP2 MSTORE SWAP1 PUSH1 0x1 ADD SWAP1 PUSH1 0x20 ADD DUP1 DUP4 GT PUSH2 0x6B7 JUMPI DUP3 SWAP1 SUB PUSH1 0x1F AND DUP3 ADD SWAP2 JUMPDEST POP POP POP POP POP DUP2 MSTORE PUSH1 0x20 ADD PUSH1 0x4 DUP3 ADD SLOAD DUP2 MSTORE POP POP DUP2 MSTORE PUSH1 0x20 ADD SWAP1 PUSH1 0x1 ADD SWAP1 PUSH2 0x4EA JUMP JUMPDEST POP POP POP POP SWAP1 POP PUSH1 0x0 JUMPDEST DUP2 MLOAD DUP2 LT ISZERO PUSH2 0x737 JUMPI DUP2 DUP2 DUP2 MLOAD DUP2 LT PUSH2 0x71B JUMPI PUSH2 0x71A PUSH2 0x1475 JUMP JUMPDEST JUMPDEST PUSH1 0x20 MUL PUSH1 0x20 ADD ADD MLOAD POP DUP1 DUP1 PUSH2 0x72F SWAP1 PUSH2 0x14D3 JUMP JUMPDEST SWAP2 POP POP PUSH2 0x6FF JUMP JUMPDEST POP POP JUMP JUMPDEST PUSH1 0x60 PUSH1 0x0 DUP1 CALLER PUSH20 0xFFFFFFFFFFFFFFFFFFFFFFFFFFFFFFFFFFFFFFFF AND PUSH20 0xFFFFFFFFFFFFFFFFFFFFFFFFFFFFFFFFFFFFFFFF AND DUP2 MSTORE PUSH1 0x20 ADD SWAP1 DUP2 MSTORE PUSH1 0x20 ADD PUSH1 0x0 KECCAK256 DUP1 SLOAD DUP1 PUSH1 0x20 MUL PUSH1 0x20 ADD PUSH1 0x40 MLOAD SWAP1 DUP2 ADD PUSH1 0x40 MSTORE DUP1 SWAP3 SWAP2 SWAP1 DUP2 DUP2 MSTORE PUSH1 0x20 ADD PUSH1 0x0 SWAP1 JUMPDEST DUP3 DUP3 LT ISZERO PUSH2 0x9A7 JUMPI DUP4 DUP3 SWAP1 PUSH1 0x0 MSTORE PUSH1 0x20 PUSH1 0x0 KECCAK256 SWAP1 PUSH1 0x5 MUL ADD PUSH1 0x40 MLOAD DUP1 PUSH1 0xA0 ADD PUSH1 0x40 MSTORE SWAP1 DUP2 PUSH1 0x0 DUP3 ADD PUSH1 0x0 SWAP1 SLOAD SWAP1 PUSH2 0x100 EXP SWAP1 DIV PUSH20 0xFFFFFFFFFFFFFFFFFFFFFFFFFFFFFFFFFFFFFFFF AND PUSH20 0xFFFFFFFFFFFFFFFFFFFFFFFFFFFFFFFFFFFFFFFF AND PUSH20 0xFFFFFFFFFFFFFFFFFFFFFFFFFFFFFFFFFFFFFFFF AND DUP2 MSTORE PUSH1 0x20 ADD PUSH1 0x1 DUP3 ADD PUSH1 0x0 SWAP1 SLOAD SWAP1 PUSH2 0x100 EXP SWAP1 DIV PUSH20 0xFFFFFFFFFFFFFFFFFFFFFFFFFFFFFFFFFFFFFFFF AND PUSH20 0xFFFFFFFFFFFFFFFFFFFFFFFFFFFFFFFFFFFFFFFF AND PUSH20 0xFFFFFFFFFFFFFFFFFFFFFFFFFFFFFFFFFFFFFFFF AND DUP2 MSTORE PUSH1 0x20 ADD PUSH1 0x2 DUP3 ADD DUP1 SLOAD PUSH2 0x87A SWAP1 PUSH2 0x1444 JUMP JUMPDEST DUP1 PUSH1 0x1F ADD PUSH1 0x20 DUP1 SWAP2 DIV MUL PUSH1 0x20 ADD PUSH1 0x40 MLOAD SWAP1 DUP2 ADD PUSH1 0x40 MSTORE DUP1 SWAP3 SWAP2 SWAP1 DUP2 DUP2 MSTORE PUSH1 0x20 ADD DUP3 DUP1 SLOAD PUSH2 0x8A6 SWAP1 PUSH2 0x1444 JUMP JUMPDEST DUP1 ISZERO PUSH2 0x8F3 JUMPI DUP1 PUSH1 0x1F LT PUSH2 0x8C8 JUMPI PUSH2 0x100 DUP1 DUP4 SLOAD DIV MUL DUP4 MSTORE SWAP2 PUSH1 0x20 ADD SWAP2 PUSH2 0x8F3 JUMP JUMPDEST DUP3 ADD SWAP2 SWAP1 PUSH1 0x0 MSTORE PUSH1 0x20 PUSH1 0x0 KECCAK256 SWAP1 JUMPDEST DUP2 SLOAD DUP2 MSTORE SWAP1 PUSH1 0x1 ADD SWAP1 PUSH1 0x20 ADD DUP1 DUP4 GT PUSH2 0x8D6 JUMPI DUP3 SWAP1 SUB PUSH1 0x1F AND DUP3 ADD SWAP2 JUMPDEST POP POP POP POP POP DUP2 MSTORE PUSH1 0x20 ADD PUSH1 0x3 DUP3 ADD DUP1 SLOAD PUSH2 0x90C SWAP1 PUSH2 0x1444 JUMP JUMPDEST DUP1 PUSH1 0x1F ADD PUSH1 0x20 DUP1 SWAP2 DIV MUL PUSH1 0x20 ADD PUSH1 0x40 MLOAD SWAP1 DUP2 ADD PUSH1 0x40 MSTORE DUP1 SWAP3 SWAP2 SWAP1 DUP2 DUP2 MSTORE PUSH1 0x20 ADD DUP3 DUP1 SLOAD PUSH2 0x938 SWAP1 PUSH2 0x1444 JUMP JUMPDEST DUP1 ISZERO PUSH2 0x985 JUMPI DUP1 PUSH1 0x1F LT PUSH2 0x95A JUMPI PUSH2 0x100 DUP1 DUP4 SLOAD DIV MUL DUP4 MSTORE SWAP2 PUSH1 0x20 ADD SWAP2 PUSH2 0x985 JUMP JUMPDEST DUP3 ADD SWAP2 SWAP1 PUSH1 0x0 MSTORE PUSH1 0x20 PUSH1 0x0 KECCAK256 SWAP1 JUMPDEST DUP2 SLOAD DUP2 MSTORE SWAP1 PUSH1 0x1 ADD SWAP1 PUSH1 0x20 ADD DUP1 DUP4 GT PUSH2 0x968 JUMPI DUP3 SWAP1 SUB PUSH1 0x1F AND DUP3 ADD SWAP2 JUMPDEST POP POP POP POP POP DUP2 MSTORE PUSH1 0x20 ADD PUSH1 0x4 DUP3 ADD SLOAD DUP2 MSTORE POP POP DUP2 MSTORE PUSH1 0x20 ADD SWAP1 PUSH1 0x1 ADD SWAP1 PUSH2 0x79B JUMP JUMPDEST POP POP POP POP SWAP1 POP SWAP1 JUMP JUMPDEST PUSH1 0x0 DUP1 PUSH1 0x0 DUP1 DUP5 PUSH20 0xFFFFFFFFFFFFFFFFFFFFFFFFFFFFFFFFFFFFFFFF AND PUSH20 0xFFFFFFFFFFFFFFFFFFFFFFFFFFFFFFFFFFFFFFFF AND DUP2 MSTORE PUSH1 0x20 ADD SWAP1 DUP2 MSTORE PUSH1 0x20 ADD PUSH1 0x0 KECCAK256 DUP1 SLOAD SWAP1 POP SWAP2 POP PUSH1 0x1 PUSH1 0x0 DUP5 PUSH20 0xFFFFFFFFFFFFFFFFFFFFFFFFFFFFFFFFFFFFFFFF AND PUSH20 0xFFFFFFFFFFFFFFFFFFFFFFFFFFFFFFFFFFFFFFFF AND DUP2 MSTORE PUSH1 0x20 ADD SWAP1 DUP2 MSTORE PUSH1 0x20 ADD PUSH1 0x0 KECCAK256 DUP1 SLOAD SWAP1 POP SWAP1 POP SWAP2 POP SWAP2 JUMP JUMPDEST PUSH1 0x0 PUSH20 0xFFFFFFFFFFFFFFFFFFFFFFFFFFFFFFFFFFFFFFFF AND DUP4 PUSH20 0xFFFFFFFFFFFFFFFFFFFFFFFFFFFFFFFFFFFFFFFF AND SUB PUSH2 0xAB0 JUMPI PUSH1 0x40 MLOAD PUSH32 0x8C379A000000000000000000000000000000000000000000000000000000000 DUP2 MSTORE PUSH1 0x4 ADD PUSH2 0xAA7 SWAP1 PUSH2 0x1567 JUMP JUMPDEST PUSH1 0x40 MLOAD DUP1 SWAP2 SUB SWAP1 REVERT JUMPDEST DUP3 PUSH20 0xFFFFFFFFFFFFFFFFFFFFFFFFFFFFFFFFFFFFFFFF AND CALLER PUSH20 0xFFFFFFFFFFFFFFFFFFFFFFFFFFFFFFFFFFFFFFFF AND SUB PUSH2 0xB1E JUMPI PUSH1 0x40 MLOAD PUSH32 0x8C379A000000000000000000000000000000000000000000000000000000000 DUP2 MSTORE PUSH1 0x4 ADD PUSH2 0xB15 SWAP1 PUSH2 0x15D3 JUMP JUMPDEST PUSH1 0x40 MLOAD DUP1 SWAP2 SUB SWAP1 REVERT JUMPDEST PUSH1 0x0 PUSH1 0x40 MLOAD DUP1 PUSH1 0xA0 ADD PUSH1 0x40 MSTORE DUP1 CALLER PUSH20 0xFFFFFFFFFFFFFFFFFFFFFFFFFFFFFFFFFFFFFFFF AND DUP2 MSTORE PUSH1 0x20 ADD DUP6 PUSH20 0xFFFFFFFFFFFFFFFFFFFFFFFFFFFFFFFFFFFFFFFF AND DUP2 MSTORE PUSH1 0x20 ADD DUP5 DUP2 MSTORE PUSH1 0x20 ADD DUP4 DUP2 MSTORE PUSH1 0x20 ADD TIMESTAMP DUP2 MSTORE POP SWAP1 POP PUSH1 0x0 DUP1 DUP6 PUSH20 0xFFFFFFFFFFFFFFFFFFFFFFFFFFFFFFFFFFFFFFFF AND PUSH20 0xFFFFFFFFFFFFFFFFFFFFFFFFFFFFFFFFFFFFFFFF AND DUP2 MSTORE PUSH1 0x20 ADD SWAP1 DUP2 MSTORE PUSH1 0x20 ADD PUSH1 0x0 KECCAK256 DUP2 SWAP1 DUP1 PUSH1 0x1 DUP2 SLOAD ADD DUP1 DUP3 SSTORE DUP1 SWAP2 POP POP PUSH1 0x1 SWAP1 SUB SWAP1 PUSH1 0x0 MSTORE PUSH1 0x20 PUSH1 0x0 KECCAK256 SWAP1 PUSH1 0x5 MUL ADD PUSH1 0x0 SWAP1 SWAP2 SWAP1 SWAP2 SWAP1 SWAP2 POP PUSH1 0x0 DUP3 ADD MLOAD DUP2 PUSH1 0x0 ADD PUSH1 0x0 PUSH2 0x100 EXP DUP2 SLOAD DUP2 PUSH20 0xFFFFFFFFFFFFFFFFFFFFFFFFFFFFFFFFFFFFFFFF MUL NOT AND SWAP1 DUP4 PUSH20 0xFFFFFFFFFFFFFFFFFFFFFFFFFFFFFFFFFFFFFFFF AND MUL OR SWAP1 SSTORE POP PUSH1 0x20 DUP3 ADD MLOAD DUP2 PUSH1 0x1 ADD PUSH1 0x0 PUSH2 0x100 EXP DUP2 SLOAD DUP2 PUSH20 0xFFFFFFFFFFFFFFFFFFFFFFFFFFFFFFFFFFFFFFFF MUL NOT AND SWAP1 DUP4 PUSH20 0xFFFFFFFFFFFFFFFFFFFFFFFFFFFFFFFFFFFFFFFF AND MUL OR SWAP1 SSTORE POP PUSH1 0x40 DUP3 ADD MLOAD DUP2 PUSH1 0x2 ADD SWAP1 DUP2 PUSH2 0xC80 SWAP2 SWAP1 PUSH2 0x179F JUMP JUMPDEST POP PUSH1 0x60 DUP3 ADD MLOAD DUP2 PUSH1 0x3 ADD SWAP1 DUP2 PUSH2 0xC96 SWAP2 SWAP1 PUSH2 0x179F JUMP JUMPDEST POP PUSH1 0x80 DUP3 ADD MLOAD DUP2 PUSH1 0x4 ADD SSTORE POP POP PUSH1 0x1 PUSH1 0x0 CALLER PUSH20 0xFFFFFFFFFFFFFFFFFFFFFFFFFFFFFFFFFFFFFFFF AND PUSH20 0xFFFFFFFFFFFFFFFFFFFFFFFFFFFFFFFFFFFFFFFF AND DUP2 MSTORE PUSH1 0x20 ADD SWAP1 DUP2 MSTORE PUSH1 0x20 ADD PUSH1 0x0 KECCAK256 DUP2 SWAP1 DUP1 PUSH1 0x1 DUP2 SLOAD ADD DUP1 DUP3 SSTORE DUP1 SWAP2 POP POP PUSH1 0x1 SWAP1 SUB SWAP1 PUSH1 0x0 MSTORE PUSH1 0x20 PUSH1 0x0 KECCAK256 SWAP1 PUSH1 0x5 MUL ADD PUSH1 0x0 SWAP1 SWAP2 SWAP1 SWAP2 SWAP1 SWAP2 POP PUSH1 0x0 DUP3 ADD MLOAD DUP2 PUSH1 0x0 ADD PUSH1 0x0 PUSH2 0x100 EXP DUP2 SLOAD DUP2 PUSH20 0xFFFFFFFFFFFFFFFFFFFFFFFFFFFFFFFFFFFFFFFF MUL NOT AND SWAP1 DUP4 PUSH20 0xFFFFFFFFFFFFFFFFFFFFFFFFFFFFFFFFFFFFFFFF AND MUL OR SWAP1 SSTORE POP PUSH1 0x20 DUP3 ADD MLOAD DUP2 PUSH1 0x1 ADD PUSH1 0x0 PUSH2 0x100 EXP DUP2 SLOAD DUP2 PUSH20 0xFFFFFFFFFFFFFFFFFFFFFFFFFFFFFFFFFFFFFFFF MUL NOT AND SWAP1 DUP4 PUSH20 0xFFFFFFFFFFFFFFFFFFFFFFFFFFFFFFFFFFFFFFFF AND MUL OR SWAP1 SSTORE POP PUSH1 0x40 DUP3 ADD MLOAD DUP2 PUSH1 0x2 ADD SWAP1 DUP2 PUSH2 0xDAF SWAP2 SWAP1 PUSH2 0x179F JUMP JUMPDEST POP PUSH1 0x60 DUP3 ADD MLOAD DUP2 PUSH1 0x3 ADD SWAP1 DUP2 PUSH2 0xDC5 SWAP2 SWAP1 PUSH2 0x179F JUMP JUMPDEST POP PUSH1 0x80 DUP3 ADD MLOAD DUP2 PUSH1 0x4 ADD SSTORE POP POP DUP4 PUSH20 0xFFFFFFFFFFFFFFFFFFFFFFFFFFFFFFFFFFFFFFFF AND CALLER PUSH20 0xFFFFFFFFFFFFFFFFFFFFFFFFFFFFFFFFFFFFFFFF AND PUSH32 0x2ECDF33A271447607B6ACA3173F5F892E91720D5106F80C513AA4710A2BB4E33 DUP6 TIMESTAMP PUSH1 0x40 MLOAD PUSH2 0xE31 SWAP3 SWAP2 SWAP1 PUSH2 0x1871 JUMP JUMPDEST PUSH1 0x40 MLOAD DUP1 SWAP2 SUB SWAP1 LOG3 POP POP POP POP JUMP JUMPDEST PUSH1 0x0 PUSH1 0x40 MLOAD SWAP1 POP SWAP1 JUMP JUMPDEST PUSH1 0x0 DUP1 REVERT JUMPDEST PUSH1 0x0 DUP1 REVERT JUMPDEST PUSH1 0x0 PUSH20 0xFFFFFFFFFFFFFFFFFFFFFFFFFFFFFFFFFFFFFFFF DUP3 AND SWAP1 POP SWAP2 SWAP1 POP JUMP JUMPDEST PUSH1 0x0 PUSH2 0xE7E DUP3 PUSH2 0xE53 JUMP JUMPDEST SWAP1 POP SWAP2 SWAP1 POP JUMP JUMPDEST PUSH2 0xE8E DUP2 PUSH2 0xE73 JUMP JUMPDEST DUP2 EQ PUSH2 0xE99 JUMPI PUSH1 0x0 DUP1 REVERT JUMPDEST POP JUMP JUMPDEST PUSH1 0x0 DUP2 CALLDATALOAD SWAP1 POP PUSH2 0xEAB DUP2 PUSH2 0xE85 JUMP JUMPDEST SWAP3 SWAP2 POP POP JUMP JUMPDEST PUSH1 0x0 DUP2 SWAP1 POP SWAP2 SWAP1 POP JUMP JUMPDEST PUSH2 0xEC4 DUP2 PUSH2 0xEB1 JUMP JUMPDEST DUP2 EQ PUSH2 0xECF JUMPI PUSH1 0x0 DUP1 REVERT JUMPDEST POP JUMP JUMPDEST PUSH1 0x0 DUP2 CALLDATALOAD SWAP1 POP PUSH2 0xEE1 DUP2 PUSH2 0xEBB JUMP JUMPDEST SWAP3 SWAP2 POP POP JUMP JUMPDEST PUSH1 0x0 DUP1 PUSH1 0x40 DUP4 DUP6 SUB SLT ISZERO PUSH2 0xEFE JUMPI PUSH2 0xEFD PUSH2 0xE49 JUMP JUMPDEST JUMPDEST PUSH1 0x0 PUSH2 0xF0C DUP6 DUP3 DUP7 ADD PUSH2 0xE9C JUMP JUMPDEST SWAP3 POP POP PUSH1 0x20 PUSH2 0xF1D DUP6 DUP3 DUP7 ADD PUSH2 0xED2 JUMP JUMPDEST SWAP2 POP POP SWAP3 POP SWAP3 SWAP1 POP JUMP JUMPDEST PUSH2 0xF30 DUP2 PUSH2 0xE73 JUMP JUMPDEST DUP3 MSTORE POP POP JUMP JUMPDEST PUSH1 0x0 DUP2 MLOAD SWAP1 POP SWAP2 SWAP1 POP JUMP JUMPDEST PUSH1 0x0 DUP3 DUP3 MSTORE PUSH1 0x20 DUP3 ADD SWAP1 POP SWAP3 SWAP2 POP POP JUMP JUMPDEST PUSH1 0x0 JUMPDEST DUP4 DUP2 LT ISZERO PUSH2 0xF70 JUMPI DUP1 DUP3 ADD MLOAD DUP2 DUP5 ADD MSTORE PUSH1 0x20 DUP2 ADD SWAP1 POP PUSH2 0xF55 JUMP JUMPDEST PUSH1 0x0 DUP5 DUP5 ADD MSTORE POP POP POP POP JUMP JUMPDEST PUSH1 0x0 PUSH1 0x1F NOT PUSH1 0x1F DUP4 ADD AND SWAP1 POP SWAP2 SWAP1 POP JUMP JUMPDEST PUSH1 0x0 PUSH2 0xF98 DUP3 PUSH2 0xF36 JUMP JUMPDEST PUSH2 0xFA2 DUP2 DUP6 PUSH2 0xF41 JUMP JUMPDEST SWAP4 POP PUSH2 0xFB2 DUP2 DUP6 PUSH1 0x20 DUP7 ADD PUSH2 0xF52 JUMP JUMPDEST PUSH2 0xFBB DUP2 PUSH2 0xF7C JUMP JUMPDEST DUP5 ADD SWAP2 POP POP SWAP3 SWAP2 POP POP JUMP JUMPDEST PUSH2 0xFCF DUP2 PUSH2 0xEB1 JUMP JUMPDEST DUP3 MSTORE POP POP JUMP JUMPDEST PUSH1 0x0 PUSH1 0xA0 DUP3 ADD SWAP1 POP PUSH2 0xFEA PUSH1 0x0 DUP4 ADD DUP9 PUSH2 0xF27 JUMP JUMPDEST PUSH2 0xFF7 PUSH1 0x20 DUP4 ADD DUP8 PUSH2 0xF27 JUMP JUMPDEST DUP2 DUP2 SUB PUSH1 0x40 DUP4 ADD MSTORE PUSH2 0x1009 DUP2 DUP7 PUSH2 0xF8D JUMP JUMPDEST SWAP1 POP DUP2 DUP2 SUB PUSH1 0x60 DUP4 ADD MSTORE PUSH2 0x101D DUP2 DUP6 PUSH2 0xF8D JUMP JUMPDEST SWAP1 POP PUSH2 0x102C PUSH1 0x80 DUP4 ADD DUP5 PUSH2 0xFC6 JUMP JUMPDEST SWAP7 SWAP6 POP POP POP POP POP POP JUMP JUMPDEST PUSH1 0x0 DUP2 MLOAD SWAP1 POP SWAP2 SWAP1 POP JUMP JUMPDEST PUSH1 0x0 DUP3 DUP3 MSTORE PUSH1 0x20 DUP3 ADD SWAP1 POP SWAP3 SWAP2 POP POP JUMP JUMPDEST PUSH1 0x0 DUP2 SWAP1 POP PUSH1 0x20 DUP3 ADD SWAP1 POP SWAP2 SWAP1 POP JUMP JUMPDEST PUSH2 0x106B DUP2 PUSH2 0xE73 JUMP JUMPDEST DUP3 MSTORE POP POP JUMP JUMPDEST PUSH1 0x0 DUP3 DUP3 MSTORE PUSH1 0x20 DUP3 ADD SWAP1 POP SWAP3 SWAP2 POP POP JUMP JUMPDEST PUSH1 0x0 PUSH2 0x108D DUP3 PUSH2 0xF36 JUMP JUMPDEST PUSH2 0x1097 DUP2 DUP6 PUSH2 0x1071 JUMP JUMPDEST SWAP4 POP PUSH2 0x10A7 DUP2 DUP6 PUSH1 0x20 DUP7 ADD PUSH2 0xF52 JUMP JUMPDEST PUSH2 0x10B0 DUP2 PUSH2 0xF7C JUMP JUMPDEST DUP5 ADD SWAP2 POP POP SWAP3 SWAP2 POP POP JUMP JUMPDEST PUSH2 0x10C4 DUP2 PUSH2 0xEB1 JUMP JUMPDEST DUP3 MSTORE POP POP JUMP JUMPDEST PUSH1 0x0 PUSH1 0xA0 DUP4 ADD PUSH1 0x0 DUP4 ADD MLOAD PUSH2 0x10E2 PUSH1 0x0 DUP7 ADD DUP3 PUSH2 0x1062 JUMP JUMPDEST POP PUSH1 0x20 DUP4 ADD MLOAD PUSH2 0x10F5 PUSH1 0x20 DUP7 ADD DUP3 PUSH2 0x1062 JUMP JUMPDEST POP PUSH1 0x40 DUP4 ADD MLOAD DUP5 DUP3 SUB PUSH1 0x40 DUP7 ADD MSTORE PUSH2 0x110D DUP3 DUP3 PUSH2 0x1082 JUMP JUMPDEST SWAP2 POP POP PUSH1 0x60 DUP4 ADD MLOAD DUP5 DUP3 SUB PUSH1 0x60 DUP7 ADD MSTORE PUSH2 0x1127 DUP3 DUP3 PUSH2 0x1082 JUMP JUMPDEST SWAP2 POP POP PUSH1 0x80 DUP4 ADD MLOAD PUSH2 0x113C PUSH1 0x80 DUP7 ADD DUP3 PUSH2 0x10BB JUMP JUMPDEST POP DUP1 SWAP2 POP POP SWAP3 SWAP2 POP POP JUMP JUMPDEST PUSH1 0x0 PUSH2 0x1153 DUP4 DUP4 PUSH2 0x10CA JUMP JUMPDEST SWAP1 POP SWAP3 SWAP2 POP POP JUMP JUMPDEST PUSH1 0x0 PUSH1 0x20 DUP3 ADD SWAP1 POP SWAP2 SWAP1 POP JUMP JUMPDEST PUSH1 0x0 PUSH2 0x1173 DUP3 PUSH2 0x1036 JUMP JUMPDEST PUSH2 0x117D DUP2 DUP6 PUSH2 0x1041 JUMP JUMPDEST SWAP4 POP DUP4 PUSH1 0x20 DUP3 MUL DUP6 ADD PUSH2 0x118F DUP6 PUSH2 0x1052 JUMP JUMPDEST DUP1 PUSH1 0x0 JUMPDEST DUP6 DUP2 LT ISZERO PUSH2 0x11CB JUMPI DUP5 DUP5 SUB DUP10 MSTORE DUP2 MLOAD PUSH2 0x11AC DUP6 DUP3 PUSH2 0x1147 JUMP JUMPDEST SWAP5 POP PUSH2 0x11B7 DUP4 PUSH2 0x115B JUMP JUMPDEST SWAP3 POP PUSH1 0x20 DUP11 ADD SWAP10 POP POP PUSH1 0x1 DUP2 ADD SWAP1 POP PUSH2 0x1193 JUMP JUMPDEST POP DUP3 SWAP8 POP DUP8 SWAP6 POP POP POP POP POP POP SWAP3 SWAP2 POP POP JUMP JUMPDEST PUSH1 0x0 PUSH1 0x20 DUP3 ADD SWAP1 POP DUP2 DUP2 SUB PUSH1 0x0 DUP4 ADD MSTORE PUSH2 0x11F7 DUP2 DUP5 PUSH2 0x1168 JUMP JUMPDEST SWAP1 POP SWAP3 SWAP2 POP POP JUMP JUMPDEST PUSH1 0x0 PUSH1 0x20 DUP3 DUP5 SUB SLT ISZERO PUSH2 0x1215 JUMPI PUSH2 0x1214 PUSH2 0xE49 JUMP JUMPDEST JUMPDEST PUSH1 0x0 PUSH2 0x1223 DUP5 DUP3 DUP6 ADD PUSH2 0xE9C JUMP JUMPDEST SWAP2 POP POP SWAP3 SWAP2 POP POP JUMP JUMPDEST PUSH1 0x0 PUSH1 0x40 DUP3 ADD SWAP1 POP PUSH2 0x1241 PUSH1 0x0 DUP4 ADD DUP6 PUSH2 0xFC6 JUMP JUMPDEST PUSH2 0x124E PUSH1 0x20 DUP4 ADD DUP5 PUSH2 0xFC6 JUMP JUMPDEST SWAP4 SWAP3 POP POP POP JUMP JUMPDEST PUSH1 0x0 DUP1 REVERT JUMPDEST PUSH1 0x0 DUP1 REVERT JUMPDEST PUSH32 0x4E487B7100000000000000000000000000000000000000000000000000000000 PUSH1 0x0 MSTORE PUSH1 0x41 PUSH1 0x4 MSTORE PUSH1 0x24 PUSH1 0x0 REVERT JUMPDEST PUSH2 0x1297 DUP3 PUSH2 0xF7C JUMP JUMPDEST DUP2 ADD DUP2 DUP2 LT PUSH8 0xFFFFFFFFFFFFFFFF DUP3 GT OR ISZERO PUSH2 0x12B6 JUMPI PUSH2 0x12B5 PUSH2 0x125F JUMP JUMPDEST JUMPDEST DUP1 PUSH1 0x40 MSTORE POP POP POP JUMP JUMPDEST PUSH1 0x0 PUSH2 0x12C9 PUSH2 0xE3F JUMP JUMPDEST SWAP1 POP PUSH2 0x12D5 DUP3 DUP3 PUSH2 0x128E JUMP JUMPDEST SWAP2 SWAP1 POP JUMP JUMPDEST PUSH1 0x0 PUSH8 0xFFFFFFFFFFFFFFFF DUP3 GT ISZERO PUSH2 0x12F5 JUMPI PUSH2 0x12F4 PUSH2 0x125F JUMP JUMPDEST JUMPDEST PUSH2 0x12FE DUP3 PUSH2 0xF7C JUMP JUMPDEST SWAP1 POP PUSH1 0x20 DUP2 ADD SWAP1 POP SWAP2 SWAP1 POP JUMP JUMPDEST DUP3 DUP2 DUP4 CALLDATACOPY PUSH1 0x0 DUP4 DUP4 ADD MSTORE POP POP POP JUMP JUMPDEST PUSH1 0x0 PUSH2 0x132D PUSH2 0x1328 DUP5 PUSH2 0x12DA JUMP JUMPDEST PUSH2 0x12BF JUMP JUMPDEST SWAP1 POP DUP3 DUP2 MSTORE PUSH1 0x20 DUP2 ADD DUP5 DUP5 DUP5 ADD GT ISZERO PUSH2 0x1349 JUMPI PUSH2 0x1348 PUSH2 0x125A JUMP JUMPDEST JUMPDEST PUSH2 0x1354 DUP5 DUP3 DUP6 PUSH2 0x130B JUMP JUMPDEST POP SWAP4 SWAP3 POP POP POP JUMP JUMPDEST PUSH1 0x0 DUP3 PUSH1 0x1F DUP4 ADD SLT PUSH2 0x1371 JUMPI PUSH2 0x1370 PUSH2 0x1255 JUMP JUMPDEST JUMPDEST DUP2 CALLDATALOAD PUSH2 0x1381 DUP5 DUP3 PUSH1 0x20 DUP7 ADD PUSH2 0x131A JUMP JUMPDEST SWAP2 POP POP SWAP3 SWAP2 POP POP JUMP JUMPDEST PUSH1 0x0 DUP1 PUSH1 0x0 PUSH1 0x60 DUP5 DUP7 SUB SLT ISZERO PUSH2 0x13A3 JUMPI PUSH2 0x13A2 PUSH2 0xE49 JUMP JUMPDEST JUMPDEST PUSH1 0x0 PUSH2 0x13B1 DUP7 DUP3 DUP8 ADD PUSH2 0xE9C JUMP JUMPDEST SWAP4 POP POP PUSH1 0x20 DUP5 ADD CALLDATALOAD PUSH8 0xFFFFFFFFFFFFFFFF DUP2 GT ISZERO PUSH2 0x13D2 JUMPI PUSH2 0x13D1 PUSH2 0xE4E JUMP JUMPDEST JUMPDEST PUSH2 0x13DE DUP7 DUP3 DUP8 ADD PUSH2 0x135C JUMP JUMPDEST SWAP3 POP POP PUSH1 0x40 DUP5 ADD CALLDATALOAD PUSH8 0xFFFFFFFFFFFFFFFF DUP2 GT ISZERO PUSH2 0x13FF JUMPI PUSH2 0x13FE PUSH2 0xE4E JUMP JUMPDEST JUMPDEST PUSH2 0x140B DUP7 DUP3 DUP8 ADD PUSH2 0x135C JUMP JUMPDEST SWAP2 POP POP SWAP3 POP SWAP3 POP SWAP3 JUMP JUMPDEST PUSH32 0x4E487B7100000000000000000000000000000000000000000000000000000000 PUSH1 0x0 MSTORE PUSH1 0x22 PUSH1 0x4 MSTORE PUSH1 0x24 PUSH1 0x0 REVERT JUMPDEST PUSH1 0x0 PUSH1 0x2 DUP3 DIV SWAP1 POP PUSH1 0x1 DUP3 AND DUP1 PUSH2 0x145C JUMPI PUSH1 0x7F DUP3 AND SWAP2 POP JUMPDEST PUSH1 0x20 DUP3 LT DUP2 SUB PUSH2 0x146F JUMPI PUSH2 0x146E PUSH2 0x1415 JUMP JUMPDEST JUMPDEST POP SWAP2 SWAP1 POP JUMP JUMPDEST PUSH32 0x4E487B7100000000000000000000000000000000000000000000000000000000 PUSH1 0x0 MSTORE PUSH1 0x32 PUSH1 0x4 MSTORE PUSH1 0x24 PUSH1 0x0 REVERT JUMPDEST PUSH32 0x4E487B7100000000000000000000000000000000000000000000000000000000 PUSH1 0x0 MSTORE PUSH1 0x11 PUSH1 0x4 MSTORE PUSH1 0x24 PUSH1 0x0 REVERT JUMPDEST PUSH1 0x0 PUSH2 0x14DE DUP3 PUSH2 0xEB1 JUMP JUMPDEST SWAP2 POP PUSH32 0xFFFFFFFFFFFFFFFFFFFFFFFFFFFFFFFFFFFFFFFFFFFFFFFFFFFFFFFFFFFFFFFF DUP3 SUB PUSH2 0x1510 JUMPI PUSH2 0x150F PUSH2 0x14A4 JUMP JUMPDEST JUMPDEST PUSH1 0x1 DUP3 ADD SWAP1 POP SWAP2 SWAP1 POP JUMP JUMPDEST PUSH32 0x526563656976657220616464726573732063616E6E6F74206265207A65726F00 PUSH1 0x0 DUP3 ADD MSTORE POP JUMP JUMPDEST PUSH1 0x0 PUSH2 0x1551 PUSH1 0x1F DUP4 PUSH2 0xF41 JUMP JUMPDEST SWAP2 POP PUSH2 0x155C DUP3 PUSH2 0x151B JUMP JUMPDEST PUSH1 0x20 DUP3 ADD SWAP1 POP SWAP2 SWAP1 POP JUMP JUMPDEST PUSH1 0x0 PUSH1 0x20 DUP3 ADD SWAP1 POP DUP2 DUP2 SUB PUSH1 0x0 DUP4 ADD MSTORE PUSH2 0x1580 DUP2 PUSH2 0x1544 JUMP JUMPDEST SWAP1 POP SWAP2 SWAP1 POP JUMP JUMPDEST PUSH32 0x43616E6E6F742073656E6420616E20656D61696C20746F20796F757273656C66 PUSH1 0x0 DUP3 ADD MSTORE POP JUMP JUMPDEST PUSH1 0x0 PUSH2 0x15BD PUSH1 0x20 DUP4 PUSH2 0xF41 JUMP JUMPDEST SWAP2 POP PUSH2 0x15C8 DUP3 PUSH2 0x1587 JUMP JUMPDEST PUSH1 0x20 DUP3 ADD SWAP1 POP SWAP2 SWAP1 POP JUMP JUMPDEST PUSH1 0x0 PUSH1 0x20 DUP3 ADD SWAP1 POP DUP2 DUP2 SUB PUSH1 0x0 DUP4 ADD MSTORE PUSH2 0x15EC DUP2 PUSH2 0x15B0 JUMP JUMPDEST SWAP1 POP SWAP2 SWAP1 POP JUMP JUMPDEST PUSH1 0x0 DUP2 SWAP1 POP DUP2 PUSH1 0x0 MSTORE PUSH1 0x20 PUSH1 0x0 KECCAK256 SWAP1 POP SWAP2 SWAP1 POP JUMP JUMPDEST PUSH1 0x0 PUSH1 0x20 PUSH1 0x1F DUP4 ADD DIV SWAP1 POP SWAP2 SWAP1 POP JUMP JUMPDEST PUSH1 0x0 DUP3 DUP3 SHL SWAP1 POP SWAP3 SWAP2 POP POP JUMP JUMPDEST PUSH1 0x0 PUSH1 0x8 DUP4 MUL PUSH2 0x1655 PUSH32 0xFFFFFFFFFFFFFFFFFFFFFFFFFFFFFFFFFFFFFFFFFFFFFFFFFFFFFFFFFFFFFFFF DUP3 PUSH2 0x1618 JUMP JUMPDEST PUSH2 0x165F DUP7 DUP4 PUSH2 0x1618 JUMP JUMPDEST SWAP6 POP DUP1 NOT DUP5 AND SWAP4 POP DUP1 DUP7 AND DUP5 OR SWAP3 POP POP POP SWAP4 SWAP3 POP POP POP JUMP JUMPDEST PUSH1 0x0 DUP2 SWAP1 POP SWAP2 SWAP1 POP JUMP JUMPDEST PUSH1 0x0 PUSH2 0x169C PUSH2 0x1697 PUSH2 0x1692 DUP5 PUSH2 0xEB1 JUMP JUMPDEST PUSH2 0x1677 JUMP JUMPDEST PUSH2 0xEB1 JUMP JUMPDEST SWAP1 POP SWAP2 SWAP1 POP JUMP JUMPDEST PUSH1 0x0 DUP2 SWAP1 POP SWAP2 SWAP1 POP JUMP JUMPDEST PUSH2 0x16B6 DUP4 PUSH2 0x1681 JUMP JUMPDEST PUSH2 0x16CA PUSH2 0x16C2 DUP3 PUSH2 0x16A3 JUMP JUMPDEST DUP5 DUP5 SLOAD PUSH2 0x1625 JUMP JUMPDEST DUP3 SSTORE POP POP POP POP JUMP JUMPDEST PUSH1 0x0 SWAP1 JUMP JUMPDEST PUSH2 0x16DF PUSH2 0x16D2 JUMP JUMPDEST PUSH2 0x16EA DUP2 DUP5 DUP5 PUSH2 0x16AD JUMP JUMPDEST POP POP POP JUMP JUMPDEST JUMPDEST DUP2 DUP2 LT ISZERO PUSH2 0x170E JUMPI PUSH2 0x1703 PUSH1 0x0 DUP3 PUSH2 0x16D7 JUMP JUMPDEST PUSH1 0x1 DUP2 ADD SWAP1 POP PUSH2 0x16F0 JUMP JUMPDEST POP POP JUMP JUMPDEST PUSH1 0x1F DUP3 GT ISZERO PUSH2 0x1753 JUMPI PUSH2 0x1724 DUP2 PUSH2 0x15F3 JUMP JUMPDEST PUSH2 0x172D DUP5 PUSH2 0x1608 JUMP JUMPDEST DUP2 ADD PUSH1 0x20 DUP6 LT ISZERO PUSH2 0x173C JUMPI DUP2 SWAP1 POP JUMPDEST PUSH2 0x1750 PUSH2 0x1748 DUP6 PUSH2 0x1608 JUMP JUMPDEST DUP4 ADD DUP3 PUSH2 0x16EF JUMP JUMPDEST POP POP JUMPDEST POP POP POP JUMP JUMPDEST PUSH1 0x0 DUP3 DUP3 SHR SWAP1 POP SWAP3 SWAP2 POP POP JUMP JUMPDEST PUSH1 0x0 PUSH2 0x1776 PUSH1 0x0 NOT DUP5 PUSH1 0x8 MUL PUSH2 0x1758 JUMP JUMPDEST NOT DUP1 DUP4 AND SWAP2 POP POP SWAP3 SWAP2 POP POP JUMP JUMPDEST PUSH1 0x0 PUSH2 0x178F DUP4 DUP4 PUSH2 0x1765 JUMP JUMPDEST SWAP2 POP DUP3 PUSH1 0x2 MUL DUP3 OR SWAP1 POP SWAP3 SWAP2 POP POP JUMP JUMPDEST PUSH2 0x17A8 DUP3 PUSH2 0xF36 JUMP JUMPDEST PUSH8 0xFFFFFFFFFFFFFFFF DUP2 GT ISZERO PUSH2 0x17C1 JUMPI PUSH2 0x17C0 PUSH2 0x125F JUMP JUMPDEST JUMPDEST PUSH2 0x17CB DUP3 SLOAD PUSH2 0x1444 JUMP JUMPDEST PUSH2 0x17D6 DUP3 DUP3 DUP6 PUSH2 0x1712 JUMP JUMPDEST PUSH1 0x0 PUSH1 0x20 SWAP1 POP PUSH1 0x1F DUP4 GT PUSH1 0x1 DUP2 EQ PUSH2 0x1809 JUMPI PUSH1 0x0 DUP5 ISZERO PUSH2 0x17F7 JUMPI DUP3 DUP8 ADD MLOAD SWAP1 POP JUMPDEST PUSH2 0x1801 DUP6 DUP3 PUSH2 0x1783 JUMP JUMPDEST DUP7 SSTORE POP PUSH2 0x1869 JUMP JUMPDEST PUSH1 0x1F NOT DUP5 AND PUSH2 0x1817 DUP7 PUSH2 0x15F3 JUMP JUMPDEST PUSH1 0x0 JUMPDEST DUP3 DUP2 LT ISZERO PUSH2 0x183F JUMPI DUP5 DUP10 ADD MLOAD DUP3 SSTORE PUSH1 0x1 DUP3 ADD SWAP2 POP PUSH1 0x20 DUP6 ADD SWAP5 POP PUSH1 0x20 DUP2 ADD SWAP1 POP PUSH2 0x181A JUMP JUMPDEST DUP7 DUP4 LT ISZERO PUSH2 0x185C JUMPI DUP5 DUP10 ADD MLOAD PUSH2 0x1858 PUSH1 0x1F DUP10 AND DUP3 PUSH2 0x1765 JUMP JUMPDEST DUP4 SSTORE POP JUMPDEST PUSH1 0x1 PUSH1 0x2 DUP9 MUL ADD DUP9 SSTORE POP POP POP JUMPDEST POP POP POP POP POP POP JUMP JUMPDEST PUSH1 0x0 PUSH1 0x40 DUP3 ADD SWAP1 POP DUP2 DUP2 SUB PUSH1 0x0 DUP4 ADD MSTORE PUSH2 0x188B DUP2 DUP6 PUSH2 0xF8D JUMP JUMPDEST SWAP1 POP PUSH2 0x189A PUSH1 0x20 DUP4 ADD DUP5 PUSH2 0xFC6 JUMP JUMPDEST SWAP4 SWAP3 POP POP POP JUMP INVALID LOG2 PUSH5 0x6970667358 0x22 SLT KECCAK256 DUP9 0xCD 0xD5 0xB9 0xC1 SSTORE 0xCF CALLDATALOAD 0xBC 0xB7 0xA6 PUSH12 0x748F93DECFCCA25928D9455B EQ PUSH32 0x42C4CA5DF12664736F6C63430008120033000000000000000000000000000000 "
				},
				"gasEstimates": {
					"creation": {
						"codeDepositCost": "1271800",
						"executionCost": "1322",
						"totalCost": "1273122"
					},
					"external": {
						"getEmailCount(address)": "infinite",
						"getUserMessages()": "infinite",
						"inbox(address,uint256)": "infinite",
						"printUserMessages()": "infinite",
						"sendEmail(address,string,string)": "infinite",
						"sent(address,uint256)": "infinite"
					}
				},
				"methodIdentifiers": {
					"getEmailCount(address)": "8a887541",
					"getUserMessages()": "792f6183",
					"inbox(address,uint256)": "4d622e7a",
					"printUserMessages()": "4d7206ab",
					"sendEmail(address,string,string)": "8bb89879",
					"sent(address,uint256)": "3bcb2e66"
				}
			},
			"storageLayout": {
				"storage": [
					{
						"astId": 18,
						"contract": "contracts/gpt.sol:EmailContract",
						"label": "inbox",
						"offset": 0,
						"slot": "0",
						"type": "t_mapping(t_address,t_array(t_struct(Email)12_storage)dyn_storage)"
					},
					{
						"astId": 24,
						"contract": "contracts/gpt.sol:EmailContract",
						"label": "sent",
						"offset": 0,
						"slot": "1",
						"type": "t_mapping(t_address,t_array(t_struct(Email)12_storage)dyn_storage)"
					}
				],
				"types": {
					"t_address": {
						"encoding": "inplace",
						"label": "address",
						"numberOfBytes": "20"
					},
					"t_array(t_struct(Email)12_storage)dyn_storage": {
						"base": "t_struct(Email)12_storage",
						"encoding": "dynamic_array",
						"label": "struct EmailContract.Email[]",
						"numberOfBytes": "32"
					},
					"t_mapping(t_address,t_array(t_struct(Email)12_storage)dyn_storage)": {
						"encoding": "mapping",
						"key": "t_address",
						"label": "mapping(address => struct EmailContract.Email[])",
						"numberOfBytes": "32",
						"value": "t_array(t_struct(Email)12_storage)dyn_storage"
					},
					"t_string_storage": {
						"encoding": "bytes",
						"label": "string",
						"numberOfBytes": "32"
					},
					"t_struct(Email)12_storage": {
						"encoding": "inplace",
						"label": "struct EmailContract.Email",
						"members": [
							{
								"astId": 3,
								"contract": "contracts/gpt.sol:EmailContract",
								"label": "sender",
								"offset": 0,
								"slot": "0",
								"type": "t_address"
							},
							{
								"astId": 5,
								"contract": "contracts/gpt.sol:EmailContract",
								"label": "receiver",
								"offset": 0,
								"slot": "1",
								"type": "t_address"
							},
							{
								"astId": 7,
								"contract": "contracts/gpt.sol:EmailContract",
								"label": "subject",
								"offset": 0,
								"slot": "2",
								"type": "t_string_storage"
							},
							{
								"astId": 9,
								"contract": "contracts/gpt.sol:EmailContract",
								"label": "message",
								"offset": 0,
								"slot": "3",
								"type": "t_string_storage"
							},
							{
								"astId": 11,
								"contract": "contracts/gpt.sol:EmailContract",
								"label": "timestamp",
								"offset": 0,
								"slot": "4",
								"type": "t_uint256"
							}
						],
						"numberOfBytes": "160"
					},
					"t_uint256": {
						"encoding": "inplace",
						"label": "uint256",
						"numberOfBytes": "32"
					}
				}
			},
			"userdoc": {
				"kind": "user",
				"methods": {},
				"version": 1
			}
		}
	}
}